{
	"6-Array/Arrays.sol": {
		"arrays": {
			"abi": [
				{
					"inputs": [
						{
							"internalType": "uint256",
							"name": "",
							"type": "uint256"
						}
					],
					"name": "arr",
					"outputs": [
						{
							"internalType": "uint256",
							"name": "",
							"type": "uint256"
						}
					],
					"stateMutability": "view",
					"type": "function"
				},
				{
					"inputs": [],
					"name": "getAllValues",
					"outputs": [
						{
							"internalType": "uint256[4]",
							"name": "",
							"type": "uint256[4]"
						}
					],
					"stateMutability": "view",
					"type": "function"
				},
				{
					"inputs": [],
					"name": "getSum",
					"outputs": [
						{
							"internalType": "uint256",
							"name": "",
							"type": "uint256"
						}
					],
					"stateMutability": "view",
					"type": "function"
				},
				{
					"inputs": [
						{
							"internalType": "uint256",
							"name": "index",
							"type": "uint256"
						}
					],
					"name": "getValue",
					"outputs": [
						{
							"internalType": "uint256",
							"name": "",
							"type": "uint256"
						}
					],
					"stateMutability": "view",
					"type": "function"
				},
				{
					"inputs": [
						{
							"internalType": "uint256",
							"name": "index",
							"type": "uint256"
						}
					],
					"name": "isValidIndex",
					"outputs": [
						{
							"internalType": "bool",
							"name": "",
							"type": "bool"
						}
					],
					"stateMutability": "pure",
					"type": "function"
				},
				{
					"inputs": [],
					"name": "length",
					"outputs": [
						{
							"internalType": "uint256",
							"name": "",
							"type": "uint256"
						}
					],
					"stateMutability": "view",
					"type": "function"
				},
				{
					"inputs": [
						{
							"internalType": "uint256",
							"name": "index",
							"type": "uint256"
						}
					],
					"name": "safeGetValue",
					"outputs": [
						{
							"internalType": "uint256",
							"name": "",
							"type": "uint256"
						}
					],
					"stateMutability": "view",
					"type": "function"
				},
				{
					"inputs": [
						{
							"internalType": "uint256",
							"name": "index",
							"type": "uint256"
						},
						{
							"internalType": "uint256",
							"name": "value",
							"type": "uint256"
						}
					],
					"name": "safeSetter",
					"outputs": [],
					"stateMutability": "nonpayable",
					"type": "function"
				},
				{
					"inputs": [
						{
							"internalType": "uint256",
							"name": "index",
							"type": "uint256"
						},
						{
							"internalType": "uint256",
							"name": "value",
							"type": "uint256"
						}
					],
					"name": "setter",
					"outputs": [],
					"stateMutability": "nonpayable",
					"type": "function"
				}
			],
			"devdoc": {
				"details": "Shows how to work with fixed-size arrays in Solidity",
				"kind": "dev",
				"methods": {
					"getAllValues()": {
						"details": "Function to get all values in the array",
						"returns": {
							"_0": "The complete array"
						}
					},
					"getSum()": {
						"details": "Function to get the sum of all array elements",
						"returns": {
							"_0": "The sum of all values in the array"
						}
					},
					"getValue(uint256)": {
						"details": "Function to read a value from the array at a specific indexWARNING: No bounds checking - will revert if index is out of bounds",
						"params": {
							"index": "The position in the array to read (0 to 3)"
						},
						"returns": {
							"_0": "The value stored at the specified index"
						}
					},
					"isValidIndex(uint256)": {
						"details": "Function to demonstrate array bounds checking",
						"params": {
							"index": "The position in the array to check"
						},
						"returns": {
							"_0": "true if the index is valid, false otherwise"
						}
					},
					"length()": {
						"details": "Function to get the length of the array",
						"returns": {
							"_0": "The length of the array (always 4 for this fixed-size array)"
						}
					},
					"safeGetValue(uint256)": {
						"details": "Function to demonstrate safe array access with bounds checkingThis is the recommended way to access arrays in production code",
						"params": {
							"index": "The position in the array to access"
						},
						"returns": {
							"_0": "The value at the specified index"
						}
					},
					"safeSetter(uint256,uint256)": {
						"details": "Function to demonstrate safe array update with bounds checking",
						"params": {
							"index": "The position in the array to update",
							"value": "The new value to store"
						}
					},
					"setter(uint256,uint256)": {
						"details": "Function to update a value in the array at a specific indexWARNING: This function doesn't check bounds - accessing invalid indices will cause errorsIn production code, you should add require(index < arr.length, \"Index out of bounds\")",
						"params": {
							"index": "The position in the array to update (0 to 3)",
							"value": "The new value to store at the specified index"
						}
					}
				},
				"stateVariables": {
					"arr": {
						"details": "Fixed-size array declaration with initializationIMPORTANT: Accessing indices outside 0-3 will cause a runtime error"
					}
				},
				"title": "Array Demonstration Contract",
				"version": 1
			},
			"evm": {
				"assembly": "    /* \"6-Array/Arrays.sol\":334:4463  contract arrays {... */\n  mstore(0x40, 0x80)\n    /* \"6-Array/Arrays.sol\":847:887  uint256[4] public arr = [10, 20, 30, 40] */\n  mload(0x40)\n  dup1\n  0x80\n  add\n  0x40\n  mstore\n  dup1\n    /* \"6-Array/Arrays.sol\":872:874  10 */\n  0x0a\n    /* \"6-Array/Arrays.sol\":847:887  uint256[4] public arr = [10, 20, 30, 40] */\n  0xff\n  and\n  dup2\n  mstore\n  0x20\n  add\n    /* \"6-Array/Arrays.sol\":876:878  20 */\n  0x14\n    /* \"6-Array/Arrays.sol\":847:887  uint256[4] public arr = [10, 20, 30, 40] */\n  0xff\n  and\n  dup2\n  mstore\n  0x20\n  add\n    /* \"6-Array/Arrays.sol\":880:882  30 */\n  0x1e\n    /* \"6-Array/Arrays.sol\":847:887  uint256[4] public arr = [10, 20, 30, 40] */\n  0xff\n  and\n  dup2\n  mstore\n  0x20\n  add\n    /* \"6-Array/Arrays.sol\":884:886  40 */\n  0x28\n    /* \"6-Array/Arrays.sol\":847:887  uint256[4] public arr = [10, 20, 30, 40] */\n  0xff\n  and\n  dup2\n  mstore\n  pop\n  0x00\n  swap1\n  0x04\n  tag_1\n  swap3\n  swap2\n  swap1\n  tag_2\n  jump\t// in\ntag_1:\n  pop\n    /* \"6-Array/Arrays.sol\":334:4463  contract arrays {... */\n  callvalue\n  dup1\n  iszero\n  tag_3\n  jumpi\n  revert(0x00, 0x00)\ntag_3:\n  pop\n  jump(tag_4)\ntag_2:\n  dup3\n  0x04\n  dup2\n  add\n  swap3\n  dup3\n  iszero\n  tag_5\n  jumpi\n  swap2\n  0x20\n  mul\n  dup3\n  add\ntag_6:\n  dup3\n  dup2\n  gt\n  iszero\n  tag_7\n  jumpi\n  dup3\n  mload\n  dup3\n  swap1\n  0xff\n  and\n  swap1\n  sstore\n  swap2\n  0x20\n  add\n  swap2\n  swap1\n  0x01\n  add\n  swap1\n  jump(tag_6)\ntag_7:\ntag_5:\n  pop\n  swap1\n  pop\n  tag_8\n  swap2\n  swap1\n  tag_9\n  jump\t// in\ntag_8:\n  pop\n  swap1\n  jump\t// out\ntag_9:\ntag_10:\n  dup1\n  dup3\n  gt\n  iszero\n  tag_11\n  jumpi\n  0x00\n  dup2\n  0x00\n  swap1\n  sstore\n  pop\n  0x01\n  add\n  jump(tag_10)\ntag_11:\n  pop\n  swap1\n  jump\t// out\ntag_4:\n  dataSize(sub_0)\n  dup1\n  dataOffset(sub_0)\n  0x00\n  codecopy\n  0x00\n  return\nstop\n\nsub_0: assembly {\n        /* \"6-Array/Arrays.sol\":334:4463  contract arrays {... */\n      mstore(0x40, 0x80)\n      callvalue\n      dup1\n      iszero\n      tag_1\n      jumpi\n      revert(0x00, 0x00)\n    tag_1:\n      pop\n      jumpi(tag_2, lt(calldatasize, 0x04))\n      shr(0xe0, calldataload(0x00))\n      dup1\n      0x569c5f6d\n      gt\n      tag_12\n      jumpi\n      dup1\n      0x569c5f6d\n      eq\n      tag_7\n      jumpi\n      dup1\n      0x71e5ee5f\n      eq\n      tag_8\n      jumpi\n      dup1\n      0x981f5499\n      eq\n      tag_9\n      jumpi\n      dup1\n      0xe7af66a9\n      eq\n      tag_10\n      jumpi\n      dup1\n      0xf34320c0\n      eq\n      tag_11\n      jumpi\n      jump(tag_2)\n    tag_12:\n      dup1\n      0x0ff4c916\n      eq\n      tag_3\n      jumpi\n      dup1\n      0x1f7b6d32\n      eq\n      tag_4\n      jumpi\n      dup1\n      0x4b5980c5\n      eq\n      tag_5\n      jumpi\n      dup1\n      0x5298f36d\n      eq\n      tag_6\n      jumpi\n    tag_2:\n      revert(0x00, 0x00)\n        /* \"6-Array/Arrays.sol\":2351:2448  function getValue(uint256 index) public view returns (uint256) {... */\n    tag_3:\n      tag_13\n      0x04\n      dup1\n      calldatasize\n      sub\n      dup2\n      add\n      swap1\n      tag_14\n      swap2\n      swap1\n      tag_15\n      jump\t// in\n    tag_14:\n      tag_16\n      jump\t// in\n    tag_13:\n      mload(0x40)\n      tag_17\n      swap2\n      swap1\n      tag_18\n      jump\t// in\n    tag_17:\n      mload(0x40)\n      dup1\n      swap2\n      sub\n      swap1\n      return\n        /* \"6-Array/Arrays.sol\":1920:2002  function length() public view returns (uint256) {... */\n    tag_4:\n      tag_19\n      tag_20\n      jump\t// in\n    tag_19:\n      mload(0x40)\n      tag_21\n      swap2\n      swap1\n      tag_18\n      jump\t// in\n    tag_21:\n      mload(0x40)\n      dup1\n      swap2\n      sub\n      swap1\n      return\n        /* \"6-Array/Arrays.sol\":3503:3664  function safeGetValue(uint256 index) public view returns (uint256) {... */\n    tag_5:\n      tag_22\n      0x04\n      dup1\n      calldatasize\n      sub\n      dup2\n      add\n      swap1\n      tag_23\n      swap2\n      swap1\n      tag_15\n      jump\t// in\n    tag_23:\n      tag_24\n      jump\t// in\n    tag_22:\n      mload(0x40)\n      tag_25\n      swap2\n      swap1\n      tag_18\n      jump\t// in\n    tag_25:\n      mload(0x40)\n      dup1\n      swap2\n      sub\n      swap1\n      return\n        /* \"6-Array/Arrays.sol\":1375:1617  function setter(uint256 index, uint256 value) public {... */\n    tag_6:\n      tag_26\n      0x04\n      dup1\n      calldatasize\n      sub\n      dup2\n      add\n      swap1\n      tag_27\n      swap2\n      swap1\n      tag_28\n      jump\t// in\n    tag_27:\n      tag_29\n      jump\t// in\n    tag_26:\n      stop\n        /* \"6-Array/Arrays.sol\":4267:4461  function getSum() public view returns (uint256) {... */\n    tag_7:\n      tag_30\n      tag_31\n      jump\t// in\n    tag_30:\n      mload(0x40)\n      tag_32\n      swap2\n      swap1\n      tag_18\n      jump\t// in\n    tag_32:\n      mload(0x40)\n      dup1\n      swap2\n      sub\n      swap1\n      return\n        /* \"6-Array/Arrays.sol\":847:887  uint256[4] public arr = [10, 20, 30, 40] */\n    tag_8:\n      tag_33\n      0x04\n      dup1\n      calldatasize\n      sub\n      dup2\n      add\n      swap1\n      tag_34\n      swap2\n      swap1\n      tag_15\n      jump\t// in\n    tag_34:\n      tag_35\n      jump\t// in\n    tag_33:\n      mload(0x40)\n      tag_36\n      swap2\n      swap1\n      tag_18\n      jump\t// in\n    tag_36:\n      mload(0x40)\n      dup1\n      swap2\n      sub\n      swap1\n      return\n        /* \"6-Array/Arrays.sol\":2678:2769  function getAllValues() public view returns (uint256[4] memory) {... */\n    tag_9:\n      tag_37\n      tag_38\n      jump\t// in\n    tag_37:\n      mload(0x40)\n      tag_39\n      swap2\n      swap1\n      tag_40\n      jump\t// in\n    tag_39:\n      mload(0x40)\n      dup1\n      swap2\n      sub\n      swap1\n      return\n        /* \"6-Array/Arrays.sol\":3930:4082  function safeSetter(uint256 index, uint256 value) public {... */\n    tag_10:\n      tag_41\n      0x04\n      dup1\n      calldatasize\n      sub\n      dup2\n      add\n      swap1\n      tag_42\n      swap2\n      swap1\n      tag_28\n      jump\t// in\n    tag_42:\n      tag_43\n      jump\t// in\n    tag_41:\n      stop\n        /* \"6-Array/Arrays.sol\":3033:3162  function isValidIndex(uint256 index) public pure returns (bool) {... */\n    tag_11:\n      tag_44\n      0x04\n      dup1\n      calldatasize\n      sub\n      dup2\n      add\n      swap1\n      tag_45\n      swap2\n      swap1\n      tag_15\n      jump\t// in\n    tag_45:\n      tag_46\n      jump\t// in\n    tag_44:\n      mload(0x40)\n      tag_47\n      swap2\n      swap1\n      tag_48\n      jump\t// in\n    tag_47:\n      mload(0x40)\n      dup1\n      swap2\n      sub\n      swap1\n      return\n        /* \"6-Array/Arrays.sol\":2351:2448  function getValue(uint256 index) public view returns (uint256) {... */\n    tag_16:\n        /* \"6-Array/Arrays.sol\":2405:2412  uint256 */\n      0x00\n        /* \"6-Array/Arrays.sol\":2431:2434  arr */\n      0x00\n        /* \"6-Array/Arrays.sol\":2435:2440  index */\n      dup3\n        /* \"6-Array/Arrays.sol\":2431:2441  arr[index] */\n      0x04\n      dup2\n      lt\n      tag_50\n      jumpi\n      tag_51\n      tag_52\n      jump\t// in\n    tag_51:\n    tag_50:\n      add\n      sload\n        /* \"6-Array/Arrays.sol\":2424:2441  return arr[index] */\n      swap1\n      pop\n        /* \"6-Array/Arrays.sol\":2351:2448  function getValue(uint256 index) public view returns (uint256) {... */\n      swap2\n      swap1\n      pop\n      jump\t// out\n        /* \"6-Array/Arrays.sol\":1920:2002  function length() public view returns (uint256) {... */\n    tag_20:\n        /* \"6-Array/Arrays.sol\":1959:1966  uint256 */\n      0x00\n        /* \"6-Array/Arrays.sol\":1985:1995  arr.length */\n      0x04\n        /* \"6-Array/Arrays.sol\":1978:1995  return arr.length */\n      swap1\n      pop\n        /* \"6-Array/Arrays.sol\":1920:2002  function length() public view returns (uint256) {... */\n      swap1\n      jump\t// out\n        /* \"6-Array/Arrays.sol\":3503:3664  function safeGetValue(uint256 index) public view returns (uint256) {... */\n    tag_24:\n        /* \"6-Array/Arrays.sol\":3561:3568  uint256 */\n      0x00\n        /* \"6-Array/Arrays.sol\":3596:3606  arr.length */\n      0x04\n        /* \"6-Array/Arrays.sol\":3588:3593  index */\n      dup3\n        /* \"6-Array/Arrays.sol\":3588:3606  index < arr.length */\n      lt\n        /* \"6-Array/Arrays.sol\":3580:3630  require(index < arr.length, \"Index out of bounds\") */\n      tag_56\n      jumpi\n      mload(0x40)\n      0x08c379a000000000000000000000000000000000000000000000000000000000\n      dup2\n      mstore\n      0x04\n      add\n      tag_57\n      swap1\n      tag_58\n      jump\t// in\n    tag_57:\n      mload(0x40)\n      dup1\n      swap2\n      sub\n      swap1\n      revert\n    tag_56:\n        /* \"6-Array/Arrays.sol\":3647:3650  arr */\n      0x00\n        /* \"6-Array/Arrays.sol\":3651:3656  index */\n      dup3\n        /* \"6-Array/Arrays.sol\":3647:3657  arr[index] */\n      0x04\n      dup2\n      lt\n      tag_59\n      jumpi\n      tag_60\n      tag_52\n      jump\t// in\n    tag_60:\n    tag_59:\n      add\n      sload\n        /* \"6-Array/Arrays.sol\":3640:3657  return arr[index] */\n      swap1\n      pop\n        /* \"6-Array/Arrays.sol\":3503:3664  function safeGetValue(uint256 index) public view returns (uint256) {... */\n      swap2\n      swap1\n      pop\n      jump\t// out\n        /* \"6-Array/Arrays.sol\":1375:1617  function setter(uint256 index, uint256 value) public {... */\n    tag_29:\n        /* \"6-Array/Arrays.sol\":1521:1526  value */\n      dup1\n        /* \"6-Array/Arrays.sol\":1508:1511  arr */\n      0x00\n        /* \"6-Array/Arrays.sol\":1512:1517  index */\n      dup4\n        /* \"6-Array/Arrays.sol\":1508:1518  arr[index] */\n      0x04\n      dup2\n      lt\n      tag_63\n      jumpi\n      tag_64\n      tag_52\n      jump\t// in\n    tag_64:\n    tag_63:\n      add\n        /* \"6-Array/Arrays.sol\":1508:1526  arr[index] = value */\n      dup2\n      swap1\n      sstore\n      pop\n        /* \"6-Array/Arrays.sol\":1375:1617  function setter(uint256 index, uint256 value) public {... */\n      pop\n      pop\n      jump\t// out\n        /* \"6-Array/Arrays.sol\":4267:4461  function getSum() public view returns (uint256) {... */\n    tag_31:\n        /* \"6-Array/Arrays.sol\":4306:4313  uint256 */\n      0x00\n        /* \"6-Array/Arrays.sol\":4325:4338  uint256 total */\n      0x00\n        /* \"6-Array/Arrays.sol\":4341:4342  0 */\n      0x00\n        /* \"6-Array/Arrays.sol\":4325:4342  uint256 total = 0 */\n      swap1\n      pop\n        /* \"6-Array/Arrays.sol\":4357:4366  uint256 i */\n      0x00\n        /* \"6-Array/Arrays.sol\":4369:4370  0 */\n      0x00\n        /* \"6-Array/Arrays.sol\":4357:4370  uint256 i = 0 */\n      swap1\n      pop\n        /* \"6-Array/Arrays.sol\":4352:4433  for (uint256 i = 0; i < arr.length; i++) {... */\n    tag_67:\n        /* \"6-Array/Arrays.sol\":4376:4386  arr.length */\n      0x04\n        /* \"6-Array/Arrays.sol\":4372:4373  i */\n      dup2\n        /* \"6-Array/Arrays.sol\":4372:4386  i < arr.length */\n      lt\n        /* \"6-Array/Arrays.sol\":4352:4433  for (uint256 i = 0; i < arr.length; i++) {... */\n      iszero\n      tag_68\n      jumpi\n        /* \"6-Array/Arrays.sol\":4416:4419  arr */\n      0x00\n        /* \"6-Array/Arrays.sol\":4420:4421  i */\n      dup2\n        /* \"6-Array/Arrays.sol\":4416:4422  arr[i] */\n      0x04\n      dup2\n      lt\n      tag_70\n      jumpi\n      tag_71\n      tag_52\n      jump\t// in\n    tag_71:\n    tag_70:\n      add\n      sload\n        /* \"6-Array/Arrays.sol\":4407:4422  total += arr[i] */\n      dup3\n      tag_73\n      swap2\n      swap1\n      tag_74\n      jump\t// in\n    tag_73:\n      swap2\n      pop\n        /* \"6-Array/Arrays.sol\":4388:4391  i++ */\n      dup1\n      dup1\n      0x01\n      add\n      swap2\n      pop\n      pop\n        /* \"6-Array/Arrays.sol\":4352:4433  for (uint256 i = 0; i < arr.length; i++) {... */\n      jump(tag_67)\n    tag_68:\n      pop\n        /* \"6-Array/Arrays.sol\":4449:4454  total */\n      dup1\n        /* \"6-Array/Arrays.sol\":4442:4454  return total */\n      swap2\n      pop\n      pop\n        /* \"6-Array/Arrays.sol\":4267:4461  function getSum() public view returns (uint256) {... */\n      swap1\n      jump\t// out\n        /* \"6-Array/Arrays.sol\":847:887  uint256[4] public arr = [10, 20, 30, 40] */\n    tag_35:\n      0x00\n      dup2\n      0x04\n      dup2\n      lt\n      tag_75\n      jumpi\n      0x00\n      dup1\n      revert\n    tag_75:\n      add\n      0x00\n      swap2\n      pop\n      swap1\n      pop\n      sload\n      dup2\n      jump\t// out\n        /* \"6-Array/Arrays.sol\":2678:2769  function getAllValues() public view returns (uint256[4] memory) {... */\n    tag_38:\n        /* \"6-Array/Arrays.sol\":2723:2740  uint256[4] memory */\n      tag_77\n      tag_78\n      jump\t// in\n    tag_77:\n        /* \"6-Array/Arrays.sol\":2759:2762  arr */\n      0x00\n        /* \"6-Array/Arrays.sol\":2752:2762  return arr */\n      0x04\n      dup1\n      0x20\n      mul\n      mload(0x40)\n      swap1\n      dup2\n      add\n      0x40\n      mstore\n      dup1\n      swap3\n      swap2\n      swap1\n      dup3\n      0x04\n      dup1\n      iszero\n      tag_80\n      jumpi\n      0x20\n      mul\n      dup3\n      add\n      swap2\n    tag_81:\n      dup2\n      sload\n      dup2\n      mstore\n      0x20\n      add\n      swap1\n      0x01\n      add\n      swap1\n      dup1\n      dup4\n      gt\n      tag_81\n      jumpi\n    tag_80:\n      pop\n      pop\n      pop\n      pop\n      pop\n      swap1\n      pop\n        /* \"6-Array/Arrays.sol\":2678:2769  function getAllValues() public view returns (uint256[4] memory) {... */\n      swap1\n      jump\t// out\n        /* \"6-Array/Arrays.sol\":3930:4082  function safeSetter(uint256 index, uint256 value) public {... */\n    tag_43:\n        /* \"6-Array/Arrays.sol\":4013:4023  arr.length */\n      0x04\n        /* \"6-Array/Arrays.sol\":4005:4010  index */\n      dup3\n        /* \"6-Array/Arrays.sol\":4005:4023  index < arr.length */\n      lt\n        /* \"6-Array/Arrays.sol\":3997:4047  require(index < arr.length, \"Index out of bounds\") */\n      tag_83\n      jumpi\n      mload(0x40)\n      0x08c379a000000000000000000000000000000000000000000000000000000000\n      dup2\n      mstore\n      0x04\n      add\n      tag_84\n      swap1\n      tag_58\n      jump\t// in\n    tag_84:\n      mload(0x40)\n      dup1\n      swap2\n      sub\n      swap1\n      revert\n    tag_83:\n        /* \"6-Array/Arrays.sol\":4070:4075  value */\n      dup1\n        /* \"6-Array/Arrays.sol\":4057:4060  arr */\n      0x00\n        /* \"6-Array/Arrays.sol\":4061:4066  index */\n      dup4\n        /* \"6-Array/Arrays.sol\":4057:4067  arr[index] */\n      0x04\n      dup2\n      lt\n      tag_85\n      jumpi\n      tag_86\n      tag_52\n      jump\t// in\n    tag_86:\n    tag_85:\n      add\n        /* \"6-Array/Arrays.sol\":4057:4075  arr[index] = value */\n      dup2\n      swap1\n      sstore\n      pop\n        /* \"6-Array/Arrays.sol\":3930:4082  function safeSetter(uint256 index, uint256 value) public {... */\n      pop\n      pop\n      jump\t// out\n        /* \"6-Array/Arrays.sol\":3033:3162  function isValidIndex(uint256 index) public pure returns (bool) {... */\n    tag_46:\n        /* \"6-Array/Arrays.sol\":3091:3095  bool */\n      0x00\n        /* \"6-Array/Arrays.sol\":3122:3123  4 */\n      0x04\n        /* \"6-Array/Arrays.sol\":3114:3119  index */\n      dup3\n        /* \"6-Array/Arrays.sol\":3114:3123  index < 4 */\n      lt\n        /* \"6-Array/Arrays.sol\":3107:3123  return index < 4 */\n      swap1\n      pop\n        /* \"6-Array/Arrays.sol\":3033:3162  function isValidIndex(uint256 index) public pure returns (bool) {... */\n      swap2\n      swap1\n      pop\n      jump\t// out\n    tag_78:\n      mload(0x40)\n      dup1\n      0x80\n      add\n      0x40\n      mstore\n      dup1\n      0x04\n      swap1\n      0x20\n      dup3\n      mul\n      dup1\n      calldatasize\n      dup4\n      calldatacopy\n      dup1\n      dup3\n      add\n      swap2\n      pop\n      pop\n      swap1\n      pop\n      pop\n      swap1\n      jump\t// out\n        /* \"#utility.yul\":88:205   */\n    tag_90:\n        /* \"#utility.yul\":197:198   */\n      0x00\n        /* \"#utility.yul\":194:195   */\n      0x00\n        /* \"#utility.yul\":187:199   */\n      revert\n        /* \"#utility.yul\":334:411   */\n    tag_92:\n        /* \"#utility.yul\":371:378   */\n      0x00\n        /* \"#utility.yul\":400:405   */\n      dup2\n        /* \"#utility.yul\":389:405   */\n      swap1\n      pop\n        /* \"#utility.yul\":334:411   */\n      swap2\n      swap1\n      pop\n      jump\t// out\n        /* \"#utility.yul\":417:539   */\n    tag_93:\n        /* \"#utility.yul\":490:514   */\n      tag_115\n        /* \"#utility.yul\":508:513   */\n      dup2\n        /* \"#utility.yul\":490:514   */\n      tag_92\n      jump\t// in\n    tag_115:\n        /* \"#utility.yul\":483:488   */\n      dup2\n        /* \"#utility.yul\":480:515   */\n      eq\n        /* \"#utility.yul\":470:533   */\n      tag_116\n      jumpi\n        /* \"#utility.yul\":529:530   */\n      0x00\n        /* \"#utility.yul\":526:527   */\n      0x00\n        /* \"#utility.yul\":519:531   */\n      revert\n        /* \"#utility.yul\":470:533   */\n    tag_116:\n        /* \"#utility.yul\":417:539   */\n      pop\n      jump\t// out\n        /* \"#utility.yul\":545:684   */\n    tag_94:\n        /* \"#utility.yul\":591:596   */\n      0x00\n        /* \"#utility.yul\":629:635   */\n      dup2\n        /* \"#utility.yul\":616:636   */\n      calldataload\n        /* \"#utility.yul\":607:636   */\n      swap1\n      pop\n        /* \"#utility.yul\":645:678   */\n      tag_118\n        /* \"#utility.yul\":672:677   */\n      dup2\n        /* \"#utility.yul\":645:678   */\n      tag_93\n      jump\t// in\n    tag_118:\n        /* \"#utility.yul\":545:684   */\n      swap3\n      swap2\n      pop\n      pop\n      jump\t// out\n        /* \"#utility.yul\":690:1019   */\n    tag_15:\n        /* \"#utility.yul\":749:755   */\n      0x00\n        /* \"#utility.yul\":798:800   */\n      0x20\n        /* \"#utility.yul\":786:795   */\n      dup3\n        /* \"#utility.yul\":777:784   */\n      dup5\n        /* \"#utility.yul\":773:796   */\n      sub\n        /* \"#utility.yul\":769:801   */\n      slt\n        /* \"#utility.yul\":766:885   */\n      iszero\n      tag_120\n      jumpi\n        /* \"#utility.yul\":804:883   */\n      tag_121\n      tag_90\n      jump\t// in\n    tag_121:\n        /* \"#utility.yul\":766:885   */\n    tag_120:\n        /* \"#utility.yul\":924:925   */\n      0x00\n        /* \"#utility.yul\":949:1002   */\n      tag_122\n        /* \"#utility.yul\":994:1001   */\n      dup5\n        /* \"#utility.yul\":985:991   */\n      dup3\n        /* \"#utility.yul\":974:983   */\n      dup6\n        /* \"#utility.yul\":970:992   */\n      add\n        /* \"#utility.yul\":949:1002   */\n      tag_94\n      jump\t// in\n    tag_122:\n        /* \"#utility.yul\":939:1002   */\n      swap2\n      pop\n        /* \"#utility.yul\":895:1012   */\n      pop\n        /* \"#utility.yul\":690:1019   */\n      swap3\n      swap2\n      pop\n      pop\n      jump\t// out\n        /* \"#utility.yul\":1025:1143   */\n    tag_95:\n        /* \"#utility.yul\":1112:1136   */\n      tag_124\n        /* \"#utility.yul\":1130:1135   */\n      dup2\n        /* \"#utility.yul\":1112:1136   */\n      tag_92\n      jump\t// in\n    tag_124:\n        /* \"#utility.yul\":1107:1110   */\n      dup3\n        /* \"#utility.yul\":1100:1137   */\n      mstore\n        /* \"#utility.yul\":1025:1143   */\n      pop\n      pop\n      jump\t// out\n        /* \"#utility.yul\":1149:1371   */\n    tag_18:\n        /* \"#utility.yul\":1242:1246   */\n      0x00\n        /* \"#utility.yul\":1280:1282   */\n      0x20\n        /* \"#utility.yul\":1269:1278   */\n      dup3\n        /* \"#utility.yul\":1265:1283   */\n      add\n        /* \"#utility.yul\":1257:1283   */\n      swap1\n      pop\n        /* \"#utility.yul\":1293:1364   */\n      tag_126\n        /* \"#utility.yul\":1361:1362   */\n      0x00\n        /* \"#utility.yul\":1350:1359   */\n      dup4\n        /* \"#utility.yul\":1346:1363   */\n      add\n        /* \"#utility.yul\":1337:1343   */\n      dup5\n        /* \"#utility.yul\":1293:1364   */\n      tag_95\n      jump\t// in\n    tag_126:\n        /* \"#utility.yul\":1149:1371   */\n      swap3\n      swap2\n      pop\n      pop\n      jump\t// out\n        /* \"#utility.yul\":1377:1851   */\n    tag_28:\n        /* \"#utility.yul\":1445:1451   */\n      0x00\n        /* \"#utility.yul\":1453:1459   */\n      0x00\n        /* \"#utility.yul\":1502:1504   */\n      0x40\n        /* \"#utility.yul\":1490:1499   */\n      dup4\n        /* \"#utility.yul\":1481:1488   */\n      dup6\n        /* \"#utility.yul\":1477:1500   */\n      sub\n        /* \"#utility.yul\":1473:1505   */\n      slt\n        /* \"#utility.yul\":1470:1589   */\n      iszero\n      tag_128\n      jumpi\n        /* \"#utility.yul\":1508:1587   */\n      tag_129\n      tag_90\n      jump\t// in\n    tag_129:\n        /* \"#utility.yul\":1470:1589   */\n    tag_128:\n        /* \"#utility.yul\":1628:1629   */\n      0x00\n        /* \"#utility.yul\":1653:1706   */\n      tag_130\n        /* \"#utility.yul\":1698:1705   */\n      dup6\n        /* \"#utility.yul\":1689:1695   */\n      dup3\n        /* \"#utility.yul\":1678:1687   */\n      dup7\n        /* \"#utility.yul\":1674:1696   */\n      add\n        /* \"#utility.yul\":1653:1706   */\n      tag_94\n      jump\t// in\n    tag_130:\n        /* \"#utility.yul\":1643:1706   */\n      swap3\n      pop\n        /* \"#utility.yul\":1599:1716   */\n      pop\n        /* \"#utility.yul\":1755:1757   */\n      0x20\n        /* \"#utility.yul\":1781:1834   */\n      tag_131\n        /* \"#utility.yul\":1826:1833   */\n      dup6\n        /* \"#utility.yul\":1817:1823   */\n      dup3\n        /* \"#utility.yul\":1806:1815   */\n      dup7\n        /* \"#utility.yul\":1802:1824   */\n      add\n        /* \"#utility.yul\":1781:1834   */\n      tag_94\n      jump\t// in\n    tag_131:\n        /* \"#utility.yul\":1771:1834   */\n      swap2\n      pop\n        /* \"#utility.yul\":1726:1844   */\n      pop\n        /* \"#utility.yul\":1377:1851   */\n      swap3\n      pop\n      swap3\n      swap1\n      pop\n      jump\t// out\n        /* \"#utility.yul\":1857:1961   */\n    tag_96:\n        /* \"#utility.yul\":1922:1928   */\n      0x00\n        /* \"#utility.yul\":1950:1954   */\n      0x04\n        /* \"#utility.yul\":1940:1954   */\n      swap1\n      pop\n        /* \"#utility.yul\":1857:1961   */\n      swap2\n      swap1\n      pop\n      jump\t// out\n        /* \"#utility.yul\":1967:2110   */\n    tag_97:\n        /* \"#utility.yul\":2064:2075   */\n      0x00\n        /* \"#utility.yul\":2101:2104   */\n      dup2\n        /* \"#utility.yul\":2086:2104   */\n      swap1\n      pop\n        /* \"#utility.yul\":1967:2110   */\n      swap3\n      swap2\n      pop\n      pop\n      jump\t// out\n        /* \"#utility.yul\":2116:2214   */\n    tag_98:\n        /* \"#utility.yul\":2181:2185   */\n      0x00\n        /* \"#utility.yul\":2204:2207   */\n      dup2\n        /* \"#utility.yul\":2196:2207   */\n      swap1\n      pop\n        /* \"#utility.yul\":2116:2214   */\n      swap2\n      swap1\n      pop\n      jump\t// out\n        /* \"#utility.yul\":2220:2328   */\n    tag_99:\n        /* \"#utility.yul\":2297:2321   */\n      tag_136\n        /* \"#utility.yul\":2315:2320   */\n      dup2\n        /* \"#utility.yul\":2297:2321   */\n      tag_92\n      jump\t// in\n    tag_136:\n        /* \"#utility.yul\":2292:2295   */\n      dup3\n        /* \"#utility.yul\":2285:2322   */\n      mstore\n        /* \"#utility.yul\":2220:2328   */\n      pop\n      pop\n      jump\t// out\n        /* \"#utility.yul\":2334:2513   */\n    tag_100:\n        /* \"#utility.yul\":2403:2413   */\n      0x00\n        /* \"#utility.yul\":2424:2470   */\n      tag_138\n        /* \"#utility.yul\":2466:2469   */\n      dup4\n        /* \"#utility.yul\":2458:2464   */\n      dup4\n        /* \"#utility.yul\":2424:2470   */\n      tag_99\n      jump\t// in\n    tag_138:\n        /* \"#utility.yul\":2502:2506   */\n      0x20\n        /* \"#utility.yul\":2497:2500   */\n      dup4\n        /* \"#utility.yul\":2493:2507   */\n      add\n        /* \"#utility.yul\":2479:2507   */\n      swap1\n      pop\n        /* \"#utility.yul\":2334:2513   */\n      swap3\n      swap2\n      pop\n      pop\n      jump\t// out\n        /* \"#utility.yul\":2519:2630   */\n    tag_101:\n        /* \"#utility.yul\":2587:2591   */\n      0x00\n        /* \"#utility.yul\":2619:2623   */\n      0x20\n        /* \"#utility.yul\":2614:2617   */\n      dup3\n        /* \"#utility.yul\":2610:2624   */\n      add\n        /* \"#utility.yul\":2602:2624   */\n      swap1\n      pop\n        /* \"#utility.yul\":2519:2630   */\n      swap2\n      swap1\n      pop\n      jump\t// out\n        /* \"#utility.yul\":2668:3362   */\n    tag_102:\n        /* \"#utility.yul\":2804:2856   */\n      tag_141\n        /* \"#utility.yul\":2850:2855   */\n      dup2\n        /* \"#utility.yul\":2804:2856   */\n      tag_96\n      jump\t// in\n    tag_141:\n        /* \"#utility.yul\":2872:2956   */\n      tag_142\n        /* \"#utility.yul\":2949:2955   */\n      dup2\n        /* \"#utility.yul\":2944:2947   */\n      dup5\n        /* \"#utility.yul\":2872:2956   */\n      tag_97\n      jump\t// in\n    tag_142:\n        /* \"#utility.yul\":2865:2956   */\n      swap3\n      pop\n        /* \"#utility.yul\":2980:3034   */\n      tag_143\n        /* \"#utility.yul\":3028:3033   */\n      dup3\n        /* \"#utility.yul\":2980:3034   */\n      tag_98\n      jump\t// in\n    tag_143:\n        /* \"#utility.yul\":3057:3064   */\n      dup1\n        /* \"#utility.yul\":3088:3089   */\n      0x00\n        /* \"#utility.yul\":3073:3355   */\n    tag_144:\n        /* \"#utility.yul\":3098:3104   */\n      dup4\n        /* \"#utility.yul\":3095:3096   */\n      dup2\n        /* \"#utility.yul\":3092:3105   */\n      lt\n        /* \"#utility.yul\":3073:3355   */\n      iszero\n      tag_146\n      jumpi\n        /* \"#utility.yul\":3174:3180   */\n      dup2\n        /* \"#utility.yul\":3168:3181   */\n      mload\n        /* \"#utility.yul\":3201:3264   */\n      tag_147\n        /* \"#utility.yul\":3260:3263   */\n      dup8\n        /* \"#utility.yul\":3245:3258   */\n      dup3\n        /* \"#utility.yul\":3201:3264   */\n      tag_100\n      jump\t// in\n    tag_147:\n        /* \"#utility.yul\":3194:3264   */\n      swap7\n      pop\n        /* \"#utility.yul\":3287:3345   */\n      tag_148\n        /* \"#utility.yul\":3338:3344   */\n      dup4\n        /* \"#utility.yul\":3287:3345   */\n      tag_101\n      jump\t// in\n    tag_148:\n        /* \"#utility.yul\":3277:3345   */\n      swap3\n      pop\n        /* \"#utility.yul\":3133:3355   */\n      pop\n        /* \"#utility.yul\":3120:3121   */\n      0x01\n        /* \"#utility.yul\":3117:3118   */\n      dup2\n        /* \"#utility.yul\":3113:3122   */\n      add\n        /* \"#utility.yul\":3108:3122   */\n      swap1\n      pop\n        /* \"#utility.yul\":3073:3355   */\n      jump(tag_144)\n    tag_146:\n        /* \"#utility.yul\":3077:3091   */\n      pop\n        /* \"#utility.yul\":2780:3362   */\n      pop\n      pop\n      pop\n        /* \"#utility.yul\":2668:3362   */\n      pop\n      pop\n      jump\t// out\n        /* \"#utility.yul\":3368:3683   */\n    tag_40:\n        /* \"#utility.yul\":3507:3511   */\n      0x00\n        /* \"#utility.yul\":3545:3548   */\n      0x80\n        /* \"#utility.yul\":3534:3543   */\n      dup3\n        /* \"#utility.yul\":3530:3549   */\n      add\n        /* \"#utility.yul\":3522:3549   */\n      swap1\n      pop\n        /* \"#utility.yul\":3559:3676   */\n      tag_150\n        /* \"#utility.yul\":3673:3674   */\n      0x00\n        /* \"#utility.yul\":3662:3671   */\n      dup4\n        /* \"#utility.yul\":3658:3675   */\n      add\n        /* \"#utility.yul\":3649:3655   */\n      dup5\n        /* \"#utility.yul\":3559:3676   */\n      tag_102\n      jump\t// in\n    tag_150:\n        /* \"#utility.yul\":3368:3683   */\n      swap3\n      swap2\n      pop\n      pop\n      jump\t// out\n        /* \"#utility.yul\":3689:3779   */\n    tag_103:\n        /* \"#utility.yul\":3723:3730   */\n      0x00\n        /* \"#utility.yul\":3766:3771   */\n      dup2\n        /* \"#utility.yul\":3759:3772   */\n      iszero\n        /* \"#utility.yul\":3752:3773   */\n      iszero\n        /* \"#utility.yul\":3741:3773   */\n      swap1\n      pop\n        /* \"#utility.yul\":3689:3779   */\n      swap2\n      swap1\n      pop\n      jump\t// out\n        /* \"#utility.yul\":3785:3894   */\n    tag_104:\n        /* \"#utility.yul\":3866:3887   */\n      tag_153\n        /* \"#utility.yul\":3881:3886   */\n      dup2\n        /* \"#utility.yul\":3866:3887   */\n      tag_103\n      jump\t// in\n    tag_153:\n        /* \"#utility.yul\":3861:3864   */\n      dup3\n        /* \"#utility.yul\":3854:3888   */\n      mstore\n        /* \"#utility.yul\":3785:3894   */\n      pop\n      pop\n      jump\t// out\n        /* \"#utility.yul\":3900:4110   */\n    tag_48:\n        /* \"#utility.yul\":3987:3991   */\n      0x00\n        /* \"#utility.yul\":4025:4027   */\n      0x20\n        /* \"#utility.yul\":4014:4023   */\n      dup3\n        /* \"#utility.yul\":4010:4028   */\n      add\n        /* \"#utility.yul\":4002:4028   */\n      swap1\n      pop\n        /* \"#utility.yul\":4038:4103   */\n      tag_155\n        /* \"#utility.yul\":4100:4101   */\n      0x00\n        /* \"#utility.yul\":4089:4098   */\n      dup4\n        /* \"#utility.yul\":4085:4102   */\n      add\n        /* \"#utility.yul\":4076:4082   */\n      dup5\n        /* \"#utility.yul\":4038:4103   */\n      tag_104\n      jump\t// in\n    tag_155:\n        /* \"#utility.yul\":3900:4110   */\n      swap3\n      swap2\n      pop\n      pop\n      jump\t// out\n        /* \"#utility.yul\":4116:4296   */\n    tag_52:\n        /* \"#utility.yul\":4164:4241   */\n      0x4e487b7100000000000000000000000000000000000000000000000000000000\n        /* \"#utility.yul\":4161:4162   */\n      0x00\n        /* \"#utility.yul\":4154:4242   */\n      mstore\n        /* \"#utility.yul\":4261:4265   */\n      0x32\n        /* \"#utility.yul\":4258:4259   */\n      0x04\n        /* \"#utility.yul\":4251:4266   */\n      mstore\n        /* \"#utility.yul\":4285:4289   */\n      0x24\n        /* \"#utility.yul\":4282:4283   */\n      0x00\n        /* \"#utility.yul\":4275:4290   */\n      revert\n        /* \"#utility.yul\":4302:4471   */\n    tag_105:\n        /* \"#utility.yul\":4386:4397   */\n      0x00\n        /* \"#utility.yul\":4420:4426   */\n      dup3\n        /* \"#utility.yul\":4415:4418   */\n      dup3\n        /* \"#utility.yul\":4408:4427   */\n      mstore\n        /* \"#utility.yul\":4460:4464   */\n      0x20\n        /* \"#utility.yul\":4455:4458   */\n      dup3\n        /* \"#utility.yul\":4451:4465   */\n      add\n        /* \"#utility.yul\":4436:4465   */\n      swap1\n      pop\n        /* \"#utility.yul\":4302:4471   */\n      swap3\n      swap2\n      pop\n      pop\n      jump\t// out\n        /* \"#utility.yul\":4477:4646   */\n    tag_106:\n        /* \"#utility.yul\":4617:4638   */\n      0x496e646578206f7574206f6620626f756e647300000000000000000000000000\n        /* \"#utility.yul\":4613:4614   */\n      0x00\n        /* \"#utility.yul\":4605:4611   */\n      dup3\n        /* \"#utility.yul\":4601:4615   */\n      add\n        /* \"#utility.yul\":4594:4639   */\n      mstore\n        /* \"#utility.yul\":4477:4646   */\n      pop\n      jump\t// out\n        /* \"#utility.yul\":4652:5018   */\n    tag_107:\n        /* \"#utility.yul\":4794:4797   */\n      0x00\n        /* \"#utility.yul\":4815:4882   */\n      tag_160\n        /* \"#utility.yul\":4879:4881   */\n      0x13\n        /* \"#utility.yul\":4874:4877   */\n      dup4\n        /* \"#utility.yul\":4815:4882   */\n      tag_105\n      jump\t// in\n    tag_160:\n        /* \"#utility.yul\":4808:4882   */\n      swap2\n      pop\n        /* \"#utility.yul\":4891:4984   */\n      tag_161\n        /* \"#utility.yul\":4980:4983   */\n      dup3\n        /* \"#utility.yul\":4891:4984   */\n      tag_106\n      jump\t// in\n    tag_161:\n        /* \"#utility.yul\":5009:5011   */\n      0x20\n        /* \"#utility.yul\":5004:5007   */\n      dup3\n        /* \"#utility.yul\":5000:5012   */\n      add\n        /* \"#utility.yul\":4993:5012   */\n      swap1\n      pop\n        /* \"#utility.yul\":4652:5018   */\n      swap2\n      swap1\n      pop\n      jump\t// out\n        /* \"#utility.yul\":5024:5443   */\n    tag_58:\n        /* \"#utility.yul\":5190:5194   */\n      0x00\n        /* \"#utility.yul\":5228:5230   */\n      0x20\n        /* \"#utility.yul\":5217:5226   */\n      dup3\n        /* \"#utility.yul\":5213:5231   */\n      add\n        /* \"#utility.yul\":5205:5231   */\n      swap1\n      pop\n        /* \"#utility.yul\":5277:5286   */\n      dup2\n        /* \"#utility.yul\":5271:5275   */\n      dup2\n        /* \"#utility.yul\":5267:5287   */\n      sub\n        /* \"#utility.yul\":5263:5264   */\n      0x00\n        /* \"#utility.yul\":5252:5261   */\n      dup4\n        /* \"#utility.yul\":5248:5265   */\n      add\n        /* \"#utility.yul\":5241:5288   */\n      mstore\n        /* \"#utility.yul\":5305:5436   */\n      tag_163\n        /* \"#utility.yul\":5431:5435   */\n      dup2\n        /* \"#utility.yul\":5305:5436   */\n      tag_107\n      jump\t// in\n    tag_163:\n        /* \"#utility.yul\":5297:5436   */\n      swap1\n      pop\n        /* \"#utility.yul\":5024:5443   */\n      swap2\n      swap1\n      pop\n      jump\t// out\n        /* \"#utility.yul\":5449:5629   */\n    tag_108:\n        /* \"#utility.yul\":5497:5574   */\n      0x4e487b7100000000000000000000000000000000000000000000000000000000\n        /* \"#utility.yul\":5494:5495   */\n      0x00\n        /* \"#utility.yul\":5487:5575   */\n      mstore\n        /* \"#utility.yul\":5594:5598   */\n      0x11\n        /* \"#utility.yul\":5591:5592   */\n      0x04\n        /* \"#utility.yul\":5584:5599   */\n      mstore\n        /* \"#utility.yul\":5618:5622   */\n      0x24\n        /* \"#utility.yul\":5615:5616   */\n      0x00\n        /* \"#utility.yul\":5608:5623   */\n      revert\n        /* \"#utility.yul\":5635:5826   */\n    tag_74:\n        /* \"#utility.yul\":5675:5678   */\n      0x00\n        /* \"#utility.yul\":5694:5714   */\n      tag_166\n        /* \"#utility.yul\":5712:5713   */\n      dup3\n        /* \"#utility.yul\":5694:5714   */\n      tag_92\n      jump\t// in\n    tag_166:\n        /* \"#utility.yul\":5689:5714   */\n      swap2\n      pop\n        /* \"#utility.yul\":5728:5748   */\n      tag_167\n        /* \"#utility.yul\":5746:5747   */\n      dup4\n        /* \"#utility.yul\":5728:5748   */\n      tag_92\n      jump\t// in\n    tag_167:\n        /* \"#utility.yul\":5723:5748   */\n      swap3\n      pop\n        /* \"#utility.yul\":5771:5772   */\n      dup3\n        /* \"#utility.yul\":5768:5769   */\n      dup3\n        /* \"#utility.yul\":5764:5773   */\n      add\n        /* \"#utility.yul\":5757:5773   */\n      swap1\n      pop\n        /* \"#utility.yul\":5792:5795   */\n      dup1\n        /* \"#utility.yul\":5789:5790   */\n      dup3\n        /* \"#utility.yul\":5786:5796   */\n      gt\n        /* \"#utility.yul\":5783:5819   */\n      iszero\n      tag_168\n      jumpi\n        /* \"#utility.yul\":5799:5817   */\n      tag_169\n      tag_108\n      jump\t// in\n    tag_169:\n        /* \"#utility.yul\":5783:5819   */\n    tag_168:\n        /* \"#utility.yul\":5635:5826   */\n      swap3\n      swap2\n      pop\n      pop\n      jump\t// out\n\n    auxdata: 0xa2646970667358221220c2bd79ca12584fd3cef52bdef1a04ff3abea9cbc78db2aa18422723f5f82466364736f6c634300081e0033\n}\n",
				"bytecode": {
					"linkReferences": {},
					"object": "60806040526040518060800160405280600a60ff168152602001601460ff168152602001601e60ff168152602001602860ff168152505f90600460429291906052565b50348015604d575f5ffd5b5060ab565b82600481019282156083579160200282015b828111156082578251829060ff169055916020019190600101906064565b5b509050608e91906092565b5090565b5b8082111560a7575f815f9055506001016093565b5090565b6106b7806100b85f395ff3fe608060405234801561000f575f5ffd5b5060043610610091575f3560e01c8063569c5f6d11610064578063569c5f6d1461012f57806371e5ee5f1461014d578063981f54991461017d578063e7af66a91461019b578063f34320c0146101b757610091565b80630ff4c916146100955780631f7b6d32146100c55780634b5980c5146100e35780635298f36d14610113575b5f5ffd5b6100af60048036038101906100aa91906103fa565b6101e7565b6040516100bc9190610434565b60405180910390f35b6100cd610204565b6040516100da9190610434565b60405180910390f35b6100fd60048036038101906100f891906103fa565b61020c565b60405161010a9190610434565b60405180910390f35b61012d6004803603810190610128919061044d565b61026c565b005b610137610289565b6040516101449190610434565b60405180910390f35b610167600480360381019061016291906103fa565b6102d3565b6040516101749190610434565b60405180910390f35b6101856102eb565b6040516101929190610530565b60405180910390f35b6101b560048036038101906101b0919061044d565b610335565b005b6101d160048036038101906101cc91906103fa565b610395565b6040516101de9190610563565b60405180910390f35b5f5f82600481106101fb576101fa61057c565b5b01549050919050565b5f6004905090565b5f60048210610250576040517f08c379a000000000000000000000000000000000000000000000000000000000815260040161024790610603565b60405180910390fd5b5f82600481106102635761026261057c565b5b01549050919050565b805f83600481106102805761027f61057c565b5b01819055505050565b5f5f5f90505f5f90505b60048110156102cb575f81600481106102af576102ae61057c565b5b0154826102bc919061064e565b91508080600101915050610293565b508091505090565b5f81600481106102e1575f80fd5b015f915090505481565b6102f36103a1565b5f60048060200260405190810160405280929190826004801561032b576020028201915b815481526020019060010190808311610317575b5050505050905090565b60048210610378576040517f08c379a000000000000000000000000000000000000000000000000000000000815260040161036f90610603565b60405180910390fd5b805f836004811061038c5761038b61057c565b5b01819055505050565b5f600482109050919050565b6040518060800160405280600490602082028036833780820191505090505090565b5f5ffd5b5f819050919050565b6103d9816103c7565b81146103e3575f5ffd5b50565b5f813590506103f4816103d0565b92915050565b5f6020828403121561040f5761040e6103c3565b5b5f61041c848285016103e6565b91505092915050565b61042e816103c7565b82525050565b5f6020820190506104475f830184610425565b92915050565b5f5f60408385031215610463576104626103c3565b5b5f610470858286016103e6565b9250506020610481858286016103e6565b9150509250929050565b5f60049050919050565b5f81905092915050565b5f819050919050565b6104b1816103c7565b82525050565b5f6104c283836104a8565b60208301905092915050565b5f602082019050919050565b6104e38161048b565b6104ed8184610495565b92506104f88261049f565b805f5b8381101561052857815161050f87826104b7565b965061051a836104ce565b9250506001810190506104fb565b505050505050565b5f6080820190506105435f8301846104da565b92915050565b5f8115159050919050565b61055d81610549565b82525050565b5f6020820190506105765f830184610554565b92915050565b7f4e487b71000000000000000000000000000000000000000000000000000000005f52603260045260245ffd5b5f82825260208201905092915050565b7f496e646578206f7574206f6620626f756e6473000000000000000000000000005f82015250565b5f6105ed6013836105a9565b91506105f8826105b9565b602082019050919050565b5f6020820190508181035f83015261061a816105e1565b9050919050565b7f4e487b71000000000000000000000000000000000000000000000000000000005f52601160045260245ffd5b5f610658826103c7565b9150610663836103c7565b925082820190508082111561067b5761067a610621565b5b9291505056fea2646970667358221220c2bd79ca12584fd3cef52bdef1a04ff3abea9cbc78db2aa18422723f5f82466364736f6c634300081e0033",
					"opcodes": "PUSH1 0x80 PUSH1 0x40 MSTORE PUSH1 0x40 MLOAD DUP1 PUSH1 0x80 ADD PUSH1 0x40 MSTORE DUP1 PUSH1 0xA PUSH1 0xFF AND DUP2 MSTORE PUSH1 0x20 ADD PUSH1 0x14 PUSH1 0xFF AND DUP2 MSTORE PUSH1 0x20 ADD PUSH1 0x1E PUSH1 0xFF AND DUP2 MSTORE PUSH1 0x20 ADD PUSH1 0x28 PUSH1 0xFF AND DUP2 MSTORE POP PUSH0 SWAP1 PUSH1 0x4 PUSH1 0x42 SWAP3 SWAP2 SWAP1 PUSH1 0x52 JUMP JUMPDEST POP CALLVALUE DUP1 ISZERO PUSH1 0x4D JUMPI PUSH0 PUSH0 REVERT JUMPDEST POP PUSH1 0xAB JUMP JUMPDEST DUP3 PUSH1 0x4 DUP2 ADD SWAP3 DUP3 ISZERO PUSH1 0x83 JUMPI SWAP2 PUSH1 0x20 MUL DUP3 ADD JUMPDEST DUP3 DUP2 GT ISZERO PUSH1 0x82 JUMPI DUP3 MLOAD DUP3 SWAP1 PUSH1 0xFF AND SWAP1 SSTORE SWAP2 PUSH1 0x20 ADD SWAP2 SWAP1 PUSH1 0x1 ADD SWAP1 PUSH1 0x64 JUMP JUMPDEST JUMPDEST POP SWAP1 POP PUSH1 0x8E SWAP2 SWAP1 PUSH1 0x92 JUMP JUMPDEST POP SWAP1 JUMP JUMPDEST JUMPDEST DUP1 DUP3 GT ISZERO PUSH1 0xA7 JUMPI PUSH0 DUP2 PUSH0 SWAP1 SSTORE POP PUSH1 0x1 ADD PUSH1 0x93 JUMP JUMPDEST POP SWAP1 JUMP JUMPDEST PUSH2 0x6B7 DUP1 PUSH2 0xB8 PUSH0 CODECOPY PUSH0 RETURN INVALID PUSH1 0x80 PUSH1 0x40 MSTORE CALLVALUE DUP1 ISZERO PUSH2 0xF JUMPI PUSH0 PUSH0 REVERT JUMPDEST POP PUSH1 0x4 CALLDATASIZE LT PUSH2 0x91 JUMPI PUSH0 CALLDATALOAD PUSH1 0xE0 SHR DUP1 PUSH4 0x569C5F6D GT PUSH2 0x64 JUMPI DUP1 PUSH4 0x569C5F6D EQ PUSH2 0x12F JUMPI DUP1 PUSH4 0x71E5EE5F EQ PUSH2 0x14D JUMPI DUP1 PUSH4 0x981F5499 EQ PUSH2 0x17D JUMPI DUP1 PUSH4 0xE7AF66A9 EQ PUSH2 0x19B JUMPI DUP1 PUSH4 0xF34320C0 EQ PUSH2 0x1B7 JUMPI PUSH2 0x91 JUMP JUMPDEST DUP1 PUSH4 0xFF4C916 EQ PUSH2 0x95 JUMPI DUP1 PUSH4 0x1F7B6D32 EQ PUSH2 0xC5 JUMPI DUP1 PUSH4 0x4B5980C5 EQ PUSH2 0xE3 JUMPI DUP1 PUSH4 0x5298F36D EQ PUSH2 0x113 JUMPI JUMPDEST PUSH0 PUSH0 REVERT JUMPDEST PUSH2 0xAF PUSH1 0x4 DUP1 CALLDATASIZE SUB DUP2 ADD SWAP1 PUSH2 0xAA SWAP2 SWAP1 PUSH2 0x3FA JUMP JUMPDEST PUSH2 0x1E7 JUMP JUMPDEST PUSH1 0x40 MLOAD PUSH2 0xBC SWAP2 SWAP1 PUSH2 0x434 JUMP JUMPDEST PUSH1 0x40 MLOAD DUP1 SWAP2 SUB SWAP1 RETURN JUMPDEST PUSH2 0xCD PUSH2 0x204 JUMP JUMPDEST PUSH1 0x40 MLOAD PUSH2 0xDA SWAP2 SWAP1 PUSH2 0x434 JUMP JUMPDEST PUSH1 0x40 MLOAD DUP1 SWAP2 SUB SWAP1 RETURN JUMPDEST PUSH2 0xFD PUSH1 0x4 DUP1 CALLDATASIZE SUB DUP2 ADD SWAP1 PUSH2 0xF8 SWAP2 SWAP1 PUSH2 0x3FA JUMP JUMPDEST PUSH2 0x20C JUMP JUMPDEST PUSH1 0x40 MLOAD PUSH2 0x10A SWAP2 SWAP1 PUSH2 0x434 JUMP JUMPDEST PUSH1 0x40 MLOAD DUP1 SWAP2 SUB SWAP1 RETURN JUMPDEST PUSH2 0x12D PUSH1 0x4 DUP1 CALLDATASIZE SUB DUP2 ADD SWAP1 PUSH2 0x128 SWAP2 SWAP1 PUSH2 0x44D JUMP JUMPDEST PUSH2 0x26C JUMP JUMPDEST STOP JUMPDEST PUSH2 0x137 PUSH2 0x289 JUMP JUMPDEST PUSH1 0x40 MLOAD PUSH2 0x144 SWAP2 SWAP1 PUSH2 0x434 JUMP JUMPDEST PUSH1 0x40 MLOAD DUP1 SWAP2 SUB SWAP1 RETURN JUMPDEST PUSH2 0x167 PUSH1 0x4 DUP1 CALLDATASIZE SUB DUP2 ADD SWAP1 PUSH2 0x162 SWAP2 SWAP1 PUSH2 0x3FA JUMP JUMPDEST PUSH2 0x2D3 JUMP JUMPDEST PUSH1 0x40 MLOAD PUSH2 0x174 SWAP2 SWAP1 PUSH2 0x434 JUMP JUMPDEST PUSH1 0x40 MLOAD DUP1 SWAP2 SUB SWAP1 RETURN JUMPDEST PUSH2 0x185 PUSH2 0x2EB JUMP JUMPDEST PUSH1 0x40 MLOAD PUSH2 0x192 SWAP2 SWAP1 PUSH2 0x530 JUMP JUMPDEST PUSH1 0x40 MLOAD DUP1 SWAP2 SUB SWAP1 RETURN JUMPDEST PUSH2 0x1B5 PUSH1 0x4 DUP1 CALLDATASIZE SUB DUP2 ADD SWAP1 PUSH2 0x1B0 SWAP2 SWAP1 PUSH2 0x44D JUMP JUMPDEST PUSH2 0x335 JUMP JUMPDEST STOP JUMPDEST PUSH2 0x1D1 PUSH1 0x4 DUP1 CALLDATASIZE SUB DUP2 ADD SWAP1 PUSH2 0x1CC SWAP2 SWAP1 PUSH2 0x3FA JUMP JUMPDEST PUSH2 0x395 JUMP JUMPDEST PUSH1 0x40 MLOAD PUSH2 0x1DE SWAP2 SWAP1 PUSH2 0x563 JUMP JUMPDEST PUSH1 0x40 MLOAD DUP1 SWAP2 SUB SWAP1 RETURN JUMPDEST PUSH0 PUSH0 DUP3 PUSH1 0x4 DUP2 LT PUSH2 0x1FB JUMPI PUSH2 0x1FA PUSH2 0x57C JUMP JUMPDEST JUMPDEST ADD SLOAD SWAP1 POP SWAP2 SWAP1 POP JUMP JUMPDEST PUSH0 PUSH1 0x4 SWAP1 POP SWAP1 JUMP JUMPDEST PUSH0 PUSH1 0x4 DUP3 LT PUSH2 0x250 JUMPI PUSH1 0x40 MLOAD PUSH32 0x8C379A000000000000000000000000000000000000000000000000000000000 DUP2 MSTORE PUSH1 0x4 ADD PUSH2 0x247 SWAP1 PUSH2 0x603 JUMP JUMPDEST PUSH1 0x40 MLOAD DUP1 SWAP2 SUB SWAP1 REVERT JUMPDEST PUSH0 DUP3 PUSH1 0x4 DUP2 LT PUSH2 0x263 JUMPI PUSH2 0x262 PUSH2 0x57C JUMP JUMPDEST JUMPDEST ADD SLOAD SWAP1 POP SWAP2 SWAP1 POP JUMP JUMPDEST DUP1 PUSH0 DUP4 PUSH1 0x4 DUP2 LT PUSH2 0x280 JUMPI PUSH2 0x27F PUSH2 0x57C JUMP JUMPDEST JUMPDEST ADD DUP2 SWAP1 SSTORE POP POP POP JUMP JUMPDEST PUSH0 PUSH0 PUSH0 SWAP1 POP PUSH0 PUSH0 SWAP1 POP JUMPDEST PUSH1 0x4 DUP2 LT ISZERO PUSH2 0x2CB JUMPI PUSH0 DUP2 PUSH1 0x4 DUP2 LT PUSH2 0x2AF JUMPI PUSH2 0x2AE PUSH2 0x57C JUMP JUMPDEST JUMPDEST ADD SLOAD DUP3 PUSH2 0x2BC SWAP2 SWAP1 PUSH2 0x64E JUMP JUMPDEST SWAP2 POP DUP1 DUP1 PUSH1 0x1 ADD SWAP2 POP POP PUSH2 0x293 JUMP JUMPDEST POP DUP1 SWAP2 POP POP SWAP1 JUMP JUMPDEST PUSH0 DUP2 PUSH1 0x4 DUP2 LT PUSH2 0x2E1 JUMPI PUSH0 DUP1 REVERT JUMPDEST ADD PUSH0 SWAP2 POP SWAP1 POP SLOAD DUP2 JUMP JUMPDEST PUSH2 0x2F3 PUSH2 0x3A1 JUMP JUMPDEST PUSH0 PUSH1 0x4 DUP1 PUSH1 0x20 MUL PUSH1 0x40 MLOAD SWAP1 DUP2 ADD PUSH1 0x40 MSTORE DUP1 SWAP3 SWAP2 SWAP1 DUP3 PUSH1 0x4 DUP1 ISZERO PUSH2 0x32B JUMPI PUSH1 0x20 MUL DUP3 ADD SWAP2 JUMPDEST DUP2 SLOAD DUP2 MSTORE PUSH1 0x20 ADD SWAP1 PUSH1 0x1 ADD SWAP1 DUP1 DUP4 GT PUSH2 0x317 JUMPI JUMPDEST POP POP POP POP POP SWAP1 POP SWAP1 JUMP JUMPDEST PUSH1 0x4 DUP3 LT PUSH2 0x378 JUMPI PUSH1 0x40 MLOAD PUSH32 0x8C379A000000000000000000000000000000000000000000000000000000000 DUP2 MSTORE PUSH1 0x4 ADD PUSH2 0x36F SWAP1 PUSH2 0x603 JUMP JUMPDEST PUSH1 0x40 MLOAD DUP1 SWAP2 SUB SWAP1 REVERT JUMPDEST DUP1 PUSH0 DUP4 PUSH1 0x4 DUP2 LT PUSH2 0x38C JUMPI PUSH2 0x38B PUSH2 0x57C JUMP JUMPDEST JUMPDEST ADD DUP2 SWAP1 SSTORE POP POP POP JUMP JUMPDEST PUSH0 PUSH1 0x4 DUP3 LT SWAP1 POP SWAP2 SWAP1 POP JUMP JUMPDEST PUSH1 0x40 MLOAD DUP1 PUSH1 0x80 ADD PUSH1 0x40 MSTORE DUP1 PUSH1 0x4 SWAP1 PUSH1 0x20 DUP3 MUL DUP1 CALLDATASIZE DUP4 CALLDATACOPY DUP1 DUP3 ADD SWAP2 POP POP SWAP1 POP POP SWAP1 JUMP JUMPDEST PUSH0 PUSH0 REVERT JUMPDEST PUSH0 DUP2 SWAP1 POP SWAP2 SWAP1 POP JUMP JUMPDEST PUSH2 0x3D9 DUP2 PUSH2 0x3C7 JUMP JUMPDEST DUP2 EQ PUSH2 0x3E3 JUMPI PUSH0 PUSH0 REVERT JUMPDEST POP JUMP JUMPDEST PUSH0 DUP2 CALLDATALOAD SWAP1 POP PUSH2 0x3F4 DUP2 PUSH2 0x3D0 JUMP JUMPDEST SWAP3 SWAP2 POP POP JUMP JUMPDEST PUSH0 PUSH1 0x20 DUP3 DUP5 SUB SLT ISZERO PUSH2 0x40F JUMPI PUSH2 0x40E PUSH2 0x3C3 JUMP JUMPDEST JUMPDEST PUSH0 PUSH2 0x41C DUP5 DUP3 DUP6 ADD PUSH2 0x3E6 JUMP JUMPDEST SWAP2 POP POP SWAP3 SWAP2 POP POP JUMP JUMPDEST PUSH2 0x42E DUP2 PUSH2 0x3C7 JUMP JUMPDEST DUP3 MSTORE POP POP JUMP JUMPDEST PUSH0 PUSH1 0x20 DUP3 ADD SWAP1 POP PUSH2 0x447 PUSH0 DUP4 ADD DUP5 PUSH2 0x425 JUMP JUMPDEST SWAP3 SWAP2 POP POP JUMP JUMPDEST PUSH0 PUSH0 PUSH1 0x40 DUP4 DUP6 SUB SLT ISZERO PUSH2 0x463 JUMPI PUSH2 0x462 PUSH2 0x3C3 JUMP JUMPDEST JUMPDEST PUSH0 PUSH2 0x470 DUP6 DUP3 DUP7 ADD PUSH2 0x3E6 JUMP JUMPDEST SWAP3 POP POP PUSH1 0x20 PUSH2 0x481 DUP6 DUP3 DUP7 ADD PUSH2 0x3E6 JUMP JUMPDEST SWAP2 POP POP SWAP3 POP SWAP3 SWAP1 POP JUMP JUMPDEST PUSH0 PUSH1 0x4 SWAP1 POP SWAP2 SWAP1 POP JUMP JUMPDEST PUSH0 DUP2 SWAP1 POP SWAP3 SWAP2 POP POP JUMP JUMPDEST PUSH0 DUP2 SWAP1 POP SWAP2 SWAP1 POP JUMP JUMPDEST PUSH2 0x4B1 DUP2 PUSH2 0x3C7 JUMP JUMPDEST DUP3 MSTORE POP POP JUMP JUMPDEST PUSH0 PUSH2 0x4C2 DUP4 DUP4 PUSH2 0x4A8 JUMP JUMPDEST PUSH1 0x20 DUP4 ADD SWAP1 POP SWAP3 SWAP2 POP POP JUMP JUMPDEST PUSH0 PUSH1 0x20 DUP3 ADD SWAP1 POP SWAP2 SWAP1 POP JUMP JUMPDEST PUSH2 0x4E3 DUP2 PUSH2 0x48B JUMP JUMPDEST PUSH2 0x4ED DUP2 DUP5 PUSH2 0x495 JUMP JUMPDEST SWAP3 POP PUSH2 0x4F8 DUP3 PUSH2 0x49F JUMP JUMPDEST DUP1 PUSH0 JUMPDEST DUP4 DUP2 LT ISZERO PUSH2 0x528 JUMPI DUP2 MLOAD PUSH2 0x50F DUP8 DUP3 PUSH2 0x4B7 JUMP JUMPDEST SWAP7 POP PUSH2 0x51A DUP4 PUSH2 0x4CE JUMP JUMPDEST SWAP3 POP POP PUSH1 0x1 DUP2 ADD SWAP1 POP PUSH2 0x4FB JUMP JUMPDEST POP POP POP POP POP POP JUMP JUMPDEST PUSH0 PUSH1 0x80 DUP3 ADD SWAP1 POP PUSH2 0x543 PUSH0 DUP4 ADD DUP5 PUSH2 0x4DA JUMP JUMPDEST SWAP3 SWAP2 POP POP JUMP JUMPDEST PUSH0 DUP2 ISZERO ISZERO SWAP1 POP SWAP2 SWAP1 POP JUMP JUMPDEST PUSH2 0x55D DUP2 PUSH2 0x549 JUMP JUMPDEST DUP3 MSTORE POP POP JUMP JUMPDEST PUSH0 PUSH1 0x20 DUP3 ADD SWAP1 POP PUSH2 0x576 PUSH0 DUP4 ADD DUP5 PUSH2 0x554 JUMP JUMPDEST SWAP3 SWAP2 POP POP JUMP JUMPDEST PUSH32 0x4E487B7100000000000000000000000000000000000000000000000000000000 PUSH0 MSTORE PUSH1 0x32 PUSH1 0x4 MSTORE PUSH1 0x24 PUSH0 REVERT JUMPDEST PUSH0 DUP3 DUP3 MSTORE PUSH1 0x20 DUP3 ADD SWAP1 POP SWAP3 SWAP2 POP POP JUMP JUMPDEST PUSH32 0x496E646578206F7574206F6620626F756E647300000000000000000000000000 PUSH0 DUP3 ADD MSTORE POP JUMP JUMPDEST PUSH0 PUSH2 0x5ED PUSH1 0x13 DUP4 PUSH2 0x5A9 JUMP JUMPDEST SWAP2 POP PUSH2 0x5F8 DUP3 PUSH2 0x5B9 JUMP JUMPDEST PUSH1 0x20 DUP3 ADD SWAP1 POP SWAP2 SWAP1 POP JUMP JUMPDEST PUSH0 PUSH1 0x20 DUP3 ADD SWAP1 POP DUP2 DUP2 SUB PUSH0 DUP4 ADD MSTORE PUSH2 0x61A DUP2 PUSH2 0x5E1 JUMP JUMPDEST SWAP1 POP SWAP2 SWAP1 POP JUMP JUMPDEST PUSH32 0x4E487B7100000000000000000000000000000000000000000000000000000000 PUSH0 MSTORE PUSH1 0x11 PUSH1 0x4 MSTORE PUSH1 0x24 PUSH0 REVERT JUMPDEST PUSH0 PUSH2 0x658 DUP3 PUSH2 0x3C7 JUMP JUMPDEST SWAP2 POP PUSH2 0x663 DUP4 PUSH2 0x3C7 JUMP JUMPDEST SWAP3 POP DUP3 DUP3 ADD SWAP1 POP DUP1 DUP3 GT ISZERO PUSH2 0x67B JUMPI PUSH2 0x67A PUSH2 0x621 JUMP JUMPDEST JUMPDEST SWAP3 SWAP2 POP POP JUMP INVALID LOG2 PUSH5 0x6970667358 0x22 SLT KECCAK256 0xC2 0xBD PUSH26 0xCA12584FD3CEF52BDEF1A04FF3ABEA9CBC78DB2AA18422723F5F DUP3 CHAINID PUSH4 0x64736F6C PUSH4 0x4300081E STOP CALLER "
				},
				"gasEstimates": {
					"creation": {
						"codeDepositCost": "343800",
						"executionCost": "infinite",
						"totalCost": "infinite"
					},
					"external": {
						"arr(uint256)": "infinite",
						"getAllValues()": "infinite",
						"getSum()": "infinite",
						"getValue(uint256)": "infinite",
						"isValidIndex(uint256)": "693",
						"length()": "355",
						"safeGetValue(uint256)": "infinite",
						"safeSetter(uint256,uint256)": "infinite",
						"setter(uint256,uint256)": "infinite"
					}
				},
				"methodIdentifiers": {
					"arr(uint256)": "71e5ee5f",
					"getAllValues()": "981f5499",
					"getSum()": "569c5f6d",
					"getValue(uint256)": "0ff4c916",
					"isValidIndex(uint256)": "f34320c0",
					"length()": "1f7b6d32",
					"safeGetValue(uint256)": "4b5980c5",
					"safeSetter(uint256,uint256)": "e7af66a9",
					"setter(uint256,uint256)": "5298f36d"
				}
			},
			"storageLayout": {
				"storage": [
					{
						"astId": 12,
						"contract": "6-Array/Arrays.sol:arrays",
						"label": "arr",
						"offset": 0,
						"slot": "0",
						"type": "t_array(t_uint256)4_storage"
					}
				],
				"types": {
					"t_array(t_uint256)4_storage": {
						"base": "t_uint256",
						"encoding": "inplace",
						"label": "uint256[4]",
						"numberOfBytes": "128"
					},
					"t_uint256": {
						"encoding": "inplace",
						"label": "uint256",
						"numberOfBytes": "32"
					}
				}
			},
			"userdoc": {
				"kind": "user",
				"methods": {
					"arr(uint256)": {
						"notice": "Arrays can be declared with a fixed size that must be known at compile timeThis array can store exactly 4 uint256 valuesThe array is public, so Solidity automatically generates a getter functionInitialized with values [10, 20, 30, 40] for indices 0, 1, 2, 3 respectively"
					},
					"getAllValues()": {
						"notice": "Demonstrates returning an entire arrayFor large arrays, this could consume significant gas"
					},
					"getSum()": {
						"notice": "Demonstrates iterating through an array"
					},
					"getValue(uint256)": {
						"notice": "Demonstrates how to access array elements"
					},
					"isValidIndex(uint256)": {
						"notice": "Shows how to properly check array bounds before access"
					},
					"length()": {
						"notice": "Demonstrates accessing the length property of an arrayFor fixed-size arrays, length is constant and known at compile time"
					},
					"safeGetValue(uint256)": {
						"notice": "Shows proper bounds checking before array access"
					},
					"safeSetter(uint256,uint256)": {
						"notice": "Shows proper bounds checking before array modification"
					},
					"setter(uint256,uint256)": {
						"notice": "This demonstrates how to modify array elements"
					}
				},
				"notice": "Arrays are data structures that store multiple values of the same typeThis contract demonstrates a fixed-size array with basic operations",
				"version": 1
			}
		}
	}
}