{
	"4-Function/state.sol": {
		"Local": {
			"abi": [
				{
					"inputs": [],
					"name": "age",
					"outputs": [
						{
							"internalType": "uint256",
							"name": "",
							"type": "uint256"
						}
					],
					"stateMutability": "view",
					"type": "function"
				},
				{
					"inputs": [],
					"name": "marks",
					"outputs": [
						{
							"internalType": "uint256",
							"name": "",
							"type": "uint256"
						}
					],
					"stateMutability": "view",
					"type": "function"
				},
				{
					"inputs": [
						{
							"internalType": "uint256",
							"name": "newMarks",
							"type": "uint256"
						}
					],
					"name": "setMarks",
					"outputs": [],
					"stateMutability": "nonpayable",
					"type": "function"
				},
				{
					"inputs": [
						{
							"internalType": "uint256",
							"name": "newage",
							"type": "uint256"
						}
					],
					"name": "setter",
					"outputs": [],
					"stateMutability": "nonpayable",
					"type": "function"
				}
			],
			"devdoc": {
				"kind": "dev",
				"methods": {
					"setMarks(uint256)": {
						"details": "Updates the 'marks' state variable",
						"params": {
							"newMarks": "The new value to set for 'marks'"
						}
					},
					"setter(uint256)": {
						"details": "Updates the 'age' state variable",
						"params": {
							"newage": "The new value to set for 'age'"
						}
					}
				},
				"version": 1
			},
			"evm": {
				"assembly": "    /* \"4-Function/state.sol\":127:1426  contract Local {  // Contract names should be capitalized (convention)... */\n  mstore(0x40, 0x80)\n    /* \"4-Function/state.sol\":369:371  10 */\n  0x0a\n    /* \"4-Function/state.sol\":348:371  uint256 public age = 10 */\n  0x00\n  sstore\n    /* \"4-Function/state.sol\":1220:1222  50 */\n  0x32\n    /* \"4-Function/state.sol\":1197:1222  uint256 public marks = 50 */\n  0x01\n  sstore\n    /* \"4-Function/state.sol\":127:1426  contract Local {  // Contract names should be capitalized (convention)... */\n  callvalue\n  dup1\n  iszero\n  tag_1\n  jumpi\n  revert(0x00, 0x00)\ntag_1:\n  pop\n  dataSize(sub_0)\n  dup1\n  dataOffset(sub_0)\n  0x00\n  codecopy\n  0x00\n  return\nstop\n\nsub_0: assembly {\n        /* \"4-Function/state.sol\":127:1426  contract Local {  // Contract names should be capitalized (convention)... */\n      mstore(0x40, 0x80)\n      callvalue\n      dup1\n      iszero\n      tag_1\n      jumpi\n      revert(0x00, 0x00)\n    tag_1:\n      pop\n      jumpi(tag_2, lt(calldatasize, 0x04))\n      shr(0xe0, calldataload(0x00))\n      dup1\n      0x262a9dff\n      eq\n      tag_3\n      jumpi\n      dup1\n      0x3c84c5a5\n      eq\n      tag_4\n      jumpi\n      dup1\n      0xd423740b\n      eq\n      tag_5\n      jumpi\n      dup1\n      0xf2ceb262\n      eq\n      tag_6\n      jumpi\n    tag_2:\n      revert(0x00, 0x00)\n        /* \"4-Function/state.sol\":348:371  uint256 public age = 10 */\n    tag_3:\n      tag_7\n      tag_8\n      jump\t// in\n    tag_7:\n      mload(0x40)\n      tag_9\n      swap2\n      swap1\n      tag_10\n      jump\t// in\n    tag_9:\n      mload(0x40)\n      dup1\n      swap2\n      sub\n      swap1\n      return\n        /* \"4-Function/state.sol\":1197:1222  uint256 public marks = 50 */\n    tag_4:\n      tag_11\n      tag_12\n      jump\t// in\n    tag_11:\n      mload(0x40)\n      tag_13\n      swap2\n      swap1\n      tag_10\n      jump\t// in\n    tag_13:\n      mload(0x40)\n      dup1\n      swap2\n      sub\n      swap1\n      return\n        /* \"4-Function/state.sol\":944:1012  function setter(uint256 newage) public {... */\n    tag_5:\n      tag_14\n      0x04\n      dup1\n      calldatasize\n      sub\n      dup2\n      add\n      swap1\n      tag_15\n      swap2\n      swap1\n      tag_16\n      jump\t// in\n    tag_15:\n      tag_17\n      jump\t// in\n    tag_14:\n      stop\n        /* \"4-Function/state.sol\":1348:1424  function setMarks(uint256 newMarks) public {... */\n    tag_6:\n      tag_18\n      0x04\n      dup1\n      calldatasize\n      sub\n      dup2\n      add\n      swap1\n      tag_19\n      swap2\n      swap1\n      tag_16\n      jump\t// in\n    tag_19:\n      tag_20\n      jump\t// in\n    tag_18:\n      stop\n        /* \"4-Function/state.sol\":348:371  uint256 public age = 10 */\n    tag_8:\n      sload(0x00)\n      dup2\n      jump\t// out\n        /* \"4-Function/state.sol\":1197:1222  uint256 public marks = 50 */\n    tag_12:\n      sload(0x01)\n      dup2\n      jump\t// out\n        /* \"4-Function/state.sol\":944:1012  function setter(uint256 newage) public {... */\n    tag_17:\n        /* \"4-Function/state.sol\":999:1005  newage */\n      dup1\n        /* \"4-Function/state.sol\":993:996  age */\n      0x00\n        /* \"4-Function/state.sol\":993:1005  age = newage */\n      dup2\n      swap1\n      sstore\n      pop\n        /* \"4-Function/state.sol\":944:1012  function setter(uint256 newage) public {... */\n      pop\n      jump\t// out\n        /* \"4-Function/state.sol\":1348:1424  function setMarks(uint256 newMarks) public {... */\n    tag_20:\n        /* \"4-Function/state.sol\":1409:1417  newMarks */\n      dup1\n        /* \"4-Function/state.sol\":1401:1406  marks */\n      0x01\n        /* \"4-Function/state.sol\":1401:1417  marks = newMarks */\n      dup2\n      swap1\n      sstore\n      pop\n        /* \"4-Function/state.sol\":1348:1424  function setMarks(uint256 newMarks) public {... */\n      pop\n      jump\t// out\n        /* \"#utility.yul\":7:84   */\n    tag_23:\n        /* \"#utility.yul\":44:51   */\n      0x00\n        /* \"#utility.yul\":73:78   */\n      dup2\n        /* \"#utility.yul\":62:78   */\n      swap1\n      pop\n        /* \"#utility.yul\":7:84   */\n      swap2\n      swap1\n      pop\n      jump\t// out\n        /* \"#utility.yul\":90:208   */\n    tag_24:\n        /* \"#utility.yul\":177:201   */\n      tag_33\n        /* \"#utility.yul\":195:200   */\n      dup2\n        /* \"#utility.yul\":177:201   */\n      tag_23\n      jump\t// in\n    tag_33:\n        /* \"#utility.yul\":172:175   */\n      dup3\n        /* \"#utility.yul\":165:202   */\n      mstore\n        /* \"#utility.yul\":90:208   */\n      pop\n      pop\n      jump\t// out\n        /* \"#utility.yul\":214:436   */\n    tag_10:\n        /* \"#utility.yul\":307:311   */\n      0x00\n        /* \"#utility.yul\":345:347   */\n      0x20\n        /* \"#utility.yul\":334:343   */\n      dup3\n        /* \"#utility.yul\":330:348   */\n      add\n        /* \"#utility.yul\":322:348   */\n      swap1\n      pop\n        /* \"#utility.yul\":358:429   */\n      tag_35\n        /* \"#utility.yul\":426:427   */\n      0x00\n        /* \"#utility.yul\":415:424   */\n      dup4\n        /* \"#utility.yul\":411:428   */\n      add\n        /* \"#utility.yul\":402:408   */\n      dup5\n        /* \"#utility.yul\":358:429   */\n      tag_24\n      jump\t// in\n    tag_35:\n        /* \"#utility.yul\":214:436   */\n      swap3\n      swap2\n      pop\n      pop\n      jump\t// out\n        /* \"#utility.yul\":523:640   */\n    tag_26:\n        /* \"#utility.yul\":632:633   */\n      0x00\n        /* \"#utility.yul\":629:630   */\n      0x00\n        /* \"#utility.yul\":622:634   */\n      revert\n        /* \"#utility.yul\":769:891   */\n    tag_28:\n        /* \"#utility.yul\":842:866   */\n      tag_40\n        /* \"#utility.yul\":860:865   */\n      dup2\n        /* \"#utility.yul\":842:866   */\n      tag_23\n      jump\t// in\n    tag_40:\n        /* \"#utility.yul\":835:840   */\n      dup2\n        /* \"#utility.yul\":832:867   */\n      eq\n        /* \"#utility.yul\":822:885   */\n      tag_41\n      jumpi\n        /* \"#utility.yul\":881:882   */\n      0x00\n        /* \"#utility.yul\":878:879   */\n      0x00\n        /* \"#utility.yul\":871:883   */\n      revert\n        /* \"#utility.yul\":822:885   */\n    tag_41:\n        /* \"#utility.yul\":769:891   */\n      pop\n      jump\t// out\n        /* \"#utility.yul\":897:1036   */\n    tag_29:\n        /* \"#utility.yul\":943:948   */\n      0x00\n        /* \"#utility.yul\":981:987   */\n      dup2\n        /* \"#utility.yul\":968:988   */\n      calldataload\n        /* \"#utility.yul\":959:988   */\n      swap1\n      pop\n        /* \"#utility.yul\":997:1030   */\n      tag_43\n        /* \"#utility.yul\":1024:1029   */\n      dup2\n        /* \"#utility.yul\":997:1030   */\n      tag_28\n      jump\t// in\n    tag_43:\n        /* \"#utility.yul\":897:1036   */\n      swap3\n      swap2\n      pop\n      pop\n      jump\t// out\n        /* \"#utility.yul\":1042:1371   */\n    tag_16:\n        /* \"#utility.yul\":1101:1107   */\n      0x00\n        /* \"#utility.yul\":1150:1152   */\n      0x20\n        /* \"#utility.yul\":1138:1147   */\n      dup3\n        /* \"#utility.yul\":1129:1136   */\n      dup5\n        /* \"#utility.yul\":1125:1148   */\n      sub\n        /* \"#utility.yul\":1121:1153   */\n      slt\n        /* \"#utility.yul\":1118:1237   */\n      iszero\n      tag_45\n      jumpi\n        /* \"#utility.yul\":1156:1235   */\n      tag_46\n      tag_26\n      jump\t// in\n    tag_46:\n        /* \"#utility.yul\":1118:1237   */\n    tag_45:\n        /* \"#utility.yul\":1276:1277   */\n      0x00\n        /* \"#utility.yul\":1301:1354   */\n      tag_47\n        /* \"#utility.yul\":1346:1353   */\n      dup5\n        /* \"#utility.yul\":1337:1343   */\n      dup3\n        /* \"#utility.yul\":1326:1335   */\n      dup6\n        /* \"#utility.yul\":1322:1344   */\n      add\n        /* \"#utility.yul\":1301:1354   */\n      tag_29\n      jump\t// in\n    tag_47:\n        /* \"#utility.yul\":1291:1354   */\n      swap2\n      pop\n        /* \"#utility.yul\":1247:1364   */\n      pop\n        /* \"#utility.yul\":1042:1371   */\n      swap3\n      swap2\n      pop\n      pop\n      jump\t// out\n\n    auxdata: 0xa2646970667358221220df5252f96a627cf8d634675b0cf438f88debc235aa6c0f432dc9ed04fee8777764736f6c634300081e0033\n}\n",
				"bytecode": {
					"linkReferences": {},
					"object": "6080604052600a5f5560326001553480156017575f5ffd5b506101a0806100255f395ff3fe608060405234801561000f575f5ffd5b506004361061004a575f3560e01c8063262a9dff1461004e5780633c84c5a51461006c578063d423740b1461008a578063f2ceb262146100a6575b5f5ffd5b6100566100c2565b60405161006391906100f8565b60405180910390f35b6100746100c7565b60405161008191906100f8565b60405180910390f35b6100a4600480360381019061009f919061013f565b6100cd565b005b6100c060048036038101906100bb919061013f565b6100d6565b005b5f5481565b60015481565b805f8190555050565b8060018190555050565b5f819050919050565b6100f2816100e0565b82525050565b5f60208201905061010b5f8301846100e9565b92915050565b5f5ffd5b61011e816100e0565b8114610128575f5ffd5b50565b5f8135905061013981610115565b92915050565b5f6020828403121561015457610153610111565b5b5f6101618482850161012b565b9150509291505056fea2646970667358221220df5252f96a627cf8d634675b0cf438f88debc235aa6c0f432dc9ed04fee8777764736f6c634300081e0033",
					"opcodes": "PUSH1 0x80 PUSH1 0x40 MSTORE PUSH1 0xA PUSH0 SSTORE PUSH1 0x32 PUSH1 0x1 SSTORE CALLVALUE DUP1 ISZERO PUSH1 0x17 JUMPI PUSH0 PUSH0 REVERT JUMPDEST POP PUSH2 0x1A0 DUP1 PUSH2 0x25 PUSH0 CODECOPY PUSH0 RETURN INVALID PUSH1 0x80 PUSH1 0x40 MSTORE CALLVALUE DUP1 ISZERO PUSH2 0xF JUMPI PUSH0 PUSH0 REVERT JUMPDEST POP PUSH1 0x4 CALLDATASIZE LT PUSH2 0x4A JUMPI PUSH0 CALLDATALOAD PUSH1 0xE0 SHR DUP1 PUSH4 0x262A9DFF EQ PUSH2 0x4E JUMPI DUP1 PUSH4 0x3C84C5A5 EQ PUSH2 0x6C JUMPI DUP1 PUSH4 0xD423740B EQ PUSH2 0x8A JUMPI DUP1 PUSH4 0xF2CEB262 EQ PUSH2 0xA6 JUMPI JUMPDEST PUSH0 PUSH0 REVERT JUMPDEST PUSH2 0x56 PUSH2 0xC2 JUMP JUMPDEST PUSH1 0x40 MLOAD PUSH2 0x63 SWAP2 SWAP1 PUSH2 0xF8 JUMP JUMPDEST PUSH1 0x40 MLOAD DUP1 SWAP2 SUB SWAP1 RETURN JUMPDEST PUSH2 0x74 PUSH2 0xC7 JUMP JUMPDEST PUSH1 0x40 MLOAD PUSH2 0x81 SWAP2 SWAP1 PUSH2 0xF8 JUMP JUMPDEST PUSH1 0x40 MLOAD DUP1 SWAP2 SUB SWAP1 RETURN JUMPDEST PUSH2 0xA4 PUSH1 0x4 DUP1 CALLDATASIZE SUB DUP2 ADD SWAP1 PUSH2 0x9F SWAP2 SWAP1 PUSH2 0x13F JUMP JUMPDEST PUSH2 0xCD JUMP JUMPDEST STOP JUMPDEST PUSH2 0xC0 PUSH1 0x4 DUP1 CALLDATASIZE SUB DUP2 ADD SWAP1 PUSH2 0xBB SWAP2 SWAP1 PUSH2 0x13F JUMP JUMPDEST PUSH2 0xD6 JUMP JUMPDEST STOP JUMPDEST PUSH0 SLOAD DUP2 JUMP JUMPDEST PUSH1 0x1 SLOAD DUP2 JUMP JUMPDEST DUP1 PUSH0 DUP2 SWAP1 SSTORE POP POP JUMP JUMPDEST DUP1 PUSH1 0x1 DUP2 SWAP1 SSTORE POP POP JUMP JUMPDEST PUSH0 DUP2 SWAP1 POP SWAP2 SWAP1 POP JUMP JUMPDEST PUSH2 0xF2 DUP2 PUSH2 0xE0 JUMP JUMPDEST DUP3 MSTORE POP POP JUMP JUMPDEST PUSH0 PUSH1 0x20 DUP3 ADD SWAP1 POP PUSH2 0x10B PUSH0 DUP4 ADD DUP5 PUSH2 0xE9 JUMP JUMPDEST SWAP3 SWAP2 POP POP JUMP JUMPDEST PUSH0 PUSH0 REVERT JUMPDEST PUSH2 0x11E DUP2 PUSH2 0xE0 JUMP JUMPDEST DUP2 EQ PUSH2 0x128 JUMPI PUSH0 PUSH0 REVERT JUMPDEST POP JUMP JUMPDEST PUSH0 DUP2 CALLDATALOAD SWAP1 POP PUSH2 0x139 DUP2 PUSH2 0x115 JUMP JUMPDEST SWAP3 SWAP2 POP POP JUMP JUMPDEST PUSH0 PUSH1 0x20 DUP3 DUP5 SUB SLT ISZERO PUSH2 0x154 JUMPI PUSH2 0x153 PUSH2 0x111 JUMP JUMPDEST JUMPDEST PUSH0 PUSH2 0x161 DUP5 DUP3 DUP6 ADD PUSH2 0x12B JUMP JUMPDEST SWAP2 POP POP SWAP3 SWAP2 POP POP JUMP INVALID LOG2 PUSH5 0x6970667358 0x22 SLT KECCAK256 0xDF MSTORE MSTORE EXTDELEGATECALL PUSH11 0x627CF8D634675B0CF438F8 DUP14 0xEB 0xC2 CALLDATALOAD 0xAA PUSH13 0xF432DC9ED04FEE8777764736F PUSH13 0x634300081E0033000000000000 "
				},
				"gasEstimates": {
					"creation": {
						"codeDepositCost": "83200",
						"executionCost": "44338",
						"totalCost": "127538"
					},
					"external": {
						"age()": "2402",
						"marks()": "2425",
						"setMarks(uint256)": "22559",
						"setter(uint256)": "22536"
					}
				},
				"methodIdentifiers": {
					"age()": "262a9dff",
					"marks()": "3c84c5a5",
					"setMarks(uint256)": "f2ceb262",
					"setter(uint256)": "d423740b"
				}
			},
			"storageLayout": {
				"storage": [
					{
						"astId": 4,
						"contract": "4-Function/state.sol:Local",
						"label": "age",
						"offset": 0,
						"slot": "0",
						"type": "t_uint256"
					},
					{
						"astId": 18,
						"contract": "4-Function/state.sol:Local",
						"label": "marks",
						"offset": 0,
						"slot": "1",
						"type": "t_uint256"
					}
				],
				"types": {
					"t_uint256": {
						"encoding": "inplace",
						"label": "uint256",
						"numberOfBytes": "32"
					}
				}
			},
			"userdoc": {
				"kind": "user",
				"methods": {
					"setter(uint256)": {
						"notice": "Requires gas (modifies contract storage)"
					}
				},
				"version": 1
			}
		}
	}
}