{
	"10-Mapping/demo.sol": {
		"mapDemo": {
			"abi": [
				{
					"inputs": [
						{
							"internalType": "uint256",
							"name": "",
							"type": "uint256"
						}
					],
					"name": "data",
					"outputs": [
						{
							"internalType": "uint256",
							"name": "class",
							"type": "uint256"
						},
						{
							"internalType": "string",
							"name": "name",
							"type": "string"
						}
					],
					"stateMutability": "view",
					"type": "function"
				},
				{
					"inputs": [
						{
							"internalType": "uint256",
							"name": "_roll",
							"type": "uint256"
						},
						{
							"internalType": "uint256",
							"name": "class",
							"type": "uint256"
						},
						{
							"internalType": "string",
							"name": "name",
							"type": "string"
						}
					],
					"name": "dataSetter",
					"outputs": [],
					"stateMutability": "nonpayable",
					"type": "function"
				},
				{
					"inputs": [
						{
							"internalType": "uint256",
							"name": "_key",
							"type": "uint256"
						}
					],
					"name": "getRollNo",
					"outputs": [
						{
							"internalType": "string",
							"name": "",
							"type": "string"
						}
					],
					"stateMutability": "view",
					"type": "function"
				},
				{
					"inputs": [
						{
							"internalType": "uint256",
							"name": "_roll",
							"type": "uint256"
						}
					],
					"name": "getStudentData",
					"outputs": [
						{
							"internalType": "uint256",
							"name": "",
							"type": "uint256"
						},
						{
							"internalType": "string",
							"name": "",
							"type": "string"
						}
					],
					"stateMutability": "view",
					"type": "function"
				},
				{
					"inputs": [
						{
							"internalType": "uint256",
							"name": "_key",
							"type": "uint256"
						}
					],
					"name": "keyExists",
					"outputs": [
						{
							"internalType": "bool",
							"name": "",
							"type": "bool"
						}
					],
					"stateMutability": "view",
					"type": "function"
				},
				{
					"inputs": [
						{
							"internalType": "uint256",
							"name": "_key",
							"type": "uint256"
						}
					],
					"name": "removeKey",
					"outputs": [],
					"stateMutability": "nonpayable",
					"type": "function"
				},
				{
					"inputs": [
						{
							"internalType": "uint256",
							"name": "",
							"type": "uint256"
						}
					],
					"name": "roll_no",
					"outputs": [
						{
							"internalType": "string",
							"name": "",
							"type": "string"
						}
					],
					"stateMutability": "view",
					"type": "function"
				},
				{
					"inputs": [
						{
							"internalType": "uint256",
							"name": "_key",
							"type": "uint256"
						},
						{
							"internalType": "string",
							"name": "_value",
							"type": "string"
						}
					],
					"name": "setter",
					"outputs": [],
					"stateMutability": "nonpayable",
					"type": "function"
				},
				{
					"inputs": [
						{
							"internalType": "uint256",
							"name": "_roll",
							"type": "uint256"
						},
						{
							"internalType": "uint256",
							"name": "newClass",
							"type": "uint256"
						}
					],
					"name": "updateStudentClass",
					"outputs": [],
					"stateMutability": "nonpayable",
					"type": "function"
				},
				{
					"inputs": [
						{
							"internalType": "uint256",
							"name": "_roll",
							"type": "uint256"
						},
						{
							"internalType": "string",
							"name": "newName",
							"type": "string"
						}
					],
					"name": "updateStudentName",
					"outputs": [],
					"stateMutability": "nonpayable",
					"type": "function"
				}
			],
			"devdoc": {
				"details": "Shows how to use mappings to store and retrieve data efficiently",
				"kind": "dev",
				"methods": {
					"dataSetter(uint256,uint256,string)": {
						"details": "Sets student data in the mappingGas cost: ~40,000-60,000 (higher due to struct storage)",
						"params": {
							"_roll": "The student's roll number (key)",
							"class": "The class/grade the student is in",
							"name": "The student's name"
						}
					},
					"getRollNo(uint256)": {
						"details": "Gets a value from the roll_no mapping",
						"params": {
							"_key": "The key to look up"
						},
						"returns": {
							"_0": "The string value associated with the key, or empty string if not set"
						}
					},
					"getStudentData(uint256)": {
						"details": "Gets student data from the mapping",
						"params": {
							"_roll": "The student's roll number"
						},
						"returns": {
							"_0": "The class and name of the student"
						}
					},
					"keyExists(uint256)": {
						"details": "Checks if a key exists in the roll_no mappingNote: There's no direct way to check if a key exists - we check if the value is empty",
						"params": {
							"_key": "The key to check"
						},
						"returns": {
							"_0": "true if the key has a non-empty value, false otherwise"
						}
					},
					"removeKey(uint256)": {
						"details": "Removes a key-value pair from the roll_no mappingNote: The key still exists in the mapping but maps to an empty value",
						"params": {
							"_key": "The key to remove"
						}
					},
					"setter(uint256,string)": {
						"details": "Sets a value in the roll_no mappingGas cost: ~20,000-40,000 (varies based on storage operations)",
						"params": {
							"_key": "The uint256 key (e.g., student roll number)",
							"_value": "The string value to associate with the key (e.g., student name)"
						}
					},
					"updateStudentClass(uint256,uint256)": {
						"details": "Updates the class of an existing studentRequires the student to already exist in the mapping",
						"params": {
							"_roll": "The student's roll number",
							"newClass": "The new class to assign"
						}
					},
					"updateStudentName(uint256,string)": {
						"details": "Updates the name of an existing student",
						"params": {
							"_roll": "The student's roll number",
							"newName": "The new name to assign"
						}
					}
				},
				"stateVariables": {
					"data": {
						"details": "Mapping from uint keys to Student struct values"
					},
					"roll_no": {
						"details": "Mapping from uint256 keys to string valuesStorage Characteristics: - Doesn't occupy storage slots for unused keys - Keys are hashed to find the storage location - No length or way to enumerate keys - Very gas efficient for access (O(1) complexity)"
					}
				},
				"title": "Mapping Demonstration in Solidity",
				"version": 1
			},
			"evm": {
				"assembly": "    /* \"10-Mapping/demo.sol\":437:5828  contract mapDemo {... */\n  mstore(0x40, 0x80)\n  callvalue\n  dup1\n  iszero\n  tag_1\n  jumpi\n  revert(0x00, 0x00)\ntag_1:\n  pop\n  dataSize(sub_0)\n  dup1\n  dataOffset(sub_0)\n  0x00\n  codecopy\n  0x00\n  return\nstop\n\nsub_0: assembly {\n        /* \"10-Mapping/demo.sol\":437:5828  contract mapDemo {... */\n      mstore(0x40, 0x80)\n      callvalue\n      dup1\n      iszero\n      tag_1\n      jumpi\n      revert(0x00, 0x00)\n    tag_1:\n      pop\n      jumpi(tag_2, lt(calldatasize, 0x04))\n      shr(0xe0, calldataload(0x00))\n      dup1\n      0x898786ac\n      gt\n      tag_13\n      jumpi\n      dup1\n      0x898786ac\n      eq\n      tag_8\n      jumpi\n      dup1\n      0xa8d20d61\n      eq\n      tag_9\n      jumpi\n      dup1\n      0xbcb131c9\n      eq\n      tag_10\n      jumpi\n      dup1\n      0xe14077cb\n      eq\n      tag_11\n      jumpi\n      dup1\n      0xf0ba8440\n      eq\n      tag_12\n      jumpi\n      jump(tag_2)\n    tag_13:\n      dup1\n      0x3d301c2a\n      eq\n      tag_3\n      jumpi\n      dup1\n      0x440dba6c\n      eq\n      tag_4\n      jumpi\n      dup1\n      0x79bab0c2\n      eq\n      tag_5\n      jumpi\n      dup1\n      0x82d1eac8\n      eq\n      tag_6\n      jumpi\n      dup1\n      0x874e5bb8\n      eq\n      tag_7\n      jumpi\n    tag_2:\n      revert(0x00, 0x00)\n        /* \"10-Mapping/demo.sol\":2617:3020  function dataSetter(uint256 _roll, uint256 class, string memory name) public {... */\n    tag_3:\n      tag_14\n      0x04\n      dup1\n      calldatasize\n      sub\n      dup2\n      add\n      swap1\n      tag_15\n      swap2\n      swap1\n      tag_16\n      jump\t// in\n    tag_15:\n      tag_17\n      jump\t// in\n    tag_14:\n      stop\n        /* \"10-Mapping/demo.sol\":5552:5826  function updateStudentName(uint256 _roll, string memory newName) public {... */\n    tag_4:\n      tag_18\n      0x04\n      dup1\n      calldatasize\n      sub\n      dup2\n      add\n      swap1\n      tag_19\n      swap2\n      swap1\n      tag_20\n      jump\t// in\n    tag_19:\n      tag_21\n      jump\t// in\n    tag_18:\n      stop\n        /* \"10-Mapping/demo.sol\":5031:5304  function updateStudentClass(uint256 _roll, uint256 newClass) public {... */\n    tag_5:\n      tag_22\n      0x04\n      dup1\n      calldatasize\n      sub\n      dup2\n      add\n      swap1\n      tag_23\n      swap2\n      swap1\n      tag_24\n      jump\t// in\n    tag_23:\n      tag_25\n      jump\t// in\n    tag_22:\n      stop\n        /* \"10-Mapping/demo.sol\":4159:4274  function keyExists(uint256 _key) public view returns (bool) {... */\n    tag_6:\n      tag_26\n      0x04\n      dup1\n      calldatasize\n      sub\n      dup2\n      add\n      swap1\n      tag_27\n      swap2\n      swap1\n      tag_28\n      jump\t// in\n    tag_27:\n      tag_29\n      jump\t// in\n    tag_26:\n      mload(0x40)\n      tag_30\n      swap2\n      swap1\n      tag_31\n      jump\t// in\n    tag_30:\n      mload(0x40)\n      dup1\n      swap2\n      sub\n      swap1\n      return\n        /* \"10-Mapping/demo.sol\":3633:3816  function getStudentData(uint256 _roll) public view returns (uint256, string memory) {... */\n    tag_7:\n      tag_32\n      0x04\n      dup1\n      calldatasize\n      sub\n      dup2\n      add\n      swap1\n      tag_33\n      swap2\n      swap1\n      tag_28\n      jump\t// in\n    tag_33:\n      tag_34\n      jump\t// in\n    tag_32:\n      mload(0x40)\n      tag_35\n      swap3\n      swap2\n      swap1\n      tag_36\n      jump\t// in\n    tag_35:\n      mload(0x40)\n      dup1\n      swap2\n      sub\n      swap1\n      return\n        /* \"10-Mapping/demo.sol\":1035:1076  mapping(uint256 => string) public roll_no */\n    tag_8:\n      tag_37\n      0x04\n      dup1\n      calldatasize\n      sub\n      dup2\n      add\n      swap1\n      tag_38\n      swap2\n      swap1\n      tag_28\n      jump\t// in\n    tag_38:\n      tag_39\n      jump\t// in\n    tag_37:\n      mload(0x40)\n      tag_40\n      swap2\n      swap1\n      tag_41\n      jump\t// in\n    tag_40:\n      mload(0x40)\n      dup1\n      swap2\n      sub\n      swap1\n      return\n        /* \"10-Mapping/demo.sol\":4562:4715  function removeKey(uint256 _key) public {... */\n    tag_9:\n      tag_42\n      0x04\n      dup1\n      calldatasize\n      sub\n      dup2\n      add\n      swap1\n      tag_43\n      swap2\n      swap1\n      tag_28\n      jump\t// in\n    tag_43:\n      tag_44\n      jump\t// in\n    tag_42:\n      stop\n        /* \"10-Mapping/demo.sol\":1430:1665  function setter(uint256 _key, string memory _value) public {... */\n    tag_10:\n      tag_45\n      0x04\n      dup1\n      calldatasize\n      sub\n      dup2\n      add\n      swap1\n      tag_46\n      swap2\n      swap1\n      tag_20\n      jump\t// in\n    tag_46:\n      tag_47\n      jump\t// in\n    tag_45:\n      stop\n        /* \"10-Mapping/demo.sol\":3299:3405  function getRollNo(uint256 _key) public view returns (string memory) {... */\n    tag_11:\n      tag_48\n      0x04\n      dup1\n      calldatasize\n      sub\n      dup2\n      add\n      swap1\n      tag_49\n      swap2\n      swap1\n      tag_28\n      jump\t// in\n    tag_49:\n      tag_50\n      jump\t// in\n    tag_48:\n      mload(0x40)\n      tag_51\n      swap2\n      swap1\n      tag_41\n      jump\t// in\n    tag_51:\n      mload(0x40)\n      dup1\n      swap2\n      sub\n      swap1\n      return\n        /* \"10-Mapping/demo.sol\":2237:2276  mapping(uint256 => Student) public data */\n    tag_12:\n      tag_52\n      0x04\n      dup1\n      calldatasize\n      sub\n      dup2\n      add\n      swap1\n      tag_53\n      swap2\n      swap1\n      tag_28\n      jump\t// in\n    tag_53:\n      tag_54\n      jump\t// in\n    tag_52:\n      mload(0x40)\n      tag_55\n      swap3\n      swap2\n      swap1\n      tag_36\n      jump\t// in\n    tag_55:\n      mload(0x40)\n      dup1\n      swap2\n      sub\n      swap1\n      return\n        /* \"10-Mapping/demo.sol\":2617:3020  function dataSetter(uint256 _roll, uint256 class, string memory name) public {... */\n    tag_17:\n        /* \"10-Mapping/demo.sol\":2844:2913  Student({... */\n      mload(0x40)\n      dup1\n      0x40\n      add\n      0x40\n      mstore\n      dup1\n        /* \"10-Mapping/demo.sol\":2873:2878  class */\n      dup4\n        /* \"10-Mapping/demo.sol\":2844:2913  Student({... */\n      dup2\n      mstore\n      0x20\n      add\n        /* \"10-Mapping/demo.sol\":2898:2902  name */\n      dup3\n        /* \"10-Mapping/demo.sol\":2844:2913  Student({... */\n      dup2\n      mstore\n      pop\n        /* \"10-Mapping/demo.sol\":2830:2834  data */\n      0x01\n        /* \"10-Mapping/demo.sol\":2830:2841  data[_roll] */\n      0x00\n        /* \"10-Mapping/demo.sol\":2835:2840  _roll */\n      dup6\n        /* \"10-Mapping/demo.sol\":2830:2841  data[_roll] */\n      dup2\n      mstore\n      0x20\n      add\n      swap1\n      dup2\n      mstore\n      0x20\n      add\n      0x00\n      keccak256\n        /* \"10-Mapping/demo.sol\":2830:2913  data[_roll] = Student({... */\n      0x00\n      dup3\n      add\n      mload\n      dup2\n      0x00\n      add\n      sstore\n      0x20\n      dup3\n      add\n      mload\n      dup2\n      0x01\n      add\n      swap1\n      dup2\n      tag_57\n      swap2\n      swap1\n      tag_58\n      jump\t// in\n    tag_57:\n      pop\n      swap1\n      pop\n      pop\n        /* \"10-Mapping/demo.sol\":2617:3020  function dataSetter(uint256 _roll, uint256 class, string memory name) public {... */\n      pop\n      pop\n      pop\n      jump\t// out\n        /* \"10-Mapping/demo.sol\":5552:5826  function updateStudentName(uint256 _roll, string memory newName) public {... */\n    tag_21:\n        /* \"10-Mapping/demo.sol\":5716:5717  0 */\n      0x00\n        /* \"10-Mapping/demo.sol\":5689:5693  data */\n      0x01\n        /* \"10-Mapping/demo.sol\":5689:5700  data[_roll] */\n      0x00\n        /* \"10-Mapping/demo.sol\":5694:5699  _roll */\n      dup5\n        /* \"10-Mapping/demo.sol\":5689:5700  data[_roll] */\n      dup2\n      mstore\n      0x20\n      add\n      swap1\n      dup2\n      mstore\n      0x20\n      add\n      0x00\n      keccak256\n        /* \"10-Mapping/demo.sol\":5689:5705  data[_roll].name */\n      0x01\n      add\n        /* \"10-Mapping/demo.sol\":5683:5713  bytes(data[_roll].name).length */\n      dup1\n      sload\n      tag_60\n      swap1\n      tag_61\n      jump\t// in\n    tag_60:\n      swap1\n      pop\n        /* \"10-Mapping/demo.sol\":5683:5717  bytes(data[_roll].name).length > 0 */\n      gt\n        /* \"10-Mapping/demo.sol\":5675:5744  require(bytes(data[_roll].name).length > 0, \"Student does not exist\") */\n      tag_62\n      jumpi\n      mload(0x40)\n      0x08c379a000000000000000000000000000000000000000000000000000000000\n      dup2\n      mstore\n      0x04\n      add\n      tag_63\n      swap1\n      tag_64\n      jump\t// in\n    tag_63:\n      mload(0x40)\n      dup1\n      swap2\n      sub\n      swap1\n      revert\n    tag_62:\n        /* \"10-Mapping/demo.sol\":5812:5819  newName */\n      dup1\n        /* \"10-Mapping/demo.sol\":5793:5797  data */\n      0x01\n        /* \"10-Mapping/demo.sol\":5793:5804  data[_roll] */\n      0x00\n        /* \"10-Mapping/demo.sol\":5798:5803  _roll */\n      dup5\n        /* \"10-Mapping/demo.sol\":5793:5804  data[_roll] */\n      dup2\n      mstore\n      0x20\n      add\n      swap1\n      dup2\n      mstore\n      0x20\n      add\n      0x00\n      keccak256\n        /* \"10-Mapping/demo.sol\":5793:5809  data[_roll].name */\n      0x01\n      add\n        /* \"10-Mapping/demo.sol\":5793:5819  data[_roll].name = newName */\n      swap1\n      dup2\n      tag_65\n      swap2\n      swap1\n      tag_58\n      jump\t// in\n    tag_65:\n      pop\n        /* \"10-Mapping/demo.sol\":5552:5826  function updateStudentName(uint256 _roll, string memory newName) public {... */\n      pop\n      pop\n      jump\t// out\n        /* \"10-Mapping/demo.sol\":5031:5304  function updateStudentClass(uint256 _roll, uint256 newClass) public {... */\n    tag_25:\n        /* \"10-Mapping/demo.sol\":5191:5192  0 */\n      0x00\n        /* \"10-Mapping/demo.sol\":5164:5168  data */\n      0x01\n        /* \"10-Mapping/demo.sol\":5164:5175  data[_roll] */\n      0x00\n        /* \"10-Mapping/demo.sol\":5169:5174  _roll */\n      dup5\n        /* \"10-Mapping/demo.sol\":5164:5175  data[_roll] */\n      dup2\n      mstore\n      0x20\n      add\n      swap1\n      dup2\n      mstore\n      0x20\n      add\n      0x00\n      keccak256\n        /* \"10-Mapping/demo.sol\":5164:5180  data[_roll].name */\n      0x01\n      add\n        /* \"10-Mapping/demo.sol\":5158:5188  bytes(data[_roll].name).length */\n      dup1\n      sload\n      tag_67\n      swap1\n      tag_61\n      jump\t// in\n    tag_67:\n      swap1\n      pop\n        /* \"10-Mapping/demo.sol\":5158:5192  bytes(data[_roll].name).length > 0 */\n      gt\n        /* \"10-Mapping/demo.sol\":5150:5219  require(bytes(data[_roll].name).length > 0, \"Student does not exist\") */\n      tag_68\n      jumpi\n      mload(0x40)\n      0x08c379a000000000000000000000000000000000000000000000000000000000\n      dup2\n      mstore\n      0x04\n      add\n      tag_69\n      swap1\n      tag_64\n      jump\t// in\n    tag_69:\n      mload(0x40)\n      dup1\n      swap2\n      sub\n      swap1\n      revert\n    tag_68:\n        /* \"10-Mapping/demo.sol\":5289:5297  newClass */\n      dup1\n        /* \"10-Mapping/demo.sol\":5269:5273  data */\n      0x01\n        /* \"10-Mapping/demo.sol\":5269:5280  data[_roll] */\n      0x00\n        /* \"10-Mapping/demo.sol\":5274:5279  _roll */\n      dup5\n        /* \"10-Mapping/demo.sol\":5269:5280  data[_roll] */\n      dup2\n      mstore\n      0x20\n      add\n      swap1\n      dup2\n      mstore\n      0x20\n      add\n      0x00\n      keccak256\n        /* \"10-Mapping/demo.sol\":5269:5286  data[_roll].class */\n      0x00\n      add\n        /* \"10-Mapping/demo.sol\":5269:5297  data[_roll].class = newClass */\n      dup2\n      swap1\n      sstore\n      pop\n        /* \"10-Mapping/demo.sol\":5031:5304  function updateStudentClass(uint256 _roll, uint256 newClass) public {... */\n      pop\n      pop\n      jump\t// out\n        /* \"10-Mapping/demo.sol\":4159:4274  function keyExists(uint256 _key) public view returns (bool) {... */\n    tag_29:\n        /* \"10-Mapping/demo.sol\":4213:4217  bool */\n      0x00\n        /* \"10-Mapping/demo.sol\":4266:4267  0 */\n      0x00\n        /* \"10-Mapping/demo.sol\":4242:4249  roll_no */\n      0x00\n        /* \"10-Mapping/demo.sol\":4242:4255  roll_no[_key] */\n      0x00\n        /* \"10-Mapping/demo.sol\":4250:4254  _key */\n      dup5\n        /* \"10-Mapping/demo.sol\":4242:4255  roll_no[_key] */\n      dup2\n      mstore\n      0x20\n      add\n      swap1\n      dup2\n      mstore\n      0x20\n      add\n      0x00\n      keccak256\n        /* \"10-Mapping/demo.sol\":4236:4263  bytes(roll_no[_key]).length */\n      dup1\n      sload\n      tag_71\n      swap1\n      tag_61\n      jump\t// in\n    tag_71:\n      swap1\n      pop\n        /* \"10-Mapping/demo.sol\":4236:4267  bytes(roll_no[_key]).length > 0 */\n      gt\n        /* \"10-Mapping/demo.sol\":4229:4267  return bytes(roll_no[_key]).length > 0 */\n      swap1\n      pop\n        /* \"10-Mapping/demo.sol\":4159:4274  function keyExists(uint256 _key) public view returns (bool) {... */\n      swap2\n      swap1\n      pop\n      jump\t// out\n        /* \"10-Mapping/demo.sol\":3633:3816  function getStudentData(uint256 _roll) public view returns (uint256, string memory) {... */\n    tag_34:\n        /* \"10-Mapping/demo.sol\":3693:3700  uint256 */\n      0x00\n        /* \"10-Mapping/demo.sol\":3702:3715  string memory */\n      0x60\n        /* \"10-Mapping/demo.sol\":3727:3749  Student memory student */\n      0x00\n        /* \"10-Mapping/demo.sol\":3752:3756  data */\n      0x01\n        /* \"10-Mapping/demo.sol\":3752:3763  data[_roll] */\n      0x00\n        /* \"10-Mapping/demo.sol\":3757:3762  _roll */\n      dup6\n        /* \"10-Mapping/demo.sol\":3752:3763  data[_roll] */\n      dup2\n      mstore\n      0x20\n      add\n      swap1\n      dup2\n      mstore\n      0x20\n      add\n      0x00\n      keccak256\n        /* \"10-Mapping/demo.sol\":3727:3763  Student memory student = data[_roll] */\n      mload(0x40)\n      dup1\n      0x40\n      add\n      0x40\n      mstore\n      swap1\n      dup2\n      0x00\n      dup3\n      add\n      sload\n      dup2\n      mstore\n      0x20\n      add\n      0x01\n      dup3\n      add\n      dup1\n      sload\n      tag_73\n      swap1\n      tag_61\n      jump\t// in\n    tag_73:\n      dup1\n      0x1f\n      add\n      0x20\n      dup1\n      swap2\n      div\n      mul\n      0x20\n      add\n      mload(0x40)\n      swap1\n      dup2\n      add\n      0x40\n      mstore\n      dup1\n      swap3\n      swap2\n      swap1\n      dup2\n      dup2\n      mstore\n      0x20\n      add\n      dup3\n      dup1\n      sload\n      tag_74\n      swap1\n      tag_61\n      jump\t// in\n    tag_74:\n      dup1\n      iszero\n      tag_75\n      jumpi\n      dup1\n      0x1f\n      lt\n      tag_76\n      jumpi\n      0x0100\n      dup1\n      dup4\n      sload\n      div\n      mul\n      dup4\n      mstore\n      swap2\n      0x20\n      add\n      swap2\n      jump(tag_75)\n    tag_76:\n      dup3\n      add\n      swap2\n      swap1\n      0x00\n      mstore\n      keccak256(0x00, 0x20)\n      swap1\n    tag_77:\n      dup2\n      sload\n      dup2\n      mstore\n      swap1\n      0x01\n      add\n      swap1\n      0x20\n      add\n      dup1\n      dup4\n      gt\n      tag_77\n      jumpi\n      dup3\n      swap1\n      sub\n      0x1f\n      and\n      dup3\n      add\n      swap2\n    tag_75:\n      pop\n      pop\n      pop\n      pop\n      pop\n      dup2\n      mstore\n      pop\n      pop\n      swap1\n      pop\n        /* \"10-Mapping/demo.sol\":3781:3788  student */\n      dup1\n        /* \"10-Mapping/demo.sol\":3781:3794  student.class */\n      0x00\n      add\n      mload\n        /* \"10-Mapping/demo.sol\":3796:3803  student */\n      dup2\n        /* \"10-Mapping/demo.sol\":3796:3808  student.name */\n      0x20\n      add\n      mload\n        /* \"10-Mapping/demo.sol\":3773:3809  return (student.class, student.name) */\n      swap3\n      pop\n      swap3\n      pop\n      pop\n        /* \"10-Mapping/demo.sol\":3633:3816  function getStudentData(uint256 _roll) public view returns (uint256, string memory) {... */\n      swap2\n      pop\n      swap2\n      jump\t// out\n        /* \"10-Mapping/demo.sol\":1035:1076  mapping(uint256 => string) public roll_no */\n    tag_39:\n      mstore(0x20, 0x00)\n      dup1\n      0x00\n      mstore\n      keccak256(0x00, 0x40)\n      0x00\n      swap2\n      pop\n      swap1\n      pop\n      dup1\n      sload\n      tag_78\n      swap1\n      tag_61\n      jump\t// in\n    tag_78:\n      dup1\n      0x1f\n      add\n      0x20\n      dup1\n      swap2\n      div\n      mul\n      0x20\n      add\n      mload(0x40)\n      swap1\n      dup2\n      add\n      0x40\n      mstore\n      dup1\n      swap3\n      swap2\n      swap1\n      dup2\n      dup2\n      mstore\n      0x20\n      add\n      dup3\n      dup1\n      sload\n      tag_79\n      swap1\n      tag_61\n      jump\t// in\n    tag_79:\n      dup1\n      iszero\n      tag_80\n      jumpi\n      dup1\n      0x1f\n      lt\n      tag_81\n      jumpi\n      0x0100\n      dup1\n      dup4\n      sload\n      div\n      mul\n      dup4\n      mstore\n      swap2\n      0x20\n      add\n      swap2\n      jump(tag_80)\n    tag_81:\n      dup3\n      add\n      swap2\n      swap1\n      0x00\n      mstore\n      keccak256(0x00, 0x20)\n      swap1\n    tag_82:\n      dup2\n      sload\n      dup2\n      mstore\n      swap1\n      0x01\n      add\n      swap1\n      0x20\n      add\n      dup1\n      dup4\n      gt\n      tag_82\n      jumpi\n      dup3\n      swap1\n      sub\n      0x1f\n      and\n      dup3\n      add\n      swap2\n    tag_80:\n      pop\n      pop\n      pop\n      pop\n      pop\n      dup2\n      jump\t// out\n        /* \"10-Mapping/demo.sol\":4562:4715  function removeKey(uint256 _key) public {... */\n    tag_44:\n        /* \"10-Mapping/demo.sol\":4619:4626  roll_no */\n      0x00\n        /* \"10-Mapping/demo.sol\":4619:4632  roll_no[_key] */\n      0x00\n        /* \"10-Mapping/demo.sol\":4627:4631  _key */\n      dup3\n        /* \"10-Mapping/demo.sol\":4619:4632  roll_no[_key] */\n      dup2\n      mstore\n      0x20\n      add\n      swap1\n      dup2\n      mstore\n      0x20\n      add\n      0x00\n      keccak256\n      0x00\n        /* \"10-Mapping/demo.sol\":4612:4632  delete roll_no[_key] */\n      tag_84\n      swap2\n      swap1\n      tag_85\n      jump\t// in\n    tag_84:\n        /* \"10-Mapping/demo.sol\":4562:4715  function removeKey(uint256 _key) public {... */\n      pop\n      jump\t// out\n        /* \"10-Mapping/demo.sol\":1430:1665  function setter(uint256 _key, string memory _value) public {... */\n    tag_47:\n        /* \"10-Mapping/demo.sol\":1652:1658  _value */\n      dup1\n        /* \"10-Mapping/demo.sol\":1636:1643  roll_no */\n      0x00\n        /* \"10-Mapping/demo.sol\":1636:1649  roll_no[_key] */\n      0x00\n        /* \"10-Mapping/demo.sol\":1644:1648  _key */\n      dup5\n        /* \"10-Mapping/demo.sol\":1636:1649  roll_no[_key] */\n      dup2\n      mstore\n      0x20\n      add\n      swap1\n      dup2\n      mstore\n      0x20\n      add\n      0x00\n      keccak256\n        /* \"10-Mapping/demo.sol\":1636:1658  roll_no[_key] = _value */\n      swap1\n      dup2\n      tag_87\n      swap2\n      swap1\n      tag_58\n      jump\t// in\n    tag_87:\n      pop\n        /* \"10-Mapping/demo.sol\":1430:1665  function setter(uint256 _key, string memory _value) public {... */\n      pop\n      pop\n      jump\t// out\n        /* \"10-Mapping/demo.sol\":3299:3405  function getRollNo(uint256 _key) public view returns (string memory) {... */\n    tag_50:\n        /* \"10-Mapping/demo.sol\":3353:3366  string memory */\n      0x60\n        /* \"10-Mapping/demo.sol\":3385:3392  roll_no */\n      0x00\n        /* \"10-Mapping/demo.sol\":3385:3398  roll_no[_key] */\n      0x00\n        /* \"10-Mapping/demo.sol\":3393:3397  _key */\n      dup4\n        /* \"10-Mapping/demo.sol\":3385:3398  roll_no[_key] */\n      dup2\n      mstore\n      0x20\n      add\n      swap1\n      dup2\n      mstore\n      0x20\n      add\n      0x00\n      keccak256\n        /* \"10-Mapping/demo.sol\":3378:3398  return roll_no[_key] */\n      dup1\n      sload\n      tag_89\n      swap1\n      tag_61\n      jump\t// in\n    tag_89:\n      dup1\n      0x1f\n      add\n      0x20\n      dup1\n      swap2\n      div\n      mul\n      0x20\n      add\n      mload(0x40)\n      swap1\n      dup2\n      add\n      0x40\n      mstore\n      dup1\n      swap3\n      swap2\n      swap1\n      dup2\n      dup2\n      mstore\n      0x20\n      add\n      dup3\n      dup1\n      sload\n      tag_90\n      swap1\n      tag_61\n      jump\t// in\n    tag_90:\n      dup1\n      iszero\n      tag_91\n      jumpi\n      dup1\n      0x1f\n      lt\n      tag_92\n      jumpi\n      0x0100\n      dup1\n      dup4\n      sload\n      div\n      mul\n      dup4\n      mstore\n      swap2\n      0x20\n      add\n      swap2\n      jump(tag_91)\n    tag_92:\n      dup3\n      add\n      swap2\n      swap1\n      0x00\n      mstore\n      keccak256(0x00, 0x20)\n      swap1\n    tag_93:\n      dup2\n      sload\n      dup2\n      mstore\n      swap1\n      0x01\n      add\n      swap1\n      0x20\n      add\n      dup1\n      dup4\n      gt\n      tag_93\n      jumpi\n      dup3\n      swap1\n      sub\n      0x1f\n      and\n      dup3\n      add\n      swap2\n    tag_91:\n      pop\n      pop\n      pop\n      pop\n      pop\n      swap1\n      pop\n        /* \"10-Mapping/demo.sol\":3299:3405  function getRollNo(uint256 _key) public view returns (string memory) {... */\n      swap2\n      swap1\n      pop\n      jump\t// out\n        /* \"10-Mapping/demo.sol\":2237:2276  mapping(uint256 => Student) public data */\n    tag_54:\n      mstore(0x20, 0x01)\n      dup1\n      0x00\n      mstore\n      keccak256(0x00, 0x40)\n      0x00\n      swap2\n      pop\n      swap1\n      pop\n      dup1\n      0x00\n      add\n      sload\n      swap1\n      dup1\n      0x01\n      add\n      dup1\n      sload\n      tag_94\n      swap1\n      tag_61\n      jump\t// in\n    tag_94:\n      dup1\n      0x1f\n      add\n      0x20\n      dup1\n      swap2\n      div\n      mul\n      0x20\n      add\n      mload(0x40)\n      swap1\n      dup2\n      add\n      0x40\n      mstore\n      dup1\n      swap3\n      swap2\n      swap1\n      dup2\n      dup2\n      mstore\n      0x20\n      add\n      dup3\n      dup1\n      sload\n      tag_95\n      swap1\n      tag_61\n      jump\t// in\n    tag_95:\n      dup1\n      iszero\n      tag_96\n      jumpi\n      dup1\n      0x1f\n      lt\n      tag_97\n      jumpi\n      0x0100\n      dup1\n      dup4\n      sload\n      div\n      mul\n      dup4\n      mstore\n      swap2\n      0x20\n      add\n      swap2\n      jump(tag_96)\n    tag_97:\n      dup3\n      add\n      swap2\n      swap1\n      0x00\n      mstore\n      keccak256(0x00, 0x20)\n      swap1\n    tag_98:\n      dup2\n      sload\n      dup2\n      mstore\n      swap1\n      0x01\n      add\n      swap1\n      0x20\n      add\n      dup1\n      dup4\n      gt\n      tag_98\n      jumpi\n      dup3\n      swap1\n      sub\n      0x1f\n      and\n      dup3\n      add\n      swap2\n    tag_96:\n      pop\n      pop\n      pop\n      pop\n      pop\n      swap1\n      pop\n      dup3\n      jump\t// out\n    tag_85:\n      pop\n      dup1\n      sload\n      tag_99\n      swap1\n      tag_61\n      jump\t// in\n    tag_99:\n      0x00\n      dup3\n      sstore\n      dup1\n      0x1f\n      lt\n      tag_101\n      jumpi\n      pop\n      jump(tag_100)\n    tag_101:\n      0x1f\n      add\n      0x20\n      swap1\n      div\n      swap1\n      0x00\n      mstore\n      keccak256(0x00, 0x20)\n      swap1\n      dup2\n      add\n      swap1\n      tag_102\n      swap2\n      swap1\n      tag_103\n      jump\t// in\n    tag_102:\n    tag_100:\n      pop\n      jump\t// out\n    tag_103:\n    tag_104:\n      dup1\n      dup3\n      gt\n      iszero\n      tag_105\n      jumpi\n      0x00\n      dup2\n      0x00\n      swap1\n      sstore\n      pop\n      0x01\n      add\n      jump(tag_104)\n    tag_105:\n      pop\n      swap1\n      jump\t// out\n        /* \"#utility.yul\":7:82   */\n    tag_106:\n        /* \"#utility.yul\":40:46   */\n      0x00\n        /* \"#utility.yul\":73:75   */\n      0x40\n        /* \"#utility.yul\":67:76   */\n      mload\n        /* \"#utility.yul\":57:76   */\n      swap1\n      pop\n        /* \"#utility.yul\":7:82   */\n      swap1\n      jump\t// out\n        /* \"#utility.yul\":88:205   */\n    tag_107:\n        /* \"#utility.yul\":197:198   */\n      0x00\n        /* \"#utility.yul\":194:195   */\n      0x00\n        /* \"#utility.yul\":187:199   */\n      revert\n        /* \"#utility.yul\":211:328   */\n    tag_108:\n        /* \"#utility.yul\":320:321   */\n      0x00\n        /* \"#utility.yul\":317:318   */\n      0x00\n        /* \"#utility.yul\":310:322   */\n      revert\n        /* \"#utility.yul\":334:411   */\n    tag_109:\n        /* \"#utility.yul\":371:378   */\n      0x00\n        /* \"#utility.yul\":400:405   */\n      dup2\n        /* \"#utility.yul\":389:405   */\n      swap1\n      pop\n        /* \"#utility.yul\":334:411   */\n      swap2\n      swap1\n      pop\n      jump\t// out\n        /* \"#utility.yul\":417:539   */\n    tag_110:\n        /* \"#utility.yul\":490:514   */\n      tag_153\n        /* \"#utility.yul\":508:513   */\n      dup2\n        /* \"#utility.yul\":490:514   */\n      tag_109\n      jump\t// in\n    tag_153:\n        /* \"#utility.yul\":483:488   */\n      dup2\n        /* \"#utility.yul\":480:515   */\n      eq\n        /* \"#utility.yul\":470:533   */\n      tag_154\n      jumpi\n        /* \"#utility.yul\":529:530   */\n      0x00\n        /* \"#utility.yul\":526:527   */\n      0x00\n        /* \"#utility.yul\":519:531   */\n      revert\n        /* \"#utility.yul\":470:533   */\n    tag_154:\n        /* \"#utility.yul\":417:539   */\n      pop\n      jump\t// out\n        /* \"#utility.yul\":545:684   */\n    tag_111:\n        /* \"#utility.yul\":591:596   */\n      0x00\n        /* \"#utility.yul\":629:635   */\n      dup2\n        /* \"#utility.yul\":616:636   */\n      calldataload\n        /* \"#utility.yul\":607:636   */\n      swap1\n      pop\n        /* \"#utility.yul\":645:678   */\n      tag_156\n        /* \"#utility.yul\":672:677   */\n      dup2\n        /* \"#utility.yul\":645:678   */\n      tag_110\n      jump\t// in\n    tag_156:\n        /* \"#utility.yul\":545:684   */\n      swap3\n      swap2\n      pop\n      pop\n      jump\t// out\n        /* \"#utility.yul\":690:807   */\n    tag_112:\n        /* \"#utility.yul\":799:800   */\n      0x00\n        /* \"#utility.yul\":796:797   */\n      0x00\n        /* \"#utility.yul\":789:801   */\n      revert\n        /* \"#utility.yul\":813:930   */\n    tag_113:\n        /* \"#utility.yul\":922:923   */\n      0x00\n        /* \"#utility.yul\":919:920   */\n      0x00\n        /* \"#utility.yul\":912:924   */\n      revert\n        /* \"#utility.yul\":936:1038   */\n    tag_114:\n        /* \"#utility.yul\":977:983   */\n      0x00\n        /* \"#utility.yul\":1028:1030   */\n      0x1f\n        /* \"#utility.yul\":1024:1031   */\n      not\n        /* \"#utility.yul\":1019:1021   */\n      0x1f\n        /* \"#utility.yul\":1012:1017   */\n      dup4\n        /* \"#utility.yul\":1008:1022   */\n      add\n        /* \"#utility.yul\":1004:1032   */\n      and\n        /* \"#utility.yul\":994:1032   */\n      swap1\n      pop\n        /* \"#utility.yul\":936:1038   */\n      swap2\n      swap1\n      pop\n      jump\t// out\n        /* \"#utility.yul\":1044:1224   */\n    tag_115:\n        /* \"#utility.yul\":1092:1169   */\n      0x4e487b7100000000000000000000000000000000000000000000000000000000\n        /* \"#utility.yul\":1089:1090   */\n      0x00\n        /* \"#utility.yul\":1082:1170   */\n      mstore\n        /* \"#utility.yul\":1189:1193   */\n      0x41\n        /* \"#utility.yul\":1186:1187   */\n      0x04\n        /* \"#utility.yul\":1179:1194   */\n      mstore\n        /* \"#utility.yul\":1213:1217   */\n      0x24\n        /* \"#utility.yul\":1210:1211   */\n      0x00\n        /* \"#utility.yul\":1203:1218   */\n      revert\n        /* \"#utility.yul\":1230:1511   */\n    tag_116:\n        /* \"#utility.yul\":1313:1340   */\n      tag_162\n        /* \"#utility.yul\":1335:1339   */\n      dup3\n        /* \"#utility.yul\":1313:1340   */\n      tag_114\n      jump\t// in\n    tag_162:\n        /* \"#utility.yul\":1305:1311   */\n      dup2\n        /* \"#utility.yul\":1301:1341   */\n      add\n        /* \"#utility.yul\":1443:1449   */\n      dup2\n        /* \"#utility.yul\":1431:1441   */\n      dup2\n        /* \"#utility.yul\":1428:1450   */\n      lt\n        /* \"#utility.yul\":1407:1425   */\n      0xffffffffffffffff\n        /* \"#utility.yul\":1395:1405   */\n      dup3\n        /* \"#utility.yul\":1392:1426   */\n      gt\n        /* \"#utility.yul\":1389:1451   */\n      or\n        /* \"#utility.yul\":1386:1474   */\n      iszero\n      tag_163\n      jumpi\n        /* \"#utility.yul\":1454:1472   */\n      tag_164\n      tag_115\n      jump\t// in\n    tag_164:\n        /* \"#utility.yul\":1386:1474   */\n    tag_163:\n        /* \"#utility.yul\":1494:1504   */\n      dup1\n        /* \"#utility.yul\":1490:1492   */\n      0x40\n        /* \"#utility.yul\":1483:1505   */\n      mstore\n        /* \"#utility.yul\":1273:1511   */\n      pop\n        /* \"#utility.yul\":1230:1511   */\n      pop\n      pop\n      jump\t// out\n        /* \"#utility.yul\":1517:1646   */\n    tag_117:\n        /* \"#utility.yul\":1551:1557   */\n      0x00\n        /* \"#utility.yul\":1578:1598   */\n      tag_166\n      tag_106\n      jump\t// in\n    tag_166:\n        /* \"#utility.yul\":1568:1598   */\n      swap1\n      pop\n        /* \"#utility.yul\":1607:1640   */\n      tag_167\n        /* \"#utility.yul\":1635:1639   */\n      dup3\n        /* \"#utility.yul\":1627:1633   */\n      dup3\n        /* \"#utility.yul\":1607:1640   */\n      tag_116\n      jump\t// in\n    tag_167:\n        /* \"#utility.yul\":1517:1646   */\n      swap2\n      swap1\n      pop\n      jump\t// out\n        /* \"#utility.yul\":1652:1960   */\n    tag_118:\n        /* \"#utility.yul\":1714:1718   */\n      0x00\n        /* \"#utility.yul\":1804:1822   */\n      0xffffffffffffffff\n        /* \"#utility.yul\":1796:1802   */\n      dup3\n        /* \"#utility.yul\":1793:1823   */\n      gt\n        /* \"#utility.yul\":1790:1846   */\n      iszero\n      tag_169\n      jumpi\n        /* \"#utility.yul\":1826:1844   */\n      tag_170\n      tag_115\n      jump\t// in\n    tag_170:\n        /* \"#utility.yul\":1790:1846   */\n    tag_169:\n        /* \"#utility.yul\":1864:1893   */\n      tag_171\n        /* \"#utility.yul\":1886:1892   */\n      dup3\n        /* \"#utility.yul\":1864:1893   */\n      tag_114\n      jump\t// in\n    tag_171:\n        /* \"#utility.yul\":1856:1893   */\n      swap1\n      pop\n        /* \"#utility.yul\":1948:1952   */\n      0x20\n        /* \"#utility.yul\":1942:1946   */\n      dup2\n        /* \"#utility.yul\":1938:1953   */\n      add\n        /* \"#utility.yul\":1930:1953   */\n      swap1\n      pop\n        /* \"#utility.yul\":1652:1960   */\n      swap2\n      swap1\n      pop\n      jump\t// out\n        /* \"#utility.yul\":1966:2114   */\n    tag_119:\n        /* \"#utility.yul\":2064:2070   */\n      dup3\n        /* \"#utility.yul\":2059:2062   */\n      dup2\n        /* \"#utility.yul\":2054:2057   */\n      dup4\n        /* \"#utility.yul\":2041:2071   */\n      calldatacopy\n        /* \"#utility.yul\":2105:2106   */\n      0x00\n        /* \"#utility.yul\":2096:2102   */\n      dup4\n        /* \"#utility.yul\":2091:2094   */\n      dup4\n        /* \"#utility.yul\":2087:2103   */\n      add\n        /* \"#utility.yul\":2080:2107   */\n      mstore\n        /* \"#utility.yul\":1966:2114   */\n      pop\n      pop\n      pop\n      jump\t// out\n        /* \"#utility.yul\":2120:2545   */\n    tag_120:\n        /* \"#utility.yul\":2198:2203   */\n      0x00\n        /* \"#utility.yul\":2223:2289   */\n      tag_174\n        /* \"#utility.yul\":2239:2288   */\n      tag_175\n        /* \"#utility.yul\":2281:2287   */\n      dup5\n        /* \"#utility.yul\":2239:2288   */\n      tag_118\n      jump\t// in\n    tag_175:\n        /* \"#utility.yul\":2223:2289   */\n      tag_117\n      jump\t// in\n    tag_174:\n        /* \"#utility.yul\":2214:2289   */\n      swap1\n      pop\n        /* \"#utility.yul\":2312:2318   */\n      dup3\n        /* \"#utility.yul\":2305:2310   */\n      dup2\n        /* \"#utility.yul\":2298:2319   */\n      mstore\n        /* \"#utility.yul\":2350:2354   */\n      0x20\n        /* \"#utility.yul\":2343:2348   */\n      dup2\n        /* \"#utility.yul\":2339:2355   */\n      add\n        /* \"#utility.yul\":2388:2391   */\n      dup5\n        /* \"#utility.yul\":2379:2385   */\n      dup5\n        /* \"#utility.yul\":2374:2377   */\n      dup5\n        /* \"#utility.yul\":2370:2386   */\n      add\n        /* \"#utility.yul\":2367:2392   */\n      gt\n        /* \"#utility.yul\":2364:2476   */\n      iszero\n      tag_176\n      jumpi\n        /* \"#utility.yul\":2395:2474   */\n      tag_177\n      tag_113\n      jump\t// in\n    tag_177:\n        /* \"#utility.yul\":2364:2476   */\n    tag_176:\n        /* \"#utility.yul\":2485:2539   */\n      tag_178\n        /* \"#utility.yul\":2532:2538   */\n      dup5\n        /* \"#utility.yul\":2527:2530   */\n      dup3\n        /* \"#utility.yul\":2522:2525   */\n      dup6\n        /* \"#utility.yul\":2485:2539   */\n      tag_119\n      jump\t// in\n    tag_178:\n        /* \"#utility.yul\":2204:2545   */\n      pop\n        /* \"#utility.yul\":2120:2545   */\n      swap4\n      swap3\n      pop\n      pop\n      pop\n      jump\t// out\n        /* \"#utility.yul\":2565:2905   */\n    tag_121:\n        /* \"#utility.yul\":2621:2626   */\n      0x00\n        /* \"#utility.yul\":2670:2673   */\n      dup3\n        /* \"#utility.yul\":2663:2667   */\n      0x1f\n        /* \"#utility.yul\":2655:2661   */\n      dup4\n        /* \"#utility.yul\":2651:2668   */\n      add\n        /* \"#utility.yul\":2647:2674   */\n      slt\n        /* \"#utility.yul\":2637:2759   */\n      tag_180\n      jumpi\n        /* \"#utility.yul\":2678:2757   */\n      tag_181\n      tag_112\n      jump\t// in\n    tag_181:\n        /* \"#utility.yul\":2637:2759   */\n    tag_180:\n        /* \"#utility.yul\":2795:2801   */\n      dup2\n        /* \"#utility.yul\":2782:2802   */\n      calldataload\n        /* \"#utility.yul\":2820:2899   */\n      tag_182\n        /* \"#utility.yul\":2895:2898   */\n      dup5\n        /* \"#utility.yul\":2887:2893   */\n      dup3\n        /* \"#utility.yul\":2880:2884   */\n      0x20\n        /* \"#utility.yul\":2872:2878   */\n      dup7\n        /* \"#utility.yul\":2868:2885   */\n      add\n        /* \"#utility.yul\":2820:2899   */\n      tag_120\n      jump\t// in\n    tag_182:\n        /* \"#utility.yul\":2811:2899   */\n      swap2\n      pop\n        /* \"#utility.yul\":2627:2905   */\n      pop\n        /* \"#utility.yul\":2565:2905   */\n      swap3\n      swap2\n      pop\n      pop\n      jump\t// out\n        /* \"#utility.yul\":2911:3710   */\n    tag_16:\n        /* \"#utility.yul\":2998:3004   */\n      0x00\n        /* \"#utility.yul\":3006:3012   */\n      0x00\n        /* \"#utility.yul\":3014:3020   */\n      0x00\n        /* \"#utility.yul\":3063:3065   */\n      0x60\n        /* \"#utility.yul\":3051:3060   */\n      dup5\n        /* \"#utility.yul\":3042:3049   */\n      dup7\n        /* \"#utility.yul\":3038:3061   */\n      sub\n        /* \"#utility.yul\":3034:3066   */\n      slt\n        /* \"#utility.yul\":3031:3150   */\n      iszero\n      tag_184\n      jumpi\n        /* \"#utility.yul\":3069:3148   */\n      tag_185\n      tag_107\n      jump\t// in\n    tag_185:\n        /* \"#utility.yul\":3031:3150   */\n    tag_184:\n        /* \"#utility.yul\":3189:3190   */\n      0x00\n        /* \"#utility.yul\":3214:3267   */\n      tag_186\n        /* \"#utility.yul\":3259:3266   */\n      dup7\n        /* \"#utility.yul\":3250:3256   */\n      dup3\n        /* \"#utility.yul\":3239:3248   */\n      dup8\n        /* \"#utility.yul\":3235:3257   */\n      add\n        /* \"#utility.yul\":3214:3267   */\n      tag_111\n      jump\t// in\n    tag_186:\n        /* \"#utility.yul\":3204:3267   */\n      swap4\n      pop\n        /* \"#utility.yul\":3160:3277   */\n      pop\n        /* \"#utility.yul\":3316:3318   */\n      0x20\n        /* \"#utility.yul\":3342:3395   */\n      tag_187\n        /* \"#utility.yul\":3387:3394   */\n      dup7\n        /* \"#utility.yul\":3378:3384   */\n      dup3\n        /* \"#utility.yul\":3367:3376   */\n      dup8\n        /* \"#utility.yul\":3363:3385   */\n      add\n        /* \"#utility.yul\":3342:3395   */\n      tag_111\n      jump\t// in\n    tag_187:\n        /* \"#utility.yul\":3332:3395   */\n      swap3\n      pop\n        /* \"#utility.yul\":3287:3405   */\n      pop\n        /* \"#utility.yul\":3472:3474   */\n      0x40\n        /* \"#utility.yul\":3461:3470   */\n      dup5\n        /* \"#utility.yul\":3457:3475   */\n      add\n        /* \"#utility.yul\":3444:3476   */\n      calldataload\n        /* \"#utility.yul\":3503:3521   */\n      0xffffffffffffffff\n        /* \"#utility.yul\":3495:3501   */\n      dup2\n        /* \"#utility.yul\":3492:3522   */\n      gt\n        /* \"#utility.yul\":3489:3606   */\n      iszero\n      tag_188\n      jumpi\n        /* \"#utility.yul\":3525:3604   */\n      tag_189\n      tag_108\n      jump\t// in\n    tag_189:\n        /* \"#utility.yul\":3489:3606   */\n    tag_188:\n        /* \"#utility.yul\":3630:3693   */\n      tag_190\n        /* \"#utility.yul\":3685:3692   */\n      dup7\n        /* \"#utility.yul\":3676:3682   */\n      dup3\n        /* \"#utility.yul\":3665:3674   */\n      dup8\n        /* \"#utility.yul\":3661:3683   */\n      add\n        /* \"#utility.yul\":3630:3693   */\n      tag_121\n      jump\t// in\n    tag_190:\n        /* \"#utility.yul\":3620:3693   */\n      swap2\n      pop\n        /* \"#utility.yul\":3415:3703   */\n      pop\n        /* \"#utility.yul\":2911:3710   */\n      swap3\n      pop\n      swap3\n      pop\n      swap3\n      jump\t// out\n        /* \"#utility.yul\":3716:4370   */\n    tag_20:\n        /* \"#utility.yul\":3794:3800   */\n      0x00\n        /* \"#utility.yul\":3802:3808   */\n      0x00\n        /* \"#utility.yul\":3851:3853   */\n      0x40\n        /* \"#utility.yul\":3839:3848   */\n      dup4\n        /* \"#utility.yul\":3830:3837   */\n      dup6\n        /* \"#utility.yul\":3826:3849   */\n      sub\n        /* \"#utility.yul\":3822:3854   */\n      slt\n        /* \"#utility.yul\":3819:3938   */\n      iszero\n      tag_192\n      jumpi\n        /* \"#utility.yul\":3857:3936   */\n      tag_193\n      tag_107\n      jump\t// in\n    tag_193:\n        /* \"#utility.yul\":3819:3938   */\n    tag_192:\n        /* \"#utility.yul\":3977:3978   */\n      0x00\n        /* \"#utility.yul\":4002:4055   */\n      tag_194\n        /* \"#utility.yul\":4047:4054   */\n      dup6\n        /* \"#utility.yul\":4038:4044   */\n      dup3\n        /* \"#utility.yul\":4027:4036   */\n      dup7\n        /* \"#utility.yul\":4023:4045   */\n      add\n        /* \"#utility.yul\":4002:4055   */\n      tag_111\n      jump\t// in\n    tag_194:\n        /* \"#utility.yul\":3992:4055   */\n      swap3\n      pop\n        /* \"#utility.yul\":3948:4065   */\n      pop\n        /* \"#utility.yul\":4132:4134   */\n      0x20\n        /* \"#utility.yul\":4121:4130   */\n      dup4\n        /* \"#utility.yul\":4117:4135   */\n      add\n        /* \"#utility.yul\":4104:4136   */\n      calldataload\n        /* \"#utility.yul\":4163:4181   */\n      0xffffffffffffffff\n        /* \"#utility.yul\":4155:4161   */\n      dup2\n        /* \"#utility.yul\":4152:4182   */\n      gt\n        /* \"#utility.yul\":4149:4266   */\n      iszero\n      tag_195\n      jumpi\n        /* \"#utility.yul\":4185:4264   */\n      tag_196\n      tag_108\n      jump\t// in\n    tag_196:\n        /* \"#utility.yul\":4149:4266   */\n    tag_195:\n        /* \"#utility.yul\":4290:4353   */\n      tag_197\n        /* \"#utility.yul\":4345:4352   */\n      dup6\n        /* \"#utility.yul\":4336:4342   */\n      dup3\n        /* \"#utility.yul\":4325:4334   */\n      dup7\n        /* \"#utility.yul\":4321:4343   */\n      add\n        /* \"#utility.yul\":4290:4353   */\n      tag_121\n      jump\t// in\n    tag_197:\n        /* \"#utility.yul\":4280:4353   */\n      swap2\n      pop\n        /* \"#utility.yul\":4075:4363   */\n      pop\n        /* \"#utility.yul\":3716:4370   */\n      swap3\n      pop\n      swap3\n      swap1\n      pop\n      jump\t// out\n        /* \"#utility.yul\":4376:4850   */\n    tag_24:\n        /* \"#utility.yul\":4444:4450   */\n      0x00\n        /* \"#utility.yul\":4452:4458   */\n      0x00\n        /* \"#utility.yul\":4501:4503   */\n      0x40\n        /* \"#utility.yul\":4489:4498   */\n      dup4\n        /* \"#utility.yul\":4480:4487   */\n      dup6\n        /* \"#utility.yul\":4476:4499   */\n      sub\n        /* \"#utility.yul\":4472:4504   */\n      slt\n        /* \"#utility.yul\":4469:4588   */\n      iszero\n      tag_199\n      jumpi\n        /* \"#utility.yul\":4507:4586   */\n      tag_200\n      tag_107\n      jump\t// in\n    tag_200:\n        /* \"#utility.yul\":4469:4588   */\n    tag_199:\n        /* \"#utility.yul\":4627:4628   */\n      0x00\n        /* \"#utility.yul\":4652:4705   */\n      tag_201\n        /* \"#utility.yul\":4697:4704   */\n      dup6\n        /* \"#utility.yul\":4688:4694   */\n      dup3\n        /* \"#utility.yul\":4677:4686   */\n      dup7\n        /* \"#utility.yul\":4673:4695   */\n      add\n        /* \"#utility.yul\":4652:4705   */\n      tag_111\n      jump\t// in\n    tag_201:\n        /* \"#utility.yul\":4642:4705   */\n      swap3\n      pop\n        /* \"#utility.yul\":4598:4715   */\n      pop\n        /* \"#utility.yul\":4754:4756   */\n      0x20\n        /* \"#utility.yul\":4780:4833   */\n      tag_202\n        /* \"#utility.yul\":4825:4832   */\n      dup6\n        /* \"#utility.yul\":4816:4822   */\n      dup3\n        /* \"#utility.yul\":4805:4814   */\n      dup7\n        /* \"#utility.yul\":4801:4823   */\n      add\n        /* \"#utility.yul\":4780:4833   */\n      tag_111\n      jump\t// in\n    tag_202:\n        /* \"#utility.yul\":4770:4833   */\n      swap2\n      pop\n        /* \"#utility.yul\":4725:4843   */\n      pop\n        /* \"#utility.yul\":4376:4850   */\n      swap3\n      pop\n      swap3\n      swap1\n      pop\n      jump\t// out\n        /* \"#utility.yul\":4856:5185   */\n    tag_28:\n        /* \"#utility.yul\":4915:4921   */\n      0x00\n        /* \"#utility.yul\":4964:4966   */\n      0x20\n        /* \"#utility.yul\":4952:4961   */\n      dup3\n        /* \"#utility.yul\":4943:4950   */\n      dup5\n        /* \"#utility.yul\":4939:4962   */\n      sub\n        /* \"#utility.yul\":4935:4967   */\n      slt\n        /* \"#utility.yul\":4932:5051   */\n      iszero\n      tag_204\n      jumpi\n        /* \"#utility.yul\":4970:5049   */\n      tag_205\n      tag_107\n      jump\t// in\n    tag_205:\n        /* \"#utility.yul\":4932:5051   */\n    tag_204:\n        /* \"#utility.yul\":5090:5091   */\n      0x00\n        /* \"#utility.yul\":5115:5168   */\n      tag_206\n        /* \"#utility.yul\":5160:5167   */\n      dup5\n        /* \"#utility.yul\":5151:5157   */\n      dup3\n        /* \"#utility.yul\":5140:5149   */\n      dup6\n        /* \"#utility.yul\":5136:5158   */\n      add\n        /* \"#utility.yul\":5115:5168   */\n      tag_111\n      jump\t// in\n    tag_206:\n        /* \"#utility.yul\":5105:5168   */\n      swap2\n      pop\n        /* \"#utility.yul\":5061:5178   */\n      pop\n        /* \"#utility.yul\":4856:5185   */\n      swap3\n      swap2\n      pop\n      pop\n      jump\t// out\n        /* \"#utility.yul\":5191:5281   */\n    tag_122:\n        /* \"#utility.yul\":5225:5232   */\n      0x00\n        /* \"#utility.yul\":5268:5273   */\n      dup2\n        /* \"#utility.yul\":5261:5274   */\n      iszero\n        /* \"#utility.yul\":5254:5275   */\n      iszero\n        /* \"#utility.yul\":5243:5275   */\n      swap1\n      pop\n        /* \"#utility.yul\":5191:5281   */\n      swap2\n      swap1\n      pop\n      jump\t// out\n        /* \"#utility.yul\":5287:5396   */\n    tag_123:\n        /* \"#utility.yul\":5368:5389   */\n      tag_209\n        /* \"#utility.yul\":5383:5388   */\n      dup2\n        /* \"#utility.yul\":5368:5389   */\n      tag_122\n      jump\t// in\n    tag_209:\n        /* \"#utility.yul\":5363:5366   */\n      dup3\n        /* \"#utility.yul\":5356:5390   */\n      mstore\n        /* \"#utility.yul\":5287:5396   */\n      pop\n      pop\n      jump\t// out\n        /* \"#utility.yul\":5402:5612   */\n    tag_31:\n        /* \"#utility.yul\":5489:5493   */\n      0x00\n        /* \"#utility.yul\":5527:5529   */\n      0x20\n        /* \"#utility.yul\":5516:5525   */\n      dup3\n        /* \"#utility.yul\":5512:5530   */\n      add\n        /* \"#utility.yul\":5504:5530   */\n      swap1\n      pop\n        /* \"#utility.yul\":5540:5605   */\n      tag_211\n        /* \"#utility.yul\":5602:5603   */\n      0x00\n        /* \"#utility.yul\":5591:5600   */\n      dup4\n        /* \"#utility.yul\":5587:5604   */\n      add\n        /* \"#utility.yul\":5578:5584   */\n      dup5\n        /* \"#utility.yul\":5540:5605   */\n      tag_123\n      jump\t// in\n    tag_211:\n        /* \"#utility.yul\":5402:5612   */\n      swap3\n      swap2\n      pop\n      pop\n      jump\t// out\n        /* \"#utility.yul\":5618:5736   */\n    tag_124:\n        /* \"#utility.yul\":5705:5729   */\n      tag_213\n        /* \"#utility.yul\":5723:5728   */\n      dup2\n        /* \"#utility.yul\":5705:5729   */\n      tag_109\n      jump\t// in\n    tag_213:\n        /* \"#utility.yul\":5700:5703   */\n      dup3\n        /* \"#utility.yul\":5693:5730   */\n      mstore\n        /* \"#utility.yul\":5618:5736   */\n      pop\n      pop\n      jump\t// out\n        /* \"#utility.yul\":5742:5841   */\n    tag_125:\n        /* \"#utility.yul\":5794:5800   */\n      0x00\n        /* \"#utility.yul\":5828:5833   */\n      dup2\n        /* \"#utility.yul\":5822:5834   */\n      mload\n        /* \"#utility.yul\":5812:5834   */\n      swap1\n      pop\n        /* \"#utility.yul\":5742:5841   */\n      swap2\n      swap1\n      pop\n      jump\t// out\n        /* \"#utility.yul\":5847:6016   */\n    tag_126:\n        /* \"#utility.yul\":5931:5942   */\n      0x00\n        /* \"#utility.yul\":5965:5971   */\n      dup3\n        /* \"#utility.yul\":5960:5963   */\n      dup3\n        /* \"#utility.yul\":5953:5972   */\n      mstore\n        /* \"#utility.yul\":6005:6009   */\n      0x20\n        /* \"#utility.yul\":6000:6003   */\n      dup3\n        /* \"#utility.yul\":5996:6010   */\n      add\n        /* \"#utility.yul\":5981:6010   */\n      swap1\n      pop\n        /* \"#utility.yul\":5847:6016   */\n      swap3\n      swap2\n      pop\n      pop\n      jump\t// out\n        /* \"#utility.yul\":6022:6161   */\n    tag_127:\n        /* \"#utility.yul\":6111:6117   */\n      dup3\n        /* \"#utility.yul\":6106:6109   */\n      dup2\n        /* \"#utility.yul\":6101:6104   */\n      dup4\n        /* \"#utility.yul\":6095:6118   */\n      mcopy\n        /* \"#utility.yul\":6152:6153   */\n      0x00\n        /* \"#utility.yul\":6143:6149   */\n      dup4\n        /* \"#utility.yul\":6138:6141   */\n      dup4\n        /* \"#utility.yul\":6134:6150   */\n      add\n        /* \"#utility.yul\":6127:6154   */\n      mstore\n        /* \"#utility.yul\":6022:6161   */\n      pop\n      pop\n      pop\n      jump\t// out\n        /* \"#utility.yul\":6167:6544   */\n    tag_128:\n        /* \"#utility.yul\":6255:6258   */\n      0x00\n        /* \"#utility.yul\":6283:6322   */\n      tag_218\n        /* \"#utility.yul\":6316:6321   */\n      dup3\n        /* \"#utility.yul\":6283:6322   */\n      tag_125\n      jump\t// in\n    tag_218:\n        /* \"#utility.yul\":6338:6409   */\n      tag_219\n        /* \"#utility.yul\":6402:6408   */\n      dup2\n        /* \"#utility.yul\":6397:6400   */\n      dup6\n        /* \"#utility.yul\":6338:6409   */\n      tag_126\n      jump\t// in\n    tag_219:\n        /* \"#utility.yul\":6331:6409   */\n      swap4\n      pop\n        /* \"#utility.yul\":6418:6483   */\n      tag_220\n        /* \"#utility.yul\":6476:6482   */\n      dup2\n        /* \"#utility.yul\":6471:6474   */\n      dup6\n        /* \"#utility.yul\":6464:6468   */\n      0x20\n        /* \"#utility.yul\":6457:6462   */\n      dup7\n        /* \"#utility.yul\":6453:6469   */\n      add\n        /* \"#utility.yul\":6418:6483   */\n      tag_127\n      jump\t// in\n    tag_220:\n        /* \"#utility.yul\":6508:6537   */\n      tag_221\n        /* \"#utility.yul\":6530:6536   */\n      dup2\n        /* \"#utility.yul\":6508:6537   */\n      tag_114\n      jump\t// in\n    tag_221:\n        /* \"#utility.yul\":6503:6506   */\n      dup5\n        /* \"#utility.yul\":6499:6538   */\n      add\n        /* \"#utility.yul\":6492:6538   */\n      swap2\n      pop\n        /* \"#utility.yul\":6259:6544   */\n      pop\n        /* \"#utility.yul\":6167:6544   */\n      swap3\n      swap2\n      pop\n      pop\n      jump\t// out\n        /* \"#utility.yul\":6550:6973   */\n    tag_36:\n        /* \"#utility.yul\":6691:6695   */\n      0x00\n        /* \"#utility.yul\":6729:6731   */\n      0x40\n        /* \"#utility.yul\":6718:6727   */\n      dup3\n        /* \"#utility.yul\":6714:6732   */\n      add\n        /* \"#utility.yul\":6706:6732   */\n      swap1\n      pop\n        /* \"#utility.yul\":6742:6813   */\n      tag_223\n        /* \"#utility.yul\":6810:6811   */\n      0x00\n        /* \"#utility.yul\":6799:6808   */\n      dup4\n        /* \"#utility.yul\":6795:6812   */\n      add\n        /* \"#utility.yul\":6786:6792   */\n      dup6\n        /* \"#utility.yul\":6742:6813   */\n      tag_124\n      jump\t// in\n    tag_223:\n        /* \"#utility.yul\":6860:6869   */\n      dup2\n        /* \"#utility.yul\":6854:6858   */\n      dup2\n        /* \"#utility.yul\":6850:6870   */\n      sub\n        /* \"#utility.yul\":6845:6847   */\n      0x20\n        /* \"#utility.yul\":6834:6843   */\n      dup4\n        /* \"#utility.yul\":6830:6848   */\n      add\n        /* \"#utility.yul\":6823:6871   */\n      mstore\n        /* \"#utility.yul\":6888:6966   */\n      tag_224\n        /* \"#utility.yul\":6961:6965   */\n      dup2\n        /* \"#utility.yul\":6952:6958   */\n      dup5\n        /* \"#utility.yul\":6888:6966   */\n      tag_128\n      jump\t// in\n    tag_224:\n        /* \"#utility.yul\":6880:6966   */\n      swap1\n      pop\n        /* \"#utility.yul\":6550:6973   */\n      swap4\n      swap3\n      pop\n      pop\n      pop\n      jump\t// out\n        /* \"#utility.yul\":6979:7292   */\n    tag_41:\n        /* \"#utility.yul\":7092:7096   */\n      0x00\n        /* \"#utility.yul\":7130:7132   */\n      0x20\n        /* \"#utility.yul\":7119:7128   */\n      dup3\n        /* \"#utility.yul\":7115:7133   */\n      add\n        /* \"#utility.yul\":7107:7133   */\n      swap1\n      pop\n        /* \"#utility.yul\":7179:7188   */\n      dup2\n        /* \"#utility.yul\":7173:7177   */\n      dup2\n        /* \"#utility.yul\":7169:7189   */\n      sub\n        /* \"#utility.yul\":7165:7166   */\n      0x00\n        /* \"#utility.yul\":7154:7163   */\n      dup4\n        /* \"#utility.yul\":7150:7167   */\n      add\n        /* \"#utility.yul\":7143:7190   */\n      mstore\n        /* \"#utility.yul\":7207:7285   */\n      tag_226\n        /* \"#utility.yul\":7280:7284   */\n      dup2\n        /* \"#utility.yul\":7271:7277   */\n      dup5\n        /* \"#utility.yul\":7207:7285   */\n      tag_128\n      jump\t// in\n    tag_226:\n        /* \"#utility.yul\":7199:7285   */\n      swap1\n      pop\n        /* \"#utility.yul\":6979:7292   */\n      swap3\n      swap2\n      pop\n      pop\n      jump\t// out\n        /* \"#utility.yul\":7298:7478   */\n    tag_129:\n        /* \"#utility.yul\":7346:7423   */\n      0x4e487b7100000000000000000000000000000000000000000000000000000000\n        /* \"#utility.yul\":7343:7344   */\n      0x00\n        /* \"#utility.yul\":7336:7424   */\n      mstore\n        /* \"#utility.yul\":7443:7447   */\n      0x22\n        /* \"#utility.yul\":7440:7441   */\n      0x04\n        /* \"#utility.yul\":7433:7448   */\n      mstore\n        /* \"#utility.yul\":7467:7471   */\n      0x24\n        /* \"#utility.yul\":7464:7465   */\n      0x00\n        /* \"#utility.yul\":7457:7472   */\n      revert\n        /* \"#utility.yul\":7484:7804   */\n    tag_61:\n        /* \"#utility.yul\":7528:7534   */\n      0x00\n        /* \"#utility.yul\":7565:7566   */\n      0x02\n        /* \"#utility.yul\":7559:7563   */\n      dup3\n        /* \"#utility.yul\":7555:7567   */\n      div\n        /* \"#utility.yul\":7545:7567   */\n      swap1\n      pop\n        /* \"#utility.yul\":7612:7613   */\n      0x01\n        /* \"#utility.yul\":7606:7610   */\n      dup3\n        /* \"#utility.yul\":7602:7614   */\n      and\n        /* \"#utility.yul\":7633:7651   */\n      dup1\n        /* \"#utility.yul\":7623:7704   */\n      tag_229\n      jumpi\n        /* \"#utility.yul\":7689:7693   */\n      0x7f\n        /* \"#utility.yul\":7681:7687   */\n      dup3\n        /* \"#utility.yul\":7677:7694   */\n      and\n        /* \"#utility.yul\":7667:7694   */\n      swap2\n      pop\n        /* \"#utility.yul\":7623:7704   */\n    tag_229:\n        /* \"#utility.yul\":7751:7753   */\n      0x20\n        /* \"#utility.yul\":7743:7749   */\n      dup3\n        /* \"#utility.yul\":7740:7754   */\n      lt\n        /* \"#utility.yul\":7720:7738   */\n      dup2\n        /* \"#utility.yul\":7717:7755   */\n      sub\n        /* \"#utility.yul\":7714:7798   */\n      tag_230\n      jumpi\n        /* \"#utility.yul\":7770:7788   */\n      tag_231\n      tag_129\n      jump\t// in\n    tag_231:\n        /* \"#utility.yul\":7714:7798   */\n    tag_230:\n        /* \"#utility.yul\":7535:7804   */\n      pop\n        /* \"#utility.yul\":7484:7804   */\n      swap2\n      swap1\n      pop\n      jump\t// out\n        /* \"#utility.yul\":7810:7951   */\n    tag_130:\n        /* \"#utility.yul\":7859:7863   */\n      0x00\n        /* \"#utility.yul\":7882:7885   */\n      dup2\n        /* \"#utility.yul\":7874:7885   */\n      swap1\n      pop\n        /* \"#utility.yul\":7905:7908   */\n      dup2\n        /* \"#utility.yul\":7902:7903   */\n      0x00\n        /* \"#utility.yul\":7895:7909   */\n      mstore\n        /* \"#utility.yul\":7939:7943   */\n      0x20\n        /* \"#utility.yul\":7936:7937   */\n      0x00\n        /* \"#utility.yul\":7926:7944   */\n      keccak256\n        /* \"#utility.yul\":7918:7944   */\n      swap1\n      pop\n        /* \"#utility.yul\":7810:7951   */\n      swap2\n      swap1\n      pop\n      jump\t// out\n        /* \"#utility.yul\":7957:8050   */\n    tag_131:\n        /* \"#utility.yul\":7994:8000   */\n      0x00\n        /* \"#utility.yul\":8041:8043   */\n      0x20\n        /* \"#utility.yul\":8036:8038   */\n      0x1f\n        /* \"#utility.yul\":8029:8034   */\n      dup4\n        /* \"#utility.yul\":8025:8039   */\n      add\n        /* \"#utility.yul\":8021:8044   */\n      div\n        /* \"#utility.yul\":8011:8044   */\n      swap1\n      pop\n        /* \"#utility.yul\":7957:8050   */\n      swap2\n      swap1\n      pop\n      jump\t// out\n        /* \"#utility.yul\":8056:8163   */\n    tag_132:\n        /* \"#utility.yul\":8100:8108   */\n      0x00\n        /* \"#utility.yul\":8150:8155   */\n      dup3\n        /* \"#utility.yul\":8144:8148   */\n      dup3\n        /* \"#utility.yul\":8140:8156   */\n      shl\n        /* \"#utility.yul\":8119:8156   */\n      swap1\n      pop\n        /* \"#utility.yul\":8056:8163   */\n      swap3\n      swap2\n      pop\n      pop\n      jump\t// out\n        /* \"#utility.yul\":8169:8562   */\n    tag_133:\n        /* \"#utility.yul\":8238:8244   */\n      0x00\n        /* \"#utility.yul\":8288:8289   */\n      0x08\n        /* \"#utility.yul\":8276:8286   */\n      dup4\n        /* \"#utility.yul\":8272:8290   */\n      mul\n        /* \"#utility.yul\":8311:8408   */\n      tag_236\n        /* \"#utility.yul\":8341:8407   */\n      0xffffffffffffffffffffffffffffffffffffffffffffffffffffffffffffffff\n        /* \"#utility.yul\":8330:8339   */\n      dup3\n        /* \"#utility.yul\":8311:8408   */\n      tag_132\n      jump\t// in\n    tag_236:\n        /* \"#utility.yul\":8429:8468   */\n      tag_237\n        /* \"#utility.yul\":8459:8467   */\n      dup7\n        /* \"#utility.yul\":8448:8457   */\n      dup4\n        /* \"#utility.yul\":8429:8468   */\n      tag_132\n      jump\t// in\n    tag_237:\n        /* \"#utility.yul\":8417:8468   */\n      swap6\n      pop\n        /* \"#utility.yul\":8501:8505   */\n      dup1\n        /* \"#utility.yul\":8497:8506   */\n      not\n        /* \"#utility.yul\":8490:8495   */\n      dup5\n        /* \"#utility.yul\":8486:8507   */\n      and\n        /* \"#utility.yul\":8477:8507   */\n      swap4\n      pop\n        /* \"#utility.yul\":8550:8554   */\n      dup1\n        /* \"#utility.yul\":8540:8548   */\n      dup7\n        /* \"#utility.yul\":8536:8555   */\n      and\n        /* \"#utility.yul\":8529:8534   */\n      dup5\n        /* \"#utility.yul\":8526:8556   */\n      or\n        /* \"#utility.yul\":8516:8556   */\n      swap3\n      pop\n        /* \"#utility.yul\":8245:8562   */\n      pop\n      pop\n        /* \"#utility.yul\":8169:8562   */\n      swap4\n      swap3\n      pop\n      pop\n      pop\n      jump\t// out\n        /* \"#utility.yul\":8568:8628   */\n    tag_134:\n        /* \"#utility.yul\":8596:8599   */\n      0x00\n        /* \"#utility.yul\":8617:8622   */\n      dup2\n        /* \"#utility.yul\":8610:8622   */\n      swap1\n      pop\n        /* \"#utility.yul\":8568:8628   */\n      swap2\n      swap1\n      pop\n      jump\t// out\n        /* \"#utility.yul\":8634:8776   */\n    tag_135:\n        /* \"#utility.yul\":8684:8693   */\n      0x00\n        /* \"#utility.yul\":8717:8770   */\n      tag_240\n        /* \"#utility.yul\":8735:8769   */\n      tag_241\n        /* \"#utility.yul\":8744:8768   */\n      tag_242\n        /* \"#utility.yul\":8762:8767   */\n      dup5\n        /* \"#utility.yul\":8744:8768   */\n      tag_109\n      jump\t// in\n    tag_242:\n        /* \"#utility.yul\":8735:8769   */\n      tag_134\n      jump\t// in\n    tag_241:\n        /* \"#utility.yul\":8717:8770   */\n      tag_109\n      jump\t// in\n    tag_240:\n        /* \"#utility.yul\":8704:8770   */\n      swap1\n      pop\n        /* \"#utility.yul\":8634:8776   */\n      swap2\n      swap1\n      pop\n      jump\t// out\n        /* \"#utility.yul\":8782:8857   */\n    tag_136:\n        /* \"#utility.yul\":8825:8828   */\n      0x00\n        /* \"#utility.yul\":8846:8851   */\n      dup2\n        /* \"#utility.yul\":8839:8851   */\n      swap1\n      pop\n        /* \"#utility.yul\":8782:8857   */\n      swap2\n      swap1\n      pop\n      jump\t// out\n        /* \"#utility.yul\":8863:9132   */\n    tag_137:\n        /* \"#utility.yul\":8973:9012   */\n      tag_245\n        /* \"#utility.yul\":9004:9011   */\n      dup4\n        /* \"#utility.yul\":8973:9012   */\n      tag_135\n      jump\t// in\n    tag_245:\n        /* \"#utility.yul\":9034:9125   */\n      tag_246\n        /* \"#utility.yul\":9083:9124   */\n      tag_247\n        /* \"#utility.yul\":9107:9123   */\n      dup3\n        /* \"#utility.yul\":9083:9124   */\n      tag_136\n      jump\t// in\n    tag_247:\n        /* \"#utility.yul\":9075:9081   */\n      dup5\n        /* \"#utility.yul\":9068:9072   */\n      dup5\n        /* \"#utility.yul\":9062:9073   */\n      sload\n        /* \"#utility.yul\":9034:9125   */\n      tag_133\n      jump\t// in\n    tag_246:\n        /* \"#utility.yul\":9028:9032   */\n      dup3\n        /* \"#utility.yul\":9021:9126   */\n      sstore\n        /* \"#utility.yul\":8939:9132   */\n      pop\n        /* \"#utility.yul\":8863:9132   */\n      pop\n      pop\n      pop\n      jump\t// out\n        /* \"#utility.yul\":9138:9211   */\n    tag_138:\n        /* \"#utility.yul\":9183:9186   */\n      0x00\n        /* \"#utility.yul\":9204:9205   */\n      0x00\n        /* \"#utility.yul\":9197:9205   */\n      swap1\n      pop\n        /* \"#utility.yul\":9138:9211   */\n      swap1\n      jump\t// out\n        /* \"#utility.yul\":9217:9406   */\n    tag_139:\n        /* \"#utility.yul\":9294:9326   */\n      tag_250\n      tag_138\n      jump\t// in\n    tag_250:\n        /* \"#utility.yul\":9335:9400   */\n      tag_251\n        /* \"#utility.yul\":9393:9399   */\n      dup2\n        /* \"#utility.yul\":9385:9391   */\n      dup5\n        /* \"#utility.yul\":9379:9383   */\n      dup5\n        /* \"#utility.yul\":9335:9400   */\n      tag_137\n      jump\t// in\n    tag_251:\n        /* \"#utility.yul\":9270:9406   */\n      pop\n        /* \"#utility.yul\":9217:9406   */\n      pop\n      pop\n      jump\t// out\n        /* \"#utility.yul\":9412:9598   */\n    tag_140:\n        /* \"#utility.yul\":9472:9592   */\n    tag_253:\n        /* \"#utility.yul\":9489:9492   */\n      dup2\n        /* \"#utility.yul\":9482:9487   */\n      dup2\n        /* \"#utility.yul\":9479:9493   */\n      lt\n        /* \"#utility.yul\":9472:9592   */\n      iszero\n      tag_255\n      jumpi\n        /* \"#utility.yul\":9543:9582   */\n      tag_256\n        /* \"#utility.yul\":9580:9581   */\n      0x00\n        /* \"#utility.yul\":9573:9578   */\n      dup3\n        /* \"#utility.yul\":9543:9582   */\n      tag_139\n      jump\t// in\n    tag_256:\n        /* \"#utility.yul\":9516:9517   */\n      0x01\n        /* \"#utility.yul\":9509:9514   */\n      dup2\n        /* \"#utility.yul\":9505:9518   */\n      add\n        /* \"#utility.yul\":9496:9518   */\n      swap1\n      pop\n        /* \"#utility.yul\":9472:9592   */\n      jump(tag_253)\n    tag_255:\n        /* \"#utility.yul\":9412:9598   */\n      pop\n      pop\n      jump\t// out\n        /* \"#utility.yul\":9604:10147   */\n    tag_141:\n        /* \"#utility.yul\":9705:9707   */\n      0x1f\n        /* \"#utility.yul\":9700:9703   */\n      dup3\n        /* \"#utility.yul\":9697:9708   */\n      gt\n        /* \"#utility.yul\":9694:10140   */\n      iszero\n      tag_258\n      jumpi\n        /* \"#utility.yul\":9739:9777   */\n      tag_259\n        /* \"#utility.yul\":9771:9776   */\n      dup2\n        /* \"#utility.yul\":9739:9777   */\n      tag_130\n      jump\t// in\n    tag_259:\n        /* \"#utility.yul\":9823:9852   */\n      tag_260\n        /* \"#utility.yul\":9841:9851   */\n      dup5\n        /* \"#utility.yul\":9823:9852   */\n      tag_131\n      jump\t// in\n    tag_260:\n        /* \"#utility.yul\":9813:9821   */\n      dup2\n        /* \"#utility.yul\":9809:9853   */\n      add\n        /* \"#utility.yul\":10006:10008   */\n      0x20\n        /* \"#utility.yul\":9994:10004   */\n      dup6\n        /* \"#utility.yul\":9991:10009   */\n      lt\n        /* \"#utility.yul\":9988:10037   */\n      iszero\n      tag_261\n      jumpi\n        /* \"#utility.yul\":10027:10035   */\n      dup2\n        /* \"#utility.yul\":10012:10035   */\n      swap1\n      pop\n        /* \"#utility.yul\":9988:10037   */\n    tag_261:\n        /* \"#utility.yul\":10050:10130   */\n      tag_262\n        /* \"#utility.yul\":10106:10128   */\n      tag_263\n        /* \"#utility.yul\":10124:10127   */\n      dup6\n        /* \"#utility.yul\":10106:10128   */\n      tag_131\n      jump\t// in\n    tag_263:\n        /* \"#utility.yul\":10096:10104   */\n      dup4\n        /* \"#utility.yul\":10092:10129   */\n      add\n        /* \"#utility.yul\":10079:10090   */\n      dup3\n        /* \"#utility.yul\":10050:10130   */\n      tag_140\n      jump\t// in\n    tag_262:\n        /* \"#utility.yul\":9709:10140   */\n      pop\n      pop\n        /* \"#utility.yul\":9694:10140   */\n    tag_258:\n        /* \"#utility.yul\":9604:10147   */\n      pop\n      pop\n      pop\n      jump\t// out\n        /* \"#utility.yul\":10153:10270   */\n    tag_142:\n        /* \"#utility.yul\":10207:10215   */\n      0x00\n        /* \"#utility.yul\":10257:10262   */\n      dup3\n        /* \"#utility.yul\":10251:10255   */\n      dup3\n        /* \"#utility.yul\":10247:10263   */\n      shr\n        /* \"#utility.yul\":10226:10263   */\n      swap1\n      pop\n        /* \"#utility.yul\":10153:10270   */\n      swap3\n      swap2\n      pop\n      pop\n      jump\t// out\n        /* \"#utility.yul\":10276:10445   */\n    tag_143:\n        /* \"#utility.yul\":10320:10326   */\n      0x00\n        /* \"#utility.yul\":10353:10404   */\n      tag_266\n        /* \"#utility.yul\":10401:10402   */\n      0x00\n        /* \"#utility.yul\":10397:10403   */\n      not\n        /* \"#utility.yul\":10389:10394   */\n      dup5\n        /* \"#utility.yul\":10386:10387   */\n      0x08\n        /* \"#utility.yul\":10382:10395   */\n      mul\n        /* \"#utility.yul\":10353:10404   */\n      tag_142\n      jump\t// in\n    tag_266:\n        /* \"#utility.yul\":10349:10405   */\n      not\n        /* \"#utility.yul\":10434:10438   */\n      dup1\n        /* \"#utility.yul\":10428:10432   */\n      dup4\n        /* \"#utility.yul\":10424:10439   */\n      and\n        /* \"#utility.yul\":10414:10439   */\n      swap2\n      pop\n        /* \"#utility.yul\":10327:10445   */\n      pop\n        /* \"#utility.yul\":10276:10445   */\n      swap3\n      swap2\n      pop\n      pop\n      jump\t// out\n        /* \"#utility.yul\":10450:10745   */\n    tag_144:\n        /* \"#utility.yul\":10526:10530   */\n      0x00\n        /* \"#utility.yul\":10672:10701   */\n      tag_268\n        /* \"#utility.yul\":10697:10700   */\n      dup4\n        /* \"#utility.yul\":10691:10695   */\n      dup4\n        /* \"#utility.yul\":10672:10701   */\n      tag_143\n      jump\t// in\n    tag_268:\n        /* \"#utility.yul\":10664:10701   */\n      swap2\n      pop\n        /* \"#utility.yul\":10734:10737   */\n      dup3\n        /* \"#utility.yul\":10731:10732   */\n      0x02\n        /* \"#utility.yul\":10727:10738   */\n      mul\n        /* \"#utility.yul\":10721:10725   */\n      dup3\n        /* \"#utility.yul\":10718:10739   */\n      or\n        /* \"#utility.yul\":10710:10739   */\n      swap1\n      pop\n        /* \"#utility.yul\":10450:10745   */\n      swap3\n      swap2\n      pop\n      pop\n      jump\t// out\n        /* \"#utility.yul\":10750:12145   */\n    tag_58:\n        /* \"#utility.yul\":10867:10904   */\n      tag_270\n        /* \"#utility.yul\":10900:10903   */\n      dup3\n        /* \"#utility.yul\":10867:10904   */\n      tag_125\n      jump\t// in\n    tag_270:\n        /* \"#utility.yul\":10969:10987   */\n      0xffffffffffffffff\n        /* \"#utility.yul\":10961:10967   */\n      dup2\n        /* \"#utility.yul\":10958:10988   */\n      gt\n        /* \"#utility.yul\":10955:11011   */\n      iszero\n      tag_271\n      jumpi\n        /* \"#utility.yul\":10991:11009   */\n      tag_272\n      tag_115\n      jump\t// in\n    tag_272:\n        /* \"#utility.yul\":10955:11011   */\n    tag_271:\n        /* \"#utility.yul\":11035:11073   */\n      tag_273\n        /* \"#utility.yul\":11067:11071   */\n      dup3\n        /* \"#utility.yul\":11061:11072   */\n      sload\n        /* \"#utility.yul\":11035:11073   */\n      tag_61\n      jump\t// in\n    tag_273:\n        /* \"#utility.yul\":11120:11187   */\n      tag_274\n        /* \"#utility.yul\":11180:11186   */\n      dup3\n        /* \"#utility.yul\":11172:11178   */\n      dup3\n        /* \"#utility.yul\":11166:11170   */\n      dup6\n        /* \"#utility.yul\":11120:11187   */\n      tag_141\n      jump\t// in\n    tag_274:\n        /* \"#utility.yul\":11214:11215   */\n      0x00\n        /* \"#utility.yul\":11238:11242   */\n      0x20\n        /* \"#utility.yul\":11225:11242   */\n      swap1\n      pop\n        /* \"#utility.yul\":11270:11272   */\n      0x1f\n        /* \"#utility.yul\":11262:11268   */\n      dup4\n        /* \"#utility.yul\":11259:11273   */\n      gt\n        /* \"#utility.yul\":11287:11288   */\n      0x01\n        /* \"#utility.yul\":11282:11900   */\n      dup2\n      eq\n      tag_276\n      jumpi\n        /* \"#utility.yul\":11944:11945   */\n      0x00\n        /* \"#utility.yul\":11961:11967   */\n      dup5\n        /* \"#utility.yul\":11958:12035   */\n      iszero\n      tag_277\n      jumpi\n        /* \"#utility.yul\":12010:12019   */\n      dup3\n        /* \"#utility.yul\":12005:12008   */\n      dup8\n        /* \"#utility.yul\":12001:12020   */\n      add\n        /* \"#utility.yul\":11995:12021   */\n      mload\n        /* \"#utility.yul\":11986:12021   */\n      swap1\n      pop\n        /* \"#utility.yul\":11958:12035   */\n    tag_277:\n        /* \"#utility.yul\":12061:12128   */\n      tag_278\n        /* \"#utility.yul\":12121:12127   */\n      dup6\n        /* \"#utility.yul\":12114:12119   */\n      dup3\n        /* \"#utility.yul\":12061:12128   */\n      tag_144\n      jump\t// in\n    tag_278:\n        /* \"#utility.yul\":12055:12059   */\n      dup7\n        /* \"#utility.yul\":12048:12129   */\n      sstore\n        /* \"#utility.yul\":11917:12139   */\n      pop\n        /* \"#utility.yul\":11252:12139   */\n      jump(tag_275)\n        /* \"#utility.yul\":11282:11900   */\n    tag_276:\n        /* \"#utility.yul\":11334:11338   */\n      0x1f\n        /* \"#utility.yul\":11330:11339   */\n      not\n        /* \"#utility.yul\":11322:11328   */\n      dup5\n        /* \"#utility.yul\":11318:11340   */\n      and\n        /* \"#utility.yul\":11368:11405   */\n      tag_279\n        /* \"#utility.yul\":11400:11404   */\n      dup7\n        /* \"#utility.yul\":11368:11405   */\n      tag_130\n      jump\t// in\n    tag_279:\n        /* \"#utility.yul\":11427:11428   */\n      0x00\n        /* \"#utility.yul\":11441:11649   */\n    tag_280:\n        /* \"#utility.yul\":11455:11462   */\n      dup3\n        /* \"#utility.yul\":11452:11453   */\n      dup2\n        /* \"#utility.yul\":11449:11463   */\n      lt\n        /* \"#utility.yul\":11441:11649   */\n      iszero\n      tag_282\n      jumpi\n        /* \"#utility.yul\":11534:11543   */\n      dup5\n        /* \"#utility.yul\":11529:11532   */\n      dup10\n        /* \"#utility.yul\":11525:11544   */\n      add\n        /* \"#utility.yul\":11519:11545   */\n      mload\n        /* \"#utility.yul\":11511:11517   */\n      dup3\n        /* \"#utility.yul\":11504:11546   */\n      sstore\n        /* \"#utility.yul\":11585:11586   */\n      0x01\n        /* \"#utility.yul\":11577:11583   */\n      dup3\n        /* \"#utility.yul\":11573:11587   */\n      add\n        /* \"#utility.yul\":11563:11587   */\n      swap2\n      pop\n        /* \"#utility.yul\":11632:11634   */\n      0x20\n        /* \"#utility.yul\":11621:11630   */\n      dup6\n        /* \"#utility.yul\":11617:11635   */\n      add\n        /* \"#utility.yul\":11604:11635   */\n      swap5\n      pop\n        /* \"#utility.yul\":11478:11482   */\n      0x20\n        /* \"#utility.yul\":11475:11476   */\n      dup2\n        /* \"#utility.yul\":11471:11483   */\n      add\n        /* \"#utility.yul\":11466:11483   */\n      swap1\n      pop\n        /* \"#utility.yul\":11441:11649   */\n      jump(tag_280)\n    tag_282:\n        /* \"#utility.yul\":11677:11683   */\n      dup7\n        /* \"#utility.yul\":11668:11675   */\n      dup4\n        /* \"#utility.yul\":11665:11684   */\n      lt\n        /* \"#utility.yul\":11662:11841   */\n      iszero\n      tag_283\n      jumpi\n        /* \"#utility.yul\":11735:11744   */\n      dup5\n        /* \"#utility.yul\":11730:11733   */\n      dup10\n        /* \"#utility.yul\":11726:11745   */\n      add\n        /* \"#utility.yul\":11720:11746   */\n      mload\n        /* \"#utility.yul\":11778:11826   */\n      tag_284\n        /* \"#utility.yul\":11820:11824   */\n      0x1f\n        /* \"#utility.yul\":11812:11818   */\n      dup10\n        /* \"#utility.yul\":11808:11825   */\n      and\n        /* \"#utility.yul\":11797:11806   */\n      dup3\n        /* \"#utility.yul\":11778:11826   */\n      tag_143\n      jump\t// in\n    tag_284:\n        /* \"#utility.yul\":11770:11776   */\n      dup4\n        /* \"#utility.yul\":11763:11827   */\n      sstore\n        /* \"#utility.yul\":11685:11841   */\n      pop\n        /* \"#utility.yul\":11662:11841   */\n    tag_283:\n        /* \"#utility.yul\":11887:11888   */\n      0x01\n        /* \"#utility.yul\":11883:11884   */\n      0x02\n        /* \"#utility.yul\":11875:11881   */\n      dup9\n        /* \"#utility.yul\":11871:11885   */\n      mul\n        /* \"#utility.yul\":11867:11889   */\n      add\n        /* \"#utility.yul\":11861:11865   */\n      dup9\n        /* \"#utility.yul\":11854:11890   */\n      sstore\n        /* \"#utility.yul\":11289:11900   */\n      pop\n      pop\n      pop\n        /* \"#utility.yul\":11252:12139   */\n    tag_275:\n      pop\n        /* \"#utility.yul\":10842:12145   */\n      pop\n      pop\n      pop\n        /* \"#utility.yul\":10750:12145   */\n      pop\n      pop\n      jump\t// out\n        /* \"#utility.yul\":12151:12323   */\n    tag_145:\n        /* \"#utility.yul\":12291:12315   */\n      0x53747564656e7420646f6573206e6f7420657869737400000000000000000000\n        /* \"#utility.yul\":12287:12288   */\n      0x00\n        /* \"#utility.yul\":12279:12285   */\n      dup3\n        /* \"#utility.yul\":12275:12289   */\n      add\n        /* \"#utility.yul\":12268:12316   */\n      mstore\n        /* \"#utility.yul\":12151:12323   */\n      pop\n      jump\t// out\n        /* \"#utility.yul\":12329:12695   */\n    tag_146:\n        /* \"#utility.yul\":12471:12474   */\n      0x00\n        /* \"#utility.yul\":12492:12559   */\n      tag_287\n        /* \"#utility.yul\":12556:12558   */\n      0x16\n        /* \"#utility.yul\":12551:12554   */\n      dup4\n        /* \"#utility.yul\":12492:12559   */\n      tag_126\n      jump\t// in\n    tag_287:\n        /* \"#utility.yul\":12485:12559   */\n      swap2\n      pop\n        /* \"#utility.yul\":12568:12661   */\n      tag_288\n        /* \"#utility.yul\":12657:12660   */\n      dup3\n        /* \"#utility.yul\":12568:12661   */\n      tag_145\n      jump\t// in\n    tag_288:\n        /* \"#utility.yul\":12686:12688   */\n      0x20\n        /* \"#utility.yul\":12681:12684   */\n      dup3\n        /* \"#utility.yul\":12677:12689   */\n      add\n        /* \"#utility.yul\":12670:12689   */\n      swap1\n      pop\n        /* \"#utility.yul\":12329:12695   */\n      swap2\n      swap1\n      pop\n      jump\t// out\n        /* \"#utility.yul\":12701:13120   */\n    tag_64:\n        /* \"#utility.yul\":12867:12871   */\n      0x00\n        /* \"#utility.yul\":12905:12907   */\n      0x20\n        /* \"#utility.yul\":12894:12903   */\n      dup3\n        /* \"#utility.yul\":12890:12908   */\n      add\n        /* \"#utility.yul\":12882:12908   */\n      swap1\n      pop\n        /* \"#utility.yul\":12954:12963   */\n      dup2\n        /* \"#utility.yul\":12948:12952   */\n      dup2\n        /* \"#utility.yul\":12944:12964   */\n      sub\n        /* \"#utility.yul\":12940:12941   */\n      0x00\n        /* \"#utility.yul\":12929:12938   */\n      dup4\n        /* \"#utility.yul\":12925:12942   */\n      add\n        /* \"#utility.yul\":12918:12965   */\n      mstore\n        /* \"#utility.yul\":12982:13113   */\n      tag_290\n        /* \"#utility.yul\":13108:13112   */\n      dup2\n        /* \"#utility.yul\":12982:13113   */\n      tag_146\n      jump\t// in\n    tag_290:\n        /* \"#utility.yul\":12974:13113   */\n      swap1\n      pop\n        /* \"#utility.yul\":12701:13120   */\n      swap2\n      swap1\n      pop\n      jump\t// out\n\n    auxdata: 0xa26469706673582212208a8acceb74d73c19cfa7b51ea02679983727d2371b600b243338ca0516f6c4a164736f6c634300081e0033\n}\n",
				"bytecode": {
					"linkReferences": {},
					"object": "6080604052348015600e575f5ffd5b50610de68061001c5f395ff3fe608060405234801561000f575f5ffd5b506004361061009c575f3560e01c8063898786ac11610064578063898786ac14610155578063a8d20d6114610185578063bcb131c9146101a1578063e14077cb146101bd578063f0ba8440146101ed5761009c565b80633d301c2a146100a0578063440dba6c146100bc57806379bab0c2146100d857806382d1eac8146100f4578063874e5bb814610124575b5f5ffd5b6100ba60048036038101906100b5919061085d565b61021e565b005b6100d660048036038101906100d191906108c9565b61026a565b005b6100f260048036038101906100ed9190610923565b6102f2565b005b61010e60048036038101906101099190610961565b610370565b60405161011b91906109a6565b60405180910390f35b61013e60048036038101906101399190610961565b610397565b60405161014c929190610a2e565b60405180910390f35b61016f600480360381019061016a9190610961565b610465565b60405161017c9190610a5c565b60405180910390f35b61019f600480360381019061019a9190610961565b6104ff565b005b6101bb60048036038101906101b691906108c9565b61051d565b005b6101d760048036038101906101d29190610961565b61053f565b6040516101e49190610a5c565b60405180910390f35b61020760048036038101906102029190610961565b6105df565b604051610215929190610a2e565b60405180910390f35b60405180604001604052808381526020018281525060015f8581526020019081526020015f205f820151815f015560208201518160010190816102619190610c79565b50905050505050565b5f60015f8481526020019081526020015f20600101805461028a90610aa9565b9050116102cc576040517f08c379a00000000000000000000000000000000000000000000000000000000081526004016102c390610d92565b60405180910390fd5b8060015f8481526020019081526020015f2060010190816102ed9190610c79565b505050565b5f60015f8481526020019081526020015f20600101805461031290610aa9565b905011610354576040517f08c379a000000000000000000000000000000000000000000000000000000000815260040161034b90610d92565b60405180910390fd5b8060015f8481526020019081526020015f205f01819055505050565b5f5f5f5f8481526020019081526020015f20805461038d90610aa9565b9050119050919050565b5f60605f60015f8581526020019081526020015f206040518060400160405290815f82015481526020016001820180546103d090610aa9565b80601f01602080910402602001604051908101604052809291908181526020018280546103fc90610aa9565b80156104475780601f1061041e57610100808354040283529160200191610447565b820191905f5260205f20905b81548152906001019060200180831161042a57829003601f168201915b5050505050815250509050805f015181602001519250925050915091565b5f602052805f5260405f205f91509050805461048090610aa9565b80601f01602080910402602001604051908101604052809291908181526020018280546104ac90610aa9565b80156104f75780601f106104ce576101008083540402835291602001916104f7565b820191905f5260205f20905b8154815290600101906020018083116104da57829003601f168201915b505050505081565b5f5f8281526020019081526020015f205f61051a9190610685565b50565b805f5f8481526020019081526020015f20908161053a9190610c79565b505050565b60605f5f8381526020019081526020015f20805461055c90610aa9565b80601f016020809104026020016040519081016040528092919081815260200182805461058890610aa9565b80156105d35780601f106105aa576101008083540402835291602001916105d3565b820191905f5260205f20905b8154815290600101906020018083116105b657829003601f168201915b50505050509050919050565b6001602052805f5260405f205f91509050805f01549080600101805461060490610aa9565b80601f016020809104026020016040519081016040528092919081815260200182805461063090610aa9565b801561067b5780601f106106525761010080835404028352916020019161067b565b820191905f5260205f20905b81548152906001019060200180831161065e57829003601f168201915b5050505050905082565b50805461069190610aa9565b5f825580601f106106a257506106bf565b601f0160209004905f5260205f20908101906106be91906106c2565b5b50565b5b808211156106d9575f815f9055506001016106c3565b5090565b5f604051905090565b5f5ffd5b5f5ffd5b5f819050919050565b610700816106ee565b811461070a575f5ffd5b50565b5f8135905061071b816106f7565b92915050565b5f5ffd5b5f5ffd5b5f601f19601f8301169050919050565b7f4e487b71000000000000000000000000000000000000000000000000000000005f52604160045260245ffd5b61076f82610729565b810181811067ffffffffffffffff8211171561078e5761078d610739565b5b80604052505050565b5f6107a06106dd565b90506107ac8282610766565b919050565b5f67ffffffffffffffff8211156107cb576107ca610739565b5b6107d482610729565b9050602081019050919050565b828183375f83830152505050565b5f6108016107fc846107b1565b610797565b90508281526020810184848401111561081d5761081c610725565b5b6108288482856107e1565b509392505050565b5f82601f83011261084457610843610721565b5b81356108548482602086016107ef565b91505092915050565b5f5f5f60608486031215610874576108736106e6565b5b5f6108818682870161070d565b93505060206108928682870161070d565b925050604084013567ffffffffffffffff8111156108b3576108b26106ea565b5b6108bf86828701610830565b9150509250925092565b5f5f604083850312156108df576108de6106e6565b5b5f6108ec8582860161070d565b925050602083013567ffffffffffffffff81111561090d5761090c6106ea565b5b61091985828601610830565b9150509250929050565b5f5f60408385031215610939576109386106e6565b5b5f6109468582860161070d565b92505060206109578582860161070d565b9150509250929050565b5f60208284031215610976576109756106e6565b5b5f6109838482850161070d565b91505092915050565b5f8115159050919050565b6109a08161098c565b82525050565b5f6020820190506109b95f830184610997565b92915050565b6109c8816106ee565b82525050565b5f81519050919050565b5f82825260208201905092915050565b8281835e5f83830152505050565b5f610a00826109ce565b610a0a81856109d8565b9350610a1a8185602086016109e8565b610a2381610729565b840191505092915050565b5f604082019050610a415f8301856109bf565b8181036020830152610a5381846109f6565b90509392505050565b5f6020820190508181035f830152610a7481846109f6565b905092915050565b7f4e487b71000000000000000000000000000000000000000000000000000000005f52602260045260245ffd5b5f6002820490506001821680610ac057607f821691505b602082108103610ad357610ad2610a7c565b5b50919050565b5f819050815f5260205f209050919050565b5f6020601f8301049050919050565b5f82821b905092915050565b5f60088302610b357fffffffffffffffffffffffffffffffffffffffffffffffffffffffffffffffff82610afa565b610b3f8683610afa565b95508019841693508086168417925050509392505050565b5f819050919050565b5f610b7a610b75610b70846106ee565b610b57565b6106ee565b9050919050565b5f819050919050565b610b9383610b60565b610ba7610b9f82610b81565b848454610b06565b825550505050565b5f5f905090565b610bbe610baf565b610bc9818484610b8a565b505050565b5b81811015610bec57610be15f82610bb6565b600181019050610bcf565b5050565b601f821115610c3157610c0281610ad9565b610c0b84610aeb565b81016020851015610c1a578190505b610c2e610c2685610aeb565b830182610bce565b50505b505050565b5f82821c905092915050565b5f610c515f1984600802610c36565b1980831691505092915050565b5f610c698383610c42565b9150826002028217905092915050565b610c82826109ce565b67ffffffffffffffff811115610c9b57610c9a610739565b5b610ca58254610aa9565b610cb0828285610bf0565b5f60209050601f831160018114610ce1575f8415610ccf578287015190505b610cd98582610c5e565b865550610d40565b601f198416610cef86610ad9565b5f5b82811015610d1657848901518255600182019150602085019450602081019050610cf1565b86831015610d335784890151610d2f601f891682610c42565b8355505b6001600288020188555050505b505050505050565b7f53747564656e7420646f6573206e6f74206578697374000000000000000000005f82015250565b5f610d7c6016836109d8565b9150610d8782610d48565b602082019050919050565b5f6020820190508181035f830152610da981610d70565b905091905056fea26469706673582212208a8acceb74d73c19cfa7b51ea02679983727d2371b600b243338ca0516f6c4a164736f6c634300081e0033",
					"opcodes": "PUSH1 0x80 PUSH1 0x40 MSTORE CALLVALUE DUP1 ISZERO PUSH1 0xE JUMPI PUSH0 PUSH0 REVERT JUMPDEST POP PUSH2 0xDE6 DUP1 PUSH2 0x1C PUSH0 CODECOPY PUSH0 RETURN INVALID PUSH1 0x80 PUSH1 0x40 MSTORE CALLVALUE DUP1 ISZERO PUSH2 0xF JUMPI PUSH0 PUSH0 REVERT JUMPDEST POP PUSH1 0x4 CALLDATASIZE LT PUSH2 0x9C JUMPI PUSH0 CALLDATALOAD PUSH1 0xE0 SHR DUP1 PUSH4 0x898786AC GT PUSH2 0x64 JUMPI DUP1 PUSH4 0x898786AC EQ PUSH2 0x155 JUMPI DUP1 PUSH4 0xA8D20D61 EQ PUSH2 0x185 JUMPI DUP1 PUSH4 0xBCB131C9 EQ PUSH2 0x1A1 JUMPI DUP1 PUSH4 0xE14077CB EQ PUSH2 0x1BD JUMPI DUP1 PUSH4 0xF0BA8440 EQ PUSH2 0x1ED JUMPI PUSH2 0x9C JUMP JUMPDEST DUP1 PUSH4 0x3D301C2A EQ PUSH2 0xA0 JUMPI DUP1 PUSH4 0x440DBA6C EQ PUSH2 0xBC JUMPI DUP1 PUSH4 0x79BAB0C2 EQ PUSH2 0xD8 JUMPI DUP1 PUSH4 0x82D1EAC8 EQ PUSH2 0xF4 JUMPI DUP1 PUSH4 0x874E5BB8 EQ PUSH2 0x124 JUMPI JUMPDEST PUSH0 PUSH0 REVERT JUMPDEST PUSH2 0xBA PUSH1 0x4 DUP1 CALLDATASIZE SUB DUP2 ADD SWAP1 PUSH2 0xB5 SWAP2 SWAP1 PUSH2 0x85D JUMP JUMPDEST PUSH2 0x21E JUMP JUMPDEST STOP JUMPDEST PUSH2 0xD6 PUSH1 0x4 DUP1 CALLDATASIZE SUB DUP2 ADD SWAP1 PUSH2 0xD1 SWAP2 SWAP1 PUSH2 0x8C9 JUMP JUMPDEST PUSH2 0x26A JUMP JUMPDEST STOP JUMPDEST PUSH2 0xF2 PUSH1 0x4 DUP1 CALLDATASIZE SUB DUP2 ADD SWAP1 PUSH2 0xED SWAP2 SWAP1 PUSH2 0x923 JUMP JUMPDEST PUSH2 0x2F2 JUMP JUMPDEST STOP JUMPDEST PUSH2 0x10E PUSH1 0x4 DUP1 CALLDATASIZE SUB DUP2 ADD SWAP1 PUSH2 0x109 SWAP2 SWAP1 PUSH2 0x961 JUMP JUMPDEST PUSH2 0x370 JUMP JUMPDEST PUSH1 0x40 MLOAD PUSH2 0x11B SWAP2 SWAP1 PUSH2 0x9A6 JUMP JUMPDEST PUSH1 0x40 MLOAD DUP1 SWAP2 SUB SWAP1 RETURN JUMPDEST PUSH2 0x13E PUSH1 0x4 DUP1 CALLDATASIZE SUB DUP2 ADD SWAP1 PUSH2 0x139 SWAP2 SWAP1 PUSH2 0x961 JUMP JUMPDEST PUSH2 0x397 JUMP JUMPDEST PUSH1 0x40 MLOAD PUSH2 0x14C SWAP3 SWAP2 SWAP1 PUSH2 0xA2E JUMP JUMPDEST PUSH1 0x40 MLOAD DUP1 SWAP2 SUB SWAP1 RETURN JUMPDEST PUSH2 0x16F PUSH1 0x4 DUP1 CALLDATASIZE SUB DUP2 ADD SWAP1 PUSH2 0x16A SWAP2 SWAP1 PUSH2 0x961 JUMP JUMPDEST PUSH2 0x465 JUMP JUMPDEST PUSH1 0x40 MLOAD PUSH2 0x17C SWAP2 SWAP1 PUSH2 0xA5C JUMP JUMPDEST PUSH1 0x40 MLOAD DUP1 SWAP2 SUB SWAP1 RETURN JUMPDEST PUSH2 0x19F PUSH1 0x4 DUP1 CALLDATASIZE SUB DUP2 ADD SWAP1 PUSH2 0x19A SWAP2 SWAP1 PUSH2 0x961 JUMP JUMPDEST PUSH2 0x4FF JUMP JUMPDEST STOP JUMPDEST PUSH2 0x1BB PUSH1 0x4 DUP1 CALLDATASIZE SUB DUP2 ADD SWAP1 PUSH2 0x1B6 SWAP2 SWAP1 PUSH2 0x8C9 JUMP JUMPDEST PUSH2 0x51D JUMP JUMPDEST STOP JUMPDEST PUSH2 0x1D7 PUSH1 0x4 DUP1 CALLDATASIZE SUB DUP2 ADD SWAP1 PUSH2 0x1D2 SWAP2 SWAP1 PUSH2 0x961 JUMP JUMPDEST PUSH2 0x53F JUMP JUMPDEST PUSH1 0x40 MLOAD PUSH2 0x1E4 SWAP2 SWAP1 PUSH2 0xA5C JUMP JUMPDEST PUSH1 0x40 MLOAD DUP1 SWAP2 SUB SWAP1 RETURN JUMPDEST PUSH2 0x207 PUSH1 0x4 DUP1 CALLDATASIZE SUB DUP2 ADD SWAP1 PUSH2 0x202 SWAP2 SWAP1 PUSH2 0x961 JUMP JUMPDEST PUSH2 0x5DF JUMP JUMPDEST PUSH1 0x40 MLOAD PUSH2 0x215 SWAP3 SWAP2 SWAP1 PUSH2 0xA2E JUMP JUMPDEST PUSH1 0x40 MLOAD DUP1 SWAP2 SUB SWAP1 RETURN JUMPDEST PUSH1 0x40 MLOAD DUP1 PUSH1 0x40 ADD PUSH1 0x40 MSTORE DUP1 DUP4 DUP2 MSTORE PUSH1 0x20 ADD DUP3 DUP2 MSTORE POP PUSH1 0x1 PUSH0 DUP6 DUP2 MSTORE PUSH1 0x20 ADD SWAP1 DUP2 MSTORE PUSH1 0x20 ADD PUSH0 KECCAK256 PUSH0 DUP3 ADD MLOAD DUP2 PUSH0 ADD SSTORE PUSH1 0x20 DUP3 ADD MLOAD DUP2 PUSH1 0x1 ADD SWAP1 DUP2 PUSH2 0x261 SWAP2 SWAP1 PUSH2 0xC79 JUMP JUMPDEST POP SWAP1 POP POP POP POP POP JUMP JUMPDEST PUSH0 PUSH1 0x1 PUSH0 DUP5 DUP2 MSTORE PUSH1 0x20 ADD SWAP1 DUP2 MSTORE PUSH1 0x20 ADD PUSH0 KECCAK256 PUSH1 0x1 ADD DUP1 SLOAD PUSH2 0x28A SWAP1 PUSH2 0xAA9 JUMP JUMPDEST SWAP1 POP GT PUSH2 0x2CC JUMPI PUSH1 0x40 MLOAD PUSH32 0x8C379A000000000000000000000000000000000000000000000000000000000 DUP2 MSTORE PUSH1 0x4 ADD PUSH2 0x2C3 SWAP1 PUSH2 0xD92 JUMP JUMPDEST PUSH1 0x40 MLOAD DUP1 SWAP2 SUB SWAP1 REVERT JUMPDEST DUP1 PUSH1 0x1 PUSH0 DUP5 DUP2 MSTORE PUSH1 0x20 ADD SWAP1 DUP2 MSTORE PUSH1 0x20 ADD PUSH0 KECCAK256 PUSH1 0x1 ADD SWAP1 DUP2 PUSH2 0x2ED SWAP2 SWAP1 PUSH2 0xC79 JUMP JUMPDEST POP POP POP JUMP JUMPDEST PUSH0 PUSH1 0x1 PUSH0 DUP5 DUP2 MSTORE PUSH1 0x20 ADD SWAP1 DUP2 MSTORE PUSH1 0x20 ADD PUSH0 KECCAK256 PUSH1 0x1 ADD DUP1 SLOAD PUSH2 0x312 SWAP1 PUSH2 0xAA9 JUMP JUMPDEST SWAP1 POP GT PUSH2 0x354 JUMPI PUSH1 0x40 MLOAD PUSH32 0x8C379A000000000000000000000000000000000000000000000000000000000 DUP2 MSTORE PUSH1 0x4 ADD PUSH2 0x34B SWAP1 PUSH2 0xD92 JUMP JUMPDEST PUSH1 0x40 MLOAD DUP1 SWAP2 SUB SWAP1 REVERT JUMPDEST DUP1 PUSH1 0x1 PUSH0 DUP5 DUP2 MSTORE PUSH1 0x20 ADD SWAP1 DUP2 MSTORE PUSH1 0x20 ADD PUSH0 KECCAK256 PUSH0 ADD DUP2 SWAP1 SSTORE POP POP POP JUMP JUMPDEST PUSH0 PUSH0 PUSH0 PUSH0 DUP5 DUP2 MSTORE PUSH1 0x20 ADD SWAP1 DUP2 MSTORE PUSH1 0x20 ADD PUSH0 KECCAK256 DUP1 SLOAD PUSH2 0x38D SWAP1 PUSH2 0xAA9 JUMP JUMPDEST SWAP1 POP GT SWAP1 POP SWAP2 SWAP1 POP JUMP JUMPDEST PUSH0 PUSH1 0x60 PUSH0 PUSH1 0x1 PUSH0 DUP6 DUP2 MSTORE PUSH1 0x20 ADD SWAP1 DUP2 MSTORE PUSH1 0x20 ADD PUSH0 KECCAK256 PUSH1 0x40 MLOAD DUP1 PUSH1 0x40 ADD PUSH1 0x40 MSTORE SWAP1 DUP2 PUSH0 DUP3 ADD SLOAD DUP2 MSTORE PUSH1 0x20 ADD PUSH1 0x1 DUP3 ADD DUP1 SLOAD PUSH2 0x3D0 SWAP1 PUSH2 0xAA9 JUMP JUMPDEST DUP1 PUSH1 0x1F ADD PUSH1 0x20 DUP1 SWAP2 DIV MUL PUSH1 0x20 ADD PUSH1 0x40 MLOAD SWAP1 DUP2 ADD PUSH1 0x40 MSTORE DUP1 SWAP3 SWAP2 SWAP1 DUP2 DUP2 MSTORE PUSH1 0x20 ADD DUP3 DUP1 SLOAD PUSH2 0x3FC SWAP1 PUSH2 0xAA9 JUMP JUMPDEST DUP1 ISZERO PUSH2 0x447 JUMPI DUP1 PUSH1 0x1F LT PUSH2 0x41E JUMPI PUSH2 0x100 DUP1 DUP4 SLOAD DIV MUL DUP4 MSTORE SWAP2 PUSH1 0x20 ADD SWAP2 PUSH2 0x447 JUMP JUMPDEST DUP3 ADD SWAP2 SWAP1 PUSH0 MSTORE PUSH1 0x20 PUSH0 KECCAK256 SWAP1 JUMPDEST DUP2 SLOAD DUP2 MSTORE SWAP1 PUSH1 0x1 ADD SWAP1 PUSH1 0x20 ADD DUP1 DUP4 GT PUSH2 0x42A JUMPI DUP3 SWAP1 SUB PUSH1 0x1F AND DUP3 ADD SWAP2 JUMPDEST POP POP POP POP POP DUP2 MSTORE POP POP SWAP1 POP DUP1 PUSH0 ADD MLOAD DUP2 PUSH1 0x20 ADD MLOAD SWAP3 POP SWAP3 POP POP SWAP2 POP SWAP2 JUMP JUMPDEST PUSH0 PUSH1 0x20 MSTORE DUP1 PUSH0 MSTORE PUSH1 0x40 PUSH0 KECCAK256 PUSH0 SWAP2 POP SWAP1 POP DUP1 SLOAD PUSH2 0x480 SWAP1 PUSH2 0xAA9 JUMP JUMPDEST DUP1 PUSH1 0x1F ADD PUSH1 0x20 DUP1 SWAP2 DIV MUL PUSH1 0x20 ADD PUSH1 0x40 MLOAD SWAP1 DUP2 ADD PUSH1 0x40 MSTORE DUP1 SWAP3 SWAP2 SWAP1 DUP2 DUP2 MSTORE PUSH1 0x20 ADD DUP3 DUP1 SLOAD PUSH2 0x4AC SWAP1 PUSH2 0xAA9 JUMP JUMPDEST DUP1 ISZERO PUSH2 0x4F7 JUMPI DUP1 PUSH1 0x1F LT PUSH2 0x4CE JUMPI PUSH2 0x100 DUP1 DUP4 SLOAD DIV MUL DUP4 MSTORE SWAP2 PUSH1 0x20 ADD SWAP2 PUSH2 0x4F7 JUMP JUMPDEST DUP3 ADD SWAP2 SWAP1 PUSH0 MSTORE PUSH1 0x20 PUSH0 KECCAK256 SWAP1 JUMPDEST DUP2 SLOAD DUP2 MSTORE SWAP1 PUSH1 0x1 ADD SWAP1 PUSH1 0x20 ADD DUP1 DUP4 GT PUSH2 0x4DA JUMPI DUP3 SWAP1 SUB PUSH1 0x1F AND DUP3 ADD SWAP2 JUMPDEST POP POP POP POP POP DUP2 JUMP JUMPDEST PUSH0 PUSH0 DUP3 DUP2 MSTORE PUSH1 0x20 ADD SWAP1 DUP2 MSTORE PUSH1 0x20 ADD PUSH0 KECCAK256 PUSH0 PUSH2 0x51A SWAP2 SWAP1 PUSH2 0x685 JUMP JUMPDEST POP JUMP JUMPDEST DUP1 PUSH0 PUSH0 DUP5 DUP2 MSTORE PUSH1 0x20 ADD SWAP1 DUP2 MSTORE PUSH1 0x20 ADD PUSH0 KECCAK256 SWAP1 DUP2 PUSH2 0x53A SWAP2 SWAP1 PUSH2 0xC79 JUMP JUMPDEST POP POP POP JUMP JUMPDEST PUSH1 0x60 PUSH0 PUSH0 DUP4 DUP2 MSTORE PUSH1 0x20 ADD SWAP1 DUP2 MSTORE PUSH1 0x20 ADD PUSH0 KECCAK256 DUP1 SLOAD PUSH2 0x55C SWAP1 PUSH2 0xAA9 JUMP JUMPDEST DUP1 PUSH1 0x1F ADD PUSH1 0x20 DUP1 SWAP2 DIV MUL PUSH1 0x20 ADD PUSH1 0x40 MLOAD SWAP1 DUP2 ADD PUSH1 0x40 MSTORE DUP1 SWAP3 SWAP2 SWAP1 DUP2 DUP2 MSTORE PUSH1 0x20 ADD DUP3 DUP1 SLOAD PUSH2 0x588 SWAP1 PUSH2 0xAA9 JUMP JUMPDEST DUP1 ISZERO PUSH2 0x5D3 JUMPI DUP1 PUSH1 0x1F LT PUSH2 0x5AA JUMPI PUSH2 0x100 DUP1 DUP4 SLOAD DIV MUL DUP4 MSTORE SWAP2 PUSH1 0x20 ADD SWAP2 PUSH2 0x5D3 JUMP JUMPDEST DUP3 ADD SWAP2 SWAP1 PUSH0 MSTORE PUSH1 0x20 PUSH0 KECCAK256 SWAP1 JUMPDEST DUP2 SLOAD DUP2 MSTORE SWAP1 PUSH1 0x1 ADD SWAP1 PUSH1 0x20 ADD DUP1 DUP4 GT PUSH2 0x5B6 JUMPI DUP3 SWAP1 SUB PUSH1 0x1F AND DUP3 ADD SWAP2 JUMPDEST POP POP POP POP POP SWAP1 POP SWAP2 SWAP1 POP JUMP JUMPDEST PUSH1 0x1 PUSH1 0x20 MSTORE DUP1 PUSH0 MSTORE PUSH1 0x40 PUSH0 KECCAK256 PUSH0 SWAP2 POP SWAP1 POP DUP1 PUSH0 ADD SLOAD SWAP1 DUP1 PUSH1 0x1 ADD DUP1 SLOAD PUSH2 0x604 SWAP1 PUSH2 0xAA9 JUMP JUMPDEST DUP1 PUSH1 0x1F ADD PUSH1 0x20 DUP1 SWAP2 DIV MUL PUSH1 0x20 ADD PUSH1 0x40 MLOAD SWAP1 DUP2 ADD PUSH1 0x40 MSTORE DUP1 SWAP3 SWAP2 SWAP1 DUP2 DUP2 MSTORE PUSH1 0x20 ADD DUP3 DUP1 SLOAD PUSH2 0x630 SWAP1 PUSH2 0xAA9 JUMP JUMPDEST DUP1 ISZERO PUSH2 0x67B JUMPI DUP1 PUSH1 0x1F LT PUSH2 0x652 JUMPI PUSH2 0x100 DUP1 DUP4 SLOAD DIV MUL DUP4 MSTORE SWAP2 PUSH1 0x20 ADD SWAP2 PUSH2 0x67B JUMP JUMPDEST DUP3 ADD SWAP2 SWAP1 PUSH0 MSTORE PUSH1 0x20 PUSH0 KECCAK256 SWAP1 JUMPDEST DUP2 SLOAD DUP2 MSTORE SWAP1 PUSH1 0x1 ADD SWAP1 PUSH1 0x20 ADD DUP1 DUP4 GT PUSH2 0x65E JUMPI DUP3 SWAP1 SUB PUSH1 0x1F AND DUP3 ADD SWAP2 JUMPDEST POP POP POP POP POP SWAP1 POP DUP3 JUMP JUMPDEST POP DUP1 SLOAD PUSH2 0x691 SWAP1 PUSH2 0xAA9 JUMP JUMPDEST PUSH0 DUP3 SSTORE DUP1 PUSH1 0x1F LT PUSH2 0x6A2 JUMPI POP PUSH2 0x6BF JUMP JUMPDEST PUSH1 0x1F ADD PUSH1 0x20 SWAP1 DIV SWAP1 PUSH0 MSTORE PUSH1 0x20 PUSH0 KECCAK256 SWAP1 DUP2 ADD SWAP1 PUSH2 0x6BE SWAP2 SWAP1 PUSH2 0x6C2 JUMP JUMPDEST JUMPDEST POP JUMP JUMPDEST JUMPDEST DUP1 DUP3 GT ISZERO PUSH2 0x6D9 JUMPI PUSH0 DUP2 PUSH0 SWAP1 SSTORE POP PUSH1 0x1 ADD PUSH2 0x6C3 JUMP JUMPDEST POP SWAP1 JUMP JUMPDEST PUSH0 PUSH1 0x40 MLOAD SWAP1 POP SWAP1 JUMP JUMPDEST PUSH0 PUSH0 REVERT JUMPDEST PUSH0 PUSH0 REVERT JUMPDEST PUSH0 DUP2 SWAP1 POP SWAP2 SWAP1 POP JUMP JUMPDEST PUSH2 0x700 DUP2 PUSH2 0x6EE JUMP JUMPDEST DUP2 EQ PUSH2 0x70A JUMPI PUSH0 PUSH0 REVERT JUMPDEST POP JUMP JUMPDEST PUSH0 DUP2 CALLDATALOAD SWAP1 POP PUSH2 0x71B DUP2 PUSH2 0x6F7 JUMP JUMPDEST SWAP3 SWAP2 POP POP JUMP JUMPDEST PUSH0 PUSH0 REVERT JUMPDEST PUSH0 PUSH0 REVERT JUMPDEST PUSH0 PUSH1 0x1F NOT PUSH1 0x1F DUP4 ADD AND SWAP1 POP SWAP2 SWAP1 POP JUMP JUMPDEST PUSH32 0x4E487B7100000000000000000000000000000000000000000000000000000000 PUSH0 MSTORE PUSH1 0x41 PUSH1 0x4 MSTORE PUSH1 0x24 PUSH0 REVERT JUMPDEST PUSH2 0x76F DUP3 PUSH2 0x729 JUMP JUMPDEST DUP2 ADD DUP2 DUP2 LT PUSH8 0xFFFFFFFFFFFFFFFF DUP3 GT OR ISZERO PUSH2 0x78E JUMPI PUSH2 0x78D PUSH2 0x739 JUMP JUMPDEST JUMPDEST DUP1 PUSH1 0x40 MSTORE POP POP POP JUMP JUMPDEST PUSH0 PUSH2 0x7A0 PUSH2 0x6DD JUMP JUMPDEST SWAP1 POP PUSH2 0x7AC DUP3 DUP3 PUSH2 0x766 JUMP JUMPDEST SWAP2 SWAP1 POP JUMP JUMPDEST PUSH0 PUSH8 0xFFFFFFFFFFFFFFFF DUP3 GT ISZERO PUSH2 0x7CB JUMPI PUSH2 0x7CA PUSH2 0x739 JUMP JUMPDEST JUMPDEST PUSH2 0x7D4 DUP3 PUSH2 0x729 JUMP JUMPDEST SWAP1 POP PUSH1 0x20 DUP2 ADD SWAP1 POP SWAP2 SWAP1 POP JUMP JUMPDEST DUP3 DUP2 DUP4 CALLDATACOPY PUSH0 DUP4 DUP4 ADD MSTORE POP POP POP JUMP JUMPDEST PUSH0 PUSH2 0x801 PUSH2 0x7FC DUP5 PUSH2 0x7B1 JUMP JUMPDEST PUSH2 0x797 JUMP JUMPDEST SWAP1 POP DUP3 DUP2 MSTORE PUSH1 0x20 DUP2 ADD DUP5 DUP5 DUP5 ADD GT ISZERO PUSH2 0x81D JUMPI PUSH2 0x81C PUSH2 0x725 JUMP JUMPDEST JUMPDEST PUSH2 0x828 DUP5 DUP3 DUP6 PUSH2 0x7E1 JUMP JUMPDEST POP SWAP4 SWAP3 POP POP POP JUMP JUMPDEST PUSH0 DUP3 PUSH1 0x1F DUP4 ADD SLT PUSH2 0x844 JUMPI PUSH2 0x843 PUSH2 0x721 JUMP JUMPDEST JUMPDEST DUP2 CALLDATALOAD PUSH2 0x854 DUP5 DUP3 PUSH1 0x20 DUP7 ADD PUSH2 0x7EF JUMP JUMPDEST SWAP2 POP POP SWAP3 SWAP2 POP POP JUMP JUMPDEST PUSH0 PUSH0 PUSH0 PUSH1 0x60 DUP5 DUP7 SUB SLT ISZERO PUSH2 0x874 JUMPI PUSH2 0x873 PUSH2 0x6E6 JUMP JUMPDEST JUMPDEST PUSH0 PUSH2 0x881 DUP7 DUP3 DUP8 ADD PUSH2 0x70D JUMP JUMPDEST SWAP4 POP POP PUSH1 0x20 PUSH2 0x892 DUP7 DUP3 DUP8 ADD PUSH2 0x70D JUMP JUMPDEST SWAP3 POP POP PUSH1 0x40 DUP5 ADD CALLDATALOAD PUSH8 0xFFFFFFFFFFFFFFFF DUP2 GT ISZERO PUSH2 0x8B3 JUMPI PUSH2 0x8B2 PUSH2 0x6EA JUMP JUMPDEST JUMPDEST PUSH2 0x8BF DUP7 DUP3 DUP8 ADD PUSH2 0x830 JUMP JUMPDEST SWAP2 POP POP SWAP3 POP SWAP3 POP SWAP3 JUMP JUMPDEST PUSH0 PUSH0 PUSH1 0x40 DUP4 DUP6 SUB SLT ISZERO PUSH2 0x8DF JUMPI PUSH2 0x8DE PUSH2 0x6E6 JUMP JUMPDEST JUMPDEST PUSH0 PUSH2 0x8EC DUP6 DUP3 DUP7 ADD PUSH2 0x70D JUMP JUMPDEST SWAP3 POP POP PUSH1 0x20 DUP4 ADD CALLDATALOAD PUSH8 0xFFFFFFFFFFFFFFFF DUP2 GT ISZERO PUSH2 0x90D JUMPI PUSH2 0x90C PUSH2 0x6EA JUMP JUMPDEST JUMPDEST PUSH2 0x919 DUP6 DUP3 DUP7 ADD PUSH2 0x830 JUMP JUMPDEST SWAP2 POP POP SWAP3 POP SWAP3 SWAP1 POP JUMP JUMPDEST PUSH0 PUSH0 PUSH1 0x40 DUP4 DUP6 SUB SLT ISZERO PUSH2 0x939 JUMPI PUSH2 0x938 PUSH2 0x6E6 JUMP JUMPDEST JUMPDEST PUSH0 PUSH2 0x946 DUP6 DUP3 DUP7 ADD PUSH2 0x70D JUMP JUMPDEST SWAP3 POP POP PUSH1 0x20 PUSH2 0x957 DUP6 DUP3 DUP7 ADD PUSH2 0x70D JUMP JUMPDEST SWAP2 POP POP SWAP3 POP SWAP3 SWAP1 POP JUMP JUMPDEST PUSH0 PUSH1 0x20 DUP3 DUP5 SUB SLT ISZERO PUSH2 0x976 JUMPI PUSH2 0x975 PUSH2 0x6E6 JUMP JUMPDEST JUMPDEST PUSH0 PUSH2 0x983 DUP5 DUP3 DUP6 ADD PUSH2 0x70D JUMP JUMPDEST SWAP2 POP POP SWAP3 SWAP2 POP POP JUMP JUMPDEST PUSH0 DUP2 ISZERO ISZERO SWAP1 POP SWAP2 SWAP1 POP JUMP JUMPDEST PUSH2 0x9A0 DUP2 PUSH2 0x98C JUMP JUMPDEST DUP3 MSTORE POP POP JUMP JUMPDEST PUSH0 PUSH1 0x20 DUP3 ADD SWAP1 POP PUSH2 0x9B9 PUSH0 DUP4 ADD DUP5 PUSH2 0x997 JUMP JUMPDEST SWAP3 SWAP2 POP POP JUMP JUMPDEST PUSH2 0x9C8 DUP2 PUSH2 0x6EE JUMP JUMPDEST DUP3 MSTORE POP POP JUMP JUMPDEST PUSH0 DUP2 MLOAD SWAP1 POP SWAP2 SWAP1 POP JUMP JUMPDEST PUSH0 DUP3 DUP3 MSTORE PUSH1 0x20 DUP3 ADD SWAP1 POP SWAP3 SWAP2 POP POP JUMP JUMPDEST DUP3 DUP2 DUP4 MCOPY PUSH0 DUP4 DUP4 ADD MSTORE POP POP POP JUMP JUMPDEST PUSH0 PUSH2 0xA00 DUP3 PUSH2 0x9CE JUMP JUMPDEST PUSH2 0xA0A DUP2 DUP6 PUSH2 0x9D8 JUMP JUMPDEST SWAP4 POP PUSH2 0xA1A DUP2 DUP6 PUSH1 0x20 DUP7 ADD PUSH2 0x9E8 JUMP JUMPDEST PUSH2 0xA23 DUP2 PUSH2 0x729 JUMP JUMPDEST DUP5 ADD SWAP2 POP POP SWAP3 SWAP2 POP POP JUMP JUMPDEST PUSH0 PUSH1 0x40 DUP3 ADD SWAP1 POP PUSH2 0xA41 PUSH0 DUP4 ADD DUP6 PUSH2 0x9BF JUMP JUMPDEST DUP2 DUP2 SUB PUSH1 0x20 DUP4 ADD MSTORE PUSH2 0xA53 DUP2 DUP5 PUSH2 0x9F6 JUMP JUMPDEST SWAP1 POP SWAP4 SWAP3 POP POP POP JUMP JUMPDEST PUSH0 PUSH1 0x20 DUP3 ADD SWAP1 POP DUP2 DUP2 SUB PUSH0 DUP4 ADD MSTORE PUSH2 0xA74 DUP2 DUP5 PUSH2 0x9F6 JUMP JUMPDEST SWAP1 POP SWAP3 SWAP2 POP POP JUMP JUMPDEST PUSH32 0x4E487B7100000000000000000000000000000000000000000000000000000000 PUSH0 MSTORE PUSH1 0x22 PUSH1 0x4 MSTORE PUSH1 0x24 PUSH0 REVERT JUMPDEST PUSH0 PUSH1 0x2 DUP3 DIV SWAP1 POP PUSH1 0x1 DUP3 AND DUP1 PUSH2 0xAC0 JUMPI PUSH1 0x7F DUP3 AND SWAP2 POP JUMPDEST PUSH1 0x20 DUP3 LT DUP2 SUB PUSH2 0xAD3 JUMPI PUSH2 0xAD2 PUSH2 0xA7C JUMP JUMPDEST JUMPDEST POP SWAP2 SWAP1 POP JUMP JUMPDEST PUSH0 DUP2 SWAP1 POP DUP2 PUSH0 MSTORE PUSH1 0x20 PUSH0 KECCAK256 SWAP1 POP SWAP2 SWAP1 POP JUMP JUMPDEST PUSH0 PUSH1 0x20 PUSH1 0x1F DUP4 ADD DIV SWAP1 POP SWAP2 SWAP1 POP JUMP JUMPDEST PUSH0 DUP3 DUP3 SHL SWAP1 POP SWAP3 SWAP2 POP POP JUMP JUMPDEST PUSH0 PUSH1 0x8 DUP4 MUL PUSH2 0xB35 PUSH32 0xFFFFFFFFFFFFFFFFFFFFFFFFFFFFFFFFFFFFFFFFFFFFFFFFFFFFFFFFFFFFFFFF DUP3 PUSH2 0xAFA JUMP JUMPDEST PUSH2 0xB3F DUP7 DUP4 PUSH2 0xAFA JUMP JUMPDEST SWAP6 POP DUP1 NOT DUP5 AND SWAP4 POP DUP1 DUP7 AND DUP5 OR SWAP3 POP POP POP SWAP4 SWAP3 POP POP POP JUMP JUMPDEST PUSH0 DUP2 SWAP1 POP SWAP2 SWAP1 POP JUMP JUMPDEST PUSH0 PUSH2 0xB7A PUSH2 0xB75 PUSH2 0xB70 DUP5 PUSH2 0x6EE JUMP JUMPDEST PUSH2 0xB57 JUMP JUMPDEST PUSH2 0x6EE JUMP JUMPDEST SWAP1 POP SWAP2 SWAP1 POP JUMP JUMPDEST PUSH0 DUP2 SWAP1 POP SWAP2 SWAP1 POP JUMP JUMPDEST PUSH2 0xB93 DUP4 PUSH2 0xB60 JUMP JUMPDEST PUSH2 0xBA7 PUSH2 0xB9F DUP3 PUSH2 0xB81 JUMP JUMPDEST DUP5 DUP5 SLOAD PUSH2 0xB06 JUMP JUMPDEST DUP3 SSTORE POP POP POP POP JUMP JUMPDEST PUSH0 PUSH0 SWAP1 POP SWAP1 JUMP JUMPDEST PUSH2 0xBBE PUSH2 0xBAF JUMP JUMPDEST PUSH2 0xBC9 DUP2 DUP5 DUP5 PUSH2 0xB8A JUMP JUMPDEST POP POP POP JUMP JUMPDEST JUMPDEST DUP2 DUP2 LT ISZERO PUSH2 0xBEC JUMPI PUSH2 0xBE1 PUSH0 DUP3 PUSH2 0xBB6 JUMP JUMPDEST PUSH1 0x1 DUP2 ADD SWAP1 POP PUSH2 0xBCF JUMP JUMPDEST POP POP JUMP JUMPDEST PUSH1 0x1F DUP3 GT ISZERO PUSH2 0xC31 JUMPI PUSH2 0xC02 DUP2 PUSH2 0xAD9 JUMP JUMPDEST PUSH2 0xC0B DUP5 PUSH2 0xAEB JUMP JUMPDEST DUP2 ADD PUSH1 0x20 DUP6 LT ISZERO PUSH2 0xC1A JUMPI DUP2 SWAP1 POP JUMPDEST PUSH2 0xC2E PUSH2 0xC26 DUP6 PUSH2 0xAEB JUMP JUMPDEST DUP4 ADD DUP3 PUSH2 0xBCE JUMP JUMPDEST POP POP JUMPDEST POP POP POP JUMP JUMPDEST PUSH0 DUP3 DUP3 SHR SWAP1 POP SWAP3 SWAP2 POP POP JUMP JUMPDEST PUSH0 PUSH2 0xC51 PUSH0 NOT DUP5 PUSH1 0x8 MUL PUSH2 0xC36 JUMP JUMPDEST NOT DUP1 DUP4 AND SWAP2 POP POP SWAP3 SWAP2 POP POP JUMP JUMPDEST PUSH0 PUSH2 0xC69 DUP4 DUP4 PUSH2 0xC42 JUMP JUMPDEST SWAP2 POP DUP3 PUSH1 0x2 MUL DUP3 OR SWAP1 POP SWAP3 SWAP2 POP POP JUMP JUMPDEST PUSH2 0xC82 DUP3 PUSH2 0x9CE JUMP JUMPDEST PUSH8 0xFFFFFFFFFFFFFFFF DUP2 GT ISZERO PUSH2 0xC9B JUMPI PUSH2 0xC9A PUSH2 0x739 JUMP JUMPDEST JUMPDEST PUSH2 0xCA5 DUP3 SLOAD PUSH2 0xAA9 JUMP JUMPDEST PUSH2 0xCB0 DUP3 DUP3 DUP6 PUSH2 0xBF0 JUMP JUMPDEST PUSH0 PUSH1 0x20 SWAP1 POP PUSH1 0x1F DUP4 GT PUSH1 0x1 DUP2 EQ PUSH2 0xCE1 JUMPI PUSH0 DUP5 ISZERO PUSH2 0xCCF JUMPI DUP3 DUP8 ADD MLOAD SWAP1 POP JUMPDEST PUSH2 0xCD9 DUP6 DUP3 PUSH2 0xC5E JUMP JUMPDEST DUP7 SSTORE POP PUSH2 0xD40 JUMP JUMPDEST PUSH1 0x1F NOT DUP5 AND PUSH2 0xCEF DUP7 PUSH2 0xAD9 JUMP JUMPDEST PUSH0 JUMPDEST DUP3 DUP2 LT ISZERO PUSH2 0xD16 JUMPI DUP5 DUP10 ADD MLOAD DUP3 SSTORE PUSH1 0x1 DUP3 ADD SWAP2 POP PUSH1 0x20 DUP6 ADD SWAP5 POP PUSH1 0x20 DUP2 ADD SWAP1 POP PUSH2 0xCF1 JUMP JUMPDEST DUP7 DUP4 LT ISZERO PUSH2 0xD33 JUMPI DUP5 DUP10 ADD MLOAD PUSH2 0xD2F PUSH1 0x1F DUP10 AND DUP3 PUSH2 0xC42 JUMP JUMPDEST DUP4 SSTORE POP JUMPDEST PUSH1 0x1 PUSH1 0x2 DUP9 MUL ADD DUP9 SSTORE POP POP POP JUMPDEST POP POP POP POP POP POP JUMP JUMPDEST PUSH32 0x53747564656E7420646F6573206E6F7420657869737400000000000000000000 PUSH0 DUP3 ADD MSTORE POP JUMP JUMPDEST PUSH0 PUSH2 0xD7C PUSH1 0x16 DUP4 PUSH2 0x9D8 JUMP JUMPDEST SWAP2 POP PUSH2 0xD87 DUP3 PUSH2 0xD48 JUMP JUMPDEST PUSH1 0x20 DUP3 ADD SWAP1 POP SWAP2 SWAP1 POP JUMP JUMPDEST PUSH0 PUSH1 0x20 DUP3 ADD SWAP1 POP DUP2 DUP2 SUB PUSH0 DUP4 ADD MSTORE PUSH2 0xDA9 DUP2 PUSH2 0xD70 JUMP JUMPDEST SWAP1 POP SWAP2 SWAP1 POP JUMP INVALID LOG2 PUSH5 0x6970667358 0x22 SLT KECCAK256 DUP11 DUP11 0xCC 0xEB PUSH21 0xD73C19CFA7B51EA02679983727D2371B600B243338 0xCA SDIV AND 0xF6 0xC4 LOG1 PUSH5 0x736F6C6343 STOP ADDMOD 0x1E STOP CALLER "
				},
				"gasEstimates": {
					"creation": {
						"codeDepositCost": "711600",
						"executionCost": "745",
						"totalCost": "712345"
					},
					"external": {
						"data(uint256)": "infinite",
						"dataSetter(uint256,uint256,string)": "infinite",
						"getRollNo(uint256)": "infinite",
						"getStudentData(uint256)": "infinite",
						"keyExists(uint256)": "2978",
						"removeKey(uint256)": "infinite",
						"roll_no(uint256)": "infinite",
						"setter(uint256,string)": "infinite",
						"updateStudentClass(uint256,uint256)": "infinite",
						"updateStudentName(uint256,string)": "infinite"
					}
				},
				"methodIdentifiers": {
					"data(uint256)": "f0ba8440",
					"dataSetter(uint256,uint256,string)": "3d301c2a",
					"getRollNo(uint256)": "e14077cb",
					"getStudentData(uint256)": "874e5bb8",
					"keyExists(uint256)": "82d1eac8",
					"removeKey(uint256)": "a8d20d61",
					"roll_no(uint256)": "898786ac",
					"setter(uint256,string)": "bcb131c9",
					"updateStudentClass(uint256,uint256)": "79bab0c2",
					"updateStudentName(uint256,string)": "440dba6c"
				}
			},
			"storageLayout": {
				"storage": [
					{
						"astId": 7,
						"contract": "10-Mapping/demo.sol:mapDemo",
						"label": "roll_no",
						"offset": 0,
						"slot": "0",
						"type": "t_mapping(t_uint256,t_string_storage)"
					},
					{
						"astId": 34,
						"contract": "10-Mapping/demo.sol:mapDemo",
						"label": "data",
						"offset": 0,
						"slot": "1",
						"type": "t_mapping(t_uint256,t_struct(Student)28_storage)"
					}
				],
				"types": {
					"t_mapping(t_uint256,t_string_storage)": {
						"encoding": "mapping",
						"key": "t_uint256",
						"label": "mapping(uint256 => string)",
						"numberOfBytes": "32",
						"value": "t_string_storage"
					},
					"t_mapping(t_uint256,t_struct(Student)28_storage)": {
						"encoding": "mapping",
						"key": "t_uint256",
						"label": "mapping(uint256 => struct mapDemo.Student)",
						"numberOfBytes": "32",
						"value": "t_struct(Student)28_storage"
					},
					"t_string_storage": {
						"encoding": "bytes",
						"label": "string",
						"numberOfBytes": "32"
					},
					"t_struct(Student)28_storage": {
						"encoding": "inplace",
						"label": "struct mapDemo.Student",
						"members": [
							{
								"astId": 25,
								"contract": "10-Mapping/demo.sol:mapDemo",
								"label": "class",
								"offset": 0,
								"slot": "0",
								"type": "t_uint256"
							},
							{
								"astId": 27,
								"contract": "10-Mapping/demo.sol:mapDemo",
								"label": "name",
								"offset": 0,
								"slot": "1",
								"type": "t_string_storage"
							}
						],
						"numberOfBytes": "64"
					},
					"t_uint256": {
						"encoding": "inplace",
						"label": "uint256",
						"numberOfBytes": "32"
					}
				}
			},
			"userdoc": {
				"kind": "user",
				"methods": {
					"data(uint256)": {
						"notice": "Demonstrates using complex types (structs) as mapping valuesPublic visibility creates a getter that returns the entire struct"
					},
					"dataSetter(uint256,uint256,string)": {
						"notice": "Shows how to store struct values in a mapping"
					},
					"getRollNo(uint256)": {
						"notice": "Explicit getter function (though public mapping already provides one)"
					},
					"getStudentData(uint256)": {
						"notice": "Shows how to retrieve struct data from a mapping"
					},
					"keyExists(uint256)": {
						"notice": "Demonstrates how to check for key existence"
					},
					"removeKey(uint256)": {
						"notice": "Sets the value to empty string, effectively removing the mapping entry"
					},
					"roll_no(uint256)": {
						"notice": "Public visibility automatically creates a getter functionExample use case: mapping student roll numbers (keys) to student names (values)Keys are unique - setting a key twice overwrites the previous value"
					},
					"setter(uint256,string)": {
						"notice": "Demonstrates how to store values in a mapping"
					},
					"updateStudentClass(uint256,uint256)": {
						"notice": "Shows how to update specific fields in a struct stored in a mapping"
					},
					"updateStudentName(uint256,string)": {
						"notice": "Shows how to update specific fields in a struct stored in a mapping"
					}
				},
				"notice": "Mappings are key-value stores where keys map to valuesAnalogous to hash tables or dictionaries in other languagesAll mappings in Solidity are virtual - they don't store all keys, just the ones that have been set",
				"version": 1
			}
		}
	}
}