{
	"6-Array/DynamicByteArray.sol": {
		"DynamicByteArray": {
			"abi": [
				{
					"inputs": [
						{
							"internalType": "bytes1",
							"name": "newByte",
							"type": "bytes1"
						}
					],
					"name": "appendToBytes",
					"outputs": [],
					"stateMutability": "nonpayable",
					"type": "function"
				},
				{
					"inputs": [
						{
							"internalType": "uint256",
							"name": "",
							"type": "uint256"
						}
					],
					"name": "arr1",
					"outputs": [
						{
							"internalType": "bytes",
							"name": "",
							"type": "bytes"
						}
					],
					"stateMutability": "view",
					"type": "function"
				},
				{
					"inputs": [],
					"name": "b1",
					"outputs": [
						{
							"internalType": "bytes",
							"name": "",
							"type": "bytes"
						}
					],
					"stateMutability": "view",
					"type": "function"
				},
				{
					"inputs": [],
					"name": "clearBytes",
					"outputs": [],
					"stateMutability": "nonpayable",
					"type": "function"
				},
				{
					"inputs": [],
					"name": "clearDynamicArray",
					"outputs": [],
					"stateMutability": "nonpayable",
					"type": "function"
				},
				{
					"inputs": [],
					"name": "getDynamicArrayLength",
					"outputs": [
						{
							"internalType": "uint256",
							"name": "",
							"type": "uint256"
						}
					],
					"stateMutability": "view",
					"type": "function"
				},
				{
					"inputs": [
						{
							"internalType": "uint256",
							"name": "index",
							"type": "uint256"
						}
					],
					"name": "getElement",
					"outputs": [
						{
							"internalType": "bytes1",
							"name": "",
							"type": "bytes1"
						}
					],
					"stateMutability": "view",
					"type": "function"
				},
				{
					"inputs": [
						{
							"internalType": "uint256",
							"name": "index",
							"type": "uint256"
						}
					],
					"name": "getFromDynamicArray",
					"outputs": [
						{
							"internalType": "bytes",
							"name": "",
							"type": "bytes"
						}
					],
					"stateMutability": "view",
					"type": "function"
				},
				{
					"inputs": [],
					"name": "getLength",
					"outputs": [
						{
							"internalType": "uint256",
							"name": "",
							"type": "uint256"
						}
					],
					"stateMutability": "view",
					"type": "function"
				},
				{
					"inputs": [
						{
							"internalType": "bytes",
							"name": "newBytes",
							"type": "bytes"
						}
					],
					"name": "pushToDynamicArray",
					"outputs": [],
					"stateMutability": "nonpayable",
					"type": "function"
				},
				{
					"inputs": [],
					"name": "toString",
					"outputs": [
						{
							"internalType": "string",
							"name": "",
							"type": "string"
						}
					],
					"stateMutability": "view",
					"type": "function"
				}
			],
			"devdoc": {
				"details": "Shows how to work with dynamic byte arrays and fixed-size byte arrays in Solidity",
				"kind": "dev",
				"methods": {
					"appendToBytes(bytes1)": {
						"details": "Correct implementation to append to a bytes array",
						"params": {
							"newByte": "The byte to append to b1"
						}
					},
					"clearBytes()": {
						"details": "Clears the bytes array (sets it to empty)"
					},
					"clearDynamicArray()": {
						"details": "Clears the dynamic array of bytes arrays"
					},
					"getDynamicArrayLength()": {
						"details": "Gets the length of the dynamic array of bytes arrays",
						"returns": {
							"_0": "The number of bytes arrays stored in arr1"
						}
					},
					"getElement(uint256)": {
						"details": "Gets an element from the bytes array at a specific index",
						"params": {
							"index": "The position of the byte to retrieve (0-based)"
						},
						"returns": {
							"_0": "The byte at the specified index"
						}
					},
					"getFromDynamicArray(uint256)": {
						"details": "Gets an element from the dynamic array of bytes arrays",
						"params": {
							"index": "The position in arr1 to access"
						},
						"returns": {
							"_0": "The bytes array at the specified index"
						}
					},
					"getLength()": {
						"details": "Gets the length of the bytes array",
						"returns": {
							"_0": "The number of bytes in b1"
						}
					},
					"pushToDynamicArray(bytes)": {
						"details": "Adds a new bytes array to the dynamic array of bytes arrays",
						"params": {
							"newBytes": "The bytes array to add to arr1"
						}
					},
					"toString()": {
						"details": "Converts the bytes array to a string",
						"returns": {
							"_0": "The string representation of b1"
						}
					}
				},
				"stateVariables": {
					"arr1": {
						"details": "Dynamic array of bytes arrays"
					},
					"b1": {
						"details": "Fixed-size bytes array initialized with 'abc'"
					}
				},
				"title": "Dynamic Byte Array Demonstration",
				"version": 1
			},
			"evm": {
				"assembly": "    /* \"6-Array/DynamicByteArray.sol\":300:4794  contract DynamicByteArray {... */\n  mstore(0x40, 0x80)\n    /* \"6-Array/DynamicByteArray.sol\":986:1009  bytes public b1 = 'abc' */\n  mload(0x40)\n  dup1\n  0x40\n  add\n  0x40\n  mstore\n  dup1\n  0x03\n  dup2\n  mstore\n  0x20\n  add\n  0x6162630000000000000000000000000000000000000000000000000000000000\n  dup2\n  mstore\n  pop\n  0x01\n  swap1\n  dup2\n  tag_1\n  swap2\n  swap1\n  tag_2\n  jump\t// in\ntag_1:\n  pop\n    /* \"6-Array/DynamicByteArray.sol\":300:4794  contract DynamicByteArray {... */\n  callvalue\n  dup1\n  iszero\n  tag_3\n  jumpi\n  revert(0x00, 0x00)\ntag_3:\n  pop\n  jump(tag_4)\n    /* \"#utility.yul\":7:106   */\ntag_5:\n    /* \"#utility.yul\":59:65   */\n  0x00\n    /* \"#utility.yul\":93:98   */\n  dup2\n    /* \"#utility.yul\":87:99   */\n  mload\n    /* \"#utility.yul\":77:99   */\n  swap1\n  pop\n    /* \"#utility.yul\":7:106   */\n  swap2\n  swap1\n  pop\n  jump\t// out\n    /* \"#utility.yul\":112:292   */\ntag_6:\n    /* \"#utility.yul\":160:237   */\n  0x4e487b7100000000000000000000000000000000000000000000000000000000\n    /* \"#utility.yul\":157:158   */\n  0x00\n    /* \"#utility.yul\":150:238   */\n  mstore\n    /* \"#utility.yul\":257:261   */\n  0x41\n    /* \"#utility.yul\":254:255   */\n  0x04\n    /* \"#utility.yul\":247:262   */\n  mstore\n    /* \"#utility.yul\":281:285   */\n  0x24\n    /* \"#utility.yul\":278:279   */\n  0x00\n    /* \"#utility.yul\":271:286   */\n  revert\n    /* \"#utility.yul\":298:478   */\ntag_7:\n    /* \"#utility.yul\":346:423   */\n  0x4e487b7100000000000000000000000000000000000000000000000000000000\n    /* \"#utility.yul\":343:344   */\n  0x00\n    /* \"#utility.yul\":336:424   */\n  mstore\n    /* \"#utility.yul\":443:447   */\n  0x22\n    /* \"#utility.yul\":440:441   */\n  0x04\n    /* \"#utility.yul\":433:448   */\n  mstore\n    /* \"#utility.yul\":467:471   */\n  0x24\n    /* \"#utility.yul\":464:465   */\n  0x00\n    /* \"#utility.yul\":457:472   */\n  revert\n    /* \"#utility.yul\":484:804   */\ntag_8:\n    /* \"#utility.yul\":528:534   */\n  0x00\n    /* \"#utility.yul\":565:566   */\n  0x02\n    /* \"#utility.yul\":559:563   */\n  dup3\n    /* \"#utility.yul\":555:567   */\n  div\n    /* \"#utility.yul\":545:567   */\n  swap1\n  pop\n    /* \"#utility.yul\":612:613   */\n  0x01\n    /* \"#utility.yul\":606:610   */\n  dup3\n    /* \"#utility.yul\":602:614   */\n  and\n    /* \"#utility.yul\":633:651   */\n  dup1\n    /* \"#utility.yul\":623:704   */\n  tag_30\n  jumpi\n    /* \"#utility.yul\":689:693   */\n  0x7f\n    /* \"#utility.yul\":681:687   */\n  dup3\n    /* \"#utility.yul\":677:694   */\n  and\n    /* \"#utility.yul\":667:694   */\n  swap2\n  pop\n    /* \"#utility.yul\":623:704   */\ntag_30:\n    /* \"#utility.yul\":751:753   */\n  0x20\n    /* \"#utility.yul\":743:749   */\n  dup3\n    /* \"#utility.yul\":740:754   */\n  lt\n    /* \"#utility.yul\":720:738   */\n  dup2\n    /* \"#utility.yul\":717:755   */\n  sub\n    /* \"#utility.yul\":714:798   */\n  tag_31\n  jumpi\n    /* \"#utility.yul\":770:788   */\n  tag_32\n  tag_7\n  jump\t// in\ntag_32:\n    /* \"#utility.yul\":714:798   */\ntag_31:\n    /* \"#utility.yul\":535:804   */\n  pop\n    /* \"#utility.yul\":484:804   */\n  swap2\n  swap1\n  pop\n  jump\t// out\n    /* \"#utility.yul\":810:950   */\ntag_9:\n    /* \"#utility.yul\":858:862   */\n  0x00\n    /* \"#utility.yul\":881:884   */\n  dup2\n    /* \"#utility.yul\":873:884   */\n  swap1\n  pop\n    /* \"#utility.yul\":904:907   */\n  dup2\n    /* \"#utility.yul\":901:902   */\n  0x00\n    /* \"#utility.yul\":894:908   */\n  mstore\n    /* \"#utility.yul\":938:942   */\n  0x20\n    /* \"#utility.yul\":935:936   */\n  0x00\n    /* \"#utility.yul\":925:943   */\n  keccak256\n    /* \"#utility.yul\":917:943   */\n  swap1\n  pop\n    /* \"#utility.yul\":810:950   */\n  swap2\n  swap1\n  pop\n  jump\t// out\n    /* \"#utility.yul\":956:1049   */\ntag_10:\n    /* \"#utility.yul\":993:999   */\n  0x00\n    /* \"#utility.yul\":1040:1042   */\n  0x20\n    /* \"#utility.yul\":1035:1037   */\n  0x1f\n    /* \"#utility.yul\":1028:1033   */\n  dup4\n    /* \"#utility.yul\":1024:1038   */\n  add\n    /* \"#utility.yul\":1020:1043   */\n  div\n    /* \"#utility.yul\":1010:1043   */\n  swap1\n  pop\n    /* \"#utility.yul\":956:1049   */\n  swap2\n  swap1\n  pop\n  jump\t// out\n    /* \"#utility.yul\":1055:1162   */\ntag_11:\n    /* \"#utility.yul\":1099:1107   */\n  0x00\n    /* \"#utility.yul\":1149:1154   */\n  dup3\n    /* \"#utility.yul\":1143:1147   */\n  dup3\n    /* \"#utility.yul\":1139:1155   */\n  shl\n    /* \"#utility.yul\":1118:1155   */\n  swap1\n  pop\n    /* \"#utility.yul\":1055:1162   */\n  swap3\n  swap2\n  pop\n  pop\n  jump\t// out\n    /* \"#utility.yul\":1168:1561   */\ntag_12:\n    /* \"#utility.yul\":1237:1243   */\n  0x00\n    /* \"#utility.yul\":1287:1288   */\n  0x08\n    /* \"#utility.yul\":1275:1285   */\n  dup4\n    /* \"#utility.yul\":1271:1289   */\n  mul\n    /* \"#utility.yul\":1310:1407   */\n  tag_37\n    /* \"#utility.yul\":1340:1406   */\n  0xffffffffffffffffffffffffffffffffffffffffffffffffffffffffffffffff\n    /* \"#utility.yul\":1329:1338   */\n  dup3\n    /* \"#utility.yul\":1310:1407   */\n  tag_11\n  jump\t// in\ntag_37:\n    /* \"#utility.yul\":1428:1467   */\n  tag_38\n    /* \"#utility.yul\":1458:1466   */\n  dup7\n    /* \"#utility.yul\":1447:1456   */\n  dup4\n    /* \"#utility.yul\":1428:1467   */\n  tag_11\n  jump\t// in\ntag_38:\n    /* \"#utility.yul\":1416:1467   */\n  swap6\n  pop\n    /* \"#utility.yul\":1500:1504   */\n  dup1\n    /* \"#utility.yul\":1496:1505   */\n  not\n    /* \"#utility.yul\":1489:1494   */\n  dup5\n    /* \"#utility.yul\":1485:1506   */\n  and\n    /* \"#utility.yul\":1476:1506   */\n  swap4\n  pop\n    /* \"#utility.yul\":1549:1553   */\n  dup1\n    /* \"#utility.yul\":1539:1547   */\n  dup7\n    /* \"#utility.yul\":1535:1554   */\n  and\n    /* \"#utility.yul\":1528:1533   */\n  dup5\n    /* \"#utility.yul\":1525:1555   */\n  or\n    /* \"#utility.yul\":1515:1555   */\n  swap3\n  pop\n    /* \"#utility.yul\":1244:1561   */\n  pop\n  pop\n    /* \"#utility.yul\":1168:1561   */\n  swap4\n  swap3\n  pop\n  pop\n  pop\n  jump\t// out\n    /* \"#utility.yul\":1567:1644   */\ntag_13:\n    /* \"#utility.yul\":1604:1611   */\n  0x00\n    /* \"#utility.yul\":1633:1638   */\n  dup2\n    /* \"#utility.yul\":1622:1638   */\n  swap1\n  pop\n    /* \"#utility.yul\":1567:1644   */\n  swap2\n  swap1\n  pop\n  jump\t// out\n    /* \"#utility.yul\":1650:1710   */\ntag_14:\n    /* \"#utility.yul\":1678:1681   */\n  0x00\n    /* \"#utility.yul\":1699:1704   */\n  dup2\n    /* \"#utility.yul\":1692:1704   */\n  swap1\n  pop\n    /* \"#utility.yul\":1650:1710   */\n  swap2\n  swap1\n  pop\n  jump\t// out\n    /* \"#utility.yul\":1716:1858   */\ntag_15:\n    /* \"#utility.yul\":1766:1775   */\n  0x00\n    /* \"#utility.yul\":1799:1852   */\n  tag_42\n    /* \"#utility.yul\":1817:1851   */\n  tag_43\n    /* \"#utility.yul\":1826:1850   */\n  tag_44\n    /* \"#utility.yul\":1844:1849   */\n  dup5\n    /* \"#utility.yul\":1826:1850   */\n  tag_13\n  jump\t// in\ntag_44:\n    /* \"#utility.yul\":1817:1851   */\n  tag_14\n  jump\t// in\ntag_43:\n    /* \"#utility.yul\":1799:1852   */\n  tag_13\n  jump\t// in\ntag_42:\n    /* \"#utility.yul\":1786:1852   */\n  swap1\n  pop\n    /* \"#utility.yul\":1716:1858   */\n  swap2\n  swap1\n  pop\n  jump\t// out\n    /* \"#utility.yul\":1864:1939   */\ntag_16:\n    /* \"#utility.yul\":1907:1910   */\n  0x00\n    /* \"#utility.yul\":1928:1933   */\n  dup2\n    /* \"#utility.yul\":1921:1933   */\n  swap1\n  pop\n    /* \"#utility.yul\":1864:1939   */\n  swap2\n  swap1\n  pop\n  jump\t// out\n    /* \"#utility.yul\":1945:2214   */\ntag_17:\n    /* \"#utility.yul\":2055:2094   */\n  tag_47\n    /* \"#utility.yul\":2086:2093   */\n  dup4\n    /* \"#utility.yul\":2055:2094   */\n  tag_15\n  jump\t// in\ntag_47:\n    /* \"#utility.yul\":2116:2207   */\n  tag_48\n    /* \"#utility.yul\":2165:2206   */\n  tag_49\n    /* \"#utility.yul\":2189:2205   */\n  dup3\n    /* \"#utility.yul\":2165:2206   */\n  tag_16\n  jump\t// in\ntag_49:\n    /* \"#utility.yul\":2157:2163   */\n  dup5\n    /* \"#utility.yul\":2150:2154   */\n  dup5\n    /* \"#utility.yul\":2144:2155   */\n  sload\n    /* \"#utility.yul\":2116:2207   */\n  tag_12\n  jump\t// in\ntag_48:\n    /* \"#utility.yul\":2110:2114   */\n  dup3\n    /* \"#utility.yul\":2103:2208   */\n  sstore\n    /* \"#utility.yul\":2021:2214   */\n  pop\n    /* \"#utility.yul\":1945:2214   */\n  pop\n  pop\n  pop\n  jump\t// out\n    /* \"#utility.yul\":2220:2293   */\ntag_18:\n    /* \"#utility.yul\":2265:2268   */\n  0x00\n    /* \"#utility.yul\":2286:2287   */\n  0x00\n    /* \"#utility.yul\":2279:2287   */\n  swap1\n  pop\n    /* \"#utility.yul\":2220:2293   */\n  swap1\n  jump\t// out\n    /* \"#utility.yul\":2299:2488   */\ntag_19:\n    /* \"#utility.yul\":2376:2408   */\n  tag_52\n  tag_18\n  jump\t// in\ntag_52:\n    /* \"#utility.yul\":2417:2482   */\n  tag_53\n    /* \"#utility.yul\":2475:2481   */\n  dup2\n    /* \"#utility.yul\":2467:2473   */\n  dup5\n    /* \"#utility.yul\":2461:2465   */\n  dup5\n    /* \"#utility.yul\":2417:2482   */\n  tag_17\n  jump\t// in\ntag_53:\n    /* \"#utility.yul\":2352:2488   */\n  pop\n    /* \"#utility.yul\":2299:2488   */\n  pop\n  pop\n  jump\t// out\n    /* \"#utility.yul\":2494:2680   */\ntag_20:\n    /* \"#utility.yul\":2554:2674   */\ntag_55:\n    /* \"#utility.yul\":2571:2574   */\n  dup2\n    /* \"#utility.yul\":2564:2569   */\n  dup2\n    /* \"#utility.yul\":2561:2575   */\n  lt\n    /* \"#utility.yul\":2554:2674   */\n  iszero\n  tag_57\n  jumpi\n    /* \"#utility.yul\":2625:2664   */\n  tag_58\n    /* \"#utility.yul\":2662:2663   */\n  0x00\n    /* \"#utility.yul\":2655:2660   */\n  dup3\n    /* \"#utility.yul\":2625:2664   */\n  tag_19\n  jump\t// in\ntag_58:\n    /* \"#utility.yul\":2598:2599   */\n  0x01\n    /* \"#utility.yul\":2591:2596   */\n  dup2\n    /* \"#utility.yul\":2587:2600   */\n  add\n    /* \"#utility.yul\":2578:2600   */\n  swap1\n  pop\n    /* \"#utility.yul\":2554:2674   */\n  jump(tag_55)\ntag_57:\n    /* \"#utility.yul\":2494:2680   */\n  pop\n  pop\n  jump\t// out\n    /* \"#utility.yul\":2686:3227   */\ntag_21:\n    /* \"#utility.yul\":2786:2788   */\n  0x1f\n    /* \"#utility.yul\":2781:2784   */\n  dup3\n    /* \"#utility.yul\":2778:2789   */\n  gt\n    /* \"#utility.yul\":2775:3220   */\n  iszero\n  tag_60\n  jumpi\n    /* \"#utility.yul\":2820:2857   */\n  tag_61\n    /* \"#utility.yul\":2851:2856   */\n  dup2\n    /* \"#utility.yul\":2820:2857   */\n  tag_9\n  jump\t// in\ntag_61:\n    /* \"#utility.yul\":2903:2932   */\n  tag_62\n    /* \"#utility.yul\":2921:2931   */\n  dup5\n    /* \"#utility.yul\":2903:2932   */\n  tag_10\n  jump\t// in\ntag_62:\n    /* \"#utility.yul\":2893:2901   */\n  dup2\n    /* \"#utility.yul\":2889:2933   */\n  add\n    /* \"#utility.yul\":3086:3088   */\n  0x20\n    /* \"#utility.yul\":3074:3084   */\n  dup6\n    /* \"#utility.yul\":3071:3089   */\n  lt\n    /* \"#utility.yul\":3068:3117   */\n  iszero\n  tag_63\n  jumpi\n    /* \"#utility.yul\":3107:3115   */\n  dup2\n    /* \"#utility.yul\":3092:3115   */\n  swap1\n  pop\n    /* \"#utility.yul\":3068:3117   */\ntag_63:\n    /* \"#utility.yul\":3130:3210   */\n  tag_64\n    /* \"#utility.yul\":3186:3208   */\n  tag_65\n    /* \"#utility.yul\":3204:3207   */\n  dup6\n    /* \"#utility.yul\":3186:3208   */\n  tag_10\n  jump\t// in\ntag_65:\n    /* \"#utility.yul\":3176:3184   */\n  dup4\n    /* \"#utility.yul\":3172:3209   */\n  add\n    /* \"#utility.yul\":3159:3170   */\n  dup3\n    /* \"#utility.yul\":3130:3210   */\n  tag_20\n  jump\t// in\ntag_64:\n    /* \"#utility.yul\":2790:3220   */\n  pop\n  pop\n    /* \"#utility.yul\":2775:3220   */\ntag_60:\n    /* \"#utility.yul\":2686:3227   */\n  pop\n  pop\n  pop\n  jump\t// out\n    /* \"#utility.yul\":3233:3350   */\ntag_22:\n    /* \"#utility.yul\":3287:3295   */\n  0x00\n    /* \"#utility.yul\":3337:3342   */\n  dup3\n    /* \"#utility.yul\":3331:3335   */\n  dup3\n    /* \"#utility.yul\":3327:3343   */\n  shr\n    /* \"#utility.yul\":3306:3343   */\n  swap1\n  pop\n    /* \"#utility.yul\":3233:3350   */\n  swap3\n  swap2\n  pop\n  pop\n  jump\t// out\n    /* \"#utility.yul\":3356:3525   */\ntag_23:\n    /* \"#utility.yul\":3400:3406   */\n  0x00\n    /* \"#utility.yul\":3433:3484   */\n  tag_68\n    /* \"#utility.yul\":3481:3482   */\n  0x00\n    /* \"#utility.yul\":3477:3483   */\n  not\n    /* \"#utility.yul\":3469:3474   */\n  dup5\n    /* \"#utility.yul\":3466:3467   */\n  0x08\n    /* \"#utility.yul\":3462:3475   */\n  mul\n    /* \"#utility.yul\":3433:3484   */\n  tag_22\n  jump\t// in\ntag_68:\n    /* \"#utility.yul\":3429:3485   */\n  not\n    /* \"#utility.yul\":3514:3518   */\n  dup1\n    /* \"#utility.yul\":3508:3512   */\n  dup4\n    /* \"#utility.yul\":3504:3519   */\n  and\n    /* \"#utility.yul\":3494:3519   */\n  swap2\n  pop\n    /* \"#utility.yul\":3407:3525   */\n  pop\n    /* \"#utility.yul\":3356:3525   */\n  swap3\n  swap2\n  pop\n  pop\n  jump\t// out\n    /* \"#utility.yul\":3530:3825   */\ntag_24:\n    /* \"#utility.yul\":3606:3610   */\n  0x00\n    /* \"#utility.yul\":3752:3781   */\n  tag_70\n    /* \"#utility.yul\":3777:3780   */\n  dup4\n    /* \"#utility.yul\":3771:3775   */\n  dup4\n    /* \"#utility.yul\":3752:3781   */\n  tag_23\n  jump\t// in\ntag_70:\n    /* \"#utility.yul\":3744:3781   */\n  swap2\n  pop\n    /* \"#utility.yul\":3814:3817   */\n  dup3\n    /* \"#utility.yul\":3811:3812   */\n  0x02\n    /* \"#utility.yul\":3807:3818   */\n  mul\n    /* \"#utility.yul\":3801:3805   */\n  dup3\n    /* \"#utility.yul\":3798:3819   */\n  or\n    /* \"#utility.yul\":3790:3819   */\n  swap1\n  pop\n    /* \"#utility.yul\":3530:3825   */\n  swap3\n  swap2\n  pop\n  pop\n  jump\t// out\n    /* \"#utility.yul\":3830:5222   */\ntag_2:\n    /* \"#utility.yul\":3946:3983   */\n  tag_72\n    /* \"#utility.yul\":3979:3982   */\n  dup3\n    /* \"#utility.yul\":3946:3983   */\n  tag_5\n  jump\t// in\ntag_72:\n    /* \"#utility.yul\":4048:4066   */\n  0xffffffffffffffff\n    /* \"#utility.yul\":4040:4046   */\n  dup2\n    /* \"#utility.yul\":4037:4067   */\n  gt\n    /* \"#utility.yul\":4034:4090   */\n  iszero\n  tag_73\n  jumpi\n    /* \"#utility.yul\":4070:4088   */\n  tag_74\n  tag_6\n  jump\t// in\ntag_74:\n    /* \"#utility.yul\":4034:4090   */\ntag_73:\n    /* \"#utility.yul\":4114:4152   */\n  tag_75\n    /* \"#utility.yul\":4146:4150   */\n  dup3\n    /* \"#utility.yul\":4140:4151   */\n  sload\n    /* \"#utility.yul\":4114:4152   */\n  tag_8\n  jump\t// in\ntag_75:\n    /* \"#utility.yul\":4199:4265   */\n  tag_76\n    /* \"#utility.yul\":4258:4264   */\n  dup3\n    /* \"#utility.yul\":4250:4256   */\n  dup3\n    /* \"#utility.yul\":4244:4248   */\n  dup6\n    /* \"#utility.yul\":4199:4265   */\n  tag_21\n  jump\t// in\ntag_76:\n    /* \"#utility.yul\":4292:4293   */\n  0x00\n    /* \"#utility.yul\":4316:4320   */\n  0x20\n    /* \"#utility.yul\":4303:4320   */\n  swap1\n  pop\n    /* \"#utility.yul\":4348:4350   */\n  0x1f\n    /* \"#utility.yul\":4340:4346   */\n  dup4\n    /* \"#utility.yul\":4337:4351   */\n  gt\n    /* \"#utility.yul\":4365:4366   */\n  0x01\n    /* \"#utility.yul\":4360:4977   */\n  dup2\n  eq\n  tag_78\n  jumpi\n    /* \"#utility.yul\":5021:5022   */\n  0x00\n    /* \"#utility.yul\":5038:5044   */\n  dup5\n    /* \"#utility.yul\":5035:5112   */\n  iszero\n  tag_79\n  jumpi\n    /* \"#utility.yul\":5087:5096   */\n  dup3\n    /* \"#utility.yul\":5082:5085   */\n  dup8\n    /* \"#utility.yul\":5078:5097   */\n  add\n    /* \"#utility.yul\":5072:5098   */\n  mload\n    /* \"#utility.yul\":5063:5098   */\n  swap1\n  pop\n    /* \"#utility.yul\":5035:5112   */\ntag_79:\n    /* \"#utility.yul\":5138:5205   */\n  tag_80\n    /* \"#utility.yul\":5198:5204   */\n  dup6\n    /* \"#utility.yul\":5191:5196   */\n  dup3\n    /* \"#utility.yul\":5138:5205   */\n  tag_24\n  jump\t// in\ntag_80:\n    /* \"#utility.yul\":5132:5136   */\n  dup7\n    /* \"#utility.yul\":5125:5206   */\n  sstore\n    /* \"#utility.yul\":4994:5216   */\n  pop\n    /* \"#utility.yul\":4330:5216   */\n  jump(tag_77)\n    /* \"#utility.yul\":4360:4977   */\ntag_78:\n    /* \"#utility.yul\":4412:4416   */\n  0x1f\n    /* \"#utility.yul\":4408:4417   */\n  not\n    /* \"#utility.yul\":4400:4406   */\n  dup5\n    /* \"#utility.yul\":4396:4418   */\n  and\n    /* \"#utility.yul\":4446:4482   */\n  tag_81\n    /* \"#utility.yul\":4477:4481   */\n  dup7\n    /* \"#utility.yul\":4446:4482   */\n  tag_9\n  jump\t// in\ntag_81:\n    /* \"#utility.yul\":4504:4505   */\n  0x00\n    /* \"#utility.yul\":4518:4726   */\ntag_82:\n    /* \"#utility.yul\":4532:4539   */\n  dup3\n    /* \"#utility.yul\":4529:4530   */\n  dup2\n    /* \"#utility.yul\":4526:4540   */\n  lt\n    /* \"#utility.yul\":4518:4726   */\n  iszero\n  tag_84\n  jumpi\n    /* \"#utility.yul\":4611:4620   */\n  dup5\n    /* \"#utility.yul\":4606:4609   */\n  dup10\n    /* \"#utility.yul\":4602:4621   */\n  add\n    /* \"#utility.yul\":4596:4622   */\n  mload\n    /* \"#utility.yul\":4588:4594   */\n  dup3\n    /* \"#utility.yul\":4581:4623   */\n  sstore\n    /* \"#utility.yul\":4662:4663   */\n  0x01\n    /* \"#utility.yul\":4654:4660   */\n  dup3\n    /* \"#utility.yul\":4650:4664   */\n  add\n    /* \"#utility.yul\":4640:4664   */\n  swap2\n  pop\n    /* \"#utility.yul\":4709:4711   */\n  0x20\n    /* \"#utility.yul\":4698:4707   */\n  dup6\n    /* \"#utility.yul\":4694:4712   */\n  add\n    /* \"#utility.yul\":4681:4712   */\n  swap5\n  pop\n    /* \"#utility.yul\":4555:4559   */\n  0x20\n    /* \"#utility.yul\":4552:4553   */\n  dup2\n    /* \"#utility.yul\":4548:4560   */\n  add\n    /* \"#utility.yul\":4543:4560   */\n  swap1\n  pop\n    /* \"#utility.yul\":4518:4726   */\n  jump(tag_82)\ntag_84:\n    /* \"#utility.yul\":4754:4760   */\n  dup7\n    /* \"#utility.yul\":4745:4752   */\n  dup4\n    /* \"#utility.yul\":4742:4761   */\n  lt\n    /* \"#utility.yul\":4739:4918   */\n  iszero\n  tag_85\n  jumpi\n    /* \"#utility.yul\":4812:4821   */\n  dup5\n    /* \"#utility.yul\":4807:4810   */\n  dup10\n    /* \"#utility.yul\":4803:4822   */\n  add\n    /* \"#utility.yul\":4797:4823   */\n  mload\n    /* \"#utility.yul\":4855:4903   */\n  tag_86\n    /* \"#utility.yul\":4897:4901   */\n  0x1f\n    /* \"#utility.yul\":4889:4895   */\n  dup10\n    /* \"#utility.yul\":4885:4902   */\n  and\n    /* \"#utility.yul\":4874:4883   */\n  dup3\n    /* \"#utility.yul\":4855:4903   */\n  tag_23\n  jump\t// in\ntag_86:\n    /* \"#utility.yul\":4847:4853   */\n  dup4\n    /* \"#utility.yul\":4840:4904   */\n  sstore\n    /* \"#utility.yul\":4762:4918   */\n  pop\n    /* \"#utility.yul\":4739:4918   */\ntag_85:\n    /* \"#utility.yul\":4964:4965   */\n  0x01\n    /* \"#utility.yul\":4960:4961   */\n  0x02\n    /* \"#utility.yul\":4952:4958   */\n  dup9\n    /* \"#utility.yul\":4948:4962   */\n  mul\n    /* \"#utility.yul\":4944:4966   */\n  add\n    /* \"#utility.yul\":4938:4942   */\n  dup9\n    /* \"#utility.yul\":4931:4967   */\n  sstore\n    /* \"#utility.yul\":4367:4977   */\n  pop\n  pop\n  pop\n    /* \"#utility.yul\":4330:5216   */\ntag_77:\n  pop\n    /* \"#utility.yul\":3921:5222   */\n  pop\n  pop\n  pop\n    /* \"#utility.yul\":3830:5222   */\n  pop\n  pop\n  jump\t// out\n    /* \"6-Array/DynamicByteArray.sol\":300:4794  contract DynamicByteArray {... */\ntag_4:\n  dataSize(sub_0)\n  dup1\n  dataOffset(sub_0)\n  0x00\n  codecopy\n  0x00\n  return\nstop\n\nsub_0: assembly {\n        /* \"6-Array/DynamicByteArray.sol\":300:4794  contract DynamicByteArray {... */\n      mstore(0x40, 0x80)\n      callvalue\n      dup1\n      iszero\n      tag_1\n      jumpi\n      revert(0x00, 0x00)\n    tag_1:\n      pop\n      jumpi(tag_2, lt(calldatasize, 0x04))\n      shr(0xe0, calldataload(0x00))\n      dup1\n      0x48fe810c\n      gt\n      tag_14\n      jumpi\n      dup1\n      0x48fe810c\n      eq\n      tag_8\n      jumpi\n      dup1\n      0x6987b1fb\n      eq\n      tag_9\n      jumpi\n      dup1\n      0x9f871cd9\n      eq\n      tag_10\n      jumpi\n      dup1\n      0xbe1c766b\n      eq\n      tag_11\n      jumpi\n      dup1\n      0xcc082990\n      eq\n      tag_12\n      jumpi\n      dup1\n      0xee495002\n      eq\n      tag_13\n      jumpi\n      jump(tag_2)\n    tag_14:\n      dup1\n      0x0d273ad1\n      eq\n      tag_3\n      jumpi\n      dup1\n      0x302c3cfa\n      eq\n      tag_4\n      jumpi\n      dup1\n      0x3412fff0\n      eq\n      tag_5\n      jumpi\n      dup1\n      0x3a7d22bc\n      eq\n      tag_6\n      jumpi\n      dup1\n      0x47e46806\n      eq\n      tag_7\n      jumpi\n    tag_2:\n      revert(0x00, 0x00)\n        /* \"6-Array/DynamicByteArray.sol\":1874:2333  function appendToBytes(bytes1 newByte) public {... */\n    tag_3:\n      tag_15\n      0x04\n      dup1\n      calldatasize\n      sub\n      dup2\n      add\n      swap1\n      tag_16\n      swap2\n      swap1\n      tag_17\n      jump\t// in\n    tag_16:\n      tag_18\n      jump\t// in\n    tag_15:\n      stop\n        /* \"6-Array/DynamicByteArray.sol\":3986:4081  function getDynamicArrayLength() public view returns (uint) {... */\n    tag_4:\n      tag_19\n      tag_20\n      jump\t// in\n    tag_19:\n      mload(0x40)\n      tag_21\n      swap2\n      swap1\n      tag_22\n      jump\t// in\n    tag_21:\n      mload(0x40)\n      dup1\n      swap2\n      sub\n      swap1\n      return\n        /* \"6-Array/DynamicByteArray.sol\":3317:3411  function pushToDynamicArray(bytes memory newBytes) public {... */\n    tag_5:\n      tag_23\n      0x04\n      dup1\n      calldatasize\n      sub\n      dup2\n      add\n      swap1\n      tag_24\n      swap2\n      swap1\n      tag_25\n      jump\t// in\n    tag_24:\n      tag_26\n      jump\t// in\n    tag_23:\n      stop\n        /* \"6-Array/DynamicByteArray.sol\":2674:2827  function getElement(uint index) public view returns (bytes1) {... */\n    tag_6:\n      tag_27\n      0x04\n      dup1\n      calldatasize\n      sub\n      dup2\n      add\n      swap1\n      tag_28\n      swap2\n      swap1\n      tag_29\n      jump\t// in\n    tag_28:\n      tag_30\n      jump\t// in\n    tag_27:\n      mload(0x40)\n      tag_31\n      swap2\n      swap1\n      tag_32\n      jump\t// in\n    tag_31:\n      mload(0x40)\n      dup1\n      swap2\n      sub\n      swap1\n      return\n        /* \"6-Array/DynamicByteArray.sol\":4702:4792  function toString() public view returns (string memory) {... */\n    tag_7:\n      tag_33\n      tag_34\n      jump\t// in\n    tag_33:\n      mload(0x40)\n      tag_35\n      swap2\n      swap1\n      tag_36\n      jump\t// in\n    tag_35:\n      mload(0x40)\n      dup1\n      swap2\n      sub\n      swap1\n      return\n        /* \"6-Array/DynamicByteArray.sol\":3670:3842  function getFromDynamicArray(uint index) public view returns (bytes memory) {... */\n    tag_8:\n      tag_37\n      0x04\n      dup1\n      calldatasize\n      sub\n      dup2\n      add\n      swap1\n      tag_38\n      swap2\n      swap1\n      tag_29\n      jump\t// in\n    tag_38:\n      tag_39\n      jump\t// in\n    tag_37:\n      mload(0x40)\n      tag_40\n      swap2\n      swap1\n      tag_41\n      jump\t// in\n    tag_40:\n      mload(0x40)\n      dup1\n      swap2\n      sub\n      swap1\n      return\n        /* \"6-Array/DynamicByteArray.sol\":631:650  bytes[] public arr1 */\n    tag_9:\n      tag_42\n      0x04\n      dup1\n      calldatasize\n      sub\n      dup2\n      add\n      swap1\n      tag_43\n      swap2\n      swap1\n      tag_29\n      jump\t// in\n    tag_43:\n      tag_44\n      jump\t// in\n    tag_42:\n      mload(0x40)\n      tag_45\n      swap2\n      swap1\n      tag_41\n      jump\t// in\n    tag_45:\n      mload(0x40)\n      dup1\n      swap2\n      sub\n      swap1\n      return\n        /* \"6-Array/DynamicByteArray.sol\":4399:4463  function clearDynamicArray() public {... */\n    tag_10:\n      tag_46\n      tag_47\n      jump\t// in\n    tag_46:\n      stop\n        /* \"6-Array/DynamicByteArray.sol\":3013:3094  function getLength() public view returns (uint) {... */\n    tag_11:\n      tag_48\n      tag_49\n      jump\t// in\n    tag_48:\n      mload(0x40)\n      tag_50\n      swap2\n      swap1\n      tag_22\n      jump\t// in\n    tag_50:\n      mload(0x40)\n      dup1\n      swap2\n      sub\n      swap1\n      return\n        /* \"6-Array/DynamicByteArray.sol\":4212:4267  function clearBytes() public {... */\n    tag_12:\n      tag_51\n      tag_52\n      jump\t// in\n    tag_51:\n      stop\n        /* \"6-Array/DynamicByteArray.sol\":986:1009  bytes public b1 = 'abc' */\n    tag_13:\n      tag_53\n      tag_54\n      jump\t// in\n    tag_53:\n      mload(0x40)\n      tag_55\n      swap2\n      swap1\n      tag_41\n      jump\t// in\n    tag_55:\n      mload(0x40)\n      dup1\n      swap2\n      sub\n      swap1\n      return\n        /* \"6-Array/DynamicByteArray.sol\":1874:2333  function appendToBytes(bytes1 newByte) public {... */\n    tag_18:\n        /* \"6-Array/DynamicByteArray.sol\":1998:2016  bytes memory newB1 */\n      0x00\n        /* \"6-Array/DynamicByteArray.sol\":2041:2042  1 */\n      0x01\n        /* \"6-Array/DynamicByteArray.sol\":2029:2031  b1 */\n      dup1\n        /* \"6-Array/DynamicByteArray.sol\":2029:2038  b1.length */\n      dup1\n      sload\n      tag_57\n      swap1\n      tag_58\n      jump\t// in\n    tag_57:\n      swap1\n      pop\n        /* \"6-Array/DynamicByteArray.sol\":2029:2042  b1.length + 1 */\n      tag_59\n      swap2\n      swap1\n      tag_60\n      jump\t// in\n    tag_59:\n        /* \"6-Array/DynamicByteArray.sol\":2019:2043  new bytes(b1.length + 1) */\n      0xffffffffffffffff\n      dup2\n      gt\n      iszero\n      tag_61\n      jumpi\n      tag_62\n      tag_63\n      jump\t// in\n    tag_62:\n    tag_61:\n      mload(0x40)\n      swap1\n      dup1\n      dup3\n      mstore\n      dup1\n      0x1f\n      add\n      not(0x1f)\n      and\n      0x20\n      add\n      dup3\n      add\n      0x40\n      mstore\n      dup1\n      iszero\n      tag_64\n      jumpi\n      dup2\n      0x20\n      add\n      0x01\n      dup3\n      mul\n      dup1\n      calldatasize\n      dup4\n      calldatacopy\n      dup1\n      dup3\n      add\n      swap2\n      pop\n      pop\n      swap1\n      pop\n    tag_64:\n      pop\n        /* \"6-Array/DynamicByteArray.sol\":1998:2043  bytes memory newB1 = new bytes(b1.length + 1) */\n      swap1\n      pop\n        /* \"6-Array/DynamicByteArray.sol\":2111:2117  uint i */\n      0x00\n        /* \"6-Array/DynamicByteArray.sol\":2120:2121  0 */\n      0x00\n        /* \"6-Array/DynamicByteArray.sol\":2111:2121  uint i = 0 */\n      swap1\n      pop\n        /* \"6-Array/DynamicByteArray.sol\":2106:2184  for (uint i = 0; i < b1.length; i++) {... */\n    tag_65:\n        /* \"6-Array/DynamicByteArray.sol\":2127:2129  b1 */\n      0x01\n        /* \"6-Array/DynamicByteArray.sol\":2127:2136  b1.length */\n      dup1\n      sload\n      tag_68\n      swap1\n      tag_58\n      jump\t// in\n    tag_68:\n      swap1\n      pop\n        /* \"6-Array/DynamicByteArray.sol\":2123:2124  i */\n      dup2\n        /* \"6-Array/DynamicByteArray.sol\":2123:2136  i < b1.length */\n      lt\n        /* \"6-Array/DynamicByteArray.sol\":2106:2184  for (uint i = 0; i < b1.length; i++) {... */\n      iszero\n      tag_66\n      jumpi\n        /* \"6-Array/DynamicByteArray.sol\":2168:2170  b1 */\n      0x01\n        /* \"6-Array/DynamicByteArray.sol\":2171:2172  i */\n      dup2\n        /* \"6-Array/DynamicByteArray.sol\":2168:2173  b1[i] */\n      dup2\n      sload\n      tag_69\n      swap1\n      tag_58\n      jump\t// in\n    tag_69:\n      dup2\n      lt\n      tag_70\n      jumpi\n      tag_71\n      tag_72\n      jump\t// in\n    tag_71:\n    tag_70:\n      dup2\n      sload\n      0x01\n      and\n      iszero\n      tag_73\n      jumpi\n      swap1\n      0x00\n      mstore\n      keccak256(0x00, 0x20)\n      swap1\n      0x20\n      swap2\n      dup3\n      dup3\n      div\n      add\n      swap2\n      swap1\n      mod\n    tag_73:\n      swap1\n      sload\n      swap1\n      byte\n      0x0100000000000000000000000000000000000000000000000000000000000000\n      mul\n        /* \"6-Array/DynamicByteArray.sol\":2157:2162  newB1 */\n      dup3\n        /* \"6-Array/DynamicByteArray.sol\":2163:2164  i */\n      dup3\n        /* \"6-Array/DynamicByteArray.sol\":2157:2165  newB1[i] */\n      dup2\n      mload\n      dup2\n      lt\n      tag_74\n      jumpi\n      tag_75\n      tag_72\n      jump\t// in\n    tag_75:\n    tag_74:\n      0x20\n      add\n      add\n        /* \"6-Array/DynamicByteArray.sol\":2157:2173  newB1[i] = b1[i] */\n      swap1\n      not(0xffffffffffffffffffffffffffffffffffffffffffffffffffffffffffffff)\n      and\n      swap1\n      dup2\n      0x00\n      byte\n      swap1\n      mstore8\n      pop\n        /* \"6-Array/DynamicByteArray.sol\":2138:2141  i++ */\n      dup1\n      dup1\n      0x01\n      add\n      swap2\n      pop\n      pop\n        /* \"6-Array/DynamicByteArray.sol\":2106:2184  for (uint i = 0; i < b1.length; i++) {... */\n      jump(tag_65)\n    tag_66:\n      pop\n        /* \"6-Array/DynamicByteArray.sol\":2259:2266  newByte */\n      dup2\n        /* \"6-Array/DynamicByteArray.sol\":2233:2238  newB1 */\n      dup2\n        /* \"6-Array/DynamicByteArray.sol\":2254:2255  1 */\n      0x01\n        /* \"6-Array/DynamicByteArray.sol\":2239:2244  newB1 */\n      dup4\n        /* \"6-Array/DynamicByteArray.sol\":2239:2251  newB1.length */\n      mload\n        /* \"6-Array/DynamicByteArray.sol\":2239:2255  newB1.length - 1 */\n      tag_76\n      swap2\n      swap1\n      tag_77\n      jump\t// in\n    tag_76:\n        /* \"6-Array/DynamicByteArray.sol\":2233:2256  newB1[newB1.length - 1] */\n      dup2\n      mload\n      dup2\n      lt\n      tag_78\n      jumpi\n      tag_79\n      tag_72\n      jump\t// in\n    tag_79:\n    tag_78:\n      0x20\n      add\n      add\n        /* \"6-Array/DynamicByteArray.sol\":2233:2266  newB1[newB1.length - 1] = newByte */\n      swap1\n      not(0xffffffffffffffffffffffffffffffffffffffffffffffffffffffffffffff)\n      and\n      swap1\n      dup2\n      0x00\n      byte\n      swap1\n      mstore8\n      pop\n        /* \"6-Array/DynamicByteArray.sol\":2321:2326  newB1 */\n      dup1\n        /* \"6-Array/DynamicByteArray.sol\":2316:2318  b1 */\n      0x01\n        /* \"6-Array/DynamicByteArray.sol\":2316:2326  b1 = newB1 */\n      swap1\n      dup2\n      tag_80\n      swap2\n      swap1\n      tag_81\n      jump\t// in\n    tag_80:\n      pop\n        /* \"6-Array/DynamicByteArray.sol\":1920:2333  {... */\n      pop\n        /* \"6-Array/DynamicByteArray.sol\":1874:2333  function appendToBytes(bytes1 newByte) public {... */\n      pop\n      jump\t// out\n        /* \"6-Array/DynamicByteArray.sol\":3986:4081  function getDynamicArrayLength() public view returns (uint) {... */\n    tag_20:\n        /* \"6-Array/DynamicByteArray.sol\":4040:4044  uint */\n      0x00\n        /* \"6-Array/DynamicByteArray.sol\":4063:4067  arr1 */\n      0x00\n        /* \"6-Array/DynamicByteArray.sol\":4063:4074  arr1.length */\n      dup1\n      sload\n      swap1\n      pop\n        /* \"6-Array/DynamicByteArray.sol\":4056:4074  return arr1.length */\n      swap1\n      pop\n        /* \"6-Array/DynamicByteArray.sol\":3986:4081  function getDynamicArrayLength() public view returns (uint) {... */\n      swap1\n      jump\t// out\n        /* \"6-Array/DynamicByteArray.sol\":3317:3411  function pushToDynamicArray(bytes memory newBytes) public {... */\n    tag_26:\n        /* \"6-Array/DynamicByteArray.sol\":3385:3389  arr1 */\n      0x00\n        /* \"6-Array/DynamicByteArray.sol\":3395:3403  newBytes */\n      dup2\n        /* \"6-Array/DynamicByteArray.sol\":3385:3404  arr1.push(newBytes) */\n      swap1\n      dup1\n      0x01\n      dup2\n      sload\n      add\n      dup1\n      dup3\n      sstore\n      dup1\n      swap2\n      pop\n      pop\n      0x01\n      swap1\n      sub\n      swap1\n      0x00\n      mstore\n      keccak256(0x00, 0x20)\n      add\n      0x00\n      swap1\n      swap2\n      swap1\n      swap2\n      swap1\n      swap2\n      pop\n      swap1\n      dup2\n      tag_85\n      swap2\n      swap1\n      tag_81\n      jump\t// in\n    tag_85:\n      pop\n        /* \"6-Array/DynamicByteArray.sol\":3317:3411  function pushToDynamicArray(bytes memory newBytes) public {... */\n      pop\n      jump\t// out\n        /* \"6-Array/DynamicByteArray.sol\":2674:2827  function getElement(uint index) public view returns (bytes1) {... */\n    tag_30:\n        /* \"6-Array/DynamicByteArray.sol\":2727:2733  bytes1 */\n      0x00\n        /* \"6-Array/DynamicByteArray.sol\":2761:2763  b1 */\n      0x01\n        /* \"6-Array/DynamicByteArray.sol\":2761:2770  b1.length */\n      dup1\n      sload\n      tag_87\n      swap1\n      tag_58\n      jump\t// in\n    tag_87:\n      swap1\n      pop\n        /* \"6-Array/DynamicByteArray.sol\":2753:2758  index */\n      dup3\n        /* \"6-Array/DynamicByteArray.sol\":2753:2770  index < b1.length */\n      lt\n        /* \"6-Array/DynamicByteArray.sol\":2745:2794  require(index < b1.length, \"Index out of bounds\") */\n      tag_88\n      jumpi\n      mload(0x40)\n      0x08c379a000000000000000000000000000000000000000000000000000000000\n      dup2\n      mstore\n      0x04\n      add\n      tag_89\n      swap1\n      tag_90\n      jump\t// in\n    tag_89:\n      mload(0x40)\n      dup1\n      swap2\n      sub\n      swap1\n      revert\n    tag_88:\n        /* \"6-Array/DynamicByteArray.sol\":2811:2813  b1 */\n      0x01\n        /* \"6-Array/DynamicByteArray.sol\":2814:2819  index */\n      dup3\n        /* \"6-Array/DynamicByteArray.sol\":2811:2820  b1[index] */\n      dup2\n      sload\n      tag_91\n      swap1\n      tag_58\n      jump\t// in\n    tag_91:\n      dup2\n      lt\n      tag_92\n      jumpi\n      tag_93\n      tag_72\n      jump\t// in\n    tag_93:\n    tag_92:\n      dup2\n      sload\n      0x01\n      and\n      iszero\n      tag_94\n      jumpi\n      swap1\n      0x00\n      mstore\n      keccak256(0x00, 0x20)\n      swap1\n      0x20\n      swap2\n      dup3\n      dup3\n      div\n      add\n      swap2\n      swap1\n      mod\n    tag_94:\n      swap1\n      sload\n      swap1\n      byte\n      0x0100000000000000000000000000000000000000000000000000000000000000\n      mul\n        /* \"6-Array/DynamicByteArray.sol\":2804:2820  return b1[index] */\n      swap1\n      pop\n        /* \"6-Array/DynamicByteArray.sol\":2674:2827  function getElement(uint index) public view returns (bytes1) {... */\n      swap2\n      swap1\n      pop\n      jump\t// out\n        /* \"6-Array/DynamicByteArray.sol\":4702:4792  function toString() public view returns (string memory) {... */\n    tag_34:\n        /* \"6-Array/DynamicByteArray.sol\":4743:4756  string memory */\n      0x60\n        /* \"6-Array/DynamicByteArray.sol\":4782:4784  b1 */\n      0x01\n        /* \"6-Array/DynamicByteArray.sol\":4768:4785  return string(b1) */\n      dup1\n      sload\n      tag_96\n      swap1\n      tag_58\n      jump\t// in\n    tag_96:\n      dup1\n      0x1f\n      add\n      0x20\n      dup1\n      swap2\n      div\n      mul\n      0x20\n      add\n      mload(0x40)\n      swap1\n      dup2\n      add\n      0x40\n      mstore\n      dup1\n      swap3\n      swap2\n      swap1\n      dup2\n      dup2\n      mstore\n      0x20\n      add\n      dup3\n      dup1\n      sload\n      tag_97\n      swap1\n      tag_58\n      jump\t// in\n    tag_97:\n      dup1\n      iszero\n      tag_98\n      jumpi\n      dup1\n      0x1f\n      lt\n      tag_99\n      jumpi\n      0x0100\n      dup1\n      dup4\n      sload\n      div\n      mul\n      dup4\n      mstore\n      swap2\n      0x20\n      add\n      swap2\n      jump(tag_98)\n    tag_99:\n      dup3\n      add\n      swap2\n      swap1\n      0x00\n      mstore\n      keccak256(0x00, 0x20)\n      swap1\n    tag_100:\n      dup2\n      sload\n      dup2\n      mstore\n      swap1\n      0x01\n      add\n      swap1\n      0x20\n      add\n      dup1\n      dup4\n      gt\n      tag_100\n      jumpi\n      dup3\n      swap1\n      sub\n      0x1f\n      and\n      dup3\n      add\n      swap2\n    tag_98:\n      pop\n      pop\n      pop\n      pop\n      pop\n      swap1\n      pop\n        /* \"6-Array/DynamicByteArray.sol\":4702:4792  function toString() public view returns (string memory) {... */\n      swap1\n      jump\t// out\n        /* \"6-Array/DynamicByteArray.sol\":3670:3842  function getFromDynamicArray(uint index) public view returns (bytes memory) {... */\n    tag_39:\n        /* \"6-Array/DynamicByteArray.sol\":3732:3744  bytes memory */\n      0x60\n        /* \"6-Array/DynamicByteArray.sol\":3772:3776  arr1 */\n      0x00\n        /* \"6-Array/DynamicByteArray.sol\":3772:3783  arr1.length */\n      dup1\n      sload\n      swap1\n      pop\n        /* \"6-Array/DynamicByteArray.sol\":3764:3769  index */\n      dup3\n        /* \"6-Array/DynamicByteArray.sol\":3764:3783  index < arr1.length */\n      lt\n        /* \"6-Array/DynamicByteArray.sol\":3756:3807  require(index < arr1.length, \"Index out of bounds\") */\n      tag_102\n      jumpi\n      mload(0x40)\n      0x08c379a000000000000000000000000000000000000000000000000000000000\n      dup2\n      mstore\n      0x04\n      add\n      tag_103\n      swap1\n      tag_90\n      jump\t// in\n    tag_103:\n      mload(0x40)\n      dup1\n      swap2\n      sub\n      swap1\n      revert\n    tag_102:\n        /* \"6-Array/DynamicByteArray.sol\":3824:3828  arr1 */\n      0x00\n        /* \"6-Array/DynamicByteArray.sol\":3829:3834  index */\n      dup3\n        /* \"6-Array/DynamicByteArray.sol\":3824:3835  arr1[index] */\n      dup2\n      sload\n      dup2\n      lt\n      tag_104\n      jumpi\n      tag_105\n      tag_72\n      jump\t// in\n    tag_105:\n    tag_104:\n      swap1\n      0x00\n      mstore\n      keccak256(0x00, 0x20)\n      add\n        /* \"6-Array/DynamicByteArray.sol\":3817:3835  return arr1[index] */\n      dup1\n      sload\n      tag_107\n      swap1\n      tag_58\n      jump\t// in\n    tag_107:\n      dup1\n      0x1f\n      add\n      0x20\n      dup1\n      swap2\n      div\n      mul\n      0x20\n      add\n      mload(0x40)\n      swap1\n      dup2\n      add\n      0x40\n      mstore\n      dup1\n      swap3\n      swap2\n      swap1\n      dup2\n      dup2\n      mstore\n      0x20\n      add\n      dup3\n      dup1\n      sload\n      tag_108\n      swap1\n      tag_58\n      jump\t// in\n    tag_108:\n      dup1\n      iszero\n      tag_109\n      jumpi\n      dup1\n      0x1f\n      lt\n      tag_110\n      jumpi\n      0x0100\n      dup1\n      dup4\n      sload\n      div\n      mul\n      dup4\n      mstore\n      swap2\n      0x20\n      add\n      swap2\n      jump(tag_109)\n    tag_110:\n      dup3\n      add\n      swap2\n      swap1\n      0x00\n      mstore\n      keccak256(0x00, 0x20)\n      swap1\n    tag_111:\n      dup2\n      sload\n      dup2\n      mstore\n      swap1\n      0x01\n      add\n      swap1\n      0x20\n      add\n      dup1\n      dup4\n      gt\n      tag_111\n      jumpi\n      dup3\n      swap1\n      sub\n      0x1f\n      and\n      dup3\n      add\n      swap2\n    tag_109:\n      pop\n      pop\n      pop\n      pop\n      pop\n      swap1\n      pop\n        /* \"6-Array/DynamicByteArray.sol\":3670:3842  function getFromDynamicArray(uint index) public view returns (bytes memory) {... */\n      swap2\n      swap1\n      pop\n      jump\t// out\n        /* \"6-Array/DynamicByteArray.sol\":631:650  bytes[] public arr1 */\n    tag_44:\n      0x00\n      dup2\n      dup2\n      sload\n      dup2\n      lt\n      tag_112\n      jumpi\n      0x00\n      dup1\n      revert\n    tag_112:\n      swap1\n      0x00\n      mstore\n      keccak256(0x00, 0x20)\n      add\n      0x00\n      swap2\n      pop\n      swap1\n      pop\n      dup1\n      sload\n      tag_114\n      swap1\n      tag_58\n      jump\t// in\n    tag_114:\n      dup1\n      0x1f\n      add\n      0x20\n      dup1\n      swap2\n      div\n      mul\n      0x20\n      add\n      mload(0x40)\n      swap1\n      dup2\n      add\n      0x40\n      mstore\n      dup1\n      swap3\n      swap2\n      swap1\n      dup2\n      dup2\n      mstore\n      0x20\n      add\n      dup3\n      dup1\n      sload\n      tag_115\n      swap1\n      tag_58\n      jump\t// in\n    tag_115:\n      dup1\n      iszero\n      tag_116\n      jumpi\n      dup1\n      0x1f\n      lt\n      tag_117\n      jumpi\n      0x0100\n      dup1\n      dup4\n      sload\n      div\n      mul\n      dup4\n      mstore\n      swap2\n      0x20\n      add\n      swap2\n      jump(tag_116)\n    tag_117:\n      dup3\n      add\n      swap2\n      swap1\n      0x00\n      mstore\n      keccak256(0x00, 0x20)\n      swap1\n    tag_118:\n      dup2\n      sload\n      dup2\n      mstore\n      swap1\n      0x01\n      add\n      swap1\n      0x20\n      add\n      dup1\n      dup4\n      gt\n      tag_118\n      jumpi\n      dup3\n      swap1\n      sub\n      0x1f\n      and\n      dup3\n      add\n      swap2\n    tag_116:\n      pop\n      pop\n      pop\n      pop\n      pop\n      dup2\n      jump\t// out\n        /* \"6-Array/DynamicByteArray.sol\":4399:4463  function clearDynamicArray() public {... */\n    tag_47:\n        /* \"6-Array/DynamicByteArray.sol\":4452:4456  arr1 */\n      0x00\n      0x00\n        /* \"6-Array/DynamicByteArray.sol\":4445:4456  delete arr1 */\n      tag_120\n      swap2\n      swap1\n      tag_121\n      jump\t// in\n    tag_120:\n        /* \"6-Array/DynamicByteArray.sol\":4399:4463  function clearDynamicArray() public {... */\n      jump\t// out\n        /* \"6-Array/DynamicByteArray.sol\":3013:3094  function getLength() public view returns (uint) {... */\n    tag_49:\n        /* \"6-Array/DynamicByteArray.sol\":3055:3059  uint */\n      0x00\n        /* \"6-Array/DynamicByteArray.sol\":3078:3080  b1 */\n      0x01\n        /* \"6-Array/DynamicByteArray.sol\":3078:3087  b1.length */\n      dup1\n      sload\n      tag_123\n      swap1\n      tag_58\n      jump\t// in\n    tag_123:\n      swap1\n      pop\n        /* \"6-Array/DynamicByteArray.sol\":3071:3087  return b1.length */\n      swap1\n      pop\n        /* \"6-Array/DynamicByteArray.sol\":3013:3094  function getLength() public view returns (uint) {... */\n      swap1\n      jump\t// out\n        /* \"6-Array/DynamicByteArray.sol\":4212:4267  function clearBytes() public {... */\n    tag_52:\n        /* \"6-Array/DynamicByteArray.sol\":4258:4260  b1 */\n      0x01\n      0x00\n        /* \"6-Array/DynamicByteArray.sol\":4251:4260  delete b1 */\n      tag_125\n      swap2\n      swap1\n      tag_126\n      jump\t// in\n    tag_125:\n        /* \"6-Array/DynamicByteArray.sol\":4212:4267  function clearBytes() public {... */\n      jump\t// out\n        /* \"6-Array/DynamicByteArray.sol\":986:1009  bytes public b1 = 'abc' */\n    tag_54:\n      0x01\n      dup1\n      sload\n      tag_127\n      swap1\n      tag_58\n      jump\t// in\n    tag_127:\n      dup1\n      0x1f\n      add\n      0x20\n      dup1\n      swap2\n      div\n      mul\n      0x20\n      add\n      mload(0x40)\n      swap1\n      dup2\n      add\n      0x40\n      mstore\n      dup1\n      swap3\n      swap2\n      swap1\n      dup2\n      dup2\n      mstore\n      0x20\n      add\n      dup3\n      dup1\n      sload\n      tag_128\n      swap1\n      tag_58\n      jump\t// in\n    tag_128:\n      dup1\n      iszero\n      tag_129\n      jumpi\n      dup1\n      0x1f\n      lt\n      tag_130\n      jumpi\n      0x0100\n      dup1\n      dup4\n      sload\n      div\n      mul\n      dup4\n      mstore\n      swap2\n      0x20\n      add\n      swap2\n      jump(tag_129)\n    tag_130:\n      dup3\n      add\n      swap2\n      swap1\n      0x00\n      mstore\n      keccak256(0x00, 0x20)\n      swap1\n    tag_131:\n      dup2\n      sload\n      dup2\n      mstore\n      swap1\n      0x01\n      add\n      swap1\n      0x20\n      add\n      dup1\n      dup4\n      gt\n      tag_131\n      jumpi\n      dup3\n      swap1\n      sub\n      0x1f\n      and\n      dup3\n      add\n      swap2\n    tag_129:\n      pop\n      pop\n      pop\n      pop\n      pop\n      dup2\n      jump\t// out\n    tag_121:\n      pop\n      dup1\n      sload\n      0x00\n      dup3\n      sstore\n      swap1\n      0x00\n      mstore\n      keccak256(0x00, 0x20)\n      swap1\n      dup2\n      add\n      swap1\n      tag_133\n      swap2\n      swap1\n      tag_134\n      jump\t// in\n    tag_133:\n      pop\n      jump\t// out\n    tag_126:\n      pop\n      dup1\n      sload\n      tag_135\n      swap1\n      tag_58\n      jump\t// in\n    tag_135:\n      0x00\n      dup3\n      sstore\n      dup1\n      0x1f\n      lt\n      tag_137\n      jumpi\n      pop\n      jump(tag_136)\n    tag_137:\n      0x1f\n      add\n      0x20\n      swap1\n      div\n      swap1\n      0x00\n      mstore\n      keccak256(0x00, 0x20)\n      swap1\n      dup2\n      add\n      swap1\n      tag_138\n      swap2\n      swap1\n      tag_139\n      jump\t// in\n    tag_138:\n    tag_136:\n      pop\n      jump\t// out\n    tag_134:\n    tag_140:\n      dup1\n      dup3\n      gt\n      iszero\n      tag_141\n      jumpi\n      0x00\n      dup2\n      dup2\n      tag_142\n      swap2\n      swap1\n      tag_126\n      jump\t// in\n    tag_142:\n      pop\n      0x01\n      add\n      jump(tag_140)\n    tag_141:\n      pop\n      swap1\n      jump\t// out\n    tag_139:\n    tag_143:\n      dup1\n      dup3\n      gt\n      iszero\n      tag_144\n      jumpi\n      0x00\n      dup2\n      0x00\n      swap1\n      sstore\n      pop\n      0x01\n      add\n      jump(tag_143)\n    tag_144:\n      pop\n      swap1\n      jump\t// out\n        /* \"#utility.yul\":7:82   */\n    tag_145:\n        /* \"#utility.yul\":40:46   */\n      0x00\n        /* \"#utility.yul\":73:75   */\n      0x40\n        /* \"#utility.yul\":67:76   */\n      mload\n        /* \"#utility.yul\":57:76   */\n      swap1\n      pop\n        /* \"#utility.yul\":7:82   */\n      swap1\n      jump\t// out\n        /* \"#utility.yul\":88:205   */\n    tag_146:\n        /* \"#utility.yul\":197:198   */\n      0x00\n        /* \"#utility.yul\":194:195   */\n      0x00\n        /* \"#utility.yul\":187:199   */\n      revert\n        /* \"#utility.yul\":211:328   */\n    tag_147:\n        /* \"#utility.yul\":320:321   */\n      0x00\n        /* \"#utility.yul\":317:318   */\n      0x00\n        /* \"#utility.yul\":310:322   */\n      revert\n        /* \"#utility.yul\":334:483   */\n    tag_148:\n        /* \"#utility.yul\":370:377   */\n      0x00\n        /* \"#utility.yul\":410:476   */\n      0xff00000000000000000000000000000000000000000000000000000000000000\n        /* \"#utility.yul\":403:408   */\n      dup3\n        /* \"#utility.yul\":399:477   */\n      and\n        /* \"#utility.yul\":388:477   */\n      swap1\n      pop\n        /* \"#utility.yul\":334:483   */\n      swap2\n      swap1\n      pop\n      jump\t// out\n        /* \"#utility.yul\":489:609   */\n    tag_149:\n        /* \"#utility.yul\":561:584   */\n      tag_197\n        /* \"#utility.yul\":578:583   */\n      dup2\n        /* \"#utility.yul\":561:584   */\n      tag_148\n      jump\t// in\n    tag_197:\n        /* \"#utility.yul\":554:559   */\n      dup2\n        /* \"#utility.yul\":551:585   */\n      eq\n        /* \"#utility.yul\":541:603   */\n      tag_198\n      jumpi\n        /* \"#utility.yul\":599:600   */\n      0x00\n        /* \"#utility.yul\":596:597   */\n      0x00\n        /* \"#utility.yul\":589:601   */\n      revert\n        /* \"#utility.yul\":541:603   */\n    tag_198:\n        /* \"#utility.yul\":489:609   */\n      pop\n      jump\t// out\n        /* \"#utility.yul\":615:752   */\n    tag_150:\n        /* \"#utility.yul\":660:665   */\n      0x00\n        /* \"#utility.yul\":698:704   */\n      dup2\n        /* \"#utility.yul\":685:705   */\n      calldataload\n        /* \"#utility.yul\":676:705   */\n      swap1\n      pop\n        /* \"#utility.yul\":714:746   */\n      tag_200\n        /* \"#utility.yul\":740:745   */\n      dup2\n        /* \"#utility.yul\":714:746   */\n      tag_149\n      jump\t// in\n    tag_200:\n        /* \"#utility.yul\":615:752   */\n      swap3\n      swap2\n      pop\n      pop\n      jump\t// out\n        /* \"#utility.yul\":758:1085   */\n    tag_17:\n        /* \"#utility.yul\":816:822   */\n      0x00\n        /* \"#utility.yul\":865:867   */\n      0x20\n        /* \"#utility.yul\":853:862   */\n      dup3\n        /* \"#utility.yul\":844:851   */\n      dup5\n        /* \"#utility.yul\":840:863   */\n      sub\n        /* \"#utility.yul\":836:868   */\n      slt\n        /* \"#utility.yul\":833:952   */\n      iszero\n      tag_202\n      jumpi\n        /* \"#utility.yul\":871:950   */\n      tag_203\n      tag_146\n      jump\t// in\n    tag_203:\n        /* \"#utility.yul\":833:952   */\n    tag_202:\n        /* \"#utility.yul\":991:992   */\n      0x00\n        /* \"#utility.yul\":1016:1068   */\n      tag_204\n        /* \"#utility.yul\":1060:1067   */\n      dup5\n        /* \"#utility.yul\":1051:1057   */\n      dup3\n        /* \"#utility.yul\":1040:1049   */\n      dup6\n        /* \"#utility.yul\":1036:1058   */\n      add\n        /* \"#utility.yul\":1016:1068   */\n      tag_150\n      jump\t// in\n    tag_204:\n        /* \"#utility.yul\":1006:1068   */\n      swap2\n      pop\n        /* \"#utility.yul\":962:1078   */\n      pop\n        /* \"#utility.yul\":758:1085   */\n      swap3\n      swap2\n      pop\n      pop\n      jump\t// out\n        /* \"#utility.yul\":1091:1168   */\n    tag_151:\n        /* \"#utility.yul\":1128:1135   */\n      0x00\n        /* \"#utility.yul\":1157:1162   */\n      dup2\n        /* \"#utility.yul\":1146:1162   */\n      swap1\n      pop\n        /* \"#utility.yul\":1091:1168   */\n      swap2\n      swap1\n      pop\n      jump\t// out\n        /* \"#utility.yul\":1174:1292   */\n    tag_152:\n        /* \"#utility.yul\":1261:1285   */\n      tag_207\n        /* \"#utility.yul\":1279:1284   */\n      dup2\n        /* \"#utility.yul\":1261:1285   */\n      tag_151\n      jump\t// in\n    tag_207:\n        /* \"#utility.yul\":1256:1259   */\n      dup3\n        /* \"#utility.yul\":1249:1286   */\n      mstore\n        /* \"#utility.yul\":1174:1292   */\n      pop\n      pop\n      jump\t// out\n        /* \"#utility.yul\":1298:1520   */\n    tag_22:\n        /* \"#utility.yul\":1391:1395   */\n      0x00\n        /* \"#utility.yul\":1429:1431   */\n      0x20\n        /* \"#utility.yul\":1418:1427   */\n      dup3\n        /* \"#utility.yul\":1414:1432   */\n      add\n        /* \"#utility.yul\":1406:1432   */\n      swap1\n      pop\n        /* \"#utility.yul\":1442:1513   */\n      tag_209\n        /* \"#utility.yul\":1510:1511   */\n      0x00\n        /* \"#utility.yul\":1499:1508   */\n      dup4\n        /* \"#utility.yul\":1495:1512   */\n      add\n        /* \"#utility.yul\":1486:1492   */\n      dup5\n        /* \"#utility.yul\":1442:1513   */\n      tag_152\n      jump\t// in\n    tag_209:\n        /* \"#utility.yul\":1298:1520   */\n      swap3\n      swap2\n      pop\n      pop\n      jump\t// out\n        /* \"#utility.yul\":1526:1643   */\n    tag_153:\n        /* \"#utility.yul\":1635:1636   */\n      0x00\n        /* \"#utility.yul\":1632:1633   */\n      0x00\n        /* \"#utility.yul\":1625:1637   */\n      revert\n        /* \"#utility.yul\":1649:1766   */\n    tag_154:\n        /* \"#utility.yul\":1758:1759   */\n      0x00\n        /* \"#utility.yul\":1755:1756   */\n      0x00\n        /* \"#utility.yul\":1748:1760   */\n      revert\n        /* \"#utility.yul\":1772:1874   */\n    tag_155:\n        /* \"#utility.yul\":1813:1819   */\n      0x00\n        /* \"#utility.yul\":1864:1866   */\n      0x1f\n        /* \"#utility.yul\":1860:1867   */\n      not\n        /* \"#utility.yul\":1855:1857   */\n      0x1f\n        /* \"#utility.yul\":1848:1853   */\n      dup4\n        /* \"#utility.yul\":1844:1858   */\n      add\n        /* \"#utility.yul\":1840:1868   */\n      and\n        /* \"#utility.yul\":1830:1868   */\n      swap1\n      pop\n        /* \"#utility.yul\":1772:1874   */\n      swap2\n      swap1\n      pop\n      jump\t// out\n        /* \"#utility.yul\":1880:2060   */\n    tag_63:\n        /* \"#utility.yul\":1928:2005   */\n      0x4e487b7100000000000000000000000000000000000000000000000000000000\n        /* \"#utility.yul\":1925:1926   */\n      0x00\n        /* \"#utility.yul\":1918:2006   */\n      mstore\n        /* \"#utility.yul\":2025:2029   */\n      0x41\n        /* \"#utility.yul\":2022:2023   */\n      0x04\n        /* \"#utility.yul\":2015:2030   */\n      mstore\n        /* \"#utility.yul\":2049:2053   */\n      0x24\n        /* \"#utility.yul\":2046:2047   */\n      0x00\n        /* \"#utility.yul\":2039:2054   */\n      revert\n        /* \"#utility.yul\":2066:2347   */\n    tag_156:\n        /* \"#utility.yul\":2149:2176   */\n      tag_215\n        /* \"#utility.yul\":2171:2175   */\n      dup3\n        /* \"#utility.yul\":2149:2176   */\n      tag_155\n      jump\t// in\n    tag_215:\n        /* \"#utility.yul\":2141:2147   */\n      dup2\n        /* \"#utility.yul\":2137:2177   */\n      add\n        /* \"#utility.yul\":2279:2285   */\n      dup2\n        /* \"#utility.yul\":2267:2277   */\n      dup2\n        /* \"#utility.yul\":2264:2286   */\n      lt\n        /* \"#utility.yul\":2243:2261   */\n      0xffffffffffffffff\n        /* \"#utility.yul\":2231:2241   */\n      dup3\n        /* \"#utility.yul\":2228:2262   */\n      gt\n        /* \"#utility.yul\":2225:2287   */\n      or\n        /* \"#utility.yul\":2222:2310   */\n      iszero\n      tag_216\n      jumpi\n        /* \"#utility.yul\":2290:2308   */\n      tag_217\n      tag_63\n      jump\t// in\n    tag_217:\n        /* \"#utility.yul\":2222:2310   */\n    tag_216:\n        /* \"#utility.yul\":2330:2340   */\n      dup1\n        /* \"#utility.yul\":2326:2328   */\n      0x40\n        /* \"#utility.yul\":2319:2341   */\n      mstore\n        /* \"#utility.yul\":2109:2347   */\n      pop\n        /* \"#utility.yul\":2066:2347   */\n      pop\n      pop\n      jump\t// out\n        /* \"#utility.yul\":2353:2482   */\n    tag_157:\n        /* \"#utility.yul\":2387:2393   */\n      0x00\n        /* \"#utility.yul\":2414:2434   */\n      tag_219\n      tag_145\n      jump\t// in\n    tag_219:\n        /* \"#utility.yul\":2404:2434   */\n      swap1\n      pop\n        /* \"#utility.yul\":2443:2476   */\n      tag_220\n        /* \"#utility.yul\":2471:2475   */\n      dup3\n        /* \"#utility.yul\":2463:2469   */\n      dup3\n        /* \"#utility.yul\":2443:2476   */\n      tag_156\n      jump\t// in\n    tag_220:\n        /* \"#utility.yul\":2353:2482   */\n      swap2\n      swap1\n      pop\n      jump\t// out\n        /* \"#utility.yul\":2488:2795   */\n    tag_158:\n        /* \"#utility.yul\":2549:2553   */\n      0x00\n        /* \"#utility.yul\":2639:2657   */\n      0xffffffffffffffff\n        /* \"#utility.yul\":2631:2637   */\n      dup3\n        /* \"#utility.yul\":2628:2658   */\n      gt\n        /* \"#utility.yul\":2625:2681   */\n      iszero\n      tag_222\n      jumpi\n        /* \"#utility.yul\":2661:2679   */\n      tag_223\n      tag_63\n      jump\t// in\n    tag_223:\n        /* \"#utility.yul\":2625:2681   */\n    tag_222:\n        /* \"#utility.yul\":2699:2728   */\n      tag_224\n        /* \"#utility.yul\":2721:2727   */\n      dup3\n        /* \"#utility.yul\":2699:2728   */\n      tag_155\n      jump\t// in\n    tag_224:\n        /* \"#utility.yul\":2691:2728   */\n      swap1\n      pop\n        /* \"#utility.yul\":2783:2787   */\n      0x20\n        /* \"#utility.yul\":2777:2781   */\n      dup2\n        /* \"#utility.yul\":2773:2788   */\n      add\n        /* \"#utility.yul\":2765:2788   */\n      swap1\n      pop\n        /* \"#utility.yul\":2488:2795   */\n      swap2\n      swap1\n      pop\n      jump\t// out\n        /* \"#utility.yul\":2801:2949   */\n    tag_159:\n        /* \"#utility.yul\":2899:2905   */\n      dup3\n        /* \"#utility.yul\":2894:2897   */\n      dup2\n        /* \"#utility.yul\":2889:2892   */\n      dup4\n        /* \"#utility.yul\":2876:2906   */\n      calldatacopy\n        /* \"#utility.yul\":2940:2941   */\n      0x00\n        /* \"#utility.yul\":2931:2937   */\n      dup4\n        /* \"#utility.yul\":2926:2929   */\n      dup4\n        /* \"#utility.yul\":2922:2938   */\n      add\n        /* \"#utility.yul\":2915:2942   */\n      mstore\n        /* \"#utility.yul\":2801:2949   */\n      pop\n      pop\n      pop\n      jump\t// out\n        /* \"#utility.yul\":2955:3378   */\n    tag_160:\n        /* \"#utility.yul\":3032:3037   */\n      0x00\n        /* \"#utility.yul\":3057:3122   */\n      tag_227\n        /* \"#utility.yul\":3073:3121   */\n      tag_228\n        /* \"#utility.yul\":3114:3120   */\n      dup5\n        /* \"#utility.yul\":3073:3121   */\n      tag_158\n      jump\t// in\n    tag_228:\n        /* \"#utility.yul\":3057:3122   */\n      tag_157\n      jump\t// in\n    tag_227:\n        /* \"#utility.yul\":3048:3122   */\n      swap1\n      pop\n        /* \"#utility.yul\":3145:3151   */\n      dup3\n        /* \"#utility.yul\":3138:3143   */\n      dup2\n        /* \"#utility.yul\":3131:3152   */\n      mstore\n        /* \"#utility.yul\":3183:3187   */\n      0x20\n        /* \"#utility.yul\":3176:3181   */\n      dup2\n        /* \"#utility.yul\":3172:3188   */\n      add\n        /* \"#utility.yul\":3221:3224   */\n      dup5\n        /* \"#utility.yul\":3212:3218   */\n      dup5\n        /* \"#utility.yul\":3207:3210   */\n      dup5\n        /* \"#utility.yul\":3203:3219   */\n      add\n        /* \"#utility.yul\":3200:3225   */\n      gt\n        /* \"#utility.yul\":3197:3309   */\n      iszero\n      tag_229\n      jumpi\n        /* \"#utility.yul\":3228:3307   */\n      tag_230\n      tag_154\n      jump\t// in\n    tag_230:\n        /* \"#utility.yul\":3197:3309   */\n    tag_229:\n        /* \"#utility.yul\":3318:3372   */\n      tag_231\n        /* \"#utility.yul\":3365:3371   */\n      dup5\n        /* \"#utility.yul\":3360:3363   */\n      dup3\n        /* \"#utility.yul\":3355:3358   */\n      dup6\n        /* \"#utility.yul\":3318:3372   */\n      tag_159\n      jump\t// in\n    tag_231:\n        /* \"#utility.yul\":3038:3378   */\n      pop\n        /* \"#utility.yul\":2955:3378   */\n      swap4\n      swap3\n      pop\n      pop\n      pop\n      jump\t// out\n        /* \"#utility.yul\":3397:3735   */\n    tag_161:\n        /* \"#utility.yul\":3452:3457   */\n      0x00\n        /* \"#utility.yul\":3501:3504   */\n      dup3\n        /* \"#utility.yul\":3494:3498   */\n      0x1f\n        /* \"#utility.yul\":3486:3492   */\n      dup4\n        /* \"#utility.yul\":3482:3499   */\n      add\n        /* \"#utility.yul\":3478:3505   */\n      slt\n        /* \"#utility.yul\":3468:3590   */\n      tag_233\n      jumpi\n        /* \"#utility.yul\":3509:3588   */\n      tag_234\n      tag_153\n      jump\t// in\n    tag_234:\n        /* \"#utility.yul\":3468:3590   */\n    tag_233:\n        /* \"#utility.yul\":3626:3632   */\n      dup2\n        /* \"#utility.yul\":3613:3633   */\n      calldataload\n        /* \"#utility.yul\":3651:3729   */\n      tag_235\n        /* \"#utility.yul\":3725:3728   */\n      dup5\n        /* \"#utility.yul\":3717:3723   */\n      dup3\n        /* \"#utility.yul\":3710:3714   */\n      0x20\n        /* \"#utility.yul\":3702:3708   */\n      dup7\n        /* \"#utility.yul\":3698:3715   */\n      add\n        /* \"#utility.yul\":3651:3729   */\n      tag_160\n      jump\t// in\n    tag_235:\n        /* \"#utility.yul\":3642:3729   */\n      swap2\n      pop\n        /* \"#utility.yul\":3458:3735   */\n      pop\n        /* \"#utility.yul\":3397:3735   */\n      swap3\n      swap2\n      pop\n      pop\n      jump\t// out\n        /* \"#utility.yul\":3741:4248   */\n    tag_25:\n        /* \"#utility.yul\":3809:3815   */\n      0x00\n        /* \"#utility.yul\":3858:3860   */\n      0x20\n        /* \"#utility.yul\":3846:3855   */\n      dup3\n        /* \"#utility.yul\":3837:3844   */\n      dup5\n        /* \"#utility.yul\":3833:3856   */\n      sub\n        /* \"#utility.yul\":3829:3861   */\n      slt\n        /* \"#utility.yul\":3826:3945   */\n      iszero\n      tag_237\n      jumpi\n        /* \"#utility.yul\":3864:3943   */\n      tag_238\n      tag_146\n      jump\t// in\n    tag_238:\n        /* \"#utility.yul\":3826:3945   */\n    tag_237:\n        /* \"#utility.yul\":4012:4013   */\n      0x00\n        /* \"#utility.yul\":4001:4010   */\n      dup3\n        /* \"#utility.yul\":3997:4014   */\n      add\n        /* \"#utility.yul\":3984:4015   */\n      calldataload\n        /* \"#utility.yul\":4042:4060   */\n      0xffffffffffffffff\n        /* \"#utility.yul\":4034:4040   */\n      dup2\n        /* \"#utility.yul\":4031:4061   */\n      gt\n        /* \"#utility.yul\":4028:4145   */\n      iszero\n      tag_239\n      jumpi\n        /* \"#utility.yul\":4064:4143   */\n      tag_240\n      tag_147\n      jump\t// in\n    tag_240:\n        /* \"#utility.yul\":4028:4145   */\n    tag_239:\n        /* \"#utility.yul\":4169:4231   */\n      tag_241\n        /* \"#utility.yul\":4223:4230   */\n      dup5\n        /* \"#utility.yul\":4214:4220   */\n      dup3\n        /* \"#utility.yul\":4203:4212   */\n      dup6\n        /* \"#utility.yul\":4199:4221   */\n      add\n        /* \"#utility.yul\":4169:4231   */\n      tag_161\n      jump\t// in\n    tag_241:\n        /* \"#utility.yul\":4159:4231   */\n      swap2\n      pop\n        /* \"#utility.yul\":3955:4241   */\n      pop\n        /* \"#utility.yul\":3741:4248   */\n      swap3\n      swap2\n      pop\n      pop\n      jump\t// out\n        /* \"#utility.yul\":4254:4376   */\n    tag_162:\n        /* \"#utility.yul\":4327:4351   */\n      tag_243\n        /* \"#utility.yul\":4345:4350   */\n      dup2\n        /* \"#utility.yul\":4327:4351   */\n      tag_151\n      jump\t// in\n    tag_243:\n        /* \"#utility.yul\":4320:4325   */\n      dup2\n        /* \"#utility.yul\":4317:4352   */\n      eq\n        /* \"#utility.yul\":4307:4370   */\n      tag_244\n      jumpi\n        /* \"#utility.yul\":4366:4367   */\n      0x00\n        /* \"#utility.yul\":4363:4364   */\n      0x00\n        /* \"#utility.yul\":4356:4368   */\n      revert\n        /* \"#utility.yul\":4307:4370   */\n    tag_244:\n        /* \"#utility.yul\":4254:4376   */\n      pop\n      jump\t// out\n        /* \"#utility.yul\":4382:4521   */\n    tag_163:\n        /* \"#utility.yul\":4428:4433   */\n      0x00\n        /* \"#utility.yul\":4466:4472   */\n      dup2\n        /* \"#utility.yul\":4453:4473   */\n      calldataload\n        /* \"#utility.yul\":4444:4473   */\n      swap1\n      pop\n        /* \"#utility.yul\":4482:4515   */\n      tag_246\n        /* \"#utility.yul\":4509:4514   */\n      dup2\n        /* \"#utility.yul\":4482:4515   */\n      tag_162\n      jump\t// in\n    tag_246:\n        /* \"#utility.yul\":4382:4521   */\n      swap3\n      swap2\n      pop\n      pop\n      jump\t// out\n        /* \"#utility.yul\":4527:4856   */\n    tag_29:\n        /* \"#utility.yul\":4586:4592   */\n      0x00\n        /* \"#utility.yul\":4635:4637   */\n      0x20\n        /* \"#utility.yul\":4623:4632   */\n      dup3\n        /* \"#utility.yul\":4614:4621   */\n      dup5\n        /* \"#utility.yul\":4610:4633   */\n      sub\n        /* \"#utility.yul\":4606:4638   */\n      slt\n        /* \"#utility.yul\":4603:4722   */\n      iszero\n      tag_248\n      jumpi\n        /* \"#utility.yul\":4641:4720   */\n      tag_249\n      tag_146\n      jump\t// in\n    tag_249:\n        /* \"#utility.yul\":4603:4722   */\n    tag_248:\n        /* \"#utility.yul\":4761:4762   */\n      0x00\n        /* \"#utility.yul\":4786:4839   */\n      tag_250\n        /* \"#utility.yul\":4831:4838   */\n      dup5\n        /* \"#utility.yul\":4822:4828   */\n      dup3\n        /* \"#utility.yul\":4811:4820   */\n      dup6\n        /* \"#utility.yul\":4807:4829   */\n      add\n        /* \"#utility.yul\":4786:4839   */\n      tag_163\n      jump\t// in\n    tag_250:\n        /* \"#utility.yul\":4776:4839   */\n      swap2\n      pop\n        /* \"#utility.yul\":4732:4849   */\n      pop\n        /* \"#utility.yul\":4527:4856   */\n      swap3\n      swap2\n      pop\n      pop\n      jump\t// out\n        /* \"#utility.yul\":4862:4977   */\n    tag_164:\n        /* \"#utility.yul\":4947:4970   */\n      tag_252\n        /* \"#utility.yul\":4964:4969   */\n      dup2\n        /* \"#utility.yul\":4947:4970   */\n      tag_148\n      jump\t// in\n    tag_252:\n        /* \"#utility.yul\":4942:4945   */\n      dup3\n        /* \"#utility.yul\":4935:4971   */\n      mstore\n        /* \"#utility.yul\":4862:4977   */\n      pop\n      pop\n      jump\t// out\n        /* \"#utility.yul\":4983:5201   */\n    tag_32:\n        /* \"#utility.yul\":5074:5078   */\n      0x00\n        /* \"#utility.yul\":5112:5114   */\n      0x20\n        /* \"#utility.yul\":5101:5110   */\n      dup3\n        /* \"#utility.yul\":5097:5115   */\n      add\n        /* \"#utility.yul\":5089:5115   */\n      swap1\n      pop\n        /* \"#utility.yul\":5125:5194   */\n      tag_254\n        /* \"#utility.yul\":5191:5192   */\n      0x00\n        /* \"#utility.yul\":5180:5189   */\n      dup4\n        /* \"#utility.yul\":5176:5193   */\n      add\n        /* \"#utility.yul\":5167:5173   */\n      dup5\n        /* \"#utility.yul\":5125:5194   */\n      tag_164\n      jump\t// in\n    tag_254:\n        /* \"#utility.yul\":4983:5201   */\n      swap3\n      swap2\n      pop\n      pop\n      jump\t// out\n        /* \"#utility.yul\":5207:5306   */\n    tag_165:\n        /* \"#utility.yul\":5259:5265   */\n      0x00\n        /* \"#utility.yul\":5293:5298   */\n      dup2\n        /* \"#utility.yul\":5287:5299   */\n      mload\n        /* \"#utility.yul\":5277:5299   */\n      swap1\n      pop\n        /* \"#utility.yul\":5207:5306   */\n      swap2\n      swap1\n      pop\n      jump\t// out\n        /* \"#utility.yul\":5312:5481   */\n    tag_166:\n        /* \"#utility.yul\":5396:5407   */\n      0x00\n        /* \"#utility.yul\":5430:5436   */\n      dup3\n        /* \"#utility.yul\":5425:5428   */\n      dup3\n        /* \"#utility.yul\":5418:5437   */\n      mstore\n        /* \"#utility.yul\":5470:5474   */\n      0x20\n        /* \"#utility.yul\":5465:5468   */\n      dup3\n        /* \"#utility.yul\":5461:5475   */\n      add\n        /* \"#utility.yul\":5446:5475   */\n      swap1\n      pop\n        /* \"#utility.yul\":5312:5481   */\n      swap3\n      swap2\n      pop\n      pop\n      jump\t// out\n        /* \"#utility.yul\":5487:5626   */\n    tag_167:\n        /* \"#utility.yul\":5576:5582   */\n      dup3\n        /* \"#utility.yul\":5571:5574   */\n      dup2\n        /* \"#utility.yul\":5566:5569   */\n      dup4\n        /* \"#utility.yul\":5560:5583   */\n      mcopy\n        /* \"#utility.yul\":5617:5618   */\n      0x00\n        /* \"#utility.yul\":5608:5614   */\n      dup4\n        /* \"#utility.yul\":5603:5606   */\n      dup4\n        /* \"#utility.yul\":5599:5615   */\n      add\n        /* \"#utility.yul\":5592:5619   */\n      mstore\n        /* \"#utility.yul\":5487:5626   */\n      pop\n      pop\n      pop\n      jump\t// out\n        /* \"#utility.yul\":5632:6009   */\n    tag_168:\n        /* \"#utility.yul\":5720:5723   */\n      0x00\n        /* \"#utility.yul\":5748:5787   */\n      tag_259\n        /* \"#utility.yul\":5781:5786   */\n      dup3\n        /* \"#utility.yul\":5748:5787   */\n      tag_165\n      jump\t// in\n    tag_259:\n        /* \"#utility.yul\":5803:5874   */\n      tag_260\n        /* \"#utility.yul\":5867:5873   */\n      dup2\n        /* \"#utility.yul\":5862:5865   */\n      dup6\n        /* \"#utility.yul\":5803:5874   */\n      tag_166\n      jump\t// in\n    tag_260:\n        /* \"#utility.yul\":5796:5874   */\n      swap4\n      pop\n        /* \"#utility.yul\":5883:5948   */\n      tag_261\n        /* \"#utility.yul\":5941:5947   */\n      dup2\n        /* \"#utility.yul\":5936:5939   */\n      dup6\n        /* \"#utility.yul\":5929:5933   */\n      0x20\n        /* \"#utility.yul\":5922:5927   */\n      dup7\n        /* \"#utility.yul\":5918:5934   */\n      add\n        /* \"#utility.yul\":5883:5948   */\n      tag_167\n      jump\t// in\n    tag_261:\n        /* \"#utility.yul\":5973:6002   */\n      tag_262\n        /* \"#utility.yul\":5995:6001   */\n      dup2\n        /* \"#utility.yul\":5973:6002   */\n      tag_155\n      jump\t// in\n    tag_262:\n        /* \"#utility.yul\":5968:5971   */\n      dup5\n        /* \"#utility.yul\":5964:6003   */\n      add\n        /* \"#utility.yul\":5957:6003   */\n      swap2\n      pop\n        /* \"#utility.yul\":5724:6009   */\n      pop\n        /* \"#utility.yul\":5632:6009   */\n      swap3\n      swap2\n      pop\n      pop\n      jump\t// out\n        /* \"#utility.yul\":6015:6328   */\n    tag_36:\n        /* \"#utility.yul\":6128:6132   */\n      0x00\n        /* \"#utility.yul\":6166:6168   */\n      0x20\n        /* \"#utility.yul\":6155:6164   */\n      dup3\n        /* \"#utility.yul\":6151:6169   */\n      add\n        /* \"#utility.yul\":6143:6169   */\n      swap1\n      pop\n        /* \"#utility.yul\":6215:6224   */\n      dup2\n        /* \"#utility.yul\":6209:6213   */\n      dup2\n        /* \"#utility.yul\":6205:6225   */\n      sub\n        /* \"#utility.yul\":6201:6202   */\n      0x00\n        /* \"#utility.yul\":6190:6199   */\n      dup4\n        /* \"#utility.yul\":6186:6203   */\n      add\n        /* \"#utility.yul\":6179:6226   */\n      mstore\n        /* \"#utility.yul\":6243:6321   */\n      tag_264\n        /* \"#utility.yul\":6316:6320   */\n      dup2\n        /* \"#utility.yul\":6307:6313   */\n      dup5\n        /* \"#utility.yul\":6243:6321   */\n      tag_168\n      jump\t// in\n    tag_264:\n        /* \"#utility.yul\":6235:6321   */\n      swap1\n      pop\n        /* \"#utility.yul\":6015:6328   */\n      swap3\n      swap2\n      pop\n      pop\n      jump\t// out\n        /* \"#utility.yul\":6334:6432   */\n    tag_169:\n        /* \"#utility.yul\":6385:6391   */\n      0x00\n        /* \"#utility.yul\":6419:6424   */\n      dup2\n        /* \"#utility.yul\":6413:6425   */\n      mload\n        /* \"#utility.yul\":6403:6425   */\n      swap1\n      pop\n        /* \"#utility.yul\":6334:6432   */\n      swap2\n      swap1\n      pop\n      jump\t// out\n        /* \"#utility.yul\":6438:6606   */\n    tag_170:\n        /* \"#utility.yul\":6521:6532   */\n      0x00\n        /* \"#utility.yul\":6555:6561   */\n      dup3\n        /* \"#utility.yul\":6550:6553   */\n      dup3\n        /* \"#utility.yul\":6543:6562   */\n      mstore\n        /* \"#utility.yul\":6595:6599   */\n      0x20\n        /* \"#utility.yul\":6590:6593   */\n      dup3\n        /* \"#utility.yul\":6586:6600   */\n      add\n        /* \"#utility.yul\":6571:6600   */\n      swap1\n      pop\n        /* \"#utility.yul\":6438:6606   */\n      swap3\n      swap2\n      pop\n      pop\n      jump\t// out\n        /* \"#utility.yul\":6612:6985   */\n    tag_171:\n        /* \"#utility.yul\":6698:6701   */\n      0x00\n        /* \"#utility.yul\":6726:6764   */\n      tag_268\n        /* \"#utility.yul\":6758:6763   */\n      dup3\n        /* \"#utility.yul\":6726:6764   */\n      tag_169\n      jump\t// in\n    tag_268:\n        /* \"#utility.yul\":6780:6850   */\n      tag_269\n        /* \"#utility.yul\":6843:6849   */\n      dup2\n        /* \"#utility.yul\":6838:6841   */\n      dup6\n        /* \"#utility.yul\":6780:6850   */\n      tag_170\n      jump\t// in\n    tag_269:\n        /* \"#utility.yul\":6773:6850   */\n      swap4\n      pop\n        /* \"#utility.yul\":6859:6924   */\n      tag_270\n        /* \"#utility.yul\":6917:6923   */\n      dup2\n        /* \"#utility.yul\":6912:6915   */\n      dup6\n        /* \"#utility.yul\":6905:6909   */\n      0x20\n        /* \"#utility.yul\":6898:6903   */\n      dup7\n        /* \"#utility.yul\":6894:6910   */\n      add\n        /* \"#utility.yul\":6859:6924   */\n      tag_167\n      jump\t// in\n    tag_270:\n        /* \"#utility.yul\":6949:6978   */\n      tag_271\n        /* \"#utility.yul\":6971:6977   */\n      dup2\n        /* \"#utility.yul\":6949:6978   */\n      tag_155\n      jump\t// in\n    tag_271:\n        /* \"#utility.yul\":6944:6947   */\n      dup5\n        /* \"#utility.yul\":6940:6979   */\n      add\n        /* \"#utility.yul\":6933:6979   */\n      swap2\n      pop\n        /* \"#utility.yul\":6702:6985   */\n      pop\n        /* \"#utility.yul\":6612:6985   */\n      swap3\n      swap2\n      pop\n      pop\n      jump\t// out\n        /* \"#utility.yul\":6991:7300   */\n    tag_41:\n        /* \"#utility.yul\":7102:7106   */\n      0x00\n        /* \"#utility.yul\":7140:7142   */\n      0x20\n        /* \"#utility.yul\":7129:7138   */\n      dup3\n        /* \"#utility.yul\":7125:7143   */\n      add\n        /* \"#utility.yul\":7117:7143   */\n      swap1\n      pop\n        /* \"#utility.yul\":7189:7198   */\n      dup2\n        /* \"#utility.yul\":7183:7187   */\n      dup2\n        /* \"#utility.yul\":7179:7199   */\n      sub\n        /* \"#utility.yul\":7175:7176   */\n      0x00\n        /* \"#utility.yul\":7164:7173   */\n      dup4\n        /* \"#utility.yul\":7160:7177   */\n      add\n        /* \"#utility.yul\":7153:7200   */\n      mstore\n        /* \"#utility.yul\":7217:7293   */\n      tag_273\n        /* \"#utility.yul\":7288:7292   */\n      dup2\n        /* \"#utility.yul\":7279:7285   */\n      dup5\n        /* \"#utility.yul\":7217:7293   */\n      tag_171\n      jump\t// in\n    tag_273:\n        /* \"#utility.yul\":7209:7293   */\n      swap1\n      pop\n        /* \"#utility.yul\":6991:7300   */\n      swap3\n      swap2\n      pop\n      pop\n      jump\t// out\n        /* \"#utility.yul\":7306:7486   */\n    tag_172:\n        /* \"#utility.yul\":7354:7431   */\n      0x4e487b7100000000000000000000000000000000000000000000000000000000\n        /* \"#utility.yul\":7351:7352   */\n      0x00\n        /* \"#utility.yul\":7344:7432   */\n      mstore\n        /* \"#utility.yul\":7451:7455   */\n      0x22\n        /* \"#utility.yul\":7448:7449   */\n      0x04\n        /* \"#utility.yul\":7441:7456   */\n      mstore\n        /* \"#utility.yul\":7475:7479   */\n      0x24\n        /* \"#utility.yul\":7472:7473   */\n      0x00\n        /* \"#utility.yul\":7465:7480   */\n      revert\n        /* \"#utility.yul\":7492:7812   */\n    tag_58:\n        /* \"#utility.yul\":7536:7542   */\n      0x00\n        /* \"#utility.yul\":7573:7574   */\n      0x02\n        /* \"#utility.yul\":7567:7571   */\n      dup3\n        /* \"#utility.yul\":7563:7575   */\n      div\n        /* \"#utility.yul\":7553:7575   */\n      swap1\n      pop\n        /* \"#utility.yul\":7620:7621   */\n      0x01\n        /* \"#utility.yul\":7614:7618   */\n      dup3\n        /* \"#utility.yul\":7610:7622   */\n      and\n        /* \"#utility.yul\":7641:7659   */\n      dup1\n        /* \"#utility.yul\":7631:7712   */\n      tag_276\n      jumpi\n        /* \"#utility.yul\":7697:7701   */\n      0x7f\n        /* \"#utility.yul\":7689:7695   */\n      dup3\n        /* \"#utility.yul\":7685:7702   */\n      and\n        /* \"#utility.yul\":7675:7702   */\n      swap2\n      pop\n        /* \"#utility.yul\":7631:7712   */\n    tag_276:\n        /* \"#utility.yul\":7759:7761   */\n      0x20\n        /* \"#utility.yul\":7751:7757   */\n      dup3\n        /* \"#utility.yul\":7748:7762   */\n      lt\n        /* \"#utility.yul\":7728:7746   */\n      dup2\n        /* \"#utility.yul\":7725:7763   */\n      sub\n        /* \"#utility.yul\":7722:7806   */\n      tag_277\n      jumpi\n        /* \"#utility.yul\":7778:7796   */\n      tag_278\n      tag_172\n      jump\t// in\n    tag_278:\n        /* \"#utility.yul\":7722:7806   */\n    tag_277:\n        /* \"#utility.yul\":7543:7812   */\n      pop\n        /* \"#utility.yul\":7492:7812   */\n      swap2\n      swap1\n      pop\n      jump\t// out\n        /* \"#utility.yul\":7818:7998   */\n    tag_173:\n        /* \"#utility.yul\":7866:7943   */\n      0x4e487b7100000000000000000000000000000000000000000000000000000000\n        /* \"#utility.yul\":7863:7864   */\n      0x00\n        /* \"#utility.yul\":7856:7944   */\n      mstore\n        /* \"#utility.yul\":7963:7967   */\n      0x11\n        /* \"#utility.yul\":7960:7961   */\n      0x04\n        /* \"#utility.yul\":7953:7968   */\n      mstore\n        /* \"#utility.yul\":7987:7991   */\n      0x24\n        /* \"#utility.yul\":7984:7985   */\n      0x00\n        /* \"#utility.yul\":7977:7992   */\n      revert\n        /* \"#utility.yul\":8004:8195   */\n    tag_60:\n        /* \"#utility.yul\":8044:8047   */\n      0x00\n        /* \"#utility.yul\":8063:8083   */\n      tag_281\n        /* \"#utility.yul\":8081:8082   */\n      dup3\n        /* \"#utility.yul\":8063:8083   */\n      tag_151\n      jump\t// in\n    tag_281:\n        /* \"#utility.yul\":8058:8083   */\n      swap2\n      pop\n        /* \"#utility.yul\":8097:8117   */\n      tag_282\n        /* \"#utility.yul\":8115:8116   */\n      dup4\n        /* \"#utility.yul\":8097:8117   */\n      tag_151\n      jump\t// in\n    tag_282:\n        /* \"#utility.yul\":8092:8117   */\n      swap3\n      pop\n        /* \"#utility.yul\":8140:8141   */\n      dup3\n        /* \"#utility.yul\":8137:8138   */\n      dup3\n        /* \"#utility.yul\":8133:8142   */\n      add\n        /* \"#utility.yul\":8126:8142   */\n      swap1\n      pop\n        /* \"#utility.yul\":8161:8164   */\n      dup1\n        /* \"#utility.yul\":8158:8159   */\n      dup3\n        /* \"#utility.yul\":8155:8165   */\n      gt\n        /* \"#utility.yul\":8152:8188   */\n      iszero\n      tag_283\n      jumpi\n        /* \"#utility.yul\":8168:8186   */\n      tag_284\n      tag_173\n      jump\t// in\n    tag_284:\n        /* \"#utility.yul\":8152:8188   */\n    tag_283:\n        /* \"#utility.yul\":8004:8195   */\n      swap3\n      swap2\n      pop\n      pop\n      jump\t// out\n        /* \"#utility.yul\":8201:8381   */\n    tag_72:\n        /* \"#utility.yul\":8249:8326   */\n      0x4e487b7100000000000000000000000000000000000000000000000000000000\n        /* \"#utility.yul\":8246:8247   */\n      0x00\n        /* \"#utility.yul\":8239:8327   */\n      mstore\n        /* \"#utility.yul\":8346:8350   */\n      0x32\n        /* \"#utility.yul\":8343:8344   */\n      0x04\n        /* \"#utility.yul\":8336:8351   */\n      mstore\n        /* \"#utility.yul\":8370:8374   */\n      0x24\n        /* \"#utility.yul\":8367:8368   */\n      0x00\n        /* \"#utility.yul\":8360:8375   */\n      revert\n        /* \"#utility.yul\":8387:8581   */\n    tag_77:\n        /* \"#utility.yul\":8427:8431   */\n      0x00\n        /* \"#utility.yul\":8447:8467   */\n      tag_287\n        /* \"#utility.yul\":8465:8466   */\n      dup3\n        /* \"#utility.yul\":8447:8467   */\n      tag_151\n      jump\t// in\n    tag_287:\n        /* \"#utility.yul\":8442:8467   */\n      swap2\n      pop\n        /* \"#utility.yul\":8481:8501   */\n      tag_288\n        /* \"#utility.yul\":8499:8500   */\n      dup4\n        /* \"#utility.yul\":8481:8501   */\n      tag_151\n      jump\t// in\n    tag_288:\n        /* \"#utility.yul\":8476:8501   */\n      swap3\n      pop\n        /* \"#utility.yul\":8525:8526   */\n      dup3\n        /* \"#utility.yul\":8522:8523   */\n      dup3\n        /* \"#utility.yul\":8518:8527   */\n      sub\n        /* \"#utility.yul\":8510:8527   */\n      swap1\n      pop\n        /* \"#utility.yul\":8549:8550   */\n      dup2\n        /* \"#utility.yul\":8543:8547   */\n      dup2\n        /* \"#utility.yul\":8540:8551   */\n      gt\n        /* \"#utility.yul\":8537:8574   */\n      iszero\n      tag_289\n      jumpi\n        /* \"#utility.yul\":8554:8572   */\n      tag_290\n      tag_173\n      jump\t// in\n    tag_290:\n        /* \"#utility.yul\":8537:8574   */\n    tag_289:\n        /* \"#utility.yul\":8387:8581   */\n      swap3\n      swap2\n      pop\n      pop\n      jump\t// out\n        /* \"#utility.yul\":8587:8727   */\n    tag_174:\n        /* \"#utility.yul\":8635:8639   */\n      0x00\n        /* \"#utility.yul\":8658:8661   */\n      dup2\n        /* \"#utility.yul\":8650:8661   */\n      swap1\n      pop\n        /* \"#utility.yul\":8681:8684   */\n      dup2\n        /* \"#utility.yul\":8678:8679   */\n      0x00\n        /* \"#utility.yul\":8671:8685   */\n      mstore\n        /* \"#utility.yul\":8715:8719   */\n      0x20\n        /* \"#utility.yul\":8712:8713   */\n      0x00\n        /* \"#utility.yul\":8702:8720   */\n      keccak256\n        /* \"#utility.yul\":8694:8720   */\n      swap1\n      pop\n        /* \"#utility.yul\":8587:8727   */\n      swap2\n      swap1\n      pop\n      jump\t// out\n        /* \"#utility.yul\":8733:8826   */\n    tag_175:\n        /* \"#utility.yul\":8770:8776   */\n      0x00\n        /* \"#utility.yul\":8817:8819   */\n      0x20\n        /* \"#utility.yul\":8812:8814   */\n      0x1f\n        /* \"#utility.yul\":8805:8810   */\n      dup4\n        /* \"#utility.yul\":8801:8815   */\n      add\n        /* \"#utility.yul\":8797:8820   */\n      div\n        /* \"#utility.yul\":8787:8820   */\n      swap1\n      pop\n        /* \"#utility.yul\":8733:8826   */\n      swap2\n      swap1\n      pop\n      jump\t// out\n        /* \"#utility.yul\":8832:8939   */\n    tag_176:\n        /* \"#utility.yul\":8876:8884   */\n      0x00\n        /* \"#utility.yul\":8926:8931   */\n      dup3\n        /* \"#utility.yul\":8920:8924   */\n      dup3\n        /* \"#utility.yul\":8916:8932   */\n      shl\n        /* \"#utility.yul\":8895:8932   */\n      swap1\n      pop\n        /* \"#utility.yul\":8832:8939   */\n      swap3\n      swap2\n      pop\n      pop\n      jump\t// out\n        /* \"#utility.yul\":8945:9338   */\n    tag_177:\n        /* \"#utility.yul\":9014:9020   */\n      0x00\n        /* \"#utility.yul\":9064:9065   */\n      0x08\n        /* \"#utility.yul\":9052:9062   */\n      dup4\n        /* \"#utility.yul\":9048:9066   */\n      mul\n        /* \"#utility.yul\":9087:9184   */\n      tag_295\n        /* \"#utility.yul\":9117:9183   */\n      0xffffffffffffffffffffffffffffffffffffffffffffffffffffffffffffffff\n        /* \"#utility.yul\":9106:9115   */\n      dup3\n        /* \"#utility.yul\":9087:9184   */\n      tag_176\n      jump\t// in\n    tag_295:\n        /* \"#utility.yul\":9205:9244   */\n      tag_296\n        /* \"#utility.yul\":9235:9243   */\n      dup7\n        /* \"#utility.yul\":9224:9233   */\n      dup4\n        /* \"#utility.yul\":9205:9244   */\n      tag_176\n      jump\t// in\n    tag_296:\n        /* \"#utility.yul\":9193:9244   */\n      swap6\n      pop\n        /* \"#utility.yul\":9277:9281   */\n      dup1\n        /* \"#utility.yul\":9273:9282   */\n      not\n        /* \"#utility.yul\":9266:9271   */\n      dup5\n        /* \"#utility.yul\":9262:9283   */\n      and\n        /* \"#utility.yul\":9253:9283   */\n      swap4\n      pop\n        /* \"#utility.yul\":9326:9330   */\n      dup1\n        /* \"#utility.yul\":9316:9324   */\n      dup7\n        /* \"#utility.yul\":9312:9331   */\n      and\n        /* \"#utility.yul\":9305:9310   */\n      dup5\n        /* \"#utility.yul\":9302:9332   */\n      or\n        /* \"#utility.yul\":9292:9332   */\n      swap3\n      pop\n        /* \"#utility.yul\":9021:9338   */\n      pop\n      pop\n        /* \"#utility.yul\":8945:9338   */\n      swap4\n      swap3\n      pop\n      pop\n      pop\n      jump\t// out\n        /* \"#utility.yul\":9344:9404   */\n    tag_178:\n        /* \"#utility.yul\":9372:9375   */\n      0x00\n        /* \"#utility.yul\":9393:9398   */\n      dup2\n        /* \"#utility.yul\":9386:9398   */\n      swap1\n      pop\n        /* \"#utility.yul\":9344:9404   */\n      swap2\n      swap1\n      pop\n      jump\t// out\n        /* \"#utility.yul\":9410:9552   */\n    tag_179:\n        /* \"#utility.yul\":9460:9469   */\n      0x00\n        /* \"#utility.yul\":9493:9546   */\n      tag_299\n        /* \"#utility.yul\":9511:9545   */\n      tag_300\n        /* \"#utility.yul\":9520:9544   */\n      tag_301\n        /* \"#utility.yul\":9538:9543   */\n      dup5\n        /* \"#utility.yul\":9520:9544   */\n      tag_151\n      jump\t// in\n    tag_301:\n        /* \"#utility.yul\":9511:9545   */\n      tag_178\n      jump\t// in\n    tag_300:\n        /* \"#utility.yul\":9493:9546   */\n      tag_151\n      jump\t// in\n    tag_299:\n        /* \"#utility.yul\":9480:9546   */\n      swap1\n      pop\n        /* \"#utility.yul\":9410:9552   */\n      swap2\n      swap1\n      pop\n      jump\t// out\n        /* \"#utility.yul\":9558:9633   */\n    tag_180:\n        /* \"#utility.yul\":9601:9604   */\n      0x00\n        /* \"#utility.yul\":9622:9627   */\n      dup2\n        /* \"#utility.yul\":9615:9627   */\n      swap1\n      pop\n        /* \"#utility.yul\":9558:9633   */\n      swap2\n      swap1\n      pop\n      jump\t// out\n        /* \"#utility.yul\":9639:9908   */\n    tag_181:\n        /* \"#utility.yul\":9749:9788   */\n      tag_304\n        /* \"#utility.yul\":9780:9787   */\n      dup4\n        /* \"#utility.yul\":9749:9788   */\n      tag_179\n      jump\t// in\n    tag_304:\n        /* \"#utility.yul\":9810:9901   */\n      tag_305\n        /* \"#utility.yul\":9859:9900   */\n      tag_306\n        /* \"#utility.yul\":9883:9899   */\n      dup3\n        /* \"#utility.yul\":9859:9900   */\n      tag_180\n      jump\t// in\n    tag_306:\n        /* \"#utility.yul\":9851:9857   */\n      dup5\n        /* \"#utility.yul\":9844:9848   */\n      dup5\n        /* \"#utility.yul\":9838:9849   */\n      sload\n        /* \"#utility.yul\":9810:9901   */\n      tag_177\n      jump\t// in\n    tag_305:\n        /* \"#utility.yul\":9804:9808   */\n      dup3\n        /* \"#utility.yul\":9797:9902   */\n      sstore\n        /* \"#utility.yul\":9715:9908   */\n      pop\n        /* \"#utility.yul\":9639:9908   */\n      pop\n      pop\n      pop\n      jump\t// out\n        /* \"#utility.yul\":9914:9987   */\n    tag_182:\n        /* \"#utility.yul\":9959:9962   */\n      0x00\n        /* \"#utility.yul\":9980:9981   */\n      0x00\n        /* \"#utility.yul\":9973:9981   */\n      swap1\n      pop\n        /* \"#utility.yul\":9914:9987   */\n      swap1\n      jump\t// out\n        /* \"#utility.yul\":9993:10182   */\n    tag_183:\n        /* \"#utility.yul\":10070:10102   */\n      tag_309\n      tag_182\n      jump\t// in\n    tag_309:\n        /* \"#utility.yul\":10111:10176   */\n      tag_310\n        /* \"#utility.yul\":10169:10175   */\n      dup2\n        /* \"#utility.yul\":10161:10167   */\n      dup5\n        /* \"#utility.yul\":10155:10159   */\n      dup5\n        /* \"#utility.yul\":10111:10176   */\n      tag_181\n      jump\t// in\n    tag_310:\n        /* \"#utility.yul\":10046:10182   */\n      pop\n        /* \"#utility.yul\":9993:10182   */\n      pop\n      pop\n      jump\t// out\n        /* \"#utility.yul\":10188:10374   */\n    tag_184:\n        /* \"#utility.yul\":10248:10368   */\n    tag_312:\n        /* \"#utility.yul\":10265:10268   */\n      dup2\n        /* \"#utility.yul\":10258:10263   */\n      dup2\n        /* \"#utility.yul\":10255:10269   */\n      lt\n        /* \"#utility.yul\":10248:10368   */\n      iszero\n      tag_314\n      jumpi\n        /* \"#utility.yul\":10319:10358   */\n      tag_315\n        /* \"#utility.yul\":10356:10357   */\n      0x00\n        /* \"#utility.yul\":10349:10354   */\n      dup3\n        /* \"#utility.yul\":10319:10358   */\n      tag_183\n      jump\t// in\n    tag_315:\n        /* \"#utility.yul\":10292:10293   */\n      0x01\n        /* \"#utility.yul\":10285:10290   */\n      dup2\n        /* \"#utility.yul\":10281:10294   */\n      add\n        /* \"#utility.yul\":10272:10294   */\n      swap1\n      pop\n        /* \"#utility.yul\":10248:10368   */\n      jump(tag_312)\n    tag_314:\n        /* \"#utility.yul\":10188:10374   */\n      pop\n      pop\n      jump\t// out\n        /* \"#utility.yul\":10380:10921   */\n    tag_185:\n        /* \"#utility.yul\":10480:10482   */\n      0x1f\n        /* \"#utility.yul\":10475:10478   */\n      dup3\n        /* \"#utility.yul\":10472:10483   */\n      gt\n        /* \"#utility.yul\":10469:10914   */\n      iszero\n      tag_317\n      jumpi\n        /* \"#utility.yul\":10514:10551   */\n      tag_318\n        /* \"#utility.yul\":10545:10550   */\n      dup2\n        /* \"#utility.yul\":10514:10551   */\n      tag_174\n      jump\t// in\n    tag_318:\n        /* \"#utility.yul\":10597:10626   */\n      tag_319\n        /* \"#utility.yul\":10615:10625   */\n      dup5\n        /* \"#utility.yul\":10597:10626   */\n      tag_175\n      jump\t// in\n    tag_319:\n        /* \"#utility.yul\":10587:10595   */\n      dup2\n        /* \"#utility.yul\":10583:10627   */\n      add\n        /* \"#utility.yul\":10780:10782   */\n      0x20\n        /* \"#utility.yul\":10768:10778   */\n      dup6\n        /* \"#utility.yul\":10765:10783   */\n      lt\n        /* \"#utility.yul\":10762:10811   */\n      iszero\n      tag_320\n      jumpi\n        /* \"#utility.yul\":10801:10809   */\n      dup2\n        /* \"#utility.yul\":10786:10809   */\n      swap1\n      pop\n        /* \"#utility.yul\":10762:10811   */\n    tag_320:\n        /* \"#utility.yul\":10824:10904   */\n      tag_321\n        /* \"#utility.yul\":10880:10902   */\n      tag_322\n        /* \"#utility.yul\":10898:10901   */\n      dup6\n        /* \"#utility.yul\":10880:10902   */\n      tag_175\n      jump\t// in\n    tag_322:\n        /* \"#utility.yul\":10870:10878   */\n      dup4\n        /* \"#utility.yul\":10866:10903   */\n      add\n        /* \"#utility.yul\":10853:10864   */\n      dup3\n        /* \"#utility.yul\":10824:10904   */\n      tag_184\n      jump\t// in\n    tag_321:\n        /* \"#utility.yul\":10484:10914   */\n      pop\n      pop\n        /* \"#utility.yul\":10469:10914   */\n    tag_317:\n        /* \"#utility.yul\":10380:10921   */\n      pop\n      pop\n      pop\n      jump\t// out\n        /* \"#utility.yul\":10927:11044   */\n    tag_186:\n        /* \"#utility.yul\":10981:10989   */\n      0x00\n        /* \"#utility.yul\":11031:11036   */\n      dup3\n        /* \"#utility.yul\":11025:11029   */\n      dup3\n        /* \"#utility.yul\":11021:11037   */\n      shr\n        /* \"#utility.yul\":11000:11037   */\n      swap1\n      pop\n        /* \"#utility.yul\":10927:11044   */\n      swap3\n      swap2\n      pop\n      pop\n      jump\t// out\n        /* \"#utility.yul\":11050:11219   */\n    tag_187:\n        /* \"#utility.yul\":11094:11100   */\n      0x00\n        /* \"#utility.yul\":11127:11178   */\n      tag_325\n        /* \"#utility.yul\":11175:11176   */\n      0x00\n        /* \"#utility.yul\":11171:11177   */\n      not\n        /* \"#utility.yul\":11163:11168   */\n      dup5\n        /* \"#utility.yul\":11160:11161   */\n      0x08\n        /* \"#utility.yul\":11156:11169   */\n      mul\n        /* \"#utility.yul\":11127:11178   */\n      tag_186\n      jump\t// in\n    tag_325:\n        /* \"#utility.yul\":11123:11179   */\n      not\n        /* \"#utility.yul\":11208:11212   */\n      dup1\n        /* \"#utility.yul\":11202:11206   */\n      dup4\n        /* \"#utility.yul\":11198:11213   */\n      and\n        /* \"#utility.yul\":11188:11213   */\n      swap2\n      pop\n        /* \"#utility.yul\":11101:11219   */\n      pop\n        /* \"#utility.yul\":11050:11219   */\n      swap3\n      swap2\n      pop\n      pop\n      jump\t// out\n        /* \"#utility.yul\":11224:11519   */\n    tag_188:\n        /* \"#utility.yul\":11300:11304   */\n      0x00\n        /* \"#utility.yul\":11446:11475   */\n      tag_327\n        /* \"#utility.yul\":11471:11474   */\n      dup4\n        /* \"#utility.yul\":11465:11469   */\n      dup4\n        /* \"#utility.yul\":11446:11475   */\n      tag_187\n      jump\t// in\n    tag_327:\n        /* \"#utility.yul\":11438:11475   */\n      swap2\n      pop\n        /* \"#utility.yul\":11508:11511   */\n      dup3\n        /* \"#utility.yul\":11505:11506   */\n      0x02\n        /* \"#utility.yul\":11501:11512   */\n      mul\n        /* \"#utility.yul\":11495:11499   */\n      dup3\n        /* \"#utility.yul\":11492:11513   */\n      or\n        /* \"#utility.yul\":11484:11513   */\n      swap1\n      pop\n        /* \"#utility.yul\":11224:11519   */\n      swap3\n      swap2\n      pop\n      pop\n      jump\t// out\n        /* \"#utility.yul\":11524:12914   */\n    tag_81:\n        /* \"#utility.yul\":11639:11675   */\n      tag_329\n        /* \"#utility.yul\":11671:11674   */\n      dup3\n        /* \"#utility.yul\":11639:11675   */\n      tag_169\n      jump\t// in\n    tag_329:\n        /* \"#utility.yul\":11740:11758   */\n      0xffffffffffffffff\n        /* \"#utility.yul\":11732:11738   */\n      dup2\n        /* \"#utility.yul\":11729:11759   */\n      gt\n        /* \"#utility.yul\":11726:11782   */\n      iszero\n      tag_330\n      jumpi\n        /* \"#utility.yul\":11762:11780   */\n      tag_331\n      tag_63\n      jump\t// in\n    tag_331:\n        /* \"#utility.yul\":11726:11782   */\n    tag_330:\n        /* \"#utility.yul\":11806:11844   */\n      tag_332\n        /* \"#utility.yul\":11838:11842   */\n      dup3\n        /* \"#utility.yul\":11832:11843   */\n      sload\n        /* \"#utility.yul\":11806:11844   */\n      tag_58\n      jump\t// in\n    tag_332:\n        /* \"#utility.yul\":11891:11957   */\n      tag_333\n        /* \"#utility.yul\":11950:11956   */\n      dup3\n        /* \"#utility.yul\":11942:11948   */\n      dup3\n        /* \"#utility.yul\":11936:11940   */\n      dup6\n        /* \"#utility.yul\":11891:11957   */\n      tag_185\n      jump\t// in\n    tag_333:\n        /* \"#utility.yul\":11984:11985   */\n      0x00\n        /* \"#utility.yul\":12008:12012   */\n      0x20\n        /* \"#utility.yul\":11995:12012   */\n      swap1\n      pop\n        /* \"#utility.yul\":12040:12042   */\n      0x1f\n        /* \"#utility.yul\":12032:12038   */\n      dup4\n        /* \"#utility.yul\":12029:12043   */\n      gt\n        /* \"#utility.yul\":12057:12058   */\n      0x01\n        /* \"#utility.yul\":12052:12669   */\n      dup2\n      eq\n      tag_335\n      jumpi\n        /* \"#utility.yul\":12713:12714   */\n      0x00\n        /* \"#utility.yul\":12730:12736   */\n      dup5\n        /* \"#utility.yul\":12727:12804   */\n      iszero\n      tag_336\n      jumpi\n        /* \"#utility.yul\":12779:12788   */\n      dup3\n        /* \"#utility.yul\":12774:12777   */\n      dup8\n        /* \"#utility.yul\":12770:12789   */\n      add\n        /* \"#utility.yul\":12764:12790   */\n      mload\n        /* \"#utility.yul\":12755:12790   */\n      swap1\n      pop\n        /* \"#utility.yul\":12727:12804   */\n    tag_336:\n        /* \"#utility.yul\":12830:12897   */\n      tag_337\n        /* \"#utility.yul\":12890:12896   */\n      dup6\n        /* \"#utility.yul\":12883:12888   */\n      dup3\n        /* \"#utility.yul\":12830:12897   */\n      tag_188\n      jump\t// in\n    tag_337:\n        /* \"#utility.yul\":12824:12828   */\n      dup7\n        /* \"#utility.yul\":12817:12898   */\n      sstore\n        /* \"#utility.yul\":12686:12908   */\n      pop\n        /* \"#utility.yul\":12022:12908   */\n      jump(tag_334)\n        /* \"#utility.yul\":12052:12669   */\n    tag_335:\n        /* \"#utility.yul\":12104:12108   */\n      0x1f\n        /* \"#utility.yul\":12100:12109   */\n      not\n        /* \"#utility.yul\":12092:12098   */\n      dup5\n        /* \"#utility.yul\":12088:12110   */\n      and\n        /* \"#utility.yul\":12138:12174   */\n      tag_338\n        /* \"#utility.yul\":12169:12173   */\n      dup7\n        /* \"#utility.yul\":12138:12174   */\n      tag_174\n      jump\t// in\n    tag_338:\n        /* \"#utility.yul\":12196:12197   */\n      0x00\n        /* \"#utility.yul\":12210:12418   */\n    tag_339:\n        /* \"#utility.yul\":12224:12231   */\n      dup3\n        /* \"#utility.yul\":12221:12222   */\n      dup2\n        /* \"#utility.yul\":12218:12232   */\n      lt\n        /* \"#utility.yul\":12210:12418   */\n      iszero\n      tag_341\n      jumpi\n        /* \"#utility.yul\":12303:12312   */\n      dup5\n        /* \"#utility.yul\":12298:12301   */\n      dup10\n        /* \"#utility.yul\":12294:12313   */\n      add\n        /* \"#utility.yul\":12288:12314   */\n      mload\n        /* \"#utility.yul\":12280:12286   */\n      dup3\n        /* \"#utility.yul\":12273:12315   */\n      sstore\n        /* \"#utility.yul\":12354:12355   */\n      0x01\n        /* \"#utility.yul\":12346:12352   */\n      dup3\n        /* \"#utility.yul\":12342:12356   */\n      add\n        /* \"#utility.yul\":12332:12356   */\n      swap2\n      pop\n        /* \"#utility.yul\":12401:12403   */\n      0x20\n        /* \"#utility.yul\":12390:12399   */\n      dup6\n        /* \"#utility.yul\":12386:12404   */\n      add\n        /* \"#utility.yul\":12373:12404   */\n      swap5\n      pop\n        /* \"#utility.yul\":12247:12251   */\n      0x20\n        /* \"#utility.yul\":12244:12245   */\n      dup2\n        /* \"#utility.yul\":12240:12252   */\n      add\n        /* \"#utility.yul\":12235:12252   */\n      swap1\n      pop\n        /* \"#utility.yul\":12210:12418   */\n      jump(tag_339)\n    tag_341:\n        /* \"#utility.yul\":12446:12452   */\n      dup7\n        /* \"#utility.yul\":12437:12444   */\n      dup4\n        /* \"#utility.yul\":12434:12453   */\n      lt\n        /* \"#utility.yul\":12431:12610   */\n      iszero\n      tag_342\n      jumpi\n        /* \"#utility.yul\":12504:12513   */\n      dup5\n        /* \"#utility.yul\":12499:12502   */\n      dup10\n        /* \"#utility.yul\":12495:12514   */\n      add\n        /* \"#utility.yul\":12489:12515   */\n      mload\n        /* \"#utility.yul\":12547:12595   */\n      tag_343\n        /* \"#utility.yul\":12589:12593   */\n      0x1f\n        /* \"#utility.yul\":12581:12587   */\n      dup10\n        /* \"#utility.yul\":12577:12594   */\n      and\n        /* \"#utility.yul\":12566:12575   */\n      dup3\n        /* \"#utility.yul\":12547:12595   */\n      tag_187\n      jump\t// in\n    tag_343:\n        /* \"#utility.yul\":12539:12545   */\n      dup4\n        /* \"#utility.yul\":12532:12596   */\n      sstore\n        /* \"#utility.yul\":12454:12610   */\n      pop\n        /* \"#utility.yul\":12431:12610   */\n    tag_342:\n        /* \"#utility.yul\":12656:12657   */\n      0x01\n        /* \"#utility.yul\":12652:12653   */\n      0x02\n        /* \"#utility.yul\":12644:12650   */\n      dup9\n        /* \"#utility.yul\":12640:12654   */\n      mul\n        /* \"#utility.yul\":12636:12658   */\n      add\n        /* \"#utility.yul\":12630:12634   */\n      dup9\n        /* \"#utility.yul\":12623:12659   */\n      sstore\n        /* \"#utility.yul\":12059:12669   */\n      pop\n      pop\n      pop\n        /* \"#utility.yul\":12022:12908   */\n    tag_334:\n      pop\n        /* \"#utility.yul\":11614:12914   */\n      pop\n      pop\n      pop\n        /* \"#utility.yul\":11524:12914   */\n      pop\n      pop\n      jump\t// out\n        /* \"#utility.yul\":12920:13089   */\n    tag_189:\n        /* \"#utility.yul\":13060:13081   */\n      0x496e646578206f7574206f6620626f756e647300000000000000000000000000\n        /* \"#utility.yul\":13056:13057   */\n      0x00\n        /* \"#utility.yul\":13048:13054   */\n      dup3\n        /* \"#utility.yul\":13044:13058   */\n      add\n        /* \"#utility.yul\":13037:13082   */\n      mstore\n        /* \"#utility.yul\":12920:13089   */\n      pop\n      jump\t// out\n        /* \"#utility.yul\":13095:13461   */\n    tag_190:\n        /* \"#utility.yul\":13237:13240   */\n      0x00\n        /* \"#utility.yul\":13258:13325   */\n      tag_346\n        /* \"#utility.yul\":13322:13324   */\n      0x13\n        /* \"#utility.yul\":13317:13320   */\n      dup4\n        /* \"#utility.yul\":13258:13325   */\n      tag_166\n      jump\t// in\n    tag_346:\n        /* \"#utility.yul\":13251:13325   */\n      swap2\n      pop\n        /* \"#utility.yul\":13334:13427   */\n      tag_347\n        /* \"#utility.yul\":13423:13426   */\n      dup3\n        /* \"#utility.yul\":13334:13427   */\n      tag_189\n      jump\t// in\n    tag_347:\n        /* \"#utility.yul\":13452:13454   */\n      0x20\n        /* \"#utility.yul\":13447:13450   */\n      dup3\n        /* \"#utility.yul\":13443:13455   */\n      add\n        /* \"#utility.yul\":13436:13455   */\n      swap1\n      pop\n        /* \"#utility.yul\":13095:13461   */\n      swap2\n      swap1\n      pop\n      jump\t// out\n        /* \"#utility.yul\":13467:13886   */\n    tag_90:\n        /* \"#utility.yul\":13633:13637   */\n      0x00\n        /* \"#utility.yul\":13671:13673   */\n      0x20\n        /* \"#utility.yul\":13660:13669   */\n      dup3\n        /* \"#utility.yul\":13656:13674   */\n      add\n        /* \"#utility.yul\":13648:13674   */\n      swap1\n      pop\n        /* \"#utility.yul\":13720:13729   */\n      dup2\n        /* \"#utility.yul\":13714:13718   */\n      dup2\n        /* \"#utility.yul\":13710:13730   */\n      sub\n        /* \"#utility.yul\":13706:13707   */\n      0x00\n        /* \"#utility.yul\":13695:13704   */\n      dup4\n        /* \"#utility.yul\":13691:13708   */\n      add\n        /* \"#utility.yul\":13684:13731   */\n      mstore\n        /* \"#utility.yul\":13748:13879   */\n      tag_349\n        /* \"#utility.yul\":13874:13878   */\n      dup2\n        /* \"#utility.yul\":13748:13879   */\n      tag_190\n      jump\t// in\n    tag_349:\n        /* \"#utility.yul\":13740:13879   */\n      swap1\n      pop\n        /* \"#utility.yul\":13467:13886   */\n      swap2\n      swap1\n      pop\n      jump\t// out\n\n    auxdata: 0xa26469706673582212208ffb4928262c63c59f394c2a026b13d097beba762065c625e063cf0e5f51be3d64736f6c634300081e0033\n}\n",
				"bytecode": {
					"linkReferences": {},
					"object": "60806040526040518060400160405280600381526020017f6162630000000000000000000000000000000000000000000000000000000000815250600190816100489190610297565b50348015610054575f5ffd5b50610366565b5f81519050919050565b7f4e487b71000000000000000000000000000000000000000000000000000000005f52604160045260245ffd5b7f4e487b71000000000000000000000000000000000000000000000000000000005f52602260045260245ffd5b5f60028204905060018216806100d557607f821691505b6020821081036100e8576100e7610091565b5b50919050565b5f819050815f5260205f209050919050565b5f6020601f8301049050919050565b5f82821b905092915050565b5f6008830261014a7fffffffffffffffffffffffffffffffffffffffffffffffffffffffffffffffff8261010f565b610154868361010f565b95508019841693508086168417925050509392505050565b5f819050919050565b5f819050919050565b5f61019861019361018e8461016c565b610175565b61016c565b9050919050565b5f819050919050565b6101b18361017e565b6101c56101bd8261019f565b84845461011b565b825550505050565b5f5f905090565b6101dc6101cd565b6101e78184846101a8565b505050565b5b8181101561020a576101ff5f826101d4565b6001810190506101ed565b5050565b601f82111561024f57610220816100ee565b61022984610100565b81016020851015610238578190505b61024c61024485610100565b8301826101ec565b50505b505050565b5f82821c905092915050565b5f61026f5f1984600802610254565b1980831691505092915050565b5f6102878383610260565b9150826002028217905092915050565b6102a08261005a565b67ffffffffffffffff8111156102b9576102b8610064565b5b6102c382546100be565b6102ce82828561020e565b5f60209050601f8311600181146102ff575f84156102ed578287015190505b6102f7858261027c565b86555061035e565b601f19841661030d866100ee565b5f5b828110156103345784890151825560018201915060208501945060208101905061030f565b86831015610351578489015161034d601f891682610260565b8355505b6001600288020188555050505b505050505050565b610fe7806103735f395ff3fe608060405234801561000f575f5ffd5b50600436106100a7575f3560e01c806348fe810c1161006f57806348fe810c1461014f5780636987b1fb1461017f5780639f871cd9146101af578063be1c766b146101b9578063cc082990146101d7578063ee495002146101e1576100a7565b80630d273ad1146100ab578063302c3cfa146100c75780633412fff0146100e55780633a7d22bc1461010157806347e4680614610131575b5f5ffd5b6100c560048036038101906100c0919061086f565b6101ff565b005b6100cf610395565b6040516100dc91906108b2565b60405180910390f35b6100ff60048036038101906100fa9190610a07565b6103a0565b005b61011b60048036038101906101169190610a78565b6103d4565b6040516101289190610ab2565b60405180910390f35b61013961048c565b6040516101469190610b2b565b60405180910390f35b61016960048036038101906101649190610a78565b61051c565b6040516101769190610b9d565b60405180910390f35b61019960048036038101906101949190610a78565b61060d565b6040516101a69190610b9d565b60405180910390f35b6101b76106b2565b005b6101c16106c0565b6040516101ce91906108b2565b60405180910390f35b6101df6106d5565b005b6101e96106e4565b6040516101f69190610b9d565b60405180910390f35b5f600180805461020e90610bea565b905061021a9190610c47565b67ffffffffffffffff811115610233576102326108e3565b5b6040519080825280601f01601f1916602001820160405280156102655781602001600182028036833780820191505090505b5090505f5f90505b6001805461027a90610bea565b905081101561033157600181815461029190610bea565b81106102a05761029f610c7a565b5b8154600116156102bd57905f5260205f2090602091828204019190065b9054901a7f0100000000000000000000000000000000000000000000000000000000000000028282815181106102f6576102f5610c7a565b5b60200101907effffffffffffffffffffffffffffffffffffffffffffffffffffffffffffff191690815f1a905350808060010191505061026d565b508181600183516103429190610ca7565b8151811061035357610352610c7a565b5b60200101907effffffffffffffffffffffffffffffffffffffffffffffffffffffffffffff191690815f1a90535080600190816103909190610e7a565b505050565b5f5f80549050905090565b5f81908060018154018082558091505060019003905f5260205f20015f9091909190915090816103d09190610e7a565b5050565b5f600180546103e290610bea565b90508210610425576040517f08c379a000000000000000000000000000000000000000000000000000000000815260040161041c90610f93565b60405180910390fd5b600182815461043390610bea565b811061044257610441610c7a565b5b81546001161561045f57905f5260205f2090602091828204019190065b9054901a7f0100000000000000000000000000000000000000000000000000000000000000029050919050565b60606001805461049b90610bea565b80601f01602080910402602001604051908101604052809291908181526020018280546104c790610bea565b80156105125780601f106104e957610100808354040283529160200191610512565b820191905f5260205f20905b8154815290600101906020018083116104f557829003601f168201915b5050505050905090565b60605f805490508210610564576040517f08c379a000000000000000000000000000000000000000000000000000000000815260040161055b90610f93565b60405180910390fd5b5f828154811061057757610576610c7a565b5b905f5260205f2001805461058a90610bea565b80601f01602080910402602001604051908101604052809291908181526020018280546105b690610bea565b80156106015780601f106105d857610100808354040283529160200191610601565b820191905f5260205f20905b8154815290600101906020018083116105e457829003601f168201915b50505050509050919050565b5f818154811061061b575f80fd5b905f5260205f20015f91509050805461063390610bea565b80601f016020809104026020016040519081016040528092919081815260200182805461065f90610bea565b80156106aa5780601f10610681576101008083540402835291602001916106aa565b820191905f5260205f20905b81548152906001019060200180831161068d57829003601f168201915b505050505081565b5f5f6106be9190610770565b565b5f600180546106ce90610bea565b9050905090565b60015f6106e2919061078e565b565b600180546106f190610bea565b80601f016020809104026020016040519081016040528092919081815260200182805461071d90610bea565b80156107685780601f1061073f57610100808354040283529160200191610768565b820191905f5260205f20905b81548152906001019060200180831161074b57829003601f168201915b505050505081565b5080545f8255905f5260205f209081019061078b91906107cb565b50565b50805461079a90610bea565b5f825580601f106107ab57506107c8565b601f0160209004905f5260205f20908101906107c791906107ee565b5b50565b5b808211156107ea575f81816107e1919061078e565b506001016107cc565b5090565b5b80821115610805575f815f9055506001016107ef565b5090565b5f604051905090565b5f5ffd5b5f5ffd5b5f7fff0000000000000000000000000000000000000000000000000000000000000082169050919050565b61084e8161081a565b8114610858575f5ffd5b50565b5f8135905061086981610845565b92915050565b5f6020828403121561088457610883610812565b5b5f6108918482850161085b565b91505092915050565b5f819050919050565b6108ac8161089a565b82525050565b5f6020820190506108c55f8301846108a3565b92915050565b5f5ffd5b5f5ffd5b5f601f19601f8301169050919050565b7f4e487b71000000000000000000000000000000000000000000000000000000005f52604160045260245ffd5b610919826108d3565b810181811067ffffffffffffffff82111715610938576109376108e3565b5b80604052505050565b5f61094a610809565b90506109568282610910565b919050565b5f67ffffffffffffffff821115610975576109746108e3565b5b61097e826108d3565b9050602081019050919050565b828183375f83830152505050565b5f6109ab6109a68461095b565b610941565b9050828152602081018484840111156109c7576109c66108cf565b5b6109d284828561098b565b509392505050565b5f82601f8301126109ee576109ed6108cb565b5b81356109fe848260208601610999565b91505092915050565b5f60208284031215610a1c57610a1b610812565b5b5f82013567ffffffffffffffff811115610a3957610a38610816565b5b610a45848285016109da565b91505092915050565b610a578161089a565b8114610a61575f5ffd5b50565b5f81359050610a7281610a4e565b92915050565b5f60208284031215610a8d57610a8c610812565b5b5f610a9a84828501610a64565b91505092915050565b610aac8161081a565b82525050565b5f602082019050610ac55f830184610aa3565b92915050565b5f81519050919050565b5f82825260208201905092915050565b8281835e5f83830152505050565b5f610afd82610acb565b610b078185610ad5565b9350610b17818560208601610ae5565b610b20816108d3565b840191505092915050565b5f6020820190508181035f830152610b438184610af3565b905092915050565b5f81519050919050565b5f82825260208201905092915050565b5f610b6f82610b4b565b610b798185610b55565b9350610b89818560208601610ae5565b610b92816108d3565b840191505092915050565b5f6020820190508181035f830152610bb58184610b65565b905092915050565b7f4e487b71000000000000000000000000000000000000000000000000000000005f52602260045260245ffd5b5f6002820490506001821680610c0157607f821691505b602082108103610c1457610c13610bbd565b5b50919050565b7f4e487b71000000000000000000000000000000000000000000000000000000005f52601160045260245ffd5b5f610c518261089a565b9150610c5c8361089a565b9250828201905080821115610c7457610c73610c1a565b5b92915050565b7f4e487b71000000000000000000000000000000000000000000000000000000005f52603260045260245ffd5b5f610cb18261089a565b9150610cbc8361089a565b9250828203905081811115610cd457610cd3610c1a565b5b92915050565b5f819050815f5260205f209050919050565b5f6020601f8301049050919050565b5f82821b905092915050565b5f60088302610d367fffffffffffffffffffffffffffffffffffffffffffffffffffffffffffffffff82610cfb565b610d408683610cfb565b95508019841693508086168417925050509392505050565b5f819050919050565b5f610d7b610d76610d718461089a565b610d58565b61089a565b9050919050565b5f819050919050565b610d9483610d61565b610da8610da082610d82565b848454610d07565b825550505050565b5f5f905090565b610dbf610db0565b610dca818484610d8b565b505050565b5b81811015610ded57610de25f82610db7565b600181019050610dd0565b5050565b601f821115610e3257610e0381610cda565b610e0c84610cec565b81016020851015610e1b578190505b610e2f610e2785610cec565b830182610dcf565b50505b505050565b5f82821c905092915050565b5f610e525f1984600802610e37565b1980831691505092915050565b5f610e6a8383610e43565b9150826002028217905092915050565b610e8382610b4b565b67ffffffffffffffff811115610e9c57610e9b6108e3565b5b610ea68254610bea565b610eb1828285610df1565b5f60209050601f831160018114610ee2575f8415610ed0578287015190505b610eda8582610e5f565b865550610f41565b601f198416610ef086610cda565b5f5b82811015610f1757848901518255600182019150602085019450602081019050610ef2565b86831015610f345784890151610f30601f891682610e43565b8355505b6001600288020188555050505b505050505050565b7f496e646578206f7574206f6620626f756e6473000000000000000000000000005f82015250565b5f610f7d601383610ad5565b9150610f8882610f49565b602082019050919050565b5f6020820190508181035f830152610faa81610f71565b905091905056fea26469706673582212208ffb4928262c63c59f394c2a026b13d097beba762065c625e063cf0e5f51be3d64736f6c634300081e0033",
					"opcodes": "PUSH1 0x80 PUSH1 0x40 MSTORE PUSH1 0x40 MLOAD DUP1 PUSH1 0x40 ADD PUSH1 0x40 MSTORE DUP1 PUSH1 0x3 DUP2 MSTORE PUSH1 0x20 ADD PUSH32 0x6162630000000000000000000000000000000000000000000000000000000000 DUP2 MSTORE POP PUSH1 0x1 SWAP1 DUP2 PUSH2 0x48 SWAP2 SWAP1 PUSH2 0x297 JUMP JUMPDEST POP CALLVALUE DUP1 ISZERO PUSH2 0x54 JUMPI PUSH0 PUSH0 REVERT JUMPDEST POP PUSH2 0x366 JUMP JUMPDEST PUSH0 DUP2 MLOAD SWAP1 POP SWAP2 SWAP1 POP JUMP JUMPDEST PUSH32 0x4E487B7100000000000000000000000000000000000000000000000000000000 PUSH0 MSTORE PUSH1 0x41 PUSH1 0x4 MSTORE PUSH1 0x24 PUSH0 REVERT JUMPDEST PUSH32 0x4E487B7100000000000000000000000000000000000000000000000000000000 PUSH0 MSTORE PUSH1 0x22 PUSH1 0x4 MSTORE PUSH1 0x24 PUSH0 REVERT JUMPDEST PUSH0 PUSH1 0x2 DUP3 DIV SWAP1 POP PUSH1 0x1 DUP3 AND DUP1 PUSH2 0xD5 JUMPI PUSH1 0x7F DUP3 AND SWAP2 POP JUMPDEST PUSH1 0x20 DUP3 LT DUP2 SUB PUSH2 0xE8 JUMPI PUSH2 0xE7 PUSH2 0x91 JUMP JUMPDEST JUMPDEST POP SWAP2 SWAP1 POP JUMP JUMPDEST PUSH0 DUP2 SWAP1 POP DUP2 PUSH0 MSTORE PUSH1 0x20 PUSH0 KECCAK256 SWAP1 POP SWAP2 SWAP1 POP JUMP JUMPDEST PUSH0 PUSH1 0x20 PUSH1 0x1F DUP4 ADD DIV SWAP1 POP SWAP2 SWAP1 POP JUMP JUMPDEST PUSH0 DUP3 DUP3 SHL SWAP1 POP SWAP3 SWAP2 POP POP JUMP JUMPDEST PUSH0 PUSH1 0x8 DUP4 MUL PUSH2 0x14A PUSH32 0xFFFFFFFFFFFFFFFFFFFFFFFFFFFFFFFFFFFFFFFFFFFFFFFFFFFFFFFFFFFFFFFF DUP3 PUSH2 0x10F JUMP JUMPDEST PUSH2 0x154 DUP7 DUP4 PUSH2 0x10F JUMP JUMPDEST SWAP6 POP DUP1 NOT DUP5 AND SWAP4 POP DUP1 DUP7 AND DUP5 OR SWAP3 POP POP POP SWAP4 SWAP3 POP POP POP JUMP JUMPDEST PUSH0 DUP2 SWAP1 POP SWAP2 SWAP1 POP JUMP JUMPDEST PUSH0 DUP2 SWAP1 POP SWAP2 SWAP1 POP JUMP JUMPDEST PUSH0 PUSH2 0x198 PUSH2 0x193 PUSH2 0x18E DUP5 PUSH2 0x16C JUMP JUMPDEST PUSH2 0x175 JUMP JUMPDEST PUSH2 0x16C JUMP JUMPDEST SWAP1 POP SWAP2 SWAP1 POP JUMP JUMPDEST PUSH0 DUP2 SWAP1 POP SWAP2 SWAP1 POP JUMP JUMPDEST PUSH2 0x1B1 DUP4 PUSH2 0x17E JUMP JUMPDEST PUSH2 0x1C5 PUSH2 0x1BD DUP3 PUSH2 0x19F JUMP JUMPDEST DUP5 DUP5 SLOAD PUSH2 0x11B JUMP JUMPDEST DUP3 SSTORE POP POP POP POP JUMP JUMPDEST PUSH0 PUSH0 SWAP1 POP SWAP1 JUMP JUMPDEST PUSH2 0x1DC PUSH2 0x1CD JUMP JUMPDEST PUSH2 0x1E7 DUP2 DUP5 DUP5 PUSH2 0x1A8 JUMP JUMPDEST POP POP POP JUMP JUMPDEST JUMPDEST DUP2 DUP2 LT ISZERO PUSH2 0x20A JUMPI PUSH2 0x1FF PUSH0 DUP3 PUSH2 0x1D4 JUMP JUMPDEST PUSH1 0x1 DUP2 ADD SWAP1 POP PUSH2 0x1ED JUMP JUMPDEST POP POP JUMP JUMPDEST PUSH1 0x1F DUP3 GT ISZERO PUSH2 0x24F JUMPI PUSH2 0x220 DUP2 PUSH2 0xEE JUMP JUMPDEST PUSH2 0x229 DUP5 PUSH2 0x100 JUMP JUMPDEST DUP2 ADD PUSH1 0x20 DUP6 LT ISZERO PUSH2 0x238 JUMPI DUP2 SWAP1 POP JUMPDEST PUSH2 0x24C PUSH2 0x244 DUP6 PUSH2 0x100 JUMP JUMPDEST DUP4 ADD DUP3 PUSH2 0x1EC JUMP JUMPDEST POP POP JUMPDEST POP POP POP JUMP JUMPDEST PUSH0 DUP3 DUP3 SHR SWAP1 POP SWAP3 SWAP2 POP POP JUMP JUMPDEST PUSH0 PUSH2 0x26F PUSH0 NOT DUP5 PUSH1 0x8 MUL PUSH2 0x254 JUMP JUMPDEST NOT DUP1 DUP4 AND SWAP2 POP POP SWAP3 SWAP2 POP POP JUMP JUMPDEST PUSH0 PUSH2 0x287 DUP4 DUP4 PUSH2 0x260 JUMP JUMPDEST SWAP2 POP DUP3 PUSH1 0x2 MUL DUP3 OR SWAP1 POP SWAP3 SWAP2 POP POP JUMP JUMPDEST PUSH2 0x2A0 DUP3 PUSH2 0x5A JUMP JUMPDEST PUSH8 0xFFFFFFFFFFFFFFFF DUP2 GT ISZERO PUSH2 0x2B9 JUMPI PUSH2 0x2B8 PUSH2 0x64 JUMP JUMPDEST JUMPDEST PUSH2 0x2C3 DUP3 SLOAD PUSH2 0xBE JUMP JUMPDEST PUSH2 0x2CE DUP3 DUP3 DUP6 PUSH2 0x20E JUMP JUMPDEST PUSH0 PUSH1 0x20 SWAP1 POP PUSH1 0x1F DUP4 GT PUSH1 0x1 DUP2 EQ PUSH2 0x2FF JUMPI PUSH0 DUP5 ISZERO PUSH2 0x2ED JUMPI DUP3 DUP8 ADD MLOAD SWAP1 POP JUMPDEST PUSH2 0x2F7 DUP6 DUP3 PUSH2 0x27C JUMP JUMPDEST DUP7 SSTORE POP PUSH2 0x35E JUMP JUMPDEST PUSH1 0x1F NOT DUP5 AND PUSH2 0x30D DUP7 PUSH2 0xEE JUMP JUMPDEST PUSH0 JUMPDEST DUP3 DUP2 LT ISZERO PUSH2 0x334 JUMPI DUP5 DUP10 ADD MLOAD DUP3 SSTORE PUSH1 0x1 DUP3 ADD SWAP2 POP PUSH1 0x20 DUP6 ADD SWAP5 POP PUSH1 0x20 DUP2 ADD SWAP1 POP PUSH2 0x30F JUMP JUMPDEST DUP7 DUP4 LT ISZERO PUSH2 0x351 JUMPI DUP5 DUP10 ADD MLOAD PUSH2 0x34D PUSH1 0x1F DUP10 AND DUP3 PUSH2 0x260 JUMP JUMPDEST DUP4 SSTORE POP JUMPDEST PUSH1 0x1 PUSH1 0x2 DUP9 MUL ADD DUP9 SSTORE POP POP POP JUMPDEST POP POP POP POP POP POP JUMP JUMPDEST PUSH2 0xFE7 DUP1 PUSH2 0x373 PUSH0 CODECOPY PUSH0 RETURN INVALID PUSH1 0x80 PUSH1 0x40 MSTORE CALLVALUE DUP1 ISZERO PUSH2 0xF JUMPI PUSH0 PUSH0 REVERT JUMPDEST POP PUSH1 0x4 CALLDATASIZE LT PUSH2 0xA7 JUMPI PUSH0 CALLDATALOAD PUSH1 0xE0 SHR DUP1 PUSH4 0x48FE810C GT PUSH2 0x6F JUMPI DUP1 PUSH4 0x48FE810C EQ PUSH2 0x14F JUMPI DUP1 PUSH4 0x6987B1FB EQ PUSH2 0x17F JUMPI DUP1 PUSH4 0x9F871CD9 EQ PUSH2 0x1AF JUMPI DUP1 PUSH4 0xBE1C766B EQ PUSH2 0x1B9 JUMPI DUP1 PUSH4 0xCC082990 EQ PUSH2 0x1D7 JUMPI DUP1 PUSH4 0xEE495002 EQ PUSH2 0x1E1 JUMPI PUSH2 0xA7 JUMP JUMPDEST DUP1 PUSH4 0xD273AD1 EQ PUSH2 0xAB JUMPI DUP1 PUSH4 0x302C3CFA EQ PUSH2 0xC7 JUMPI DUP1 PUSH4 0x3412FFF0 EQ PUSH2 0xE5 JUMPI DUP1 PUSH4 0x3A7D22BC EQ PUSH2 0x101 JUMPI DUP1 PUSH4 0x47E46806 EQ PUSH2 0x131 JUMPI JUMPDEST PUSH0 PUSH0 REVERT JUMPDEST PUSH2 0xC5 PUSH1 0x4 DUP1 CALLDATASIZE SUB DUP2 ADD SWAP1 PUSH2 0xC0 SWAP2 SWAP1 PUSH2 0x86F JUMP JUMPDEST PUSH2 0x1FF JUMP JUMPDEST STOP JUMPDEST PUSH2 0xCF PUSH2 0x395 JUMP JUMPDEST PUSH1 0x40 MLOAD PUSH2 0xDC SWAP2 SWAP1 PUSH2 0x8B2 JUMP JUMPDEST PUSH1 0x40 MLOAD DUP1 SWAP2 SUB SWAP1 RETURN JUMPDEST PUSH2 0xFF PUSH1 0x4 DUP1 CALLDATASIZE SUB DUP2 ADD SWAP1 PUSH2 0xFA SWAP2 SWAP1 PUSH2 0xA07 JUMP JUMPDEST PUSH2 0x3A0 JUMP JUMPDEST STOP JUMPDEST PUSH2 0x11B PUSH1 0x4 DUP1 CALLDATASIZE SUB DUP2 ADD SWAP1 PUSH2 0x116 SWAP2 SWAP1 PUSH2 0xA78 JUMP JUMPDEST PUSH2 0x3D4 JUMP JUMPDEST PUSH1 0x40 MLOAD PUSH2 0x128 SWAP2 SWAP1 PUSH2 0xAB2 JUMP JUMPDEST PUSH1 0x40 MLOAD DUP1 SWAP2 SUB SWAP1 RETURN JUMPDEST PUSH2 0x139 PUSH2 0x48C JUMP JUMPDEST PUSH1 0x40 MLOAD PUSH2 0x146 SWAP2 SWAP1 PUSH2 0xB2B JUMP JUMPDEST PUSH1 0x40 MLOAD DUP1 SWAP2 SUB SWAP1 RETURN JUMPDEST PUSH2 0x169 PUSH1 0x4 DUP1 CALLDATASIZE SUB DUP2 ADD SWAP1 PUSH2 0x164 SWAP2 SWAP1 PUSH2 0xA78 JUMP JUMPDEST PUSH2 0x51C JUMP JUMPDEST PUSH1 0x40 MLOAD PUSH2 0x176 SWAP2 SWAP1 PUSH2 0xB9D JUMP JUMPDEST PUSH1 0x40 MLOAD DUP1 SWAP2 SUB SWAP1 RETURN JUMPDEST PUSH2 0x199 PUSH1 0x4 DUP1 CALLDATASIZE SUB DUP2 ADD SWAP1 PUSH2 0x194 SWAP2 SWAP1 PUSH2 0xA78 JUMP JUMPDEST PUSH2 0x60D JUMP JUMPDEST PUSH1 0x40 MLOAD PUSH2 0x1A6 SWAP2 SWAP1 PUSH2 0xB9D JUMP JUMPDEST PUSH1 0x40 MLOAD DUP1 SWAP2 SUB SWAP1 RETURN JUMPDEST PUSH2 0x1B7 PUSH2 0x6B2 JUMP JUMPDEST STOP JUMPDEST PUSH2 0x1C1 PUSH2 0x6C0 JUMP JUMPDEST PUSH1 0x40 MLOAD PUSH2 0x1CE SWAP2 SWAP1 PUSH2 0x8B2 JUMP JUMPDEST PUSH1 0x40 MLOAD DUP1 SWAP2 SUB SWAP1 RETURN JUMPDEST PUSH2 0x1DF PUSH2 0x6D5 JUMP JUMPDEST STOP JUMPDEST PUSH2 0x1E9 PUSH2 0x6E4 JUMP JUMPDEST PUSH1 0x40 MLOAD PUSH2 0x1F6 SWAP2 SWAP1 PUSH2 0xB9D JUMP JUMPDEST PUSH1 0x40 MLOAD DUP1 SWAP2 SUB SWAP1 RETURN JUMPDEST PUSH0 PUSH1 0x1 DUP1 DUP1 SLOAD PUSH2 0x20E SWAP1 PUSH2 0xBEA JUMP JUMPDEST SWAP1 POP PUSH2 0x21A SWAP2 SWAP1 PUSH2 0xC47 JUMP JUMPDEST PUSH8 0xFFFFFFFFFFFFFFFF DUP2 GT ISZERO PUSH2 0x233 JUMPI PUSH2 0x232 PUSH2 0x8E3 JUMP JUMPDEST JUMPDEST PUSH1 0x40 MLOAD SWAP1 DUP1 DUP3 MSTORE DUP1 PUSH1 0x1F ADD PUSH1 0x1F NOT AND PUSH1 0x20 ADD DUP3 ADD PUSH1 0x40 MSTORE DUP1 ISZERO PUSH2 0x265 JUMPI DUP2 PUSH1 0x20 ADD PUSH1 0x1 DUP3 MUL DUP1 CALLDATASIZE DUP4 CALLDATACOPY DUP1 DUP3 ADD SWAP2 POP POP SWAP1 POP JUMPDEST POP SWAP1 POP PUSH0 PUSH0 SWAP1 POP JUMPDEST PUSH1 0x1 DUP1 SLOAD PUSH2 0x27A SWAP1 PUSH2 0xBEA JUMP JUMPDEST SWAP1 POP DUP2 LT ISZERO PUSH2 0x331 JUMPI PUSH1 0x1 DUP2 DUP2 SLOAD PUSH2 0x291 SWAP1 PUSH2 0xBEA JUMP JUMPDEST DUP2 LT PUSH2 0x2A0 JUMPI PUSH2 0x29F PUSH2 0xC7A JUMP JUMPDEST JUMPDEST DUP2 SLOAD PUSH1 0x1 AND ISZERO PUSH2 0x2BD JUMPI SWAP1 PUSH0 MSTORE PUSH1 0x20 PUSH0 KECCAK256 SWAP1 PUSH1 0x20 SWAP2 DUP3 DUP3 DIV ADD SWAP2 SWAP1 MOD JUMPDEST SWAP1 SLOAD SWAP1 BYTE PUSH32 0x100000000000000000000000000000000000000000000000000000000000000 MUL DUP3 DUP3 DUP2 MLOAD DUP2 LT PUSH2 0x2F6 JUMPI PUSH2 0x2F5 PUSH2 0xC7A JUMP JUMPDEST JUMPDEST PUSH1 0x20 ADD ADD SWAP1 PUSH31 0xFFFFFFFFFFFFFFFFFFFFFFFFFFFFFFFFFFFFFFFFFFFFFFFFFFFFFFFFFFFFFF NOT AND SWAP1 DUP2 PUSH0 BYTE SWAP1 MSTORE8 POP DUP1 DUP1 PUSH1 0x1 ADD SWAP2 POP POP PUSH2 0x26D JUMP JUMPDEST POP DUP2 DUP2 PUSH1 0x1 DUP4 MLOAD PUSH2 0x342 SWAP2 SWAP1 PUSH2 0xCA7 JUMP JUMPDEST DUP2 MLOAD DUP2 LT PUSH2 0x353 JUMPI PUSH2 0x352 PUSH2 0xC7A JUMP JUMPDEST JUMPDEST PUSH1 0x20 ADD ADD SWAP1 PUSH31 0xFFFFFFFFFFFFFFFFFFFFFFFFFFFFFFFFFFFFFFFFFFFFFFFFFFFFFFFFFFFFFF NOT AND SWAP1 DUP2 PUSH0 BYTE SWAP1 MSTORE8 POP DUP1 PUSH1 0x1 SWAP1 DUP2 PUSH2 0x390 SWAP2 SWAP1 PUSH2 0xE7A JUMP JUMPDEST POP POP POP JUMP JUMPDEST PUSH0 PUSH0 DUP1 SLOAD SWAP1 POP SWAP1 POP SWAP1 JUMP JUMPDEST PUSH0 DUP2 SWAP1 DUP1 PUSH1 0x1 DUP2 SLOAD ADD DUP1 DUP3 SSTORE DUP1 SWAP2 POP POP PUSH1 0x1 SWAP1 SUB SWAP1 PUSH0 MSTORE PUSH1 0x20 PUSH0 KECCAK256 ADD PUSH0 SWAP1 SWAP2 SWAP1 SWAP2 SWAP1 SWAP2 POP SWAP1 DUP2 PUSH2 0x3D0 SWAP2 SWAP1 PUSH2 0xE7A JUMP JUMPDEST POP POP JUMP JUMPDEST PUSH0 PUSH1 0x1 DUP1 SLOAD PUSH2 0x3E2 SWAP1 PUSH2 0xBEA JUMP JUMPDEST SWAP1 POP DUP3 LT PUSH2 0x425 JUMPI PUSH1 0x40 MLOAD PUSH32 0x8C379A000000000000000000000000000000000000000000000000000000000 DUP2 MSTORE PUSH1 0x4 ADD PUSH2 0x41C SWAP1 PUSH2 0xF93 JUMP JUMPDEST PUSH1 0x40 MLOAD DUP1 SWAP2 SUB SWAP1 REVERT JUMPDEST PUSH1 0x1 DUP3 DUP2 SLOAD PUSH2 0x433 SWAP1 PUSH2 0xBEA JUMP JUMPDEST DUP2 LT PUSH2 0x442 JUMPI PUSH2 0x441 PUSH2 0xC7A JUMP JUMPDEST JUMPDEST DUP2 SLOAD PUSH1 0x1 AND ISZERO PUSH2 0x45F JUMPI SWAP1 PUSH0 MSTORE PUSH1 0x20 PUSH0 KECCAK256 SWAP1 PUSH1 0x20 SWAP2 DUP3 DUP3 DIV ADD SWAP2 SWAP1 MOD JUMPDEST SWAP1 SLOAD SWAP1 BYTE PUSH32 0x100000000000000000000000000000000000000000000000000000000000000 MUL SWAP1 POP SWAP2 SWAP1 POP JUMP JUMPDEST PUSH1 0x60 PUSH1 0x1 DUP1 SLOAD PUSH2 0x49B SWAP1 PUSH2 0xBEA JUMP JUMPDEST DUP1 PUSH1 0x1F ADD PUSH1 0x20 DUP1 SWAP2 DIV MUL PUSH1 0x20 ADD PUSH1 0x40 MLOAD SWAP1 DUP2 ADD PUSH1 0x40 MSTORE DUP1 SWAP3 SWAP2 SWAP1 DUP2 DUP2 MSTORE PUSH1 0x20 ADD DUP3 DUP1 SLOAD PUSH2 0x4C7 SWAP1 PUSH2 0xBEA JUMP JUMPDEST DUP1 ISZERO PUSH2 0x512 JUMPI DUP1 PUSH1 0x1F LT PUSH2 0x4E9 JUMPI PUSH2 0x100 DUP1 DUP4 SLOAD DIV MUL DUP4 MSTORE SWAP2 PUSH1 0x20 ADD SWAP2 PUSH2 0x512 JUMP JUMPDEST DUP3 ADD SWAP2 SWAP1 PUSH0 MSTORE PUSH1 0x20 PUSH0 KECCAK256 SWAP1 JUMPDEST DUP2 SLOAD DUP2 MSTORE SWAP1 PUSH1 0x1 ADD SWAP1 PUSH1 0x20 ADD DUP1 DUP4 GT PUSH2 0x4F5 JUMPI DUP3 SWAP1 SUB PUSH1 0x1F AND DUP3 ADD SWAP2 JUMPDEST POP POP POP POP POP SWAP1 POP SWAP1 JUMP JUMPDEST PUSH1 0x60 PUSH0 DUP1 SLOAD SWAP1 POP DUP3 LT PUSH2 0x564 JUMPI PUSH1 0x40 MLOAD PUSH32 0x8C379A000000000000000000000000000000000000000000000000000000000 DUP2 MSTORE PUSH1 0x4 ADD PUSH2 0x55B SWAP1 PUSH2 0xF93 JUMP JUMPDEST PUSH1 0x40 MLOAD DUP1 SWAP2 SUB SWAP1 REVERT JUMPDEST PUSH0 DUP3 DUP2 SLOAD DUP2 LT PUSH2 0x577 JUMPI PUSH2 0x576 PUSH2 0xC7A JUMP JUMPDEST JUMPDEST SWAP1 PUSH0 MSTORE PUSH1 0x20 PUSH0 KECCAK256 ADD DUP1 SLOAD PUSH2 0x58A SWAP1 PUSH2 0xBEA JUMP JUMPDEST DUP1 PUSH1 0x1F ADD PUSH1 0x20 DUP1 SWAP2 DIV MUL PUSH1 0x20 ADD PUSH1 0x40 MLOAD SWAP1 DUP2 ADD PUSH1 0x40 MSTORE DUP1 SWAP3 SWAP2 SWAP1 DUP2 DUP2 MSTORE PUSH1 0x20 ADD DUP3 DUP1 SLOAD PUSH2 0x5B6 SWAP1 PUSH2 0xBEA JUMP JUMPDEST DUP1 ISZERO PUSH2 0x601 JUMPI DUP1 PUSH1 0x1F LT PUSH2 0x5D8 JUMPI PUSH2 0x100 DUP1 DUP4 SLOAD DIV MUL DUP4 MSTORE SWAP2 PUSH1 0x20 ADD SWAP2 PUSH2 0x601 JUMP JUMPDEST DUP3 ADD SWAP2 SWAP1 PUSH0 MSTORE PUSH1 0x20 PUSH0 KECCAK256 SWAP1 JUMPDEST DUP2 SLOAD DUP2 MSTORE SWAP1 PUSH1 0x1 ADD SWAP1 PUSH1 0x20 ADD DUP1 DUP4 GT PUSH2 0x5E4 JUMPI DUP3 SWAP1 SUB PUSH1 0x1F AND DUP3 ADD SWAP2 JUMPDEST POP POP POP POP POP SWAP1 POP SWAP2 SWAP1 POP JUMP JUMPDEST PUSH0 DUP2 DUP2 SLOAD DUP2 LT PUSH2 0x61B JUMPI PUSH0 DUP1 REVERT JUMPDEST SWAP1 PUSH0 MSTORE PUSH1 0x20 PUSH0 KECCAK256 ADD PUSH0 SWAP2 POP SWAP1 POP DUP1 SLOAD PUSH2 0x633 SWAP1 PUSH2 0xBEA JUMP JUMPDEST DUP1 PUSH1 0x1F ADD PUSH1 0x20 DUP1 SWAP2 DIV MUL PUSH1 0x20 ADD PUSH1 0x40 MLOAD SWAP1 DUP2 ADD PUSH1 0x40 MSTORE DUP1 SWAP3 SWAP2 SWAP1 DUP2 DUP2 MSTORE PUSH1 0x20 ADD DUP3 DUP1 SLOAD PUSH2 0x65F SWAP1 PUSH2 0xBEA JUMP JUMPDEST DUP1 ISZERO PUSH2 0x6AA JUMPI DUP1 PUSH1 0x1F LT PUSH2 0x681 JUMPI PUSH2 0x100 DUP1 DUP4 SLOAD DIV MUL DUP4 MSTORE SWAP2 PUSH1 0x20 ADD SWAP2 PUSH2 0x6AA JUMP JUMPDEST DUP3 ADD SWAP2 SWAP1 PUSH0 MSTORE PUSH1 0x20 PUSH0 KECCAK256 SWAP1 JUMPDEST DUP2 SLOAD DUP2 MSTORE SWAP1 PUSH1 0x1 ADD SWAP1 PUSH1 0x20 ADD DUP1 DUP4 GT PUSH2 0x68D JUMPI DUP3 SWAP1 SUB PUSH1 0x1F AND DUP3 ADD SWAP2 JUMPDEST POP POP POP POP POP DUP2 JUMP JUMPDEST PUSH0 PUSH0 PUSH2 0x6BE SWAP2 SWAP1 PUSH2 0x770 JUMP JUMPDEST JUMP JUMPDEST PUSH0 PUSH1 0x1 DUP1 SLOAD PUSH2 0x6CE SWAP1 PUSH2 0xBEA JUMP JUMPDEST SWAP1 POP SWAP1 POP SWAP1 JUMP JUMPDEST PUSH1 0x1 PUSH0 PUSH2 0x6E2 SWAP2 SWAP1 PUSH2 0x78E JUMP JUMPDEST JUMP JUMPDEST PUSH1 0x1 DUP1 SLOAD PUSH2 0x6F1 SWAP1 PUSH2 0xBEA JUMP JUMPDEST DUP1 PUSH1 0x1F ADD PUSH1 0x20 DUP1 SWAP2 DIV MUL PUSH1 0x20 ADD PUSH1 0x40 MLOAD SWAP1 DUP2 ADD PUSH1 0x40 MSTORE DUP1 SWAP3 SWAP2 SWAP1 DUP2 DUP2 MSTORE PUSH1 0x20 ADD DUP3 DUP1 SLOAD PUSH2 0x71D SWAP1 PUSH2 0xBEA JUMP JUMPDEST DUP1 ISZERO PUSH2 0x768 JUMPI DUP1 PUSH1 0x1F LT PUSH2 0x73F JUMPI PUSH2 0x100 DUP1 DUP4 SLOAD DIV MUL DUP4 MSTORE SWAP2 PUSH1 0x20 ADD SWAP2 PUSH2 0x768 JUMP JUMPDEST DUP3 ADD SWAP2 SWAP1 PUSH0 MSTORE PUSH1 0x20 PUSH0 KECCAK256 SWAP1 JUMPDEST DUP2 SLOAD DUP2 MSTORE SWAP1 PUSH1 0x1 ADD SWAP1 PUSH1 0x20 ADD DUP1 DUP4 GT PUSH2 0x74B JUMPI DUP3 SWAP1 SUB PUSH1 0x1F AND DUP3 ADD SWAP2 JUMPDEST POP POP POP POP POP DUP2 JUMP JUMPDEST POP DUP1 SLOAD PUSH0 DUP3 SSTORE SWAP1 PUSH0 MSTORE PUSH1 0x20 PUSH0 KECCAK256 SWAP1 DUP2 ADD SWAP1 PUSH2 0x78B SWAP2 SWAP1 PUSH2 0x7CB JUMP JUMPDEST POP JUMP JUMPDEST POP DUP1 SLOAD PUSH2 0x79A SWAP1 PUSH2 0xBEA JUMP JUMPDEST PUSH0 DUP3 SSTORE DUP1 PUSH1 0x1F LT PUSH2 0x7AB JUMPI POP PUSH2 0x7C8 JUMP JUMPDEST PUSH1 0x1F ADD PUSH1 0x20 SWAP1 DIV SWAP1 PUSH0 MSTORE PUSH1 0x20 PUSH0 KECCAK256 SWAP1 DUP2 ADD SWAP1 PUSH2 0x7C7 SWAP2 SWAP1 PUSH2 0x7EE JUMP JUMPDEST JUMPDEST POP JUMP JUMPDEST JUMPDEST DUP1 DUP3 GT ISZERO PUSH2 0x7EA JUMPI PUSH0 DUP2 DUP2 PUSH2 0x7E1 SWAP2 SWAP1 PUSH2 0x78E JUMP JUMPDEST POP PUSH1 0x1 ADD PUSH2 0x7CC JUMP JUMPDEST POP SWAP1 JUMP JUMPDEST JUMPDEST DUP1 DUP3 GT ISZERO PUSH2 0x805 JUMPI PUSH0 DUP2 PUSH0 SWAP1 SSTORE POP PUSH1 0x1 ADD PUSH2 0x7EF JUMP JUMPDEST POP SWAP1 JUMP JUMPDEST PUSH0 PUSH1 0x40 MLOAD SWAP1 POP SWAP1 JUMP JUMPDEST PUSH0 PUSH0 REVERT JUMPDEST PUSH0 PUSH0 REVERT JUMPDEST PUSH0 PUSH32 0xFF00000000000000000000000000000000000000000000000000000000000000 DUP3 AND SWAP1 POP SWAP2 SWAP1 POP JUMP JUMPDEST PUSH2 0x84E DUP2 PUSH2 0x81A JUMP JUMPDEST DUP2 EQ PUSH2 0x858 JUMPI PUSH0 PUSH0 REVERT JUMPDEST POP JUMP JUMPDEST PUSH0 DUP2 CALLDATALOAD SWAP1 POP PUSH2 0x869 DUP2 PUSH2 0x845 JUMP JUMPDEST SWAP3 SWAP2 POP POP JUMP JUMPDEST PUSH0 PUSH1 0x20 DUP3 DUP5 SUB SLT ISZERO PUSH2 0x884 JUMPI PUSH2 0x883 PUSH2 0x812 JUMP JUMPDEST JUMPDEST PUSH0 PUSH2 0x891 DUP5 DUP3 DUP6 ADD PUSH2 0x85B JUMP JUMPDEST SWAP2 POP POP SWAP3 SWAP2 POP POP JUMP JUMPDEST PUSH0 DUP2 SWAP1 POP SWAP2 SWAP1 POP JUMP JUMPDEST PUSH2 0x8AC DUP2 PUSH2 0x89A JUMP JUMPDEST DUP3 MSTORE POP POP JUMP JUMPDEST PUSH0 PUSH1 0x20 DUP3 ADD SWAP1 POP PUSH2 0x8C5 PUSH0 DUP4 ADD DUP5 PUSH2 0x8A3 JUMP JUMPDEST SWAP3 SWAP2 POP POP JUMP JUMPDEST PUSH0 PUSH0 REVERT JUMPDEST PUSH0 PUSH0 REVERT JUMPDEST PUSH0 PUSH1 0x1F NOT PUSH1 0x1F DUP4 ADD AND SWAP1 POP SWAP2 SWAP1 POP JUMP JUMPDEST PUSH32 0x4E487B7100000000000000000000000000000000000000000000000000000000 PUSH0 MSTORE PUSH1 0x41 PUSH1 0x4 MSTORE PUSH1 0x24 PUSH0 REVERT JUMPDEST PUSH2 0x919 DUP3 PUSH2 0x8D3 JUMP JUMPDEST DUP2 ADD DUP2 DUP2 LT PUSH8 0xFFFFFFFFFFFFFFFF DUP3 GT OR ISZERO PUSH2 0x938 JUMPI PUSH2 0x937 PUSH2 0x8E3 JUMP JUMPDEST JUMPDEST DUP1 PUSH1 0x40 MSTORE POP POP POP JUMP JUMPDEST PUSH0 PUSH2 0x94A PUSH2 0x809 JUMP JUMPDEST SWAP1 POP PUSH2 0x956 DUP3 DUP3 PUSH2 0x910 JUMP JUMPDEST SWAP2 SWAP1 POP JUMP JUMPDEST PUSH0 PUSH8 0xFFFFFFFFFFFFFFFF DUP3 GT ISZERO PUSH2 0x975 JUMPI PUSH2 0x974 PUSH2 0x8E3 JUMP JUMPDEST JUMPDEST PUSH2 0x97E DUP3 PUSH2 0x8D3 JUMP JUMPDEST SWAP1 POP PUSH1 0x20 DUP2 ADD SWAP1 POP SWAP2 SWAP1 POP JUMP JUMPDEST DUP3 DUP2 DUP4 CALLDATACOPY PUSH0 DUP4 DUP4 ADD MSTORE POP POP POP JUMP JUMPDEST PUSH0 PUSH2 0x9AB PUSH2 0x9A6 DUP5 PUSH2 0x95B JUMP JUMPDEST PUSH2 0x941 JUMP JUMPDEST SWAP1 POP DUP3 DUP2 MSTORE PUSH1 0x20 DUP2 ADD DUP5 DUP5 DUP5 ADD GT ISZERO PUSH2 0x9C7 JUMPI PUSH2 0x9C6 PUSH2 0x8CF JUMP JUMPDEST JUMPDEST PUSH2 0x9D2 DUP5 DUP3 DUP6 PUSH2 0x98B JUMP JUMPDEST POP SWAP4 SWAP3 POP POP POP JUMP JUMPDEST PUSH0 DUP3 PUSH1 0x1F DUP4 ADD SLT PUSH2 0x9EE JUMPI PUSH2 0x9ED PUSH2 0x8CB JUMP JUMPDEST JUMPDEST DUP2 CALLDATALOAD PUSH2 0x9FE DUP5 DUP3 PUSH1 0x20 DUP7 ADD PUSH2 0x999 JUMP JUMPDEST SWAP2 POP POP SWAP3 SWAP2 POP POP JUMP JUMPDEST PUSH0 PUSH1 0x20 DUP3 DUP5 SUB SLT ISZERO PUSH2 0xA1C JUMPI PUSH2 0xA1B PUSH2 0x812 JUMP JUMPDEST JUMPDEST PUSH0 DUP3 ADD CALLDATALOAD PUSH8 0xFFFFFFFFFFFFFFFF DUP2 GT ISZERO PUSH2 0xA39 JUMPI PUSH2 0xA38 PUSH2 0x816 JUMP JUMPDEST JUMPDEST PUSH2 0xA45 DUP5 DUP3 DUP6 ADD PUSH2 0x9DA JUMP JUMPDEST SWAP2 POP POP SWAP3 SWAP2 POP POP JUMP JUMPDEST PUSH2 0xA57 DUP2 PUSH2 0x89A JUMP JUMPDEST DUP2 EQ PUSH2 0xA61 JUMPI PUSH0 PUSH0 REVERT JUMPDEST POP JUMP JUMPDEST PUSH0 DUP2 CALLDATALOAD SWAP1 POP PUSH2 0xA72 DUP2 PUSH2 0xA4E JUMP JUMPDEST SWAP3 SWAP2 POP POP JUMP JUMPDEST PUSH0 PUSH1 0x20 DUP3 DUP5 SUB SLT ISZERO PUSH2 0xA8D JUMPI PUSH2 0xA8C PUSH2 0x812 JUMP JUMPDEST JUMPDEST PUSH0 PUSH2 0xA9A DUP5 DUP3 DUP6 ADD PUSH2 0xA64 JUMP JUMPDEST SWAP2 POP POP SWAP3 SWAP2 POP POP JUMP JUMPDEST PUSH2 0xAAC DUP2 PUSH2 0x81A JUMP JUMPDEST DUP3 MSTORE POP POP JUMP JUMPDEST PUSH0 PUSH1 0x20 DUP3 ADD SWAP1 POP PUSH2 0xAC5 PUSH0 DUP4 ADD DUP5 PUSH2 0xAA3 JUMP JUMPDEST SWAP3 SWAP2 POP POP JUMP JUMPDEST PUSH0 DUP2 MLOAD SWAP1 POP SWAP2 SWAP1 POP JUMP JUMPDEST PUSH0 DUP3 DUP3 MSTORE PUSH1 0x20 DUP3 ADD SWAP1 POP SWAP3 SWAP2 POP POP JUMP JUMPDEST DUP3 DUP2 DUP4 MCOPY PUSH0 DUP4 DUP4 ADD MSTORE POP POP POP JUMP JUMPDEST PUSH0 PUSH2 0xAFD DUP3 PUSH2 0xACB JUMP JUMPDEST PUSH2 0xB07 DUP2 DUP6 PUSH2 0xAD5 JUMP JUMPDEST SWAP4 POP PUSH2 0xB17 DUP2 DUP6 PUSH1 0x20 DUP7 ADD PUSH2 0xAE5 JUMP JUMPDEST PUSH2 0xB20 DUP2 PUSH2 0x8D3 JUMP JUMPDEST DUP5 ADD SWAP2 POP POP SWAP3 SWAP2 POP POP JUMP JUMPDEST PUSH0 PUSH1 0x20 DUP3 ADD SWAP1 POP DUP2 DUP2 SUB PUSH0 DUP4 ADD MSTORE PUSH2 0xB43 DUP2 DUP5 PUSH2 0xAF3 JUMP JUMPDEST SWAP1 POP SWAP3 SWAP2 POP POP JUMP JUMPDEST PUSH0 DUP2 MLOAD SWAP1 POP SWAP2 SWAP1 POP JUMP JUMPDEST PUSH0 DUP3 DUP3 MSTORE PUSH1 0x20 DUP3 ADD SWAP1 POP SWAP3 SWAP2 POP POP JUMP JUMPDEST PUSH0 PUSH2 0xB6F DUP3 PUSH2 0xB4B JUMP JUMPDEST PUSH2 0xB79 DUP2 DUP6 PUSH2 0xB55 JUMP JUMPDEST SWAP4 POP PUSH2 0xB89 DUP2 DUP6 PUSH1 0x20 DUP7 ADD PUSH2 0xAE5 JUMP JUMPDEST PUSH2 0xB92 DUP2 PUSH2 0x8D3 JUMP JUMPDEST DUP5 ADD SWAP2 POP POP SWAP3 SWAP2 POP POP JUMP JUMPDEST PUSH0 PUSH1 0x20 DUP3 ADD SWAP1 POP DUP2 DUP2 SUB PUSH0 DUP4 ADD MSTORE PUSH2 0xBB5 DUP2 DUP5 PUSH2 0xB65 JUMP JUMPDEST SWAP1 POP SWAP3 SWAP2 POP POP JUMP JUMPDEST PUSH32 0x4E487B7100000000000000000000000000000000000000000000000000000000 PUSH0 MSTORE PUSH1 0x22 PUSH1 0x4 MSTORE PUSH1 0x24 PUSH0 REVERT JUMPDEST PUSH0 PUSH1 0x2 DUP3 DIV SWAP1 POP PUSH1 0x1 DUP3 AND DUP1 PUSH2 0xC01 JUMPI PUSH1 0x7F DUP3 AND SWAP2 POP JUMPDEST PUSH1 0x20 DUP3 LT DUP2 SUB PUSH2 0xC14 JUMPI PUSH2 0xC13 PUSH2 0xBBD JUMP JUMPDEST JUMPDEST POP SWAP2 SWAP1 POP JUMP JUMPDEST PUSH32 0x4E487B7100000000000000000000000000000000000000000000000000000000 PUSH0 MSTORE PUSH1 0x11 PUSH1 0x4 MSTORE PUSH1 0x24 PUSH0 REVERT JUMPDEST PUSH0 PUSH2 0xC51 DUP3 PUSH2 0x89A JUMP JUMPDEST SWAP2 POP PUSH2 0xC5C DUP4 PUSH2 0x89A JUMP JUMPDEST SWAP3 POP DUP3 DUP3 ADD SWAP1 POP DUP1 DUP3 GT ISZERO PUSH2 0xC74 JUMPI PUSH2 0xC73 PUSH2 0xC1A JUMP JUMPDEST JUMPDEST SWAP3 SWAP2 POP POP JUMP JUMPDEST PUSH32 0x4E487B7100000000000000000000000000000000000000000000000000000000 PUSH0 MSTORE PUSH1 0x32 PUSH1 0x4 MSTORE PUSH1 0x24 PUSH0 REVERT JUMPDEST PUSH0 PUSH2 0xCB1 DUP3 PUSH2 0x89A JUMP JUMPDEST SWAP2 POP PUSH2 0xCBC DUP4 PUSH2 0x89A JUMP JUMPDEST SWAP3 POP DUP3 DUP3 SUB SWAP1 POP DUP2 DUP2 GT ISZERO PUSH2 0xCD4 JUMPI PUSH2 0xCD3 PUSH2 0xC1A JUMP JUMPDEST JUMPDEST SWAP3 SWAP2 POP POP JUMP JUMPDEST PUSH0 DUP2 SWAP1 POP DUP2 PUSH0 MSTORE PUSH1 0x20 PUSH0 KECCAK256 SWAP1 POP SWAP2 SWAP1 POP JUMP JUMPDEST PUSH0 PUSH1 0x20 PUSH1 0x1F DUP4 ADD DIV SWAP1 POP SWAP2 SWAP1 POP JUMP JUMPDEST PUSH0 DUP3 DUP3 SHL SWAP1 POP SWAP3 SWAP2 POP POP JUMP JUMPDEST PUSH0 PUSH1 0x8 DUP4 MUL PUSH2 0xD36 PUSH32 0xFFFFFFFFFFFFFFFFFFFFFFFFFFFFFFFFFFFFFFFFFFFFFFFFFFFFFFFFFFFFFFFF DUP3 PUSH2 0xCFB JUMP JUMPDEST PUSH2 0xD40 DUP7 DUP4 PUSH2 0xCFB JUMP JUMPDEST SWAP6 POP DUP1 NOT DUP5 AND SWAP4 POP DUP1 DUP7 AND DUP5 OR SWAP3 POP POP POP SWAP4 SWAP3 POP POP POP JUMP JUMPDEST PUSH0 DUP2 SWAP1 POP SWAP2 SWAP1 POP JUMP JUMPDEST PUSH0 PUSH2 0xD7B PUSH2 0xD76 PUSH2 0xD71 DUP5 PUSH2 0x89A JUMP JUMPDEST PUSH2 0xD58 JUMP JUMPDEST PUSH2 0x89A JUMP JUMPDEST SWAP1 POP SWAP2 SWAP1 POP JUMP JUMPDEST PUSH0 DUP2 SWAP1 POP SWAP2 SWAP1 POP JUMP JUMPDEST PUSH2 0xD94 DUP4 PUSH2 0xD61 JUMP JUMPDEST PUSH2 0xDA8 PUSH2 0xDA0 DUP3 PUSH2 0xD82 JUMP JUMPDEST DUP5 DUP5 SLOAD PUSH2 0xD07 JUMP JUMPDEST DUP3 SSTORE POP POP POP POP JUMP JUMPDEST PUSH0 PUSH0 SWAP1 POP SWAP1 JUMP JUMPDEST PUSH2 0xDBF PUSH2 0xDB0 JUMP JUMPDEST PUSH2 0xDCA DUP2 DUP5 DUP5 PUSH2 0xD8B JUMP JUMPDEST POP POP POP JUMP JUMPDEST JUMPDEST DUP2 DUP2 LT ISZERO PUSH2 0xDED JUMPI PUSH2 0xDE2 PUSH0 DUP3 PUSH2 0xDB7 JUMP JUMPDEST PUSH1 0x1 DUP2 ADD SWAP1 POP PUSH2 0xDD0 JUMP JUMPDEST POP POP JUMP JUMPDEST PUSH1 0x1F DUP3 GT ISZERO PUSH2 0xE32 JUMPI PUSH2 0xE03 DUP2 PUSH2 0xCDA JUMP JUMPDEST PUSH2 0xE0C DUP5 PUSH2 0xCEC JUMP JUMPDEST DUP2 ADD PUSH1 0x20 DUP6 LT ISZERO PUSH2 0xE1B JUMPI DUP2 SWAP1 POP JUMPDEST PUSH2 0xE2F PUSH2 0xE27 DUP6 PUSH2 0xCEC JUMP JUMPDEST DUP4 ADD DUP3 PUSH2 0xDCF JUMP JUMPDEST POP POP JUMPDEST POP POP POP JUMP JUMPDEST PUSH0 DUP3 DUP3 SHR SWAP1 POP SWAP3 SWAP2 POP POP JUMP JUMPDEST PUSH0 PUSH2 0xE52 PUSH0 NOT DUP5 PUSH1 0x8 MUL PUSH2 0xE37 JUMP JUMPDEST NOT DUP1 DUP4 AND SWAP2 POP POP SWAP3 SWAP2 POP POP JUMP JUMPDEST PUSH0 PUSH2 0xE6A DUP4 DUP4 PUSH2 0xE43 JUMP JUMPDEST SWAP2 POP DUP3 PUSH1 0x2 MUL DUP3 OR SWAP1 POP SWAP3 SWAP2 POP POP JUMP JUMPDEST PUSH2 0xE83 DUP3 PUSH2 0xB4B JUMP JUMPDEST PUSH8 0xFFFFFFFFFFFFFFFF DUP2 GT ISZERO PUSH2 0xE9C JUMPI PUSH2 0xE9B PUSH2 0x8E3 JUMP JUMPDEST JUMPDEST PUSH2 0xEA6 DUP3 SLOAD PUSH2 0xBEA JUMP JUMPDEST PUSH2 0xEB1 DUP3 DUP3 DUP6 PUSH2 0xDF1 JUMP JUMPDEST PUSH0 PUSH1 0x20 SWAP1 POP PUSH1 0x1F DUP4 GT PUSH1 0x1 DUP2 EQ PUSH2 0xEE2 JUMPI PUSH0 DUP5 ISZERO PUSH2 0xED0 JUMPI DUP3 DUP8 ADD MLOAD SWAP1 POP JUMPDEST PUSH2 0xEDA DUP6 DUP3 PUSH2 0xE5F JUMP JUMPDEST DUP7 SSTORE POP PUSH2 0xF41 JUMP JUMPDEST PUSH1 0x1F NOT DUP5 AND PUSH2 0xEF0 DUP7 PUSH2 0xCDA JUMP JUMPDEST PUSH0 JUMPDEST DUP3 DUP2 LT ISZERO PUSH2 0xF17 JUMPI DUP5 DUP10 ADD MLOAD DUP3 SSTORE PUSH1 0x1 DUP3 ADD SWAP2 POP PUSH1 0x20 DUP6 ADD SWAP5 POP PUSH1 0x20 DUP2 ADD SWAP1 POP PUSH2 0xEF2 JUMP JUMPDEST DUP7 DUP4 LT ISZERO PUSH2 0xF34 JUMPI DUP5 DUP10 ADD MLOAD PUSH2 0xF30 PUSH1 0x1F DUP10 AND DUP3 PUSH2 0xE43 JUMP JUMPDEST DUP4 SSTORE POP JUMPDEST PUSH1 0x1 PUSH1 0x2 DUP9 MUL ADD DUP9 SSTORE POP POP POP JUMPDEST POP POP POP POP POP POP JUMP JUMPDEST PUSH32 0x496E646578206F7574206F6620626F756E647300000000000000000000000000 PUSH0 DUP3 ADD MSTORE POP JUMP JUMPDEST PUSH0 PUSH2 0xF7D PUSH1 0x13 DUP4 PUSH2 0xAD5 JUMP JUMPDEST SWAP2 POP PUSH2 0xF88 DUP3 PUSH2 0xF49 JUMP JUMPDEST PUSH1 0x20 DUP3 ADD SWAP1 POP SWAP2 SWAP1 POP JUMP JUMPDEST PUSH0 PUSH1 0x20 DUP3 ADD SWAP1 POP DUP2 DUP2 SUB PUSH0 DUP4 ADD MSTORE PUSH2 0xFAA DUP2 PUSH2 0xF71 JUMP JUMPDEST SWAP1 POP SWAP2 SWAP1 POP JUMP INVALID LOG2 PUSH5 0x6970667358 0x22 SLT KECCAK256 DUP16 EXTSTATICCALL BLOBHASH 0x28 0x26 0x2C PUSH4 0xC59F394C 0x2A MUL PUSH12 0x13D097BEBA762065C625E063 0xCF 0xE PUSH0 MLOAD 0xBE RETURNDATASIZE PUSH5 0x736F6C6343 STOP ADDMOD 0x1E STOP CALLER "
				},
				"gasEstimates": {
					"creation": {
						"codeDepositCost": "814200",
						"executionCost": "infinite",
						"totalCost": "infinite"
					},
					"external": {
						"appendToBytes(bytes1)": "infinite",
						"arr1(uint256)": "infinite",
						"b1()": "infinite",
						"clearBytes()": "infinite",
						"clearDynamicArray()": "infinite",
						"getDynamicArrayLength()": "2462",
						"getElement(uint256)": "infinite",
						"getFromDynamicArray(uint256)": "infinite",
						"getLength()": "2630",
						"pushToDynamicArray(bytes)": "infinite",
						"toString()": "infinite"
					}
				},
				"methodIdentifiers": {
					"appendToBytes(bytes1)": "0d273ad1",
					"arr1(uint256)": "6987b1fb",
					"b1()": "ee495002",
					"clearBytes()": "cc082990",
					"clearDynamicArray()": "9f871cd9",
					"getDynamicArrayLength()": "302c3cfa",
					"getElement(uint256)": "3a7d22bc",
					"getFromDynamicArray(uint256)": "48fe810c",
					"getLength()": "be1c766b",
					"pushToDynamicArray(bytes)": "3412fff0",
					"toString()": "47e46806"
				}
			},
			"storageLayout": {
				"storage": [
					{
						"astId": 6,
						"contract": "6-Array/DynamicByteArray.sol:DynamicByteArray",
						"label": "arr1",
						"offset": 0,
						"slot": "0",
						"type": "t_array(t_bytes_storage)dyn_storage"
					},
					{
						"astId": 10,
						"contract": "6-Array/DynamicByteArray.sol:DynamicByteArray",
						"label": "b1",
						"offset": 0,
						"slot": "1",
						"type": "t_bytes_storage"
					}
				],
				"types": {
					"t_array(t_bytes_storage)dyn_storage": {
						"base": "t_bytes_storage",
						"encoding": "dynamic_array",
						"label": "bytes[]",
						"numberOfBytes": "32"
					},
					"t_bytes_storage": {
						"encoding": "bytes",
						"label": "bytes",
						"numberOfBytes": "32"
					}
				}
			},
			"userdoc": {
				"kind": "user",
				"methods": {
					"appendToBytes(bytes1)": {
						"notice": "Creates a new bytes array that combines the existing b1 with the new byte"
					},
					"arr1(uint256)": {
						"notice": "This is an array where each element is itself a dynamic bytes arrayCan store any number of bytes arrays, each of variable lengthExample use case: storing multiple variable-length byte sequences"
					},
					"b1()": {
						"notice": "bytes is a dynamic byte array (similar to byte[] in other languages)Unlike bytes1-bytes32, its size can vary and individual bytes can be modifiedInitialized with 'abc' which becomes [0x61, 0x62, 0x63] in hex"
					},
					"clearBytes()": {
						"notice": "Demonstrates how to reset a bytes array"
					},
					"clearDynamicArray()": {
						"notice": "Demonstrates how to reset a bytes[] array"
					},
					"getElement(uint256)": {
						"notice": "Demonstrates accessing individual bytes in a bytes arrayReverts if index is out of bounds (>= b1.length)"
					},
					"getFromDynamicArray(uint256)": {
						"notice": "Shows how to access elements in the bytes[] array"
					},
					"getLength()": {
						"notice": "Shows how to get the current length of a dynamic bytes array"
					},
					"pushToDynamicArray(bytes)": {
						"notice": "Demonstrates using the dynamic array (arr1) of bytes arrays"
					},
					"toString()": {
						"notice": "Shows how to interpret bytes as a stringOnly works correctly for UTF-8 encoded text bytes"
					}
				},
				"notice": "Demonstrates the differences between bytes (dynamic) and bytesN (fixed-size) types",
				"version": 1
			}
		}
	}
}