{
	"6-Array/DynamicArray.sol": {
		"arrays": {
			"abi": [
				{
					"inputs": [
						{
							"internalType": "uint256",
							"name": "",
							"type": "uint256"
						}
					],
					"name": "arr",
					"outputs": [
						{
							"internalType": "uint256",
							"name": "",
							"type": "uint256"
						}
					],
					"stateMutability": "view",
					"type": "function"
				},
				{
					"inputs": [],
					"name": "clearArray",
					"outputs": [],
					"stateMutability": "nonpayable",
					"type": "function"
				},
				{
					"inputs": [],
					"name": "getAllElements",
					"outputs": [
						{
							"internalType": "uint256[]",
							"name": "",
							"type": "uint256[]"
						}
					],
					"stateMutability": "view",
					"type": "function"
				},
				{
					"inputs": [
						{
							"internalType": "uint256",
							"name": "index",
							"type": "uint256"
						}
					],
					"name": "getElement",
					"outputs": [
						{
							"internalType": "uint256",
							"name": "",
							"type": "uint256"
						}
					],
					"stateMutability": "view",
					"type": "function"
				},
				{
					"inputs": [],
					"name": "getSum",
					"outputs": [
						{
							"internalType": "uint256",
							"name": "",
							"type": "uint256"
						}
					],
					"stateMutability": "view",
					"type": "function"
				},
				{
					"inputs": [],
					"name": "isEmpty",
					"outputs": [
						{
							"internalType": "bool",
							"name": "",
							"type": "bool"
						}
					],
					"stateMutability": "view",
					"type": "function"
				},
				{
					"inputs": [],
					"name": "length",
					"outputs": [
						{
							"internalType": "uint256",
							"name": "",
							"type": "uint256"
						}
					],
					"stateMutability": "view",
					"type": "function"
				},
				{
					"inputs": [],
					"name": "popElement",
					"outputs": [],
					"stateMutability": "nonpayable",
					"type": "function"
				},
				{
					"inputs": [],
					"name": "printPopElement",
					"outputs": [
						{
							"internalType": "uint256",
							"name": "",
							"type": "uint256"
						}
					],
					"stateMutability": "nonpayable",
					"type": "function"
				},
				{
					"inputs": [
						{
							"internalType": "uint256",
							"name": "item",
							"type": "uint256"
						}
					],
					"name": "pushElement",
					"outputs": [],
					"stateMutability": "nonpayable",
					"type": "function"
				},
				{
					"inputs": [
						{
							"internalType": "uint256",
							"name": "index",
							"type": "uint256"
						},
						{
							"internalType": "uint256",
							"name": "value",
							"type": "uint256"
						}
					],
					"name": "setElement",
					"outputs": [],
					"stateMutability": "nonpayable",
					"type": "function"
				}
			],
			"devdoc": {
				"details": "Shows how to work with dynamically-sized arrays in Solidity",
				"kind": "dev",
				"methods": {
					"clearArray()": {
						"details": "Removes all elements from the array"
					},
					"getAllElements()": {
						"details": "Gets the entire array",
						"returns": {
							"_0": "The complete array"
						}
					},
					"getElement(uint256)": {
						"details": "Gets an element at a specific index",
						"params": {
							"index": "The position of the element to retrieve (0-based)"
						},
						"returns": {
							"_0": "The value at the specified index"
						}
					},
					"getSum()": {
						"details": "Gets the sum of all elements in the array",
						"returns": {
							"_0": "The sum of all values in the array"
						}
					},
					"isEmpty()": {
						"details": "Checks if the array is empty",
						"returns": {
							"_0": "true if the array has no elements, false otherwise"
						}
					},
					"length()": {
						"details": "Gets the current length of the array",
						"returns": {
							"_0": "The number of elements in the array"
						}
					},
					"popElement()": {
						"details": "Removes the last element from the array"
					},
					"printPopElement()": {
						"details": "Removes and returns the last element from the arrayIMPORTANT: Contains a potential reentrancy-like issue if used improperly       (though not actual reentrancy since it's not calling external contracts)",
						"returns": {
							"_0": "The value that was removed from the end of the array"
						}
					},
					"pushElement(uint256)": {
						"details": "Adds an element to the end of the array",
						"params": {
							"item": "The uint256 value to add to the array"
						}
					},
					"setElement(uint256,uint256)": {
						"details": "Updates an element at a specific index",
						"params": {
							"index": "The position of the element to update (0-based)",
							"value": "The new value to store at the specified index"
						}
					}
				},
				"stateVariables": {
					"arr": {
						"details": "Dynamic array declaration"
					}
				},
				"title": "Dynamic Array Demonstration",
				"version": 1
			},
			"evm": {
				"assembly": "    /* \"6-Array/DynamicArray.sol\":397:5683  contract arrays {... */\n  mstore(0x40, 0x80)\n  callvalue\n  dup1\n  iszero\n  tag_1\n  jumpi\n  revert(0x00, 0x00)\ntag_1:\n  pop\n  dataSize(sub_0)\n  dup1\n  dataOffset(sub_0)\n  0x00\n  codecopy\n  0x00\n  return\nstop\n\nsub_0: assembly {\n        /* \"6-Array/DynamicArray.sol\":397:5683  contract arrays {... */\n      mstore(0x40, 0x80)\n      callvalue\n      dup1\n      iszero\n      tag_1\n      jumpi\n      revert(0x00, 0x00)\n    tag_1:\n      pop\n      jumpi(tag_2, lt(calldatasize, 0x04))\n      shr(0xe0, calldataload(0x00))\n      dup1\n      0x71e5ee5f\n      gt\n      tag_14\n      jumpi\n      dup1\n      0x71e5ee5f\n      eq\n      tag_8\n      jumpi\n      dup1\n      0x78321efb\n      eq\n      tag_9\n      jumpi\n      dup1\n      0x9a6fcbdd\n      eq\n      tag_10\n      jumpi\n      dup1\n      0xa16e7215\n      eq\n      tag_11\n      jumpi\n      dup1\n      0xd5c22bef\n      eq\n      tag_12\n      jumpi\n      dup1\n      0xe80b7ab6\n      eq\n      tag_13\n      jumpi\n      jump(tag_2)\n    tag_14:\n      dup1\n      0x1f7b6d32\n      eq\n      tag_3\n      jumpi\n      dup1\n      0x280ca666\n      eq\n      tag_4\n      jumpi\n      dup1\n      0x3a7d22bc\n      eq\n      tag_5\n      jumpi\n      dup1\n      0x569c5f6d\n      eq\n      tag_6\n      jumpi\n      dup1\n      0x681fe70c\n      eq\n      tag_7\n      jumpi\n    tag_2:\n      revert(0x00, 0x00)\n        /* \"6-Array/DynamicArray.sol\":1684:1766  function length() public view returns (uint256) {... */\n    tag_3:\n      tag_15\n      tag_16\n      jump\t// in\n    tag_15:\n      mload(0x40)\n      tag_17\n      swap2\n      swap1\n      tag_18\n      jump\t// in\n    tag_17:\n      mload(0x40)\n      dup1\n      swap2\n      sub\n      swap1\n      return\n        /* \"6-Array/DynamicArray.sol\":4808:4900  function getAllElements() public view returns (uint256[] memory) {... */\n    tag_4:\n      tag_19\n      tag_20\n      jump\t// in\n    tag_19:\n      mload(0x40)\n      tag_21\n      swap2\n      swap1\n      tag_22\n      jump\t// in\n    tag_21:\n      mload(0x40)\n      dup1\n      swap2\n      sub\n      swap1\n      return\n        /* \"6-Array/DynamicArray.sol\":3605:3704  function getElement(uint256 index) public view returns (uint256) {... */\n    tag_5:\n      tag_23\n      0x04\n      dup1\n      calldatasize\n      sub\n      dup2\n      add\n      swap1\n      tag_24\n      swap2\n      swap1\n      tag_25\n      jump\t// in\n    tag_24:\n      tag_26\n      jump\t// in\n    tag_23:\n      mload(0x40)\n      tag_27\n      swap2\n      swap1\n      tag_18\n      jump\t// in\n    tag_27:\n      mload(0x40)\n      dup1\n      swap2\n      sub\n      swap1\n      return\n        /* \"6-Array/DynamicArray.sol\":5487:5681  function getSum() public view returns (uint256) {... */\n    tag_6:\n      tag_28\n      tag_29\n      jump\t// in\n    tag_28:\n      mload(0x40)\n      tag_30\n      swap2\n      swap1\n      tag_18\n      jump\t// in\n    tag_30:\n      mload(0x40)\n      dup1\n      swap2\n      sub\n      swap1\n      return\n        /* \"6-Array/DynamicArray.sol\":5087:5172  function isEmpty() public view returns (bool) {... */\n    tag_7:\n      tag_31\n      tag_32\n      jump\t// in\n    tag_31:\n      mload(0x40)\n      tag_33\n      swap2\n      swap1\n      tag_34\n      jump\t// in\n    tag_33:\n      mload(0x40)\n      dup1\n      swap2\n      sub\n      swap1\n      return\n        /* \"6-Array/DynamicArray.sol\":775:795  uint256[] public arr */\n    tag_8:\n      tag_35\n      0x04\n      dup1\n      calldatasize\n      sub\n      dup2\n      add\n      swap1\n      tag_36\n      swap2\n      swap1\n      tag_25\n      jump\t// in\n    tag_36:\n      tag_37\n      jump\t// in\n    tag_35:\n      mload(0x40)\n      tag_38\n      swap2\n      swap1\n      tag_18\n      jump\t// in\n    tag_38:\n      mload(0x40)\n      dup1\n      swap2\n      sub\n      swap1\n      return\n        /* \"6-Array/DynamicArray.sol\":1201:1383  function pushElement(uint256 item) public {... */\n    tag_9:\n      tag_39\n      0x04\n      dup1\n      calldatasize\n      sub\n      dup2\n      add\n      swap1\n      tag_40\n      swap2\n      swap1\n      tag_25\n      jump\t// in\n    tag_40:\n      tag_41\n      jump\t// in\n    tag_39:\n      stop\n        /* \"6-Array/DynamicArray.sol\":2116:2318  function popElement() public {... */\n    tag_10:\n      tag_42\n      tag_43\n      jump\t// in\n    tag_42:\n      stop\n        /* \"6-Array/DynamicArray.sol\":4029:4121  function setElement(uint256 index, uint256 value) public {... */\n    tag_11:\n      tag_44\n      0x04\n      dup1\n      calldatasize\n      sub\n      dup2\n      add\n      swap1\n      tag_45\n      swap2\n      swap1\n      tag_46\n      jump\t// in\n    tag_45:\n      tag_47\n      jump\t// in\n    tag_44:\n      stop\n        /* \"6-Array/DynamicArray.sol\":2856:3303  function printPopElement() public returns (uint256) {... */\n    tag_12:\n      tag_48\n      tag_49\n      jump\t// in\n    tag_48:\n      mload(0x40)\n      tag_50\n      swap2\n      swap1\n      tag_18\n      jump\t// in\n    tag_50:\n      mload(0x40)\n      dup1\n      swap2\n      sub\n      swap1\n      return\n        /* \"6-Array/DynamicArray.sol\":4409:4541  function clearArray() public {... */\n    tag_13:\n      tag_51\n      tag_52\n      jump\t// in\n    tag_51:\n      stop\n        /* \"6-Array/DynamicArray.sol\":1684:1766  function length() public view returns (uint256) {... */\n    tag_16:\n        /* \"6-Array/DynamicArray.sol\":1723:1730  uint256 */\n      0x00\n        /* \"6-Array/DynamicArray.sol\":1749:1752  arr */\n      0x00\n        /* \"6-Array/DynamicArray.sol\":1749:1759  arr.length */\n      dup1\n      sload\n      swap1\n      pop\n        /* \"6-Array/DynamicArray.sol\":1742:1759  return arr.length */\n      swap1\n      pop\n        /* \"6-Array/DynamicArray.sol\":1684:1766  function length() public view returns (uint256) {... */\n      swap1\n      jump\t// out\n        /* \"6-Array/DynamicArray.sol\":4808:4900  function getAllElements() public view returns (uint256[] memory) {... */\n    tag_20:\n        /* \"6-Array/DynamicArray.sol\":4855:4871  uint256[] memory */\n      0x60\n        /* \"6-Array/DynamicArray.sol\":4890:4893  arr */\n      0x00\n        /* \"6-Array/DynamicArray.sol\":4883:4893  return arr */\n      dup1\n      sload\n      dup1\n      0x20\n      mul\n      0x20\n      add\n      mload(0x40)\n      swap1\n      dup2\n      add\n      0x40\n      mstore\n      dup1\n      swap3\n      swap2\n      swap1\n      dup2\n      dup2\n      mstore\n      0x20\n      add\n      dup3\n      dup1\n      sload\n      dup1\n      iszero\n      tag_55\n      jumpi\n      0x20\n      mul\n      dup3\n      add\n      swap2\n      swap1\n      0x00\n      mstore\n      keccak256(0x00, 0x20)\n      swap1\n    tag_56:\n      dup2\n      sload\n      dup2\n      mstore\n      0x20\n      add\n      swap1\n      0x01\n      add\n      swap1\n      dup1\n      dup4\n      gt\n      tag_56\n      jumpi\n    tag_55:\n      pop\n      pop\n      pop\n      pop\n      pop\n      swap1\n      pop\n        /* \"6-Array/DynamicArray.sol\":4808:4900  function getAllElements() public view returns (uint256[] memory) {... */\n      swap1\n      jump\t// out\n        /* \"6-Array/DynamicArray.sol\":3605:3704  function getElement(uint256 index) public view returns (uint256) {... */\n    tag_26:\n        /* \"6-Array/DynamicArray.sol\":3661:3668  uint256 */\n      0x00\n        /* \"6-Array/DynamicArray.sol\":3687:3690  arr */\n      0x00\n        /* \"6-Array/DynamicArray.sol\":3691:3696  index */\n      dup3\n        /* \"6-Array/DynamicArray.sol\":3687:3697  arr[index] */\n      dup2\n      sload\n      dup2\n      lt\n      tag_58\n      jumpi\n      tag_59\n      tag_60\n      jump\t// in\n    tag_59:\n    tag_58:\n      swap1\n      0x00\n      mstore\n      keccak256(0x00, 0x20)\n      add\n      sload\n        /* \"6-Array/DynamicArray.sol\":3680:3697  return arr[index] */\n      swap1\n      pop\n        /* \"6-Array/DynamicArray.sol\":3605:3704  function getElement(uint256 index) public view returns (uint256) {... */\n      swap2\n      swap1\n      pop\n      jump\t// out\n        /* \"6-Array/DynamicArray.sol\":5487:5681  function getSum() public view returns (uint256) {... */\n    tag_29:\n        /* \"6-Array/DynamicArray.sol\":5526:5533  uint256 */\n      0x00\n        /* \"6-Array/DynamicArray.sol\":5545:5558  uint256 total */\n      0x00\n        /* \"6-Array/DynamicArray.sol\":5561:5562  0 */\n      0x00\n        /* \"6-Array/DynamicArray.sol\":5545:5562  uint256 total = 0 */\n      swap1\n      pop\n        /* \"6-Array/DynamicArray.sol\":5577:5586  uint256 i */\n      0x00\n        /* \"6-Array/DynamicArray.sol\":5589:5590  0 */\n      0x00\n        /* \"6-Array/DynamicArray.sol\":5577:5590  uint256 i = 0 */\n      swap1\n      pop\n        /* \"6-Array/DynamicArray.sol\":5572:5653  for (uint256 i = 0; i < arr.length; i++) {... */\n    tag_63:\n        /* \"6-Array/DynamicArray.sol\":5596:5599  arr */\n      0x00\n        /* \"6-Array/DynamicArray.sol\":5596:5606  arr.length */\n      dup1\n      sload\n      swap1\n      pop\n        /* \"6-Array/DynamicArray.sol\":5592:5593  i */\n      dup2\n        /* \"6-Array/DynamicArray.sol\":5592:5606  i < arr.length */\n      lt\n        /* \"6-Array/DynamicArray.sol\":5572:5653  for (uint256 i = 0; i < arr.length; i++) {... */\n      iszero\n      tag_64\n      jumpi\n        /* \"6-Array/DynamicArray.sol\":5636:5639  arr */\n      0x00\n        /* \"6-Array/DynamicArray.sol\":5640:5641  i */\n      dup2\n        /* \"6-Array/DynamicArray.sol\":5636:5642  arr[i] */\n      dup2\n      sload\n      dup2\n      lt\n      tag_66\n      jumpi\n      tag_67\n      tag_60\n      jump\t// in\n    tag_67:\n    tag_66:\n      swap1\n      0x00\n      mstore\n      keccak256(0x00, 0x20)\n      add\n      sload\n        /* \"6-Array/DynamicArray.sol\":5627:5642  total += arr[i] */\n      dup3\n      tag_69\n      swap2\n      swap1\n      tag_70\n      jump\t// in\n    tag_69:\n      swap2\n      pop\n        /* \"6-Array/DynamicArray.sol\":5608:5611  i++ */\n      dup1\n      dup1\n      0x01\n      add\n      swap2\n      pop\n      pop\n        /* \"6-Array/DynamicArray.sol\":5572:5653  for (uint256 i = 0; i < arr.length; i++) {... */\n      jump(tag_63)\n    tag_64:\n      pop\n        /* \"6-Array/DynamicArray.sol\":5669:5674  total */\n      dup1\n        /* \"6-Array/DynamicArray.sol\":5662:5674  return total */\n      swap2\n      pop\n      pop\n        /* \"6-Array/DynamicArray.sol\":5487:5681  function getSum() public view returns (uint256) {... */\n      swap1\n      jump\t// out\n        /* \"6-Array/DynamicArray.sol\":5087:5172  function isEmpty() public view returns (bool) {... */\n    tag_32:\n        /* \"6-Array/DynamicArray.sol\":5127:5131  bool */\n      0x00\n        /* \"6-Array/DynamicArray.sol\":5164:5165  0 */\n      0x00\n        /* \"6-Array/DynamicArray.sol\":5150:5153  arr */\n      0x00\n        /* \"6-Array/DynamicArray.sol\":5150:5160  arr.length */\n      dup1\n      sload\n      swap1\n      pop\n        /* \"6-Array/DynamicArray.sol\":5150:5165  arr.length == 0 */\n      eq\n        /* \"6-Array/DynamicArray.sol\":5143:5165  return arr.length == 0 */\n      swap1\n      pop\n        /* \"6-Array/DynamicArray.sol\":5087:5172  function isEmpty() public view returns (bool) {... */\n      swap1\n      jump\t// out\n        /* \"6-Array/DynamicArray.sol\":775:795  uint256[] public arr */\n    tag_37:\n      0x00\n      dup2\n      dup2\n      sload\n      dup2\n      lt\n      tag_72\n      jumpi\n      0x00\n      dup1\n      revert\n    tag_72:\n      swap1\n      0x00\n      mstore\n      keccak256(0x00, 0x20)\n      add\n      0x00\n      swap2\n      pop\n      swap1\n      pop\n      sload\n      dup2\n      jump\t// out\n        /* \"6-Array/DynamicArray.sol\":1201:1383  function pushElement(uint256 item) public {... */\n    tag_41:\n        /* \"6-Array/DynamicArray.sol\":1362:1365  arr */\n      0x00\n        /* \"6-Array/DynamicArray.sol\":1371:1375  item */\n      dup2\n        /* \"6-Array/DynamicArray.sol\":1362:1376  arr.push(item) */\n      swap1\n      dup1\n      0x01\n      dup2\n      sload\n      add\n      dup1\n      dup3\n      sstore\n      dup1\n      swap2\n      pop\n      pop\n      0x01\n      swap1\n      sub\n      swap1\n      0x00\n      mstore\n      keccak256(0x00, 0x20)\n      add\n      0x00\n      swap1\n      swap2\n      swap1\n      swap2\n      swap1\n      swap2\n      pop\n      sstore\n        /* \"6-Array/DynamicArray.sol\":1201:1383  function pushElement(uint256 item) public {... */\n      pop\n      jump\t// out\n        /* \"6-Array/DynamicArray.sol\":2116:2318  function popElement() public {... */\n    tag_43:\n        /* \"6-Array/DynamicArray.sol\":2302:2305  arr */\n      0x00\n        /* \"6-Array/DynamicArray.sol\":2302:2311  arr.pop() */\n      dup1\n      sload\n      dup1\n      tag_77\n      jumpi\n      tag_78\n      tag_79\n      jump\t// in\n    tag_78:\n    tag_77:\n      0x01\n      swap1\n      sub\n      dup2\n      dup2\n      swap1\n      0x00\n      mstore\n      keccak256(0x00, 0x20)\n      add\n      0x00\n      swap1\n      sstore\n      swap1\n      sstore\n        /* \"6-Array/DynamicArray.sol\":2116:2318  function popElement() public {... */\n      jump\t// out\n        /* \"6-Array/DynamicArray.sol\":4029:4121  function setElement(uint256 index, uint256 value) public {... */\n    tag_47:\n        /* \"6-Array/DynamicArray.sol\":4109:4114  value */\n      dup1\n        /* \"6-Array/DynamicArray.sol\":4096:4099  arr */\n      0x00\n        /* \"6-Array/DynamicArray.sol\":4100:4105  index */\n      dup4\n        /* \"6-Array/DynamicArray.sol\":4096:4106  arr[index] */\n      dup2\n      sload\n      dup2\n      lt\n      tag_82\n      jumpi\n      tag_83\n      tag_60\n      jump\t// in\n    tag_83:\n    tag_82:\n      swap1\n      0x00\n      mstore\n      keccak256(0x00, 0x20)\n      add\n        /* \"6-Array/DynamicArray.sol\":4096:4114  arr[index] = value */\n      dup2\n      swap1\n      sstore\n      pop\n        /* \"6-Array/DynamicArray.sol\":4029:4121  function setElement(uint256 index, uint256 value) public {... */\n      pop\n      pop\n      jump\t// out\n        /* \"6-Array/DynamicArray.sol\":2856:3303  function printPopElement() public returns (uint256) {... */\n    tag_49:\n        /* \"6-Array/DynamicArray.sol\":2899:2906  uint256 */\n      0x00\n        /* \"6-Array/DynamicArray.sol\":2980:2991  uint256 len */\n      0x00\n        /* \"6-Array/DynamicArray.sol\":2994:2997  arr */\n      0x00\n        /* \"6-Array/DynamicArray.sol\":2994:3004  arr.length */\n      dup1\n      sload\n      swap1\n      pop\n        /* \"6-Array/DynamicArray.sol\":2980:3004  uint256 len = arr.length */\n      swap1\n      pop\n        /* \"6-Array/DynamicArray.sol\":3105:3116  uint256 val */\n      0x00\n        /* \"6-Array/DynamicArray.sol\":3119:3122  arr */\n      0x00\n        /* \"6-Array/DynamicArray.sol\":3129:3130  1 */\n      0x01\n        /* \"6-Array/DynamicArray.sol\":3123:3126  len */\n      dup4\n        /* \"6-Array/DynamicArray.sol\":3123:3130  len - 1 */\n      tag_86\n      swap2\n      swap1\n      tag_87\n      jump\t// in\n    tag_86:\n        /* \"6-Array/DynamicArray.sol\":3119:3131  arr[len - 1] */\n      dup2\n      sload\n      dup2\n      lt\n      tag_88\n      jumpi\n      tag_89\n      tag_60\n      jump\t// in\n    tag_89:\n    tag_88:\n      swap1\n      0x00\n      mstore\n      keccak256(0x00, 0x20)\n      add\n      sload\n        /* \"6-Array/DynamicArray.sol\":3105:3131  uint256 val = arr[len - 1] */\n      swap1\n      pop\n        /* \"6-Array/DynamicArray.sol\":3221:3224  arr */\n      0x00\n        /* \"6-Array/DynamicArray.sol\":3221:3230  arr.pop() */\n      dup1\n      sload\n      dup1\n      tag_91\n      jumpi\n      tag_92\n      tag_79\n      jump\t// in\n    tag_92:\n    tag_91:\n      0x01\n      swap1\n      sub\n      dup2\n      dup2\n      swap1\n      0x00\n      mstore\n      keccak256(0x00, 0x20)\n      add\n      0x00\n      swap1\n      sstore\n      swap1\n      sstore\n        /* \"6-Array/DynamicArray.sol\":3293:3296  val */\n      dup1\n        /* \"6-Array/DynamicArray.sol\":3286:3296  return val */\n      swap3\n      pop\n      pop\n      pop\n        /* \"6-Array/DynamicArray.sol\":2856:3303  function printPopElement() public returns (uint256) {... */\n      swap1\n      jump\t// out\n        /* \"6-Array/DynamicArray.sol\":4409:4541  function clearArray() public {... */\n    tag_52:\n        /* \"6-Array/DynamicArray.sol\":4455:4458  arr */\n      0x00\n      0x00\n        /* \"6-Array/DynamicArray.sol\":4448:4458  delete arr */\n      tag_95\n      swap2\n      swap1\n      tag_96\n      jump\t// in\n    tag_95:\n        /* \"6-Array/DynamicArray.sol\":4409:4541  function clearArray() public {... */\n      jump\t// out\n    tag_96:\n      pop\n      dup1\n      sload\n      0x00\n      dup3\n      sstore\n      swap1\n      0x00\n      mstore\n      keccak256(0x00, 0x20)\n      swap1\n      dup2\n      add\n      swap1\n      tag_98\n      swap2\n      swap1\n      tag_99\n      jump\t// in\n    tag_98:\n      pop\n      jump\t// out\n    tag_99:\n    tag_100:\n      dup1\n      dup3\n      gt\n      iszero\n      tag_101\n      jumpi\n      0x00\n      dup2\n      0x00\n      swap1\n      sstore\n      pop\n      0x01\n      add\n      jump(tag_100)\n    tag_101:\n      pop\n      swap1\n      jump\t// out\n        /* \"#utility.yul\":7:84   */\n    tag_102:\n        /* \"#utility.yul\":44:51   */\n      0x00\n        /* \"#utility.yul\":73:78   */\n      dup2\n        /* \"#utility.yul\":62:78   */\n      swap1\n      pop\n        /* \"#utility.yul\":7:84   */\n      swap2\n      swap1\n      pop\n      jump\t// out\n        /* \"#utility.yul\":90:208   */\n    tag_103:\n        /* \"#utility.yul\":177:201   */\n      tag_122\n        /* \"#utility.yul\":195:200   */\n      dup2\n        /* \"#utility.yul\":177:201   */\n      tag_102\n      jump\t// in\n    tag_122:\n        /* \"#utility.yul\":172:175   */\n      dup3\n        /* \"#utility.yul\":165:202   */\n      mstore\n        /* \"#utility.yul\":90:208   */\n      pop\n      pop\n      jump\t// out\n        /* \"#utility.yul\":214:436   */\n    tag_18:\n        /* \"#utility.yul\":307:311   */\n      0x00\n        /* \"#utility.yul\":345:347   */\n      0x20\n        /* \"#utility.yul\":334:343   */\n      dup3\n        /* \"#utility.yul\":330:348   */\n      add\n        /* \"#utility.yul\":322:348   */\n      swap1\n      pop\n        /* \"#utility.yul\":358:429   */\n      tag_124\n        /* \"#utility.yul\":426:427   */\n      0x00\n        /* \"#utility.yul\":415:424   */\n      dup4\n        /* \"#utility.yul\":411:428   */\n      add\n        /* \"#utility.yul\":402:408   */\n      dup5\n        /* \"#utility.yul\":358:429   */\n      tag_103\n      jump\t// in\n    tag_124:\n        /* \"#utility.yul\":214:436   */\n      swap3\n      swap2\n      pop\n      pop\n      jump\t// out\n        /* \"#utility.yul\":442:556   */\n    tag_104:\n        /* \"#utility.yul\":509:515   */\n      0x00\n        /* \"#utility.yul\":543:548   */\n      dup2\n        /* \"#utility.yul\":537:549   */\n      mload\n        /* \"#utility.yul\":527:549   */\n      swap1\n      pop\n        /* \"#utility.yul\":442:556   */\n      swap2\n      swap1\n      pop\n      jump\t// out\n        /* \"#utility.yul\":562:746   */\n    tag_105:\n        /* \"#utility.yul\":661:672   */\n      0x00\n        /* \"#utility.yul\":695:701   */\n      dup3\n        /* \"#utility.yul\":690:693   */\n      dup3\n        /* \"#utility.yul\":683:702   */\n      mstore\n        /* \"#utility.yul\":735:739   */\n      0x20\n        /* \"#utility.yul\":730:733   */\n      dup3\n        /* \"#utility.yul\":726:740   */\n      add\n        /* \"#utility.yul\":711:740   */\n      swap1\n      pop\n        /* \"#utility.yul\":562:746   */\n      swap3\n      swap2\n      pop\n      pop\n      jump\t// out\n        /* \"#utility.yul\":752:884   */\n    tag_106:\n        /* \"#utility.yul\":819:823   */\n      0x00\n        /* \"#utility.yul\":842:845   */\n      dup2\n        /* \"#utility.yul\":834:845   */\n      swap1\n      pop\n        /* \"#utility.yul\":872:876   */\n      0x20\n        /* \"#utility.yul\":867:870   */\n      dup3\n        /* \"#utility.yul\":863:877   */\n      add\n        /* \"#utility.yul\":855:877   */\n      swap1\n      pop\n        /* \"#utility.yul\":752:884   */\n      swap2\n      swap1\n      pop\n      jump\t// out\n        /* \"#utility.yul\":890:998   */\n    tag_107:\n        /* \"#utility.yul\":967:991   */\n      tag_129\n        /* \"#utility.yul\":985:990   */\n      dup2\n        /* \"#utility.yul\":967:991   */\n      tag_102\n      jump\t// in\n    tag_129:\n        /* \"#utility.yul\":962:965   */\n      dup3\n        /* \"#utility.yul\":955:992   */\n      mstore\n        /* \"#utility.yul\":890:998   */\n      pop\n      pop\n      jump\t// out\n        /* \"#utility.yul\":1004:1183   */\n    tag_108:\n        /* \"#utility.yul\":1073:1083   */\n      0x00\n        /* \"#utility.yul\":1094:1140   */\n      tag_131\n        /* \"#utility.yul\":1136:1139   */\n      dup4\n        /* \"#utility.yul\":1128:1134   */\n      dup4\n        /* \"#utility.yul\":1094:1140   */\n      tag_107\n      jump\t// in\n    tag_131:\n        /* \"#utility.yul\":1172:1176   */\n      0x20\n        /* \"#utility.yul\":1167:1170   */\n      dup4\n        /* \"#utility.yul\":1163:1177   */\n      add\n        /* \"#utility.yul\":1149:1177   */\n      swap1\n      pop\n        /* \"#utility.yul\":1004:1183   */\n      swap3\n      swap2\n      pop\n      pop\n      jump\t// out\n        /* \"#utility.yul\":1189:1302   */\n    tag_109:\n        /* \"#utility.yul\":1259:1263   */\n      0x00\n        /* \"#utility.yul\":1291:1295   */\n      0x20\n        /* \"#utility.yul\":1286:1289   */\n      dup3\n        /* \"#utility.yul\":1282:1296   */\n      add\n        /* \"#utility.yul\":1274:1296   */\n      swap1\n      pop\n        /* \"#utility.yul\":1189:1302   */\n      swap2\n      swap1\n      pop\n      jump\t// out\n        /* \"#utility.yul\":1338:2070   */\n    tag_110:\n        /* \"#utility.yul\":1457:1460   */\n      0x00\n        /* \"#utility.yul\":1486:1540   */\n      tag_134\n        /* \"#utility.yul\":1534:1539   */\n      dup3\n        /* \"#utility.yul\":1486:1540   */\n      tag_104\n      jump\t// in\n    tag_134:\n        /* \"#utility.yul\":1556:1642   */\n      tag_135\n        /* \"#utility.yul\":1635:1641   */\n      dup2\n        /* \"#utility.yul\":1630:1633   */\n      dup6\n        /* \"#utility.yul\":1556:1642   */\n      tag_105\n      jump\t// in\n    tag_135:\n        /* \"#utility.yul\":1549:1642   */\n      swap4\n      pop\n        /* \"#utility.yul\":1666:1722   */\n      tag_136\n        /* \"#utility.yul\":1716:1721   */\n      dup4\n        /* \"#utility.yul\":1666:1722   */\n      tag_106\n      jump\t// in\n    tag_136:\n        /* \"#utility.yul\":1745:1752   */\n      dup1\n        /* \"#utility.yul\":1776:1777   */\n      0x00\n        /* \"#utility.yul\":1761:2045   */\n    tag_137:\n        /* \"#utility.yul\":1786:1792   */\n      dup4\n        /* \"#utility.yul\":1783:1784   */\n      dup2\n        /* \"#utility.yul\":1780:1793   */\n      lt\n        /* \"#utility.yul\":1761:2045   */\n      iszero\n      tag_139\n      jumpi\n        /* \"#utility.yul\":1862:1868   */\n      dup2\n        /* \"#utility.yul\":1856:1869   */\n      mload\n        /* \"#utility.yul\":1889:1952   */\n      tag_140\n        /* \"#utility.yul\":1948:1951   */\n      dup9\n        /* \"#utility.yul\":1933:1946   */\n      dup3\n        /* \"#utility.yul\":1889:1952   */\n      tag_108\n      jump\t// in\n    tag_140:\n        /* \"#utility.yul\":1882:1952   */\n      swap8\n      pop\n        /* \"#utility.yul\":1975:2035   */\n      tag_141\n        /* \"#utility.yul\":2028:2034   */\n      dup4\n        /* \"#utility.yul\":1975:2035   */\n      tag_109\n      jump\t// in\n    tag_141:\n        /* \"#utility.yul\":1965:2035   */\n      swap3\n      pop\n        /* \"#utility.yul\":1821:2045   */\n      pop\n        /* \"#utility.yul\":1808:1809   */\n      0x01\n        /* \"#utility.yul\":1805:1806   */\n      dup2\n        /* \"#utility.yul\":1801:1810   */\n      add\n        /* \"#utility.yul\":1796:1810   */\n      swap1\n      pop\n        /* \"#utility.yul\":1761:2045   */\n      jump(tag_137)\n    tag_139:\n        /* \"#utility.yul\":1765:1779   */\n      pop\n        /* \"#utility.yul\":2061:2064   */\n      dup6\n        /* \"#utility.yul\":2054:2064   */\n      swap4\n      pop\n        /* \"#utility.yul\":1462:2070   */\n      pop\n      pop\n      pop\n        /* \"#utility.yul\":1338:2070   */\n      swap3\n      swap2\n      pop\n      pop\n      jump\t// out\n        /* \"#utility.yul\":2076:2449   */\n    tag_22:\n        /* \"#utility.yul\":2219:2223   */\n      0x00\n        /* \"#utility.yul\":2257:2259   */\n      0x20\n        /* \"#utility.yul\":2246:2255   */\n      dup3\n        /* \"#utility.yul\":2242:2260   */\n      add\n        /* \"#utility.yul\":2234:2260   */\n      swap1\n      pop\n        /* \"#utility.yul\":2306:2315   */\n      dup2\n        /* \"#utility.yul\":2300:2304   */\n      dup2\n        /* \"#utility.yul\":2296:2316   */\n      sub\n        /* \"#utility.yul\":2292:2293   */\n      0x00\n        /* \"#utility.yul\":2281:2290   */\n      dup4\n        /* \"#utility.yul\":2277:2294   */\n      add\n        /* \"#utility.yul\":2270:2317   */\n      mstore\n        /* \"#utility.yul\":2334:2442   */\n      tag_143\n        /* \"#utility.yul\":2437:2441   */\n      dup2\n        /* \"#utility.yul\":2428:2434   */\n      dup5\n        /* \"#utility.yul\":2334:2442   */\n      tag_110\n      jump\t// in\n    tag_143:\n        /* \"#utility.yul\":2326:2442   */\n      swap1\n      pop\n        /* \"#utility.yul\":2076:2449   */\n      swap3\n      swap2\n      pop\n      pop\n      jump\t// out\n        /* \"#utility.yul\":2536:2653   */\n    tag_112:\n        /* \"#utility.yul\":2645:2646   */\n      0x00\n        /* \"#utility.yul\":2642:2643   */\n      0x00\n        /* \"#utility.yul\":2635:2647   */\n      revert\n        /* \"#utility.yul\":2782:2904   */\n    tag_114:\n        /* \"#utility.yul\":2855:2879   */\n      tag_148\n        /* \"#utility.yul\":2873:2878   */\n      dup2\n        /* \"#utility.yul\":2855:2879   */\n      tag_102\n      jump\t// in\n    tag_148:\n        /* \"#utility.yul\":2848:2853   */\n      dup2\n        /* \"#utility.yul\":2845:2880   */\n      eq\n        /* \"#utility.yul\":2835:2898   */\n      tag_149\n      jumpi\n        /* \"#utility.yul\":2894:2895   */\n      0x00\n        /* \"#utility.yul\":2891:2892   */\n      0x00\n        /* \"#utility.yul\":2884:2896   */\n      revert\n        /* \"#utility.yul\":2835:2898   */\n    tag_149:\n        /* \"#utility.yul\":2782:2904   */\n      pop\n      jump\t// out\n        /* \"#utility.yul\":2910:3049   */\n    tag_115:\n        /* \"#utility.yul\":2956:2961   */\n      0x00\n        /* \"#utility.yul\":2994:3000   */\n      dup2\n        /* \"#utility.yul\":2981:3001   */\n      calldataload\n        /* \"#utility.yul\":2972:3001   */\n      swap1\n      pop\n        /* \"#utility.yul\":3010:3043   */\n      tag_151\n        /* \"#utility.yul\":3037:3042   */\n      dup2\n        /* \"#utility.yul\":3010:3043   */\n      tag_114\n      jump\t// in\n    tag_151:\n        /* \"#utility.yul\":2910:3049   */\n      swap3\n      swap2\n      pop\n      pop\n      jump\t// out\n        /* \"#utility.yul\":3055:3384   */\n    tag_25:\n        /* \"#utility.yul\":3114:3120   */\n      0x00\n        /* \"#utility.yul\":3163:3165   */\n      0x20\n        /* \"#utility.yul\":3151:3160   */\n      dup3\n        /* \"#utility.yul\":3142:3149   */\n      dup5\n        /* \"#utility.yul\":3138:3161   */\n      sub\n        /* \"#utility.yul\":3134:3166   */\n      slt\n        /* \"#utility.yul\":3131:3250   */\n      iszero\n      tag_153\n      jumpi\n        /* \"#utility.yul\":3169:3248   */\n      tag_154\n      tag_112\n      jump\t// in\n    tag_154:\n        /* \"#utility.yul\":3131:3250   */\n    tag_153:\n        /* \"#utility.yul\":3289:3290   */\n      0x00\n        /* \"#utility.yul\":3314:3367   */\n      tag_155\n        /* \"#utility.yul\":3359:3366   */\n      dup5\n        /* \"#utility.yul\":3350:3356   */\n      dup3\n        /* \"#utility.yul\":3339:3348   */\n      dup6\n        /* \"#utility.yul\":3335:3357   */\n      add\n        /* \"#utility.yul\":3314:3367   */\n      tag_115\n      jump\t// in\n    tag_155:\n        /* \"#utility.yul\":3304:3367   */\n      swap2\n      pop\n        /* \"#utility.yul\":3260:3377   */\n      pop\n        /* \"#utility.yul\":3055:3384   */\n      swap3\n      swap2\n      pop\n      pop\n      jump\t// out\n        /* \"#utility.yul\":3390:3480   */\n    tag_116:\n        /* \"#utility.yul\":3424:3431   */\n      0x00\n        /* \"#utility.yul\":3467:3472   */\n      dup2\n        /* \"#utility.yul\":3460:3473   */\n      iszero\n        /* \"#utility.yul\":3453:3474   */\n      iszero\n        /* \"#utility.yul\":3442:3474   */\n      swap1\n      pop\n        /* \"#utility.yul\":3390:3480   */\n      swap2\n      swap1\n      pop\n      jump\t// out\n        /* \"#utility.yul\":3486:3595   */\n    tag_117:\n        /* \"#utility.yul\":3567:3588   */\n      tag_158\n        /* \"#utility.yul\":3582:3587   */\n      dup2\n        /* \"#utility.yul\":3567:3588   */\n      tag_116\n      jump\t// in\n    tag_158:\n        /* \"#utility.yul\":3562:3565   */\n      dup3\n        /* \"#utility.yul\":3555:3589   */\n      mstore\n        /* \"#utility.yul\":3486:3595   */\n      pop\n      pop\n      jump\t// out\n        /* \"#utility.yul\":3601:3811   */\n    tag_34:\n        /* \"#utility.yul\":3688:3692   */\n      0x00\n        /* \"#utility.yul\":3726:3728   */\n      0x20\n        /* \"#utility.yul\":3715:3724   */\n      dup3\n        /* \"#utility.yul\":3711:3729   */\n      add\n        /* \"#utility.yul\":3703:3729   */\n      swap1\n      pop\n        /* \"#utility.yul\":3739:3804   */\n      tag_160\n        /* \"#utility.yul\":3801:3802   */\n      0x00\n        /* \"#utility.yul\":3790:3799   */\n      dup4\n        /* \"#utility.yul\":3786:3803   */\n      add\n        /* \"#utility.yul\":3777:3783   */\n      dup5\n        /* \"#utility.yul\":3739:3804   */\n      tag_117\n      jump\t// in\n    tag_160:\n        /* \"#utility.yul\":3601:3811   */\n      swap3\n      swap2\n      pop\n      pop\n      jump\t// out\n        /* \"#utility.yul\":3817:4291   */\n    tag_46:\n        /* \"#utility.yul\":3885:3891   */\n      0x00\n        /* \"#utility.yul\":3893:3899   */\n      0x00\n        /* \"#utility.yul\":3942:3944   */\n      0x40\n        /* \"#utility.yul\":3930:3939   */\n      dup4\n        /* \"#utility.yul\":3921:3928   */\n      dup6\n        /* \"#utility.yul\":3917:3940   */\n      sub\n        /* \"#utility.yul\":3913:3945   */\n      slt\n        /* \"#utility.yul\":3910:4029   */\n      iszero\n      tag_162\n      jumpi\n        /* \"#utility.yul\":3948:4027   */\n      tag_163\n      tag_112\n      jump\t// in\n    tag_163:\n        /* \"#utility.yul\":3910:4029   */\n    tag_162:\n        /* \"#utility.yul\":4068:4069   */\n      0x00\n        /* \"#utility.yul\":4093:4146   */\n      tag_164\n        /* \"#utility.yul\":4138:4145   */\n      dup6\n        /* \"#utility.yul\":4129:4135   */\n      dup3\n        /* \"#utility.yul\":4118:4127   */\n      dup7\n        /* \"#utility.yul\":4114:4136   */\n      add\n        /* \"#utility.yul\":4093:4146   */\n      tag_115\n      jump\t// in\n    tag_164:\n        /* \"#utility.yul\":4083:4146   */\n      swap3\n      pop\n        /* \"#utility.yul\":4039:4156   */\n      pop\n        /* \"#utility.yul\":4195:4197   */\n      0x20\n        /* \"#utility.yul\":4221:4274   */\n      tag_165\n        /* \"#utility.yul\":4266:4273   */\n      dup6\n        /* \"#utility.yul\":4257:4263   */\n      dup3\n        /* \"#utility.yul\":4246:4255   */\n      dup7\n        /* \"#utility.yul\":4242:4264   */\n      add\n        /* \"#utility.yul\":4221:4274   */\n      tag_115\n      jump\t// in\n    tag_165:\n        /* \"#utility.yul\":4211:4274   */\n      swap2\n      pop\n        /* \"#utility.yul\":4166:4284   */\n      pop\n        /* \"#utility.yul\":3817:4291   */\n      swap3\n      pop\n      swap3\n      swap1\n      pop\n      jump\t// out\n        /* \"#utility.yul\":4297:4477   */\n    tag_60:\n        /* \"#utility.yul\":4345:4422   */\n      0x4e487b7100000000000000000000000000000000000000000000000000000000\n        /* \"#utility.yul\":4342:4343   */\n      0x00\n        /* \"#utility.yul\":4335:4423   */\n      mstore\n        /* \"#utility.yul\":4442:4446   */\n      0x32\n        /* \"#utility.yul\":4439:4440   */\n      0x04\n        /* \"#utility.yul\":4432:4447   */\n      mstore\n        /* \"#utility.yul\":4466:4470   */\n      0x24\n        /* \"#utility.yul\":4463:4464   */\n      0x00\n        /* \"#utility.yul\":4456:4471   */\n      revert\n        /* \"#utility.yul\":4483:4663   */\n    tag_118:\n        /* \"#utility.yul\":4531:4608   */\n      0x4e487b7100000000000000000000000000000000000000000000000000000000\n        /* \"#utility.yul\":4528:4529   */\n      0x00\n        /* \"#utility.yul\":4521:4609   */\n      mstore\n        /* \"#utility.yul\":4628:4632   */\n      0x11\n        /* \"#utility.yul\":4625:4626   */\n      0x04\n        /* \"#utility.yul\":4618:4633   */\n      mstore\n        /* \"#utility.yul\":4652:4656   */\n      0x24\n        /* \"#utility.yul\":4649:4650   */\n      0x00\n        /* \"#utility.yul\":4642:4657   */\n      revert\n        /* \"#utility.yul\":4669:4860   */\n    tag_70:\n        /* \"#utility.yul\":4709:4712   */\n      0x00\n        /* \"#utility.yul\":4728:4748   */\n      tag_169\n        /* \"#utility.yul\":4746:4747   */\n      dup3\n        /* \"#utility.yul\":4728:4748   */\n      tag_102\n      jump\t// in\n    tag_169:\n        /* \"#utility.yul\":4723:4748   */\n      swap2\n      pop\n        /* \"#utility.yul\":4762:4782   */\n      tag_170\n        /* \"#utility.yul\":4780:4781   */\n      dup4\n        /* \"#utility.yul\":4762:4782   */\n      tag_102\n      jump\t// in\n    tag_170:\n        /* \"#utility.yul\":4757:4782   */\n      swap3\n      pop\n        /* \"#utility.yul\":4805:4806   */\n      dup3\n        /* \"#utility.yul\":4802:4803   */\n      dup3\n        /* \"#utility.yul\":4798:4807   */\n      add\n        /* \"#utility.yul\":4791:4807   */\n      swap1\n      pop\n        /* \"#utility.yul\":4826:4829   */\n      dup1\n        /* \"#utility.yul\":4823:4824   */\n      dup3\n        /* \"#utility.yul\":4820:4830   */\n      gt\n        /* \"#utility.yul\":4817:4853   */\n      iszero\n      tag_171\n      jumpi\n        /* \"#utility.yul\":4833:4851   */\n      tag_172\n      tag_118\n      jump\t// in\n    tag_172:\n        /* \"#utility.yul\":4817:4853   */\n    tag_171:\n        /* \"#utility.yul\":4669:4860   */\n      swap3\n      swap2\n      pop\n      pop\n      jump\t// out\n        /* \"#utility.yul\":4866:5046   */\n    tag_79:\n        /* \"#utility.yul\":4914:4991   */\n      0x4e487b7100000000000000000000000000000000000000000000000000000000\n        /* \"#utility.yul\":4911:4912   */\n      0x00\n        /* \"#utility.yul\":4904:4992   */\n      mstore\n        /* \"#utility.yul\":5011:5015   */\n      0x31\n        /* \"#utility.yul\":5008:5009   */\n      0x04\n        /* \"#utility.yul\":5001:5016   */\n      mstore\n        /* \"#utility.yul\":5035:5039   */\n      0x24\n        /* \"#utility.yul\":5032:5033   */\n      0x00\n        /* \"#utility.yul\":5025:5040   */\n      revert\n        /* \"#utility.yul\":5052:5246   */\n    tag_87:\n        /* \"#utility.yul\":5092:5096   */\n      0x00\n        /* \"#utility.yul\":5112:5132   */\n      tag_175\n        /* \"#utility.yul\":5130:5131   */\n      dup3\n        /* \"#utility.yul\":5112:5132   */\n      tag_102\n      jump\t// in\n    tag_175:\n        /* \"#utility.yul\":5107:5132   */\n      swap2\n      pop\n        /* \"#utility.yul\":5146:5166   */\n      tag_176\n        /* \"#utility.yul\":5164:5165   */\n      dup4\n        /* \"#utility.yul\":5146:5166   */\n      tag_102\n      jump\t// in\n    tag_176:\n        /* \"#utility.yul\":5141:5166   */\n      swap3\n      pop\n        /* \"#utility.yul\":5190:5191   */\n      dup3\n        /* \"#utility.yul\":5187:5188   */\n      dup3\n        /* \"#utility.yul\":5183:5192   */\n      sub\n        /* \"#utility.yul\":5175:5192   */\n      swap1\n      pop\n        /* \"#utility.yul\":5214:5215   */\n      dup2\n        /* \"#utility.yul\":5208:5212   */\n      dup2\n        /* \"#utility.yul\":5205:5216   */\n      gt\n        /* \"#utility.yul\":5202:5239   */\n      iszero\n      tag_177\n      jumpi\n        /* \"#utility.yul\":5219:5237   */\n      tag_178\n      tag_118\n      jump\t// in\n    tag_178:\n        /* \"#utility.yul\":5202:5239   */\n    tag_177:\n        /* \"#utility.yul\":5052:5246   */\n      swap3\n      swap2\n      pop\n      pop\n      jump\t// out\n\n    auxdata: 0xa26469706673582212200e261f8049f6802e3e2344f16098d06110444347da903d4317d3304ca8bc4ad364736f6c634300081e0033\n}\n",
				"bytecode": {
					"linkReferences": {},
					"object": "6080604052348015600e575f5ffd5b506106ff8061001c5f395ff3fe608060405234801561000f575f5ffd5b50600436106100a7575f3560e01c806371e5ee5f1161006f57806371e5ee5f1461015357806378321efb146101835780639a6fcbdd1461019f578063a16e7215146101a9578063d5c22bef146101c5578063e80b7ab6146101e3576100a7565b80631f7b6d32146100ab578063280ca666146100c95780633a7d22bc146100e7578063569c5f6d14610117578063681fe70c14610135575b5f5ffd5b6100b36101ed565b6040516100c09190610422565b60405180910390f35b6100d16101f8565b6040516100de91906104f2565b60405180910390f35b61010160048036038101906100fc9190610540565b61024d565b60405161010e9190610422565b60405180910390f35b61011f610271565b60405161012c9190610422565b60405180910390f35b61013d6102c5565b60405161014a9190610585565b60405180910390f35b61016d60048036038101906101689190610540565b6102d2565b60405161017a9190610422565b60405180910390f35b61019d60048036038101906101989190610540565b6102f1565b005b6101a7610319565b005b6101c360048036038101906101be919061059e565b61033f565b005b6101cd610363565b6040516101da9190610422565b60405180910390f35b6101eb6103c3565b005b5f5f80549050905090565b60605f80548060200260200160405190810160405280929190818152602001828054801561024357602002820191905f5260205f20905b81548152602001906001019080831161022f575b5050505050905090565b5f5f8281548110610261576102606105dc565b5b905f5260205f2001549050919050565b5f5f5f90505f5f90505b5f805490508110156102bd575f818154811061029a576102996105dc565b5b905f5260205f200154826102ae9190610636565b9150808060010191505061027b565b508091505090565b5f5f5f8054905014905090565b5f81815481106102e0575f80fd5b905f5260205f20015f915090505481565b5f81908060018154018082558091505060019003905f5260205f20015f909190919091505550565b5f80548061032a57610329610669565b5b600190038181905f5260205f20015f90559055565b805f8381548110610353576103526105dc565b5b905f5260205f2001819055505050565b5f5f5f8054905090505f5f60018361037b9190610696565b8154811061038c5761038b6105dc565b5b905f5260205f20015490505f8054806103a8576103a7610669565b5b600190038181905f5260205f20015f90559055809250505090565b5f5f6103cf91906103d1565b565b5080545f8255905f5260205f20908101906103ec91906103ef565b50565b5b80821115610406575f815f9055506001016103f0565b5090565b5f819050919050565b61041c8161040a565b82525050565b5f6020820190506104355f830184610413565b92915050565b5f81519050919050565b5f82825260208201905092915050565b5f819050602082019050919050565b61046d8161040a565b82525050565b5f61047e8383610464565b60208301905092915050565b5f602082019050919050565b5f6104a08261043b565b6104aa8185610445565b93506104b583610455565b805f5b838110156104e55781516104cc8882610473565b97506104d78361048a565b9250506001810190506104b8565b5085935050505092915050565b5f6020820190508181035f83015261050a8184610496565b905092915050565b5f5ffd5b61051f8161040a565b8114610529575f5ffd5b50565b5f8135905061053a81610516565b92915050565b5f6020828403121561055557610554610512565b5b5f6105628482850161052c565b91505092915050565b5f8115159050919050565b61057f8161056b565b82525050565b5f6020820190506105985f830184610576565b92915050565b5f5f604083850312156105b4576105b3610512565b5b5f6105c18582860161052c565b92505060206105d28582860161052c565b9150509250929050565b7f4e487b71000000000000000000000000000000000000000000000000000000005f52603260045260245ffd5b7f4e487b71000000000000000000000000000000000000000000000000000000005f52601160045260245ffd5b5f6106408261040a565b915061064b8361040a565b925082820190508082111561066357610662610609565b5b92915050565b7f4e487b71000000000000000000000000000000000000000000000000000000005f52603160045260245ffd5b5f6106a08261040a565b91506106ab8361040a565b92508282039050818111156106c3576106c2610609565b5b9291505056fea26469706673582212200e261f8049f6802e3e2344f16098d06110444347da903d4317d3304ca8bc4ad364736f6c634300081e0033",
					"opcodes": "PUSH1 0x80 PUSH1 0x40 MSTORE CALLVALUE DUP1 ISZERO PUSH1 0xE JUMPI PUSH0 PUSH0 REVERT JUMPDEST POP PUSH2 0x6FF DUP1 PUSH2 0x1C PUSH0 CODECOPY PUSH0 RETURN INVALID PUSH1 0x80 PUSH1 0x40 MSTORE CALLVALUE DUP1 ISZERO PUSH2 0xF JUMPI PUSH0 PUSH0 REVERT JUMPDEST POP PUSH1 0x4 CALLDATASIZE LT PUSH2 0xA7 JUMPI PUSH0 CALLDATALOAD PUSH1 0xE0 SHR DUP1 PUSH4 0x71E5EE5F GT PUSH2 0x6F JUMPI DUP1 PUSH4 0x71E5EE5F EQ PUSH2 0x153 JUMPI DUP1 PUSH4 0x78321EFB EQ PUSH2 0x183 JUMPI DUP1 PUSH4 0x9A6FCBDD EQ PUSH2 0x19F JUMPI DUP1 PUSH4 0xA16E7215 EQ PUSH2 0x1A9 JUMPI DUP1 PUSH4 0xD5C22BEF EQ PUSH2 0x1C5 JUMPI DUP1 PUSH4 0xE80B7AB6 EQ PUSH2 0x1E3 JUMPI PUSH2 0xA7 JUMP JUMPDEST DUP1 PUSH4 0x1F7B6D32 EQ PUSH2 0xAB JUMPI DUP1 PUSH4 0x280CA666 EQ PUSH2 0xC9 JUMPI DUP1 PUSH4 0x3A7D22BC EQ PUSH2 0xE7 JUMPI DUP1 PUSH4 0x569C5F6D EQ PUSH2 0x117 JUMPI DUP1 PUSH4 0x681FE70C EQ PUSH2 0x135 JUMPI JUMPDEST PUSH0 PUSH0 REVERT JUMPDEST PUSH2 0xB3 PUSH2 0x1ED JUMP JUMPDEST PUSH1 0x40 MLOAD PUSH2 0xC0 SWAP2 SWAP1 PUSH2 0x422 JUMP JUMPDEST PUSH1 0x40 MLOAD DUP1 SWAP2 SUB SWAP1 RETURN JUMPDEST PUSH2 0xD1 PUSH2 0x1F8 JUMP JUMPDEST PUSH1 0x40 MLOAD PUSH2 0xDE SWAP2 SWAP1 PUSH2 0x4F2 JUMP JUMPDEST PUSH1 0x40 MLOAD DUP1 SWAP2 SUB SWAP1 RETURN JUMPDEST PUSH2 0x101 PUSH1 0x4 DUP1 CALLDATASIZE SUB DUP2 ADD SWAP1 PUSH2 0xFC SWAP2 SWAP1 PUSH2 0x540 JUMP JUMPDEST PUSH2 0x24D JUMP JUMPDEST PUSH1 0x40 MLOAD PUSH2 0x10E SWAP2 SWAP1 PUSH2 0x422 JUMP JUMPDEST PUSH1 0x40 MLOAD DUP1 SWAP2 SUB SWAP1 RETURN JUMPDEST PUSH2 0x11F PUSH2 0x271 JUMP JUMPDEST PUSH1 0x40 MLOAD PUSH2 0x12C SWAP2 SWAP1 PUSH2 0x422 JUMP JUMPDEST PUSH1 0x40 MLOAD DUP1 SWAP2 SUB SWAP1 RETURN JUMPDEST PUSH2 0x13D PUSH2 0x2C5 JUMP JUMPDEST PUSH1 0x40 MLOAD PUSH2 0x14A SWAP2 SWAP1 PUSH2 0x585 JUMP JUMPDEST PUSH1 0x40 MLOAD DUP1 SWAP2 SUB SWAP1 RETURN JUMPDEST PUSH2 0x16D PUSH1 0x4 DUP1 CALLDATASIZE SUB DUP2 ADD SWAP1 PUSH2 0x168 SWAP2 SWAP1 PUSH2 0x540 JUMP JUMPDEST PUSH2 0x2D2 JUMP JUMPDEST PUSH1 0x40 MLOAD PUSH2 0x17A SWAP2 SWAP1 PUSH2 0x422 JUMP JUMPDEST PUSH1 0x40 MLOAD DUP1 SWAP2 SUB SWAP1 RETURN JUMPDEST PUSH2 0x19D PUSH1 0x4 DUP1 CALLDATASIZE SUB DUP2 ADD SWAP1 PUSH2 0x198 SWAP2 SWAP1 PUSH2 0x540 JUMP JUMPDEST PUSH2 0x2F1 JUMP JUMPDEST STOP JUMPDEST PUSH2 0x1A7 PUSH2 0x319 JUMP JUMPDEST STOP JUMPDEST PUSH2 0x1C3 PUSH1 0x4 DUP1 CALLDATASIZE SUB DUP2 ADD SWAP1 PUSH2 0x1BE SWAP2 SWAP1 PUSH2 0x59E JUMP JUMPDEST PUSH2 0x33F JUMP JUMPDEST STOP JUMPDEST PUSH2 0x1CD PUSH2 0x363 JUMP JUMPDEST PUSH1 0x40 MLOAD PUSH2 0x1DA SWAP2 SWAP1 PUSH2 0x422 JUMP JUMPDEST PUSH1 0x40 MLOAD DUP1 SWAP2 SUB SWAP1 RETURN JUMPDEST PUSH2 0x1EB PUSH2 0x3C3 JUMP JUMPDEST STOP JUMPDEST PUSH0 PUSH0 DUP1 SLOAD SWAP1 POP SWAP1 POP SWAP1 JUMP JUMPDEST PUSH1 0x60 PUSH0 DUP1 SLOAD DUP1 PUSH1 0x20 MUL PUSH1 0x20 ADD PUSH1 0x40 MLOAD SWAP1 DUP2 ADD PUSH1 0x40 MSTORE DUP1 SWAP3 SWAP2 SWAP1 DUP2 DUP2 MSTORE PUSH1 0x20 ADD DUP3 DUP1 SLOAD DUP1 ISZERO PUSH2 0x243 JUMPI PUSH1 0x20 MUL DUP3 ADD SWAP2 SWAP1 PUSH0 MSTORE PUSH1 0x20 PUSH0 KECCAK256 SWAP1 JUMPDEST DUP2 SLOAD DUP2 MSTORE PUSH1 0x20 ADD SWAP1 PUSH1 0x1 ADD SWAP1 DUP1 DUP4 GT PUSH2 0x22F JUMPI JUMPDEST POP POP POP POP POP SWAP1 POP SWAP1 JUMP JUMPDEST PUSH0 PUSH0 DUP3 DUP2 SLOAD DUP2 LT PUSH2 0x261 JUMPI PUSH2 0x260 PUSH2 0x5DC JUMP JUMPDEST JUMPDEST SWAP1 PUSH0 MSTORE PUSH1 0x20 PUSH0 KECCAK256 ADD SLOAD SWAP1 POP SWAP2 SWAP1 POP JUMP JUMPDEST PUSH0 PUSH0 PUSH0 SWAP1 POP PUSH0 PUSH0 SWAP1 POP JUMPDEST PUSH0 DUP1 SLOAD SWAP1 POP DUP2 LT ISZERO PUSH2 0x2BD JUMPI PUSH0 DUP2 DUP2 SLOAD DUP2 LT PUSH2 0x29A JUMPI PUSH2 0x299 PUSH2 0x5DC JUMP JUMPDEST JUMPDEST SWAP1 PUSH0 MSTORE PUSH1 0x20 PUSH0 KECCAK256 ADD SLOAD DUP3 PUSH2 0x2AE SWAP2 SWAP1 PUSH2 0x636 JUMP JUMPDEST SWAP2 POP DUP1 DUP1 PUSH1 0x1 ADD SWAP2 POP POP PUSH2 0x27B JUMP JUMPDEST POP DUP1 SWAP2 POP POP SWAP1 JUMP JUMPDEST PUSH0 PUSH0 PUSH0 DUP1 SLOAD SWAP1 POP EQ SWAP1 POP SWAP1 JUMP JUMPDEST PUSH0 DUP2 DUP2 SLOAD DUP2 LT PUSH2 0x2E0 JUMPI PUSH0 DUP1 REVERT JUMPDEST SWAP1 PUSH0 MSTORE PUSH1 0x20 PUSH0 KECCAK256 ADD PUSH0 SWAP2 POP SWAP1 POP SLOAD DUP2 JUMP JUMPDEST PUSH0 DUP2 SWAP1 DUP1 PUSH1 0x1 DUP2 SLOAD ADD DUP1 DUP3 SSTORE DUP1 SWAP2 POP POP PUSH1 0x1 SWAP1 SUB SWAP1 PUSH0 MSTORE PUSH1 0x20 PUSH0 KECCAK256 ADD PUSH0 SWAP1 SWAP2 SWAP1 SWAP2 SWAP1 SWAP2 POP SSTORE POP JUMP JUMPDEST PUSH0 DUP1 SLOAD DUP1 PUSH2 0x32A JUMPI PUSH2 0x329 PUSH2 0x669 JUMP JUMPDEST JUMPDEST PUSH1 0x1 SWAP1 SUB DUP2 DUP2 SWAP1 PUSH0 MSTORE PUSH1 0x20 PUSH0 KECCAK256 ADD PUSH0 SWAP1 SSTORE SWAP1 SSTORE JUMP JUMPDEST DUP1 PUSH0 DUP4 DUP2 SLOAD DUP2 LT PUSH2 0x353 JUMPI PUSH2 0x352 PUSH2 0x5DC JUMP JUMPDEST JUMPDEST SWAP1 PUSH0 MSTORE PUSH1 0x20 PUSH0 KECCAK256 ADD DUP2 SWAP1 SSTORE POP POP POP JUMP JUMPDEST PUSH0 PUSH0 PUSH0 DUP1 SLOAD SWAP1 POP SWAP1 POP PUSH0 PUSH0 PUSH1 0x1 DUP4 PUSH2 0x37B SWAP2 SWAP1 PUSH2 0x696 JUMP JUMPDEST DUP2 SLOAD DUP2 LT PUSH2 0x38C JUMPI PUSH2 0x38B PUSH2 0x5DC JUMP JUMPDEST JUMPDEST SWAP1 PUSH0 MSTORE PUSH1 0x20 PUSH0 KECCAK256 ADD SLOAD SWAP1 POP PUSH0 DUP1 SLOAD DUP1 PUSH2 0x3A8 JUMPI PUSH2 0x3A7 PUSH2 0x669 JUMP JUMPDEST JUMPDEST PUSH1 0x1 SWAP1 SUB DUP2 DUP2 SWAP1 PUSH0 MSTORE PUSH1 0x20 PUSH0 KECCAK256 ADD PUSH0 SWAP1 SSTORE SWAP1 SSTORE DUP1 SWAP3 POP POP POP SWAP1 JUMP JUMPDEST PUSH0 PUSH0 PUSH2 0x3CF SWAP2 SWAP1 PUSH2 0x3D1 JUMP JUMPDEST JUMP JUMPDEST POP DUP1 SLOAD PUSH0 DUP3 SSTORE SWAP1 PUSH0 MSTORE PUSH1 0x20 PUSH0 KECCAK256 SWAP1 DUP2 ADD SWAP1 PUSH2 0x3EC SWAP2 SWAP1 PUSH2 0x3EF JUMP JUMPDEST POP JUMP JUMPDEST JUMPDEST DUP1 DUP3 GT ISZERO PUSH2 0x406 JUMPI PUSH0 DUP2 PUSH0 SWAP1 SSTORE POP PUSH1 0x1 ADD PUSH2 0x3F0 JUMP JUMPDEST POP SWAP1 JUMP JUMPDEST PUSH0 DUP2 SWAP1 POP SWAP2 SWAP1 POP JUMP JUMPDEST PUSH2 0x41C DUP2 PUSH2 0x40A JUMP JUMPDEST DUP3 MSTORE POP POP JUMP JUMPDEST PUSH0 PUSH1 0x20 DUP3 ADD SWAP1 POP PUSH2 0x435 PUSH0 DUP4 ADD DUP5 PUSH2 0x413 JUMP JUMPDEST SWAP3 SWAP2 POP POP JUMP JUMPDEST PUSH0 DUP2 MLOAD SWAP1 POP SWAP2 SWAP1 POP JUMP JUMPDEST PUSH0 DUP3 DUP3 MSTORE PUSH1 0x20 DUP3 ADD SWAP1 POP SWAP3 SWAP2 POP POP JUMP JUMPDEST PUSH0 DUP2 SWAP1 POP PUSH1 0x20 DUP3 ADD SWAP1 POP SWAP2 SWAP1 POP JUMP JUMPDEST PUSH2 0x46D DUP2 PUSH2 0x40A JUMP JUMPDEST DUP3 MSTORE POP POP JUMP JUMPDEST PUSH0 PUSH2 0x47E DUP4 DUP4 PUSH2 0x464 JUMP JUMPDEST PUSH1 0x20 DUP4 ADD SWAP1 POP SWAP3 SWAP2 POP POP JUMP JUMPDEST PUSH0 PUSH1 0x20 DUP3 ADD SWAP1 POP SWAP2 SWAP1 POP JUMP JUMPDEST PUSH0 PUSH2 0x4A0 DUP3 PUSH2 0x43B JUMP JUMPDEST PUSH2 0x4AA DUP2 DUP6 PUSH2 0x445 JUMP JUMPDEST SWAP4 POP PUSH2 0x4B5 DUP4 PUSH2 0x455 JUMP JUMPDEST DUP1 PUSH0 JUMPDEST DUP4 DUP2 LT ISZERO PUSH2 0x4E5 JUMPI DUP2 MLOAD PUSH2 0x4CC DUP9 DUP3 PUSH2 0x473 JUMP JUMPDEST SWAP8 POP PUSH2 0x4D7 DUP4 PUSH2 0x48A JUMP JUMPDEST SWAP3 POP POP PUSH1 0x1 DUP2 ADD SWAP1 POP PUSH2 0x4B8 JUMP JUMPDEST POP DUP6 SWAP4 POP POP POP POP SWAP3 SWAP2 POP POP JUMP JUMPDEST PUSH0 PUSH1 0x20 DUP3 ADD SWAP1 POP DUP2 DUP2 SUB PUSH0 DUP4 ADD MSTORE PUSH2 0x50A DUP2 DUP5 PUSH2 0x496 JUMP JUMPDEST SWAP1 POP SWAP3 SWAP2 POP POP JUMP JUMPDEST PUSH0 PUSH0 REVERT JUMPDEST PUSH2 0x51F DUP2 PUSH2 0x40A JUMP JUMPDEST DUP2 EQ PUSH2 0x529 JUMPI PUSH0 PUSH0 REVERT JUMPDEST POP JUMP JUMPDEST PUSH0 DUP2 CALLDATALOAD SWAP1 POP PUSH2 0x53A DUP2 PUSH2 0x516 JUMP JUMPDEST SWAP3 SWAP2 POP POP JUMP JUMPDEST PUSH0 PUSH1 0x20 DUP3 DUP5 SUB SLT ISZERO PUSH2 0x555 JUMPI PUSH2 0x554 PUSH2 0x512 JUMP JUMPDEST JUMPDEST PUSH0 PUSH2 0x562 DUP5 DUP3 DUP6 ADD PUSH2 0x52C JUMP JUMPDEST SWAP2 POP POP SWAP3 SWAP2 POP POP JUMP JUMPDEST PUSH0 DUP2 ISZERO ISZERO SWAP1 POP SWAP2 SWAP1 POP JUMP JUMPDEST PUSH2 0x57F DUP2 PUSH2 0x56B JUMP JUMPDEST DUP3 MSTORE POP POP JUMP JUMPDEST PUSH0 PUSH1 0x20 DUP3 ADD SWAP1 POP PUSH2 0x598 PUSH0 DUP4 ADD DUP5 PUSH2 0x576 JUMP JUMPDEST SWAP3 SWAP2 POP POP JUMP JUMPDEST PUSH0 PUSH0 PUSH1 0x40 DUP4 DUP6 SUB SLT ISZERO PUSH2 0x5B4 JUMPI PUSH2 0x5B3 PUSH2 0x512 JUMP JUMPDEST JUMPDEST PUSH0 PUSH2 0x5C1 DUP6 DUP3 DUP7 ADD PUSH2 0x52C JUMP JUMPDEST SWAP3 POP POP PUSH1 0x20 PUSH2 0x5D2 DUP6 DUP3 DUP7 ADD PUSH2 0x52C JUMP JUMPDEST SWAP2 POP POP SWAP3 POP SWAP3 SWAP1 POP JUMP JUMPDEST PUSH32 0x4E487B7100000000000000000000000000000000000000000000000000000000 PUSH0 MSTORE PUSH1 0x32 PUSH1 0x4 MSTORE PUSH1 0x24 PUSH0 REVERT JUMPDEST PUSH32 0x4E487B7100000000000000000000000000000000000000000000000000000000 PUSH0 MSTORE PUSH1 0x11 PUSH1 0x4 MSTORE PUSH1 0x24 PUSH0 REVERT JUMPDEST PUSH0 PUSH2 0x640 DUP3 PUSH2 0x40A JUMP JUMPDEST SWAP2 POP PUSH2 0x64B DUP4 PUSH2 0x40A JUMP JUMPDEST SWAP3 POP DUP3 DUP3 ADD SWAP1 POP DUP1 DUP3 GT ISZERO PUSH2 0x663 JUMPI PUSH2 0x662 PUSH2 0x609 JUMP JUMPDEST JUMPDEST SWAP3 SWAP2 POP POP JUMP JUMPDEST PUSH32 0x4E487B7100000000000000000000000000000000000000000000000000000000 PUSH0 MSTORE PUSH1 0x31 PUSH1 0x4 MSTORE PUSH1 0x24 PUSH0 REVERT JUMPDEST PUSH0 PUSH2 0x6A0 DUP3 PUSH2 0x40A JUMP JUMPDEST SWAP2 POP PUSH2 0x6AB DUP4 PUSH2 0x40A JUMP JUMPDEST SWAP3 POP DUP3 DUP3 SUB SWAP1 POP DUP2 DUP2 GT ISZERO PUSH2 0x6C3 JUMPI PUSH2 0x6C2 PUSH2 0x609 JUMP JUMPDEST JUMPDEST SWAP3 SWAP2 POP POP JUMP INVALID LOG2 PUSH5 0x6970667358 0x22 SLT KECCAK256 0xE 0x26 0x1F DUP1 BLOBHASH 0xF6 DUP1 0x2E RETURNDATACOPY 0x23 PREVRANDAO CALL PUSH1 0x98 0xD0 PUSH2 0x1044 NUMBER SELFBALANCE 0xDA SWAP1 RETURNDATASIZE NUMBER OR 0xD3 ADDRESS 0x4C 0xA8 0xBC BLOBBASEFEE 0xD3 PUSH5 0x736F6C6343 STOP ADDMOD 0x1E STOP CALLER "
				},
				"gasEstimates": {
					"creation": {
						"codeDepositCost": "358200",
						"executionCost": "391",
						"totalCost": "358591"
					},
					"external": {
						"arr(uint256)": "infinite",
						"clearArray()": "infinite",
						"getAllElements()": "infinite",
						"getElement(uint256)": "infinite",
						"getSum()": "infinite",
						"isEmpty()": "2539",
						"length()": "2440",
						"popElement()": "29484",
						"printPopElement()": "infinite",
						"pushElement(uint256)": "46842",
						"setElement(uint256,uint256)": "infinite"
					}
				},
				"methodIdentifiers": {
					"arr(uint256)": "71e5ee5f",
					"clearArray()": "e80b7ab6",
					"getAllElements()": "280ca666",
					"getElement(uint256)": "3a7d22bc",
					"getSum()": "569c5f6d",
					"isEmpty()": "681fe70c",
					"length()": "1f7b6d32",
					"popElement()": "9a6fcbdd",
					"printPopElement()": "d5c22bef",
					"pushElement(uint256)": "78321efb",
					"setElement(uint256,uint256)": "a16e7215"
				}
			},
			"storageLayout": {
				"storage": [
					{
						"astId": 6,
						"contract": "6-Array/DynamicArray.sol:arrays",
						"label": "arr",
						"offset": 0,
						"slot": "0",
						"type": "t_array(t_uint256)dyn_storage"
					}
				],
				"types": {
					"t_array(t_uint256)dyn_storage": {
						"base": "t_uint256",
						"encoding": "dynamic_array",
						"label": "uint256[]",
						"numberOfBytes": "32"
					},
					"t_uint256": {
						"encoding": "inplace",
						"label": "uint256",
						"numberOfBytes": "32"
					}
				}
			},
			"userdoc": {
				"kind": "user",
				"methods": {
					"arr(uint256)": {
						"notice": "No size specified in the declaration (contrasts with fixed-size arrays like uint256[4])Public visibility automatically generates a getter functionInitially empty (length = 0)Stored in storage, so modifications persist between transactions"
					},
					"clearArray()": {
						"notice": "Sets the array length to 0, effectively clearing itMore gas efficient than popping all elements individuallyStorage slots are not actually cleared (just marked as unused)"
					},
					"getAllElements()": {
						"notice": "Returns a copy of the current arrayFor large arrays, this can consume significant gasThe returned array is in memory, not storage"
					},
					"getElement(uint256)": {
						"notice": "Demonstrates array element accessReverts if index is out of bounds (>= arr.length)"
					},
					"getSum()": {
						"notice": "Demonstrates iterating through a dynamic arrayGas cost grows with array size (O(n) complexity)Could hit block gas limit for very large arrays"
					},
					"isEmpty()": {
						"notice": "More readable than checking if length == 0"
					},
					"length()": {
						"notice": "For dynamic arrays, length can change with each push/pop operationView function - doesn't modify contract state, no gas cost when called externally"
					},
					"popElement()": {
						"notice": "Uses the pop() method which removes the last element and decreases length by 1Time complexity: O(1)Reverts if called on an empty arrayDoesn't return the removed value (use printPopElement() if you need the value)"
					},
					"printPopElement()": {
						"notice": "Combines the functionality of peek (get last element) and popMore gas efficient than calling length() and arr[length-1] separatelyReverts if called on an empty array"
					},
					"pushElement(uint256)": {
						"notice": "Uses the push() method which appends to the end and increases length by 1Time complexity: O(1) for single element (amortized, as storage may need to be extended)Gas cost increases with array size due to storage expansion costs"
					},
					"setElement(uint256,uint256)": {
						"notice": "Demonstrates modifying array elementsReverts if index is out of bounds (>= arr.length)"
					}
				},
				"notice": "Dynamic arrays can grow and shrink in size at runtimeUnlike fixed-size arrays, their length is not determined at compile timeUseful when the number of elements is unknown or variable",
				"version": 1
			}
		}
	}
}