{
	"6-Array/ByteArrays.sol": {
		"bytearrays": {
			"abi": [
				{
					"inputs": [],
					"name": "areEqual",
					"outputs": [
						{
							"internalType": "bool",
							"name": "",
							"type": "bool"
						}
					],
					"stateMutability": "view",
					"type": "function"
				},
				{
					"inputs": [],
					"name": "b1",
					"outputs": [
						{
							"internalType": "bytes3",
							"name": "",
							"type": "bytes3"
						}
					],
					"stateMutability": "view",
					"type": "function"
				},
				{
					"inputs": [],
					"name": "b2",
					"outputs": [
						{
							"internalType": "bytes2",
							"name": "",
							"type": "bytes2"
						}
					],
					"stateMutability": "view",
					"type": "function"
				},
				{
					"inputs": [],
					"name": "b22",
					"outputs": [
						{
							"internalType": "bytes2",
							"name": "",
							"type": "bytes2"
						}
					],
					"stateMutability": "view",
					"type": "function"
				},
				{
					"inputs": [],
					"name": "getAsUint",
					"outputs": [
						{
							"internalType": "uint256",
							"name": "",
							"type": "uint256"
						},
						{
							"internalType": "uint256",
							"name": "",
							"type": "uint256"
						},
						{
							"internalType": "uint256",
							"name": "",
							"type": "uint256"
						}
					],
					"stateMutability": "view",
					"type": "function"
				},
				{
					"inputs": [],
					"name": "getFirstBytes",
					"outputs": [
						{
							"internalType": "bytes1",
							"name": "",
							"type": "bytes1"
						},
						{
							"internalType": "bytes1",
							"name": "",
							"type": "bytes1"
						},
						{
							"internalType": "bytes1",
							"name": "",
							"type": "bytes1"
						}
					],
					"stateMutability": "view",
					"type": "function"
				},
				{
					"inputs": [],
					"name": "getHexValues",
					"outputs": [
						{
							"internalType": "bytes3",
							"name": "",
							"type": "bytes3"
						},
						{
							"internalType": "bytes2",
							"name": "",
							"type": "bytes2"
						},
						{
							"internalType": "bytes2",
							"name": "",
							"type": "bytes2"
						}
					],
					"stateMutability": "view",
					"type": "function"
				},
				{
					"inputs": [],
					"name": "getMaxValues",
					"outputs": [
						{
							"internalType": "uint256",
							"name": "",
							"type": "uint256"
						},
						{
							"internalType": "uint256",
							"name": "",
							"type": "uint256"
						}
					],
					"stateMutability": "pure",
					"type": "function"
				},
				{
					"inputs": [],
					"name": "setter",
					"outputs": [],
					"stateMutability": "nonpayable",
					"type": "function"
				},
				{
					"inputs": [],
					"name": "showPadding",
					"outputs": [
						{
							"internalType": "bytes2",
							"name": "",
							"type": "bytes2"
						}
					],
					"stateMutability": "pure",
					"type": "function"
				}
			],
			"devdoc": {
				"details": "Shows how to work with fixed-size byte arrays (bytes1 to bytes32) in Solidity",
				"kind": "dev",
				"methods": {},
				"title": "Fixed-Size Byte Arrays Demonstration",
				"version": 1
			},
			"evm": {
				"assembly": "    /* \"6-Array/ByteArrays.sol\":306:1501  contract bytearrays {... */\n  mstore(0x40, 0x80)\n  callvalue\n  dup1\n  iszero\n  tag_1\n  jumpi\n  revert(0x00, 0x00)\ntag_1:\n  pop\n  dataSize(sub_0)\n  dup1\n  dataOffset(sub_0)\n  0x00\n  codecopy\n  0x00\n  return\nstop\n\nsub_0: assembly {\n        /* \"6-Array/ByteArrays.sol\":306:1501  contract bytearrays {... */\n      mstore(0x40, 0x80)\n      callvalue\n      dup1\n      iszero\n      tag_1\n      jumpi\n      revert(0x00, 0x00)\n    tag_1:\n      pop\n      jumpi(tag_2, lt(calldatasize, 0x04))\n      shr(0xe0, calldataload(0x00))\n      dup1\n      0x50026287\n      gt\n      tag_13\n      jumpi\n      dup1\n      0x50026287\n      eq\n      tag_8\n      jumpi\n      dup1\n      0x6c56b378\n      eq\n      tag_9\n      jumpi\n      dup1\n      0x9e633b4f\n      eq\n      tag_10\n      jumpi\n      dup1\n      0xee495002\n      eq\n      tag_11\n      jumpi\n      dup1\n      0xf30bd7a7\n      eq\n      tag_12\n      jumpi\n      jump(tag_2)\n    tag_13:\n      dup1\n      0x0add6ef2\n      eq\n      tag_3\n      jumpi\n      dup1\n      0x1a5a374f\n      eq\n      tag_4\n      jumpi\n      dup1\n      0x2e061bd3\n      eq\n      tag_5\n      jumpi\n      dup1\n      0x3f3108f7\n      eq\n      tag_6\n      jumpi\n      dup1\n      0x495aca3e\n      eq\n      tag_7\n      jumpi\n    tag_2:\n      revert(0x00, 0x00)\n        /* \"6-Array/ByteArrays.sol\":386:402  bytes2 public b2 */\n    tag_3:\n      tag_14\n      tag_15\n      jump\t// in\n    tag_14:\n      mload(0x40)\n      tag_16\n      swap2\n      swap1\n      tag_17\n      jump\t// in\n    tag_16:\n      mload(0x40)\n      dup1\n      swap2\n      sub\n      swap1\n      return\n        /* \"6-Array/ByteArrays.sol\":643:749  function getHexValues() public view returns (bytes3, bytes2, bytes2) {... */\n    tag_4:\n      tag_18\n      tag_19\n      jump\t// in\n    tag_18:\n      mload(0x40)\n      tag_20\n      swap4\n      swap3\n      swap2\n      swap1\n      tag_21\n      jump\t// in\n    tag_20:\n      mload(0x40)\n      dup1\n      swap2\n      sub\n      swap1\n      return\n        /* \"6-Array/ByteArrays.sol\":755:958  function getAsUint() public view returns (uint256, uint256, uint256) {... */\n    tag_5:\n      tag_22\n      tag_23\n      jump\t// in\n    tag_22:\n      mload(0x40)\n      tag_24\n      swap4\n      swap3\n      swap2\n      swap1\n      tag_25\n      jump\t// in\n    tag_24:\n      mload(0x40)\n      dup1\n      swap2\n      sub\n      swap1\n      return\n        /* \"6-Array/ByteArrays.sol\":464:637  function setter() public {... */\n    tag_6:\n      tag_26\n      tag_27\n      jump\t// in\n    tag_26:\n      stop\n        /* \"6-Array/ByteArrays.sol\":440:457  bytes2 public b22 */\n    tag_7:\n      tag_28\n      tag_29\n      jump\t// in\n    tag_28:\n      mload(0x40)\n      tag_30\n      swap2\n      swap1\n      tag_17\n      jump\t// in\n    tag_30:\n      mload(0x40)\n      dup1\n      swap2\n      sub\n      swap1\n      return\n        /* \"6-Array/ByteArrays.sol\":1376:1499  function getMaxValues() public pure returns (uint256, uint256) {... */\n    tag_8:\n      tag_31\n      tag_32\n      jump\t// in\n    tag_31:\n      mload(0x40)\n      tag_33\n      swap3\n      swap2\n      swap1\n      tag_34\n      jump\t// in\n    tag_33:\n      mload(0x40)\n      dup1\n      swap2\n      sub\n      swap1\n      return\n        /* \"6-Array/ByteArrays.sol\":964:1102  function areEqual() public view returns (bool) {... */\n    tag_9:\n      tag_35\n      tag_36\n      jump\t// in\n    tag_35:\n      mload(0x40)\n      tag_37\n      swap2\n      swap1\n      tag_38\n      jump\t// in\n    tag_37:\n      mload(0x40)\n      dup1\n      swap2\n      sub\n      swap1\n      return\n        /* \"6-Array/ByteArrays.sol\":1108:1248  function getFirstBytes() public view returns (bytes1, bytes1, bytes1) {... */\n    tag_10:\n      tag_39\n      tag_40\n      jump\t// in\n    tag_39:\n      mload(0x40)\n      tag_41\n      swap4\n      swap3\n      swap2\n      swap1\n      tag_42\n      jump\t// in\n    tag_41:\n      mload(0x40)\n      dup1\n      swap2\n      sub\n      swap1\n      return\n        /* \"6-Array/ByteArrays.sol\":332:348  bytes3 public b1 */\n    tag_11:\n      tag_43\n      tag_44\n      jump\t// in\n    tag_43:\n      mload(0x40)\n      tag_45\n      swap2\n      swap1\n      tag_46\n      jump\t// in\n    tag_45:\n      mload(0x40)\n      dup1\n      swap2\n      sub\n      swap1\n      return\n        /* \"6-Array/ByteArrays.sol\":1254:1370  function showPadding() public pure returns (bytes2) {... */\n    tag_12:\n      tag_47\n      tag_48\n      jump\t// in\n    tag_47:\n      mload(0x40)\n      tag_49\n      swap2\n      swap1\n      tag_17\n      jump\t// in\n    tag_49:\n      mload(0x40)\n      dup1\n      swap2\n      sub\n      swap1\n      return\n        /* \"6-Array/ByteArrays.sol\":386:402  bytes2 public b2 */\n    tag_15:\n      0x00\n      0x03\n      swap1\n      sload\n      swap1\n      0x0100\n      exp\n      swap1\n      div\n      0xf0\n      shl\n      dup2\n      jump\t// out\n        /* \"6-Array/ByteArrays.sol\":643:749  function getHexValues() public view returns (bytes3, bytes2, bytes2) {... */\n    tag_19:\n        /* \"6-Array/ByteArrays.sol\":688:694  bytes3 */\n      0x00\n        /* \"6-Array/ByteArrays.sol\":696:702  bytes2 */\n      0x00\n        /* \"6-Array/ByteArrays.sol\":704:710  bytes2 */\n      0x00\n        /* \"6-Array/ByteArrays.sol\":730:732  b1 */\n      0x00\n      0x00\n      swap1\n      sload\n      swap1\n      0x0100\n      exp\n      swap1\n      div\n      0xe8\n      shl\n        /* \"6-Array/ByteArrays.sol\":734:736  b2 */\n      0x00\n      0x03\n      swap1\n      sload\n      swap1\n      0x0100\n      exp\n      swap1\n      div\n      0xf0\n      shl\n        /* \"6-Array/ByteArrays.sol\":738:741  b22 */\n      0x00\n      0x05\n      swap1\n      sload\n      swap1\n      0x0100\n      exp\n      swap1\n      div\n      0xf0\n      shl\n        /* \"6-Array/ByteArrays.sol\":722:742  return (b1, b2, b22) */\n      swap3\n      pop\n      swap3\n      pop\n      swap3\n      pop\n        /* \"6-Array/ByteArrays.sol\":643:749  function getHexValues() public view returns (bytes3, bytes2, bytes2) {... */\n      swap1\n      swap2\n      swap3\n      jump\t// out\n        /* \"6-Array/ByteArrays.sol\":755:958  function getAsUint() public view returns (uint256, uint256, uint256) {... */\n    tag_23:\n        /* \"6-Array/ByteArrays.sol\":797:804  uint256 */\n      0x00\n        /* \"6-Array/ByteArrays.sol\":806:813  uint256 */\n      0x00\n        /* \"6-Array/ByteArrays.sol\":815:822  uint256 */\n      0x00\n        /* \"6-Array/ByteArrays.sol\":870:872  b1 */\n      0x00\n      0x00\n      swap1\n      sload\n      swap1\n      0x0100\n      exp\n      swap1\n      div\n      0xe8\n      shl\n        /* \"6-Array/ByteArrays.sol\":863:873  uint24(b1) */\n      0xe8\n      shr\n        /* \"6-Array/ByteArrays.sol\":855:874  uint256(uint24(b1)) */\n      0xffffff\n      and\n        /* \"6-Array/ByteArrays.sol\":903:905  b2 */\n      0x00\n      0x03\n      swap1\n      sload\n      swap1\n      0x0100\n      exp\n      swap1\n      div\n      0xf0\n      shl\n        /* \"6-Array/ByteArrays.sol\":896:906  uint16(b2) */\n      0xf0\n      shr\n        /* \"6-Array/ByteArrays.sol\":888:907  uint256(uint16(b2)) */\n      0xffff\n      and\n        /* \"6-Array/ByteArrays.sol\":936:939  b22 */\n      0x00\n      0x05\n      swap1\n      sload\n      swap1\n      0x0100\n      exp\n      swap1\n      div\n      0xf0\n      shl\n        /* \"6-Array/ByteArrays.sol\":929:940  uint16(b22) */\n      0xf0\n      shr\n        /* \"6-Array/ByteArrays.sol\":921:941  uint256(uint16(b22)) */\n      0xffff\n      and\n        /* \"6-Array/ByteArrays.sol\":834:951  return (... */\n      swap3\n      pop\n      swap3\n      pop\n      swap3\n      pop\n        /* \"6-Array/ByteArrays.sol\":755:958  function getAsUint() public view returns (uint256, uint256, uint256) {... */\n      swap1\n      swap2\n      swap3\n      jump\t// out\n        /* \"6-Array/ByteArrays.sol\":464:637  function setter() public {... */\n    tag_27:\n        /* \"6-Array/ByteArrays.sol\":499:509  b1 = 'abc' */\n      0x6162630000000000000000000000000000000000000000000000000000000000\n        /* \"6-Array/ByteArrays.sol\":499:501  b1 */\n      0x00\n      0x00\n        /* \"6-Array/ByteArrays.sol\":499:509  b1 = 'abc' */\n      0x0100\n      exp\n      dup2\n      sload\n      dup2\n      0xffffff\n      mul\n      not\n      and\n      swap1\n      dup4\n      0xe8\n      shr\n      mul\n      or\n      swap1\n      sstore\n      pop\n        /* \"6-Array/ByteArrays.sol\":542:551  b2 = 'kp' */\n      0x6b70000000000000000000000000000000000000000000000000000000000000\n        /* \"6-Array/ByteArrays.sol\":542:544  b2 */\n      0x00\n      0x03\n        /* \"6-Array/ByteArrays.sol\":542:551  b2 = 'kp' */\n      0x0100\n      exp\n      dup2\n      sload\n      dup2\n      0xffff\n      mul\n      not\n      and\n      swap1\n      dup4\n      0xf0\n      shr\n      mul\n      or\n      swap1\n      sstore\n      pop\n        /* \"6-Array/ByteArrays.sol\":582:591  b22 = 'a' */\n      0x6100000000000000000000000000000000000000000000000000000000000000\n        /* \"6-Array/ByteArrays.sol\":582:585  b22 */\n      0x00\n      0x05\n        /* \"6-Array/ByteArrays.sol\":582:591  b22 = 'a' */\n      0x0100\n      exp\n      dup2\n      sload\n      dup2\n      0xffff\n      mul\n      not\n      and\n      swap1\n      dup4\n      0xf0\n      shr\n      mul\n      or\n      swap1\n      sstore\n      pop\n        /* \"6-Array/ByteArrays.sol\":464:637  function setter() public {... */\n      jump\t// out\n        /* \"6-Array/ByteArrays.sol\":440:457  bytes2 public b22 */\n    tag_29:\n      0x00\n      0x05\n      swap1\n      sload\n      swap1\n      0x0100\n      exp\n      swap1\n      div\n      0xf0\n      shl\n      dup2\n      jump\t// out\n        /* \"6-Array/ByteArrays.sol\":1376:1499  function getMaxValues() public pure returns (uint256, uint256) {... */\n    tag_32:\n        /* \"6-Array/ByteArrays.sol\":1421:1428  uint256 */\n      0x00\n        /* \"6-Array/ByteArrays.sol\":1430:1437  uint256 */\n      0x00\n        /* \"6-Array/ByteArrays.sol\":1457:1473  type(uint16).max */\n      0xffff\n        /* \"6-Array/ByteArrays.sol\":1475:1491  type(uint24).max */\n      0xffffff\n        /* \"6-Array/ByteArrays.sol\":1449:1492  return (type(uint16).max, type(uint24).max) */\n      dup2\n      0xffff\n      and\n      swap2\n      pop\n      dup1\n      0xffffff\n      and\n      swap1\n      pop\n      swap2\n      pop\n      swap2\n      pop\n        /* \"6-Array/ByteArrays.sol\":1376:1499  function getMaxValues() public pure returns (uint256, uint256) {... */\n      swap1\n      swap2\n      jump\t// out\n        /* \"6-Array/ByteArrays.sol\":964:1102  function areEqual() public view returns (bool) {... */\n    tag_36:\n        /* \"6-Array/ByteArrays.sol\":1005:1009  bool */\n      0x00\n        /* \"6-Array/ByteArrays.sol\":1090:1093  b22 */\n      0x00\n      0x05\n      swap1\n      sload\n      swap1\n      0x0100\n      exp\n      swap1\n      div\n      0xf0\n      shl\n        /* \"6-Array/ByteArrays.sol\":1073:1094  abi.encodePacked(b22) */\n      add(0x20, mload(0x40))\n      tag_55\n      swap2\n      swap1\n      tag_56\n      jump\t// in\n    tag_55:\n      mload(0x40)\n      0x20\n      dup2\n      dup4\n      sub\n      sub\n      dup2\n      mstore\n      swap1\n      0x40\n      mstore\n        /* \"6-Array/ByteArrays.sol\":1063:1095  keccak256(abi.encodePacked(b22)) */\n      dup1\n      mload\n      swap1\n      0x20\n      add\n      keccak256\n        /* \"6-Array/ByteArrays.sol\":1055:1057  b2 */\n      0x00\n      0x03\n      swap1\n      sload\n      swap1\n      0x0100\n      exp\n      swap1\n      div\n      0xf0\n      shl\n        /* \"6-Array/ByteArrays.sol\":1038:1058  abi.encodePacked(b2) */\n      add(0x20, mload(0x40))\n      tag_57\n      swap2\n      swap1\n      tag_56\n      jump\t// in\n    tag_57:\n      mload(0x40)\n      0x20\n      dup2\n      dup4\n      sub\n      sub\n      dup2\n      mstore\n      swap1\n      0x40\n      mstore\n        /* \"6-Array/ByteArrays.sol\":1028:1059  keccak256(abi.encodePacked(b2)) */\n      dup1\n      mload\n      swap1\n      0x20\n      add\n      keccak256\n        /* \"6-Array/ByteArrays.sol\":1028:1095  keccak256(abi.encodePacked(b2)) == keccak256(abi.encodePacked(b22)) */\n      eq\n        /* \"6-Array/ByteArrays.sol\":1021:1095  return keccak256(abi.encodePacked(b2)) == keccak256(abi.encodePacked(b22)) */\n      swap1\n      pop\n        /* \"6-Array/ByteArrays.sol\":964:1102  function areEqual() public view returns (bool) {... */\n      swap1\n      jump\t// out\n        /* \"6-Array/ByteArrays.sol\":1108:1248  function getFirstBytes() public view returns (bytes1, bytes1, bytes1) {... */\n    tag_40:\n        /* \"6-Array/ByteArrays.sol\":1154:1160  bytes1 */\n      0x00\n        /* \"6-Array/ByteArrays.sol\":1162:1168  bytes1 */\n      0x00\n        /* \"6-Array/ByteArrays.sol\":1170:1176  bytes1 */\n      0x00\n        /* \"6-Array/ByteArrays.sol\":1203:1205  b1 */\n      0x00\n      0x00\n      swap1\n      sload\n      swap1\n      0x0100\n      exp\n      swap1\n      div\n      0xe8\n      shl\n        /* \"6-Array/ByteArrays.sol\":1206:1207  0 */\n      0x00\n        /* \"6-Array/ByteArrays.sol\":1203:1208  b1[0] */\n      0x03\n      dup2\n      lt\n      tag_59\n      jumpi\n      tag_60\n      tag_61\n      jump\t// in\n    tag_60:\n    tag_59:\n      byte\n      0xf8\n      shl\n        /* \"6-Array/ByteArrays.sol\":1218:1220  b2 */\n      0x00\n      0x03\n      swap1\n      sload\n      swap1\n      0x0100\n      exp\n      swap1\n      div\n      0xf0\n      shl\n        /* \"6-Array/ByteArrays.sol\":1221:1222  0 */\n      0x00\n        /* \"6-Array/ByteArrays.sol\":1218:1223  b2[0] */\n      0x02\n      dup2\n      lt\n      tag_62\n      jumpi\n      tag_63\n      tag_61\n      jump\t// in\n    tag_63:\n    tag_62:\n      byte\n      0xf8\n      shl\n        /* \"6-Array/ByteArrays.sol\":1233:1236  b22 */\n      0x00\n      0x05\n      swap1\n      sload\n      swap1\n      0x0100\n      exp\n      swap1\n      div\n      0xf0\n      shl\n        /* \"6-Array/ByteArrays.sol\":1237:1238  0 */\n      0x00\n        /* \"6-Array/ByteArrays.sol\":1233:1239  b22[0] */\n      0x02\n      dup2\n      lt\n      tag_64\n      jumpi\n      tag_65\n      tag_61\n      jump\t// in\n    tag_65:\n    tag_64:\n      byte\n      0xf8\n      shl\n        /* \"6-Array/ByteArrays.sol\":1188:1241  return (bytes1(b1[0]), bytes1(b2[0]), bytes1(b22[0])) */\n      swap3\n      pop\n      swap3\n      pop\n      swap3\n      pop\n        /* \"6-Array/ByteArrays.sol\":1108:1248  function getFirstBytes() public view returns (bytes1, bytes1, bytes1) {... */\n      swap1\n      swap2\n      swap3\n      jump\t// out\n        /* \"6-Array/ByteArrays.sol\":332:348  bytes3 public b1 */\n    tag_44:\n      0x00\n      0x00\n      swap1\n      sload\n      swap1\n      0x0100\n      exp\n      swap1\n      div\n      0xe8\n      shl\n      dup2\n      jump\t// out\n        /* \"6-Array/ByteArrays.sol\":1254:1370  function showPadding() public pure returns (bytes2) {... */\n    tag_48:\n        /* \"6-Array/ByteArrays.sol\":1298:1304  bytes2 */\n      0x00\n        /* \"6-Array/ByteArrays.sol\":1316:1326  return 'x' */\n      0x7800000000000000000000000000000000000000000000000000000000000000\n      swap1\n      pop\n        /* \"6-Array/ByteArrays.sol\":1254:1370  function showPadding() public pure returns (bytes2) {... */\n      swap1\n      jump\t// out\n        /* \"#utility.yul\":7:156   */\n    tag_67:\n        /* \"#utility.yul\":43:50   */\n      0x00\n        /* \"#utility.yul\":83:149   */\n      0xffff000000000000000000000000000000000000000000000000000000000000\n        /* \"#utility.yul\":76:81   */\n      dup3\n        /* \"#utility.yul\":72:150   */\n      and\n        /* \"#utility.yul\":61:150   */\n      swap1\n      pop\n        /* \"#utility.yul\":7:156   */\n      swap2\n      swap1\n      pop\n      jump\t// out\n        /* \"#utility.yul\":162:277   */\n    tag_68:\n        /* \"#utility.yul\":247:270   */\n      tag_82\n        /* \"#utility.yul\":264:269   */\n      dup2\n        /* \"#utility.yul\":247:270   */\n      tag_67\n      jump\t// in\n    tag_82:\n        /* \"#utility.yul\":242:245   */\n      dup3\n        /* \"#utility.yul\":235:271   */\n      mstore\n        /* \"#utility.yul\":162:277   */\n      pop\n      pop\n      jump\t// out\n        /* \"#utility.yul\":283:501   */\n    tag_17:\n        /* \"#utility.yul\":374:378   */\n      0x00\n        /* \"#utility.yul\":412:414   */\n      0x20\n        /* \"#utility.yul\":401:410   */\n      dup3\n        /* \"#utility.yul\":397:415   */\n      add\n        /* \"#utility.yul\":389:415   */\n      swap1\n      pop\n        /* \"#utility.yul\":425:494   */\n      tag_84\n        /* \"#utility.yul\":491:492   */\n      0x00\n        /* \"#utility.yul\":480:489   */\n      dup4\n        /* \"#utility.yul\":476:493   */\n      add\n        /* \"#utility.yul\":467:473   */\n      dup5\n        /* \"#utility.yul\":425:494   */\n      tag_68\n      jump\t// in\n    tag_84:\n        /* \"#utility.yul\":283:501   */\n      swap3\n      swap2\n      pop\n      pop\n      jump\t// out\n        /* \"#utility.yul\":507:656   */\n    tag_69:\n        /* \"#utility.yul\":543:550   */\n      0x00\n        /* \"#utility.yul\":583:649   */\n      0xffffff0000000000000000000000000000000000000000000000000000000000\n        /* \"#utility.yul\":576:581   */\n      dup3\n        /* \"#utility.yul\":572:650   */\n      and\n        /* \"#utility.yul\":561:650   */\n      swap1\n      pop\n        /* \"#utility.yul\":507:656   */\n      swap2\n      swap1\n      pop\n      jump\t// out\n        /* \"#utility.yul\":662:777   */\n    tag_70:\n        /* \"#utility.yul\":747:770   */\n      tag_87\n        /* \"#utility.yul\":764:769   */\n      dup2\n        /* \"#utility.yul\":747:770   */\n      tag_69\n      jump\t// in\n    tag_87:\n        /* \"#utility.yul\":742:745   */\n      dup3\n        /* \"#utility.yul\":735:771   */\n      mstore\n        /* \"#utility.yul\":662:777   */\n      pop\n      pop\n      jump\t// out\n        /* \"#utility.yul\":783:1213   */\n    tag_21:\n        /* \"#utility.yul\":926:930   */\n      0x00\n        /* \"#utility.yul\":964:966   */\n      0x60\n        /* \"#utility.yul\":953:962   */\n      dup3\n        /* \"#utility.yul\":949:967   */\n      add\n        /* \"#utility.yul\":941:967   */\n      swap1\n      pop\n        /* \"#utility.yul\":977:1046   */\n      tag_89\n        /* \"#utility.yul\":1043:1044   */\n      0x00\n        /* \"#utility.yul\":1032:1041   */\n      dup4\n        /* \"#utility.yul\":1028:1045   */\n      add\n        /* \"#utility.yul\":1019:1025   */\n      dup7\n        /* \"#utility.yul\":977:1046   */\n      tag_70\n      jump\t// in\n    tag_89:\n        /* \"#utility.yul\":1056:1126   */\n      tag_90\n        /* \"#utility.yul\":1122:1124   */\n      0x20\n        /* \"#utility.yul\":1111:1120   */\n      dup4\n        /* \"#utility.yul\":1107:1125   */\n      add\n        /* \"#utility.yul\":1098:1104   */\n      dup6\n        /* \"#utility.yul\":1056:1126   */\n      tag_68\n      jump\t// in\n    tag_90:\n        /* \"#utility.yul\":1136:1206   */\n      tag_91\n        /* \"#utility.yul\":1202:1204   */\n      0x40\n        /* \"#utility.yul\":1191:1200   */\n      dup4\n        /* \"#utility.yul\":1187:1205   */\n      add\n        /* \"#utility.yul\":1178:1184   */\n      dup5\n        /* \"#utility.yul\":1136:1206   */\n      tag_68\n      jump\t// in\n    tag_91:\n        /* \"#utility.yul\":783:1213   */\n      swap5\n      swap4\n      pop\n      pop\n      pop\n      pop\n      jump\t// out\n        /* \"#utility.yul\":1219:1296   */\n    tag_71:\n        /* \"#utility.yul\":1256:1263   */\n      0x00\n        /* \"#utility.yul\":1285:1290   */\n      dup2\n        /* \"#utility.yul\":1274:1290   */\n      swap1\n      pop\n        /* \"#utility.yul\":1219:1296   */\n      swap2\n      swap1\n      pop\n      jump\t// out\n        /* \"#utility.yul\":1302:1420   */\n    tag_72:\n        /* \"#utility.yul\":1389:1413   */\n      tag_94\n        /* \"#utility.yul\":1407:1412   */\n      dup2\n        /* \"#utility.yul\":1389:1413   */\n      tag_71\n      jump\t// in\n    tag_94:\n        /* \"#utility.yul\":1384:1387   */\n      dup3\n        /* \"#utility.yul\":1377:1414   */\n      mstore\n        /* \"#utility.yul\":1302:1420   */\n      pop\n      pop\n      jump\t// out\n        /* \"#utility.yul\":1426:1868   */\n    tag_25:\n        /* \"#utility.yul\":1575:1579   */\n      0x00\n        /* \"#utility.yul\":1613:1615   */\n      0x60\n        /* \"#utility.yul\":1602:1611   */\n      dup3\n        /* \"#utility.yul\":1598:1616   */\n      add\n        /* \"#utility.yul\":1590:1616   */\n      swap1\n      pop\n        /* \"#utility.yul\":1626:1697   */\n      tag_96\n        /* \"#utility.yul\":1694:1695   */\n      0x00\n        /* \"#utility.yul\":1683:1692   */\n      dup4\n        /* \"#utility.yul\":1679:1696   */\n      add\n        /* \"#utility.yul\":1670:1676   */\n      dup7\n        /* \"#utility.yul\":1626:1697   */\n      tag_72\n      jump\t// in\n    tag_96:\n        /* \"#utility.yul\":1707:1779   */\n      tag_97\n        /* \"#utility.yul\":1775:1777   */\n      0x20\n        /* \"#utility.yul\":1764:1773   */\n      dup4\n        /* \"#utility.yul\":1760:1778   */\n      add\n        /* \"#utility.yul\":1751:1757   */\n      dup6\n        /* \"#utility.yul\":1707:1779   */\n      tag_72\n      jump\t// in\n    tag_97:\n        /* \"#utility.yul\":1789:1861   */\n      tag_98\n        /* \"#utility.yul\":1857:1859   */\n      0x40\n        /* \"#utility.yul\":1846:1855   */\n      dup4\n        /* \"#utility.yul\":1842:1860   */\n      add\n        /* \"#utility.yul\":1833:1839   */\n      dup5\n        /* \"#utility.yul\":1789:1861   */\n      tag_72\n      jump\t// in\n    tag_98:\n        /* \"#utility.yul\":1426:1868   */\n      swap5\n      swap4\n      pop\n      pop\n      pop\n      pop\n      jump\t// out\n        /* \"#utility.yul\":1874:2206   */\n    tag_34:\n        /* \"#utility.yul\":1995:1999   */\n      0x00\n        /* \"#utility.yul\":2033:2035   */\n      0x40\n        /* \"#utility.yul\":2022:2031   */\n      dup3\n        /* \"#utility.yul\":2018:2036   */\n      add\n        /* \"#utility.yul\":2010:2036   */\n      swap1\n      pop\n        /* \"#utility.yul\":2046:2117   */\n      tag_100\n        /* \"#utility.yul\":2114:2115   */\n      0x00\n        /* \"#utility.yul\":2103:2112   */\n      dup4\n        /* \"#utility.yul\":2099:2116   */\n      add\n        /* \"#utility.yul\":2090:2096   */\n      dup6\n        /* \"#utility.yul\":2046:2117   */\n      tag_72\n      jump\t// in\n    tag_100:\n        /* \"#utility.yul\":2127:2199   */\n      tag_101\n        /* \"#utility.yul\":2195:2197   */\n      0x20\n        /* \"#utility.yul\":2184:2193   */\n      dup4\n        /* \"#utility.yul\":2180:2198   */\n      add\n        /* \"#utility.yul\":2171:2177   */\n      dup5\n        /* \"#utility.yul\":2127:2199   */\n      tag_72\n      jump\t// in\n    tag_101:\n        /* \"#utility.yul\":1874:2206   */\n      swap4\n      swap3\n      pop\n      pop\n      pop\n      jump\t// out\n        /* \"#utility.yul\":2212:2302   */\n    tag_73:\n        /* \"#utility.yul\":2246:2253   */\n      0x00\n        /* \"#utility.yul\":2289:2294   */\n      dup2\n        /* \"#utility.yul\":2282:2295   */\n      iszero\n        /* \"#utility.yul\":2275:2296   */\n      iszero\n        /* \"#utility.yul\":2264:2296   */\n      swap1\n      pop\n        /* \"#utility.yul\":2212:2302   */\n      swap2\n      swap1\n      pop\n      jump\t// out\n        /* \"#utility.yul\":2308:2417   */\n    tag_74:\n        /* \"#utility.yul\":2389:2410   */\n      tag_104\n        /* \"#utility.yul\":2404:2409   */\n      dup2\n        /* \"#utility.yul\":2389:2410   */\n      tag_73\n      jump\t// in\n    tag_104:\n        /* \"#utility.yul\":2384:2387   */\n      dup3\n        /* \"#utility.yul\":2377:2411   */\n      mstore\n        /* \"#utility.yul\":2308:2417   */\n      pop\n      pop\n      jump\t// out\n        /* \"#utility.yul\":2423:2633   */\n    tag_38:\n        /* \"#utility.yul\":2510:2514   */\n      0x00\n        /* \"#utility.yul\":2548:2550   */\n      0x20\n        /* \"#utility.yul\":2537:2546   */\n      dup3\n        /* \"#utility.yul\":2533:2551   */\n      add\n        /* \"#utility.yul\":2525:2551   */\n      swap1\n      pop\n        /* \"#utility.yul\":2561:2626   */\n      tag_106\n        /* \"#utility.yul\":2623:2624   */\n      0x00\n        /* \"#utility.yul\":2612:2621   */\n      dup4\n        /* \"#utility.yul\":2608:2625   */\n      add\n        /* \"#utility.yul\":2599:2605   */\n      dup5\n        /* \"#utility.yul\":2561:2626   */\n      tag_74\n      jump\t// in\n    tag_106:\n        /* \"#utility.yul\":2423:2633   */\n      swap3\n      swap2\n      pop\n      pop\n      jump\t// out\n        /* \"#utility.yul\":2639:2788   */\n    tag_75:\n        /* \"#utility.yul\":2675:2682   */\n      0x00\n        /* \"#utility.yul\":2715:2781   */\n      0xff00000000000000000000000000000000000000000000000000000000000000\n        /* \"#utility.yul\":2708:2713   */\n      dup3\n        /* \"#utility.yul\":2704:2782   */\n      and\n        /* \"#utility.yul\":2693:2782   */\n      swap1\n      pop\n        /* \"#utility.yul\":2639:2788   */\n      swap2\n      swap1\n      pop\n      jump\t// out\n        /* \"#utility.yul\":2794:2909   */\n    tag_76:\n        /* \"#utility.yul\":2879:2902   */\n      tag_109\n        /* \"#utility.yul\":2896:2901   */\n      dup2\n        /* \"#utility.yul\":2879:2902   */\n      tag_75\n      jump\t// in\n    tag_109:\n        /* \"#utility.yul\":2874:2877   */\n      dup3\n        /* \"#utility.yul\":2867:2903   */\n      mstore\n        /* \"#utility.yul\":2794:2909   */\n      pop\n      pop\n      jump\t// out\n        /* \"#utility.yul\":2915:3345   */\n    tag_42:\n        /* \"#utility.yul\":3058:3062   */\n      0x00\n        /* \"#utility.yul\":3096:3098   */\n      0x60\n        /* \"#utility.yul\":3085:3094   */\n      dup3\n        /* \"#utility.yul\":3081:3099   */\n      add\n        /* \"#utility.yul\":3073:3099   */\n      swap1\n      pop\n        /* \"#utility.yul\":3109:3178   */\n      tag_111\n        /* \"#utility.yul\":3175:3176   */\n      0x00\n        /* \"#utility.yul\":3164:3173   */\n      dup4\n        /* \"#utility.yul\":3160:3177   */\n      add\n        /* \"#utility.yul\":3151:3157   */\n      dup7\n        /* \"#utility.yul\":3109:3178   */\n      tag_76\n      jump\t// in\n    tag_111:\n        /* \"#utility.yul\":3188:3258   */\n      tag_112\n        /* \"#utility.yul\":3254:3256   */\n      0x20\n        /* \"#utility.yul\":3243:3252   */\n      dup4\n        /* \"#utility.yul\":3239:3257   */\n      add\n        /* \"#utility.yul\":3230:3236   */\n      dup6\n        /* \"#utility.yul\":3188:3258   */\n      tag_76\n      jump\t// in\n    tag_112:\n        /* \"#utility.yul\":3268:3338   */\n      tag_113\n        /* \"#utility.yul\":3334:3336   */\n      0x40\n        /* \"#utility.yul\":3323:3332   */\n      dup4\n        /* \"#utility.yul\":3319:3337   */\n      add\n        /* \"#utility.yul\":3310:3316   */\n      dup5\n        /* \"#utility.yul\":3268:3338   */\n      tag_76\n      jump\t// in\n    tag_113:\n        /* \"#utility.yul\":2915:3345   */\n      swap5\n      swap4\n      pop\n      pop\n      pop\n      pop\n      jump\t// out\n        /* \"#utility.yul\":3351:3569   */\n    tag_46:\n        /* \"#utility.yul\":3442:3446   */\n      0x00\n        /* \"#utility.yul\":3480:3482   */\n      0x20\n        /* \"#utility.yul\":3469:3478   */\n      dup3\n        /* \"#utility.yul\":3465:3483   */\n      add\n        /* \"#utility.yul\":3457:3483   */\n      swap1\n      pop\n        /* \"#utility.yul\":3493:3562   */\n      tag_115\n        /* \"#utility.yul\":3559:3560   */\n      0x00\n        /* \"#utility.yul\":3548:3557   */\n      dup4\n        /* \"#utility.yul\":3544:3561   */\n      add\n        /* \"#utility.yul\":3535:3541   */\n      dup5\n        /* \"#utility.yul\":3493:3562   */\n      tag_70\n      jump\t// in\n    tag_115:\n        /* \"#utility.yul\":3351:3569   */\n      swap3\n      swap2\n      pop\n      pop\n      jump\t// out\n        /* \"#utility.yul\":3575:3653   */\n    tag_77:\n        /* \"#utility.yul\":3613:3620   */\n      0x00\n        /* \"#utility.yul\":3642:3647   */\n      dup2\n        /* \"#utility.yul\":3631:3647   */\n      swap1\n      pop\n        /* \"#utility.yul\":3575:3653   */\n      swap2\n      swap1\n      pop\n      jump\t// out\n        /* \"#utility.yul\":3659:3812   */\n    tag_78:\n        /* \"#utility.yul\":3762:3805   */\n      tag_118\n        /* \"#utility.yul\":3781:3804   */\n      tag_119\n        /* \"#utility.yul\":3798:3803   */\n      dup3\n        /* \"#utility.yul\":3781:3804   */\n      tag_67\n      jump\t// in\n    tag_119:\n        /* \"#utility.yul\":3762:3805   */\n      tag_77\n      jump\t// in\n    tag_118:\n        /* \"#utility.yul\":3757:3760   */\n      dup3\n        /* \"#utility.yul\":3750:3806   */\n      mstore\n        /* \"#utility.yul\":3659:3812   */\n      pop\n      pop\n      jump\t// out\n        /* \"#utility.yul\":3818:4069   */\n    tag_56:\n        /* \"#utility.yul\":3928:3931   */\n      0x00\n        /* \"#utility.yul\":3943:4016   */\n      tag_121\n        /* \"#utility.yul\":4012:4015   */\n      dup3\n        /* \"#utility.yul\":4003:4009   */\n      dup5\n        /* \"#utility.yul\":3943:4016   */\n      tag_78\n      jump\t// in\n    tag_121:\n        /* \"#utility.yul\":4041:4042   */\n      0x02\n        /* \"#utility.yul\":4036:4039   */\n      dup3\n        /* \"#utility.yul\":4032:4043   */\n      add\n        /* \"#utility.yul\":4025:4043   */\n      swap2\n      pop\n        /* \"#utility.yul\":4060:4063   */\n      dup2\n        /* \"#utility.yul\":4053:4063   */\n      swap1\n      pop\n        /* \"#utility.yul\":3818:4069   */\n      swap3\n      swap2\n      pop\n      pop\n      jump\t// out\n        /* \"#utility.yul\":4075:4255   */\n    tag_61:\n        /* \"#utility.yul\":4123:4200   */\n      0x4e487b7100000000000000000000000000000000000000000000000000000000\n        /* \"#utility.yul\":4120:4121   */\n      0x00\n        /* \"#utility.yul\":4113:4201   */\n      mstore\n        /* \"#utility.yul\":4220:4224   */\n      0x32\n        /* \"#utility.yul\":4217:4218   */\n      0x04\n        /* \"#utility.yul\":4210:4225   */\n      mstore\n        /* \"#utility.yul\":4244:4248   */\n      0x24\n        /* \"#utility.yul\":4241:4242   */\n      0x00\n        /* \"#utility.yul\":4234:4249   */\n      revert\n\n    auxdata: 0xa2646970667358221220e3549a051a5f4d587d721a904108cdc7dce23cd019722d7a26778b377ea80ca564736f6c634300081e0033\n}\n",
				"bytecode": {
					"linkReferences": {},
					"object": "6080604052348015600e575f5ffd5b506106f38061001c5f395ff3fe608060405234801561000f575f5ffd5b506004361061009c575f3560e01c8063500262871161006457806350026287146101265780636c56b378146101455780639e633b4f14610163578063ee49500214610183578063f30bd7a7146101a15761009c565b80630add6ef2146100a05780631a5a374f146100be5780632e061bd3146100de5780633f3108f7146100fe578063495aca3e14610108575b5f5ffd5b6100a86101bf565b6040516100b5919061049f565b60405180910390f35b6100c66101d1565b6040516100d5939291906104f2565b60405180910390f35b6100e661020b565b6040516100f59392919061053f565b60405180910390f35b61010661025b565b005b61011061030e565b60405161011d919061049f565b60405180910390f35b61012e610320565b60405161013c929190610574565b60405180910390f35b61014d610340565b60405161015a91906105b5565b60405180910390f35b61016b6103b1565b60405161017a93929190610608565b60405180910390f35b61018b61042d565b604051610198919061063d565b60405180910390f35b6101a961043e565b6040516101b6919061049f565b60405180910390f35b5f60039054906101000a900460f01b81565b5f5f5f5f5f9054906101000a900460e81b5f60039054906101000a900460f01b5f60059054906101000a900460f01b925092509250909192565b5f5f5f5f5f9054906101000a900460e81b60e81c62ffffff165f60039054906101000a900460f01b60f01c61ffff165f60059054906101000a900460f01b60f01c61ffff16925092509250909192565b7f61626300000000000000000000000000000000000000000000000000000000005f5f6101000a81548162ffffff021916908360e81c02179055507f6b700000000000000000000000000000000000000000000000000000000000005f60036101000a81548161ffff021916908360f01c02179055507f61000000000000000000000000000000000000000000000000000000000000005f60056101000a81548161ffff021916908360f01c0217905550565b5f60059054906101000a900460f01b81565b5f5f61ffff62ffffff8161ffff1691508062ffffff169050915091509091565b5f5f60059054906101000a900460f01b6040516020016103609190610676565b604051602081830303815290604052805190602001205f60039054906101000a900460f01b6040516020016103959190610676565b6040516020818303038152906040528051906020012014905090565b5f5f5f5f5f9054906101000a900460e81b5f600381106103d4576103d3610690565b5b1a60f81b5f60039054906101000a900460f01b5f600281106103f9576103f8610690565b5b1a60f81b5f60059054906101000a900460f01b5f6002811061041e5761041d610690565b5b1a60f81b925092509250909192565b5f5f9054906101000a900460e81b81565b5f7f7800000000000000000000000000000000000000000000000000000000000000905090565b5f7fffff00000000000000000000000000000000000000000000000000000000000082169050919050565b61049981610465565b82525050565b5f6020820190506104b25f830184610490565b92915050565b5f7fffffff000000000000000000000000000000000000000000000000000000000082169050919050565b6104ec816104b8565b82525050565b5f6060820190506105055f8301866104e3565b6105126020830185610490565b61051f6040830184610490565b949350505050565b5f819050919050565b61053981610527565b82525050565b5f6060820190506105525f830186610530565b61055f6020830185610530565b61056c6040830184610530565b949350505050565b5f6040820190506105875f830185610530565b6105946020830184610530565b9392505050565b5f8115159050919050565b6105af8161059b565b82525050565b5f6020820190506105c85f8301846105a6565b92915050565b5f7fff0000000000000000000000000000000000000000000000000000000000000082169050919050565b610602816105ce565b82525050565b5f60608201905061061b5f8301866105f9565b61062860208301856105f9565b61063560408301846105f9565b949350505050565b5f6020820190506106505f8301846104e3565b92915050565b5f819050919050565b61067061066b82610465565b610656565b82525050565b5f610681828461065f565b60028201915081905092915050565b7f4e487b71000000000000000000000000000000000000000000000000000000005f52603260045260245ffdfea2646970667358221220e3549a051a5f4d587d721a904108cdc7dce23cd019722d7a26778b377ea80ca564736f6c634300081e0033",
					"opcodes": "PUSH1 0x80 PUSH1 0x40 MSTORE CALLVALUE DUP1 ISZERO PUSH1 0xE JUMPI PUSH0 PUSH0 REVERT JUMPDEST POP PUSH2 0x6F3 DUP1 PUSH2 0x1C PUSH0 CODECOPY PUSH0 RETURN INVALID PUSH1 0x80 PUSH1 0x40 MSTORE CALLVALUE DUP1 ISZERO PUSH2 0xF JUMPI PUSH0 PUSH0 REVERT JUMPDEST POP PUSH1 0x4 CALLDATASIZE LT PUSH2 0x9C JUMPI PUSH0 CALLDATALOAD PUSH1 0xE0 SHR DUP1 PUSH4 0x50026287 GT PUSH2 0x64 JUMPI DUP1 PUSH4 0x50026287 EQ PUSH2 0x126 JUMPI DUP1 PUSH4 0x6C56B378 EQ PUSH2 0x145 JUMPI DUP1 PUSH4 0x9E633B4F EQ PUSH2 0x163 JUMPI DUP1 PUSH4 0xEE495002 EQ PUSH2 0x183 JUMPI DUP1 PUSH4 0xF30BD7A7 EQ PUSH2 0x1A1 JUMPI PUSH2 0x9C JUMP JUMPDEST DUP1 PUSH4 0xADD6EF2 EQ PUSH2 0xA0 JUMPI DUP1 PUSH4 0x1A5A374F EQ PUSH2 0xBE JUMPI DUP1 PUSH4 0x2E061BD3 EQ PUSH2 0xDE JUMPI DUP1 PUSH4 0x3F3108F7 EQ PUSH2 0xFE JUMPI DUP1 PUSH4 0x495ACA3E EQ PUSH2 0x108 JUMPI JUMPDEST PUSH0 PUSH0 REVERT JUMPDEST PUSH2 0xA8 PUSH2 0x1BF JUMP JUMPDEST PUSH1 0x40 MLOAD PUSH2 0xB5 SWAP2 SWAP1 PUSH2 0x49F JUMP JUMPDEST PUSH1 0x40 MLOAD DUP1 SWAP2 SUB SWAP1 RETURN JUMPDEST PUSH2 0xC6 PUSH2 0x1D1 JUMP JUMPDEST PUSH1 0x40 MLOAD PUSH2 0xD5 SWAP4 SWAP3 SWAP2 SWAP1 PUSH2 0x4F2 JUMP JUMPDEST PUSH1 0x40 MLOAD DUP1 SWAP2 SUB SWAP1 RETURN JUMPDEST PUSH2 0xE6 PUSH2 0x20B JUMP JUMPDEST PUSH1 0x40 MLOAD PUSH2 0xF5 SWAP4 SWAP3 SWAP2 SWAP1 PUSH2 0x53F JUMP JUMPDEST PUSH1 0x40 MLOAD DUP1 SWAP2 SUB SWAP1 RETURN JUMPDEST PUSH2 0x106 PUSH2 0x25B JUMP JUMPDEST STOP JUMPDEST PUSH2 0x110 PUSH2 0x30E JUMP JUMPDEST PUSH1 0x40 MLOAD PUSH2 0x11D SWAP2 SWAP1 PUSH2 0x49F JUMP JUMPDEST PUSH1 0x40 MLOAD DUP1 SWAP2 SUB SWAP1 RETURN JUMPDEST PUSH2 0x12E PUSH2 0x320 JUMP JUMPDEST PUSH1 0x40 MLOAD PUSH2 0x13C SWAP3 SWAP2 SWAP1 PUSH2 0x574 JUMP JUMPDEST PUSH1 0x40 MLOAD DUP1 SWAP2 SUB SWAP1 RETURN JUMPDEST PUSH2 0x14D PUSH2 0x340 JUMP JUMPDEST PUSH1 0x40 MLOAD PUSH2 0x15A SWAP2 SWAP1 PUSH2 0x5B5 JUMP JUMPDEST PUSH1 0x40 MLOAD DUP1 SWAP2 SUB SWAP1 RETURN JUMPDEST PUSH2 0x16B PUSH2 0x3B1 JUMP JUMPDEST PUSH1 0x40 MLOAD PUSH2 0x17A SWAP4 SWAP3 SWAP2 SWAP1 PUSH2 0x608 JUMP JUMPDEST PUSH1 0x40 MLOAD DUP1 SWAP2 SUB SWAP1 RETURN JUMPDEST PUSH2 0x18B PUSH2 0x42D JUMP JUMPDEST PUSH1 0x40 MLOAD PUSH2 0x198 SWAP2 SWAP1 PUSH2 0x63D JUMP JUMPDEST PUSH1 0x40 MLOAD DUP1 SWAP2 SUB SWAP1 RETURN JUMPDEST PUSH2 0x1A9 PUSH2 0x43E JUMP JUMPDEST PUSH1 0x40 MLOAD PUSH2 0x1B6 SWAP2 SWAP1 PUSH2 0x49F JUMP JUMPDEST PUSH1 0x40 MLOAD DUP1 SWAP2 SUB SWAP1 RETURN JUMPDEST PUSH0 PUSH1 0x3 SWAP1 SLOAD SWAP1 PUSH2 0x100 EXP SWAP1 DIV PUSH1 0xF0 SHL DUP2 JUMP JUMPDEST PUSH0 PUSH0 PUSH0 PUSH0 PUSH0 SWAP1 SLOAD SWAP1 PUSH2 0x100 EXP SWAP1 DIV PUSH1 0xE8 SHL PUSH0 PUSH1 0x3 SWAP1 SLOAD SWAP1 PUSH2 0x100 EXP SWAP1 DIV PUSH1 0xF0 SHL PUSH0 PUSH1 0x5 SWAP1 SLOAD SWAP1 PUSH2 0x100 EXP SWAP1 DIV PUSH1 0xF0 SHL SWAP3 POP SWAP3 POP SWAP3 POP SWAP1 SWAP2 SWAP3 JUMP JUMPDEST PUSH0 PUSH0 PUSH0 PUSH0 PUSH0 SWAP1 SLOAD SWAP1 PUSH2 0x100 EXP SWAP1 DIV PUSH1 0xE8 SHL PUSH1 0xE8 SHR PUSH3 0xFFFFFF AND PUSH0 PUSH1 0x3 SWAP1 SLOAD SWAP1 PUSH2 0x100 EXP SWAP1 DIV PUSH1 0xF0 SHL PUSH1 0xF0 SHR PUSH2 0xFFFF AND PUSH0 PUSH1 0x5 SWAP1 SLOAD SWAP1 PUSH2 0x100 EXP SWAP1 DIV PUSH1 0xF0 SHL PUSH1 0xF0 SHR PUSH2 0xFFFF AND SWAP3 POP SWAP3 POP SWAP3 POP SWAP1 SWAP2 SWAP3 JUMP JUMPDEST PUSH32 0x6162630000000000000000000000000000000000000000000000000000000000 PUSH0 PUSH0 PUSH2 0x100 EXP DUP2 SLOAD DUP2 PUSH3 0xFFFFFF MUL NOT AND SWAP1 DUP4 PUSH1 0xE8 SHR MUL OR SWAP1 SSTORE POP PUSH32 0x6B70000000000000000000000000000000000000000000000000000000000000 PUSH0 PUSH1 0x3 PUSH2 0x100 EXP DUP2 SLOAD DUP2 PUSH2 0xFFFF MUL NOT AND SWAP1 DUP4 PUSH1 0xF0 SHR MUL OR SWAP1 SSTORE POP PUSH32 0x6100000000000000000000000000000000000000000000000000000000000000 PUSH0 PUSH1 0x5 PUSH2 0x100 EXP DUP2 SLOAD DUP2 PUSH2 0xFFFF MUL NOT AND SWAP1 DUP4 PUSH1 0xF0 SHR MUL OR SWAP1 SSTORE POP JUMP JUMPDEST PUSH0 PUSH1 0x5 SWAP1 SLOAD SWAP1 PUSH2 0x100 EXP SWAP1 DIV PUSH1 0xF0 SHL DUP2 JUMP JUMPDEST PUSH0 PUSH0 PUSH2 0xFFFF PUSH3 0xFFFFFF DUP2 PUSH2 0xFFFF AND SWAP2 POP DUP1 PUSH3 0xFFFFFF AND SWAP1 POP SWAP2 POP SWAP2 POP SWAP1 SWAP2 JUMP JUMPDEST PUSH0 PUSH0 PUSH1 0x5 SWAP1 SLOAD SWAP1 PUSH2 0x100 EXP SWAP1 DIV PUSH1 0xF0 SHL PUSH1 0x40 MLOAD PUSH1 0x20 ADD PUSH2 0x360 SWAP2 SWAP1 PUSH2 0x676 JUMP JUMPDEST PUSH1 0x40 MLOAD PUSH1 0x20 DUP2 DUP4 SUB SUB DUP2 MSTORE SWAP1 PUSH1 0x40 MSTORE DUP1 MLOAD SWAP1 PUSH1 0x20 ADD KECCAK256 PUSH0 PUSH1 0x3 SWAP1 SLOAD SWAP1 PUSH2 0x100 EXP SWAP1 DIV PUSH1 0xF0 SHL PUSH1 0x40 MLOAD PUSH1 0x20 ADD PUSH2 0x395 SWAP2 SWAP1 PUSH2 0x676 JUMP JUMPDEST PUSH1 0x40 MLOAD PUSH1 0x20 DUP2 DUP4 SUB SUB DUP2 MSTORE SWAP1 PUSH1 0x40 MSTORE DUP1 MLOAD SWAP1 PUSH1 0x20 ADD KECCAK256 EQ SWAP1 POP SWAP1 JUMP JUMPDEST PUSH0 PUSH0 PUSH0 PUSH0 PUSH0 SWAP1 SLOAD SWAP1 PUSH2 0x100 EXP SWAP1 DIV PUSH1 0xE8 SHL PUSH0 PUSH1 0x3 DUP2 LT PUSH2 0x3D4 JUMPI PUSH2 0x3D3 PUSH2 0x690 JUMP JUMPDEST JUMPDEST BYTE PUSH1 0xF8 SHL PUSH0 PUSH1 0x3 SWAP1 SLOAD SWAP1 PUSH2 0x100 EXP SWAP1 DIV PUSH1 0xF0 SHL PUSH0 PUSH1 0x2 DUP2 LT PUSH2 0x3F9 JUMPI PUSH2 0x3F8 PUSH2 0x690 JUMP JUMPDEST JUMPDEST BYTE PUSH1 0xF8 SHL PUSH0 PUSH1 0x5 SWAP1 SLOAD SWAP1 PUSH2 0x100 EXP SWAP1 DIV PUSH1 0xF0 SHL PUSH0 PUSH1 0x2 DUP2 LT PUSH2 0x41E JUMPI PUSH2 0x41D PUSH2 0x690 JUMP JUMPDEST JUMPDEST BYTE PUSH1 0xF8 SHL SWAP3 POP SWAP3 POP SWAP3 POP SWAP1 SWAP2 SWAP3 JUMP JUMPDEST PUSH0 PUSH0 SWAP1 SLOAD SWAP1 PUSH2 0x100 EXP SWAP1 DIV PUSH1 0xE8 SHL DUP2 JUMP JUMPDEST PUSH0 PUSH32 0x7800000000000000000000000000000000000000000000000000000000000000 SWAP1 POP SWAP1 JUMP JUMPDEST PUSH0 PUSH32 0xFFFF000000000000000000000000000000000000000000000000000000000000 DUP3 AND SWAP1 POP SWAP2 SWAP1 POP JUMP JUMPDEST PUSH2 0x499 DUP2 PUSH2 0x465 JUMP JUMPDEST DUP3 MSTORE POP POP JUMP JUMPDEST PUSH0 PUSH1 0x20 DUP3 ADD SWAP1 POP PUSH2 0x4B2 PUSH0 DUP4 ADD DUP5 PUSH2 0x490 JUMP JUMPDEST SWAP3 SWAP2 POP POP JUMP JUMPDEST PUSH0 PUSH32 0xFFFFFF0000000000000000000000000000000000000000000000000000000000 DUP3 AND SWAP1 POP SWAP2 SWAP1 POP JUMP JUMPDEST PUSH2 0x4EC DUP2 PUSH2 0x4B8 JUMP JUMPDEST DUP3 MSTORE POP POP JUMP JUMPDEST PUSH0 PUSH1 0x60 DUP3 ADD SWAP1 POP PUSH2 0x505 PUSH0 DUP4 ADD DUP7 PUSH2 0x4E3 JUMP JUMPDEST PUSH2 0x512 PUSH1 0x20 DUP4 ADD DUP6 PUSH2 0x490 JUMP JUMPDEST PUSH2 0x51F PUSH1 0x40 DUP4 ADD DUP5 PUSH2 0x490 JUMP JUMPDEST SWAP5 SWAP4 POP POP POP POP JUMP JUMPDEST PUSH0 DUP2 SWAP1 POP SWAP2 SWAP1 POP JUMP JUMPDEST PUSH2 0x539 DUP2 PUSH2 0x527 JUMP JUMPDEST DUP3 MSTORE POP POP JUMP JUMPDEST PUSH0 PUSH1 0x60 DUP3 ADD SWAP1 POP PUSH2 0x552 PUSH0 DUP4 ADD DUP7 PUSH2 0x530 JUMP JUMPDEST PUSH2 0x55F PUSH1 0x20 DUP4 ADD DUP6 PUSH2 0x530 JUMP JUMPDEST PUSH2 0x56C PUSH1 0x40 DUP4 ADD DUP5 PUSH2 0x530 JUMP JUMPDEST SWAP5 SWAP4 POP POP POP POP JUMP JUMPDEST PUSH0 PUSH1 0x40 DUP3 ADD SWAP1 POP PUSH2 0x587 PUSH0 DUP4 ADD DUP6 PUSH2 0x530 JUMP JUMPDEST PUSH2 0x594 PUSH1 0x20 DUP4 ADD DUP5 PUSH2 0x530 JUMP JUMPDEST SWAP4 SWAP3 POP POP POP JUMP JUMPDEST PUSH0 DUP2 ISZERO ISZERO SWAP1 POP SWAP2 SWAP1 POP JUMP JUMPDEST PUSH2 0x5AF DUP2 PUSH2 0x59B JUMP JUMPDEST DUP3 MSTORE POP POP JUMP JUMPDEST PUSH0 PUSH1 0x20 DUP3 ADD SWAP1 POP PUSH2 0x5C8 PUSH0 DUP4 ADD DUP5 PUSH2 0x5A6 JUMP JUMPDEST SWAP3 SWAP2 POP POP JUMP JUMPDEST PUSH0 PUSH32 0xFF00000000000000000000000000000000000000000000000000000000000000 DUP3 AND SWAP1 POP SWAP2 SWAP1 POP JUMP JUMPDEST PUSH2 0x602 DUP2 PUSH2 0x5CE JUMP JUMPDEST DUP3 MSTORE POP POP JUMP JUMPDEST PUSH0 PUSH1 0x60 DUP3 ADD SWAP1 POP PUSH2 0x61B PUSH0 DUP4 ADD DUP7 PUSH2 0x5F9 JUMP JUMPDEST PUSH2 0x628 PUSH1 0x20 DUP4 ADD DUP6 PUSH2 0x5F9 JUMP JUMPDEST PUSH2 0x635 PUSH1 0x40 DUP4 ADD DUP5 PUSH2 0x5F9 JUMP JUMPDEST SWAP5 SWAP4 POP POP POP POP JUMP JUMPDEST PUSH0 PUSH1 0x20 DUP3 ADD SWAP1 POP PUSH2 0x650 PUSH0 DUP4 ADD DUP5 PUSH2 0x4E3 JUMP JUMPDEST SWAP3 SWAP2 POP POP JUMP JUMPDEST PUSH0 DUP2 SWAP1 POP SWAP2 SWAP1 POP JUMP JUMPDEST PUSH2 0x670 PUSH2 0x66B DUP3 PUSH2 0x465 JUMP JUMPDEST PUSH2 0x656 JUMP JUMPDEST DUP3 MSTORE POP POP JUMP JUMPDEST PUSH0 PUSH2 0x681 DUP3 DUP5 PUSH2 0x65F JUMP JUMPDEST PUSH1 0x2 DUP3 ADD SWAP2 POP DUP2 SWAP1 POP SWAP3 SWAP2 POP POP JUMP JUMPDEST PUSH32 0x4E487B7100000000000000000000000000000000000000000000000000000000 PUSH0 MSTORE PUSH1 0x32 PUSH1 0x4 MSTORE PUSH1 0x24 PUSH0 REVERT INVALID LOG2 PUSH5 0x6970667358 0x22 SLT KECCAK256 CALLF 0x549A SDIV BYTE PUSH0 0x4D PC PUSH30 0x721A904108CDC7DCE23CD019722D7A26778B377EA80CA564736F6C634300 ADDMOD 0x1E STOP CALLER "
				},
				"gasEstimates": {
					"creation": {
						"codeDepositCost": "355800",
						"executionCost": "391",
						"totalCost": "356191"
					},
					"external": {
						"areEqual()": "infinite",
						"b1()": "2531",
						"b2()": "2517",
						"b22()": "2605",
						"getAsUint()": "infinite",
						"getFirstBytes()": "infinite",
						"getHexValues()": "infinite",
						"getMaxValues()": "infinite",
						"setter()": "73107",
						"showPadding()": "426"
					}
				},
				"methodIdentifiers": {
					"areEqual()": "6c56b378",
					"b1()": "ee495002",
					"b2()": "0add6ef2",
					"b22()": "495aca3e",
					"getAsUint()": "2e061bd3",
					"getFirstBytes()": "9e633b4f",
					"getHexValues()": "1a5a374f",
					"getMaxValues()": "50026287",
					"setter()": "3f3108f7",
					"showPadding()": "f30bd7a7"
				}
			},
			"storageLayout": {
				"storage": [
					{
						"astId": 4,
						"contract": "6-Array/ByteArrays.sol:bytearrays",
						"label": "b1",
						"offset": 0,
						"slot": "0",
						"type": "t_bytes3"
					},
					{
						"astId": 6,
						"contract": "6-Array/ByteArrays.sol:bytearrays",
						"label": "b2",
						"offset": 3,
						"slot": "0",
						"type": "t_bytes2"
					},
					{
						"astId": 8,
						"contract": "6-Array/ByteArrays.sol:bytearrays",
						"label": "b22",
						"offset": 5,
						"slot": "0",
						"type": "t_bytes2"
					}
				],
				"types": {
					"t_bytes2": {
						"encoding": "inplace",
						"label": "bytes2",
						"numberOfBytes": "2"
					},
					"t_bytes3": {
						"encoding": "inplace",
						"label": "bytes3",
						"numberOfBytes": "3"
					}
				}
			},
			"userdoc": {
				"kind": "user",
				"methods": {},
				"notice": "Byte arrays store raw binary data and are more gas-efficient than strings for small data",
				"version": 1
			}
		}
	}
}