{
	"5-Data Types/Bool.sol": {
		"booltype": {
			"abi": [
				{
					"inputs": [],
					"name": "areBothTrue",
					"outputs": [
						{
							"internalType": "bool",
							"name": "",
							"type": "bool"
						}
					],
					"stateMutability": "view",
					"type": "function"
				},
				{
					"inputs": [
						{
							"internalType": "uint256",
							"name": "a",
							"type": "uint256"
						}
					],
					"name": "check",
					"outputs": [
						{
							"internalType": "bool",
							"name": "",
							"type": "bool"
						}
					],
					"stateMutability": "nonpayable",
					"type": "function"
				},
				{
					"inputs": [],
					"name": "isEitherTrue",
					"outputs": [
						{
							"internalType": "bool",
							"name": "",
							"type": "bool"
						}
					],
					"stateMutability": "view",
					"type": "function"
				},
				{
					"inputs": [],
					"name": "toggleValue",
					"outputs": [],
					"stateMutability": "nonpayable",
					"type": "function"
				},
				{
					"inputs": [],
					"name": "val2",
					"outputs": [
						{
							"internalType": "bool",
							"name": "",
							"type": "bool"
						}
					],
					"stateMutability": "view",
					"type": "function"
				},
				{
					"inputs": [],
					"name": "value",
					"outputs": [
						{
							"internalType": "bool",
							"name": "",
							"type": "bool"
						}
					],
					"stateMutability": "view",
					"type": "function"
				}
			],
			"devdoc": {
				"details": "This contract shows how to work with boolean values in Solidity",
				"kind": "dev",
				"methods": {
					"areBothTrue()": {
						"details": "Function to check if both boolean values are true",
						"returns": {
							"_0": "Returns true only if both value and val2 are true"
						}
					},
					"check(uint256)": {
						"details": "Function to check if input value is greater than 100",
						"params": {
							"a": "The uint256 value to check against 100"
						},
						"returns": {
							"_0": "Returns true if a > 100, false otherwise"
						}
					},
					"isEitherTrue()": {
						"details": "Function to check if at least one boolean value is true",
						"returns": {
							"_0": "Returns true if either value or val2 is true"
						}
					},
					"toggleValue()": {
						"details": "Function to toggle the value between true and false"
					}
				},
				"title": "BoolType Contract",
				"version": 1
			},
			"evm": {
				"assembly": "    /* \"5-Data Types/Bool.sol\":360:2051  contract booltype {... */\n  mstore(0x40, 0x80)\n    /* \"5-Data Types/Bool.sol\":534:538  true */\n  0x01\n    /* \"5-Data Types/Bool.sol\":514:538  bool public value = true */\n  0x00\n  exp(0x0100, 0x00)\n  dup2\n  sload\n  dup2\n  0xff\n  mul\n  not\n  and\n  swap1\n  dup4\n  iszero\n  iszero\n  mul\n  or\n  swap1\n  sstore\n  pop\n    /* \"5-Data Types/Bool.sol\":622:627  false */\n  0x00\n    /* \"5-Data Types/Bool.sol\":603:627  bool public val2 = false */\n  0x00\n  exp(0x0100, 0x01)\n  dup2\n  sload\n  dup2\n  0xff\n  mul\n  not\n  and\n  swap1\n  dup4\n  iszero\n  iszero\n  mul\n  or\n  swap1\n  sstore\n  pop\n    /* \"5-Data Types/Bool.sol\":360:2051  contract booltype {... */\n  callvalue\n  dup1\n  iszero\n  tag_1\n  jumpi\n  revert(0x00, 0x00)\ntag_1:\n  pop\n  dataSize(sub_0)\n  dup1\n  dataOffset(sub_0)\n  0x00\n  codecopy\n  0x00\n  return\nstop\n\nsub_0: assembly {\n        /* \"5-Data Types/Bool.sol\":360:2051  contract booltype {... */\n      mstore(0x40, 0x80)\n      callvalue\n      dup1\n      iszero\n      tag_1\n      jumpi\n      revert(0x00, 0x00)\n    tag_1:\n      pop\n      jumpi(tag_2, lt(calldatasize, 0x04))\n      shr(0xe0, calldataload(0x00))\n      dup1\n      0x16bba373\n      eq\n      tag_3\n      jumpi\n      dup1\n      0x1f6f59be\n      eq\n      tag_4\n      jumpi\n      dup1\n      0x3fa4f245\n      eq\n      tag_5\n      jumpi\n      dup1\n      0x5f72f450\n      eq\n      tag_6\n      jumpi\n      dup1\n      0x80e1a6c6\n      eq\n      tag_7\n      jumpi\n      dup1\n      0x95cacbe0\n      eq\n      tag_8\n      jumpi\n    tag_2:\n      revert(0x00, 0x00)\n        /* \"5-Data Types/Bool.sol\":1924:2049  function isEitherTrue() public view returns (bool) {... */\n    tag_3:\n      tag_9\n      tag_10\n      jump\t// in\n    tag_9:\n      mload(0x40)\n      tag_11\n      swap2\n      swap1\n      tag_12\n      jump\t// in\n    tag_11:\n      mload(0x40)\n      dup1\n      swap2\n      sub\n      swap1\n      return\n        /* \"5-Data Types/Bool.sol\":1379:1500  function toggleValue() public {... */\n    tag_4:\n      tag_13\n      tag_14\n      jump\t// in\n    tag_13:\n      stop\n        /* \"5-Data Types/Bool.sol\":514:538  bool public value = true */\n    tag_5:\n      tag_15\n      tag_16\n      jump\t// in\n    tag_15:\n      mload(0x40)\n      tag_17\n      swap2\n      swap1\n      tag_12\n      jump\t// in\n    tag_17:\n      mload(0x40)\n      dup1\n      swap2\n      sub\n      swap1\n      return\n        /* \"5-Data Types/Bool.sol\":826:1239  function check(uint256 a) public returns (bool) {... */\n    tag_6:\n      tag_18\n      0x04\n      dup1\n      calldatasize\n      sub\n      dup2\n      add\n      swap1\n      tag_19\n      swap2\n      swap1\n      tag_20\n      jump\t// in\n    tag_19:\n      tag_21\n      jump\t// in\n    tag_18:\n      mload(0x40)\n      tag_22\n      swap2\n      swap1\n      tag_12\n      jump\t// in\n    tag_22:\n      mload(0x40)\n      dup1\n      swap2\n      sub\n      swap1\n      return\n        /* \"5-Data Types/Bool.sol\":1649:1774  function areBothTrue() public view returns (bool) {... */\n    tag_7:\n      tag_23\n      tag_24\n      jump\t// in\n    tag_23:\n      mload(0x40)\n      tag_25\n      swap2\n      swap1\n      tag_12\n      jump\t// in\n    tag_25:\n      mload(0x40)\n      dup1\n      swap2\n      sub\n      swap1\n      return\n        /* \"5-Data Types/Bool.sol\":603:627  bool public val2 = false */\n    tag_8:\n      tag_26\n      tag_27\n      jump\t// in\n    tag_26:\n      mload(0x40)\n      tag_28\n      swap2\n      swap1\n      tag_12\n      jump\t// in\n    tag_28:\n      mload(0x40)\n      dup1\n      swap2\n      sub\n      swap1\n      return\n        /* \"5-Data Types/Bool.sol\":1924:2049  function isEitherTrue() public view returns (bool) {... */\n    tag_10:\n        /* \"5-Data Types/Bool.sol\":1969:1973  bool */\n      0x00\n        /* \"5-Data Types/Bool.sol\":2029:2034  value */\n      0x00\n      0x00\n      swap1\n      sload\n      swap1\n      0x0100\n      exp\n      swap1\n      div\n      0xff\n      and\n        /* \"5-Data Types/Bool.sol\":2029:2042  value || val2 */\n      dup1\n      tag_30\n      jumpi\n      pop\n        /* \"5-Data Types/Bool.sol\":2038:2042  val2 */\n      0x00\n      0x01\n      swap1\n      sload\n      swap1\n      0x0100\n      exp\n      swap1\n      div\n      0xff\n      and\n        /* \"5-Data Types/Bool.sol\":2029:2042  value || val2 */\n    tag_30:\n        /* \"5-Data Types/Bool.sol\":2022:2042  return value || val2 */\n      swap1\n      pop\n        /* \"5-Data Types/Bool.sol\":1924:2049  function isEitherTrue() public view returns (bool) {... */\n      swap1\n      jump\t// out\n        /* \"5-Data Types/Bool.sol\":1379:1500  function toggleValue() public {... */\n    tag_14:\n        /* \"5-Data Types/Bool.sol\":1488:1493  value */\n      0x00\n      0x00\n      swap1\n      sload\n      swap1\n      0x0100\n      exp\n      swap1\n      div\n      0xff\n      and\n        /* \"5-Data Types/Bool.sol\":1487:1493  !value */\n      iszero\n        /* \"5-Data Types/Bool.sol\":1479:1484  value */\n      0x00\n      0x00\n        /* \"5-Data Types/Bool.sol\":1479:1493  value = !value */\n      0x0100\n      exp\n      dup2\n      sload\n      dup2\n      0xff\n      mul\n      not\n      and\n      swap1\n      dup4\n      iszero\n      iszero\n      mul\n      or\n      swap1\n      sstore\n      pop\n        /* \"5-Data Types/Bool.sol\":1379:1500  function toggleValue() public {... */\n      jump\t// out\n        /* \"5-Data Types/Bool.sol\":514:538  bool public value = true */\n    tag_16:\n      0x00\n      0x00\n      swap1\n      sload\n      swap1\n      0x0100\n      exp\n      swap1\n      div\n      0xff\n      and\n      dup2\n      jump\t// out\n        /* \"5-Data Types/Bool.sol\":826:1239  function check(uint256 a) public returns (bool) {... */\n    tag_21:\n        /* \"5-Data Types/Bool.sol\":868:872  bool */\n      0x00\n        /* \"5-Data Types/Bool.sol\":947:950  100 */\n      0x64\n        /* \"5-Data Types/Bool.sol\":943:944  a */\n      dup3\n        /* \"5-Data Types/Bool.sol\":943:950  a > 100 */\n      gt\n        /* \"5-Data Types/Bool.sol\":939:1153  if (a > 100) {... */\n      iszero\n      tag_33\n      jumpi\n        /* \"5-Data Types/Bool.sol\":1036:1040  true */\n      0x01\n        /* \"5-Data Types/Bool.sol\":1028:1033  value */\n      0x00\n      0x00\n        /* \"5-Data Types/Bool.sol\":1028:1040  value = true */\n      0x0100\n      exp\n      dup2\n      sload\n      dup2\n      0xff\n      mul\n      not\n      and\n      swap1\n      dup4\n      iszero\n      iszero\n      mul\n      or\n      swap1\n      sstore\n      pop\n        /* \"5-Data Types/Bool.sol\":939:1153  if (a > 100) {... */\n      jump(tag_34)\n    tag_33:\n        /* \"5-Data Types/Bool.sol\":1137:1142  false */\n      0x00\n        /* \"5-Data Types/Bool.sol\":1129:1134  value */\n      0x00\n      0x00\n        /* \"5-Data Types/Bool.sol\":1129:1142  value = false */\n      0x0100\n      exp\n      dup2\n      sload\n      dup2\n      0xff\n      mul\n      not\n      and\n      swap1\n      dup4\n      iszero\n      iszero\n      mul\n      or\n      swap1\n      sstore\n      pop\n        /* \"5-Data Types/Bool.sol\":939:1153  if (a > 100) {... */\n    tag_34:\n        /* \"5-Data Types/Bool.sol\":1227:1232  value */\n      0x00\n      0x00\n      swap1\n      sload\n      swap1\n      0x0100\n      exp\n      swap1\n      div\n      0xff\n      and\n        /* \"5-Data Types/Bool.sol\":1220:1232  return value */\n      swap1\n      pop\n        /* \"5-Data Types/Bool.sol\":826:1239  function check(uint256 a) public returns (bool) {... */\n      swap2\n      swap1\n      pop\n      jump\t// out\n        /* \"5-Data Types/Bool.sol\":1649:1774  function areBothTrue() public view returns (bool) {... */\n    tag_24:\n        /* \"5-Data Types/Bool.sol\":1693:1697  bool */\n      0x00\n        /* \"5-Data Types/Bool.sol\":1754:1759  value */\n      0x00\n      0x00\n      swap1\n      sload\n      swap1\n      0x0100\n      exp\n      swap1\n      div\n      0xff\n      and\n        /* \"5-Data Types/Bool.sol\":1754:1767  value && val2 */\n      dup1\n      iszero\n      tag_36\n      jumpi\n      pop\n        /* \"5-Data Types/Bool.sol\":1763:1767  val2 */\n      0x00\n      0x01\n      swap1\n      sload\n      swap1\n      0x0100\n      exp\n      swap1\n      div\n      0xff\n      and\n        /* \"5-Data Types/Bool.sol\":1754:1767  value && val2 */\n    tag_36:\n        /* \"5-Data Types/Bool.sol\":1747:1767  return value && val2 */\n      swap1\n      pop\n        /* \"5-Data Types/Bool.sol\":1649:1774  function areBothTrue() public view returns (bool) {... */\n      swap1\n      jump\t// out\n        /* \"5-Data Types/Bool.sol\":603:627  bool public val2 = false */\n    tag_27:\n      0x00\n      0x01\n      swap1\n      sload\n      swap1\n      0x0100\n      exp\n      swap1\n      div\n      0xff\n      and\n      dup2\n      jump\t// out\n        /* \"#utility.yul\":7:97   */\n    tag_37:\n        /* \"#utility.yul\":41:48   */\n      0x00\n        /* \"#utility.yul\":84:89   */\n      dup2\n        /* \"#utility.yul\":77:90   */\n      iszero\n        /* \"#utility.yul\":70:91   */\n      iszero\n        /* \"#utility.yul\":59:91   */\n      swap1\n      pop\n        /* \"#utility.yul\":7:97   */\n      swap2\n      swap1\n      pop\n      jump\t// out\n        /* \"#utility.yul\":103:212   */\n    tag_38:\n        /* \"#utility.yul\":184:205   */\n      tag_48\n        /* \"#utility.yul\":199:204   */\n      dup2\n        /* \"#utility.yul\":184:205   */\n      tag_37\n      jump\t// in\n    tag_48:\n        /* \"#utility.yul\":179:182   */\n      dup3\n        /* \"#utility.yul\":172:206   */\n      mstore\n        /* \"#utility.yul\":103:212   */\n      pop\n      pop\n      jump\t// out\n        /* \"#utility.yul\":218:428   */\n    tag_12:\n        /* \"#utility.yul\":305:309   */\n      0x00\n        /* \"#utility.yul\":343:345   */\n      0x20\n        /* \"#utility.yul\":332:341   */\n      dup3\n        /* \"#utility.yul\":328:346   */\n      add\n        /* \"#utility.yul\":320:346   */\n      swap1\n      pop\n        /* \"#utility.yul\":356:421   */\n      tag_50\n        /* \"#utility.yul\":418:419   */\n      0x00\n        /* \"#utility.yul\":407:416   */\n      dup4\n        /* \"#utility.yul\":403:420   */\n      add\n        /* \"#utility.yul\":394:400   */\n      dup5\n        /* \"#utility.yul\":356:421   */\n      tag_38\n      jump\t// in\n    tag_50:\n        /* \"#utility.yul\":218:428   */\n      swap3\n      swap2\n      pop\n      pop\n      jump\t// out\n        /* \"#utility.yul\":515:632   */\n    tag_40:\n        /* \"#utility.yul\":624:625   */\n      0x00\n        /* \"#utility.yul\":621:622   */\n      0x00\n        /* \"#utility.yul\":614:626   */\n      revert\n        /* \"#utility.yul\":761:838   */\n    tag_42:\n        /* \"#utility.yul\":798:805   */\n      0x00\n        /* \"#utility.yul\":827:832   */\n      dup2\n        /* \"#utility.yul\":816:832   */\n      swap1\n      pop\n        /* \"#utility.yul\":761:838   */\n      swap2\n      swap1\n      pop\n      jump\t// out\n        /* \"#utility.yul\":844:966   */\n    tag_43:\n        /* \"#utility.yul\":917:941   */\n      tag_56\n        /* \"#utility.yul\":935:940   */\n      dup2\n        /* \"#utility.yul\":917:941   */\n      tag_42\n      jump\t// in\n    tag_56:\n        /* \"#utility.yul\":910:915   */\n      dup2\n        /* \"#utility.yul\":907:942   */\n      eq\n        /* \"#utility.yul\":897:960   */\n      tag_57\n      jumpi\n        /* \"#utility.yul\":956:957   */\n      0x00\n        /* \"#utility.yul\":953:954   */\n      0x00\n        /* \"#utility.yul\":946:958   */\n      revert\n        /* \"#utility.yul\":897:960   */\n    tag_57:\n        /* \"#utility.yul\":844:966   */\n      pop\n      jump\t// out\n        /* \"#utility.yul\":972:1111   */\n    tag_44:\n        /* \"#utility.yul\":1018:1023   */\n      0x00\n        /* \"#utility.yul\":1056:1062   */\n      dup2\n        /* \"#utility.yul\":1043:1063   */\n      calldataload\n        /* \"#utility.yul\":1034:1063   */\n      swap1\n      pop\n        /* \"#utility.yul\":1072:1105   */\n      tag_59\n        /* \"#utility.yul\":1099:1104   */\n      dup2\n        /* \"#utility.yul\":1072:1105   */\n      tag_43\n      jump\t// in\n    tag_59:\n        /* \"#utility.yul\":972:1111   */\n      swap3\n      swap2\n      pop\n      pop\n      jump\t// out\n        /* \"#utility.yul\":1117:1446   */\n    tag_20:\n        /* \"#utility.yul\":1176:1182   */\n      0x00\n        /* \"#utility.yul\":1225:1227   */\n      0x20\n        /* \"#utility.yul\":1213:1222   */\n      dup3\n        /* \"#utility.yul\":1204:1211   */\n      dup5\n        /* \"#utility.yul\":1200:1223   */\n      sub\n        /* \"#utility.yul\":1196:1228   */\n      slt\n        /* \"#utility.yul\":1193:1312   */\n      iszero\n      tag_61\n      jumpi\n        /* \"#utility.yul\":1231:1310   */\n      tag_62\n      tag_40\n      jump\t// in\n    tag_62:\n        /* \"#utility.yul\":1193:1312   */\n    tag_61:\n        /* \"#utility.yul\":1351:1352   */\n      0x00\n        /* \"#utility.yul\":1376:1429   */\n      tag_63\n        /* \"#utility.yul\":1421:1428   */\n      dup5\n        /* \"#utility.yul\":1412:1418   */\n      dup3\n        /* \"#utility.yul\":1401:1410   */\n      dup6\n        /* \"#utility.yul\":1397:1419   */\n      add\n        /* \"#utility.yul\":1376:1429   */\n      tag_44\n      jump\t// in\n    tag_63:\n        /* \"#utility.yul\":1366:1429   */\n      swap2\n      pop\n        /* \"#utility.yul\":1322:1439   */\n      pop\n        /* \"#utility.yul\":1117:1446   */\n      swap3\n      swap2\n      pop\n      pop\n      jump\t// out\n\n    auxdata: 0xa264697066735822122019f85b275d2c2100e99675fc0fc9695cc1b3bb798d9e472e8d55a9acc89512d264736f6c634300081e0033\n}\n",
				"bytecode": {
					"linkReferences": {},
					"object": "608060405260015f5f6101000a81548160ff0219169083151502179055505f5f60016101000a81548160ff0219169083151502179055503480156040575f5ffd5b506102d78061004e5f395ff3fe608060405234801561000f575f5ffd5b5060043610610060575f3560e01c806316bba373146100645780631f6f59be146100825780633fa4f2451461008c5780635f72f450146100aa57806380e1a6c6146100da57806395cacbe0146100f8575b5f5ffd5b61006c610116565b6040516100799190610226565b60405180910390f35b61008a610140565b005b610094610168565b6040516100a19190610226565b60405180910390f35b6100c460048036038101906100bf9190610276565b610179565b6040516100d19190610226565b60405180910390f35b6100e26101cf565b6040516100ef9190610226565b60405180910390f35b6101006101fa565b60405161010d9190610226565b60405180910390f35b5f5f5f9054906101000a900460ff168061013b57505f60019054906101000a900460ff165b905090565b5f5f9054906101000a900460ff16155f5f6101000a81548160ff021916908315150217905550565b5f5f9054906101000a900460ff1681565b5f60648211156101a15760015f5f6101000a81548160ff0219169083151502179055506101ba565b5f5f5f6101000a81548160ff0219169083151502179055505b5f5f9054906101000a900460ff169050919050565b5f5f5f9054906101000a900460ff1680156101f557505f60019054906101000a900460ff165b905090565b5f60019054906101000a900460ff1681565b5f8115159050919050565b6102208161020c565b82525050565b5f6020820190506102395f830184610217565b92915050565b5f5ffd5b5f819050919050565b61025581610243565b811461025f575f5ffd5b50565b5f813590506102708161024c565b92915050565b5f6020828403121561028b5761028a61023f565b5b5f61029884828501610262565b9150509291505056fea264697066735822122019f85b275d2c2100e99675fc0fc9695cc1b3bb798d9e472e8d55a9acc89512d264736f6c634300081e0033",
					"opcodes": "PUSH1 0x80 PUSH1 0x40 MSTORE PUSH1 0x1 PUSH0 PUSH0 PUSH2 0x100 EXP DUP2 SLOAD DUP2 PUSH1 0xFF MUL NOT AND SWAP1 DUP4 ISZERO ISZERO MUL OR SWAP1 SSTORE POP PUSH0 PUSH0 PUSH1 0x1 PUSH2 0x100 EXP DUP2 SLOAD DUP2 PUSH1 0xFF MUL NOT AND SWAP1 DUP4 ISZERO ISZERO MUL OR SWAP1 SSTORE POP CALLVALUE DUP1 ISZERO PUSH1 0x40 JUMPI PUSH0 PUSH0 REVERT JUMPDEST POP PUSH2 0x2D7 DUP1 PUSH2 0x4E PUSH0 CODECOPY PUSH0 RETURN INVALID PUSH1 0x80 PUSH1 0x40 MSTORE CALLVALUE DUP1 ISZERO PUSH2 0xF JUMPI PUSH0 PUSH0 REVERT JUMPDEST POP PUSH1 0x4 CALLDATASIZE LT PUSH2 0x60 JUMPI PUSH0 CALLDATALOAD PUSH1 0xE0 SHR DUP1 PUSH4 0x16BBA373 EQ PUSH2 0x64 JUMPI DUP1 PUSH4 0x1F6F59BE EQ PUSH2 0x82 JUMPI DUP1 PUSH4 0x3FA4F245 EQ PUSH2 0x8C JUMPI DUP1 PUSH4 0x5F72F450 EQ PUSH2 0xAA JUMPI DUP1 PUSH4 0x80E1A6C6 EQ PUSH2 0xDA JUMPI DUP1 PUSH4 0x95CACBE0 EQ PUSH2 0xF8 JUMPI JUMPDEST PUSH0 PUSH0 REVERT JUMPDEST PUSH2 0x6C PUSH2 0x116 JUMP JUMPDEST PUSH1 0x40 MLOAD PUSH2 0x79 SWAP2 SWAP1 PUSH2 0x226 JUMP JUMPDEST PUSH1 0x40 MLOAD DUP1 SWAP2 SUB SWAP1 RETURN JUMPDEST PUSH2 0x8A PUSH2 0x140 JUMP JUMPDEST STOP JUMPDEST PUSH2 0x94 PUSH2 0x168 JUMP JUMPDEST PUSH1 0x40 MLOAD PUSH2 0xA1 SWAP2 SWAP1 PUSH2 0x226 JUMP JUMPDEST PUSH1 0x40 MLOAD DUP1 SWAP2 SUB SWAP1 RETURN JUMPDEST PUSH2 0xC4 PUSH1 0x4 DUP1 CALLDATASIZE SUB DUP2 ADD SWAP1 PUSH2 0xBF SWAP2 SWAP1 PUSH2 0x276 JUMP JUMPDEST PUSH2 0x179 JUMP JUMPDEST PUSH1 0x40 MLOAD PUSH2 0xD1 SWAP2 SWAP1 PUSH2 0x226 JUMP JUMPDEST PUSH1 0x40 MLOAD DUP1 SWAP2 SUB SWAP1 RETURN JUMPDEST PUSH2 0xE2 PUSH2 0x1CF JUMP JUMPDEST PUSH1 0x40 MLOAD PUSH2 0xEF SWAP2 SWAP1 PUSH2 0x226 JUMP JUMPDEST PUSH1 0x40 MLOAD DUP1 SWAP2 SUB SWAP1 RETURN JUMPDEST PUSH2 0x100 PUSH2 0x1FA JUMP JUMPDEST PUSH1 0x40 MLOAD PUSH2 0x10D SWAP2 SWAP1 PUSH2 0x226 JUMP JUMPDEST PUSH1 0x40 MLOAD DUP1 SWAP2 SUB SWAP1 RETURN JUMPDEST PUSH0 PUSH0 PUSH0 SWAP1 SLOAD SWAP1 PUSH2 0x100 EXP SWAP1 DIV PUSH1 0xFF AND DUP1 PUSH2 0x13B JUMPI POP PUSH0 PUSH1 0x1 SWAP1 SLOAD SWAP1 PUSH2 0x100 EXP SWAP1 DIV PUSH1 0xFF AND JUMPDEST SWAP1 POP SWAP1 JUMP JUMPDEST PUSH0 PUSH0 SWAP1 SLOAD SWAP1 PUSH2 0x100 EXP SWAP1 DIV PUSH1 0xFF AND ISZERO PUSH0 PUSH0 PUSH2 0x100 EXP DUP2 SLOAD DUP2 PUSH1 0xFF MUL NOT AND SWAP1 DUP4 ISZERO ISZERO MUL OR SWAP1 SSTORE POP JUMP JUMPDEST PUSH0 PUSH0 SWAP1 SLOAD SWAP1 PUSH2 0x100 EXP SWAP1 DIV PUSH1 0xFF AND DUP2 JUMP JUMPDEST PUSH0 PUSH1 0x64 DUP3 GT ISZERO PUSH2 0x1A1 JUMPI PUSH1 0x1 PUSH0 PUSH0 PUSH2 0x100 EXP DUP2 SLOAD DUP2 PUSH1 0xFF MUL NOT AND SWAP1 DUP4 ISZERO ISZERO MUL OR SWAP1 SSTORE POP PUSH2 0x1BA JUMP JUMPDEST PUSH0 PUSH0 PUSH0 PUSH2 0x100 EXP DUP2 SLOAD DUP2 PUSH1 0xFF MUL NOT AND SWAP1 DUP4 ISZERO ISZERO MUL OR SWAP1 SSTORE POP JUMPDEST PUSH0 PUSH0 SWAP1 SLOAD SWAP1 PUSH2 0x100 EXP SWAP1 DIV PUSH1 0xFF AND SWAP1 POP SWAP2 SWAP1 POP JUMP JUMPDEST PUSH0 PUSH0 PUSH0 SWAP1 SLOAD SWAP1 PUSH2 0x100 EXP SWAP1 DIV PUSH1 0xFF AND DUP1 ISZERO PUSH2 0x1F5 JUMPI POP PUSH0 PUSH1 0x1 SWAP1 SLOAD SWAP1 PUSH2 0x100 EXP SWAP1 DIV PUSH1 0xFF AND JUMPDEST SWAP1 POP SWAP1 JUMP JUMPDEST PUSH0 PUSH1 0x1 SWAP1 SLOAD SWAP1 PUSH2 0x100 EXP SWAP1 DIV PUSH1 0xFF AND DUP2 JUMP JUMPDEST PUSH0 DUP2 ISZERO ISZERO SWAP1 POP SWAP2 SWAP1 POP JUMP JUMPDEST PUSH2 0x220 DUP2 PUSH2 0x20C JUMP JUMPDEST DUP3 MSTORE POP POP JUMP JUMPDEST PUSH0 PUSH1 0x20 DUP3 ADD SWAP1 POP PUSH2 0x239 PUSH0 DUP4 ADD DUP5 PUSH2 0x217 JUMP JUMPDEST SWAP3 SWAP2 POP POP JUMP JUMPDEST PUSH0 PUSH0 REVERT JUMPDEST PUSH0 DUP2 SWAP1 POP SWAP2 SWAP1 POP JUMP JUMPDEST PUSH2 0x255 DUP2 PUSH2 0x243 JUMP JUMPDEST DUP2 EQ PUSH2 0x25F JUMPI PUSH0 PUSH0 REVERT JUMPDEST POP JUMP JUMPDEST PUSH0 DUP2 CALLDATALOAD SWAP1 POP PUSH2 0x270 DUP2 PUSH2 0x24C JUMP JUMPDEST SWAP3 SWAP2 POP POP JUMP JUMPDEST PUSH0 PUSH1 0x20 DUP3 DUP5 SUB SLT ISZERO PUSH2 0x28B JUMPI PUSH2 0x28A PUSH2 0x23F JUMP JUMPDEST JUMPDEST PUSH0 PUSH2 0x298 DUP5 DUP3 DUP6 ADD PUSH2 0x262 JUMP JUMPDEST SWAP2 POP POP SWAP3 SWAP2 POP POP JUMP INVALID LOG2 PUSH5 0x6970667358 0x22 SLT KECCAK256 NOT EXTCALL JUMPDEST 0x27 TSTORE 0x2C 0x21 STOP 0xE9 SWAP7 PUSH22 0xFC0FC9695CC1B3BB798D9E472E8D55A9ACC89512D264 PUSH20 0x6F6C634300081E00330000000000000000000000 "
				},
				"gasEstimates": {
					"creation": {
						"codeDepositCost": "145400",
						"executionCost": "48768",
						"totalCost": "194168"
					},
					"external": {
						"areBothTrue()": "4748",
						"check(uint256)": "27079",
						"isEitherTrue()": "4657",
						"toggleValue()": "26545",
						"val2()": "2604",
						"value()": "2487"
					}
				},
				"methodIdentifiers": {
					"areBothTrue()": "80e1a6c6",
					"check(uint256)": "5f72f450",
					"isEitherTrue()": "16bba373",
					"toggleValue()": "1f6f59be",
					"val2()": "95cacbe0",
					"value()": "3fa4f245"
				}
			},
			"storageLayout": {
				"storage": [
					{
						"astId": 5,
						"contract": "5-Data Types/Bool.sol:booltype",
						"label": "value",
						"offset": 0,
						"slot": "0",
						"type": "t_bool"
					},
					{
						"astId": 8,
						"contract": "5-Data Types/Bool.sol:booltype",
						"label": "val2",
						"offset": 1,
						"slot": "0",
						"type": "t_bool"
					}
				],
				"types": {
					"t_bool": {
						"encoding": "inplace",
						"label": "bool",
						"numberOfBytes": "1"
					}
				}
			},
			"userdoc": {
				"kind": "user",
				"methods": {
					"toggleValue()": {
						"notice": "This shows how to flip a boolean value"
					}
				},
				"notice": "Demonstrates boolean state variables and conditional logic",
				"version": 1
			}
		}
	}
}