{
	"5-Data Types/overflow.sol": {
		"overflow": {
			"abi": [
				{
					"inputs": [],
					"name": "decrement",
					"outputs": [],
					"stateMutability": "nonpayable",
					"type": "function"
				},
				{
					"inputs": [],
					"name": "getMoney",
					"outputs": [
						{
							"internalType": "uint8",
							"name": "",
							"type": "uint8"
						}
					],
					"stateMutability": "view",
					"type": "function"
				},
				{
					"inputs": [],
					"name": "money",
					"outputs": [
						{
							"internalType": "uint8",
							"name": "",
							"type": "uint8"
						}
					],
					"stateMutability": "view",
					"type": "function"
				},
				{
					"inputs": [],
					"name": "resetToMax",
					"outputs": [],
					"stateMutability": "nonpayable",
					"type": "function"
				},
				{
					"inputs": [],
					"name": "safeSetter",
					"outputs": [],
					"stateMutability": "nonpayable",
					"type": "function"
				},
				{
					"inputs": [],
					"name": "setter",
					"outputs": [],
					"stateMutability": "nonpayable",
					"type": "function"
				},
				{
					"inputs": [],
					"name": "uncheckedSetter",
					"outputs": [
						{
							"internalType": "uint8",
							"name": "",
							"type": "uint8"
						}
					],
					"stateMutability": "nonpayable",
					"type": "function"
				}
			],
			"devdoc": {
				"details": "Shows how Solidity 0.8.0+ handles integer overflow",
				"kind": "dev",
				"methods": {
					"decrement()": {
						"details": "Function to demonstrate underflow protection"
					},
					"getMoney()": {
						"details": "Function to get the current value",
						"returns": {
							"_0": "The current value of money"
						}
					},
					"resetToMax()": {
						"details": "Function to reset the value to maximum"
					},
					"safeSetter()": {
						"details": "Function that demonstrates safe increment with require check"
					},
					"setter()": {
						"details": "Function that attempts to increment money by 1IMPORTANT: In production code, you should handle this case gracefully       or use SafeMath library for more control over error messages"
					},
					"uncheckedSetter()": {
						"details": "Function that demonstrates using unchecked block to allow overflow",
						"returns": {
							"_0": "The new value after potential overflow"
						}
					}
				},
				"stateVariables": {
					"money": {
						"details": "Unsigned 8-bit integer initialized to maximum value (255)"
					}
				},
				"title": "Integer Overflow Demonstration",
				"version": 1
			},
			"evm": {
				"assembly": "    /* \"5-Data Types/overflow.sol\":463:3284  contract overflow {... */\n  mstore(0x40, 0x80)\n    /* \"5-Data Types/overflow.sol\":728:731  255 */\n  0xff\n    /* \"5-Data Types/overflow.sol\":707:731  uint8 public money = 255 */\n  0x00\n  exp(0x0100, 0x00)\n  dup2\n  sload\n  dup2\n  0xff\n  mul\n  not\n  and\n  swap1\n  dup4\n  0xff\n  and\n  mul\n  or\n  swap1\n  sstore\n  pop\n    /* \"5-Data Types/overflow.sol\":463:3284  contract overflow {... */\n  callvalue\n  dup1\n  iszero\n  tag_1\n  jumpi\n  revert(0x00, 0x00)\ntag_1:\n  pop\n  dataSize(sub_0)\n  dup1\n  dataOffset(sub_0)\n  0x00\n  codecopy\n  0x00\n  return\nstop\n\nsub_0: assembly {\n        /* \"5-Data Types/overflow.sol\":463:3284  contract overflow {... */\n      mstore(0x40, 0x80)\n      callvalue\n      dup1\n      iszero\n      tag_1\n      jumpi\n      revert(0x00, 0x00)\n    tag_1:\n      pop\n      jumpi(tag_2, lt(calldatasize, 0x04))\n      shr(0xe0, calldataload(0x00))\n      dup1\n      0x3f3108f7\n      gt\n      tag_10\n      jumpi\n      dup1\n      0x3f3108f7\n      eq\n      tag_6\n      jumpi\n      dup1\n      0x4ddd108a\n      eq\n      tag_7\n      jumpi\n      dup1\n      0x80945bfb\n      eq\n      tag_8\n      jumpi\n      dup1\n      0x98e1b410\n      eq\n      tag_9\n      jumpi\n      jump(tag_2)\n    tag_10:\n      dup1\n      0x01efc450\n      eq\n      tag_3\n      jumpi\n      dup1\n      0x2baeceb7\n      eq\n      tag_4\n      jumpi\n      dup1\n      0x3db598b0\n      eq\n      tag_5\n      jumpi\n    tag_2:\n      revert(0x00, 0x00)\n        /* \"5-Data Types/overflow.sol\":2385:2629  function uncheckedSetter() public returns (uint8) {... */\n    tag_3:\n      tag_11\n      tag_12\n      jump\t// in\n    tag_11:\n      mload(0x40)\n      tag_13\n      swap2\n      swap1\n      tag_14\n      jump\t// in\n    tag_13:\n      mload(0x40)\n      dup1\n      swap2\n      sub\n      swap1\n      return\n        /* \"5-Data Types/overflow.sol\":3033:3095  function decrement() public {... */\n    tag_4:\n      tag_15\n      tag_16\n      jump\t// in\n    tag_15:\n      stop\n        /* \"5-Data Types/overflow.sol\":2773:2830  function resetToMax() public {... */\n    tag_5:\n      tag_17\n      tag_18\n      jump\t// in\n    tag_17:\n      stop\n        /* \"5-Data Types/overflow.sol\":1242:1548  function setter() public {... */\n    tag_6:\n      tag_19\n      tag_20\n      jump\t// in\n    tag_19:\n      stop\n        /* \"5-Data Types/overflow.sol\":707:731  uint8 public money = 255 */\n    tag_7:\n      tag_21\n      tag_22\n      jump\t// in\n    tag_21:\n      mload(0x40)\n      tag_23\n      swap2\n      swap1\n      tag_14\n      jump\t// in\n    tag_23:\n      mload(0x40)\n      dup1\n      swap2\n      sub\n      swap1\n      return\n        /* \"5-Data Types/overflow.sol\":1844:1994  function safeSetter() public {... */\n    tag_8:\n      tag_24\n      tag_25\n      jump\t// in\n    tag_24:\n      stop\n        /* \"5-Data Types/overflow.sol\":3205:3282  function getMoney() public view returns (uint8) {... */\n    tag_9:\n      tag_26\n      tag_27\n      jump\t// in\n    tag_26:\n      mload(0x40)\n      tag_28\n      swap2\n      swap1\n      tag_14\n      jump\t// in\n    tag_28:\n      mload(0x40)\n      dup1\n      swap2\n      sub\n      swap1\n      return\n        /* \"5-Data Types/overflow.sol\":2385:2629  function uncheckedSetter() public returns (uint8) {... */\n    tag_12:\n        /* \"5-Data Types/overflow.sol\":2428:2433  uint8 */\n      0x00\n        /* \"5-Data Types/overflow.sol\":2589:2590  1 */\n      0x01\n        /* \"5-Data Types/overflow.sol\":2581:2586  money */\n      0x00\n      0x00\n      swap1\n      sload\n      swap1\n      0x0100\n      exp\n      swap1\n      div\n      0xff\n      and\n        /* \"5-Data Types/overflow.sol\":2581:2590  money + 1 */\n      add\n        /* \"5-Data Types/overflow.sol\":2573:2578  money */\n      0x00\n      0x00\n        /* \"5-Data Types/overflow.sol\":2573:2590  money = money + 1 */\n      0x0100\n      exp\n      dup2\n      sload\n      dup2\n      0xff\n      mul\n      not\n      and\n      swap1\n      dup4\n      0xff\n      and\n      mul\n      or\n      swap1\n      sstore\n      pop\n        /* \"5-Data Types/overflow.sol\":2617:2622  money */\n      0x00\n      0x00\n      swap1\n      sload\n      swap1\n      0x0100\n      exp\n      swap1\n      div\n      0xff\n      and\n        /* \"5-Data Types/overflow.sol\":2610:2622  return money */\n      swap1\n      pop\n        /* \"5-Data Types/overflow.sol\":2385:2629  function uncheckedSetter() public returns (uint8) {... */\n      swap1\n      jump\t// out\n        /* \"5-Data Types/overflow.sol\":3033:3095  function decrement() public {... */\n    tag_16:\n        /* \"5-Data Types/overflow.sol\":3087:3088  1 */\n      0x01\n        /* \"5-Data Types/overflow.sol\":3079:3084  money */\n      0x00\n      0x00\n      swap1\n      sload\n      swap1\n      0x0100\n      exp\n      swap1\n      div\n      0xff\n      and\n        /* \"5-Data Types/overflow.sol\":3079:3088  money - 1 */\n      tag_31\n      swap2\n      swap1\n      tag_32\n      jump\t// in\n    tag_31:\n        /* \"5-Data Types/overflow.sol\":3071:3076  money */\n      0x00\n      0x00\n        /* \"5-Data Types/overflow.sol\":3071:3088  money = money - 1 */\n      0x0100\n      exp\n      dup2\n      sload\n      dup2\n      0xff\n      mul\n      not\n      and\n      swap1\n      dup4\n      0xff\n      and\n      mul\n      or\n      swap1\n      sstore\n      pop\n        /* \"5-Data Types/overflow.sol\":3033:3095  function decrement() public {... */\n      jump\t// out\n        /* \"5-Data Types/overflow.sol\":2773:2830  function resetToMax() public {... */\n    tag_18:\n        /* \"5-Data Types/overflow.sol\":2820:2823  255 */\n      0xff\n        /* \"5-Data Types/overflow.sol\":2812:2817  money */\n      0x00\n      0x00\n        /* \"5-Data Types/overflow.sol\":2812:2823  money = 255 */\n      0x0100\n      exp\n      dup2\n      sload\n      dup2\n      0xff\n      mul\n      not\n      and\n      swap1\n      dup4\n      0xff\n      and\n      mul\n      or\n      swap1\n      sstore\n      pop\n        /* \"5-Data Types/overflow.sol\":2773:2830  function resetToMax() public {... */\n      jump\t// out\n        /* \"5-Data Types/overflow.sol\":1242:1548  function setter() public {... */\n    tag_20:\n        /* \"5-Data Types/overflow.sol\":1440:1441  1 */\n      0x01\n        /* \"5-Data Types/overflow.sol\":1432:1437  money */\n      0x00\n      0x00\n      swap1\n      sload\n      swap1\n      0x0100\n      exp\n      swap1\n      div\n      0xff\n      and\n        /* \"5-Data Types/overflow.sol\":1432:1441  money + 1 */\n      tag_35\n      swap2\n      swap1\n      tag_36\n      jump\t// in\n    tag_35:\n        /* \"5-Data Types/overflow.sol\":1424:1429  money */\n      0x00\n      0x00\n        /* \"5-Data Types/overflow.sol\":1424:1441  money = money + 1 */\n      0x0100\n      exp\n      dup2\n      sload\n      dup2\n      0xff\n      mul\n      not\n      and\n      swap1\n      dup4\n      0xff\n      and\n      mul\n      or\n      swap1\n      sstore\n      pop\n        /* \"5-Data Types/overflow.sol\":1242:1548  function setter() public {... */\n      jump\t// out\n        /* \"5-Data Types/overflow.sol\":707:731  uint8 public money = 255 */\n    tag_22:\n      0x00\n      0x00\n      swap1\n      sload\n      swap1\n      0x0100\n      exp\n      swap1\n      div\n      0xff\n      and\n      dup2\n      jump\t// out\n        /* \"5-Data Types/overflow.sol\":1844:1994  function safeSetter() public {... */\n    tag_25:\n        /* \"5-Data Types/overflow.sol\":1899:1902  255 */\n      0xff\n        /* \"5-Data Types/overflow.sol\":1891:1896  money */\n      0x00\n      0x00\n      swap1\n      sload\n      swap1\n      0x0100\n      exp\n      swap1\n      div\n      0xff\n      and\n        /* \"5-Data Types/overflow.sol\":1891:1902  money < 255 */\n      0xff\n      and\n      lt\n        /* \"5-Data Types/overflow.sol\":1883:1960  require(money < 255, \"Overflow: Cannot increment beyond maximum uint8 value\") */\n      tag_38\n      jumpi\n      mload(0x40)\n      0x08c379a000000000000000000000000000000000000000000000000000000000\n      dup2\n      mstore\n      0x04\n      add\n      tag_39\n      swap1\n      tag_40\n      jump\t// in\n    tag_39:\n      mload(0x40)\n      dup1\n      swap2\n      sub\n      swap1\n      revert\n    tag_38:\n        /* \"5-Data Types/overflow.sol\":1986:1987  1 */\n      0x01\n        /* \"5-Data Types/overflow.sol\":1978:1983  money */\n      0x00\n      0x00\n      swap1\n      sload\n      swap1\n      0x0100\n      exp\n      swap1\n      div\n      0xff\n      and\n        /* \"5-Data Types/overflow.sol\":1978:1987  money + 1 */\n      tag_41\n      swap2\n      swap1\n      tag_36\n      jump\t// in\n    tag_41:\n        /* \"5-Data Types/overflow.sol\":1970:1975  money */\n      0x00\n      0x00\n        /* \"5-Data Types/overflow.sol\":1970:1987  money = money + 1 */\n      0x0100\n      exp\n      dup2\n      sload\n      dup2\n      0xff\n      mul\n      not\n      and\n      swap1\n      dup4\n      0xff\n      and\n      mul\n      or\n      swap1\n      sstore\n      pop\n        /* \"5-Data Types/overflow.sol\":1844:1994  function safeSetter() public {... */\n      jump\t// out\n        /* \"5-Data Types/overflow.sol\":3205:3282  function getMoney() public view returns (uint8) {... */\n    tag_27:\n        /* \"5-Data Types/overflow.sol\":3246:3251  uint8 */\n      0x00\n        /* \"5-Data Types/overflow.sol\":3270:3275  money */\n      0x00\n      0x00\n      swap1\n      sload\n      swap1\n      0x0100\n      exp\n      swap1\n      div\n      0xff\n      and\n        /* \"5-Data Types/overflow.sol\":3263:3275  return money */\n      swap1\n      pop\n        /* \"5-Data Types/overflow.sol\":3205:3282  function getMoney() public view returns (uint8) {... */\n      swap1\n      jump\t// out\n        /* \"#utility.yul\":7:93   */\n    tag_43:\n        /* \"#utility.yul\":42:49   */\n      0x00\n        /* \"#utility.yul\":82:86   */\n      0xff\n        /* \"#utility.yul\":75:80   */\n      dup3\n        /* \"#utility.yul\":71:87   */\n      and\n        /* \"#utility.yul\":60:87   */\n      swap1\n      pop\n        /* \"#utility.yul\":7:93   */\n      swap2\n      swap1\n      pop\n      jump\t// out\n        /* \"#utility.yul\":99:211   */\n    tag_44:\n        /* \"#utility.yul\":182:204   */\n      tag_52\n        /* \"#utility.yul\":198:203   */\n      dup2\n        /* \"#utility.yul\":182:204   */\n      tag_43\n      jump\t// in\n    tag_52:\n        /* \"#utility.yul\":177:180   */\n      dup3\n        /* \"#utility.yul\":170:205   */\n      mstore\n        /* \"#utility.yul\":99:211   */\n      pop\n      pop\n      jump\t// out\n        /* \"#utility.yul\":217:431   */\n    tag_14:\n        /* \"#utility.yul\":306:310   */\n      0x00\n        /* \"#utility.yul\":344:346   */\n      0x20\n        /* \"#utility.yul\":333:342   */\n      dup3\n        /* \"#utility.yul\":329:347   */\n      add\n        /* \"#utility.yul\":321:347   */\n      swap1\n      pop\n        /* \"#utility.yul\":357:424   */\n      tag_54\n        /* \"#utility.yul\":421:422   */\n      0x00\n        /* \"#utility.yul\":410:419   */\n      dup4\n        /* \"#utility.yul\":406:423   */\n      add\n        /* \"#utility.yul\":397:403   */\n      dup5\n        /* \"#utility.yul\":357:424   */\n      tag_44\n      jump\t// in\n    tag_54:\n        /* \"#utility.yul\":217:431   */\n      swap3\n      swap2\n      pop\n      pop\n      jump\t// out\n        /* \"#utility.yul\":437:617   */\n    tag_45:\n        /* \"#utility.yul\":485:562   */\n      0x4e487b7100000000000000000000000000000000000000000000000000000000\n        /* \"#utility.yul\":482:483   */\n      0x00\n        /* \"#utility.yul\":475:563   */\n      mstore\n        /* \"#utility.yul\":582:586   */\n      0x11\n        /* \"#utility.yul\":579:580   */\n      0x04\n        /* \"#utility.yul\":572:587   */\n      mstore\n        /* \"#utility.yul\":606:610   */\n      0x24\n        /* \"#utility.yul\":603:604   */\n      0x00\n        /* \"#utility.yul\":596:611   */\n      revert\n        /* \"#utility.yul\":623:814   */\n    tag_32:\n        /* \"#utility.yul\":661:665   */\n      0x00\n        /* \"#utility.yul\":681:699   */\n      tag_57\n        /* \"#utility.yul\":697:698   */\n      dup3\n        /* \"#utility.yul\":681:699   */\n      tag_43\n      jump\t// in\n    tag_57:\n        /* \"#utility.yul\":676:699   */\n      swap2\n      pop\n        /* \"#utility.yul\":713:731   */\n      tag_58\n        /* \"#utility.yul\":729:730   */\n      dup4\n        /* \"#utility.yul\":713:731   */\n      tag_43\n      jump\t// in\n    tag_58:\n        /* \"#utility.yul\":708:731   */\n      swap3\n      pop\n        /* \"#utility.yul\":755:756   */\n      dup3\n        /* \"#utility.yul\":752:753   */\n      dup3\n        /* \"#utility.yul\":748:757   */\n      sub\n        /* \"#utility.yul\":740:757   */\n      swap1\n      pop\n        /* \"#utility.yul\":779:783   */\n      0xff\n        /* \"#utility.yul\":773:777   */\n      dup2\n        /* \"#utility.yul\":770:784   */\n      gt\n        /* \"#utility.yul\":767:807   */\n      iszero\n      tag_59\n      jumpi\n        /* \"#utility.yul\":787:805   */\n      tag_60\n      tag_45\n      jump\t// in\n    tag_60:\n        /* \"#utility.yul\":767:807   */\n    tag_59:\n        /* \"#utility.yul\":623:814   */\n      swap3\n      swap2\n      pop\n      pop\n      jump\t// out\n        /* \"#utility.yul\":820:1008   */\n    tag_36:\n        /* \"#utility.yul\":858:861   */\n      0x00\n        /* \"#utility.yul\":877:895   */\n      tag_62\n        /* \"#utility.yul\":893:894   */\n      dup3\n        /* \"#utility.yul\":877:895   */\n      tag_43\n      jump\t// in\n    tag_62:\n        /* \"#utility.yul\":872:895   */\n      swap2\n      pop\n        /* \"#utility.yul\":909:927   */\n      tag_63\n        /* \"#utility.yul\":925:926   */\n      dup4\n        /* \"#utility.yul\":909:927   */\n      tag_43\n      jump\t// in\n    tag_63:\n        /* \"#utility.yul\":904:927   */\n      swap3\n      pop\n        /* \"#utility.yul\":950:951   */\n      dup3\n        /* \"#utility.yul\":947:948   */\n      dup3\n        /* \"#utility.yul\":943:952   */\n      add\n        /* \"#utility.yul\":936:952   */\n      swap1\n      pop\n        /* \"#utility.yul\":973:977   */\n      0xff\n        /* \"#utility.yul\":968:971   */\n      dup2\n        /* \"#utility.yul\":965:978   */\n      gt\n        /* \"#utility.yul\":962:1001   */\n      iszero\n      tag_64\n      jumpi\n        /* \"#utility.yul\":981:999   */\n      tag_65\n      tag_45\n      jump\t// in\n    tag_65:\n        /* \"#utility.yul\":962:1001   */\n    tag_64:\n        /* \"#utility.yul\":820:1008   */\n      swap3\n      swap2\n      pop\n      pop\n      jump\t// out\n        /* \"#utility.yul\":1014:1183   */\n    tag_46:\n        /* \"#utility.yul\":1098:1109   */\n      0x00\n        /* \"#utility.yul\":1132:1138   */\n      dup3\n        /* \"#utility.yul\":1127:1130   */\n      dup3\n        /* \"#utility.yul\":1120:1139   */\n      mstore\n        /* \"#utility.yul\":1172:1176   */\n      0x20\n        /* \"#utility.yul\":1167:1170   */\n      dup3\n        /* \"#utility.yul\":1163:1177   */\n      add\n        /* \"#utility.yul\":1148:1177   */\n      swap1\n      pop\n        /* \"#utility.yul\":1014:1183   */\n      swap3\n      swap2\n      pop\n      pop\n      jump\t// out\n        /* \"#utility.yul\":1189:1429   */\n    tag_47:\n        /* \"#utility.yul\":1329:1363   */\n      0x4f766572666c6f773a2043616e6e6f7420696e6372656d656e74206265796f6e\n        /* \"#utility.yul\":1325:1326   */\n      0x00\n        /* \"#utility.yul\":1317:1323   */\n      dup3\n        /* \"#utility.yul\":1313:1327   */\n      add\n        /* \"#utility.yul\":1306:1364   */\n      mstore\n        /* \"#utility.yul\":1398:1421   */\n      0x64206d6178696d756d2075696e74382076616c75650000000000000000000000\n        /* \"#utility.yul\":1393:1395   */\n      0x20\n        /* \"#utility.yul\":1385:1391   */\n      dup3\n        /* \"#utility.yul\":1381:1396   */\n      add\n        /* \"#utility.yul\":1374:1422   */\n      mstore\n        /* \"#utility.yul\":1189:1429   */\n      pop\n      jump\t// out\n        /* \"#utility.yul\":1435:1801   */\n    tag_48:\n        /* \"#utility.yul\":1577:1580   */\n      0x00\n        /* \"#utility.yul\":1598:1665   */\n      tag_69\n        /* \"#utility.yul\":1662:1664   */\n      0x35\n        /* \"#utility.yul\":1657:1660   */\n      dup4\n        /* \"#utility.yul\":1598:1665   */\n      tag_46\n      jump\t// in\n    tag_69:\n        /* \"#utility.yul\":1591:1665   */\n      swap2\n      pop\n        /* \"#utility.yul\":1674:1767   */\n      tag_70\n        /* \"#utility.yul\":1763:1766   */\n      dup3\n        /* \"#utility.yul\":1674:1767   */\n      tag_47\n      jump\t// in\n    tag_70:\n        /* \"#utility.yul\":1792:1794   */\n      0x40\n        /* \"#utility.yul\":1787:1790   */\n      dup3\n        /* \"#utility.yul\":1783:1795   */\n      add\n        /* \"#utility.yul\":1776:1795   */\n      swap1\n      pop\n        /* \"#utility.yul\":1435:1801   */\n      swap2\n      swap1\n      pop\n      jump\t// out\n        /* \"#utility.yul\":1807:2226   */\n    tag_40:\n        /* \"#utility.yul\":1973:1977   */\n      0x00\n        /* \"#utility.yul\":2011:2013   */\n      0x20\n        /* \"#utility.yul\":2000:2009   */\n      dup3\n        /* \"#utility.yul\":1996:2014   */\n      add\n        /* \"#utility.yul\":1988:2014   */\n      swap1\n      pop\n        /* \"#utility.yul\":2060:2069   */\n      dup2\n        /* \"#utility.yul\":2054:2058   */\n      dup2\n        /* \"#utility.yul\":2050:2070   */\n      sub\n        /* \"#utility.yul\":2046:2047   */\n      0x00\n        /* \"#utility.yul\":2035:2044   */\n      dup4\n        /* \"#utility.yul\":2031:2048   */\n      add\n        /* \"#utility.yul\":2024:2071   */\n      mstore\n        /* \"#utility.yul\":2088:2219   */\n      tag_72\n        /* \"#utility.yul\":2214:2218   */\n      dup2\n        /* \"#utility.yul\":2088:2219   */\n      tag_48\n      jump\t// in\n    tag_72:\n        /* \"#utility.yul\":2080:2219   */\n      swap1\n      pop\n        /* \"#utility.yul\":1807:2226   */\n      swap2\n      swap1\n      pop\n      jump\t// out\n\n    auxdata: 0xa26469706673582212207ddbdd98a6d5b1596a655bbcbb8888de6a78dbbe199a0bc5a8b7f976edce21a264736f6c634300081e0033\n}\n",
				"bytecode": {
					"linkReferences": {},
					"object": "608060405260ff5f5f6101000a81548160ff021916908360ff1602179055503480156028575f5ffd5b5061040b806100365f395ff3fe608060405234801561000f575f5ffd5b506004361061007b575f3560e01c80633f3108f7116100595780633f3108f7146100b15780634ddd108a146100bb57806380945bfb146100d957806398e1b410146100e35761007b565b806301efc4501461007f5780632baeceb71461009d5780633db598b0146100a7575b5f5ffd5b610087610101565b6040516100949190610289565b60405180910390f35b6100a561013e565b005b6100af610172565b005b6100b961018e565b005b6100c36101c2565b6040516100d09190610289565b60405180910390f35b6100e16101d3565b005b6100eb61025a565b6040516100f89190610289565b60405180910390f35b5f60015f5f9054906101000a900460ff16015f5f6101000a81548160ff021916908360ff1602179055505f5f9054906101000a900460ff16905090565b60015f5f9054906101000a900460ff1661015891906102cf565b5f5f6101000a81548160ff021916908360ff160217905550565b60ff5f5f6101000a81548160ff021916908360ff160217905550565b60015f5f9054906101000a900460ff166101a89190610303565b5f5f6101000a81548160ff021916908360ff160217905550565b5f5f9054906101000a900460ff1681565b60ff5f5f9054906101000a900460ff1660ff1610610226576040517f08c379a000000000000000000000000000000000000000000000000000000000815260040161021d906103b7565b60405180910390fd5b60015f5f9054906101000a900460ff166102409190610303565b5f5f6101000a81548160ff021916908360ff160217905550565b5f5f5f9054906101000a900460ff16905090565b5f60ff82169050919050565b6102838161026e565b82525050565b5f60208201905061029c5f83018461027a565b92915050565b7f4e487b71000000000000000000000000000000000000000000000000000000005f52601160045260245ffd5b5f6102d98261026e565b91506102e48361026e565b9250828203905060ff8111156102fd576102fc6102a2565b5b92915050565b5f61030d8261026e565b91506103188361026e565b9250828201905060ff811115610331576103306102a2565b5b92915050565b5f82825260208201905092915050565b7f4f766572666c6f773a2043616e6e6f7420696e6372656d656e74206265796f6e5f8201527f64206d6178696d756d2075696e74382076616c75650000000000000000000000602082015250565b5f6103a1603583610337565b91506103ac82610347565b604082019050919050565b5f6020820190508181035f8301526103ce81610395565b905091905056fea26469706673582212207ddbdd98a6d5b1596a655bbcbb8888de6a78dbbe199a0bc5a8b7f976edce21a264736f6c634300081e0033",
					"opcodes": "PUSH1 0x80 PUSH1 0x40 MSTORE PUSH1 0xFF PUSH0 PUSH0 PUSH2 0x100 EXP DUP2 SLOAD DUP2 PUSH1 0xFF MUL NOT AND SWAP1 DUP4 PUSH1 0xFF AND MUL OR SWAP1 SSTORE POP CALLVALUE DUP1 ISZERO PUSH1 0x28 JUMPI PUSH0 PUSH0 REVERT JUMPDEST POP PUSH2 0x40B DUP1 PUSH2 0x36 PUSH0 CODECOPY PUSH0 RETURN INVALID PUSH1 0x80 PUSH1 0x40 MSTORE CALLVALUE DUP1 ISZERO PUSH2 0xF JUMPI PUSH0 PUSH0 REVERT JUMPDEST POP PUSH1 0x4 CALLDATASIZE LT PUSH2 0x7B JUMPI PUSH0 CALLDATALOAD PUSH1 0xE0 SHR DUP1 PUSH4 0x3F3108F7 GT PUSH2 0x59 JUMPI DUP1 PUSH4 0x3F3108F7 EQ PUSH2 0xB1 JUMPI DUP1 PUSH4 0x4DDD108A EQ PUSH2 0xBB JUMPI DUP1 PUSH4 0x80945BFB EQ PUSH2 0xD9 JUMPI DUP1 PUSH4 0x98E1B410 EQ PUSH2 0xE3 JUMPI PUSH2 0x7B JUMP JUMPDEST DUP1 PUSH4 0x1EFC450 EQ PUSH2 0x7F JUMPI DUP1 PUSH4 0x2BAECEB7 EQ PUSH2 0x9D JUMPI DUP1 PUSH4 0x3DB598B0 EQ PUSH2 0xA7 JUMPI JUMPDEST PUSH0 PUSH0 REVERT JUMPDEST PUSH2 0x87 PUSH2 0x101 JUMP JUMPDEST PUSH1 0x40 MLOAD PUSH2 0x94 SWAP2 SWAP1 PUSH2 0x289 JUMP JUMPDEST PUSH1 0x40 MLOAD DUP1 SWAP2 SUB SWAP1 RETURN JUMPDEST PUSH2 0xA5 PUSH2 0x13E JUMP JUMPDEST STOP JUMPDEST PUSH2 0xAF PUSH2 0x172 JUMP JUMPDEST STOP JUMPDEST PUSH2 0xB9 PUSH2 0x18E JUMP JUMPDEST STOP JUMPDEST PUSH2 0xC3 PUSH2 0x1C2 JUMP JUMPDEST PUSH1 0x40 MLOAD PUSH2 0xD0 SWAP2 SWAP1 PUSH2 0x289 JUMP JUMPDEST PUSH1 0x40 MLOAD DUP1 SWAP2 SUB SWAP1 RETURN JUMPDEST PUSH2 0xE1 PUSH2 0x1D3 JUMP JUMPDEST STOP JUMPDEST PUSH2 0xEB PUSH2 0x25A JUMP JUMPDEST PUSH1 0x40 MLOAD PUSH2 0xF8 SWAP2 SWAP1 PUSH2 0x289 JUMP JUMPDEST PUSH1 0x40 MLOAD DUP1 SWAP2 SUB SWAP1 RETURN JUMPDEST PUSH0 PUSH1 0x1 PUSH0 PUSH0 SWAP1 SLOAD SWAP1 PUSH2 0x100 EXP SWAP1 DIV PUSH1 0xFF AND ADD PUSH0 PUSH0 PUSH2 0x100 EXP DUP2 SLOAD DUP2 PUSH1 0xFF MUL NOT AND SWAP1 DUP4 PUSH1 0xFF AND MUL OR SWAP1 SSTORE POP PUSH0 PUSH0 SWAP1 SLOAD SWAP1 PUSH2 0x100 EXP SWAP1 DIV PUSH1 0xFF AND SWAP1 POP SWAP1 JUMP JUMPDEST PUSH1 0x1 PUSH0 PUSH0 SWAP1 SLOAD SWAP1 PUSH2 0x100 EXP SWAP1 DIV PUSH1 0xFF AND PUSH2 0x158 SWAP2 SWAP1 PUSH2 0x2CF JUMP JUMPDEST PUSH0 PUSH0 PUSH2 0x100 EXP DUP2 SLOAD DUP2 PUSH1 0xFF MUL NOT AND SWAP1 DUP4 PUSH1 0xFF AND MUL OR SWAP1 SSTORE POP JUMP JUMPDEST PUSH1 0xFF PUSH0 PUSH0 PUSH2 0x100 EXP DUP2 SLOAD DUP2 PUSH1 0xFF MUL NOT AND SWAP1 DUP4 PUSH1 0xFF AND MUL OR SWAP1 SSTORE POP JUMP JUMPDEST PUSH1 0x1 PUSH0 PUSH0 SWAP1 SLOAD SWAP1 PUSH2 0x100 EXP SWAP1 DIV PUSH1 0xFF AND PUSH2 0x1A8 SWAP2 SWAP1 PUSH2 0x303 JUMP JUMPDEST PUSH0 PUSH0 PUSH2 0x100 EXP DUP2 SLOAD DUP2 PUSH1 0xFF MUL NOT AND SWAP1 DUP4 PUSH1 0xFF AND MUL OR SWAP1 SSTORE POP JUMP JUMPDEST PUSH0 PUSH0 SWAP1 SLOAD SWAP1 PUSH2 0x100 EXP SWAP1 DIV PUSH1 0xFF AND DUP2 JUMP JUMPDEST PUSH1 0xFF PUSH0 PUSH0 SWAP1 SLOAD SWAP1 PUSH2 0x100 EXP SWAP1 DIV PUSH1 0xFF AND PUSH1 0xFF AND LT PUSH2 0x226 JUMPI PUSH1 0x40 MLOAD PUSH32 0x8C379A000000000000000000000000000000000000000000000000000000000 DUP2 MSTORE PUSH1 0x4 ADD PUSH2 0x21D SWAP1 PUSH2 0x3B7 JUMP JUMPDEST PUSH1 0x40 MLOAD DUP1 SWAP2 SUB SWAP1 REVERT JUMPDEST PUSH1 0x1 PUSH0 PUSH0 SWAP1 SLOAD SWAP1 PUSH2 0x100 EXP SWAP1 DIV PUSH1 0xFF AND PUSH2 0x240 SWAP2 SWAP1 PUSH2 0x303 JUMP JUMPDEST PUSH0 PUSH0 PUSH2 0x100 EXP DUP2 SLOAD DUP2 PUSH1 0xFF MUL NOT AND SWAP1 DUP4 PUSH1 0xFF AND MUL OR SWAP1 SSTORE POP JUMP JUMPDEST PUSH0 PUSH0 PUSH0 SWAP1 SLOAD SWAP1 PUSH2 0x100 EXP SWAP1 DIV PUSH1 0xFF AND SWAP1 POP SWAP1 JUMP JUMPDEST PUSH0 PUSH1 0xFF DUP3 AND SWAP1 POP SWAP2 SWAP1 POP JUMP JUMPDEST PUSH2 0x283 DUP2 PUSH2 0x26E JUMP JUMPDEST DUP3 MSTORE POP POP JUMP JUMPDEST PUSH0 PUSH1 0x20 DUP3 ADD SWAP1 POP PUSH2 0x29C PUSH0 DUP4 ADD DUP5 PUSH2 0x27A JUMP JUMPDEST SWAP3 SWAP2 POP POP JUMP JUMPDEST PUSH32 0x4E487B7100000000000000000000000000000000000000000000000000000000 PUSH0 MSTORE PUSH1 0x11 PUSH1 0x4 MSTORE PUSH1 0x24 PUSH0 REVERT JUMPDEST PUSH0 PUSH2 0x2D9 DUP3 PUSH2 0x26E JUMP JUMPDEST SWAP2 POP PUSH2 0x2E4 DUP4 PUSH2 0x26E JUMP JUMPDEST SWAP3 POP DUP3 DUP3 SUB SWAP1 POP PUSH1 0xFF DUP2 GT ISZERO PUSH2 0x2FD JUMPI PUSH2 0x2FC PUSH2 0x2A2 JUMP JUMPDEST JUMPDEST SWAP3 SWAP2 POP POP JUMP JUMPDEST PUSH0 PUSH2 0x30D DUP3 PUSH2 0x26E JUMP JUMPDEST SWAP2 POP PUSH2 0x318 DUP4 PUSH2 0x26E JUMP JUMPDEST SWAP3 POP DUP3 DUP3 ADD SWAP1 POP PUSH1 0xFF DUP2 GT ISZERO PUSH2 0x331 JUMPI PUSH2 0x330 PUSH2 0x2A2 JUMP JUMPDEST JUMPDEST SWAP3 SWAP2 POP POP JUMP JUMPDEST PUSH0 DUP3 DUP3 MSTORE PUSH1 0x20 DUP3 ADD SWAP1 POP SWAP3 SWAP2 POP POP JUMP JUMPDEST PUSH32 0x4F766572666C6F773A2043616E6E6F7420696E6372656D656E74206265796F6E PUSH0 DUP3 ADD MSTORE PUSH32 0x64206D6178696D756D2075696E74382076616C75650000000000000000000000 PUSH1 0x20 DUP3 ADD MSTORE POP JUMP JUMPDEST PUSH0 PUSH2 0x3A1 PUSH1 0x35 DUP4 PUSH2 0x337 JUMP JUMPDEST SWAP2 POP PUSH2 0x3AC DUP3 PUSH2 0x347 JUMP JUMPDEST PUSH1 0x40 DUP3 ADD SWAP1 POP SWAP2 SWAP1 POP JUMP JUMPDEST PUSH0 PUSH1 0x20 DUP3 ADD SWAP1 POP DUP2 DUP2 SUB PUSH0 DUP4 ADD MSTORE PUSH2 0x3CE DUP2 PUSH2 0x395 JUMP JUMPDEST SWAP1 POP SWAP2 SWAP1 POP JUMP INVALID LOG2 PUSH5 0x6970667358 0x22 SLT KECCAK256 PUSH30 0xDBDD98A6D5B1596A655BBCBB8888DE6A78DBBE199A0BC5A8B7F976EDCE21 LOG2 PUSH5 0x736F6C6343 STOP ADDMOD 0x1E STOP CALLER "
				},
				"gasEstimates": {
					"creation": {
						"codeDepositCost": "207000",
						"executionCost": "24514",
						"totalCost": "231514"
					},
					"external": {
						"decrement()": "infinite",
						"getMoney()": "2538",
						"money()": "2487",
						"resetToMax()": "24453",
						"safeSetter()": "infinite",
						"setter()": "infinite",
						"uncheckedSetter()": "28878"
					}
				},
				"methodIdentifiers": {
					"decrement()": "2baeceb7",
					"getMoney()": "98e1b410",
					"money()": "4ddd108a",
					"resetToMax()": "3db598b0",
					"safeSetter()": "80945bfb",
					"setter()": "3f3108f7",
					"uncheckedSetter()": "01efc450"
				}
			},
			"storageLayout": {
				"storage": [
					{
						"astId": 6,
						"contract": "5-Data Types/overflow.sol:overflow",
						"label": "money",
						"offset": 0,
						"slot": "0",
						"type": "t_uint8"
					}
				],
				"types": {
					"t_uint8": {
						"encoding": "inplace",
						"label": "uint8",
						"numberOfBytes": "1"
					}
				}
			},
			"userdoc": {
				"kind": "user",
				"methods": {
					"decrement()": {
						"notice": "Shows that Solidity also protects against underflowThis will revert if called when money = 0"
					},
					"money()": {
						"notice": "uint8 can hold values from 0 to 255 (2^8 - 1)We initialize to 255 to demonstrate overflow on increment"
					},
					"resetToMax()": {
						"notice": "Useful for testing the overflow behavior multiple times"
					},
					"safeSetter()": {
						"notice": "This shows how to manually prevent overflowEven though Solidity 0.8.0+ has built-in overflow protection,         explicit checks can provide better error messages"
					},
					"setter()": {
						"notice": "This will cause an overflow since money is already at max value (255)In Solidity 0.8.0+, this transaction will revert with:         \"Arithmetic operation underflowed or overflowed outside of unchecked block\""
					},
					"uncheckedSetter()": {
						"notice": "Shows how to bypass Solidity's built-in overflow protectionWARNING: This is unsafe and should only be used when absolutely necessaryIn this case, money would wrap around to 0 (255 + 1 = 0)"
					}
				},
				"notice": "This contract demonstrates the built-in overflow protection in modern SolidityIn versions before 0.8.0, this would silently wrap around (255 + 1 = 0)In 0.8.0+, this will revert with an overflow error",
				"version": 1
			}
		}
	}
}