{
	"14-Visibility/code.sol": {
		"ChildDemo": {
			"abi": [
				{
					"inputs": [],
					"name": "child_var",
					"outputs": [
						{
							"internalType": "uint256",
							"name": "",
							"type": "uint256"
						}
					],
					"stateMutability": "view",
					"type": "function"
				},
				{
					"inputs": [],
					"name": "child_var2",
					"outputs": [
						{
							"internalType": "uint256",
							"name": "",
							"type": "uint256"
						}
					],
					"stateMutability": "view",
					"type": "function"
				},
				{
					"inputs": [],
					"name": "child_var4",
					"outputs": [
						{
							"internalType": "uint256",
							"name": "",
							"type": "uint256"
						}
					],
					"stateMutability": "view",
					"type": "function"
				},
				{
					"inputs": [],
					"name": "f1",
					"outputs": [
						{
							"internalType": "uint256",
							"name": "",
							"type": "uint256"
						}
					],
					"stateMutability": "pure",
					"type": "function"
				},
				{
					"inputs": [],
					"name": "f4",
					"outputs": [
						{
							"internalType": "uint256",
							"name": "",
							"type": "uint256"
						}
					],
					"stateMutability": "pure",
					"type": "function"
				}
			],
			"devdoc": {
				"details": "Shows how different visibility types behave in inheritance",
				"kind": "dev",
				"methods": {
					"f1()": {
						"details": "Public function visible both internally and externally",
						"returns": {
							"_0": "Always returns 1"
						}
					},
					"f4()": {
						"details": "External function visible only outside the contract",
						"returns": {
							"_0": "Always returns 4"
						}
					}
				},
				"stateVariables": {
					"child_var": {
						"details": "Calls internal function from parent contract"
					},
					"child_var2": {
						"details": "Attempts to call external function from parentCurrent solution: Changed to use this.f4() to demonstrate external call"
					},
					"child_var4": {
						"details": "Calls public function from parent contract"
					}
				},
				"title": "Child Contract Demonstrating Inheritance",
				"version": 1
			},
			"evm": {
				"assembly": "    /* \"14-Visibility/code.sol\":2098:3213  contract ChildDemo is Demo {... */\n  mstore(0x40, 0x80)\n    /* \"14-Visibility/code.sol\":2313:2317  f3() */\n  tag_1\n    /* \"14-Visibility/code.sol\":2313:2315  f3 */\n  shl(0x20, tag_2)\n    /* \"14-Visibility/code.sol\":2313:2317  f3() */\n  0x20\n  shr\n  jump\t// in\ntag_1:\n    /* \"14-Visibility/code.sol\":2286:2317  uint256 public child_var = f3() */\n  0x00\n  sstore\n    /* \"14-Visibility/code.sol\":2753:2757  this */\n  address\n    /* \"14-Visibility/code.sol\":2753:2760  this.f4 */\n  0xffffffffffffffffffffffffffffffffffffffff\n  and\n  0xc3f90202\n    /* \"14-Visibility/code.sol\":2753:2762  this.f4() */\n  mload(0x40)\n  dup2\n  0xffffffff\n  and\n  0xe0\n  shl\n  dup2\n  mstore\n  0x04\n  add\n  0x20\n  mload(0x40)\n  dup1\n  dup4\n  sub\n  dup2\n  dup7\n  gas\n  staticcall\n  iszero\n  dup1\n  iszero\n  tag_4\n  jumpi\n  returndatacopy(0x00, 0x00, returndatasize)\n  revert(0x00, returndatasize)\ntag_4:\n  pop\n  pop\n  pop\n  pop\n  mload(0x40)\n  returndatasize\n  not(0x1f)\n  0x1f\n  dup3\n  add\n  and\n  dup3\n  add\n  dup1\n  0x40\n  mstore\n  pop\n  dup2\n  add\n  swap1\n  tag_5\n  swap2\n  swap1\n  tag_6\n  jump\t// in\ntag_5:\n    /* \"14-Visibility/code.sol\":2725:2762  uint256 public child_var2 = this.f4() */\n  0x01\n  sstore\n    /* \"14-Visibility/code.sol\":3206:3210  f1() */\n  tag_7\n    /* \"14-Visibility/code.sol\":3206:3208  f1 */\n  shl(0x20, tag_8)\n    /* \"14-Visibility/code.sol\":3206:3210  f1() */\n  0x20\n  shr\n  jump\t// in\ntag_7:\n    /* \"14-Visibility/code.sol\":3178:3210  uint256 public child_var4 = f1() */\n  0x02\n  sstore\n    /* \"14-Visibility/code.sol\":2098:3213  contract ChildDemo is Demo {... */\n  callvalue\n  dup1\n  iszero\n  tag_9\n  jumpi\n  revert(0x00, 0x00)\ntag_9:\n  pop\n  jump(tag_10)\n    /* \"14-Visibility/code.sol\":1346:1551  function f3() internal pure returns (uint256) {... */\ntag_2:\n    /* \"14-Visibility/code.sol\":1383:1390  uint256 */\n  0x00\n    /* \"14-Visibility/code.sol\":1543:1544  3 */\n  0x03\n    /* \"14-Visibility/code.sol\":1536:1544  return 3 */\n  swap1\n  pop\n    /* \"14-Visibility/code.sol\":1346:1551  function f3() internal pure returns (uint256) {... */\n  swap1\n  jump\t// out\n    /* \"14-Visibility/code.sol\":643:712  function f1() public pure returns (uint256) {... */\ntag_8:\n    /* \"14-Visibility/code.sol\":678:685  uint256 */\n  0x00\n    /* \"14-Visibility/code.sol\":704:705  1 */\n  0x01\n    /* \"14-Visibility/code.sol\":697:705  return 1 */\n  swap1\n  pop\n    /* \"14-Visibility/code.sol\":643:712  function f1() public pure returns (uint256) {... */\n  swap1\n  jump\t// out\n    /* \"#utility.yul\":88:205   */\ntag_14:\n    /* \"#utility.yul\":197:198   */\n  0x00\n    /* \"#utility.yul\":194:195   */\n  0x00\n    /* \"#utility.yul\":187:199   */\n  revert\n    /* \"#utility.yul\":334:411   */\ntag_16:\n    /* \"#utility.yul\":371:378   */\n  0x00\n    /* \"#utility.yul\":400:405   */\n  dup2\n    /* \"#utility.yul\":389:405   */\n  swap1\n  pop\n    /* \"#utility.yul\":334:411   */\n  swap2\n  swap1\n  pop\n  jump\t// out\n    /* \"#utility.yul\":417:539   */\ntag_17:\n    /* \"#utility.yul\":490:514   */\n  tag_25\n    /* \"#utility.yul\":508:513   */\n  dup2\n    /* \"#utility.yul\":490:514   */\n  tag_16\n  jump\t// in\ntag_25:\n    /* \"#utility.yul\":483:488   */\n  dup2\n    /* \"#utility.yul\":480:515   */\n  eq\n    /* \"#utility.yul\":470:533   */\n  tag_26\n  jumpi\n    /* \"#utility.yul\":529:530   */\n  0x00\n    /* \"#utility.yul\":526:527   */\n  0x00\n    /* \"#utility.yul\":519:531   */\n  revert\n    /* \"#utility.yul\":470:533   */\ntag_26:\n    /* \"#utility.yul\":417:539   */\n  pop\n  jump\t// out\n    /* \"#utility.yul\":545:688   */\ntag_18:\n    /* \"#utility.yul\":602:607   */\n  0x00\n    /* \"#utility.yul\":633:639   */\n  dup2\n    /* \"#utility.yul\":627:640   */\n  mload\n    /* \"#utility.yul\":618:640   */\n  swap1\n  pop\n    /* \"#utility.yul\":649:682   */\n  tag_28\n    /* \"#utility.yul\":676:681   */\n  dup2\n    /* \"#utility.yul\":649:682   */\n  tag_17\n  jump\t// in\ntag_28:\n    /* \"#utility.yul\":545:688   */\n  swap3\n  swap2\n  pop\n  pop\n  jump\t// out\n    /* \"#utility.yul\":694:1045   */\ntag_6:\n    /* \"#utility.yul\":764:770   */\n  0x00\n    /* \"#utility.yul\":813:815   */\n  0x20\n    /* \"#utility.yul\":801:810   */\n  dup3\n    /* \"#utility.yul\":792:799   */\n  dup5\n    /* \"#utility.yul\":788:811   */\n  sub\n    /* \"#utility.yul\":784:816   */\n  slt\n    /* \"#utility.yul\":781:900   */\n  iszero\n  tag_30\n  jumpi\n    /* \"#utility.yul\":819:898   */\n  tag_31\n  tag_14\n  jump\t// in\ntag_31:\n    /* \"#utility.yul\":781:900   */\ntag_30:\n    /* \"#utility.yul\":939:940   */\n  0x00\n    /* \"#utility.yul\":964:1028   */\n  tag_32\n    /* \"#utility.yul\":1020:1027   */\n  dup5\n    /* \"#utility.yul\":1011:1017   */\n  dup3\n    /* \"#utility.yul\":1000:1009   */\n  dup6\n    /* \"#utility.yul\":996:1018   */\n  add\n    /* \"#utility.yul\":964:1028   */\n  tag_18\n  jump\t// in\ntag_32:\n    /* \"#utility.yul\":954:1028   */\n  swap2\n  pop\n    /* \"#utility.yul\":910:1038   */\n  pop\n    /* \"#utility.yul\":694:1045   */\n  swap3\n  swap2\n  pop\n  pop\n  jump\t// out\n    /* \"14-Visibility/code.sol\":2098:3213  contract ChildDemo is Demo {... */\ntag_10:\n  dataSize(sub_0)\n  dup1\n  dataOffset(sub_0)\n  0x00\n  codecopy\n  0x00\n  return\nstop\n\nsub_0: assembly {\n        /* \"14-Visibility/code.sol\":2098:3213  contract ChildDemo is Demo {... */\n      mstore(0x40, 0x80)\n      callvalue\n      dup1\n      iszero\n      tag_1\n      jumpi\n      revert(0x00, 0x00)\n    tag_1:\n      pop\n      jumpi(tag_2, lt(calldatasize, 0x04))\n      shr(0xe0, calldataload(0x00))\n      dup1\n      0x4fbe88e8\n      eq\n      tag_3\n      jumpi\n      dup1\n      0x705e3aeb\n      eq\n      tag_4\n      jumpi\n      dup1\n      0xc27fc305\n      eq\n      tag_5\n      jumpi\n      dup1\n      0xc3f90202\n      eq\n      tag_6\n      jumpi\n      dup1\n      0xf2fb5cef\n      eq\n      tag_7\n      jumpi\n    tag_2:\n      revert(0x00, 0x00)\n        /* \"14-Visibility/code.sol\":2286:2317  uint256 public child_var = f3() */\n    tag_3:\n      tag_8\n      tag_9\n      jump\t// in\n    tag_8:\n      mload(0x40)\n      tag_10\n      swap2\n      swap1\n      tag_11\n      jump\t// in\n    tag_10:\n      mload(0x40)\n      dup1\n      swap2\n      sub\n      swap1\n      return\n        /* \"14-Visibility/code.sol\":2725:2762  uint256 public child_var2 = this.f4() */\n    tag_4:\n      tag_12\n      tag_13\n      jump\t// in\n    tag_12:\n      mload(0x40)\n      tag_14\n      swap2\n      swap1\n      tag_11\n      jump\t// in\n    tag_14:\n      mload(0x40)\n      dup1\n      swap2\n      sub\n      swap1\n      return\n        /* \"14-Visibility/code.sol\":643:712  function f1() public pure returns (uint256) {... */\n    tag_5:\n      tag_15\n      tag_16\n      jump\t// in\n    tag_15:\n      mload(0x40)\n      tag_17\n      swap2\n      swap1\n      tag_11\n      jump\t// in\n    tag_17:\n      mload(0x40)\n      dup1\n      swap2\n      sub\n      swap1\n      return\n        /* \"14-Visibility/code.sol\":1897:1968  function f4() external pure returns (uint256) {... */\n    tag_6:\n      tag_18\n      tag_19\n      jump\t// in\n    tag_18:\n      mload(0x40)\n      tag_20\n      swap2\n      swap1\n      tag_11\n      jump\t// in\n    tag_20:\n      mload(0x40)\n      dup1\n      swap2\n      sub\n      swap1\n      return\n        /* \"14-Visibility/code.sol\":3178:3210  uint256 public child_var4 = f1() */\n    tag_7:\n      tag_21\n      tag_22\n      jump\t// in\n    tag_21:\n      mload(0x40)\n      tag_23\n      swap2\n      swap1\n      tag_11\n      jump\t// in\n    tag_23:\n      mload(0x40)\n      dup1\n      swap2\n      sub\n      swap1\n      return\n        /* \"14-Visibility/code.sol\":2286:2317  uint256 public child_var = f3() */\n    tag_9:\n      sload(0x00)\n      dup2\n      jump\t// out\n        /* \"14-Visibility/code.sol\":2725:2762  uint256 public child_var2 = this.f4() */\n    tag_13:\n      sload(0x01)\n      dup2\n      jump\t// out\n        /* \"14-Visibility/code.sol\":643:712  function f1() public pure returns (uint256) {... */\n    tag_16:\n        /* \"14-Visibility/code.sol\":678:685  uint256 */\n      0x00\n        /* \"14-Visibility/code.sol\":704:705  1 */\n      0x01\n        /* \"14-Visibility/code.sol\":697:705  return 1 */\n      swap1\n      pop\n        /* \"14-Visibility/code.sol\":643:712  function f1() public pure returns (uint256) {... */\n      swap1\n      jump\t// out\n        /* \"14-Visibility/code.sol\":1897:1968  function f4() external pure returns (uint256) {... */\n    tag_19:\n        /* \"14-Visibility/code.sol\":1934:1941  uint256 */\n      0x00\n        /* \"14-Visibility/code.sol\":1960:1961  4 */\n      0x04\n        /* \"14-Visibility/code.sol\":1953:1961  return 4 */\n      swap1\n      pop\n        /* \"14-Visibility/code.sol\":1897:1968  function f4() external pure returns (uint256) {... */\n      swap1\n      jump\t// out\n        /* \"14-Visibility/code.sol\":3178:3210  uint256 public child_var4 = f1() */\n    tag_22:\n      sload(0x02)\n      dup2\n      jump\t// out\n        /* \"#utility.yul\":7:84   */\n    tag_26:\n        /* \"#utility.yul\":44:51   */\n      0x00\n        /* \"#utility.yul\":73:78   */\n      dup2\n        /* \"#utility.yul\":62:78   */\n      swap1\n      pop\n        /* \"#utility.yul\":7:84   */\n      swap2\n      swap1\n      pop\n      jump\t// out\n        /* \"#utility.yul\":90:208   */\n    tag_27:\n        /* \"#utility.yul\":177:201   */\n      tag_31\n        /* \"#utility.yul\":195:200   */\n      dup2\n        /* \"#utility.yul\":177:201   */\n      tag_26\n      jump\t// in\n    tag_31:\n        /* \"#utility.yul\":172:175   */\n      dup3\n        /* \"#utility.yul\":165:202   */\n      mstore\n        /* \"#utility.yul\":90:208   */\n      pop\n      pop\n      jump\t// out\n        /* \"#utility.yul\":214:436   */\n    tag_11:\n        /* \"#utility.yul\":307:311   */\n      0x00\n        /* \"#utility.yul\":345:347   */\n      0x20\n        /* \"#utility.yul\":334:343   */\n      dup3\n        /* \"#utility.yul\":330:348   */\n      add\n        /* \"#utility.yul\":322:348   */\n      swap1\n      pop\n        /* \"#utility.yul\":358:429   */\n      tag_33\n        /* \"#utility.yul\":426:427   */\n      0x00\n        /* \"#utility.yul\":415:424   */\n      dup4\n        /* \"#utility.yul\":411:428   */\n      add\n        /* \"#utility.yul\":402:408   */\n      dup5\n        /* \"#utility.yul\":358:429   */\n      tag_27\n      jump\t// in\n    tag_33:\n        /* \"#utility.yul\":214:436   */\n      swap3\n      swap2\n      pop\n      pop\n      jump\t// out\n\n    auxdata: 0xa2646970667358221220e8d643f5bb712b674c9219e640fb5083c761c97abc473dfb36ff09d874e52f4d64736f6c634300081e0033\n}\n",
				"bytecode": {
					"linkReferences": {},
					"object": "60806040526100126100a660201b60201c565b5f553073ffffffffffffffffffffffffffffffffffffffff1663c3f902026040518163ffffffff1660e01b8152600401602060405180830381865afa15801561005d573d5f5f3e3d5ffd5b505050506040513d601f19601f8201168201806040525081019061008191906100ed565b6001556100926100ae60201b60201c565b6002553480156100a0575f5ffd5b50610118565b5f6003905090565b5f6001905090565b5f5ffd5b5f819050919050565b6100cc816100ba565b81146100d6575f5ffd5b50565b5f815190506100e7816100c3565b92915050565b5f60208284031215610102576101016100b6565b5b5f61010f848285016100d9565b91505092915050565b610177806101255f395ff3fe608060405234801561000f575f5ffd5b5060043610610055575f3560e01c80634fbe88e814610059578063705e3aeb14610077578063c27fc30514610095578063c3f90202146100b3578063f2fb5cef146100d1575b5f5ffd5b6100616100ef565b60405161006e9190610128565b60405180910390f35b61007f6100f4565b60405161008c9190610128565b60405180910390f35b61009d6100fa565b6040516100aa9190610128565b60405180910390f35b6100bb610102565b6040516100c89190610128565b60405180910390f35b6100d961010a565b6040516100e69190610128565b60405180910390f35b5f5481565b60015481565b5f6001905090565b5f6004905090565b60025481565b5f819050919050565b61012281610110565b82525050565b5f60208201905061013b5f830184610119565b9291505056fea2646970667358221220e8d643f5bb712b674c9219e640fb5083c761c97abc473dfb36ff09d874e52f4d64736f6c634300081e0033",
					"opcodes": "PUSH1 0x80 PUSH1 0x40 MSTORE PUSH2 0x12 PUSH2 0xA6 PUSH1 0x20 SHL PUSH1 0x20 SHR JUMP JUMPDEST PUSH0 SSTORE ADDRESS PUSH20 0xFFFFFFFFFFFFFFFFFFFFFFFFFFFFFFFFFFFFFFFF AND PUSH4 0xC3F90202 PUSH1 0x40 MLOAD DUP2 PUSH4 0xFFFFFFFF AND PUSH1 0xE0 SHL DUP2 MSTORE PUSH1 0x4 ADD PUSH1 0x20 PUSH1 0x40 MLOAD DUP1 DUP4 SUB DUP2 DUP7 GAS STATICCALL ISZERO DUP1 ISZERO PUSH2 0x5D JUMPI RETURNDATASIZE PUSH0 PUSH0 RETURNDATACOPY RETURNDATASIZE PUSH0 REVERT JUMPDEST POP POP POP POP PUSH1 0x40 MLOAD RETURNDATASIZE PUSH1 0x1F NOT PUSH1 0x1F DUP3 ADD AND DUP3 ADD DUP1 PUSH1 0x40 MSTORE POP DUP2 ADD SWAP1 PUSH2 0x81 SWAP2 SWAP1 PUSH2 0xED JUMP JUMPDEST PUSH1 0x1 SSTORE PUSH2 0x92 PUSH2 0xAE PUSH1 0x20 SHL PUSH1 0x20 SHR JUMP JUMPDEST PUSH1 0x2 SSTORE CALLVALUE DUP1 ISZERO PUSH2 0xA0 JUMPI PUSH0 PUSH0 REVERT JUMPDEST POP PUSH2 0x118 JUMP JUMPDEST PUSH0 PUSH1 0x3 SWAP1 POP SWAP1 JUMP JUMPDEST PUSH0 PUSH1 0x1 SWAP1 POP SWAP1 JUMP JUMPDEST PUSH0 PUSH0 REVERT JUMPDEST PUSH0 DUP2 SWAP1 POP SWAP2 SWAP1 POP JUMP JUMPDEST PUSH2 0xCC DUP2 PUSH2 0xBA JUMP JUMPDEST DUP2 EQ PUSH2 0xD6 JUMPI PUSH0 PUSH0 REVERT JUMPDEST POP JUMP JUMPDEST PUSH0 DUP2 MLOAD SWAP1 POP PUSH2 0xE7 DUP2 PUSH2 0xC3 JUMP JUMPDEST SWAP3 SWAP2 POP POP JUMP JUMPDEST PUSH0 PUSH1 0x20 DUP3 DUP5 SUB SLT ISZERO PUSH2 0x102 JUMPI PUSH2 0x101 PUSH2 0xB6 JUMP JUMPDEST JUMPDEST PUSH0 PUSH2 0x10F DUP5 DUP3 DUP6 ADD PUSH2 0xD9 JUMP JUMPDEST SWAP2 POP POP SWAP3 SWAP2 POP POP JUMP JUMPDEST PUSH2 0x177 DUP1 PUSH2 0x125 PUSH0 CODECOPY PUSH0 RETURN INVALID PUSH1 0x80 PUSH1 0x40 MSTORE CALLVALUE DUP1 ISZERO PUSH2 0xF JUMPI PUSH0 PUSH0 REVERT JUMPDEST POP PUSH1 0x4 CALLDATASIZE LT PUSH2 0x55 JUMPI PUSH0 CALLDATALOAD PUSH1 0xE0 SHR DUP1 PUSH4 0x4FBE88E8 EQ PUSH2 0x59 JUMPI DUP1 PUSH4 0x705E3AEB EQ PUSH2 0x77 JUMPI DUP1 PUSH4 0xC27FC305 EQ PUSH2 0x95 JUMPI DUP1 PUSH4 0xC3F90202 EQ PUSH2 0xB3 JUMPI DUP1 PUSH4 0xF2FB5CEF EQ PUSH2 0xD1 JUMPI JUMPDEST PUSH0 PUSH0 REVERT JUMPDEST PUSH2 0x61 PUSH2 0xEF JUMP JUMPDEST PUSH1 0x40 MLOAD PUSH2 0x6E SWAP2 SWAP1 PUSH2 0x128 JUMP JUMPDEST PUSH1 0x40 MLOAD DUP1 SWAP2 SUB SWAP1 RETURN JUMPDEST PUSH2 0x7F PUSH2 0xF4 JUMP JUMPDEST PUSH1 0x40 MLOAD PUSH2 0x8C SWAP2 SWAP1 PUSH2 0x128 JUMP JUMPDEST PUSH1 0x40 MLOAD DUP1 SWAP2 SUB SWAP1 RETURN JUMPDEST PUSH2 0x9D PUSH2 0xFA JUMP JUMPDEST PUSH1 0x40 MLOAD PUSH2 0xAA SWAP2 SWAP1 PUSH2 0x128 JUMP JUMPDEST PUSH1 0x40 MLOAD DUP1 SWAP2 SUB SWAP1 RETURN JUMPDEST PUSH2 0xBB PUSH2 0x102 JUMP JUMPDEST PUSH1 0x40 MLOAD PUSH2 0xC8 SWAP2 SWAP1 PUSH2 0x128 JUMP JUMPDEST PUSH1 0x40 MLOAD DUP1 SWAP2 SUB SWAP1 RETURN JUMPDEST PUSH2 0xD9 PUSH2 0x10A JUMP JUMPDEST PUSH1 0x40 MLOAD PUSH2 0xE6 SWAP2 SWAP1 PUSH2 0x128 JUMP JUMPDEST PUSH1 0x40 MLOAD DUP1 SWAP2 SUB SWAP1 RETURN JUMPDEST PUSH0 SLOAD DUP2 JUMP JUMPDEST PUSH1 0x1 SLOAD DUP2 JUMP JUMPDEST PUSH0 PUSH1 0x1 SWAP1 POP SWAP1 JUMP JUMPDEST PUSH0 PUSH1 0x4 SWAP1 POP SWAP1 JUMP JUMPDEST PUSH1 0x2 SLOAD DUP2 JUMP JUMPDEST PUSH0 DUP2 SWAP1 POP SWAP2 SWAP1 POP JUMP JUMPDEST PUSH2 0x122 DUP2 PUSH2 0x110 JUMP JUMPDEST DUP3 MSTORE POP POP JUMP JUMPDEST PUSH0 PUSH1 0x20 DUP3 ADD SWAP1 POP PUSH2 0x13B PUSH0 DUP4 ADD DUP5 PUSH2 0x119 JUMP JUMPDEST SWAP3 SWAP2 POP POP JUMP INVALID LOG2 PUSH5 0x6970667358 0x22 SLT KECCAK256 0xE8 0xD6 NUMBER CREATE2 0xBB PUSH18 0x2B674C9219E640FB5083C761C97ABC473DFB CALLDATASIZE SELFDESTRUCT MULMOD 0xD8 PUSH21 0xE52F4D64736F6C634300081E003300000000000000 "
				},
				"gasEstimates": {
					"creation": {
						"codeDepositCost": "75000",
						"executionCost": "infinite",
						"totalCost": "infinite"
					},
					"external": {
						"child_var()": "2402",
						"child_var2()": "2425",
						"child_var4()": "2491",
						"f1()": "354",
						"f4()": "376"
					}
				},
				"methodIdentifiers": {
					"child_var()": "4fbe88e8",
					"child_var2()": "705e3aeb",
					"child_var4()": "f2fb5cef",
					"f1()": "c27fc305",
					"f4()": "c3f90202"
				}
			},
			"storageLayout": {
				"storage": [
					{
						"astId": 47,
						"contract": "14-Visibility/code.sol:ChildDemo",
						"label": "child_var",
						"offset": 0,
						"slot": "0",
						"type": "t_uint256"
					},
					{
						"astId": 53,
						"contract": "14-Visibility/code.sol:ChildDemo",
						"label": "child_var2",
						"offset": 0,
						"slot": "1",
						"type": "t_uint256"
					},
					{
						"astId": 58,
						"contract": "14-Visibility/code.sol:ChildDemo",
						"label": "child_var4",
						"offset": 0,
						"slot": "2",
						"type": "t_uint256"
					}
				],
				"types": {
					"t_uint256": {
						"encoding": "inplace",
						"label": "uint256",
						"numberOfBytes": "32"
					}
				}
			},
			"userdoc": {
				"kind": "user",
				"methods": {
					"child_var()": {
						"notice": "Works because internal functions are accessible in child contracts"
					},
					"child_var2()": {
						"notice": "This would fail because external functions can't be called directly internallyFixed by either: 1. Changing f4() to public in parent contract (recommended) 2. Using this.f4() to force external call"
					},
					"child_var4()": {
						"notice": "Works because public functions are fully accessible"
					},
					"f1()": {
						"notice": "Can be called: - From within this contract - From child contracts - From other contracts - From transactions"
					},
					"f4()": {
						"notice": "Can be called: - From other contracts (via this.f4()) - From transactions - NOT from within this contract (without using this.f4()) - NOT from child contracts (without using this.f4())"
					}
				},
				"version": 1
			}
		}
	}
}