{
	"12-Global Variables/vardemo.sol": {
		"demo": {
			"abi": [
				{
					"inputs": [],
					"name": "getMoreBlockInfo",
					"outputs": [
						{
							"internalType": "bytes32",
							"name": "blockHashValue",
							"type": "bytes32"
						},
						{
							"internalType": "address",
							"name": "coinbase",
							"type": "address"
						},
						{
							"internalType": "uint256",
							"name": "prevRandao",
							"type": "uint256"
						}
					],
					"stateMutability": "view",
					"type": "function"
				}
			],
			"devdoc": {
				"details": "Shows how to access Ethereum blockchain global variables in Solidity",
				"kind": "dev",
				"methods": {
					"getMoreBlockInfo()": {
						"details": "Returns additional block information (updated for PoS)",
						"returns": {
							"blockHashValue": "The hash of one of the 256 most recent blocks",
							"coinbase": "The current block miner's address (now validator in PoS)",
							"prevRandao": "The randomness value from the Beacon Chain"
						}
					}
				},
				"title": "Global Variables Demonstration (Post-Paris Upgrade)",
				"version": 1
			},
			"evm": {
				"assembly": "    /* \"12-Global Variables/vardemo.sol\":291:1096  contract demo {... */\n  mstore(0x40, 0x80)\n  callvalue\n  dup1\n  iszero\n  tag_1\n  jumpi\n  revert(0x00, 0x00)\ntag_1:\n  pop\n  dataSize(sub_0)\n  dup1\n  dataOffset(sub_0)\n  0x00\n  codecopy\n  0x00\n  return\nstop\n\nsub_0: assembly {\n        /* \"12-Global Variables/vardemo.sol\":291:1096  contract demo {... */\n      mstore(0x40, 0x80)\n      callvalue\n      dup1\n      iszero\n      tag_1\n      jumpi\n      revert(0x00, 0x00)\n    tag_1:\n      pop\n      jumpi(tag_2, lt(calldatasize, 0x04))\n      shr(0xe0, calldataload(0x00))\n      dup1\n      0x9207f67e\n      eq\n      tag_3\n      jumpi\n    tag_2:\n      revert(0x00, 0x00)\n        /* \"12-Global Variables/vardemo.sol\":692:1041  function getMoreBlockInfo() public view returns(... */\n    tag_3:\n      tag_4\n      tag_5\n      jump\t// in\n    tag_4:\n      mload(0x40)\n      tag_6\n      swap4\n      swap3\n      swap2\n      swap1\n      tag_7\n      jump\t// in\n    tag_6:\n      mload(0x40)\n      dup1\n      swap2\n      sub\n      swap1\n      return\n    tag_5:\n        /* \"12-Global Variables/vardemo.sol\":749:771  bytes32 blockHashValue */\n      0x00\n        /* \"12-Global Variables/vardemo.sol\":781:797  address coinbase */\n      0x00\n        /* \"12-Global Variables/vardemo.sol\":807:825  uint256 prevRandao */\n      0x00\n        /* \"12-Global Variables/vardemo.sol\":847:866  uint256 blockNumber */\n      0x00\n        /* \"12-Global Variables/vardemo.sol\":884:885  0 */\n      0x00\n        /* \"12-Global Variables/vardemo.sol\":869:881  block.number */\n      number\n        /* \"12-Global Variables/vardemo.sol\":869:885  block.number > 0 */\n      gt\n        /* \"12-Global Variables/vardemo.sol\":869:908  block.number > 0 ? block.number - 1 : 0 */\n      tag_9\n      jumpi\n        /* \"12-Global Variables/vardemo.sol\":907:908  0 */\n      0x00\n        /* \"12-Global Variables/vardemo.sol\":869:908  block.number > 0 ? block.number - 1 : 0 */\n      jump(tag_10)\n    tag_9:\n        /* \"12-Global Variables/vardemo.sol\":903:904  1 */\n      0x01\n        /* \"12-Global Variables/vardemo.sol\":888:900  block.number */\n      number\n        /* \"12-Global Variables/vardemo.sol\":888:904  block.number - 1 */\n      tag_11\n      swap2\n      swap1\n      tag_12\n      jump\t// in\n    tag_11:\n        /* \"12-Global Variables/vardemo.sol\":869:908  block.number > 0 ? block.number - 1 : 0 */\n    tag_10:\n        /* \"12-Global Variables/vardemo.sol\":847:908  uint256 blockNumber = block.number > 0 ? block.number - 1 : 0 */\n      swap1\n      pop\n        /* \"12-Global Variables/vardemo.sol\":949:960  blockNumber */\n      dup1\n        /* \"12-Global Variables/vardemo.sol\":939:961  blockhash(blockNumber) */\n      blockhash\n        /* \"12-Global Variables/vardemo.sol\":975:989  block.coinbase */\n      coinbase\n        /* \"12-Global Variables/vardemo.sol\":1003:1019  block.prevrandao */\n      prevrandao\n        /* \"12-Global Variables/vardemo.sol\":918:1034  return (... */\n      swap4\n      pop\n      swap4\n      pop\n      swap4\n      pop\n      pop\n        /* \"12-Global Variables/vardemo.sol\":692:1041  function getMoreBlockInfo() public view returns(... */\n      swap1\n      swap2\n      swap3\n      jump\t// out\n        /* \"#utility.yul\":7:84   */\n    tag_13:\n        /* \"#utility.yul\":44:51   */\n      0x00\n        /* \"#utility.yul\":73:78   */\n      dup2\n        /* \"#utility.yul\":62:78   */\n      swap1\n      pop\n        /* \"#utility.yul\":7:84   */\n      swap2\n      swap1\n      pop\n      jump\t// out\n        /* \"#utility.yul\":90:208   */\n    tag_14:\n        /* \"#utility.yul\":177:201   */\n      tag_24\n        /* \"#utility.yul\":195:200   */\n      dup2\n        /* \"#utility.yul\":177:201   */\n      tag_13\n      jump\t// in\n    tag_24:\n        /* \"#utility.yul\":172:175   */\n      dup3\n        /* \"#utility.yul\":165:202   */\n      mstore\n        /* \"#utility.yul\":90:208   */\n      pop\n      pop\n      jump\t// out\n        /* \"#utility.yul\":214:340   */\n    tag_15:\n        /* \"#utility.yul\":251:258   */\n      0x00\n        /* \"#utility.yul\":291:333   */\n      0xffffffffffffffffffffffffffffffffffffffff\n        /* \"#utility.yul\":284:289   */\n      dup3\n        /* \"#utility.yul\":280:334   */\n      and\n        /* \"#utility.yul\":269:334   */\n      swap1\n      pop\n        /* \"#utility.yul\":214:340   */\n      swap2\n      swap1\n      pop\n      jump\t// out\n        /* \"#utility.yul\":346:442   */\n    tag_16:\n        /* \"#utility.yul\":383:390   */\n      0x00\n        /* \"#utility.yul\":412:436   */\n      tag_27\n        /* \"#utility.yul\":430:435   */\n      dup3\n        /* \"#utility.yul\":412:436   */\n      tag_15\n      jump\t// in\n    tag_27:\n        /* \"#utility.yul\":401:436   */\n      swap1\n      pop\n        /* \"#utility.yul\":346:442   */\n      swap2\n      swap1\n      pop\n      jump\t// out\n        /* \"#utility.yul\":448:566   */\n    tag_17:\n        /* \"#utility.yul\":535:559   */\n      tag_29\n        /* \"#utility.yul\":553:558   */\n      dup2\n        /* \"#utility.yul\":535:559   */\n      tag_16\n      jump\t// in\n    tag_29:\n        /* \"#utility.yul\":530:533   */\n      dup3\n        /* \"#utility.yul\":523:560   */\n      mstore\n        /* \"#utility.yul\":448:566   */\n      pop\n      pop\n      jump\t// out\n        /* \"#utility.yul\":572:649   */\n    tag_18:\n        /* \"#utility.yul\":609:616   */\n      0x00\n        /* \"#utility.yul\":638:643   */\n      dup2\n        /* \"#utility.yul\":627:643   */\n      swap1\n      pop\n        /* \"#utility.yul\":572:649   */\n      swap2\n      swap1\n      pop\n      jump\t// out\n        /* \"#utility.yul\":655:773   */\n    tag_19:\n        /* \"#utility.yul\":742:766   */\n      tag_32\n        /* \"#utility.yul\":760:765   */\n      dup2\n        /* \"#utility.yul\":742:766   */\n      tag_18\n      jump\t// in\n    tag_32:\n        /* \"#utility.yul\":737:740   */\n      dup3\n        /* \"#utility.yul\":730:767   */\n      mstore\n        /* \"#utility.yul\":655:773   */\n      pop\n      pop\n      jump\t// out\n        /* \"#utility.yul\":779:1221   */\n    tag_7:\n        /* \"#utility.yul\":928:932   */\n      0x00\n        /* \"#utility.yul\":966:968   */\n      0x60\n        /* \"#utility.yul\":955:964   */\n      dup3\n        /* \"#utility.yul\":951:969   */\n      add\n        /* \"#utility.yul\":943:969   */\n      swap1\n      pop\n        /* \"#utility.yul\":979:1050   */\n      tag_34\n        /* \"#utility.yul\":1047:1048   */\n      0x00\n        /* \"#utility.yul\":1036:1045   */\n      dup4\n        /* \"#utility.yul\":1032:1049   */\n      add\n        /* \"#utility.yul\":1023:1029   */\n      dup7\n        /* \"#utility.yul\":979:1050   */\n      tag_14\n      jump\t// in\n    tag_34:\n        /* \"#utility.yul\":1060:1132   */\n      tag_35\n        /* \"#utility.yul\":1128:1130   */\n      0x20\n        /* \"#utility.yul\":1117:1126   */\n      dup4\n        /* \"#utility.yul\":1113:1131   */\n      add\n        /* \"#utility.yul\":1104:1110   */\n      dup6\n        /* \"#utility.yul\":1060:1132   */\n      tag_17\n      jump\t// in\n    tag_35:\n        /* \"#utility.yul\":1142:1214   */\n      tag_36\n        /* \"#utility.yul\":1210:1212   */\n      0x40\n        /* \"#utility.yul\":1199:1208   */\n      dup4\n        /* \"#utility.yul\":1195:1213   */\n      add\n        /* \"#utility.yul\":1186:1192   */\n      dup5\n        /* \"#utility.yul\":1142:1214   */\n      tag_19\n      jump\t// in\n    tag_36:\n        /* \"#utility.yul\":779:1221   */\n      swap5\n      swap4\n      pop\n      pop\n      pop\n      pop\n      jump\t// out\n        /* \"#utility.yul\":1227:1407   */\n    tag_20:\n        /* \"#utility.yul\":1275:1352   */\n      0x4e487b7100000000000000000000000000000000000000000000000000000000\n        /* \"#utility.yul\":1272:1273   */\n      0x00\n        /* \"#utility.yul\":1265:1353   */\n      mstore\n        /* \"#utility.yul\":1372:1376   */\n      0x11\n        /* \"#utility.yul\":1369:1370   */\n      0x04\n        /* \"#utility.yul\":1362:1377   */\n      mstore\n        /* \"#utility.yul\":1396:1400   */\n      0x24\n        /* \"#utility.yul\":1393:1394   */\n      0x00\n        /* \"#utility.yul\":1386:1401   */\n      revert\n        /* \"#utility.yul\":1413:1607   */\n    tag_12:\n        /* \"#utility.yul\":1453:1457   */\n      0x00\n        /* \"#utility.yul\":1473:1493   */\n      tag_39\n        /* \"#utility.yul\":1491:1492   */\n      dup3\n        /* \"#utility.yul\":1473:1493   */\n      tag_18\n      jump\t// in\n    tag_39:\n        /* \"#utility.yul\":1468:1493   */\n      swap2\n      pop\n        /* \"#utility.yul\":1507:1527   */\n      tag_40\n        /* \"#utility.yul\":1525:1526   */\n      dup4\n        /* \"#utility.yul\":1507:1527   */\n      tag_18\n      jump\t// in\n    tag_40:\n        /* \"#utility.yul\":1502:1527   */\n      swap3\n      pop\n        /* \"#utility.yul\":1551:1552   */\n      dup3\n        /* \"#utility.yul\":1548:1549   */\n      dup3\n        /* \"#utility.yul\":1544:1553   */\n      sub\n        /* \"#utility.yul\":1536:1553   */\n      swap1\n      pop\n        /* \"#utility.yul\":1575:1576   */\n      dup2\n        /* \"#utility.yul\":1569:1573   */\n      dup2\n        /* \"#utility.yul\":1566:1577   */\n      gt\n        /* \"#utility.yul\":1563:1600   */\n      iszero\n      tag_41\n      jumpi\n        /* \"#utility.yul\":1580:1598   */\n      tag_42\n      tag_20\n      jump\t// in\n    tag_42:\n        /* \"#utility.yul\":1563:1600   */\n    tag_41:\n        /* \"#utility.yul\":1413:1607   */\n      swap3\n      swap2\n      pop\n      pop\n      jump\t// out\n\n    auxdata: 0xa26469706673582212201cb115b6536a88958056339c4d2181016cf2e9541e5784711b6c480ccd5823fe64736f6c634300081e0033\n}\n",
				"bytecode": {
					"linkReferences": {},
					"object": "6080604052348015600e575f5ffd5b506101b88061001c5f395ff3fe608060405234801561000f575f5ffd5b5060043610610029575f3560e01c80639207f67e1461002d575b5f5ffd5b61003561004d565b604051610044939291906100ed565b60405180910390f35b5f5f5f5f5f431161005e575f61006c565b60014361006b919061014f565b5b90508040414493509350935050909192565b5f819050919050565b6100908161007e565b82525050565b5f73ffffffffffffffffffffffffffffffffffffffff82169050919050565b5f6100bf82610096565b9050919050565b6100cf816100b5565b82525050565b5f819050919050565b6100e7816100d5565b82525050565b5f6060820190506101005f830186610087565b61010d60208301856100c6565b61011a60408301846100de565b949350505050565b7f4e487b71000000000000000000000000000000000000000000000000000000005f52601160045260245ffd5b5f610159826100d5565b9150610164836100d5565b925082820390508181111561017c5761017b610122565b5b9291505056fea26469706673582212201cb115b6536a88958056339c4d2181016cf2e9541e5784711b6c480ccd5823fe64736f6c634300081e0033",
					"opcodes": "PUSH1 0x80 PUSH1 0x40 MSTORE CALLVALUE DUP1 ISZERO PUSH1 0xE JUMPI PUSH0 PUSH0 REVERT JUMPDEST POP PUSH2 0x1B8 DUP1 PUSH2 0x1C PUSH0 CODECOPY PUSH0 RETURN INVALID PUSH1 0x80 PUSH1 0x40 MSTORE CALLVALUE DUP1 ISZERO PUSH2 0xF JUMPI PUSH0 PUSH0 REVERT JUMPDEST POP PUSH1 0x4 CALLDATASIZE LT PUSH2 0x29 JUMPI PUSH0 CALLDATALOAD PUSH1 0xE0 SHR DUP1 PUSH4 0x9207F67E EQ PUSH2 0x2D JUMPI JUMPDEST PUSH0 PUSH0 REVERT JUMPDEST PUSH2 0x35 PUSH2 0x4D JUMP JUMPDEST PUSH1 0x40 MLOAD PUSH2 0x44 SWAP4 SWAP3 SWAP2 SWAP1 PUSH2 0xED JUMP JUMPDEST PUSH1 0x40 MLOAD DUP1 SWAP2 SUB SWAP1 RETURN JUMPDEST PUSH0 PUSH0 PUSH0 PUSH0 PUSH0 NUMBER GT PUSH2 0x5E JUMPI PUSH0 PUSH2 0x6C JUMP JUMPDEST PUSH1 0x1 NUMBER PUSH2 0x6B SWAP2 SWAP1 PUSH2 0x14F JUMP JUMPDEST JUMPDEST SWAP1 POP DUP1 BLOCKHASH COINBASE PREVRANDAO SWAP4 POP SWAP4 POP SWAP4 POP POP SWAP1 SWAP2 SWAP3 JUMP JUMPDEST PUSH0 DUP2 SWAP1 POP SWAP2 SWAP1 POP JUMP JUMPDEST PUSH2 0x90 DUP2 PUSH2 0x7E JUMP JUMPDEST DUP3 MSTORE POP POP JUMP JUMPDEST PUSH0 PUSH20 0xFFFFFFFFFFFFFFFFFFFFFFFFFFFFFFFFFFFFFFFF DUP3 AND SWAP1 POP SWAP2 SWAP1 POP JUMP JUMPDEST PUSH0 PUSH2 0xBF DUP3 PUSH2 0x96 JUMP JUMPDEST SWAP1 POP SWAP2 SWAP1 POP JUMP JUMPDEST PUSH2 0xCF DUP2 PUSH2 0xB5 JUMP JUMPDEST DUP3 MSTORE POP POP JUMP JUMPDEST PUSH0 DUP2 SWAP1 POP SWAP2 SWAP1 POP JUMP JUMPDEST PUSH2 0xE7 DUP2 PUSH2 0xD5 JUMP JUMPDEST DUP3 MSTORE POP POP JUMP JUMPDEST PUSH0 PUSH1 0x60 DUP3 ADD SWAP1 POP PUSH2 0x100 PUSH0 DUP4 ADD DUP7 PUSH2 0x87 JUMP JUMPDEST PUSH2 0x10D PUSH1 0x20 DUP4 ADD DUP6 PUSH2 0xC6 JUMP JUMPDEST PUSH2 0x11A PUSH1 0x40 DUP4 ADD DUP5 PUSH2 0xDE JUMP JUMPDEST SWAP5 SWAP4 POP POP POP POP JUMP JUMPDEST PUSH32 0x4E487B7100000000000000000000000000000000000000000000000000000000 PUSH0 MSTORE PUSH1 0x11 PUSH1 0x4 MSTORE PUSH1 0x24 PUSH0 REVERT JUMPDEST PUSH0 PUSH2 0x159 DUP3 PUSH2 0xD5 JUMP JUMPDEST SWAP2 POP PUSH2 0x164 DUP4 PUSH2 0xD5 JUMP JUMPDEST SWAP3 POP DUP3 DUP3 SUB SWAP1 POP DUP2 DUP2 GT ISZERO PUSH2 0x17C JUMPI PUSH2 0x17B PUSH2 0x122 JUMP JUMPDEST JUMPDEST SWAP3 SWAP2 POP POP JUMP INVALID LOG2 PUSH5 0x6970667358 0x22 SLT KECCAK256 SHR 0xB1 ISZERO 0xB6 MSTORE8 PUSH11 0x88958056339C4D2181016C CALLCODE 0xE9 SLOAD 0x1E JUMPI DUP5 PUSH18 0x1B6C480CCD5823FE64736F6C634300081E00 CALLER "
				},
				"gasEstimates": {
					"creation": {
						"codeDepositCost": "88000",
						"executionCost": "133",
						"totalCost": "88133"
					},
					"external": {
						"getMoreBlockInfo()": "infinite"
					}
				},
				"methodIdentifiers": {
					"getMoreBlockInfo()": "9207f67e"
				}
			},
			"storageLayout": {
				"storage": [],
				"types": null
			},
			"userdoc": {
				"kind": "user",
				"methods": {
					"getMoreBlockInfo()": {
						"notice": "Shows updated global block variables after Paris upgrade"
					}
				},
				"notice": "Updated for Ethereum's transition to Proof-of-Stake (Paris Upgrade)",
				"version": 1
			}
		}
	}
}