{
	"5-Data Types/Integers.sol": {
		"IntegerTypes": {
			"abi": [
				{
					"inputs": [
						{
							"internalType": "uint256",
							"name": "firstValue",
							"type": "uint256"
						},
						{
							"internalType": "uint256",
							"name": "secondValue",
							"type": "uint256"
						}
					],
					"name": "add",
					"outputs": [
						{
							"internalType": "uint256",
							"name": "",
							"type": "uint256"
						}
					],
					"stateMutability": "pure",
					"type": "function"
				},
				{
					"inputs": [],
					"name": "count",
					"outputs": [
						{
							"internalType": "int256",
							"name": "",
							"type": "int256"
						}
					],
					"stateMutability": "view",
					"type": "function"
				},
				{
					"inputs": [],
					"name": "count2",
					"outputs": [
						{
							"internalType": "int16",
							"name": "",
							"type": "int16"
						}
					],
					"stateMutability": "view",
					"type": "function"
				},
				{
					"inputs": [],
					"name": "count3",
					"outputs": [
						{
							"internalType": "int32",
							"name": "",
							"type": "int32"
						}
					],
					"stateMutability": "view",
					"type": "function"
				},
				{
					"inputs": [],
					"name": "demonstrateTypeConversions",
					"outputs": [
						{
							"internalType": "uint8",
							"name": "",
							"type": "uint8"
						},
						{
							"internalType": "uint16",
							"name": "",
							"type": "uint16"
						},
						{
							"internalType": "uint32",
							"name": "",
							"type": "uint32"
						}
					],
					"stateMutability": "pure",
					"type": "function"
				},
				{
					"inputs": [
						{
							"internalType": "uint256",
							"name": "firstValue",
							"type": "uint256"
						},
						{
							"internalType": "uint256",
							"name": "secondValue",
							"type": "uint256"
						}
					],
					"name": "explicitSafeAdd",
					"outputs": [
						{
							"internalType": "uint256",
							"name": "",
							"type": "uint256"
						}
					],
					"stateMutability": "pure",
					"type": "function"
				},
				{
					"inputs": [
						{
							"internalType": "uint256",
							"name": "firstValue",
							"type": "uint256"
						},
						{
							"internalType": "uint256",
							"name": "secondValue",
							"type": "uint256"
						}
					],
					"name": "isGreater",
					"outputs": [
						{
							"internalType": "bool",
							"name": "",
							"type": "bool"
						}
					],
					"stateMutability": "pure",
					"type": "function"
				},
				{
					"inputs": [],
					"name": "num",
					"outputs": [
						{
							"internalType": "uint256",
							"name": "",
							"type": "uint256"
						}
					],
					"stateMutability": "view",
					"type": "function"
				},
				{
					"inputs": [],
					"name": "num2",
					"outputs": [
						{
							"internalType": "uint8",
							"name": "",
							"type": "uint8"
						}
					],
					"stateMutability": "view",
					"type": "function"
				},
				{
					"inputs": [],
					"name": "num3",
					"outputs": [
						{
							"internalType": "uint16",
							"name": "",
							"type": "uint16"
						}
					],
					"stateMutability": "view",
					"type": "function"
				},
				{
					"inputs": [
						{
							"internalType": "uint256",
							"name": "largeNumber",
							"type": "uint256"
						}
					],
					"name": "safeConvertToUint8",
					"outputs": [
						{
							"internalType": "uint8",
							"name": "",
							"type": "uint8"
						}
					],
					"stateMutability": "pure",
					"type": "function"
				},
				{
					"inputs": [],
					"name": "stateValueA",
					"outputs": [
						{
							"internalType": "uint256",
							"name": "",
							"type": "uint256"
						}
					],
					"stateMutability": "view",
					"type": "function"
				},
				{
					"inputs": [],
					"name": "stateValueB",
					"outputs": [
						{
							"internalType": "int256",
							"name": "",
							"type": "int256"
						}
					],
					"stateMutability": "view",
					"type": "function"
				},
				{
					"inputs": [
						{
							"internalType": "uint256",
							"name": "newValue",
							"type": "uint256"
						}
					],
					"name": "updateStateValueA",
					"outputs": [],
					"stateMutability": "nonpayable",
					"type": "function"
				},
				{
					"inputs": [
						{
							"internalType": "int256",
							"name": "newValue",
							"type": "int256"
						}
					],
					"name": "updateStateValueB",
					"outputs": [],
					"stateMutability": "nonpayable",
					"type": "function"
				}
			],
			"devdoc": {
				"author": "Your Name",
				"details": "Demonstrates the use of integer types in Solidity with best practices",
				"kind": "dev",
				"methods": {
					"add(uint256,uint256)": {
						"details": "Adds two unsigned integers",
						"params": {
							"firstValue": "First operand (renamed from 'x' for clarity)",
							"secondValue": "Second operand (renamed from 'y' for clarity)"
						},
						"returns": {
							"_0": "Sum of firstValue and secondValue"
						}
					},
					"demonstrateTypeConversions()": {
						"details": "Demonstrates safe type conversions between different integer sizes",
						"returns": {
							"_0": "Tuple of converted values (uint8, uint16, uint32)"
						}
					},
					"explicitSafeAdd(uint256,uint256)": {
						"details": "Adds two numbers with explicit overflow check",
						"params": {
							"firstValue": "First value",
							"secondValue": "Second value"
						},
						"returns": {
							"_0": "Sum of firstValue and secondValue"
						}
					},
					"isGreater(uint256,uint256)": {
						"details": "Compares two unsigned integers",
						"params": {
							"firstValue": "First value to compare (renamed from 'a' to avoid shadowing)",
							"secondValue": "Second value to compare (renamed from 'b' for consistency)"
						},
						"returns": {
							"_0": "true if firstValue > secondValue, false otherwise"
						}
					},
					"safeConvertToUint8(uint256)": {
						"details": "Safely converts a uint256 to uint8 with overflow protection",
						"params": {
							"largeNumber": "Value to convert"
						},
						"returns": {
							"_0": "Converted value"
						}
					},
					"updateStateValueA(uint256)": {
						"details": "Updates the stateValueA variable",
						"params": {
							"newValue": "New value to set"
						}
					},
					"updateStateValueB(int256)": {
						"details": "Updates the stateValueB variable",
						"params": {
							"newValue": "New value to set"
						}
					}
				},
				"stateVariables": {
					"count": {
						"details": "Signed 256-bit integer initialized to 127"
					},
					"count2": {
						"details": "Signed 16-bit integer initialized to -1233"
					},
					"count3": {
						"details": "Signed 32-bit integer initialized to -123456"
					},
					"num": {
						"details": "Unsigned 256-bit integer initialized to 23"
					},
					"num2": {
						"details": "Unsigned 8-bit integer initialized to maximum value (255)"
					},
					"num3": {
						"details": "Unsigned 16-bit integer initialized to 26456"
					},
					"stateValueA": {
						"details": "Default unsigned 256-bit integer (state variable)"
					},
					"stateValueB": {
						"details": "Default signed 256-bit integer (state variable)"
					}
				},
				"title": "Integer Types Demo",
				"version": 1
			},
			"evm": {
				"assembly": "    /* \"5-Data Types/Integers.sol\":271:5130  contract IntegerTypes {... */\n  mstore(0x40, 0x80)\n    /* \"5-Data Types/Integers.sol\":966:969  127 */\n  0x7f\n    /* \"5-Data Types/Integers.sol\":944:969  int256 public count = 127 */\n  0x02\n  sstore\n    /* \"5-Data Types/Integers.sol\":1109:1114  -1233 */\n  0xfffffffffffffffffffffffffffffffffffffffffffffffffffffffffffffb2f\n    /* \"5-Data Types/Integers.sol\":1087:1114  int16 public count2 = -1233 */\n  0x03\n  exp(0x0100, 0x00)\n  dup2\n  sload\n  dup2\n  0xffff\n  mul\n  not\n  and\n  swap1\n  dup4\n  0x01\n  signextend\n  0xffff\n  and\n  mul\n  or\n  swap1\n  sstore\n  pop\n    /* \"5-Data Types/Integers.sol\":1270:1277  -123456 */\n  0xfffffffffffffffffffffffffffffffffffffffffffffffffffffffffffe1dc0\n    /* \"5-Data Types/Integers.sol\":1248:1277  int32 public count3 = -123456 */\n  0x03\n  exp(0x0100, 0x02)\n  dup2\n  sload\n  dup2\n  0xffffffff\n  mul\n  not\n  and\n  swap1\n  dup4\n  0x03\n  signextend\n  0xffffffff\n  and\n  mul\n  or\n  swap1\n  sstore\n  pop\n    /* \"5-Data Types/Integers.sol\":1376:1378  23 */\n  0x17\n    /* \"5-Data Types/Integers.sol\":1355:1378  uint256 public num = 23 */\n  0x04\n  sstore\n    /* \"5-Data Types/Integers.sol\":1522:1525  255 */\n  0xff\n    /* \"5-Data Types/Integers.sol\":1502:1525  uint8 public num2 = 255 */\n  0x05\n  exp(0x0100, 0x00)\n  dup2\n  sload\n  dup2\n  0xff\n  mul\n  not\n  and\n  swap1\n  dup4\n  0xff\n  and\n  mul\n  or\n  swap1\n  sstore\n  pop\n    /* \"5-Data Types/Integers.sol\":1660:1665  26456 */\n  0x6758\n    /* \"5-Data Types/Integers.sol\":1639:1665  uint16 public num3 = 26456 */\n  0x05\n  exp(0x0100, 0x01)\n  dup2\n  sload\n  dup2\n  0xffff\n  mul\n  not\n  and\n  swap1\n  dup4\n  0xffff\n  and\n  mul\n  or\n  swap1\n  sstore\n  pop\n    /* \"5-Data Types/Integers.sol\":271:5130  contract IntegerTypes {... */\n  callvalue\n  dup1\n  iszero\n  tag_1\n  jumpi\n  revert(0x00, 0x00)\ntag_1:\n  pop\n  dataSize(sub_0)\n  dup1\n  dataOffset(sub_0)\n  0x00\n  codecopy\n  0x00\n  return\nstop\n\nsub_0: assembly {\n        /* \"5-Data Types/Integers.sol\":271:5130  contract IntegerTypes {... */\n      mstore(0x40, 0x80)\n      callvalue\n      dup1\n      iszero\n      tag_1\n      jumpi\n      revert(0x00, 0x00)\n    tag_1:\n      pop\n      jumpi(tag_2, lt(calldatasize, 0x04))\n      shr(0xe0, calldataload(0x00))\n      dup1\n      0x74f9032c\n      gt\n      tag_18\n      jumpi\n      dup1\n      0xc612d08d\n      gt\n      tag_19\n      jumpi\n      dup1\n      0xc612d08d\n      eq\n      tag_14\n      jumpi\n      dup1\n      0xc7d5b456\n      eq\n      tag_15\n      jumpi\n      dup1\n      0xca1c2835\n      eq\n      tag_16\n      jumpi\n      dup1\n      0xe3286de6\n      eq\n      tag_17\n      jumpi\n      jump(tag_2)\n    tag_19:\n      dup1\n      0x74f9032c\n      eq\n      tag_10\n      jumpi\n      dup1\n      0x771602f7\n      eq\n      tag_11\n      jumpi\n      dup1\n      0x7b1d829c\n      eq\n      tag_12\n      jumpi\n      dup1\n      0xa531f36a\n      eq\n      tag_13\n      jumpi\n      jump(tag_2)\n    tag_18:\n      dup1\n      0x22800a81\n      gt\n      tag_20\n      jumpi\n      dup1\n      0x22800a81\n      eq\n      tag_6\n      jumpi\n      dup1\n      0x4e34cd39\n      eq\n      tag_7\n      jumpi\n      dup1\n      0x4e70b1dc\n      eq\n      tag_8\n      jumpi\n      dup1\n      0x71cec743\n      eq\n      tag_9\n      jumpi\n      jump(tag_2)\n    tag_20:\n      dup1\n      0x06661abd\n      eq\n      tag_3\n      jumpi\n      dup1\n      0x15d4266c\n      eq\n      tag_4\n      jumpi\n      dup1\n      0x1d63e24d\n      eq\n      tag_5\n      jumpi\n    tag_2:\n      revert(0x00, 0x00)\n        /* \"5-Data Types/Integers.sol\":944:969  int256 public count = 127 */\n    tag_3:\n      tag_21\n      tag_22\n      jump\t// in\n    tag_21:\n      mload(0x40)\n      tag_23\n      swap2\n      swap1\n      tag_24\n      jump\t// in\n    tag_23:\n      mload(0x40)\n      dup1\n      swap2\n      sub\n      swap1\n      return\n        /* \"5-Data Types/Integers.sol\":1502:1525  uint8 public num2 = 255 */\n    tag_4:\n      tag_25\n      tag_26\n      jump\t// in\n    tag_25:\n      mload(0x40)\n      tag_27\n      swap2\n      swap1\n      tag_28\n      jump\t// in\n    tag_27:\n      mload(0x40)\n      dup1\n      swap2\n      sub\n      swap1\n      return\n        /* \"5-Data Types/Integers.sol\":1087:1114  int16 public count2 = -1233 */\n    tag_5:\n      tag_29\n      tag_30\n      jump\t// in\n    tag_29:\n      mload(0x40)\n      tag_31\n      swap2\n      swap1\n      tag_32\n      jump\t// in\n    tag_31:\n      mload(0x40)\n      dup1\n      swap2\n      sub\n      swap1\n      return\n        /* \"5-Data Types/Integers.sol\":3006:3141  function isGreater(uint256 firstValue, uint256 secondValue) public pure returns (bool) {... */\n    tag_6:\n      tag_33\n      0x04\n      dup1\n      calldatasize\n      sub\n      dup2\n      add\n      swap1\n      tag_34\n      swap2\n      swap1\n      tag_35\n      jump\t// in\n    tag_34:\n      tag_36\n      jump\t// in\n    tag_33:\n      mload(0x40)\n      tag_37\n      swap2\n      swap1\n      tag_38\n      jump\t// in\n    tag_37:\n      mload(0x40)\n      dup1\n      swap2\n      sub\n      swap1\n      return\n        /* \"5-Data Types/Integers.sol\":5038:5128  function updateStateValueB(int256 newValue) public {... */\n    tag_7:\n      tag_39\n      0x04\n      dup1\n      calldatasize\n      sub\n      dup2\n      add\n      swap1\n      tag_40\n      swap2\n      swap1\n      tag_41\n      jump\t// in\n    tag_40:\n      tag_42\n      jump\t// in\n    tag_39:\n      stop\n        /* \"5-Data Types/Integers.sol\":1355:1378  uint256 public num = 23 */\n    tag_8:\n      tag_43\n      tag_44\n      jump\t// in\n    tag_43:\n      mload(0x40)\n      tag_45\n      swap2\n      swap1\n      tag_46\n      jump\t// in\n    tag_45:\n      mload(0x40)\n      dup1\n      swap2\n      sub\n      swap1\n      return\n        /* \"5-Data Types/Integers.sol\":4333:4677  function demonstrateTypeConversions() public pure returns (uint8, uint16, uint32) {... */\n    tag_9:\n      tag_47\n      tag_48\n      jump\t// in\n    tag_47:\n      mload(0x40)\n      tag_49\n      swap4\n      swap3\n      swap2\n      swap1\n      tag_50\n      jump\t// in\n    tag_49:\n      mload(0x40)\n      dup1\n      swap2\n      sub\n      swap1\n      return\n        /* \"5-Data Types/Integers.sol\":4840:4931  function updateStateValueA(uint256 newValue) public {... */\n    tag_10:\n      tag_51\n      0x04\n      dup1\n      calldatasize\n      sub\n      dup2\n      add\n      swap1\n      tag_52\n      swap2\n      swap1\n      tag_53\n      jump\t// in\n    tag_52:\n      tag_54\n      jump\t// in\n    tag_51:\n      stop\n        /* \"5-Data Types/Integers.sol\":2573:2705  function add(uint256 firstValue, uint256 secondValue) public pure returns (uint256) {... */\n    tag_11:\n      tag_55\n      0x04\n      dup1\n      calldatasize\n      sub\n      dup2\n      add\n      swap1\n      tag_56\n      swap2\n      swap1\n      tag_35\n      jump\t// in\n    tag_56:\n      tag_57\n      jump\t// in\n    tag_55:\n      mload(0x40)\n      tag_58\n      swap2\n      swap1\n      tag_46\n      jump\t// in\n    tag_58:\n      mload(0x40)\n      dup1\n      swap2\n      sub\n      swap1\n      return\n        /* \"5-Data Types/Integers.sol\":1248:1277  int32 public count3 = -123456 */\n    tag_12:\n      tag_59\n      tag_60\n      jump\t// in\n    tag_59:\n      mload(0x40)\n      tag_61\n      swap2\n      swap1\n      tag_62\n      jump\t// in\n    tag_61:\n      mload(0x40)\n      dup1\n      swap2\n      sub\n      swap1\n      return\n        /* \"5-Data Types/Integers.sol\":1639:1665  uint16 public num3 = 26456 */\n    tag_13:\n      tag_63\n      tag_64\n      jump\t// in\n    tag_63:\n      mload(0x40)\n      tag_65\n      swap2\n      swap1\n      tag_66\n      jump\t// in\n    tag_65:\n      mload(0x40)\n      dup1\n      swap2\n      sub\n      swap1\n      return\n        /* \"5-Data Types/Integers.sol\":3367:3566  function safeConvertToUint8(uint256 largeNumber) public pure returns (uint8) {... */\n    tag_14:\n      tag_67\n      0x04\n      dup1\n      calldatasize\n      sub\n      dup2\n      add\n      swap1\n      tag_68\n      swap2\n      swap1\n      tag_53\n      jump\t// in\n    tag_68:\n      tag_69\n      jump\t// in\n    tag_67:\n      mload(0x40)\n      tag_70\n      swap2\n      swap1\n      tag_28\n      jump\t// in\n    tag_70:\n      mload(0x40)\n      dup1\n      swap2\n      sub\n      swap1\n      return\n        /* \"5-Data Types/Integers.sol\":3859:4102  function explicitSafeAdd(uint256 firstValue, uint256 secondValue) public pure returns (uint256) {... */\n    tag_15:\n      tag_71\n      0x04\n      dup1\n      calldatasize\n      sub\n      dup2\n      add\n      swap1\n      tag_72\n      swap2\n      swap1\n      tag_35\n      jump\t// in\n    tag_72:\n      tag_73\n      jump\t// in\n    tag_71:\n      mload(0x40)\n      tag_74\n      swap2\n      swap1\n      tag_46\n      jump\t// in\n    tag_74:\n      mload(0x40)\n      dup1\n      swap2\n      sub\n      swap1\n      return\n        /* \"5-Data Types/Integers.sol\":805:830  int256 public stateValueB */\n    tag_16:\n      tag_75\n      tag_76\n      jump\t// in\n    tag_75:\n      mload(0x40)\n      tag_77\n      swap2\n      swap1\n      tag_24\n      jump\t// in\n    tag_77:\n      mload(0x40)\n      dup1\n      swap2\n      sub\n      swap1\n      return\n        /* \"5-Data Types/Integers.sol\":603:629  uint256 public stateValueA */\n    tag_17:\n      tag_78\n      tag_79\n      jump\t// in\n    tag_78:\n      mload(0x40)\n      tag_80\n      swap2\n      swap1\n      tag_46\n      jump\t// in\n    tag_80:\n      mload(0x40)\n      dup1\n      swap2\n      sub\n      swap1\n      return\n        /* \"5-Data Types/Integers.sol\":944:969  int256 public count = 127 */\n    tag_22:\n      sload(0x02)\n      dup2\n      jump\t// out\n        /* \"5-Data Types/Integers.sol\":1502:1525  uint8 public num2 = 255 */\n    tag_26:\n      0x05\n      0x00\n      swap1\n      sload\n      swap1\n      0x0100\n      exp\n      swap1\n      div\n      0xff\n      and\n      dup2\n      jump\t// out\n        /* \"5-Data Types/Integers.sol\":1087:1114  int16 public count2 = -1233 */\n    tag_30:\n      0x03\n      0x00\n      swap1\n      sload\n      swap1\n      0x0100\n      exp\n      swap1\n      div\n      0x01\n      signextend\n      dup2\n      jump\t// out\n        /* \"5-Data Types/Integers.sol\":3006:3141  function isGreater(uint256 firstValue, uint256 secondValue) public pure returns (bool) {... */\n    tag_36:\n        /* \"5-Data Types/Integers.sol\":3087:3091  bool */\n      0x00\n        /* \"5-Data Types/Integers.sol\":3123:3134  secondValue */\n      dup2\n        /* \"5-Data Types/Integers.sol\":3110:3120  firstValue */\n      dup4\n        /* \"5-Data Types/Integers.sol\":3110:3134  firstValue > secondValue */\n      gt\n        /* \"5-Data Types/Integers.sol\":3103:3134  return firstValue > secondValue */\n      swap1\n      pop\n        /* \"5-Data Types/Integers.sol\":3006:3141  function isGreater(uint256 firstValue, uint256 secondValue) public pure returns (bool) {... */\n      swap3\n      swap2\n      pop\n      pop\n      jump\t// out\n        /* \"5-Data Types/Integers.sol\":5038:5128  function updateStateValueB(int256 newValue) public {... */\n    tag_42:\n        /* \"5-Data Types/Integers.sol\":5113:5121  newValue */\n      dup1\n        /* \"5-Data Types/Integers.sol\":5099:5110  stateValueB */\n      0x01\n        /* \"5-Data Types/Integers.sol\":5099:5121  stateValueB = newValue */\n      dup2\n      swap1\n      sstore\n      pop\n        /* \"5-Data Types/Integers.sol\":5038:5128  function updateStateValueB(int256 newValue) public {... */\n      pop\n      jump\t// out\n        /* \"5-Data Types/Integers.sol\":1355:1378  uint256 public num = 23 */\n    tag_44:\n      sload(0x04)\n      dup2\n      jump\t// out\n        /* \"5-Data Types/Integers.sol\":4333:4677  function demonstrateTypeConversions() public pure returns (uint8, uint16, uint32) {... */\n    tag_48:\n        /* \"5-Data Types/Integers.sol\":4392:4397  uint8 */\n      0x00\n        /* \"5-Data Types/Integers.sol\":4399:4405  uint16 */\n      0x00\n        /* \"5-Data Types/Integers.sol\":4407:4413  uint32 */\n      0x00\n        /* \"5-Data Types/Integers.sol\":4425:4444  uint256 largeNumber */\n      0x00\n        /* \"5-Data Types/Integers.sol\":4447:4450  250 */\n      0xfa\n        /* \"5-Data Types/Integers.sol\":4425:4450  uint256 largeNumber = 250 */\n      swap1\n      pop\n        /* \"5-Data Types/Integers.sol\":4501:4513  uint8 small8 */\n      0x00\n        /* \"5-Data Types/Integers.sol\":4522:4533  largeNumber */\n      dup2\n        /* \"5-Data Types/Integers.sol\":4501:4534  uint8 small8 = uint8(largeNumber) */\n      swap1\n      pop\n        /* \"5-Data Types/Integers.sol\":4544:4558  uint16 small16 */\n      0x00\n        /* \"5-Data Types/Integers.sol\":4568:4579  largeNumber */\n      dup3\n        /* \"5-Data Types/Integers.sol\":4544:4580  uint16 small16 = uint16(largeNumber) */\n      swap1\n      pop\n        /* \"5-Data Types/Integers.sol\":4590:4604  uint32 small32 */\n      0x00\n        /* \"5-Data Types/Integers.sol\":4614:4625  largeNumber */\n      dup4\n        /* \"5-Data Types/Integers.sol\":4590:4626  uint32 small32 = uint32(largeNumber) */\n      swap1\n      pop\n        /* \"5-Data Types/Integers.sol\":4645:4651  small8 */\n      dup3\n        /* \"5-Data Types/Integers.sol\":4653:4660  small16 */\n      dup3\n        /* \"5-Data Types/Integers.sol\":4662:4669  small32 */\n      dup3\n        /* \"5-Data Types/Integers.sol\":4637:4670  return (small8, small16, small32) */\n      swap7\n      pop\n      swap7\n      pop\n      swap7\n      pop\n      pop\n      pop\n      pop\n      pop\n        /* \"5-Data Types/Integers.sol\":4333:4677  function demonstrateTypeConversions() public pure returns (uint8, uint16, uint32) {... */\n      swap1\n      swap2\n      swap3\n      jump\t// out\n        /* \"5-Data Types/Integers.sol\":4840:4931  function updateStateValueA(uint256 newValue) public {... */\n    tag_54:\n        /* \"5-Data Types/Integers.sol\":4916:4924  newValue */\n      dup1\n        /* \"5-Data Types/Integers.sol\":4902:4913  stateValueA */\n      0x00\n        /* \"5-Data Types/Integers.sol\":4902:4924  stateValueA = newValue */\n      dup2\n      swap1\n      sstore\n      pop\n        /* \"5-Data Types/Integers.sol\":4840:4931  function updateStateValueA(uint256 newValue) public {... */\n      pop\n      jump\t// out\n        /* \"5-Data Types/Integers.sol\":2573:2705  function add(uint256 firstValue, uint256 secondValue) public pure returns (uint256) {... */\n    tag_57:\n        /* \"5-Data Types/Integers.sol\":2648:2655  uint256 */\n      0x00\n        /* \"5-Data Types/Integers.sol\":2687:2698  secondValue */\n      dup2\n        /* \"5-Data Types/Integers.sol\":2674:2684  firstValue */\n      dup4\n        /* \"5-Data Types/Integers.sol\":2674:2698  firstValue + secondValue */\n      tag_86\n      swap2\n      swap1\n      tag_87\n      jump\t// in\n    tag_86:\n        /* \"5-Data Types/Integers.sol\":2667:2698  return firstValue + secondValue */\n      swap1\n      pop\n        /* \"5-Data Types/Integers.sol\":2573:2705  function add(uint256 firstValue, uint256 secondValue) public pure returns (uint256) {... */\n      swap3\n      swap2\n      pop\n      pop\n      jump\t// out\n        /* \"5-Data Types/Integers.sol\":1248:1277  int32 public count3 = -123456 */\n    tag_60:\n      0x03\n      0x02\n      swap1\n      sload\n      swap1\n      0x0100\n      exp\n      swap1\n      div\n      0x03\n      signextend\n      dup2\n      jump\t// out\n        /* \"5-Data Types/Integers.sol\":1639:1665  uint16 public num3 = 26456 */\n    tag_64:\n      0x05\n      0x01\n      swap1\n      sload\n      swap1\n      0x0100\n      exp\n      swap1\n      div\n      0xffff\n      and\n      dup2\n      jump\t// out\n        /* \"5-Data Types/Integers.sol\":3367:3566  function safeConvertToUint8(uint256 largeNumber) public pure returns (uint8) {... */\n    tag_69:\n        /* \"5-Data Types/Integers.sol\":3437:3442  uint8 */\n      0x00\n        /* \"5-Data Types/Integers.sol\":3477:3480  255 */\n      0xff\n        /* \"5-Data Types/Integers.sol\":3462:3473  largeNumber */\n      dup3\n        /* \"5-Data Types/Integers.sol\":3462:3480  largeNumber <= 255 */\n      gt\n      iszero\n        /* \"5-Data Types/Integers.sol\":3454:3524  require(largeNumber <= 255, \"IntegerTypes: value exceeds uint8 range\") */\n      tag_89\n      jumpi\n      mload(0x40)\n      0x08c379a000000000000000000000000000000000000000000000000000000000\n      dup2\n      mstore\n      0x04\n      add\n      tag_90\n      swap1\n      tag_91\n      jump\t// in\n    tag_90:\n      mload(0x40)\n      dup1\n      swap2\n      sub\n      swap1\n      revert\n    tag_89:\n        /* \"5-Data Types/Integers.sol\":3547:3558  largeNumber */\n      dup2\n        /* \"5-Data Types/Integers.sol\":3534:3559  return uint8(largeNumber) */\n      swap1\n      pop\n        /* \"5-Data Types/Integers.sol\":3367:3566  function safeConvertToUint8(uint256 largeNumber) public pure returns (uint8) {... */\n      swap2\n      swap1\n      pop\n      jump\t// out\n        /* \"5-Data Types/Integers.sol\":3859:4102  function explicitSafeAdd(uint256 firstValue, uint256 secondValue) public pure returns (uint256) {... */\n    tag_73:\n        /* \"5-Data Types/Integers.sol\":3946:3953  uint256 */\n      0x00\n        /* \"5-Data Types/Integers.sol\":4008:4018  firstValue */\n      dup3\n        /* \"5-Data Types/Integers.sol\":3988:4005  type(uint256).max */\n      0xffffffffffffffffffffffffffffffffffffffffffffffffffffffffffffffff\n        /* \"5-Data Types/Integers.sol\":3988:4018  type(uint256).max - firstValue */\n      tag_93\n      swap2\n      swap1\n      tag_94\n      jump\t// in\n    tag_93:\n        /* \"5-Data Types/Integers.sol\":3973:3984  secondValue */\n      dup3\n        /* \"5-Data Types/Integers.sol\":3973:4018  secondValue <= type(uint256).max - firstValue */\n      gt\n      iszero\n        /* \"5-Data Types/Integers.sol\":3965:4054  require(secondValue <= type(uint256).max - firstValue, \"IntegerTypes: addition overflow\") */\n      tag_95\n      jumpi\n      mload(0x40)\n      0x08c379a000000000000000000000000000000000000000000000000000000000\n      dup2\n      mstore\n      0x04\n      add\n      tag_96\n      swap1\n      tag_97\n      jump\t// in\n    tag_96:\n      mload(0x40)\n      dup1\n      swap2\n      sub\n      swap1\n      revert\n    tag_95:\n        /* \"5-Data Types/Integers.sol\":4084:4095  secondValue */\n      dup2\n        /* \"5-Data Types/Integers.sol\":4071:4081  firstValue */\n      dup4\n        /* \"5-Data Types/Integers.sol\":4071:4095  firstValue + secondValue */\n      tag_98\n      swap2\n      swap1\n      tag_87\n      jump\t// in\n    tag_98:\n        /* \"5-Data Types/Integers.sol\":4064:4095  return firstValue + secondValue */\n      swap1\n      pop\n        /* \"5-Data Types/Integers.sol\":3859:4102  function explicitSafeAdd(uint256 firstValue, uint256 secondValue) public pure returns (uint256) {... */\n      swap3\n      swap2\n      pop\n      pop\n      jump\t// out\n        /* \"5-Data Types/Integers.sol\":805:830  int256 public stateValueB */\n    tag_76:\n      sload(0x01)\n      dup2\n      jump\t// out\n        /* \"5-Data Types/Integers.sol\":603:629  uint256 public stateValueA */\n    tag_79:\n      sload(0x00)\n      dup2\n      jump\t// out\n        /* \"#utility.yul\":7:83   */\n    tag_99:\n        /* \"#utility.yul\":43:50   */\n      0x00\n        /* \"#utility.yul\":72:77   */\n      dup2\n        /* \"#utility.yul\":61:77   */\n      swap1\n      pop\n        /* \"#utility.yul\":7:83   */\n      swap2\n      swap1\n      pop\n      jump\t// out\n        /* \"#utility.yul\":89:204   */\n    tag_100:\n        /* \"#utility.yul\":174:197   */\n      tag_131\n        /* \"#utility.yul\":191:196   */\n      dup2\n        /* \"#utility.yul\":174:197   */\n      tag_99\n      jump\t// in\n    tag_131:\n        /* \"#utility.yul\":169:172   */\n      dup3\n        /* \"#utility.yul\":162:198   */\n      mstore\n        /* \"#utility.yul\":89:204   */\n      pop\n      pop\n      jump\t// out\n        /* \"#utility.yul\":210:428   */\n    tag_24:\n        /* \"#utility.yul\":301:305   */\n      0x00\n        /* \"#utility.yul\":339:341   */\n      0x20\n        /* \"#utility.yul\":328:337   */\n      dup3\n        /* \"#utility.yul\":324:342   */\n      add\n        /* \"#utility.yul\":316:342   */\n      swap1\n      pop\n        /* \"#utility.yul\":352:421   */\n      tag_133\n        /* \"#utility.yul\":418:419   */\n      0x00\n        /* \"#utility.yul\":407:416   */\n      dup4\n        /* \"#utility.yul\":403:420   */\n      add\n        /* \"#utility.yul\":394:400   */\n      dup5\n        /* \"#utility.yul\":352:421   */\n      tag_100\n      jump\t// in\n    tag_133:\n        /* \"#utility.yul\":210:428   */\n      swap3\n      swap2\n      pop\n      pop\n      jump\t// out\n        /* \"#utility.yul\":434:520   */\n    tag_101:\n        /* \"#utility.yul\":469:476   */\n      0x00\n        /* \"#utility.yul\":509:513   */\n      0xff\n        /* \"#utility.yul\":502:507   */\n      dup3\n        /* \"#utility.yul\":498:514   */\n      and\n        /* \"#utility.yul\":487:514   */\n      swap1\n      pop\n        /* \"#utility.yul\":434:520   */\n      swap2\n      swap1\n      pop\n      jump\t// out\n        /* \"#utility.yul\":526:638   */\n    tag_102:\n        /* \"#utility.yul\":609:631   */\n      tag_136\n        /* \"#utility.yul\":625:630   */\n      dup2\n        /* \"#utility.yul\":609:631   */\n      tag_101\n      jump\t// in\n    tag_136:\n        /* \"#utility.yul\":604:607   */\n      dup3\n        /* \"#utility.yul\":597:632   */\n      mstore\n        /* \"#utility.yul\":526:638   */\n      pop\n      pop\n      jump\t// out\n        /* \"#utility.yul\":644:858   */\n    tag_28:\n        /* \"#utility.yul\":733:737   */\n      0x00\n        /* \"#utility.yul\":771:773   */\n      0x20\n        /* \"#utility.yul\":760:769   */\n      dup3\n        /* \"#utility.yul\":756:774   */\n      add\n        /* \"#utility.yul\":748:774   */\n      swap1\n      pop\n        /* \"#utility.yul\":784:851   */\n      tag_138\n        /* \"#utility.yul\":848:849   */\n      0x00\n        /* \"#utility.yul\":837:846   */\n      dup4\n        /* \"#utility.yul\":833:850   */\n      add\n        /* \"#utility.yul\":824:830   */\n      dup5\n        /* \"#utility.yul\":784:851   */\n      tag_102\n      jump\t// in\n    tag_138:\n        /* \"#utility.yul\":644:858   */\n      swap3\n      swap2\n      pop\n      pop\n      jump\t// out\n        /* \"#utility.yul\":864:954   */\n    tag_103:\n        /* \"#utility.yul\":899:906   */\n      0x00\n        /* \"#utility.yul\":942:947   */\n      dup2\n        /* \"#utility.yul\":939:940   */\n      0x01\n        /* \"#utility.yul\":928:948   */\n      signextend\n        /* \"#utility.yul\":917:948   */\n      swap1\n      pop\n        /* \"#utility.yul\":864:954   */\n      swap2\n      swap1\n      pop\n      jump\t// out\n        /* \"#utility.yul\":960:1072   */\n    tag_104:\n        /* \"#utility.yul\":1043:1065   */\n      tag_141\n        /* \"#utility.yul\":1059:1064   */\n      dup2\n        /* \"#utility.yul\":1043:1065   */\n      tag_103\n      jump\t// in\n    tag_141:\n        /* \"#utility.yul\":1038:1041   */\n      dup3\n        /* \"#utility.yul\":1031:1066   */\n      mstore\n        /* \"#utility.yul\":960:1072   */\n      pop\n      pop\n      jump\t// out\n        /* \"#utility.yul\":1078:1292   */\n    tag_32:\n        /* \"#utility.yul\":1167:1171   */\n      0x00\n        /* \"#utility.yul\":1205:1207   */\n      0x20\n        /* \"#utility.yul\":1194:1203   */\n      dup3\n        /* \"#utility.yul\":1190:1208   */\n      add\n        /* \"#utility.yul\":1182:1208   */\n      swap1\n      pop\n        /* \"#utility.yul\":1218:1285   */\n      tag_143\n        /* \"#utility.yul\":1282:1283   */\n      0x00\n        /* \"#utility.yul\":1271:1280   */\n      dup4\n        /* \"#utility.yul\":1267:1284   */\n      add\n        /* \"#utility.yul\":1258:1264   */\n      dup5\n        /* \"#utility.yul\":1218:1285   */\n      tag_104\n      jump\t// in\n    tag_143:\n        /* \"#utility.yul\":1078:1292   */\n      swap3\n      swap2\n      pop\n      pop\n      jump\t// out\n        /* \"#utility.yul\":1379:1496   */\n    tag_106:\n        /* \"#utility.yul\":1488:1489   */\n      0x00\n        /* \"#utility.yul\":1485:1486   */\n      0x00\n        /* \"#utility.yul\":1478:1490   */\n      revert\n        /* \"#utility.yul\":1625:1702   */\n    tag_108:\n        /* \"#utility.yul\":1662:1669   */\n      0x00\n        /* \"#utility.yul\":1691:1696   */\n      dup2\n        /* \"#utility.yul\":1680:1696   */\n      swap1\n      pop\n        /* \"#utility.yul\":1625:1702   */\n      swap2\n      swap1\n      pop\n      jump\t// out\n        /* \"#utility.yul\":1708:1830   */\n    tag_109:\n        /* \"#utility.yul\":1781:1805   */\n      tag_149\n        /* \"#utility.yul\":1799:1804   */\n      dup2\n        /* \"#utility.yul\":1781:1805   */\n      tag_108\n      jump\t// in\n    tag_149:\n        /* \"#utility.yul\":1774:1779   */\n      dup2\n        /* \"#utility.yul\":1771:1806   */\n      eq\n        /* \"#utility.yul\":1761:1824   */\n      tag_150\n      jumpi\n        /* \"#utility.yul\":1820:1821   */\n      0x00\n        /* \"#utility.yul\":1817:1818   */\n      0x00\n        /* \"#utility.yul\":1810:1822   */\n      revert\n        /* \"#utility.yul\":1761:1824   */\n    tag_150:\n        /* \"#utility.yul\":1708:1830   */\n      pop\n      jump\t// out\n        /* \"#utility.yul\":1836:1975   */\n    tag_110:\n        /* \"#utility.yul\":1882:1887   */\n      0x00\n        /* \"#utility.yul\":1920:1926   */\n      dup2\n        /* \"#utility.yul\":1907:1927   */\n      calldataload\n        /* \"#utility.yul\":1898:1927   */\n      swap1\n      pop\n        /* \"#utility.yul\":1936:1969   */\n      tag_152\n        /* \"#utility.yul\":1963:1968   */\n      dup2\n        /* \"#utility.yul\":1936:1969   */\n      tag_109\n      jump\t// in\n    tag_152:\n        /* \"#utility.yul\":1836:1975   */\n      swap3\n      swap2\n      pop\n      pop\n      jump\t// out\n        /* \"#utility.yul\":1981:2455   */\n    tag_35:\n        /* \"#utility.yul\":2049:2055   */\n      0x00\n        /* \"#utility.yul\":2057:2063   */\n      0x00\n        /* \"#utility.yul\":2106:2108   */\n      0x40\n        /* \"#utility.yul\":2094:2103   */\n      dup4\n        /* \"#utility.yul\":2085:2092   */\n      dup6\n        /* \"#utility.yul\":2081:2104   */\n      sub\n        /* \"#utility.yul\":2077:2109   */\n      slt\n        /* \"#utility.yul\":2074:2193   */\n      iszero\n      tag_154\n      jumpi\n        /* \"#utility.yul\":2112:2191   */\n      tag_155\n      tag_106\n      jump\t// in\n    tag_155:\n        /* \"#utility.yul\":2074:2193   */\n    tag_154:\n        /* \"#utility.yul\":2232:2233   */\n      0x00\n        /* \"#utility.yul\":2257:2310   */\n      tag_156\n        /* \"#utility.yul\":2302:2309   */\n      dup6\n        /* \"#utility.yul\":2293:2299   */\n      dup3\n        /* \"#utility.yul\":2282:2291   */\n      dup7\n        /* \"#utility.yul\":2278:2300   */\n      add\n        /* \"#utility.yul\":2257:2310   */\n      tag_110\n      jump\t// in\n    tag_156:\n        /* \"#utility.yul\":2247:2310   */\n      swap3\n      pop\n        /* \"#utility.yul\":2203:2320   */\n      pop\n        /* \"#utility.yul\":2359:2361   */\n      0x20\n        /* \"#utility.yul\":2385:2438   */\n      tag_157\n        /* \"#utility.yul\":2430:2437   */\n      dup6\n        /* \"#utility.yul\":2421:2427   */\n      dup3\n        /* \"#utility.yul\":2410:2419   */\n      dup7\n        /* \"#utility.yul\":2406:2428   */\n      add\n        /* \"#utility.yul\":2385:2438   */\n      tag_110\n      jump\t// in\n    tag_157:\n        /* \"#utility.yul\":2375:2438   */\n      swap2\n      pop\n        /* \"#utility.yul\":2330:2448   */\n      pop\n        /* \"#utility.yul\":1981:2455   */\n      swap3\n      pop\n      swap3\n      swap1\n      pop\n      jump\t// out\n        /* \"#utility.yul\":2461:2551   */\n    tag_111:\n        /* \"#utility.yul\":2495:2502   */\n      0x00\n        /* \"#utility.yul\":2538:2543   */\n      dup2\n        /* \"#utility.yul\":2531:2544   */\n      iszero\n        /* \"#utility.yul\":2524:2545   */\n      iszero\n        /* \"#utility.yul\":2513:2545   */\n      swap1\n      pop\n        /* \"#utility.yul\":2461:2551   */\n      swap2\n      swap1\n      pop\n      jump\t// out\n        /* \"#utility.yul\":2557:2666   */\n    tag_112:\n        /* \"#utility.yul\":2638:2659   */\n      tag_160\n        /* \"#utility.yul\":2653:2658   */\n      dup2\n        /* \"#utility.yul\":2638:2659   */\n      tag_111\n      jump\t// in\n    tag_160:\n        /* \"#utility.yul\":2633:2636   */\n      dup3\n        /* \"#utility.yul\":2626:2660   */\n      mstore\n        /* \"#utility.yul\":2557:2666   */\n      pop\n      pop\n      jump\t// out\n        /* \"#utility.yul\":2672:2882   */\n    tag_38:\n        /* \"#utility.yul\":2759:2763   */\n      0x00\n        /* \"#utility.yul\":2797:2799   */\n      0x20\n        /* \"#utility.yul\":2786:2795   */\n      dup3\n        /* \"#utility.yul\":2782:2800   */\n      add\n        /* \"#utility.yul\":2774:2800   */\n      swap1\n      pop\n        /* \"#utility.yul\":2810:2875   */\n      tag_162\n        /* \"#utility.yul\":2872:2873   */\n      0x00\n        /* \"#utility.yul\":2861:2870   */\n      dup4\n        /* \"#utility.yul\":2857:2874   */\n      add\n        /* \"#utility.yul\":2848:2854   */\n      dup5\n        /* \"#utility.yul\":2810:2875   */\n      tag_112\n      jump\t// in\n    tag_162:\n        /* \"#utility.yul\":2672:2882   */\n      swap3\n      swap2\n      pop\n      pop\n      jump\t// out\n        /* \"#utility.yul\":2888:3008   */\n    tag_113:\n        /* \"#utility.yul\":2960:2983   */\n      tag_164\n        /* \"#utility.yul\":2977:2982   */\n      dup2\n        /* \"#utility.yul\":2960:2983   */\n      tag_99\n      jump\t// in\n    tag_164:\n        /* \"#utility.yul\":2953:2958   */\n      dup2\n        /* \"#utility.yul\":2950:2984   */\n      eq\n        /* \"#utility.yul\":2940:3002   */\n      tag_165\n      jumpi\n        /* \"#utility.yul\":2998:2999   */\n      0x00\n        /* \"#utility.yul\":2995:2996   */\n      0x00\n        /* \"#utility.yul\":2988:3000   */\n      revert\n        /* \"#utility.yul\":2940:3002   */\n    tag_165:\n        /* \"#utility.yul\":2888:3008   */\n      pop\n      jump\t// out\n        /* \"#utility.yul\":3014:3151   */\n    tag_114:\n        /* \"#utility.yul\":3059:3064   */\n      0x00\n        /* \"#utility.yul\":3097:3103   */\n      dup2\n        /* \"#utility.yul\":3084:3104   */\n      calldataload\n        /* \"#utility.yul\":3075:3104   */\n      swap1\n      pop\n        /* \"#utility.yul\":3113:3145   */\n      tag_167\n        /* \"#utility.yul\":3139:3144   */\n      dup2\n        /* \"#utility.yul\":3113:3145   */\n      tag_113\n      jump\t// in\n    tag_167:\n        /* \"#utility.yul\":3014:3151   */\n      swap3\n      swap2\n      pop\n      pop\n      jump\t// out\n        /* \"#utility.yul\":3157:3484   */\n    tag_41:\n        /* \"#utility.yul\":3215:3221   */\n      0x00\n        /* \"#utility.yul\":3264:3266   */\n      0x20\n        /* \"#utility.yul\":3252:3261   */\n      dup3\n        /* \"#utility.yul\":3243:3250   */\n      dup5\n        /* \"#utility.yul\":3239:3262   */\n      sub\n        /* \"#utility.yul\":3235:3267   */\n      slt\n        /* \"#utility.yul\":3232:3351   */\n      iszero\n      tag_169\n      jumpi\n        /* \"#utility.yul\":3270:3349   */\n      tag_170\n      tag_106\n      jump\t// in\n    tag_170:\n        /* \"#utility.yul\":3232:3351   */\n    tag_169:\n        /* \"#utility.yul\":3390:3391   */\n      0x00\n        /* \"#utility.yul\":3415:3467   */\n      tag_171\n        /* \"#utility.yul\":3459:3466   */\n      dup5\n        /* \"#utility.yul\":3450:3456   */\n      dup3\n        /* \"#utility.yul\":3439:3448   */\n      dup6\n        /* \"#utility.yul\":3435:3457   */\n      add\n        /* \"#utility.yul\":3415:3467   */\n      tag_114\n      jump\t// in\n    tag_171:\n        /* \"#utility.yul\":3405:3467   */\n      swap2\n      pop\n        /* \"#utility.yul\":3361:3477   */\n      pop\n        /* \"#utility.yul\":3157:3484   */\n      swap3\n      swap2\n      pop\n      pop\n      jump\t// out\n        /* \"#utility.yul\":3490:3608   */\n    tag_115:\n        /* \"#utility.yul\":3577:3601   */\n      tag_173\n        /* \"#utility.yul\":3595:3600   */\n      dup2\n        /* \"#utility.yul\":3577:3601   */\n      tag_108\n      jump\t// in\n    tag_173:\n        /* \"#utility.yul\":3572:3575   */\n      dup3\n        /* \"#utility.yul\":3565:3602   */\n      mstore\n        /* \"#utility.yul\":3490:3608   */\n      pop\n      pop\n      jump\t// out\n        /* \"#utility.yul\":3614:3836   */\n    tag_46:\n        /* \"#utility.yul\":3707:3711   */\n      0x00\n        /* \"#utility.yul\":3745:3747   */\n      0x20\n        /* \"#utility.yul\":3734:3743   */\n      dup3\n        /* \"#utility.yul\":3730:3748   */\n      add\n        /* \"#utility.yul\":3722:3748   */\n      swap1\n      pop\n        /* \"#utility.yul\":3758:3829   */\n      tag_175\n        /* \"#utility.yul\":3826:3827   */\n      0x00\n        /* \"#utility.yul\":3815:3824   */\n      dup4\n        /* \"#utility.yul\":3811:3828   */\n      add\n        /* \"#utility.yul\":3802:3808   */\n      dup5\n        /* \"#utility.yul\":3758:3829   */\n      tag_115\n      jump\t// in\n    tag_175:\n        /* \"#utility.yul\":3614:3836   */\n      swap3\n      swap2\n      pop\n      pop\n      jump\t// out\n        /* \"#utility.yul\":3842:3931   */\n    tag_116:\n        /* \"#utility.yul\":3878:3885   */\n      0x00\n        /* \"#utility.yul\":3918:3924   */\n      0xffff\n        /* \"#utility.yul\":3911:3916   */\n      dup3\n        /* \"#utility.yul\":3907:3925   */\n      and\n        /* \"#utility.yul\":3896:3925   */\n      swap1\n      pop\n        /* \"#utility.yul\":3842:3931   */\n      swap2\n      swap1\n      pop\n      jump\t// out\n        /* \"#utility.yul\":3937:4052   */\n    tag_117:\n        /* \"#utility.yul\":4022:4045   */\n      tag_178\n        /* \"#utility.yul\":4039:4044   */\n      dup2\n        /* \"#utility.yul\":4022:4045   */\n      tag_116\n      jump\t// in\n    tag_178:\n        /* \"#utility.yul\":4017:4020   */\n      dup3\n        /* \"#utility.yul\":4010:4046   */\n      mstore\n        /* \"#utility.yul\":3937:4052   */\n      pop\n      pop\n      jump\t// out\n        /* \"#utility.yul\":4058:4151   */\n    tag_118:\n        /* \"#utility.yul\":4094:4101   */\n      0x00\n        /* \"#utility.yul\":4134:4144   */\n      0xffffffff\n        /* \"#utility.yul\":4127:4132   */\n      dup3\n        /* \"#utility.yul\":4123:4145   */\n      and\n        /* \"#utility.yul\":4112:4145   */\n      swap1\n      pop\n        /* \"#utility.yul\":4058:4151   */\n      swap2\n      swap1\n      pop\n      jump\t// out\n        /* \"#utility.yul\":4157:4272   */\n    tag_119:\n        /* \"#utility.yul\":4242:4265   */\n      tag_181\n        /* \"#utility.yul\":4259:4264   */\n      dup2\n        /* \"#utility.yul\":4242:4265   */\n      tag_118\n      jump\t// in\n    tag_181:\n        /* \"#utility.yul\":4237:4240   */\n      dup3\n        /* \"#utility.yul\":4230:4266   */\n      mstore\n        /* \"#utility.yul\":4157:4272   */\n      pop\n      pop\n      jump\t// out\n        /* \"#utility.yul\":4278:4704   */\n    tag_50:\n        /* \"#utility.yul\":4419:4423   */\n      0x00\n        /* \"#utility.yul\":4457:4459   */\n      0x60\n        /* \"#utility.yul\":4446:4455   */\n      dup3\n        /* \"#utility.yul\":4442:4460   */\n      add\n        /* \"#utility.yul\":4434:4460   */\n      swap1\n      pop\n        /* \"#utility.yul\":4470:4537   */\n      tag_183\n        /* \"#utility.yul\":4534:4535   */\n      0x00\n        /* \"#utility.yul\":4523:4532   */\n      dup4\n        /* \"#utility.yul\":4519:4536   */\n      add\n        /* \"#utility.yul\":4510:4516   */\n      dup7\n        /* \"#utility.yul\":4470:4537   */\n      tag_102\n      jump\t// in\n    tag_183:\n        /* \"#utility.yul\":4547:4617   */\n      tag_184\n        /* \"#utility.yul\":4613:4615   */\n      0x20\n        /* \"#utility.yul\":4602:4611   */\n      dup4\n        /* \"#utility.yul\":4598:4616   */\n      add\n        /* \"#utility.yul\":4589:4595   */\n      dup6\n        /* \"#utility.yul\":4547:4617   */\n      tag_117\n      jump\t// in\n    tag_184:\n        /* \"#utility.yul\":4627:4697   */\n      tag_185\n        /* \"#utility.yul\":4693:4695   */\n      0x40\n        /* \"#utility.yul\":4682:4691   */\n      dup4\n        /* \"#utility.yul\":4678:4696   */\n      add\n        /* \"#utility.yul\":4669:4675   */\n      dup5\n        /* \"#utility.yul\":4627:4697   */\n      tag_119\n      jump\t// in\n    tag_185:\n        /* \"#utility.yul\":4278:4704   */\n      swap5\n      swap4\n      pop\n      pop\n      pop\n      pop\n      jump\t// out\n        /* \"#utility.yul\":4710:5039   */\n    tag_53:\n        /* \"#utility.yul\":4769:4775   */\n      0x00\n        /* \"#utility.yul\":4818:4820   */\n      0x20\n        /* \"#utility.yul\":4806:4815   */\n      dup3\n        /* \"#utility.yul\":4797:4804   */\n      dup5\n        /* \"#utility.yul\":4793:4816   */\n      sub\n        /* \"#utility.yul\":4789:4821   */\n      slt\n        /* \"#utility.yul\":4786:4905   */\n      iszero\n      tag_187\n      jumpi\n        /* \"#utility.yul\":4824:4903   */\n      tag_188\n      tag_106\n      jump\t// in\n    tag_188:\n        /* \"#utility.yul\":4786:4905   */\n    tag_187:\n        /* \"#utility.yul\":4944:4945   */\n      0x00\n        /* \"#utility.yul\":4969:5022   */\n      tag_189\n        /* \"#utility.yul\":5014:5021   */\n      dup5\n        /* \"#utility.yul\":5005:5011   */\n      dup3\n        /* \"#utility.yul\":4994:5003   */\n      dup6\n        /* \"#utility.yul\":4990:5012   */\n      add\n        /* \"#utility.yul\":4969:5022   */\n      tag_110\n      jump\t// in\n    tag_189:\n        /* \"#utility.yul\":4959:5022   */\n      swap2\n      pop\n        /* \"#utility.yul\":4915:5032   */\n      pop\n        /* \"#utility.yul\":4710:5039   */\n      swap3\n      swap2\n      pop\n      pop\n      jump\t// out\n        /* \"#utility.yul\":5045:5135   */\n    tag_120:\n        /* \"#utility.yul\":5080:5087   */\n      0x00\n        /* \"#utility.yul\":5123:5128   */\n      dup2\n        /* \"#utility.yul\":5120:5121   */\n      0x03\n        /* \"#utility.yul\":5109:5129   */\n      signextend\n        /* \"#utility.yul\":5098:5129   */\n      swap1\n      pop\n        /* \"#utility.yul\":5045:5135   */\n      swap2\n      swap1\n      pop\n      jump\t// out\n        /* \"#utility.yul\":5141:5253   */\n    tag_121:\n        /* \"#utility.yul\":5224:5246   */\n      tag_192\n        /* \"#utility.yul\":5240:5245   */\n      dup2\n        /* \"#utility.yul\":5224:5246   */\n      tag_120\n      jump\t// in\n    tag_192:\n        /* \"#utility.yul\":5219:5222   */\n      dup3\n        /* \"#utility.yul\":5212:5247   */\n      mstore\n        /* \"#utility.yul\":5141:5253   */\n      pop\n      pop\n      jump\t// out\n        /* \"#utility.yul\":5259:5473   */\n    tag_62:\n        /* \"#utility.yul\":5348:5352   */\n      0x00\n        /* \"#utility.yul\":5386:5388   */\n      0x20\n        /* \"#utility.yul\":5375:5384   */\n      dup3\n        /* \"#utility.yul\":5371:5389   */\n      add\n        /* \"#utility.yul\":5363:5389   */\n      swap1\n      pop\n        /* \"#utility.yul\":5399:5466   */\n      tag_194\n        /* \"#utility.yul\":5463:5464   */\n      0x00\n        /* \"#utility.yul\":5452:5461   */\n      dup4\n        /* \"#utility.yul\":5448:5465   */\n      add\n        /* \"#utility.yul\":5439:5445   */\n      dup5\n        /* \"#utility.yul\":5399:5466   */\n      tag_121\n      jump\t// in\n    tag_194:\n        /* \"#utility.yul\":5259:5473   */\n      swap3\n      swap2\n      pop\n      pop\n      jump\t// out\n        /* \"#utility.yul\":5479:5697   */\n    tag_66:\n        /* \"#utility.yul\":5570:5574   */\n      0x00\n        /* \"#utility.yul\":5608:5610   */\n      0x20\n        /* \"#utility.yul\":5597:5606   */\n      dup3\n        /* \"#utility.yul\":5593:5611   */\n      add\n        /* \"#utility.yul\":5585:5611   */\n      swap1\n      pop\n        /* \"#utility.yul\":5621:5690   */\n      tag_196\n        /* \"#utility.yul\":5687:5688   */\n      0x00\n        /* \"#utility.yul\":5676:5685   */\n      dup4\n        /* \"#utility.yul\":5672:5689   */\n      add\n        /* \"#utility.yul\":5663:5669   */\n      dup5\n        /* \"#utility.yul\":5621:5690   */\n      tag_117\n      jump\t// in\n    tag_196:\n        /* \"#utility.yul\":5479:5697   */\n      swap3\n      swap2\n      pop\n      pop\n      jump\t// out\n        /* \"#utility.yul\":5703:5883   */\n    tag_122:\n        /* \"#utility.yul\":5751:5828   */\n      0x4e487b7100000000000000000000000000000000000000000000000000000000\n        /* \"#utility.yul\":5748:5749   */\n      0x00\n        /* \"#utility.yul\":5741:5829   */\n      mstore\n        /* \"#utility.yul\":5848:5852   */\n      0x11\n        /* \"#utility.yul\":5845:5846   */\n      0x04\n        /* \"#utility.yul\":5838:5853   */\n      mstore\n        /* \"#utility.yul\":5872:5876   */\n      0x24\n        /* \"#utility.yul\":5869:5870   */\n      0x00\n        /* \"#utility.yul\":5862:5877   */\n      revert\n        /* \"#utility.yul\":5889:6080   */\n    tag_87:\n        /* \"#utility.yul\":5929:5932   */\n      0x00\n        /* \"#utility.yul\":5948:5968   */\n      tag_199\n        /* \"#utility.yul\":5966:5967   */\n      dup3\n        /* \"#utility.yul\":5948:5968   */\n      tag_108\n      jump\t// in\n    tag_199:\n        /* \"#utility.yul\":5943:5968   */\n      swap2\n      pop\n        /* \"#utility.yul\":5982:6002   */\n      tag_200\n        /* \"#utility.yul\":6000:6001   */\n      dup4\n        /* \"#utility.yul\":5982:6002   */\n      tag_108\n      jump\t// in\n    tag_200:\n        /* \"#utility.yul\":5977:6002   */\n      swap3\n      pop\n        /* \"#utility.yul\":6025:6026   */\n      dup3\n        /* \"#utility.yul\":6022:6023   */\n      dup3\n        /* \"#utility.yul\":6018:6027   */\n      add\n        /* \"#utility.yul\":6011:6027   */\n      swap1\n      pop\n        /* \"#utility.yul\":6046:6049   */\n      dup1\n        /* \"#utility.yul\":6043:6044   */\n      dup3\n        /* \"#utility.yul\":6040:6050   */\n      gt\n        /* \"#utility.yul\":6037:6073   */\n      iszero\n      tag_201\n      jumpi\n        /* \"#utility.yul\":6053:6071   */\n      tag_202\n      tag_122\n      jump\t// in\n    tag_202:\n        /* \"#utility.yul\":6037:6073   */\n    tag_201:\n        /* \"#utility.yul\":5889:6080   */\n      swap3\n      swap2\n      pop\n      pop\n      jump\t// out\n        /* \"#utility.yul\":6086:6255   */\n    tag_123:\n        /* \"#utility.yul\":6170:6181   */\n      0x00\n        /* \"#utility.yul\":6204:6210   */\n      dup3\n        /* \"#utility.yul\":6199:6202   */\n      dup3\n        /* \"#utility.yul\":6192:6211   */\n      mstore\n        /* \"#utility.yul\":6244:6248   */\n      0x20\n        /* \"#utility.yul\":6239:6242   */\n      dup3\n        /* \"#utility.yul\":6235:6249   */\n      add\n        /* \"#utility.yul\":6220:6249   */\n      swap1\n      pop\n        /* \"#utility.yul\":6086:6255   */\n      swap3\n      swap2\n      pop\n      pop\n      jump\t// out\n        /* \"#utility.yul\":6261:6487   */\n    tag_124:\n        /* \"#utility.yul\":6401:6435   */\n      0x496e746567657254797065733a2076616c756520657863656564732075696e74\n        /* \"#utility.yul\":6397:6398   */\n      0x00\n        /* \"#utility.yul\":6389:6395   */\n      dup3\n        /* \"#utility.yul\":6385:6399   */\n      add\n        /* \"#utility.yul\":6378:6436   */\n      mstore\n        /* \"#utility.yul\":6470:6479   */\n      0x382072616e676500000000000000000000000000000000000000000000000000\n        /* \"#utility.yul\":6465:6467   */\n      0x20\n        /* \"#utility.yul\":6457:6463   */\n      dup3\n        /* \"#utility.yul\":6453:6468   */\n      add\n        /* \"#utility.yul\":6446:6480   */\n      mstore\n        /* \"#utility.yul\":6261:6487   */\n      pop\n      jump\t// out\n        /* \"#utility.yul\":6493:6859   */\n    tag_125:\n        /* \"#utility.yul\":6635:6638   */\n      0x00\n        /* \"#utility.yul\":6656:6723   */\n      tag_206\n        /* \"#utility.yul\":6720:6722   */\n      0x27\n        /* \"#utility.yul\":6715:6718   */\n      dup4\n        /* \"#utility.yul\":6656:6723   */\n      tag_123\n      jump\t// in\n    tag_206:\n        /* \"#utility.yul\":6649:6723   */\n      swap2\n      pop\n        /* \"#utility.yul\":6732:6825   */\n      tag_207\n        /* \"#utility.yul\":6821:6824   */\n      dup3\n        /* \"#utility.yul\":6732:6825   */\n      tag_124\n      jump\t// in\n    tag_207:\n        /* \"#utility.yul\":6850:6852   */\n      0x40\n        /* \"#utility.yul\":6845:6848   */\n      dup3\n        /* \"#utility.yul\":6841:6853   */\n      add\n        /* \"#utility.yul\":6834:6853   */\n      swap1\n      pop\n        /* \"#utility.yul\":6493:6859   */\n      swap2\n      swap1\n      pop\n      jump\t// out\n        /* \"#utility.yul\":6865:7284   */\n    tag_91:\n        /* \"#utility.yul\":7031:7035   */\n      0x00\n        /* \"#utility.yul\":7069:7071   */\n      0x20\n        /* \"#utility.yul\":7058:7067   */\n      dup3\n        /* \"#utility.yul\":7054:7072   */\n      add\n        /* \"#utility.yul\":7046:7072   */\n      swap1\n      pop\n        /* \"#utility.yul\":7118:7127   */\n      dup2\n        /* \"#utility.yul\":7112:7116   */\n      dup2\n        /* \"#utility.yul\":7108:7128   */\n      sub\n        /* \"#utility.yul\":7104:7105   */\n      0x00\n        /* \"#utility.yul\":7093:7102   */\n      dup4\n        /* \"#utility.yul\":7089:7106   */\n      add\n        /* \"#utility.yul\":7082:7129   */\n      mstore\n        /* \"#utility.yul\":7146:7277   */\n      tag_209\n        /* \"#utility.yul\":7272:7276   */\n      dup2\n        /* \"#utility.yul\":7146:7277   */\n      tag_125\n      jump\t// in\n    tag_209:\n        /* \"#utility.yul\":7138:7277   */\n      swap1\n      pop\n        /* \"#utility.yul\":6865:7284   */\n      swap2\n      swap1\n      pop\n      jump\t// out\n        /* \"#utility.yul\":7290:7484   */\n    tag_94:\n        /* \"#utility.yul\":7330:7334   */\n      0x00\n        /* \"#utility.yul\":7350:7370   */\n      tag_211\n        /* \"#utility.yul\":7368:7369   */\n      dup3\n        /* \"#utility.yul\":7350:7370   */\n      tag_108\n      jump\t// in\n    tag_211:\n        /* \"#utility.yul\":7345:7370   */\n      swap2\n      pop\n        /* \"#utility.yul\":7384:7404   */\n      tag_212\n        /* \"#utility.yul\":7402:7403   */\n      dup4\n        /* \"#utility.yul\":7384:7404   */\n      tag_108\n      jump\t// in\n    tag_212:\n        /* \"#utility.yul\":7379:7404   */\n      swap3\n      pop\n        /* \"#utility.yul\":7428:7429   */\n      dup3\n        /* \"#utility.yul\":7425:7426   */\n      dup3\n        /* \"#utility.yul\":7421:7430   */\n      sub\n        /* \"#utility.yul\":7413:7430   */\n      swap1\n      pop\n        /* \"#utility.yul\":7452:7453   */\n      dup2\n        /* \"#utility.yul\":7446:7450   */\n      dup2\n        /* \"#utility.yul\":7443:7454   */\n      gt\n        /* \"#utility.yul\":7440:7477   */\n      iszero\n      tag_213\n      jumpi\n        /* \"#utility.yul\":7457:7475   */\n      tag_214\n      tag_122\n      jump\t// in\n    tag_214:\n        /* \"#utility.yul\":7440:7477   */\n    tag_213:\n        /* \"#utility.yul\":7290:7484   */\n      swap3\n      swap2\n      pop\n      pop\n      jump\t// out\n        /* \"#utility.yul\":7490:7671   */\n    tag_126:\n        /* \"#utility.yul\":7630:7663   */\n      0x496e746567657254797065733a206164646974696f6e206f766572666c6f7700\n        /* \"#utility.yul\":7626:7627   */\n      0x00\n        /* \"#utility.yul\":7618:7624   */\n      dup3\n        /* \"#utility.yul\":7614:7628   */\n      add\n        /* \"#utility.yul\":7607:7664   */\n      mstore\n        /* \"#utility.yul\":7490:7671   */\n      pop\n      jump\t// out\n        /* \"#utility.yul\":7677:8043   */\n    tag_127:\n        /* \"#utility.yul\":7819:7822   */\n      0x00\n        /* \"#utility.yul\":7840:7907   */\n      tag_217\n        /* \"#utility.yul\":7904:7906   */\n      0x1f\n        /* \"#utility.yul\":7899:7902   */\n      dup4\n        /* \"#utility.yul\":7840:7907   */\n      tag_123\n      jump\t// in\n    tag_217:\n        /* \"#utility.yul\":7833:7907   */\n      swap2\n      pop\n        /* \"#utility.yul\":7916:8009   */\n      tag_218\n        /* \"#utility.yul\":8005:8008   */\n      dup3\n        /* \"#utility.yul\":7916:8009   */\n      tag_126\n      jump\t// in\n    tag_218:\n        /* \"#utility.yul\":8034:8036   */\n      0x20\n        /* \"#utility.yul\":8029:8032   */\n      dup3\n        /* \"#utility.yul\":8025:8037   */\n      add\n        /* \"#utility.yul\":8018:8037   */\n      swap1\n      pop\n        /* \"#utility.yul\":7677:8043   */\n      swap2\n      swap1\n      pop\n      jump\t// out\n        /* \"#utility.yul\":8049:8468   */\n    tag_97:\n        /* \"#utility.yul\":8215:8219   */\n      0x00\n        /* \"#utility.yul\":8253:8255   */\n      0x20\n        /* \"#utility.yul\":8242:8251   */\n      dup3\n        /* \"#utility.yul\":8238:8256   */\n      add\n        /* \"#utility.yul\":8230:8256   */\n      swap1\n      pop\n        /* \"#utility.yul\":8302:8311   */\n      dup2\n        /* \"#utility.yul\":8296:8300   */\n      dup2\n        /* \"#utility.yul\":8292:8312   */\n      sub\n        /* \"#utility.yul\":8288:8289   */\n      0x00\n        /* \"#utility.yul\":8277:8286   */\n      dup4\n        /* \"#utility.yul\":8273:8290   */\n      add\n        /* \"#utility.yul\":8266:8313   */\n      mstore\n        /* \"#utility.yul\":8330:8461   */\n      tag_220\n        /* \"#utility.yul\":8456:8460   */\n      dup2\n        /* \"#utility.yul\":8330:8461   */\n      tag_127\n      jump\t// in\n    tag_220:\n        /* \"#utility.yul\":8322:8461   */\n      swap1\n      pop\n        /* \"#utility.yul\":8049:8468   */\n      swap2\n      swap1\n      pop\n      jump\t// out\n\n    auxdata: 0xa2646970667358221220ae27df4616a9302da9d8c20cb4ab6d9bd1e09d023bcae8e72fca2c767720e42064736f6c634300081e0033\n}\n",
				"bytecode": {
					"linkReferences": {},
					"object": "6080604052607f6002557ffffffffffffffffffffffffffffffffffffffffffffffffffffffffffffffb2f60035f6101000a81548161ffff021916908360010b61ffff1602179055507ffffffffffffffffffffffffffffffffffffffffffffffffffffffffffffe1dc0600360026101000a81548163ffffffff021916908360030b63ffffffff160217905550601760045560ff60055f6101000a81548160ff021916908360ff160217905550616758600560016101000a81548161ffff021916908361ffff16021790555034801560d5575f5ffd5b506108ff806100e35f395ff3fe608060405234801561000f575f5ffd5b50600436106100f3575f3560e01c806374f9032c11610095578063c612d08d11610064578063c612d08d14610263578063c7d5b45614610293578063ca1c2835146102c3578063e3286de6146102e1576100f3565b806374f9032c146101db578063771602f7146101f75780637b1d829c14610227578063a531f36a14610245576100f3565b806322800a81116100d157806322800a81146101515780634e34cd39146101815780634e70b1dc1461019d57806371cec743146101bb576100f3565b806306661abd146100f757806315d4266c146101155780631d63e24d14610133575b5f5ffd5b6100ff6102ff565b60405161010c91906104a3565b60405180910390f35b61011d610305565b60405161012a91906104d7565b60405180910390f35b61013b610317565b604051610148919061050b565b60405180910390f35b61016b6004803603810190610166919061055b565b610329565b60405161017891906105b3565b60405180910390f35b61019b600480360381019061019691906105f6565b610335565b005b6101a561033f565b6040516101b29190610630565b60405180910390f35b6101c3610345565b6040516101d293929190610683565b60405180910390f35b6101f560048036038101906101f091906106b8565b61036b565b005b610211600480360381019061020c919061055b565b610374565b60405161021e9190610630565b60405180910390f35b61022f610389565b60405161023c91906106fe565b60405180910390f35b61024d61039c565b60405161025a9190610717565b60405180910390f35b61027d600480360381019061027891906106b8565b6103b0565b60405161028a91906104d7565b60405180910390f35b6102ad60048036038101906102a8919061055b565b6103fd565b6040516102ba9190610630565b60405180910390f35b6102cb610480565b6040516102d891906104a3565b60405180910390f35b6102e9610486565b6040516102f69190610630565b60405180910390f35b60025481565b60055f9054906101000a900460ff1681565b60035f9054906101000a900460010b81565b5f818311905092915050565b8060018190555050565b60045481565b5f5f5f5f60fa90505f8190505f8290505f83905082828296509650965050505050909192565b805f8190555050565b5f8183610381919061075d565b905092915050565b600360029054906101000a900460030b81565b600560019054906101000a900461ffff1681565b5f60ff8211156103f5576040517f08c379a00000000000000000000000000000000000000000000000000000000081526004016103ec90610810565b60405180910390fd5b819050919050565b5f827fffffffffffffffffffffffffffffffffffffffffffffffffffffffffffffffff61042a919061082e565b82111561046c576040517f08c379a0000000000000000000000000000000000000000000000000000000008152600401610463906108ab565b60405180910390fd5b8183610478919061075d565b905092915050565b60015481565b5f5481565b5f819050919050565b61049d8161048b565b82525050565b5f6020820190506104b65f830184610494565b92915050565b5f60ff82169050919050565b6104d1816104bc565b82525050565b5f6020820190506104ea5f8301846104c8565b92915050565b5f8160010b9050919050565b610505816104f0565b82525050565b5f60208201905061051e5f8301846104fc565b92915050565b5f5ffd5b5f819050919050565b61053a81610528565b8114610544575f5ffd5b50565b5f8135905061055581610531565b92915050565b5f5f6040838503121561057157610570610524565b5b5f61057e85828601610547565b925050602061058f85828601610547565b9150509250929050565b5f8115159050919050565b6105ad81610599565b82525050565b5f6020820190506105c65f8301846105a4565b92915050565b6105d58161048b565b81146105df575f5ffd5b50565b5f813590506105f0816105cc565b92915050565b5f6020828403121561060b5761060a610524565b5b5f610618848285016105e2565b91505092915050565b61062a81610528565b82525050565b5f6020820190506106435f830184610621565b92915050565b5f61ffff82169050919050565b61065f81610649565b82525050565b5f63ffffffff82169050919050565b61067d81610665565b82525050565b5f6060820190506106965f8301866104c8565b6106a36020830185610656565b6106b06040830184610674565b949350505050565b5f602082840312156106cd576106cc610524565b5b5f6106da84828501610547565b91505092915050565b5f8160030b9050919050565b6106f8816106e3565b82525050565b5f6020820190506107115f8301846106ef565b92915050565b5f60208201905061072a5f830184610656565b92915050565b7f4e487b71000000000000000000000000000000000000000000000000000000005f52601160045260245ffd5b5f61076782610528565b915061077283610528565b925082820190508082111561078a57610789610730565b5b92915050565b5f82825260208201905092915050565b7f496e746567657254797065733a2076616c756520657863656564732075696e745f8201527f382072616e676500000000000000000000000000000000000000000000000000602082015250565b5f6107fa602783610790565b9150610805826107a0565b604082019050919050565b5f6020820190508181035f830152610827816107ee565b9050919050565b5f61083882610528565b915061084383610528565b925082820390508181111561085b5761085a610730565b5b92915050565b7f496e746567657254797065733a206164646974696f6e206f766572666c6f77005f82015250565b5f610895601f83610790565b91506108a082610861565b602082019050919050565b5f6020820190508181035f8301526108c281610889565b905091905056fea2646970667358221220ae27df4616a9302da9d8c20cb4ab6d9bd1e09d023bcae8e72fca2c767720e42064736f6c634300081e0033",
					"opcodes": "PUSH1 0x80 PUSH1 0x40 MSTORE PUSH1 0x7F PUSH1 0x2 SSTORE PUSH32 0xFFFFFFFFFFFFFFFFFFFFFFFFFFFFFFFFFFFFFFFFFFFFFFFFFFFFFFFFFFFFFB2F PUSH1 0x3 PUSH0 PUSH2 0x100 EXP DUP2 SLOAD DUP2 PUSH2 0xFFFF MUL NOT AND SWAP1 DUP4 PUSH1 0x1 SIGNEXTEND PUSH2 0xFFFF AND MUL OR SWAP1 SSTORE POP PUSH32 0xFFFFFFFFFFFFFFFFFFFFFFFFFFFFFFFFFFFFFFFFFFFFFFFFFFFFFFFFFFFE1DC0 PUSH1 0x3 PUSH1 0x2 PUSH2 0x100 EXP DUP2 SLOAD DUP2 PUSH4 0xFFFFFFFF MUL NOT AND SWAP1 DUP4 PUSH1 0x3 SIGNEXTEND PUSH4 0xFFFFFFFF AND MUL OR SWAP1 SSTORE POP PUSH1 0x17 PUSH1 0x4 SSTORE PUSH1 0xFF PUSH1 0x5 PUSH0 PUSH2 0x100 EXP DUP2 SLOAD DUP2 PUSH1 0xFF MUL NOT AND SWAP1 DUP4 PUSH1 0xFF AND MUL OR SWAP1 SSTORE POP PUSH2 0x6758 PUSH1 0x5 PUSH1 0x1 PUSH2 0x100 EXP DUP2 SLOAD DUP2 PUSH2 0xFFFF MUL NOT AND SWAP1 DUP4 PUSH2 0xFFFF AND MUL OR SWAP1 SSTORE POP CALLVALUE DUP1 ISZERO PUSH1 0xD5 JUMPI PUSH0 PUSH0 REVERT JUMPDEST POP PUSH2 0x8FF DUP1 PUSH2 0xE3 PUSH0 CODECOPY PUSH0 RETURN INVALID PUSH1 0x80 PUSH1 0x40 MSTORE CALLVALUE DUP1 ISZERO PUSH2 0xF JUMPI PUSH0 PUSH0 REVERT JUMPDEST POP PUSH1 0x4 CALLDATASIZE LT PUSH2 0xF3 JUMPI PUSH0 CALLDATALOAD PUSH1 0xE0 SHR DUP1 PUSH4 0x74F9032C GT PUSH2 0x95 JUMPI DUP1 PUSH4 0xC612D08D GT PUSH2 0x64 JUMPI DUP1 PUSH4 0xC612D08D EQ PUSH2 0x263 JUMPI DUP1 PUSH4 0xC7D5B456 EQ PUSH2 0x293 JUMPI DUP1 PUSH4 0xCA1C2835 EQ PUSH2 0x2C3 JUMPI DUP1 PUSH4 0xE3286DE6 EQ PUSH2 0x2E1 JUMPI PUSH2 0xF3 JUMP JUMPDEST DUP1 PUSH4 0x74F9032C EQ PUSH2 0x1DB JUMPI DUP1 PUSH4 0x771602F7 EQ PUSH2 0x1F7 JUMPI DUP1 PUSH4 0x7B1D829C EQ PUSH2 0x227 JUMPI DUP1 PUSH4 0xA531F36A EQ PUSH2 0x245 JUMPI PUSH2 0xF3 JUMP JUMPDEST DUP1 PUSH4 0x22800A81 GT PUSH2 0xD1 JUMPI DUP1 PUSH4 0x22800A81 EQ PUSH2 0x151 JUMPI DUP1 PUSH4 0x4E34CD39 EQ PUSH2 0x181 JUMPI DUP1 PUSH4 0x4E70B1DC EQ PUSH2 0x19D JUMPI DUP1 PUSH4 0x71CEC743 EQ PUSH2 0x1BB JUMPI PUSH2 0xF3 JUMP JUMPDEST DUP1 PUSH4 0x6661ABD EQ PUSH2 0xF7 JUMPI DUP1 PUSH4 0x15D4266C EQ PUSH2 0x115 JUMPI DUP1 PUSH4 0x1D63E24D EQ PUSH2 0x133 JUMPI JUMPDEST PUSH0 PUSH0 REVERT JUMPDEST PUSH2 0xFF PUSH2 0x2FF JUMP JUMPDEST PUSH1 0x40 MLOAD PUSH2 0x10C SWAP2 SWAP1 PUSH2 0x4A3 JUMP JUMPDEST PUSH1 0x40 MLOAD DUP1 SWAP2 SUB SWAP1 RETURN JUMPDEST PUSH2 0x11D PUSH2 0x305 JUMP JUMPDEST PUSH1 0x40 MLOAD PUSH2 0x12A SWAP2 SWAP1 PUSH2 0x4D7 JUMP JUMPDEST PUSH1 0x40 MLOAD DUP1 SWAP2 SUB SWAP1 RETURN JUMPDEST PUSH2 0x13B PUSH2 0x317 JUMP JUMPDEST PUSH1 0x40 MLOAD PUSH2 0x148 SWAP2 SWAP1 PUSH2 0x50B JUMP JUMPDEST PUSH1 0x40 MLOAD DUP1 SWAP2 SUB SWAP1 RETURN JUMPDEST PUSH2 0x16B PUSH1 0x4 DUP1 CALLDATASIZE SUB DUP2 ADD SWAP1 PUSH2 0x166 SWAP2 SWAP1 PUSH2 0x55B JUMP JUMPDEST PUSH2 0x329 JUMP JUMPDEST PUSH1 0x40 MLOAD PUSH2 0x178 SWAP2 SWAP1 PUSH2 0x5B3 JUMP JUMPDEST PUSH1 0x40 MLOAD DUP1 SWAP2 SUB SWAP1 RETURN JUMPDEST PUSH2 0x19B PUSH1 0x4 DUP1 CALLDATASIZE SUB DUP2 ADD SWAP1 PUSH2 0x196 SWAP2 SWAP1 PUSH2 0x5F6 JUMP JUMPDEST PUSH2 0x335 JUMP JUMPDEST STOP JUMPDEST PUSH2 0x1A5 PUSH2 0x33F JUMP JUMPDEST PUSH1 0x40 MLOAD PUSH2 0x1B2 SWAP2 SWAP1 PUSH2 0x630 JUMP JUMPDEST PUSH1 0x40 MLOAD DUP1 SWAP2 SUB SWAP1 RETURN JUMPDEST PUSH2 0x1C3 PUSH2 0x345 JUMP JUMPDEST PUSH1 0x40 MLOAD PUSH2 0x1D2 SWAP4 SWAP3 SWAP2 SWAP1 PUSH2 0x683 JUMP JUMPDEST PUSH1 0x40 MLOAD DUP1 SWAP2 SUB SWAP1 RETURN JUMPDEST PUSH2 0x1F5 PUSH1 0x4 DUP1 CALLDATASIZE SUB DUP2 ADD SWAP1 PUSH2 0x1F0 SWAP2 SWAP1 PUSH2 0x6B8 JUMP JUMPDEST PUSH2 0x36B JUMP JUMPDEST STOP JUMPDEST PUSH2 0x211 PUSH1 0x4 DUP1 CALLDATASIZE SUB DUP2 ADD SWAP1 PUSH2 0x20C SWAP2 SWAP1 PUSH2 0x55B JUMP JUMPDEST PUSH2 0x374 JUMP JUMPDEST PUSH1 0x40 MLOAD PUSH2 0x21E SWAP2 SWAP1 PUSH2 0x630 JUMP JUMPDEST PUSH1 0x40 MLOAD DUP1 SWAP2 SUB SWAP1 RETURN JUMPDEST PUSH2 0x22F PUSH2 0x389 JUMP JUMPDEST PUSH1 0x40 MLOAD PUSH2 0x23C SWAP2 SWAP1 PUSH2 0x6FE JUMP JUMPDEST PUSH1 0x40 MLOAD DUP1 SWAP2 SUB SWAP1 RETURN JUMPDEST PUSH2 0x24D PUSH2 0x39C JUMP JUMPDEST PUSH1 0x40 MLOAD PUSH2 0x25A SWAP2 SWAP1 PUSH2 0x717 JUMP JUMPDEST PUSH1 0x40 MLOAD DUP1 SWAP2 SUB SWAP1 RETURN JUMPDEST PUSH2 0x27D PUSH1 0x4 DUP1 CALLDATASIZE SUB DUP2 ADD SWAP1 PUSH2 0x278 SWAP2 SWAP1 PUSH2 0x6B8 JUMP JUMPDEST PUSH2 0x3B0 JUMP JUMPDEST PUSH1 0x40 MLOAD PUSH2 0x28A SWAP2 SWAP1 PUSH2 0x4D7 JUMP JUMPDEST PUSH1 0x40 MLOAD DUP1 SWAP2 SUB SWAP1 RETURN JUMPDEST PUSH2 0x2AD PUSH1 0x4 DUP1 CALLDATASIZE SUB DUP2 ADD SWAP1 PUSH2 0x2A8 SWAP2 SWAP1 PUSH2 0x55B JUMP JUMPDEST PUSH2 0x3FD JUMP JUMPDEST PUSH1 0x40 MLOAD PUSH2 0x2BA SWAP2 SWAP1 PUSH2 0x630 JUMP JUMPDEST PUSH1 0x40 MLOAD DUP1 SWAP2 SUB SWAP1 RETURN JUMPDEST PUSH2 0x2CB PUSH2 0x480 JUMP JUMPDEST PUSH1 0x40 MLOAD PUSH2 0x2D8 SWAP2 SWAP1 PUSH2 0x4A3 JUMP JUMPDEST PUSH1 0x40 MLOAD DUP1 SWAP2 SUB SWAP1 RETURN JUMPDEST PUSH2 0x2E9 PUSH2 0x486 JUMP JUMPDEST PUSH1 0x40 MLOAD PUSH2 0x2F6 SWAP2 SWAP1 PUSH2 0x630 JUMP JUMPDEST PUSH1 0x40 MLOAD DUP1 SWAP2 SUB SWAP1 RETURN JUMPDEST PUSH1 0x2 SLOAD DUP2 JUMP JUMPDEST PUSH1 0x5 PUSH0 SWAP1 SLOAD SWAP1 PUSH2 0x100 EXP SWAP1 DIV PUSH1 0xFF AND DUP2 JUMP JUMPDEST PUSH1 0x3 PUSH0 SWAP1 SLOAD SWAP1 PUSH2 0x100 EXP SWAP1 DIV PUSH1 0x1 SIGNEXTEND DUP2 JUMP JUMPDEST PUSH0 DUP2 DUP4 GT SWAP1 POP SWAP3 SWAP2 POP POP JUMP JUMPDEST DUP1 PUSH1 0x1 DUP2 SWAP1 SSTORE POP POP JUMP JUMPDEST PUSH1 0x4 SLOAD DUP2 JUMP JUMPDEST PUSH0 PUSH0 PUSH0 PUSH0 PUSH1 0xFA SWAP1 POP PUSH0 DUP2 SWAP1 POP PUSH0 DUP3 SWAP1 POP PUSH0 DUP4 SWAP1 POP DUP3 DUP3 DUP3 SWAP7 POP SWAP7 POP SWAP7 POP POP POP POP POP SWAP1 SWAP2 SWAP3 JUMP JUMPDEST DUP1 PUSH0 DUP2 SWAP1 SSTORE POP POP JUMP JUMPDEST PUSH0 DUP2 DUP4 PUSH2 0x381 SWAP2 SWAP1 PUSH2 0x75D JUMP JUMPDEST SWAP1 POP SWAP3 SWAP2 POP POP JUMP JUMPDEST PUSH1 0x3 PUSH1 0x2 SWAP1 SLOAD SWAP1 PUSH2 0x100 EXP SWAP1 DIV PUSH1 0x3 SIGNEXTEND DUP2 JUMP JUMPDEST PUSH1 0x5 PUSH1 0x1 SWAP1 SLOAD SWAP1 PUSH2 0x100 EXP SWAP1 DIV PUSH2 0xFFFF AND DUP2 JUMP JUMPDEST PUSH0 PUSH1 0xFF DUP3 GT ISZERO PUSH2 0x3F5 JUMPI PUSH1 0x40 MLOAD PUSH32 0x8C379A000000000000000000000000000000000000000000000000000000000 DUP2 MSTORE PUSH1 0x4 ADD PUSH2 0x3EC SWAP1 PUSH2 0x810 JUMP JUMPDEST PUSH1 0x40 MLOAD DUP1 SWAP2 SUB SWAP1 REVERT JUMPDEST DUP2 SWAP1 POP SWAP2 SWAP1 POP JUMP JUMPDEST PUSH0 DUP3 PUSH32 0xFFFFFFFFFFFFFFFFFFFFFFFFFFFFFFFFFFFFFFFFFFFFFFFFFFFFFFFFFFFFFFFF PUSH2 0x42A SWAP2 SWAP1 PUSH2 0x82E JUMP JUMPDEST DUP3 GT ISZERO PUSH2 0x46C JUMPI PUSH1 0x40 MLOAD PUSH32 0x8C379A000000000000000000000000000000000000000000000000000000000 DUP2 MSTORE PUSH1 0x4 ADD PUSH2 0x463 SWAP1 PUSH2 0x8AB JUMP JUMPDEST PUSH1 0x40 MLOAD DUP1 SWAP2 SUB SWAP1 REVERT JUMPDEST DUP2 DUP4 PUSH2 0x478 SWAP2 SWAP1 PUSH2 0x75D JUMP JUMPDEST SWAP1 POP SWAP3 SWAP2 POP POP JUMP JUMPDEST PUSH1 0x1 SLOAD DUP2 JUMP JUMPDEST PUSH0 SLOAD DUP2 JUMP JUMPDEST PUSH0 DUP2 SWAP1 POP SWAP2 SWAP1 POP JUMP JUMPDEST PUSH2 0x49D DUP2 PUSH2 0x48B JUMP JUMPDEST DUP3 MSTORE POP POP JUMP JUMPDEST PUSH0 PUSH1 0x20 DUP3 ADD SWAP1 POP PUSH2 0x4B6 PUSH0 DUP4 ADD DUP5 PUSH2 0x494 JUMP JUMPDEST SWAP3 SWAP2 POP POP JUMP JUMPDEST PUSH0 PUSH1 0xFF DUP3 AND SWAP1 POP SWAP2 SWAP1 POP JUMP JUMPDEST PUSH2 0x4D1 DUP2 PUSH2 0x4BC JUMP JUMPDEST DUP3 MSTORE POP POP JUMP JUMPDEST PUSH0 PUSH1 0x20 DUP3 ADD SWAP1 POP PUSH2 0x4EA PUSH0 DUP4 ADD DUP5 PUSH2 0x4C8 JUMP JUMPDEST SWAP3 SWAP2 POP POP JUMP JUMPDEST PUSH0 DUP2 PUSH1 0x1 SIGNEXTEND SWAP1 POP SWAP2 SWAP1 POP JUMP JUMPDEST PUSH2 0x505 DUP2 PUSH2 0x4F0 JUMP JUMPDEST DUP3 MSTORE POP POP JUMP JUMPDEST PUSH0 PUSH1 0x20 DUP3 ADD SWAP1 POP PUSH2 0x51E PUSH0 DUP4 ADD DUP5 PUSH2 0x4FC JUMP JUMPDEST SWAP3 SWAP2 POP POP JUMP JUMPDEST PUSH0 PUSH0 REVERT JUMPDEST PUSH0 DUP2 SWAP1 POP SWAP2 SWAP1 POP JUMP JUMPDEST PUSH2 0x53A DUP2 PUSH2 0x528 JUMP JUMPDEST DUP2 EQ PUSH2 0x544 JUMPI PUSH0 PUSH0 REVERT JUMPDEST POP JUMP JUMPDEST PUSH0 DUP2 CALLDATALOAD SWAP1 POP PUSH2 0x555 DUP2 PUSH2 0x531 JUMP JUMPDEST SWAP3 SWAP2 POP POP JUMP JUMPDEST PUSH0 PUSH0 PUSH1 0x40 DUP4 DUP6 SUB SLT ISZERO PUSH2 0x571 JUMPI PUSH2 0x570 PUSH2 0x524 JUMP JUMPDEST JUMPDEST PUSH0 PUSH2 0x57E DUP6 DUP3 DUP7 ADD PUSH2 0x547 JUMP JUMPDEST SWAP3 POP POP PUSH1 0x20 PUSH2 0x58F DUP6 DUP3 DUP7 ADD PUSH2 0x547 JUMP JUMPDEST SWAP2 POP POP SWAP3 POP SWAP3 SWAP1 POP JUMP JUMPDEST PUSH0 DUP2 ISZERO ISZERO SWAP1 POP SWAP2 SWAP1 POP JUMP JUMPDEST PUSH2 0x5AD DUP2 PUSH2 0x599 JUMP JUMPDEST DUP3 MSTORE POP POP JUMP JUMPDEST PUSH0 PUSH1 0x20 DUP3 ADD SWAP1 POP PUSH2 0x5C6 PUSH0 DUP4 ADD DUP5 PUSH2 0x5A4 JUMP JUMPDEST SWAP3 SWAP2 POP POP JUMP JUMPDEST PUSH2 0x5D5 DUP2 PUSH2 0x48B JUMP JUMPDEST DUP2 EQ PUSH2 0x5DF JUMPI PUSH0 PUSH0 REVERT JUMPDEST POP JUMP JUMPDEST PUSH0 DUP2 CALLDATALOAD SWAP1 POP PUSH2 0x5F0 DUP2 PUSH2 0x5CC JUMP JUMPDEST SWAP3 SWAP2 POP POP JUMP JUMPDEST PUSH0 PUSH1 0x20 DUP3 DUP5 SUB SLT ISZERO PUSH2 0x60B JUMPI PUSH2 0x60A PUSH2 0x524 JUMP JUMPDEST JUMPDEST PUSH0 PUSH2 0x618 DUP5 DUP3 DUP6 ADD PUSH2 0x5E2 JUMP JUMPDEST SWAP2 POP POP SWAP3 SWAP2 POP POP JUMP JUMPDEST PUSH2 0x62A DUP2 PUSH2 0x528 JUMP JUMPDEST DUP3 MSTORE POP POP JUMP JUMPDEST PUSH0 PUSH1 0x20 DUP3 ADD SWAP1 POP PUSH2 0x643 PUSH0 DUP4 ADD DUP5 PUSH2 0x621 JUMP JUMPDEST SWAP3 SWAP2 POP POP JUMP JUMPDEST PUSH0 PUSH2 0xFFFF DUP3 AND SWAP1 POP SWAP2 SWAP1 POP JUMP JUMPDEST PUSH2 0x65F DUP2 PUSH2 0x649 JUMP JUMPDEST DUP3 MSTORE POP POP JUMP JUMPDEST PUSH0 PUSH4 0xFFFFFFFF DUP3 AND SWAP1 POP SWAP2 SWAP1 POP JUMP JUMPDEST PUSH2 0x67D DUP2 PUSH2 0x665 JUMP JUMPDEST DUP3 MSTORE POP POP JUMP JUMPDEST PUSH0 PUSH1 0x60 DUP3 ADD SWAP1 POP PUSH2 0x696 PUSH0 DUP4 ADD DUP7 PUSH2 0x4C8 JUMP JUMPDEST PUSH2 0x6A3 PUSH1 0x20 DUP4 ADD DUP6 PUSH2 0x656 JUMP JUMPDEST PUSH2 0x6B0 PUSH1 0x40 DUP4 ADD DUP5 PUSH2 0x674 JUMP JUMPDEST SWAP5 SWAP4 POP POP POP POP JUMP JUMPDEST PUSH0 PUSH1 0x20 DUP3 DUP5 SUB SLT ISZERO PUSH2 0x6CD JUMPI PUSH2 0x6CC PUSH2 0x524 JUMP JUMPDEST JUMPDEST PUSH0 PUSH2 0x6DA DUP5 DUP3 DUP6 ADD PUSH2 0x547 JUMP JUMPDEST SWAP2 POP POP SWAP3 SWAP2 POP POP JUMP JUMPDEST PUSH0 DUP2 PUSH1 0x3 SIGNEXTEND SWAP1 POP SWAP2 SWAP1 POP JUMP JUMPDEST PUSH2 0x6F8 DUP2 PUSH2 0x6E3 JUMP JUMPDEST DUP3 MSTORE POP POP JUMP JUMPDEST PUSH0 PUSH1 0x20 DUP3 ADD SWAP1 POP PUSH2 0x711 PUSH0 DUP4 ADD DUP5 PUSH2 0x6EF JUMP JUMPDEST SWAP3 SWAP2 POP POP JUMP JUMPDEST PUSH0 PUSH1 0x20 DUP3 ADD SWAP1 POP PUSH2 0x72A PUSH0 DUP4 ADD DUP5 PUSH2 0x656 JUMP JUMPDEST SWAP3 SWAP2 POP POP JUMP JUMPDEST PUSH32 0x4E487B7100000000000000000000000000000000000000000000000000000000 PUSH0 MSTORE PUSH1 0x11 PUSH1 0x4 MSTORE PUSH1 0x24 PUSH0 REVERT JUMPDEST PUSH0 PUSH2 0x767 DUP3 PUSH2 0x528 JUMP JUMPDEST SWAP2 POP PUSH2 0x772 DUP4 PUSH2 0x528 JUMP JUMPDEST SWAP3 POP DUP3 DUP3 ADD SWAP1 POP DUP1 DUP3 GT ISZERO PUSH2 0x78A JUMPI PUSH2 0x789 PUSH2 0x730 JUMP JUMPDEST JUMPDEST SWAP3 SWAP2 POP POP JUMP JUMPDEST PUSH0 DUP3 DUP3 MSTORE PUSH1 0x20 DUP3 ADD SWAP1 POP SWAP3 SWAP2 POP POP JUMP JUMPDEST PUSH32 0x496E746567657254797065733A2076616C756520657863656564732075696E74 PUSH0 DUP3 ADD MSTORE PUSH32 0x382072616E676500000000000000000000000000000000000000000000000000 PUSH1 0x20 DUP3 ADD MSTORE POP JUMP JUMPDEST PUSH0 PUSH2 0x7FA PUSH1 0x27 DUP4 PUSH2 0x790 JUMP JUMPDEST SWAP2 POP PUSH2 0x805 DUP3 PUSH2 0x7A0 JUMP JUMPDEST PUSH1 0x40 DUP3 ADD SWAP1 POP SWAP2 SWAP1 POP JUMP JUMPDEST PUSH0 PUSH1 0x20 DUP3 ADD SWAP1 POP DUP2 DUP2 SUB PUSH0 DUP4 ADD MSTORE PUSH2 0x827 DUP2 PUSH2 0x7EE JUMP JUMPDEST SWAP1 POP SWAP2 SWAP1 POP JUMP JUMPDEST PUSH0 PUSH2 0x838 DUP3 PUSH2 0x528 JUMP JUMPDEST SWAP2 POP PUSH2 0x843 DUP4 PUSH2 0x528 JUMP JUMPDEST SWAP3 POP DUP3 DUP3 SUB SWAP1 POP DUP2 DUP2 GT ISZERO PUSH2 0x85B JUMPI PUSH2 0x85A PUSH2 0x730 JUMP JUMPDEST JUMPDEST SWAP3 SWAP2 POP POP JUMP JUMPDEST PUSH32 0x496E746567657254797065733A206164646974696F6E206F766572666C6F7700 PUSH0 DUP3 ADD MSTORE POP JUMP JUMPDEST PUSH0 PUSH2 0x895 PUSH1 0x1F DUP4 PUSH2 0x790 JUMP JUMPDEST SWAP2 POP PUSH2 0x8A0 DUP3 PUSH2 0x861 JUMP JUMPDEST PUSH1 0x20 DUP3 ADD SWAP1 POP SWAP2 SWAP1 POP JUMP JUMPDEST PUSH0 PUSH1 0x20 DUP3 ADD SWAP1 POP DUP2 DUP2 SUB PUSH0 DUP4 ADD MSTORE PUSH2 0x8C2 DUP2 PUSH2 0x889 JUMP JUMPDEST SWAP1 POP SWAP2 SWAP1 POP JUMP INVALID LOG2 PUSH5 0x6970667358 0x22 SLT KECCAK256 0xAE 0x27 0xDF CHAINID AND 0xA9 ADDRESS 0x2D 0xA9 0xD8 0xC2 0xC 0xB4 0xAB PUSH14 0x9BD1E09D023BCAE8E72FCA2C7677 KECCAK256 RETF KECCAK256 PUSH5 0x736F6C6343 STOP ADDMOD 0x1E STOP CALLER "
				},
				"gasEstimates": {
					"creation": {
						"codeDepositCost": "460600",
						"executionCost": "141885",
						"totalCost": "602485"
					},
					"external": {
						"add(uint256,uint256)": "infinite",
						"count()": "2449",
						"count2()": "2538",
						"count3()": "2588",
						"demonstrateTypeConversions()": "711",
						"explicitSafeAdd(uint256,uint256)": "infinite",
						"isGreater(uint256,uint256)": "infinite",
						"num()": "2492",
						"num2()": "2512",
						"num3()": "2606",
						"safeConvertToUint8(uint256)": "751",
						"stateValueA()": "2512",
						"stateValueB()": "2491",
						"updateStateValueA(uint256)": "22537",
						"updateStateValueB(int256)": "22560"
					}
				},
				"methodIdentifiers": {
					"add(uint256,uint256)": "771602f7",
					"count()": "06661abd",
					"count2()": "1d63e24d",
					"count3()": "7b1d829c",
					"demonstrateTypeConversions()": "71cec743",
					"explicitSafeAdd(uint256,uint256)": "c7d5b456",
					"isGreater(uint256,uint256)": "22800a81",
					"num()": "4e70b1dc",
					"num2()": "15d4266c",
					"num3()": "a531f36a",
					"safeConvertToUint8(uint256)": "c612d08d",
					"stateValueA()": "e3286de6",
					"stateValueB()": "ca1c2835",
					"updateStateValueA(uint256)": "74f9032c",
					"updateStateValueB(int256)": "4e34cd39"
				}
			},
			"storageLayout": {
				"storage": [
					{
						"astId": 5,
						"contract": "5-Data Types/Integers.sol:IntegerTypes",
						"label": "stateValueA",
						"offset": 0,
						"slot": "0",
						"type": "t_uint256"
					},
					{
						"astId": 8,
						"contract": "5-Data Types/Integers.sol:IntegerTypes",
						"label": "stateValueB",
						"offset": 0,
						"slot": "1",
						"type": "t_int256"
					},
					{
						"astId": 12,
						"contract": "5-Data Types/Integers.sol:IntegerTypes",
						"label": "count",
						"offset": 0,
						"slot": "2",
						"type": "t_int256"
					},
					{
						"astId": 17,
						"contract": "5-Data Types/Integers.sol:IntegerTypes",
						"label": "count2",
						"offset": 0,
						"slot": "3",
						"type": "t_int16"
					},
					{
						"astId": 22,
						"contract": "5-Data Types/Integers.sol:IntegerTypes",
						"label": "count3",
						"offset": 2,
						"slot": "3",
						"type": "t_int32"
					},
					{
						"astId": 26,
						"contract": "5-Data Types/Integers.sol:IntegerTypes",
						"label": "num",
						"offset": 0,
						"slot": "4",
						"type": "t_uint256"
					},
					{
						"astId": 30,
						"contract": "5-Data Types/Integers.sol:IntegerTypes",
						"label": "num2",
						"offset": 0,
						"slot": "5",
						"type": "t_uint8"
					},
					{
						"astId": 34,
						"contract": "5-Data Types/Integers.sol:IntegerTypes",
						"label": "num3",
						"offset": 1,
						"slot": "5",
						"type": "t_uint16"
					}
				],
				"types": {
					"t_int16": {
						"encoding": "inplace",
						"label": "int16",
						"numberOfBytes": "2"
					},
					"t_int256": {
						"encoding": "inplace",
						"label": "int256",
						"numberOfBytes": "32"
					},
					"t_int32": {
						"encoding": "inplace",
						"label": "int32",
						"numberOfBytes": "4"
					},
					"t_uint16": {
						"encoding": "inplace",
						"label": "uint16",
						"numberOfBytes": "2"
					},
					"t_uint256": {
						"encoding": "inplace",
						"label": "uint256",
						"numberOfBytes": "32"
					},
					"t_uint8": {
						"encoding": "inplace",
						"label": "uint8",
						"numberOfBytes": "1"
					}
				}
			},
			"userdoc": {
				"kind": "user",
				"methods": {
					"add(uint256,uint256)": {
						"notice": "Uses Solidity 0.8.0+ built-in overflow protection"
					},
					"count2()": {
						"notice": "Range: -32,768 to 32,767"
					},
					"count3()": {
						"notice": "Range: -2,147,483,648 to 2,147,483,647"
					},
					"demonstrateTypeConversions()": {
						"notice": "Shows how to safely convert between integer types"
					},
					"explicitSafeAdd(uint256,uint256)": {
						"notice": "Demonstrates manual overflow check (redundant in 0.8.0+ but educational)"
					},
					"num2()": {
						"notice": "Range: 0 to 255"
					},
					"num3()": {
						"notice": "Range: 0 to 65,535"
					},
					"safeConvertToUint8(uint256)": {
						"notice": "Reverts if input exceeds uint8 range (255)"
					},
					"stateValueA()": {
						"notice": "Range: 0 to 2^256-1 (~1.15e77)uint256 is the default when using just 'uint'"
					},
					"stateValueB()": {
						"notice": "Range: -2^255 to 2^255-1 (~±5.79e76)"
					},
					"updateStateValueA(uint256)": {
						"notice": "Demonstrates state variable modification"
					}
				},
				"notice": "Shows different integer sizes, operations, and safe usage patterns",
				"version": 1
			}
		}
	}
}