{
	"7-Loops/loops.sol": {
		"loops": {
			"abi": [
				{
					"inputs": [
						{
							"internalType": "uint256",
							"name": "",
							"type": "uint256"
						}
					],
					"name": "arr",
					"outputs": [
						{
							"internalType": "uint256",
							"name": "",
							"type": "uint256"
						}
					],
					"stateMutability": "view",
					"type": "function"
				},
				{
					"inputs": [],
					"name": "count",
					"outputs": [
						{
							"internalType": "uint256",
							"name": "",
							"type": "uint256"
						}
					],
					"stateMutability": "view",
					"type": "function"
				},
				{
					"inputs": [],
					"name": "dowhile",
					"outputs": [],
					"stateMutability": "nonpayable",
					"type": "function"
				},
				{
					"inputs": [],
					"name": "fixedForLoop",
					"outputs": [],
					"stateMutability": "nonpayable",
					"type": "function"
				},
				{
					"inputs": [],
					"name": "forloop",
					"outputs": [],
					"stateMutability": "nonpayable",
					"type": "function"
				},
				{
					"inputs": [],
					"name": "getArray",
					"outputs": [
						{
							"internalType": "uint256[3]",
							"name": "",
							"type": "uint256[3]"
						}
					],
					"stateMutability": "view",
					"type": "function"
				},
				{
					"inputs": [],
					"name": "getCount",
					"outputs": [
						{
							"internalType": "uint256",
							"name": "",
							"type": "uint256"
						}
					],
					"stateMutability": "view",
					"type": "function"
				},
				{
					"inputs": [],
					"name": "getLength",
					"outputs": [
						{
							"internalType": "uint256",
							"name": "",
							"type": "uint256"
						}
					],
					"stateMutability": "view",
					"type": "function"
				},
				{
					"inputs": [],
					"name": "loop",
					"outputs": [],
					"stateMutability": "nonpayable",
					"type": "function"
				},
				{
					"inputs": [],
					"name": "reset",
					"outputs": [],
					"stateMutability": "nonpayable",
					"type": "function"
				},
				{
					"inputs": [
						{
							"internalType": "uint256",
							"name": "startIndex",
							"type": "uint256"
						},
						{
							"internalType": "uint256",
							"name": "endIndex",
							"type": "uint256"
						}
					],
					"name": "safeForLoop",
					"outputs": [],
					"stateMutability": "nonpayable",
					"type": "function"
				}
			],
			"devdoc": {
				"details": "Demonstrates different loop constructs in Solidity",
				"kind": "dev",
				"methods": {
					"dowhile()": {
						"details": "Demonstrates a do-while loop structureGas cost: ~25,000-50,000 (varies based on iterations)"
					},
					"fixedForLoop()": {
						"details": "Corrected version of the for loop"
					},
					"forloop()": {
						"details": "Demonstrates a for loop structureBUG: This contains a logical error - it always writes to arr[count]CORRECT BEHAVIOR: Should use the loop index 'i' instead of 'count'Gas cost: ~25,000-50,000 (varies based on iterations)"
					},
					"getArray()": {
						"details": "Gets the entire array",
						"returns": {
							"_0": "A copy of the array in memory"
						}
					},
					"getCount()": {
						"details": "Gets the current count value",
						"returns": {
							"_0": "The current value of count"
						}
					},
					"getLength()": {
						"details": "Gets the length of the array",
						"returns": {
							"_0": "The fixed length of the array (always 3)"
						}
					},
					"loop()": {
						"details": "Demonstrates a while loop structureWARNING: This function can only be called once completely       as it modifies the count state variableGas cost: ~50,000-75,000 (varies based on state changes)"
					},
					"reset()": {
						"details": "Resets the count and array to initial state"
					},
					"safeForLoop(uint256,uint256)": {
						"details": "Demonstrates a safe for loop with bounds checking",
						"params": {
							"endIndex": "The index to end at (exclusive)",
							"startIndex": "The index to start from"
						}
					}
				},
				"stateVariables": {
					"arr": {
						"details": "Fixed-size array of 3 uint256 elements"
					},
					"count": {
						"details": "Counter variable to track array position"
					}
				},
				"title": "Loop Structures in Solidity",
				"version": 1
			},
			"evm": {
				"assembly": "    /* \"7-Loops/loops.sol\":323:5473  contract loops {... */\n  mstore(0x40, 0x80)\n    /* \"7-Loops/loops.sol\":779:780  0 */\n  0x00\n    /* \"7-Loops/loops.sol\":756:780  uint256 public count = 0 */\n  0x03\n  sstore\n    /* \"7-Loops/loops.sol\":323:5473  contract loops {... */\n  callvalue\n  dup1\n  iszero\n  tag_1\n  jumpi\n  revert(0x00, 0x00)\ntag_1:\n  pop\n  dataSize(sub_0)\n  dup1\n  dataOffset(sub_0)\n  0x00\n  codecopy\n  0x00\n  return\nstop\n\nsub_0: assembly {\n        /* \"7-Loops/loops.sol\":323:5473  contract loops {... */\n      mstore(0x40, 0x80)\n      callvalue\n      dup1\n      iszero\n      tag_1\n      jumpi\n      revert(0x00, 0x00)\n    tag_1:\n      pop\n      jumpi(tag_2, lt(calldatasize, 0x04))\n      shr(0xe0, calldataload(0x00))\n      dup1\n      0xa87d942c\n      gt\n      tag_14\n      jumpi\n      dup1\n      0xa87d942c\n      eq\n      tag_8\n      jumpi\n      dup1\n      0xa92100cb\n      eq\n      tag_9\n      jumpi\n      dup1\n      0xbc68f960\n      eq\n      tag_10\n      jumpi\n      dup1\n      0xbe1c766b\n      eq\n      tag_11\n      jumpi\n      dup1\n      0xd504ea1d\n      eq\n      tag_12\n      jumpi\n      dup1\n      0xd826f88f\n      eq\n      tag_13\n      jumpi\n      jump(tag_2)\n    tag_14:\n      dup1\n      0x02a2cf0b\n      eq\n      tag_3\n      jumpi\n      dup1\n      0x06661abd\n      eq\n      tag_4\n      jumpi\n      dup1\n      0x2cd0936e\n      eq\n      tag_5\n      jumpi\n      dup1\n      0x587171c4\n      eq\n      tag_6\n      jumpi\n      dup1\n      0x71e5ee5f\n      eq\n      tag_7\n      jumpi\n    tag_2:\n      revert(0x00, 0x00)\n        /* \"7-Loops/loops.sol\":3437:3805  function dowhile() public {... */\n    tag_3:\n      tag_15\n      tag_16\n      jump\t// in\n    tag_15:\n      stop\n        /* \"7-Loops/loops.sol\":756:780  uint256 public count = 0 */\n    tag_4:\n      tag_17\n      tag_18\n      jump\t// in\n    tag_17:\n      mload(0x40)\n      tag_19\n      swap2\n      swap1\n      tag_20\n      jump\t// in\n    tag_19:\n      mload(0x40)\n      dup1\n      swap2\n      sub\n      swap1\n      return\n        /* \"7-Loops/loops.sol\":5162:5471  function safeForLoop(uint256 startIndex, uint256 endIndex) public {... */\n    tag_5:\n      tag_21\n      0x04\n      dup1\n      calldatasize\n      sub\n      dup2\n      add\n      swap1\n      tag_22\n      swap2\n      swap1\n      tag_23\n      jump\t// in\n    tag_22:\n      tag_24\n      jump\t// in\n    tag_21:\n      stop\n        /* \"7-Loops/loops.sol\":2920:3137  function fixedForLoop() public {... */\n    tag_6:\n      tag_25\n      tag_26\n      jump\t// in\n    tag_25:\n      stop\n        /* \"7-Loops/loops.sol\":543:564  uint256[3] public arr */\n    tag_7:\n      tag_27\n      0x04\n      dup1\n      calldatasize\n      sub\n      dup2\n      add\n      swap1\n      tag_28\n      swap2\n      swap1\n      tag_29\n      jump\t// in\n    tag_28:\n      tag_30\n      jump\t// in\n    tag_27:\n      mload(0x40)\n      tag_31\n      swap2\n      swap1\n      tag_20\n      jump\t// in\n    tag_31:\n      mload(0x40)\n      dup1\n      swap2\n      sub\n      swap1\n      return\n        /* \"7-Loops/loops.sol\":4819:4898  function getCount() public view returns (uint256) {... */\n    tag_8:\n      tag_32\n      tag_33\n      jump\t// in\n    tag_32:\n      mload(0x40)\n      tag_34\n      swap2\n      swap1\n      tag_20\n      jump\t// in\n    tag_34:\n      mload(0x40)\n      dup1\n      swap2\n      sub\n      swap1\n      return\n        /* \"7-Loops/loops.sol\":1268:1898  function loop() public {... */\n    tag_9:\n      tag_35\n      tag_36\n      jump\t// in\n    tag_35:\n      stop\n        /* \"7-Loops/loops.sol\":2259:2735  function forloop() public {... */\n    tag_10:\n      tag_37\n      tag_38\n      jump\t// in\n    tag_37:\n      stop\n        /* \"7-Loops/loops.sol\":3990:4075  function getLength() public view returns (uint256) {... */\n    tag_11:\n      tag_39\n      tag_40\n      jump\t// in\n    tag_39:\n      mload(0x40)\n      tag_41\n      swap2\n      swap1\n      tag_20\n      jump\t// in\n    tag_41:\n      mload(0x40)\n      dup1\n      swap2\n      sub\n      swap1\n      return\n        /* \"7-Loops/loops.sol\":4307:4394  function getArray() public view returns (uint256[3] memory) {... */\n    tag_12:\n      tag_42\n      tag_43\n      jump\t// in\n    tag_42:\n      mload(0x40)\n      tag_44\n      swap2\n      swap1\n      tag_45\n      jump\t// in\n    tag_44:\n      mload(0x40)\n      dup1\n      swap2\n      sub\n      swap1\n      return\n        /* \"7-Loops/loops.sol\":4591:4666  function reset() public {... */\n    tag_13:\n      tag_46\n      tag_47\n      jump\t// in\n    tag_46:\n      stop\n        /* \"7-Loops/loops.sol\":3437:3805  function dowhile() public {... */\n    tag_16:\n        /* \"7-Loops/loops.sol\":3547:3799  do {... */\n    tag_49:\n        /* \"7-Loops/loops.sol\":3638:3643  count */\n      sload(0x03)\n        /* \"7-Loops/loops.sol\":3625:3628  arr */\n      0x00\n        /* \"7-Loops/loops.sol\":3629:3634  count */\n      sload(0x03)\n        /* \"7-Loops/loops.sol\":3625:3635  arr[count] */\n      0x03\n      dup2\n      lt\n      tag_52\n      jumpi\n      tag_53\n      tag_54\n      jump\t// in\n    tag_53:\n    tag_52:\n      add\n        /* \"7-Loops/loops.sol\":3625:3643  arr[count] = count */\n      dup2\n      swap1\n      sstore\n      pop\n        /* \"7-Loops/loops.sol\":3695:3700  count */\n      0x03\n      0x00\n        /* \"7-Loops/loops.sol\":3695:3702  count++ */\n      dup2\n      sload\n      dup1\n      swap3\n      swap2\n      swap1\n      tag_56\n      swap1\n      tag_57\n      jump\t// in\n    tag_56:\n      swap2\n      swap1\n      pop\n      sstore\n      pop\n        /* \"7-Loops/loops.sol\":3787:3797  arr.length */\n      0x03\n        /* \"7-Loops/loops.sol\":3779:3784  count */\n      dup1\n      sload\n        /* \"7-Loops/loops.sol\":3779:3797  count < arr.length */\n      lt\n        /* \"7-Loops/loops.sol\":3547:3799  do {... */\n      tag_49\n      jumpi\n        /* \"7-Loops/loops.sol\":3437:3805  function dowhile() public {... */\n      jump\t// out\n        /* \"7-Loops/loops.sol\":756:780  uint256 public count = 0 */\n    tag_18:\n      sload(0x03)\n      dup2\n      jump\t// out\n        /* \"7-Loops/loops.sol\":5162:5471  function safeForLoop(uint256 startIndex, uint256 endIndex) public {... */\n    tag_24:\n        /* \"7-Loops/loops.sol\":5258:5268  arr.length */\n      0x03\n        /* \"7-Loops/loops.sol\":5246:5254  endIndex */\n      dup2\n        /* \"7-Loops/loops.sol\":5246:5268  endIndex <= arr.length */\n      gt\n      iszero\n        /* \"7-Loops/loops.sol\":5238:5296  require(endIndex <= arr.length, \"End index out of bounds\") */\n      tag_59\n      jumpi\n      mload(0x40)\n      0x08c379a000000000000000000000000000000000000000000000000000000000\n      dup2\n      mstore\n      0x04\n      add\n      tag_60\n      swap1\n      tag_61\n      jump\t// in\n    tag_60:\n      mload(0x40)\n      dup1\n      swap2\n      sub\n      swap1\n      revert\n    tag_59:\n        /* \"7-Loops/loops.sol\":5327:5335  endIndex */\n      dup1\n        /* \"7-Loops/loops.sol\":5314:5324  startIndex */\n      dup3\n        /* \"7-Loops/loops.sol\":5314:5335  startIndex < endIndex */\n      lt\n        /* \"7-Loops/loops.sol\":5306:5367  require(startIndex < endIndex, \"Start must be less than end\") */\n      tag_62\n      jumpi\n      mload(0x40)\n      0x08c379a000000000000000000000000000000000000000000000000000000000\n      dup2\n      mstore\n      0x04\n      add\n      tag_63\n      swap1\n      tag_64\n      jump\t// in\n    tag_63:\n      mload(0x40)\n      dup1\n      swap2\n      sub\n      swap1\n      revert\n    tag_62:\n        /* \"7-Loops/loops.sol\":5383:5392  uint256 i */\n      0x00\n        /* \"7-Loops/loops.sol\":5395:5405  startIndex */\n      dup3\n        /* \"7-Loops/loops.sol\":5383:5405  uint256 i = startIndex */\n      swap1\n      pop\n        /* \"7-Loops/loops.sol\":5378:5465  for (uint256 i = startIndex; i < endIndex; i++) {... */\n    tag_65:\n        /* \"7-Loops/loops.sol\":5411:5419  endIndex */\n      dup2\n        /* \"7-Loops/loops.sol\":5407:5408  i */\n      dup2\n        /* \"7-Loops/loops.sol\":5407:5419  i < endIndex */\n      lt\n        /* \"7-Loops/loops.sol\":5378:5465  for (uint256 i = startIndex; i < endIndex; i++) {... */\n      iszero\n      tag_66\n      jumpi\n        /* \"7-Loops/loops.sol\":5453:5454  2 */\n      0x02\n        /* \"7-Loops/loops.sol\":5449:5450  i */\n      dup2\n        /* \"7-Loops/loops.sol\":5449:5454  i * 2 */\n      tag_68\n      swap2\n      swap1\n      tag_69\n      jump\t// in\n    tag_68:\n        /* \"7-Loops/loops.sol\":5440:5443  arr */\n      0x00\n        /* \"7-Loops/loops.sol\":5444:5445  i */\n      dup3\n        /* \"7-Loops/loops.sol\":5440:5446  arr[i] */\n      0x03\n      dup2\n      lt\n      tag_70\n      jumpi\n      tag_71\n      tag_54\n      jump\t// in\n    tag_71:\n    tag_70:\n      add\n        /* \"7-Loops/loops.sol\":5440:5454  arr[i] = i * 2 */\n      dup2\n      swap1\n      sstore\n      pop\n        /* \"7-Loops/loops.sol\":5421:5424  i++ */\n      dup1\n      dup1\n      0x01\n      add\n      swap2\n      pop\n      pop\n        /* \"7-Loops/loops.sol\":5378:5465  for (uint256 i = startIndex; i < endIndex; i++) {... */\n      jump(tag_65)\n    tag_66:\n      pop\n        /* \"7-Loops/loops.sol\":5162:5471  function safeForLoop(uint256 startIndex, uint256 endIndex) public {... */\n      pop\n      pop\n      jump\t// out\n        /* \"7-Loops/loops.sol\":2920:3137  function fixedForLoop() public {... */\n    tag_26:\n        /* \"7-Loops/loops.sol\":2966:2975  uint256 i */\n      0x00\n        /* \"7-Loops/loops.sol\":2978:2983  count */\n      sload(0x03)\n        /* \"7-Loops/loops.sol\":2966:2983  uint256 i = count */\n      swap1\n      pop\n        /* \"7-Loops/loops.sol\":2961:3131  for (uint256 i = count; i < arr.length; i++) {... */\n    tag_74:\n        /* \"7-Loops/loops.sol\":2989:2999  arr.length */\n      0x03\n        /* \"7-Loops/loops.sol\":2985:2986  i */\n      dup2\n        /* \"7-Loops/loops.sol\":2985:2999  i < arr.length */\n      lt\n        /* \"7-Loops/loops.sol\":2961:3131  for (uint256 i = count; i < arr.length; i++) {... */\n      iszero\n      tag_75\n      jumpi\n        /* \"7-Loops/loops.sol\":3029:3030  i */\n      dup1\n        /* \"7-Loops/loops.sol\":3020:3023  arr */\n      0x00\n        /* \"7-Loops/loops.sol\":3024:3025  i */\n      dup3\n        /* \"7-Loops/loops.sol\":3020:3026  arr[i] */\n      0x03\n      dup2\n      lt\n      tag_77\n      jumpi\n      tag_78\n      tag_54\n      jump\t// in\n    tag_78:\n    tag_77:\n      add\n        /* \"7-Loops/loops.sol\":3020:3030  arr[i] = i */\n      dup2\n      swap1\n      sstore\n      pop\n        /* \"7-Loops/loops.sol\":3084:3085  1 */\n      0x01\n        /* \"7-Loops/loops.sol\":3080:3081  i */\n      dup2\n        /* \"7-Loops/loops.sol\":3080:3085  i + 1 */\n      tag_80\n      swap2\n      swap1\n      tag_81\n      jump\t// in\n    tag_80:\n        /* \"7-Loops/loops.sol\":3072:3077  count */\n      0x03\n        /* \"7-Loops/loops.sol\":3072:3085  count = i + 1 */\n      dup2\n      swap1\n      sstore\n      pop\n        /* \"7-Loops/loops.sol\":3001:3004  i++ */\n      dup1\n      dup1\n      0x01\n      add\n      swap2\n      pop\n      pop\n        /* \"7-Loops/loops.sol\":2961:3131  for (uint256 i = count; i < arr.length; i++) {... */\n      jump(tag_74)\n    tag_75:\n      pop\n        /* \"7-Loops/loops.sol\":2920:3137  function fixedForLoop() public {... */\n      jump\t// out\n        /* \"7-Loops/loops.sol\":543:564  uint256[3] public arr */\n    tag_30:\n      0x00\n      dup2\n      0x03\n      dup2\n      lt\n      tag_82\n      jumpi\n      0x00\n      dup1\n      revert\n    tag_82:\n      add\n      0x00\n      swap2\n      pop\n      swap1\n      pop\n      sload\n      dup2\n      jump\t// out\n        /* \"7-Loops/loops.sol\":4819:4898  function getCount() public view returns (uint256) {... */\n    tag_33:\n        /* \"7-Loops/loops.sol\":4860:4867  uint256 */\n      0x00\n        /* \"7-Loops/loops.sol\":4886:4891  count */\n      sload(0x03)\n        /* \"7-Loops/loops.sol\":4879:4891  return count */\n      swap1\n      pop\n        /* \"7-Loops/loops.sol\":4819:4898  function getCount() public view returns (uint256) {... */\n      swap1\n      jump\t// out\n        /* \"7-Loops/loops.sol\":1268:1898  function loop() public {... */\n    tag_36:\n        /* \"7-Loops/loops.sol\":1346:1359  uint256 value */\n      0x00\n        /* \"7-Loops/loops.sol\":1362:1363  2 */\n      0x02\n        /* \"7-Loops/loops.sol\":1346:1363  uint256 value = 2 */\n      swap1\n      pop\n        /* \"7-Loops/loops.sol\":1486:1892  while (count < arr.length) {... */\n    tag_86:\n        /* \"7-Loops/loops.sol\":1501:1511  arr.length */\n      0x03\n        /* \"7-Loops/loops.sol\":1493:1498  count */\n      dup1\n      sload\n        /* \"7-Loops/loops.sol\":1493:1511  count < arr.length */\n      lt\n        /* \"7-Loops/loops.sol\":1486:1892  while (count < arr.length) {... */\n      iszero\n      tag_87\n      jumpi\n        /* \"7-Loops/loops.sol\":1667:1672  value */\n      dup1\n        /* \"7-Loops/loops.sol\":1663:1664  2 */\n      0x02\n        /* \"7-Loops/loops.sol\":1663:1672  2 * value */\n      tag_88\n      swap2\n      swap1\n      tag_69\n      jump\t// in\n    tag_88:\n        /* \"7-Loops/loops.sol\":1650:1653  arr */\n      0x00\n        /* \"7-Loops/loops.sol\":1654:1659  count */\n      sload(0x03)\n        /* \"7-Loops/loops.sol\":1650:1660  arr[count] */\n      0x03\n      dup2\n      lt\n      tag_89\n      jumpi\n      tag_90\n      tag_54\n      jump\t// in\n    tag_90:\n    tag_89:\n      add\n        /* \"7-Loops/loops.sol\":1650:1672  arr[count] = 2 * value */\n      dup2\n      swap1\n      sstore\n      pop\n        /* \"7-Loops/loops.sol\":1768:1769  3 */\n      0x03\n        /* \"7-Loops/loops.sol\":1760:1765  value */\n      dup2\n        /* \"7-Loops/loops.sol\":1760:1769  value + 3 */\n      tag_92\n      swap2\n      swap1\n      tag_81\n      jump\t// in\n    tag_92:\n        /* \"7-Loops/loops.sol\":1752:1769  value = value + 3 */\n      swap1\n      pop\n        /* \"7-Loops/loops.sol\":1863:1864  1 */\n      0x01\n        /* \"7-Loops/loops.sol\":1855:1860  count */\n      sload(0x03)\n        /* \"7-Loops/loops.sol\":1855:1864  count + 1 */\n      tag_93\n      swap2\n      swap1\n      tag_81\n      jump\t// in\n    tag_93:\n        /* \"7-Loops/loops.sol\":1847:1852  count */\n      0x03\n        /* \"7-Loops/loops.sol\":1847:1864  count = count + 1 */\n      dup2\n      swap1\n      sstore\n      pop\n        /* \"7-Loops/loops.sol\":1486:1892  while (count < arr.length) {... */\n      jump(tag_86)\n    tag_87:\n        /* \"7-Loops/loops.sol\":1291:1898  {... */\n      pop\n        /* \"7-Loops/loops.sol\":1268:1898  function loop() public {... */\n      jump\t// out\n        /* \"7-Loops/loops.sol\":2259:2735  function forloop() public {... */\n    tag_38:\n        /* \"7-Loops/loops.sol\":2431:2440  uint256 i */\n      0x00\n        /* \"7-Loops/loops.sol\":2443:2448  count */\n      sload(0x03)\n        /* \"7-Loops/loops.sol\":2431:2448  uint256 i = count */\n      swap1\n      pop\n        /* \"7-Loops/loops.sol\":2426:2729  for (uint256 i = count; i < arr.length; i++) {... */\n    tag_95:\n        /* \"7-Loops/loops.sol\":2454:2464  arr.length */\n      0x03\n        /* \"7-Loops/loops.sol\":2450:2451  i */\n      dup2\n        /* \"7-Loops/loops.sol\":2450:2464  i < arr.length */\n      lt\n        /* \"7-Loops/loops.sol\":2426:2729  for (uint256 i = count; i < arr.length; i++) {... */\n      iszero\n      tag_96\n      jumpi\n        /* \"7-Loops/loops.sol\":2571:2576  count */\n      sload(0x03)\n        /* \"7-Loops/loops.sol\":2558:2561  arr */\n      0x00\n        /* \"7-Loops/loops.sol\":2562:2567  count */\n      sload(0x03)\n        /* \"7-Loops/loops.sol\":2558:2568  arr[count] */\n      0x03\n      dup2\n      lt\n      tag_98\n      jumpi\n      tag_99\n      tag_54\n      jump\t// in\n    tag_99:\n    tag_98:\n      add\n        /* \"7-Loops/loops.sol\":2558:2576  arr[count] = count */\n      dup2\n      swap1\n      sstore\n      pop\n        /* \"7-Loops/loops.sol\":2466:2469  i++ */\n      dup1\n      dup1\n      0x01\n      add\n      swap2\n      pop\n      pop\n        /* \"7-Loops/loops.sol\":2426:2729  for (uint256 i = count; i < arr.length; i++) {... */\n      jump(tag_95)\n    tag_96:\n      pop\n        /* \"7-Loops/loops.sol\":2259:2735  function forloop() public {... */\n      jump\t// out\n        /* \"7-Loops/loops.sol\":3990:4075  function getLength() public view returns (uint256) {... */\n    tag_40:\n        /* \"7-Loops/loops.sol\":4032:4039  uint256 */\n      0x00\n        /* \"7-Loops/loops.sol\":4058:4068  arr.length */\n      0x03\n        /* \"7-Loops/loops.sol\":4051:4068  return arr.length */\n      swap1\n      pop\n        /* \"7-Loops/loops.sol\":3990:4075  function getLength() public view returns (uint256) {... */\n      swap1\n      jump\t// out\n        /* \"7-Loops/loops.sol\":4307:4394  function getArray() public view returns (uint256[3] memory) {... */\n    tag_43:\n        /* \"7-Loops/loops.sol\":4348:4365  uint256[3] memory */\n      tag_102\n      tag_103\n      jump\t// in\n    tag_102:\n        /* \"7-Loops/loops.sol\":4384:4387  arr */\n      0x00\n        /* \"7-Loops/loops.sol\":4377:4387  return arr */\n      0x03\n      dup1\n      0x20\n      mul\n      mload(0x40)\n      swap1\n      dup2\n      add\n      0x40\n      mstore\n      dup1\n      swap3\n      swap2\n      swap1\n      dup3\n      0x03\n      dup1\n      iszero\n      tag_105\n      jumpi\n      0x20\n      mul\n      dup3\n      add\n      swap2\n    tag_106:\n      dup2\n      sload\n      dup2\n      mstore\n      0x20\n      add\n      swap1\n      0x01\n      add\n      swap1\n      dup1\n      dup4\n      gt\n      tag_106\n      jumpi\n    tag_105:\n      pop\n      pop\n      pop\n      pop\n      pop\n      swap1\n      pop\n        /* \"7-Loops/loops.sol\":4307:4394  function getArray() public view returns (uint256[3] memory) {... */\n      swap1\n      jump\t// out\n        /* \"7-Loops/loops.sol\":4591:4666  function reset() public {... */\n    tag_47:\n        /* \"7-Loops/loops.sol\":4633:4634  0 */\n      0x00\n        /* \"7-Loops/loops.sol\":4625:4630  count */\n      0x03\n        /* \"7-Loops/loops.sol\":4625:4634  count = 0 */\n      dup2\n      swap1\n      sstore\n      pop\n        /* \"7-Loops/loops.sol\":4644:4659  arr = [0, 0, 0] */\n      mload(0x40)\n      dup1\n      0x60\n      add\n      0x40\n      mstore\n      dup1\n        /* \"7-Loops/loops.sol\":4651:4652  0 */\n      0x00\n        /* \"7-Loops/loops.sol\":4644:4659  arr = [0, 0, 0] */\n      0xff\n      and\n      dup2\n      mstore\n      0x20\n      add\n        /* \"7-Loops/loops.sol\":4654:4655  0 */\n      0x00\n        /* \"7-Loops/loops.sol\":4644:4659  arr = [0, 0, 0] */\n      0xff\n      and\n      dup2\n      mstore\n      0x20\n      add\n        /* \"7-Loops/loops.sol\":4657:4658  0 */\n      0x00\n        /* \"7-Loops/loops.sol\":4644:4659  arr = [0, 0, 0] */\n      0xff\n      and\n      dup2\n      mstore\n      pop\n        /* \"7-Loops/loops.sol\":4644:4647  arr */\n      0x00\n        /* \"7-Loops/loops.sol\":4644:4659  arr = [0, 0, 0] */\n      swap1\n      0x03\n      tag_108\n      swap3\n      swap2\n      swap1\n      tag_109\n      jump\t// in\n    tag_108:\n      pop\n        /* \"7-Loops/loops.sol\":4591:4666  function reset() public {... */\n      jump\t// out\n    tag_103:\n      mload(0x40)\n      dup1\n      0x60\n      add\n      0x40\n      mstore\n      dup1\n      0x03\n      swap1\n      0x20\n      dup3\n      mul\n      dup1\n      calldatasize\n      dup4\n      calldatacopy\n      dup1\n      dup3\n      add\n      swap2\n      pop\n      pop\n      swap1\n      pop\n      pop\n      swap1\n      jump\t// out\n    tag_109:\n      dup3\n      0x03\n      dup2\n      add\n      swap3\n      dup3\n      iszero\n      tag_110\n      jumpi\n      swap2\n      0x20\n      mul\n      dup3\n      add\n    tag_111:\n      dup3\n      dup2\n      gt\n      iszero\n      tag_112\n      jumpi\n      dup3\n      mload\n      dup3\n      swap1\n      0xff\n      and\n      swap1\n      sstore\n      swap2\n      0x20\n      add\n      swap2\n      swap1\n      0x01\n      add\n      swap1\n      jump(tag_111)\n    tag_112:\n    tag_110:\n      pop\n      swap1\n      pop\n      tag_113\n      swap2\n      swap1\n      tag_114\n      jump\t// in\n    tag_113:\n      pop\n      swap1\n      jump\t// out\n    tag_114:\n    tag_115:\n      dup1\n      dup3\n      gt\n      iszero\n      tag_116\n      jumpi\n      0x00\n      dup2\n      0x00\n      swap1\n      sstore\n      pop\n      0x01\n      add\n      jump(tag_115)\n    tag_116:\n      pop\n      swap1\n      jump\t// out\n        /* \"#utility.yul\":7:84   */\n    tag_117:\n        /* \"#utility.yul\":44:51   */\n      0x00\n        /* \"#utility.yul\":73:78   */\n      dup2\n        /* \"#utility.yul\":62:78   */\n      swap1\n      pop\n        /* \"#utility.yul\":7:84   */\n      swap2\n      swap1\n      pop\n      jump\t// out\n        /* \"#utility.yul\":90:208   */\n    tag_118:\n        /* \"#utility.yul\":177:201   */\n      tag_140\n        /* \"#utility.yul\":195:200   */\n      dup2\n        /* \"#utility.yul\":177:201   */\n      tag_117\n      jump\t// in\n    tag_140:\n        /* \"#utility.yul\":172:175   */\n      dup3\n        /* \"#utility.yul\":165:202   */\n      mstore\n        /* \"#utility.yul\":90:208   */\n      pop\n      pop\n      jump\t// out\n        /* \"#utility.yul\":214:436   */\n    tag_20:\n        /* \"#utility.yul\":307:311   */\n      0x00\n        /* \"#utility.yul\":345:347   */\n      0x20\n        /* \"#utility.yul\":334:343   */\n      dup3\n        /* \"#utility.yul\":330:348   */\n      add\n        /* \"#utility.yul\":322:348   */\n      swap1\n      pop\n        /* \"#utility.yul\":358:429   */\n      tag_142\n        /* \"#utility.yul\":426:427   */\n      0x00\n        /* \"#utility.yul\":415:424   */\n      dup4\n        /* \"#utility.yul\":411:428   */\n      add\n        /* \"#utility.yul\":402:408   */\n      dup5\n        /* \"#utility.yul\":358:429   */\n      tag_118\n      jump\t// in\n    tag_142:\n        /* \"#utility.yul\":214:436   */\n      swap3\n      swap2\n      pop\n      pop\n      jump\t// out\n        /* \"#utility.yul\":523:640   */\n    tag_120:\n        /* \"#utility.yul\":632:633   */\n      0x00\n        /* \"#utility.yul\":629:630   */\n      0x00\n        /* \"#utility.yul\":622:634   */\n      revert\n        /* \"#utility.yul\":769:891   */\n    tag_122:\n        /* \"#utility.yul\":842:866   */\n      tag_147\n        /* \"#utility.yul\":860:865   */\n      dup2\n        /* \"#utility.yul\":842:866   */\n      tag_117\n      jump\t// in\n    tag_147:\n        /* \"#utility.yul\":835:840   */\n      dup2\n        /* \"#utility.yul\":832:867   */\n      eq\n        /* \"#utility.yul\":822:885   */\n      tag_148\n      jumpi\n        /* \"#utility.yul\":881:882   */\n      0x00\n        /* \"#utility.yul\":878:879   */\n      0x00\n        /* \"#utility.yul\":871:883   */\n      revert\n        /* \"#utility.yul\":822:885   */\n    tag_148:\n        /* \"#utility.yul\":769:891   */\n      pop\n      jump\t// out\n        /* \"#utility.yul\":897:1036   */\n    tag_123:\n        /* \"#utility.yul\":943:948   */\n      0x00\n        /* \"#utility.yul\":981:987   */\n      dup2\n        /* \"#utility.yul\":968:988   */\n      calldataload\n        /* \"#utility.yul\":959:988   */\n      swap1\n      pop\n        /* \"#utility.yul\":997:1030   */\n      tag_150\n        /* \"#utility.yul\":1024:1029   */\n      dup2\n        /* \"#utility.yul\":997:1030   */\n      tag_122\n      jump\t// in\n    tag_150:\n        /* \"#utility.yul\":897:1036   */\n      swap3\n      swap2\n      pop\n      pop\n      jump\t// out\n        /* \"#utility.yul\":1042:1516   */\n    tag_23:\n        /* \"#utility.yul\":1110:1116   */\n      0x00\n        /* \"#utility.yul\":1118:1124   */\n      0x00\n        /* \"#utility.yul\":1167:1169   */\n      0x40\n        /* \"#utility.yul\":1155:1164   */\n      dup4\n        /* \"#utility.yul\":1146:1153   */\n      dup6\n        /* \"#utility.yul\":1142:1165   */\n      sub\n        /* \"#utility.yul\":1138:1170   */\n      slt\n        /* \"#utility.yul\":1135:1254   */\n      iszero\n      tag_152\n      jumpi\n        /* \"#utility.yul\":1173:1252   */\n      tag_153\n      tag_120\n      jump\t// in\n    tag_153:\n        /* \"#utility.yul\":1135:1254   */\n    tag_152:\n        /* \"#utility.yul\":1293:1294   */\n      0x00\n        /* \"#utility.yul\":1318:1371   */\n      tag_154\n        /* \"#utility.yul\":1363:1370   */\n      dup6\n        /* \"#utility.yul\":1354:1360   */\n      dup3\n        /* \"#utility.yul\":1343:1352   */\n      dup7\n        /* \"#utility.yul\":1339:1361   */\n      add\n        /* \"#utility.yul\":1318:1371   */\n      tag_123\n      jump\t// in\n    tag_154:\n        /* \"#utility.yul\":1308:1371   */\n      swap3\n      pop\n        /* \"#utility.yul\":1264:1381   */\n      pop\n        /* \"#utility.yul\":1420:1422   */\n      0x20\n        /* \"#utility.yul\":1446:1499   */\n      tag_155\n        /* \"#utility.yul\":1491:1498   */\n      dup6\n        /* \"#utility.yul\":1482:1488   */\n      dup3\n        /* \"#utility.yul\":1471:1480   */\n      dup7\n        /* \"#utility.yul\":1467:1489   */\n      add\n        /* \"#utility.yul\":1446:1499   */\n      tag_123\n      jump\t// in\n    tag_155:\n        /* \"#utility.yul\":1436:1499   */\n      swap2\n      pop\n        /* \"#utility.yul\":1391:1509   */\n      pop\n        /* \"#utility.yul\":1042:1516   */\n      swap3\n      pop\n      swap3\n      swap1\n      pop\n      jump\t// out\n        /* \"#utility.yul\":1522:1851   */\n    tag_29:\n        /* \"#utility.yul\":1581:1587   */\n      0x00\n        /* \"#utility.yul\":1630:1632   */\n      0x20\n        /* \"#utility.yul\":1618:1627   */\n      dup3\n        /* \"#utility.yul\":1609:1616   */\n      dup5\n        /* \"#utility.yul\":1605:1628   */\n      sub\n        /* \"#utility.yul\":1601:1633   */\n      slt\n        /* \"#utility.yul\":1598:1717   */\n      iszero\n      tag_157\n      jumpi\n        /* \"#utility.yul\":1636:1715   */\n      tag_158\n      tag_120\n      jump\t// in\n    tag_158:\n        /* \"#utility.yul\":1598:1717   */\n    tag_157:\n        /* \"#utility.yul\":1756:1757   */\n      0x00\n        /* \"#utility.yul\":1781:1834   */\n      tag_159\n        /* \"#utility.yul\":1826:1833   */\n      dup5\n        /* \"#utility.yul\":1817:1823   */\n      dup3\n        /* \"#utility.yul\":1806:1815   */\n      dup6\n        /* \"#utility.yul\":1802:1824   */\n      add\n        /* \"#utility.yul\":1781:1834   */\n      tag_123\n      jump\t// in\n    tag_159:\n        /* \"#utility.yul\":1771:1834   */\n      swap2\n      pop\n        /* \"#utility.yul\":1727:1844   */\n      pop\n        /* \"#utility.yul\":1522:1851   */\n      swap3\n      swap2\n      pop\n      pop\n      jump\t// out\n        /* \"#utility.yul\":1857:1961   */\n    tag_124:\n        /* \"#utility.yul\":1922:1928   */\n      0x00\n        /* \"#utility.yul\":1950:1954   */\n      0x03\n        /* \"#utility.yul\":1940:1954   */\n      swap1\n      pop\n        /* \"#utility.yul\":1857:1961   */\n      swap2\n      swap1\n      pop\n      jump\t// out\n        /* \"#utility.yul\":1967:2110   */\n    tag_125:\n        /* \"#utility.yul\":2064:2075   */\n      0x00\n        /* \"#utility.yul\":2101:2104   */\n      dup2\n        /* \"#utility.yul\":2086:2104   */\n      swap1\n      pop\n        /* \"#utility.yul\":1967:2110   */\n      swap3\n      swap2\n      pop\n      pop\n      jump\t// out\n        /* \"#utility.yul\":2116:2214   */\n    tag_126:\n        /* \"#utility.yul\":2181:2185   */\n      0x00\n        /* \"#utility.yul\":2204:2207   */\n      dup2\n        /* \"#utility.yul\":2196:2207   */\n      swap1\n      pop\n        /* \"#utility.yul\":2116:2214   */\n      swap2\n      swap1\n      pop\n      jump\t// out\n        /* \"#utility.yul\":2220:2328   */\n    tag_127:\n        /* \"#utility.yul\":2297:2321   */\n      tag_164\n        /* \"#utility.yul\":2315:2320   */\n      dup2\n        /* \"#utility.yul\":2297:2321   */\n      tag_117\n      jump\t// in\n    tag_164:\n        /* \"#utility.yul\":2292:2295   */\n      dup3\n        /* \"#utility.yul\":2285:2322   */\n      mstore\n        /* \"#utility.yul\":2220:2328   */\n      pop\n      pop\n      jump\t// out\n        /* \"#utility.yul\":2334:2513   */\n    tag_128:\n        /* \"#utility.yul\":2403:2413   */\n      0x00\n        /* \"#utility.yul\":2424:2470   */\n      tag_166\n        /* \"#utility.yul\":2466:2469   */\n      dup4\n        /* \"#utility.yul\":2458:2464   */\n      dup4\n        /* \"#utility.yul\":2424:2470   */\n      tag_127\n      jump\t// in\n    tag_166:\n        /* \"#utility.yul\":2502:2506   */\n      0x20\n        /* \"#utility.yul\":2497:2500   */\n      dup4\n        /* \"#utility.yul\":2493:2507   */\n      add\n        /* \"#utility.yul\":2479:2507   */\n      swap1\n      pop\n        /* \"#utility.yul\":2334:2513   */\n      swap3\n      swap2\n      pop\n      pop\n      jump\t// out\n        /* \"#utility.yul\":2519:2630   */\n    tag_129:\n        /* \"#utility.yul\":2587:2591   */\n      0x00\n        /* \"#utility.yul\":2619:2623   */\n      0x20\n        /* \"#utility.yul\":2614:2617   */\n      dup3\n        /* \"#utility.yul\":2610:2624   */\n      add\n        /* \"#utility.yul\":2602:2624   */\n      swap1\n      pop\n        /* \"#utility.yul\":2519:2630   */\n      swap2\n      swap1\n      pop\n      jump\t// out\n        /* \"#utility.yul\":2668:3362   */\n    tag_130:\n        /* \"#utility.yul\":2804:2856   */\n      tag_169\n        /* \"#utility.yul\":2850:2855   */\n      dup2\n        /* \"#utility.yul\":2804:2856   */\n      tag_124\n      jump\t// in\n    tag_169:\n        /* \"#utility.yul\":2872:2956   */\n      tag_170\n        /* \"#utility.yul\":2949:2955   */\n      dup2\n        /* \"#utility.yul\":2944:2947   */\n      dup5\n        /* \"#utility.yul\":2872:2956   */\n      tag_125\n      jump\t// in\n    tag_170:\n        /* \"#utility.yul\":2865:2956   */\n      swap3\n      pop\n        /* \"#utility.yul\":2980:3034   */\n      tag_171\n        /* \"#utility.yul\":3028:3033   */\n      dup3\n        /* \"#utility.yul\":2980:3034   */\n      tag_126\n      jump\t// in\n    tag_171:\n        /* \"#utility.yul\":3057:3064   */\n      dup1\n        /* \"#utility.yul\":3088:3089   */\n      0x00\n        /* \"#utility.yul\":3073:3355   */\n    tag_172:\n        /* \"#utility.yul\":3098:3104   */\n      dup4\n        /* \"#utility.yul\":3095:3096   */\n      dup2\n        /* \"#utility.yul\":3092:3105   */\n      lt\n        /* \"#utility.yul\":3073:3355   */\n      iszero\n      tag_174\n      jumpi\n        /* \"#utility.yul\":3174:3180   */\n      dup2\n        /* \"#utility.yul\":3168:3181   */\n      mload\n        /* \"#utility.yul\":3201:3264   */\n      tag_175\n        /* \"#utility.yul\":3260:3263   */\n      dup8\n        /* \"#utility.yul\":3245:3258   */\n      dup3\n        /* \"#utility.yul\":3201:3264   */\n      tag_128\n      jump\t// in\n    tag_175:\n        /* \"#utility.yul\":3194:3264   */\n      swap7\n      pop\n        /* \"#utility.yul\":3287:3345   */\n      tag_176\n        /* \"#utility.yul\":3338:3344   */\n      dup4\n        /* \"#utility.yul\":3287:3345   */\n      tag_129\n      jump\t// in\n    tag_176:\n        /* \"#utility.yul\":3277:3345   */\n      swap3\n      pop\n        /* \"#utility.yul\":3133:3355   */\n      pop\n        /* \"#utility.yul\":3120:3121   */\n      0x01\n        /* \"#utility.yul\":3117:3118   */\n      dup2\n        /* \"#utility.yul\":3113:3122   */\n      add\n        /* \"#utility.yul\":3108:3122   */\n      swap1\n      pop\n        /* \"#utility.yul\":3073:3355   */\n      jump(tag_172)\n    tag_174:\n        /* \"#utility.yul\":3077:3091   */\n      pop\n        /* \"#utility.yul\":2780:3362   */\n      pop\n      pop\n      pop\n        /* \"#utility.yul\":2668:3362   */\n      pop\n      pop\n      jump\t// out\n        /* \"#utility.yul\":3368:3682   */\n    tag_45:\n        /* \"#utility.yul\":3507:3511   */\n      0x00\n        /* \"#utility.yul\":3545:3547   */\n      0x60\n        /* \"#utility.yul\":3534:3543   */\n      dup3\n        /* \"#utility.yul\":3530:3548   */\n      add\n        /* \"#utility.yul\":3522:3548   */\n      swap1\n      pop\n        /* \"#utility.yul\":3558:3675   */\n      tag_178\n        /* \"#utility.yul\":3672:3673   */\n      0x00\n        /* \"#utility.yul\":3661:3670   */\n      dup4\n        /* \"#utility.yul\":3657:3674   */\n      add\n        /* \"#utility.yul\":3648:3654   */\n      dup5\n        /* \"#utility.yul\":3558:3675   */\n      tag_130\n      jump\t// in\n    tag_178:\n        /* \"#utility.yul\":3368:3682   */\n      swap3\n      swap2\n      pop\n      pop\n      jump\t// out\n        /* \"#utility.yul\":3688:3868   */\n    tag_54:\n        /* \"#utility.yul\":3736:3813   */\n      0x4e487b7100000000000000000000000000000000000000000000000000000000\n        /* \"#utility.yul\":3733:3734   */\n      0x00\n        /* \"#utility.yul\":3726:3814   */\n      mstore\n        /* \"#utility.yul\":3833:3837   */\n      0x32\n        /* \"#utility.yul\":3830:3831   */\n      0x04\n        /* \"#utility.yul\":3823:3838   */\n      mstore\n        /* \"#utility.yul\":3857:3861   */\n      0x24\n        /* \"#utility.yul\":3854:3855   */\n      0x00\n        /* \"#utility.yul\":3847:3862   */\n      revert\n        /* \"#utility.yul\":3874:4054   */\n    tag_131:\n        /* \"#utility.yul\":3922:3999   */\n      0x4e487b7100000000000000000000000000000000000000000000000000000000\n        /* \"#utility.yul\":3919:3920   */\n      0x00\n        /* \"#utility.yul\":3912:4000   */\n      mstore\n        /* \"#utility.yul\":4019:4023   */\n      0x11\n        /* \"#utility.yul\":4016:4017   */\n      0x04\n        /* \"#utility.yul\":4009:4024   */\n      mstore\n        /* \"#utility.yul\":4043:4047   */\n      0x24\n        /* \"#utility.yul\":4040:4041   */\n      0x00\n        /* \"#utility.yul\":4033:4048   */\n      revert\n        /* \"#utility.yul\":4060:4293   */\n    tag_57:\n        /* \"#utility.yul\":4099:4102   */\n      0x00\n        /* \"#utility.yul\":4122:4146   */\n      tag_182\n        /* \"#utility.yul\":4140:4145   */\n      dup3\n        /* \"#utility.yul\":4122:4146   */\n      tag_117\n      jump\t// in\n    tag_182:\n        /* \"#utility.yul\":4113:4146   */\n      swap2\n      pop\n        /* \"#utility.yul\":4168:4234   */\n      0xffffffffffffffffffffffffffffffffffffffffffffffffffffffffffffffff\n        /* \"#utility.yul\":4161:4166   */\n      dup3\n        /* \"#utility.yul\":4158:4235   */\n      sub\n        /* \"#utility.yul\":4155:4258   */\n      tag_183\n      jumpi\n        /* \"#utility.yul\":4238:4256   */\n      tag_184\n      tag_131\n      jump\t// in\n    tag_184:\n        /* \"#utility.yul\":4155:4258   */\n    tag_183:\n        /* \"#utility.yul\":4285:4286   */\n      0x01\n        /* \"#utility.yul\":4278:4283   */\n      dup3\n        /* \"#utility.yul\":4274:4287   */\n      add\n        /* \"#utility.yul\":4267:4287   */\n      swap1\n      pop\n        /* \"#utility.yul\":4060:4293   */\n      swap2\n      swap1\n      pop\n      jump\t// out\n        /* \"#utility.yul\":4299:4468   */\n    tag_132:\n        /* \"#utility.yul\":4383:4394   */\n      0x00\n        /* \"#utility.yul\":4417:4423   */\n      dup3\n        /* \"#utility.yul\":4412:4415   */\n      dup3\n        /* \"#utility.yul\":4405:4424   */\n      mstore\n        /* \"#utility.yul\":4457:4461   */\n      0x20\n        /* \"#utility.yul\":4452:4455   */\n      dup3\n        /* \"#utility.yul\":4448:4462   */\n      add\n        /* \"#utility.yul\":4433:4462   */\n      swap1\n      pop\n        /* \"#utility.yul\":4299:4468   */\n      swap3\n      swap2\n      pop\n      pop\n      jump\t// out\n        /* \"#utility.yul\":4474:4647   */\n    tag_133:\n        /* \"#utility.yul\":4614:4639   */\n      0x456e6420696e646578206f7574206f6620626f756e6473000000000000000000\n        /* \"#utility.yul\":4610:4611   */\n      0x00\n        /* \"#utility.yul\":4602:4608   */\n      dup3\n        /* \"#utility.yul\":4598:4612   */\n      add\n        /* \"#utility.yul\":4591:4640   */\n      mstore\n        /* \"#utility.yul\":4474:4647   */\n      pop\n      jump\t// out\n        /* \"#utility.yul\":4653:5019   */\n    tag_134:\n        /* \"#utility.yul\":4795:4798   */\n      0x00\n        /* \"#utility.yul\":4816:4883   */\n      tag_188\n        /* \"#utility.yul\":4880:4882   */\n      0x17\n        /* \"#utility.yul\":4875:4878   */\n      dup4\n        /* \"#utility.yul\":4816:4883   */\n      tag_132\n      jump\t// in\n    tag_188:\n        /* \"#utility.yul\":4809:4883   */\n      swap2\n      pop\n        /* \"#utility.yul\":4892:4985   */\n      tag_189\n        /* \"#utility.yul\":4981:4984   */\n      dup3\n        /* \"#utility.yul\":4892:4985   */\n      tag_133\n      jump\t// in\n    tag_189:\n        /* \"#utility.yul\":5010:5012   */\n      0x20\n        /* \"#utility.yul\":5005:5008   */\n      dup3\n        /* \"#utility.yul\":5001:5013   */\n      add\n        /* \"#utility.yul\":4994:5013   */\n      swap1\n      pop\n        /* \"#utility.yul\":4653:5019   */\n      swap2\n      swap1\n      pop\n      jump\t// out\n        /* \"#utility.yul\":5025:5444   */\n    tag_61:\n        /* \"#utility.yul\":5191:5195   */\n      0x00\n        /* \"#utility.yul\":5229:5231   */\n      0x20\n        /* \"#utility.yul\":5218:5227   */\n      dup3\n        /* \"#utility.yul\":5214:5232   */\n      add\n        /* \"#utility.yul\":5206:5232   */\n      swap1\n      pop\n        /* \"#utility.yul\":5278:5287   */\n      dup2\n        /* \"#utility.yul\":5272:5276   */\n      dup2\n        /* \"#utility.yul\":5268:5288   */\n      sub\n        /* \"#utility.yul\":5264:5265   */\n      0x00\n        /* \"#utility.yul\":5253:5262   */\n      dup4\n        /* \"#utility.yul\":5249:5266   */\n      add\n        /* \"#utility.yul\":5242:5289   */\n      mstore\n        /* \"#utility.yul\":5306:5437   */\n      tag_191\n        /* \"#utility.yul\":5432:5436   */\n      dup2\n        /* \"#utility.yul\":5306:5437   */\n      tag_134\n      jump\t// in\n    tag_191:\n        /* \"#utility.yul\":5298:5437   */\n      swap1\n      pop\n        /* \"#utility.yul\":5025:5444   */\n      swap2\n      swap1\n      pop\n      jump\t// out\n        /* \"#utility.yul\":5450:5627   */\n    tag_135:\n        /* \"#utility.yul\":5590:5619   */\n      0x5374617274206d757374206265206c657373207468616e20656e640000000000\n        /* \"#utility.yul\":5586:5587   */\n      0x00\n        /* \"#utility.yul\":5578:5584   */\n      dup3\n        /* \"#utility.yul\":5574:5588   */\n      add\n        /* \"#utility.yul\":5567:5620   */\n      mstore\n        /* \"#utility.yul\":5450:5627   */\n      pop\n      jump\t// out\n        /* \"#utility.yul\":5633:5999   */\n    tag_136:\n        /* \"#utility.yul\":5775:5778   */\n      0x00\n        /* \"#utility.yul\":5796:5863   */\n      tag_194\n        /* \"#utility.yul\":5860:5862   */\n      0x1b\n        /* \"#utility.yul\":5855:5858   */\n      dup4\n        /* \"#utility.yul\":5796:5863   */\n      tag_132\n      jump\t// in\n    tag_194:\n        /* \"#utility.yul\":5789:5863   */\n      swap2\n      pop\n        /* \"#utility.yul\":5872:5965   */\n      tag_195\n        /* \"#utility.yul\":5961:5964   */\n      dup3\n        /* \"#utility.yul\":5872:5965   */\n      tag_135\n      jump\t// in\n    tag_195:\n        /* \"#utility.yul\":5990:5992   */\n      0x20\n        /* \"#utility.yul\":5985:5988   */\n      dup3\n        /* \"#utility.yul\":5981:5993   */\n      add\n        /* \"#utility.yul\":5974:5993   */\n      swap1\n      pop\n        /* \"#utility.yul\":5633:5999   */\n      swap2\n      swap1\n      pop\n      jump\t// out\n        /* \"#utility.yul\":6005:6424   */\n    tag_64:\n        /* \"#utility.yul\":6171:6175   */\n      0x00\n        /* \"#utility.yul\":6209:6211   */\n      0x20\n        /* \"#utility.yul\":6198:6207   */\n      dup3\n        /* \"#utility.yul\":6194:6212   */\n      add\n        /* \"#utility.yul\":6186:6212   */\n      swap1\n      pop\n        /* \"#utility.yul\":6258:6267   */\n      dup2\n        /* \"#utility.yul\":6252:6256   */\n      dup2\n        /* \"#utility.yul\":6248:6268   */\n      sub\n        /* \"#utility.yul\":6244:6245   */\n      0x00\n        /* \"#utility.yul\":6233:6242   */\n      dup4\n        /* \"#utility.yul\":6229:6246   */\n      add\n        /* \"#utility.yul\":6222:6269   */\n      mstore\n        /* \"#utility.yul\":6286:6417   */\n      tag_197\n        /* \"#utility.yul\":6412:6416   */\n      dup2\n        /* \"#utility.yul\":6286:6417   */\n      tag_136\n      jump\t// in\n    tag_197:\n        /* \"#utility.yul\":6278:6417   */\n      swap1\n      pop\n        /* \"#utility.yul\":6005:6424   */\n      swap2\n      swap1\n      pop\n      jump\t// out\n        /* \"#utility.yul\":6430:6840   */\n    tag_69:\n        /* \"#utility.yul\":6470:6477   */\n      0x00\n        /* \"#utility.yul\":6493:6513   */\n      tag_199\n        /* \"#utility.yul\":6511:6512   */\n      dup3\n        /* \"#utility.yul\":6493:6513   */\n      tag_117\n      jump\t// in\n    tag_199:\n        /* \"#utility.yul\":6488:6513   */\n      swap2\n      pop\n        /* \"#utility.yul\":6527:6547   */\n      tag_200\n        /* \"#utility.yul\":6545:6546   */\n      dup4\n        /* \"#utility.yul\":6527:6547   */\n      tag_117\n      jump\t// in\n    tag_200:\n        /* \"#utility.yul\":6522:6547   */\n      swap3\n      pop\n        /* \"#utility.yul\":6582:6583   */\n      dup3\n        /* \"#utility.yul\":6579:6580   */\n      dup3\n        /* \"#utility.yul\":6575:6584   */\n      mul\n        /* \"#utility.yul\":6604:6634   */\n      tag_201\n        /* \"#utility.yul\":6622:6633   */\n      dup2\n        /* \"#utility.yul\":6604:6634   */\n      tag_117\n      jump\t// in\n    tag_201:\n        /* \"#utility.yul\":6593:6634   */\n      swap2\n      pop\n        /* \"#utility.yul\":6783:6784   */\n      dup3\n        /* \"#utility.yul\":6774:6781   */\n      dup3\n        /* \"#utility.yul\":6770:6785   */\n      div\n        /* \"#utility.yul\":6767:6768   */\n      dup5\n        /* \"#utility.yul\":6764:6786   */\n      eq\n        /* \"#utility.yul\":6744:6745   */\n      dup4\n        /* \"#utility.yul\":6737:6746   */\n      iszero\n        /* \"#utility.yul\":6717:6800   */\n      or\n        /* \"#utility.yul\":6694:6833   */\n      tag_202\n      jumpi\n        /* \"#utility.yul\":6813:6831   */\n      tag_203\n      tag_131\n      jump\t// in\n    tag_203:\n        /* \"#utility.yul\":6694:6833   */\n    tag_202:\n        /* \"#utility.yul\":6478:6840   */\n      pop\n        /* \"#utility.yul\":6430:6840   */\n      swap3\n      swap2\n      pop\n      pop\n      jump\t// out\n        /* \"#utility.yul\":6846:7037   */\n    tag_81:\n        /* \"#utility.yul\":6886:6889   */\n      0x00\n        /* \"#utility.yul\":6905:6925   */\n      tag_205\n        /* \"#utility.yul\":6923:6924   */\n      dup3\n        /* \"#utility.yul\":6905:6925   */\n      tag_117\n      jump\t// in\n    tag_205:\n        /* \"#utility.yul\":6900:6925   */\n      swap2\n      pop\n        /* \"#utility.yul\":6939:6959   */\n      tag_206\n        /* \"#utility.yul\":6957:6958   */\n      dup4\n        /* \"#utility.yul\":6939:6959   */\n      tag_117\n      jump\t// in\n    tag_206:\n        /* \"#utility.yul\":6934:6959   */\n      swap3\n      pop\n        /* \"#utility.yul\":6982:6983   */\n      dup3\n        /* \"#utility.yul\":6979:6980   */\n      dup3\n        /* \"#utility.yul\":6975:6984   */\n      add\n        /* \"#utility.yul\":6968:6984   */\n      swap1\n      pop\n        /* \"#utility.yul\":7003:7006   */\n      dup1\n        /* \"#utility.yul\":7000:7001   */\n      dup3\n        /* \"#utility.yul\":6997:7007   */\n      gt\n        /* \"#utility.yul\":6994:7030   */\n      iszero\n      tag_207\n      jumpi\n        /* \"#utility.yul\":7010:7028   */\n      tag_208\n      tag_131\n      jump\t// in\n    tag_208:\n        /* \"#utility.yul\":6994:7030   */\n    tag_207:\n        /* \"#utility.yul\":6846:7037   */\n      swap3\n      swap2\n      pop\n      pop\n      jump\t// out\n\n    auxdata: 0xa2646970667358221220f1104d7ffcc0213f2e1841ed941e1fa1d7af6ee82758731c2a5b30bc1f68824564736f6c634300081e0033\n}\n",
				"bytecode": {
					"linkReferences": {},
					"object": "60806040525f6003553480156012575f5ffd5b50610880806100205f395ff3fe608060405234801561000f575f5ffd5b50600436106100a7575f3560e01c8063a87d942c1161006f578063a87d942c14610129578063a92100cb14610147578063bc68f96014610151578063be1c766b1461015b578063d504ea1d14610179578063d826f88f14610197576100a7565b806302a2cf0b146100ab57806306661abd146100b55780632cd0936e146100d3578063587171c4146100ef57806371e5ee5f146100f9575b5f5ffd5b6100b36101a1565b005b6100bd6101e1565b6040516100ca91906104e7565b60405180910390f35b6100ed60048036038101906100e8919061052e565b6101e7565b005b6100f76102b1565b005b610113600480360381019061010e919061056c565b6102fd565b60405161012091906104e7565b60405180910390f35b610131610315565b60405161013e91906104e7565b60405180910390f35b61014f61031e565b005b610159610381565b005b6101636103be565b60405161017091906104e7565b60405180910390f35b6101816103c6565b60405161018e919061063c565b60405180910390f35b61019f610410565b005b5b6003545f600354600381106101ba576101b9610655565b5b018190555060035f8154809291906101d1906106af565b919050555060038054106101a257565b60035481565b600381111561022b576040517f08c379a000000000000000000000000000000000000000000000000000000000815260040161022290610750565b60405180910390fd5b80821061026d576040517f08c379a0000000000000000000000000000000000000000000000000000000008152600401610264906107b8565b60405180910390fd5b5f8290505b818110156102ac5760028161028791906107d6565b5f826003811061029a57610299610655565b5b01819055508080600101915050610272565b505050565b5f60035490505b60038110156102fa57805f82600381106102d5576102d4610655565b5b01819055506001816102e79190610817565b60038190555080806001019150506102b8565b50565b5f816003811061030b575f80fd5b015f915090505481565b5f600354905090565b5f600290505b60038054101561037e5780600261033b91906107d6565b5f600354600381106103505761034f610655565b5b01819055506003816103629190610817565b905060016003546103739190610817565b600381905550610324565b50565b5f60035490505b60038110156103bb576003545f600354600381106103a9576103a8610655565b5b01819055508080600101915050610388565b50565b5f6003905090565b6103ce61044d565b5f600380602002604051908101604052809291908260038015610406576020028201915b8154815260200190600101908083116103f2575b5050505050905090565b5f60038190555060405180606001604052805f60ff1681526020015f60ff1681526020015f60ff168152505f90600361044a92919061046f565b50565b6040518060600160405280600390602082028036833780820191505090505090565b82600381019282156104a3579160200282015b828111156104a2578251829060ff16905591602001919060010190610482565b5b5090506104b091906104b4565b5090565b5b808211156104cb575f815f9055506001016104b5565b5090565b5f819050919050565b6104e1816104cf565b82525050565b5f6020820190506104fa5f8301846104d8565b92915050565b5f5ffd5b61050d816104cf565b8114610517575f5ffd5b50565b5f8135905061052881610504565b92915050565b5f5f6040838503121561054457610543610500565b5b5f6105518582860161051a565b92505060206105628582860161051a565b9150509250929050565b5f6020828403121561058157610580610500565b5b5f61058e8482850161051a565b91505092915050565b5f60039050919050565b5f81905092915050565b5f819050919050565b6105bd816104cf565b82525050565b5f6105ce83836105b4565b60208301905092915050565b5f602082019050919050565b6105ef81610597565b6105f981846105a1565b9250610604826105ab565b805f5b8381101561063457815161061b87826105c3565b9650610626836105da565b925050600181019050610607565b505050505050565b5f60608201905061064f5f8301846105e6565b92915050565b7f4e487b71000000000000000000000000000000000000000000000000000000005f52603260045260245ffd5b7f4e487b71000000000000000000000000000000000000000000000000000000005f52601160045260245ffd5b5f6106b9826104cf565b91507fffffffffffffffffffffffffffffffffffffffffffffffffffffffffffffffff82036106eb576106ea610682565b5b600182019050919050565b5f82825260208201905092915050565b7f456e6420696e646578206f7574206f6620626f756e64730000000000000000005f82015250565b5f61073a6017836106f6565b915061074582610706565b602082019050919050565b5f6020820190508181035f8301526107678161072e565b9050919050565b7f5374617274206d757374206265206c657373207468616e20656e6400000000005f82015250565b5f6107a2601b836106f6565b91506107ad8261076e565b602082019050919050565b5f6020820190508181035f8301526107cf81610796565b9050919050565b5f6107e0826104cf565b91506107eb836104cf565b92508282026107f9816104cf565b915082820484148315176108105761080f610682565b5b5092915050565b5f610821826104cf565b915061082c836104cf565b925082820190508082111561084457610843610682565b5b9291505056fea2646970667358221220f1104d7ffcc0213f2e1841ed941e1fa1d7af6ee82758731c2a5b30bc1f68824564736f6c634300081e0033",
					"opcodes": "PUSH1 0x80 PUSH1 0x40 MSTORE PUSH0 PUSH1 0x3 SSTORE CALLVALUE DUP1 ISZERO PUSH1 0x12 JUMPI PUSH0 PUSH0 REVERT JUMPDEST POP PUSH2 0x880 DUP1 PUSH2 0x20 PUSH0 CODECOPY PUSH0 RETURN INVALID PUSH1 0x80 PUSH1 0x40 MSTORE CALLVALUE DUP1 ISZERO PUSH2 0xF JUMPI PUSH0 PUSH0 REVERT JUMPDEST POP PUSH1 0x4 CALLDATASIZE LT PUSH2 0xA7 JUMPI PUSH0 CALLDATALOAD PUSH1 0xE0 SHR DUP1 PUSH4 0xA87D942C GT PUSH2 0x6F JUMPI DUP1 PUSH4 0xA87D942C EQ PUSH2 0x129 JUMPI DUP1 PUSH4 0xA92100CB EQ PUSH2 0x147 JUMPI DUP1 PUSH4 0xBC68F960 EQ PUSH2 0x151 JUMPI DUP1 PUSH4 0xBE1C766B EQ PUSH2 0x15B JUMPI DUP1 PUSH4 0xD504EA1D EQ PUSH2 0x179 JUMPI DUP1 PUSH4 0xD826F88F EQ PUSH2 0x197 JUMPI PUSH2 0xA7 JUMP JUMPDEST DUP1 PUSH4 0x2A2CF0B EQ PUSH2 0xAB JUMPI DUP1 PUSH4 0x6661ABD EQ PUSH2 0xB5 JUMPI DUP1 PUSH4 0x2CD0936E EQ PUSH2 0xD3 JUMPI DUP1 PUSH4 0x587171C4 EQ PUSH2 0xEF JUMPI DUP1 PUSH4 0x71E5EE5F EQ PUSH2 0xF9 JUMPI JUMPDEST PUSH0 PUSH0 REVERT JUMPDEST PUSH2 0xB3 PUSH2 0x1A1 JUMP JUMPDEST STOP JUMPDEST PUSH2 0xBD PUSH2 0x1E1 JUMP JUMPDEST PUSH1 0x40 MLOAD PUSH2 0xCA SWAP2 SWAP1 PUSH2 0x4E7 JUMP JUMPDEST PUSH1 0x40 MLOAD DUP1 SWAP2 SUB SWAP1 RETURN JUMPDEST PUSH2 0xED PUSH1 0x4 DUP1 CALLDATASIZE SUB DUP2 ADD SWAP1 PUSH2 0xE8 SWAP2 SWAP1 PUSH2 0x52E JUMP JUMPDEST PUSH2 0x1E7 JUMP JUMPDEST STOP JUMPDEST PUSH2 0xF7 PUSH2 0x2B1 JUMP JUMPDEST STOP JUMPDEST PUSH2 0x113 PUSH1 0x4 DUP1 CALLDATASIZE SUB DUP2 ADD SWAP1 PUSH2 0x10E SWAP2 SWAP1 PUSH2 0x56C JUMP JUMPDEST PUSH2 0x2FD JUMP JUMPDEST PUSH1 0x40 MLOAD PUSH2 0x120 SWAP2 SWAP1 PUSH2 0x4E7 JUMP JUMPDEST PUSH1 0x40 MLOAD DUP1 SWAP2 SUB SWAP1 RETURN JUMPDEST PUSH2 0x131 PUSH2 0x315 JUMP JUMPDEST PUSH1 0x40 MLOAD PUSH2 0x13E SWAP2 SWAP1 PUSH2 0x4E7 JUMP JUMPDEST PUSH1 0x40 MLOAD DUP1 SWAP2 SUB SWAP1 RETURN JUMPDEST PUSH2 0x14F PUSH2 0x31E JUMP JUMPDEST STOP JUMPDEST PUSH2 0x159 PUSH2 0x381 JUMP JUMPDEST STOP JUMPDEST PUSH2 0x163 PUSH2 0x3BE JUMP JUMPDEST PUSH1 0x40 MLOAD PUSH2 0x170 SWAP2 SWAP1 PUSH2 0x4E7 JUMP JUMPDEST PUSH1 0x40 MLOAD DUP1 SWAP2 SUB SWAP1 RETURN JUMPDEST PUSH2 0x181 PUSH2 0x3C6 JUMP JUMPDEST PUSH1 0x40 MLOAD PUSH2 0x18E SWAP2 SWAP1 PUSH2 0x63C JUMP JUMPDEST PUSH1 0x40 MLOAD DUP1 SWAP2 SUB SWAP1 RETURN JUMPDEST PUSH2 0x19F PUSH2 0x410 JUMP JUMPDEST STOP JUMPDEST JUMPDEST PUSH1 0x3 SLOAD PUSH0 PUSH1 0x3 SLOAD PUSH1 0x3 DUP2 LT PUSH2 0x1BA JUMPI PUSH2 0x1B9 PUSH2 0x655 JUMP JUMPDEST JUMPDEST ADD DUP2 SWAP1 SSTORE POP PUSH1 0x3 PUSH0 DUP2 SLOAD DUP1 SWAP3 SWAP2 SWAP1 PUSH2 0x1D1 SWAP1 PUSH2 0x6AF JUMP JUMPDEST SWAP2 SWAP1 POP SSTORE POP PUSH1 0x3 DUP1 SLOAD LT PUSH2 0x1A2 JUMPI JUMP JUMPDEST PUSH1 0x3 SLOAD DUP2 JUMP JUMPDEST PUSH1 0x3 DUP2 GT ISZERO PUSH2 0x22B JUMPI PUSH1 0x40 MLOAD PUSH32 0x8C379A000000000000000000000000000000000000000000000000000000000 DUP2 MSTORE PUSH1 0x4 ADD PUSH2 0x222 SWAP1 PUSH2 0x750 JUMP JUMPDEST PUSH1 0x40 MLOAD DUP1 SWAP2 SUB SWAP1 REVERT JUMPDEST DUP1 DUP3 LT PUSH2 0x26D JUMPI PUSH1 0x40 MLOAD PUSH32 0x8C379A000000000000000000000000000000000000000000000000000000000 DUP2 MSTORE PUSH1 0x4 ADD PUSH2 0x264 SWAP1 PUSH2 0x7B8 JUMP JUMPDEST PUSH1 0x40 MLOAD DUP1 SWAP2 SUB SWAP1 REVERT JUMPDEST PUSH0 DUP3 SWAP1 POP JUMPDEST DUP2 DUP2 LT ISZERO PUSH2 0x2AC JUMPI PUSH1 0x2 DUP2 PUSH2 0x287 SWAP2 SWAP1 PUSH2 0x7D6 JUMP JUMPDEST PUSH0 DUP3 PUSH1 0x3 DUP2 LT PUSH2 0x29A JUMPI PUSH2 0x299 PUSH2 0x655 JUMP JUMPDEST JUMPDEST ADD DUP2 SWAP1 SSTORE POP DUP1 DUP1 PUSH1 0x1 ADD SWAP2 POP POP PUSH2 0x272 JUMP JUMPDEST POP POP POP JUMP JUMPDEST PUSH0 PUSH1 0x3 SLOAD SWAP1 POP JUMPDEST PUSH1 0x3 DUP2 LT ISZERO PUSH2 0x2FA JUMPI DUP1 PUSH0 DUP3 PUSH1 0x3 DUP2 LT PUSH2 0x2D5 JUMPI PUSH2 0x2D4 PUSH2 0x655 JUMP JUMPDEST JUMPDEST ADD DUP2 SWAP1 SSTORE POP PUSH1 0x1 DUP2 PUSH2 0x2E7 SWAP2 SWAP1 PUSH2 0x817 JUMP JUMPDEST PUSH1 0x3 DUP2 SWAP1 SSTORE POP DUP1 DUP1 PUSH1 0x1 ADD SWAP2 POP POP PUSH2 0x2B8 JUMP JUMPDEST POP JUMP JUMPDEST PUSH0 DUP2 PUSH1 0x3 DUP2 LT PUSH2 0x30B JUMPI PUSH0 DUP1 REVERT JUMPDEST ADD PUSH0 SWAP2 POP SWAP1 POP SLOAD DUP2 JUMP JUMPDEST PUSH0 PUSH1 0x3 SLOAD SWAP1 POP SWAP1 JUMP JUMPDEST PUSH0 PUSH1 0x2 SWAP1 POP JUMPDEST PUSH1 0x3 DUP1 SLOAD LT ISZERO PUSH2 0x37E JUMPI DUP1 PUSH1 0x2 PUSH2 0x33B SWAP2 SWAP1 PUSH2 0x7D6 JUMP JUMPDEST PUSH0 PUSH1 0x3 SLOAD PUSH1 0x3 DUP2 LT PUSH2 0x350 JUMPI PUSH2 0x34F PUSH2 0x655 JUMP JUMPDEST JUMPDEST ADD DUP2 SWAP1 SSTORE POP PUSH1 0x3 DUP2 PUSH2 0x362 SWAP2 SWAP1 PUSH2 0x817 JUMP JUMPDEST SWAP1 POP PUSH1 0x1 PUSH1 0x3 SLOAD PUSH2 0x373 SWAP2 SWAP1 PUSH2 0x817 JUMP JUMPDEST PUSH1 0x3 DUP2 SWAP1 SSTORE POP PUSH2 0x324 JUMP JUMPDEST POP JUMP JUMPDEST PUSH0 PUSH1 0x3 SLOAD SWAP1 POP JUMPDEST PUSH1 0x3 DUP2 LT ISZERO PUSH2 0x3BB JUMPI PUSH1 0x3 SLOAD PUSH0 PUSH1 0x3 SLOAD PUSH1 0x3 DUP2 LT PUSH2 0x3A9 JUMPI PUSH2 0x3A8 PUSH2 0x655 JUMP JUMPDEST JUMPDEST ADD DUP2 SWAP1 SSTORE POP DUP1 DUP1 PUSH1 0x1 ADD SWAP2 POP POP PUSH2 0x388 JUMP JUMPDEST POP JUMP JUMPDEST PUSH0 PUSH1 0x3 SWAP1 POP SWAP1 JUMP JUMPDEST PUSH2 0x3CE PUSH2 0x44D JUMP JUMPDEST PUSH0 PUSH1 0x3 DUP1 PUSH1 0x20 MUL PUSH1 0x40 MLOAD SWAP1 DUP2 ADD PUSH1 0x40 MSTORE DUP1 SWAP3 SWAP2 SWAP1 DUP3 PUSH1 0x3 DUP1 ISZERO PUSH2 0x406 JUMPI PUSH1 0x20 MUL DUP3 ADD SWAP2 JUMPDEST DUP2 SLOAD DUP2 MSTORE PUSH1 0x20 ADD SWAP1 PUSH1 0x1 ADD SWAP1 DUP1 DUP4 GT PUSH2 0x3F2 JUMPI JUMPDEST POP POP POP POP POP SWAP1 POP SWAP1 JUMP JUMPDEST PUSH0 PUSH1 0x3 DUP2 SWAP1 SSTORE POP PUSH1 0x40 MLOAD DUP1 PUSH1 0x60 ADD PUSH1 0x40 MSTORE DUP1 PUSH0 PUSH1 0xFF AND DUP2 MSTORE PUSH1 0x20 ADD PUSH0 PUSH1 0xFF AND DUP2 MSTORE PUSH1 0x20 ADD PUSH0 PUSH1 0xFF AND DUP2 MSTORE POP PUSH0 SWAP1 PUSH1 0x3 PUSH2 0x44A SWAP3 SWAP2 SWAP1 PUSH2 0x46F JUMP JUMPDEST POP JUMP JUMPDEST PUSH1 0x40 MLOAD DUP1 PUSH1 0x60 ADD PUSH1 0x40 MSTORE DUP1 PUSH1 0x3 SWAP1 PUSH1 0x20 DUP3 MUL DUP1 CALLDATASIZE DUP4 CALLDATACOPY DUP1 DUP3 ADD SWAP2 POP POP SWAP1 POP POP SWAP1 JUMP JUMPDEST DUP3 PUSH1 0x3 DUP2 ADD SWAP3 DUP3 ISZERO PUSH2 0x4A3 JUMPI SWAP2 PUSH1 0x20 MUL DUP3 ADD JUMPDEST DUP3 DUP2 GT ISZERO PUSH2 0x4A2 JUMPI DUP3 MLOAD DUP3 SWAP1 PUSH1 0xFF AND SWAP1 SSTORE SWAP2 PUSH1 0x20 ADD SWAP2 SWAP1 PUSH1 0x1 ADD SWAP1 PUSH2 0x482 JUMP JUMPDEST JUMPDEST POP SWAP1 POP PUSH2 0x4B0 SWAP2 SWAP1 PUSH2 0x4B4 JUMP JUMPDEST POP SWAP1 JUMP JUMPDEST JUMPDEST DUP1 DUP3 GT ISZERO PUSH2 0x4CB JUMPI PUSH0 DUP2 PUSH0 SWAP1 SSTORE POP PUSH1 0x1 ADD PUSH2 0x4B5 JUMP JUMPDEST POP SWAP1 JUMP JUMPDEST PUSH0 DUP2 SWAP1 POP SWAP2 SWAP1 POP JUMP JUMPDEST PUSH2 0x4E1 DUP2 PUSH2 0x4CF JUMP JUMPDEST DUP3 MSTORE POP POP JUMP JUMPDEST PUSH0 PUSH1 0x20 DUP3 ADD SWAP1 POP PUSH2 0x4FA PUSH0 DUP4 ADD DUP5 PUSH2 0x4D8 JUMP JUMPDEST SWAP3 SWAP2 POP POP JUMP JUMPDEST PUSH0 PUSH0 REVERT JUMPDEST PUSH2 0x50D DUP2 PUSH2 0x4CF JUMP JUMPDEST DUP2 EQ PUSH2 0x517 JUMPI PUSH0 PUSH0 REVERT JUMPDEST POP JUMP JUMPDEST PUSH0 DUP2 CALLDATALOAD SWAP1 POP PUSH2 0x528 DUP2 PUSH2 0x504 JUMP JUMPDEST SWAP3 SWAP2 POP POP JUMP JUMPDEST PUSH0 PUSH0 PUSH1 0x40 DUP4 DUP6 SUB SLT ISZERO PUSH2 0x544 JUMPI PUSH2 0x543 PUSH2 0x500 JUMP JUMPDEST JUMPDEST PUSH0 PUSH2 0x551 DUP6 DUP3 DUP7 ADD PUSH2 0x51A JUMP JUMPDEST SWAP3 POP POP PUSH1 0x20 PUSH2 0x562 DUP6 DUP3 DUP7 ADD PUSH2 0x51A JUMP JUMPDEST SWAP2 POP POP SWAP3 POP SWAP3 SWAP1 POP JUMP JUMPDEST PUSH0 PUSH1 0x20 DUP3 DUP5 SUB SLT ISZERO PUSH2 0x581 JUMPI PUSH2 0x580 PUSH2 0x500 JUMP JUMPDEST JUMPDEST PUSH0 PUSH2 0x58E DUP5 DUP3 DUP6 ADD PUSH2 0x51A JUMP JUMPDEST SWAP2 POP POP SWAP3 SWAP2 POP POP JUMP JUMPDEST PUSH0 PUSH1 0x3 SWAP1 POP SWAP2 SWAP1 POP JUMP JUMPDEST PUSH0 DUP2 SWAP1 POP SWAP3 SWAP2 POP POP JUMP JUMPDEST PUSH0 DUP2 SWAP1 POP SWAP2 SWAP1 POP JUMP JUMPDEST PUSH2 0x5BD DUP2 PUSH2 0x4CF JUMP JUMPDEST DUP3 MSTORE POP POP JUMP JUMPDEST PUSH0 PUSH2 0x5CE DUP4 DUP4 PUSH2 0x5B4 JUMP JUMPDEST PUSH1 0x20 DUP4 ADD SWAP1 POP SWAP3 SWAP2 POP POP JUMP JUMPDEST PUSH0 PUSH1 0x20 DUP3 ADD SWAP1 POP SWAP2 SWAP1 POP JUMP JUMPDEST PUSH2 0x5EF DUP2 PUSH2 0x597 JUMP JUMPDEST PUSH2 0x5F9 DUP2 DUP5 PUSH2 0x5A1 JUMP JUMPDEST SWAP3 POP PUSH2 0x604 DUP3 PUSH2 0x5AB JUMP JUMPDEST DUP1 PUSH0 JUMPDEST DUP4 DUP2 LT ISZERO PUSH2 0x634 JUMPI DUP2 MLOAD PUSH2 0x61B DUP8 DUP3 PUSH2 0x5C3 JUMP JUMPDEST SWAP7 POP PUSH2 0x626 DUP4 PUSH2 0x5DA JUMP JUMPDEST SWAP3 POP POP PUSH1 0x1 DUP2 ADD SWAP1 POP PUSH2 0x607 JUMP JUMPDEST POP POP POP POP POP POP JUMP JUMPDEST PUSH0 PUSH1 0x60 DUP3 ADD SWAP1 POP PUSH2 0x64F PUSH0 DUP4 ADD DUP5 PUSH2 0x5E6 JUMP JUMPDEST SWAP3 SWAP2 POP POP JUMP JUMPDEST PUSH32 0x4E487B7100000000000000000000000000000000000000000000000000000000 PUSH0 MSTORE PUSH1 0x32 PUSH1 0x4 MSTORE PUSH1 0x24 PUSH0 REVERT JUMPDEST PUSH32 0x4E487B7100000000000000000000000000000000000000000000000000000000 PUSH0 MSTORE PUSH1 0x11 PUSH1 0x4 MSTORE PUSH1 0x24 PUSH0 REVERT JUMPDEST PUSH0 PUSH2 0x6B9 DUP3 PUSH2 0x4CF JUMP JUMPDEST SWAP2 POP PUSH32 0xFFFFFFFFFFFFFFFFFFFFFFFFFFFFFFFFFFFFFFFFFFFFFFFFFFFFFFFFFFFFFFFF DUP3 SUB PUSH2 0x6EB JUMPI PUSH2 0x6EA PUSH2 0x682 JUMP JUMPDEST JUMPDEST PUSH1 0x1 DUP3 ADD SWAP1 POP SWAP2 SWAP1 POP JUMP JUMPDEST PUSH0 DUP3 DUP3 MSTORE PUSH1 0x20 DUP3 ADD SWAP1 POP SWAP3 SWAP2 POP POP JUMP JUMPDEST PUSH32 0x456E6420696E646578206F7574206F6620626F756E6473000000000000000000 PUSH0 DUP3 ADD MSTORE POP JUMP JUMPDEST PUSH0 PUSH2 0x73A PUSH1 0x17 DUP4 PUSH2 0x6F6 JUMP JUMPDEST SWAP2 POP PUSH2 0x745 DUP3 PUSH2 0x706 JUMP JUMPDEST PUSH1 0x20 DUP3 ADD SWAP1 POP SWAP2 SWAP1 POP JUMP JUMPDEST PUSH0 PUSH1 0x20 DUP3 ADD SWAP1 POP DUP2 DUP2 SUB PUSH0 DUP4 ADD MSTORE PUSH2 0x767 DUP2 PUSH2 0x72E JUMP JUMPDEST SWAP1 POP SWAP2 SWAP1 POP JUMP JUMPDEST PUSH32 0x5374617274206D757374206265206C657373207468616E20656E640000000000 PUSH0 DUP3 ADD MSTORE POP JUMP JUMPDEST PUSH0 PUSH2 0x7A2 PUSH1 0x1B DUP4 PUSH2 0x6F6 JUMP JUMPDEST SWAP2 POP PUSH2 0x7AD DUP3 PUSH2 0x76E JUMP JUMPDEST PUSH1 0x20 DUP3 ADD SWAP1 POP SWAP2 SWAP1 POP JUMP JUMPDEST PUSH0 PUSH1 0x20 DUP3 ADD SWAP1 POP DUP2 DUP2 SUB PUSH0 DUP4 ADD MSTORE PUSH2 0x7CF DUP2 PUSH2 0x796 JUMP JUMPDEST SWAP1 POP SWAP2 SWAP1 POP JUMP JUMPDEST PUSH0 PUSH2 0x7E0 DUP3 PUSH2 0x4CF JUMP JUMPDEST SWAP2 POP PUSH2 0x7EB DUP4 PUSH2 0x4CF JUMP JUMPDEST SWAP3 POP DUP3 DUP3 MUL PUSH2 0x7F9 DUP2 PUSH2 0x4CF JUMP JUMPDEST SWAP2 POP DUP3 DUP3 DIV DUP5 EQ DUP4 ISZERO OR PUSH2 0x810 JUMPI PUSH2 0x80F PUSH2 0x682 JUMP JUMPDEST JUMPDEST POP SWAP3 SWAP2 POP POP JUMP JUMPDEST PUSH0 PUSH2 0x821 DUP3 PUSH2 0x4CF JUMP JUMPDEST SWAP2 POP PUSH2 0x82C DUP4 PUSH2 0x4CF JUMP JUMPDEST SWAP3 POP DUP3 DUP3 ADD SWAP1 POP DUP1 DUP3 GT ISZERO PUSH2 0x844 JUMPI PUSH2 0x843 PUSH2 0x682 JUMP JUMPDEST JUMPDEST SWAP3 SWAP2 POP POP JUMP INVALID LOG2 PUSH5 0x6970667358 0x22 SLT KECCAK256 CALL LT 0x4D PUSH32 0xFCC0213F2E1841ED941E1FA1D7AF6EE82758731C2A5B30BC1F68824564736F6C PUSH4 0x4300081E STOP CALLER "
				},
				"gasEstimates": {
					"creation": {
						"codeDepositCost": "435200",
						"executionCost": "5471",
						"totalCost": "440671"
					},
					"external": {
						"arr(uint256)": "infinite",
						"count()": "2448",
						"dowhile()": "infinite",
						"fixedForLoop()": "infinite",
						"forloop()": "infinite",
						"getArray()": "infinite",
						"getCount()": "2432",
						"getLength()": "398",
						"loop()": "infinite",
						"reset()": "infinite",
						"safeForLoop(uint256,uint256)": "infinite"
					}
				},
				"methodIdentifiers": {
					"arr(uint256)": "71e5ee5f",
					"count()": "06661abd",
					"dowhile()": "02a2cf0b",
					"fixedForLoop()": "587171c4",
					"forloop()": "bc68f960",
					"getArray()": "d504ea1d",
					"getCount()": "a87d942c",
					"getLength()": "be1c766b",
					"loop()": "a92100cb",
					"reset()": "d826f88f",
					"safeForLoop(uint256,uint256)": "2cd0936e"
				}
			},
			"storageLayout": {
				"storage": [
					{
						"astId": 7,
						"contract": "7-Loops/loops.sol:loops",
						"label": "arr",
						"offset": 0,
						"slot": "0",
						"type": "t_array(t_uint256)3_storage"
					},
					{
						"astId": 11,
						"contract": "7-Loops/loops.sol:loops",
						"label": "count",
						"offset": 0,
						"slot": "3",
						"type": "t_uint256"
					}
				],
				"types": {
					"t_array(t_uint256)3_storage": {
						"base": "t_uint256",
						"encoding": "inplace",
						"label": "uint256[3]",
						"numberOfBytes": "96"
					},
					"t_uint256": {
						"encoding": "inplace",
						"label": "uint256",
						"numberOfBytes": "32"
					}
				}
			},
			"userdoc": {
				"kind": "user",
				"methods": {
					"arr(uint256)": {
						"notice": "Public visibility automatically generates a getter functionInitialized with default values [0, 0, 0]"
					},
					"count()": {
						"notice": "Used across multiple loop functions to demonstrate state persistenceInitialized to 0"
					},
					"dowhile()": {
						"notice": "Fills array positions starting from countEach position gets its index as valueGuaranteed to execute at least once"
					},
					"fixedForLoop()": {
						"notice": "Properly fills array positions from count to endEach position gets its index as value"
					},
					"forloop()": {
						"notice": "Attempts to fill array positions starting from count"
					},
					"getArray()": {
						"notice": "Returns the current state of all array elementsFor large arrays, this could consume significant gas"
					},
					"getCount()": {
						"notice": "Shows progress through the array"
					},
					"getLength()": {
						"notice": "View function - no gas cost when called externally"
					},
					"loop()": {
						"notice": "Fills the array with values following the pattern: 4, 10, 16Pattern: arr[count] = 2 * value, where value starts at 2 and increments by 3Stops when count reaches array length (3)"
					},
					"reset()": {
						"notice": "Allows re-running the loop demonstrationsUseful for testing the contract multiple times"
					},
					"safeForLoop(uint256,uint256)": {
						"notice": "Shows proper bounds checking to prevent out-of-bounds access"
					}
				},
				"notice": "Shows while, for, and do-while loops with array operationsHighlights important considerations when using loops in smart contracts",
				"version": 1
			}
		}
	}
}