{
	"3-Local Variables/local.sol": {
		"Local": {
			"abi": [
				{
					"inputs": [],
					"name": "getAge",
					"outputs": [
						{
							"internalType": "uint256",
							"name": "",
							"type": "uint256"
						}
					],
					"stateMutability": "pure",
					"type": "function"
				},
				{
					"inputs": [],
					"name": "myName",
					"outputs": [
						{
							"internalType": "string",
							"name": "",
							"type": "string"
						}
					],
					"stateMutability": "view",
					"type": "function"
				},
				{
					"inputs": [
						{
							"internalType": "string",
							"name": "_newName",
							"type": "string"
						}
					],
					"name": "updateName",
					"outputs": [],
					"stateMutability": "nonpayable",
					"type": "function"
				}
			],
			"devdoc": {
				"kind": "dev",
				"methods": {},
				"version": 1
			},
			"evm": {
				"assembly": "    /* \"3-Local Variables/local.sol\":224:1736  contract Local {... */\n  mstore(0x40, 0x80)\n  callvalue\n  dup1\n  iszero\n  tag_1\n  jumpi\n  revert(0x00, 0x00)\ntag_1:\n  pop\n  dataSize(sub_0)\n  dup1\n  dataOffset(sub_0)\n  0x00\n  codecopy\n  0x00\n  return\nstop\n\nsub_0: assembly {\n        /* \"3-Local Variables/local.sol\":224:1736  contract Local {... */\n      mstore(0x40, 0x80)\n      callvalue\n      dup1\n      iszero\n      tag_1\n      jumpi\n      revert(0x00, 0x00)\n    tag_1:\n      pop\n      jumpi(tag_2, lt(calldatasize, 0x04))\n      shr(0xe0, calldataload(0x00))\n      dup1\n      0x84da92a7\n      eq\n      tag_3\n      jumpi\n      dup1\n      0x967e6e65\n      eq\n      tag_4\n      jumpi\n      dup1\n      0xfae2dd4b\n      eq\n      tag_5\n      jumpi\n    tag_2:\n      revert(0x00, 0x00)\n        /* \"3-Local Variables/local.sol\":1390:1734  function updateName(string memory _newName) public {... */\n    tag_3:\n      tag_6\n      0x04\n      dup1\n      calldatasize\n      sub\n      dup2\n      add\n      swap1\n      tag_7\n      swap2\n      swap1\n      tag_8\n      jump\t// in\n    tag_7:\n      tag_9\n      jump\t// in\n    tag_6:\n      stop\n        /* \"3-Local Variables/local.sol\":763:1220  function getAge() pure public returns (uint) {... */\n    tag_4:\n      tag_10\n      tag_11\n      jump\t// in\n    tag_10:\n      mload(0x40)\n      tag_12\n      swap2\n      swap1\n      tag_13\n      jump\t// in\n    tag_12:\n      mload(0x40)\n      dup1\n      swap2\n      sub\n      swap1\n      return\n        /* \"3-Local Variables/local.sol\":520:540  string public myName */\n    tag_5:\n      tag_14\n      tag_15\n      jump\t// in\n    tag_14:\n      mload(0x40)\n      tag_16\n      swap2\n      swap1\n      tag_17\n      jump\t// in\n    tag_16:\n      mload(0x40)\n      dup1\n      swap2\n      sub\n      swap1\n      return\n        /* \"3-Local Variables/local.sol\":1390:1734  function updateName(string memory _newName) public {... */\n    tag_9:\n        /* \"3-Local Variables/local.sol\":1608:1616  _newName */\n      dup1\n        /* \"3-Local Variables/local.sol\":1599:1605  myName */\n      0x00\n        /* \"3-Local Variables/local.sol\":1599:1616  myName = _newName */\n      swap1\n      dup2\n      tag_19\n      swap2\n      swap1\n      tag_20\n      jump\t// in\n    tag_19:\n      pop\n        /* \"3-Local Variables/local.sol\":1390:1734  function updateName(string memory _newName) public {... */\n      pop\n      jump\t// out\n        /* \"3-Local Variables/local.sol\":763:1220  function getAge() pure public returns (uint) {... */\n    tag_11:\n        /* \"3-Local Variables/local.sol\":802:806  uint */\n      0x00\n        /* \"3-Local Variables/local.sol\":1071:1079  uint age */\n      0x00\n        /* \"3-Local Variables/local.sol\":1082:1084  40 */\n      0x28\n        /* \"3-Local Variables/local.sol\":1071:1084  uint age = 40 */\n      swap1\n      pop\n        /* \"3-Local Variables/local.sol\":1210:1213  age */\n      dup1\n        /* \"3-Local Variables/local.sol\":1203:1213  return age */\n      swap2\n      pop\n      pop\n        /* \"3-Local Variables/local.sol\":763:1220  function getAge() pure public returns (uint) {... */\n      swap1\n      jump\t// out\n        /* \"3-Local Variables/local.sol\":520:540  string public myName */\n    tag_15:\n      0x00\n      dup1\n      sload\n      tag_22\n      swap1\n      tag_23\n      jump\t// in\n    tag_22:\n      dup1\n      0x1f\n      add\n      0x20\n      dup1\n      swap2\n      div\n      mul\n      0x20\n      add\n      mload(0x40)\n      swap1\n      dup2\n      add\n      0x40\n      mstore\n      dup1\n      swap3\n      swap2\n      swap1\n      dup2\n      dup2\n      mstore\n      0x20\n      add\n      dup3\n      dup1\n      sload\n      tag_24\n      swap1\n      tag_23\n      jump\t// in\n    tag_24:\n      dup1\n      iszero\n      tag_25\n      jumpi\n      dup1\n      0x1f\n      lt\n      tag_26\n      jumpi\n      0x0100\n      dup1\n      dup4\n      sload\n      div\n      mul\n      dup4\n      mstore\n      swap2\n      0x20\n      add\n      swap2\n      jump(tag_25)\n    tag_26:\n      dup3\n      add\n      swap2\n      swap1\n      0x00\n      mstore\n      keccak256(0x00, 0x20)\n      swap1\n    tag_27:\n      dup2\n      sload\n      dup2\n      mstore\n      swap1\n      0x01\n      add\n      swap1\n      0x20\n      add\n      dup1\n      dup4\n      gt\n      tag_27\n      jumpi\n      dup3\n      swap1\n      sub\n      0x1f\n      and\n      dup3\n      add\n      swap2\n    tag_25:\n      pop\n      pop\n      pop\n      pop\n      pop\n      dup2\n      jump\t// out\n        /* \"#utility.yul\":7:82   */\n    tag_28:\n        /* \"#utility.yul\":40:46   */\n      0x00\n        /* \"#utility.yul\":73:75   */\n      0x40\n        /* \"#utility.yul\":67:76   */\n      mload\n        /* \"#utility.yul\":57:76   */\n      swap1\n      pop\n        /* \"#utility.yul\":7:82   */\n      swap1\n      jump\t// out\n        /* \"#utility.yul\":88:205   */\n    tag_29:\n        /* \"#utility.yul\":197:198   */\n      0x00\n        /* \"#utility.yul\":194:195   */\n      0x00\n        /* \"#utility.yul\":187:199   */\n      revert\n        /* \"#utility.yul\":211:328   */\n    tag_30:\n        /* \"#utility.yul\":320:321   */\n      0x00\n        /* \"#utility.yul\":317:318   */\n      0x00\n        /* \"#utility.yul\":310:322   */\n      revert\n        /* \"#utility.yul\":334:451   */\n    tag_31:\n        /* \"#utility.yul\":443:444   */\n      0x00\n        /* \"#utility.yul\":440:441   */\n      0x00\n        /* \"#utility.yul\":433:445   */\n      revert\n        /* \"#utility.yul\":457:574   */\n    tag_32:\n        /* \"#utility.yul\":566:567   */\n      0x00\n        /* \"#utility.yul\":563:564   */\n      0x00\n        /* \"#utility.yul\":556:568   */\n      revert\n        /* \"#utility.yul\":580:682   */\n    tag_33:\n        /* \"#utility.yul\":621:627   */\n      0x00\n        /* \"#utility.yul\":672:674   */\n      0x1f\n        /* \"#utility.yul\":668:675   */\n      not\n        /* \"#utility.yul\":663:665   */\n      0x1f\n        /* \"#utility.yul\":656:661   */\n      dup4\n        /* \"#utility.yul\":652:666   */\n      add\n        /* \"#utility.yul\":648:676   */\n      and\n        /* \"#utility.yul\":638:676   */\n      swap1\n      pop\n        /* \"#utility.yul\":580:682   */\n      swap2\n      swap1\n      pop\n      jump\t// out\n        /* \"#utility.yul\":688:868   */\n    tag_34:\n        /* \"#utility.yul\":736:813   */\n      0x4e487b7100000000000000000000000000000000000000000000000000000000\n        /* \"#utility.yul\":733:734   */\n      0x00\n        /* \"#utility.yul\":726:814   */\n      mstore\n        /* \"#utility.yul\":833:837   */\n      0x41\n        /* \"#utility.yul\":830:831   */\n      0x04\n        /* \"#utility.yul\":823:838   */\n      mstore\n        /* \"#utility.yul\":857:861   */\n      0x24\n        /* \"#utility.yul\":854:855   */\n      0x00\n        /* \"#utility.yul\":847:862   */\n      revert\n        /* \"#utility.yul\":874:1155   */\n    tag_35:\n        /* \"#utility.yul\":957:984   */\n      tag_72\n        /* \"#utility.yul\":979:983   */\n      dup3\n        /* \"#utility.yul\":957:984   */\n      tag_33\n      jump\t// in\n    tag_72:\n        /* \"#utility.yul\":949:955   */\n      dup2\n        /* \"#utility.yul\":945:985   */\n      add\n        /* \"#utility.yul\":1087:1093   */\n      dup2\n        /* \"#utility.yul\":1075:1085   */\n      dup2\n        /* \"#utility.yul\":1072:1094   */\n      lt\n        /* \"#utility.yul\":1051:1069   */\n      0xffffffffffffffff\n        /* \"#utility.yul\":1039:1049   */\n      dup3\n        /* \"#utility.yul\":1036:1070   */\n      gt\n        /* \"#utility.yul\":1033:1095   */\n      or\n        /* \"#utility.yul\":1030:1118   */\n      iszero\n      tag_73\n      jumpi\n        /* \"#utility.yul\":1098:1116   */\n      tag_74\n      tag_34\n      jump\t// in\n    tag_74:\n        /* \"#utility.yul\":1030:1118   */\n    tag_73:\n        /* \"#utility.yul\":1138:1148   */\n      dup1\n        /* \"#utility.yul\":1134:1136   */\n      0x40\n        /* \"#utility.yul\":1127:1149   */\n      mstore\n        /* \"#utility.yul\":917:1155   */\n      pop\n        /* \"#utility.yul\":874:1155   */\n      pop\n      pop\n      jump\t// out\n        /* \"#utility.yul\":1161:1290   */\n    tag_36:\n        /* \"#utility.yul\":1195:1201   */\n      0x00\n        /* \"#utility.yul\":1222:1242   */\n      tag_76\n      tag_28\n      jump\t// in\n    tag_76:\n        /* \"#utility.yul\":1212:1242   */\n      swap1\n      pop\n        /* \"#utility.yul\":1251:1284   */\n      tag_77\n        /* \"#utility.yul\":1279:1283   */\n      dup3\n        /* \"#utility.yul\":1271:1277   */\n      dup3\n        /* \"#utility.yul\":1251:1284   */\n      tag_35\n      jump\t// in\n    tag_77:\n        /* \"#utility.yul\":1161:1290   */\n      swap2\n      swap1\n      pop\n      jump\t// out\n        /* \"#utility.yul\":1296:1604   */\n    tag_37:\n        /* \"#utility.yul\":1358:1362   */\n      0x00\n        /* \"#utility.yul\":1448:1466   */\n      0xffffffffffffffff\n        /* \"#utility.yul\":1440:1446   */\n      dup3\n        /* \"#utility.yul\":1437:1467   */\n      gt\n        /* \"#utility.yul\":1434:1490   */\n      iszero\n      tag_79\n      jumpi\n        /* \"#utility.yul\":1470:1488   */\n      tag_80\n      tag_34\n      jump\t// in\n    tag_80:\n        /* \"#utility.yul\":1434:1490   */\n    tag_79:\n        /* \"#utility.yul\":1508:1537   */\n      tag_81\n        /* \"#utility.yul\":1530:1536   */\n      dup3\n        /* \"#utility.yul\":1508:1537   */\n      tag_33\n      jump\t// in\n    tag_81:\n        /* \"#utility.yul\":1500:1537   */\n      swap1\n      pop\n        /* \"#utility.yul\":1592:1596   */\n      0x20\n        /* \"#utility.yul\":1586:1590   */\n      dup2\n        /* \"#utility.yul\":1582:1597   */\n      add\n        /* \"#utility.yul\":1574:1597   */\n      swap1\n      pop\n        /* \"#utility.yul\":1296:1604   */\n      swap2\n      swap1\n      pop\n      jump\t// out\n        /* \"#utility.yul\":1610:1758   */\n    tag_38:\n        /* \"#utility.yul\":1708:1714   */\n      dup3\n        /* \"#utility.yul\":1703:1706   */\n      dup2\n        /* \"#utility.yul\":1698:1701   */\n      dup4\n        /* \"#utility.yul\":1685:1715   */\n      calldatacopy\n        /* \"#utility.yul\":1749:1750   */\n      0x00\n        /* \"#utility.yul\":1740:1746   */\n      dup4\n        /* \"#utility.yul\":1735:1738   */\n      dup4\n        /* \"#utility.yul\":1731:1747   */\n      add\n        /* \"#utility.yul\":1724:1751   */\n      mstore\n        /* \"#utility.yul\":1610:1758   */\n      pop\n      pop\n      pop\n      jump\t// out\n        /* \"#utility.yul\":1764:2189   */\n    tag_39:\n        /* \"#utility.yul\":1842:1847   */\n      0x00\n        /* \"#utility.yul\":1867:1933   */\n      tag_84\n        /* \"#utility.yul\":1883:1932   */\n      tag_85\n        /* \"#utility.yul\":1925:1931   */\n      dup5\n        /* \"#utility.yul\":1883:1932   */\n      tag_37\n      jump\t// in\n    tag_85:\n        /* \"#utility.yul\":1867:1933   */\n      tag_36\n      jump\t// in\n    tag_84:\n        /* \"#utility.yul\":1858:1933   */\n      swap1\n      pop\n        /* \"#utility.yul\":1956:1962   */\n      dup3\n        /* \"#utility.yul\":1949:1954   */\n      dup2\n        /* \"#utility.yul\":1942:1963   */\n      mstore\n        /* \"#utility.yul\":1994:1998   */\n      0x20\n        /* \"#utility.yul\":1987:1992   */\n      dup2\n        /* \"#utility.yul\":1983:1999   */\n      add\n        /* \"#utility.yul\":2032:2035   */\n      dup5\n        /* \"#utility.yul\":2023:2029   */\n      dup5\n        /* \"#utility.yul\":2018:2021   */\n      dup5\n        /* \"#utility.yul\":2014:2030   */\n      add\n        /* \"#utility.yul\":2011:2036   */\n      gt\n        /* \"#utility.yul\":2008:2120   */\n      iszero\n      tag_86\n      jumpi\n        /* \"#utility.yul\":2039:2118   */\n      tag_87\n      tag_32\n      jump\t// in\n    tag_87:\n        /* \"#utility.yul\":2008:2120   */\n    tag_86:\n        /* \"#utility.yul\":2129:2183   */\n      tag_88\n        /* \"#utility.yul\":2176:2182   */\n      dup5\n        /* \"#utility.yul\":2171:2174   */\n      dup3\n        /* \"#utility.yul\":2166:2169   */\n      dup6\n        /* \"#utility.yul\":2129:2183   */\n      tag_38\n      jump\t// in\n    tag_88:\n        /* \"#utility.yul\":1848:2189   */\n      pop\n        /* \"#utility.yul\":1764:2189   */\n      swap4\n      swap3\n      pop\n      pop\n      pop\n      jump\t// out\n        /* \"#utility.yul\":2209:2549   */\n    tag_40:\n        /* \"#utility.yul\":2265:2270   */\n      0x00\n        /* \"#utility.yul\":2314:2317   */\n      dup3\n        /* \"#utility.yul\":2307:2311   */\n      0x1f\n        /* \"#utility.yul\":2299:2305   */\n      dup4\n        /* \"#utility.yul\":2295:2312   */\n      add\n        /* \"#utility.yul\":2291:2318   */\n      slt\n        /* \"#utility.yul\":2281:2403   */\n      tag_90\n      jumpi\n        /* \"#utility.yul\":2322:2401   */\n      tag_91\n      tag_31\n      jump\t// in\n    tag_91:\n        /* \"#utility.yul\":2281:2403   */\n    tag_90:\n        /* \"#utility.yul\":2439:2445   */\n      dup2\n        /* \"#utility.yul\":2426:2446   */\n      calldataload\n        /* \"#utility.yul\":2464:2543   */\n      tag_92\n        /* \"#utility.yul\":2539:2542   */\n      dup5\n        /* \"#utility.yul\":2531:2537   */\n      dup3\n        /* \"#utility.yul\":2524:2528   */\n      0x20\n        /* \"#utility.yul\":2516:2522   */\n      dup7\n        /* \"#utility.yul\":2512:2529   */\n      add\n        /* \"#utility.yul\":2464:2543   */\n      tag_39\n      jump\t// in\n    tag_92:\n        /* \"#utility.yul\":2455:2543   */\n      swap2\n      pop\n        /* \"#utility.yul\":2271:2549   */\n      pop\n        /* \"#utility.yul\":2209:2549   */\n      swap3\n      swap2\n      pop\n      pop\n      jump\t// out\n        /* \"#utility.yul\":2555:3064   */\n    tag_8:\n        /* \"#utility.yul\":2624:2630   */\n      0x00\n        /* \"#utility.yul\":2673:2675   */\n      0x20\n        /* \"#utility.yul\":2661:2670   */\n      dup3\n        /* \"#utility.yul\":2652:2659   */\n      dup5\n        /* \"#utility.yul\":2648:2671   */\n      sub\n        /* \"#utility.yul\":2644:2676   */\n      slt\n        /* \"#utility.yul\":2641:2760   */\n      iszero\n      tag_94\n      jumpi\n        /* \"#utility.yul\":2679:2758   */\n      tag_95\n      tag_29\n      jump\t// in\n    tag_95:\n        /* \"#utility.yul\":2641:2760   */\n    tag_94:\n        /* \"#utility.yul\":2827:2828   */\n      0x00\n        /* \"#utility.yul\":2816:2825   */\n      dup3\n        /* \"#utility.yul\":2812:2829   */\n      add\n        /* \"#utility.yul\":2799:2830   */\n      calldataload\n        /* \"#utility.yul\":2857:2875   */\n      0xffffffffffffffff\n        /* \"#utility.yul\":2849:2855   */\n      dup2\n        /* \"#utility.yul\":2846:2876   */\n      gt\n        /* \"#utility.yul\":2843:2960   */\n      iszero\n      tag_96\n      jumpi\n        /* \"#utility.yul\":2879:2958   */\n      tag_97\n      tag_30\n      jump\t// in\n    tag_97:\n        /* \"#utility.yul\":2843:2960   */\n    tag_96:\n        /* \"#utility.yul\":2984:3047   */\n      tag_98\n        /* \"#utility.yul\":3039:3046   */\n      dup5\n        /* \"#utility.yul\":3030:3036   */\n      dup3\n        /* \"#utility.yul\":3019:3028   */\n      dup6\n        /* \"#utility.yul\":3015:3037   */\n      add\n        /* \"#utility.yul\":2984:3047   */\n      tag_40\n      jump\t// in\n    tag_98:\n        /* \"#utility.yul\":2974:3047   */\n      swap2\n      pop\n        /* \"#utility.yul\":2770:3057   */\n      pop\n        /* \"#utility.yul\":2555:3064   */\n      swap3\n      swap2\n      pop\n      pop\n      jump\t// out\n        /* \"#utility.yul\":3070:3147   */\n    tag_41:\n        /* \"#utility.yul\":3107:3114   */\n      0x00\n        /* \"#utility.yul\":3136:3141   */\n      dup2\n        /* \"#utility.yul\":3125:3141   */\n      swap1\n      pop\n        /* \"#utility.yul\":3070:3147   */\n      swap2\n      swap1\n      pop\n      jump\t// out\n        /* \"#utility.yul\":3153:3271   */\n    tag_42:\n        /* \"#utility.yul\":3240:3264   */\n      tag_101\n        /* \"#utility.yul\":3258:3263   */\n      dup2\n        /* \"#utility.yul\":3240:3264   */\n      tag_41\n      jump\t// in\n    tag_101:\n        /* \"#utility.yul\":3235:3238   */\n      dup3\n        /* \"#utility.yul\":3228:3265   */\n      mstore\n        /* \"#utility.yul\":3153:3271   */\n      pop\n      pop\n      jump\t// out\n        /* \"#utility.yul\":3277:3499   */\n    tag_13:\n        /* \"#utility.yul\":3370:3374   */\n      0x00\n        /* \"#utility.yul\":3408:3410   */\n      0x20\n        /* \"#utility.yul\":3397:3406   */\n      dup3\n        /* \"#utility.yul\":3393:3411   */\n      add\n        /* \"#utility.yul\":3385:3411   */\n      swap1\n      pop\n        /* \"#utility.yul\":3421:3492   */\n      tag_103\n        /* \"#utility.yul\":3489:3490   */\n      0x00\n        /* \"#utility.yul\":3478:3487   */\n      dup4\n        /* \"#utility.yul\":3474:3491   */\n      add\n        /* \"#utility.yul\":3465:3471   */\n      dup5\n        /* \"#utility.yul\":3421:3492   */\n      tag_42\n      jump\t// in\n    tag_103:\n        /* \"#utility.yul\":3277:3499   */\n      swap3\n      swap2\n      pop\n      pop\n      jump\t// out\n        /* \"#utility.yul\":3505:3604   */\n    tag_43:\n        /* \"#utility.yul\":3557:3563   */\n      0x00\n        /* \"#utility.yul\":3591:3596   */\n      dup2\n        /* \"#utility.yul\":3585:3597   */\n      mload\n        /* \"#utility.yul\":3575:3597   */\n      swap1\n      pop\n        /* \"#utility.yul\":3505:3604   */\n      swap2\n      swap1\n      pop\n      jump\t// out\n        /* \"#utility.yul\":3610:3779   */\n    tag_44:\n        /* \"#utility.yul\":3694:3705   */\n      0x00\n        /* \"#utility.yul\":3728:3734   */\n      dup3\n        /* \"#utility.yul\":3723:3726   */\n      dup3\n        /* \"#utility.yul\":3716:3735   */\n      mstore\n        /* \"#utility.yul\":3768:3772   */\n      0x20\n        /* \"#utility.yul\":3763:3766   */\n      dup3\n        /* \"#utility.yul\":3759:3773   */\n      add\n        /* \"#utility.yul\":3744:3773   */\n      swap1\n      pop\n        /* \"#utility.yul\":3610:3779   */\n      swap3\n      swap2\n      pop\n      pop\n      jump\t// out\n        /* \"#utility.yul\":3785:3924   */\n    tag_45:\n        /* \"#utility.yul\":3874:3880   */\n      dup3\n        /* \"#utility.yul\":3869:3872   */\n      dup2\n        /* \"#utility.yul\":3864:3867   */\n      dup4\n        /* \"#utility.yul\":3858:3881   */\n      mcopy\n        /* \"#utility.yul\":3915:3916   */\n      0x00\n        /* \"#utility.yul\":3906:3912   */\n      dup4\n        /* \"#utility.yul\":3901:3904   */\n      dup4\n        /* \"#utility.yul\":3897:3913   */\n      add\n        /* \"#utility.yul\":3890:3917   */\n      mstore\n        /* \"#utility.yul\":3785:3924   */\n      pop\n      pop\n      pop\n      jump\t// out\n        /* \"#utility.yul\":3930:4307   */\n    tag_46:\n        /* \"#utility.yul\":4018:4021   */\n      0x00\n        /* \"#utility.yul\":4046:4085   */\n      tag_108\n        /* \"#utility.yul\":4079:4084   */\n      dup3\n        /* \"#utility.yul\":4046:4085   */\n      tag_43\n      jump\t// in\n    tag_108:\n        /* \"#utility.yul\":4101:4172   */\n      tag_109\n        /* \"#utility.yul\":4165:4171   */\n      dup2\n        /* \"#utility.yul\":4160:4163   */\n      dup6\n        /* \"#utility.yul\":4101:4172   */\n      tag_44\n      jump\t// in\n    tag_109:\n        /* \"#utility.yul\":4094:4172   */\n      swap4\n      pop\n        /* \"#utility.yul\":4181:4246   */\n      tag_110\n        /* \"#utility.yul\":4239:4245   */\n      dup2\n        /* \"#utility.yul\":4234:4237   */\n      dup6\n        /* \"#utility.yul\":4227:4231   */\n      0x20\n        /* \"#utility.yul\":4220:4225   */\n      dup7\n        /* \"#utility.yul\":4216:4232   */\n      add\n        /* \"#utility.yul\":4181:4246   */\n      tag_45\n      jump\t// in\n    tag_110:\n        /* \"#utility.yul\":4271:4300   */\n      tag_111\n        /* \"#utility.yul\":4293:4299   */\n      dup2\n        /* \"#utility.yul\":4271:4300   */\n      tag_33\n      jump\t// in\n    tag_111:\n        /* \"#utility.yul\":4266:4269   */\n      dup5\n        /* \"#utility.yul\":4262:4301   */\n      add\n        /* \"#utility.yul\":4255:4301   */\n      swap2\n      pop\n        /* \"#utility.yul\":4022:4307   */\n      pop\n        /* \"#utility.yul\":3930:4307   */\n      swap3\n      swap2\n      pop\n      pop\n      jump\t// out\n        /* \"#utility.yul\":4313:4626   */\n    tag_17:\n        /* \"#utility.yul\":4426:4430   */\n      0x00\n        /* \"#utility.yul\":4464:4466   */\n      0x20\n        /* \"#utility.yul\":4453:4462   */\n      dup3\n        /* \"#utility.yul\":4449:4467   */\n      add\n        /* \"#utility.yul\":4441:4467   */\n      swap1\n      pop\n        /* \"#utility.yul\":4513:4522   */\n      dup2\n        /* \"#utility.yul\":4507:4511   */\n      dup2\n        /* \"#utility.yul\":4503:4523   */\n      sub\n        /* \"#utility.yul\":4499:4500   */\n      0x00\n        /* \"#utility.yul\":4488:4497   */\n      dup4\n        /* \"#utility.yul\":4484:4501   */\n      add\n        /* \"#utility.yul\":4477:4524   */\n      mstore\n        /* \"#utility.yul\":4541:4619   */\n      tag_113\n        /* \"#utility.yul\":4614:4618   */\n      dup2\n        /* \"#utility.yul\":4605:4611   */\n      dup5\n        /* \"#utility.yul\":4541:4619   */\n      tag_46\n      jump\t// in\n    tag_113:\n        /* \"#utility.yul\":4533:4619   */\n      swap1\n      pop\n        /* \"#utility.yul\":4313:4626   */\n      swap3\n      swap2\n      pop\n      pop\n      jump\t// out\n        /* \"#utility.yul\":4632:4812   */\n    tag_47:\n        /* \"#utility.yul\":4680:4757   */\n      0x4e487b7100000000000000000000000000000000000000000000000000000000\n        /* \"#utility.yul\":4677:4678   */\n      0x00\n        /* \"#utility.yul\":4670:4758   */\n      mstore\n        /* \"#utility.yul\":4777:4781   */\n      0x22\n        /* \"#utility.yul\":4774:4775   */\n      0x04\n        /* \"#utility.yul\":4767:4782   */\n      mstore\n        /* \"#utility.yul\":4801:4805   */\n      0x24\n        /* \"#utility.yul\":4798:4799   */\n      0x00\n        /* \"#utility.yul\":4791:4806   */\n      revert\n        /* \"#utility.yul\":4818:5138   */\n    tag_23:\n        /* \"#utility.yul\":4862:4868   */\n      0x00\n        /* \"#utility.yul\":4899:4900   */\n      0x02\n        /* \"#utility.yul\":4893:4897   */\n      dup3\n        /* \"#utility.yul\":4889:4901   */\n      div\n        /* \"#utility.yul\":4879:4901   */\n      swap1\n      pop\n        /* \"#utility.yul\":4946:4947   */\n      0x01\n        /* \"#utility.yul\":4940:4944   */\n      dup3\n        /* \"#utility.yul\":4936:4948   */\n      and\n        /* \"#utility.yul\":4967:4985   */\n      dup1\n        /* \"#utility.yul\":4957:5038   */\n      tag_116\n      jumpi\n        /* \"#utility.yul\":5023:5027   */\n      0x7f\n        /* \"#utility.yul\":5015:5021   */\n      dup3\n        /* \"#utility.yul\":5011:5028   */\n      and\n        /* \"#utility.yul\":5001:5028   */\n      swap2\n      pop\n        /* \"#utility.yul\":4957:5038   */\n    tag_116:\n        /* \"#utility.yul\":5085:5087   */\n      0x20\n        /* \"#utility.yul\":5077:5083   */\n      dup3\n        /* \"#utility.yul\":5074:5088   */\n      lt\n        /* \"#utility.yul\":5054:5072   */\n      dup2\n        /* \"#utility.yul\":5051:5089   */\n      sub\n        /* \"#utility.yul\":5048:5132   */\n      tag_117\n      jumpi\n        /* \"#utility.yul\":5104:5122   */\n      tag_118\n      tag_47\n      jump\t// in\n    tag_118:\n        /* \"#utility.yul\":5048:5132   */\n    tag_117:\n        /* \"#utility.yul\":4869:5138   */\n      pop\n        /* \"#utility.yul\":4818:5138   */\n      swap2\n      swap1\n      pop\n      jump\t// out\n        /* \"#utility.yul\":5144:5285   */\n    tag_48:\n        /* \"#utility.yul\":5193:5197   */\n      0x00\n        /* \"#utility.yul\":5216:5219   */\n      dup2\n        /* \"#utility.yul\":5208:5219   */\n      swap1\n      pop\n        /* \"#utility.yul\":5239:5242   */\n      dup2\n        /* \"#utility.yul\":5236:5237   */\n      0x00\n        /* \"#utility.yul\":5229:5243   */\n      mstore\n        /* \"#utility.yul\":5273:5277   */\n      0x20\n        /* \"#utility.yul\":5270:5271   */\n      0x00\n        /* \"#utility.yul\":5260:5278   */\n      keccak256\n        /* \"#utility.yul\":5252:5278   */\n      swap1\n      pop\n        /* \"#utility.yul\":5144:5285   */\n      swap2\n      swap1\n      pop\n      jump\t// out\n        /* \"#utility.yul\":5291:5384   */\n    tag_49:\n        /* \"#utility.yul\":5328:5334   */\n      0x00\n        /* \"#utility.yul\":5375:5377   */\n      0x20\n        /* \"#utility.yul\":5370:5372   */\n      0x1f\n        /* \"#utility.yul\":5363:5368   */\n      dup4\n        /* \"#utility.yul\":5359:5373   */\n      add\n        /* \"#utility.yul\":5355:5378   */\n      div\n        /* \"#utility.yul\":5345:5378   */\n      swap1\n      pop\n        /* \"#utility.yul\":5291:5384   */\n      swap2\n      swap1\n      pop\n      jump\t// out\n        /* \"#utility.yul\":5390:5497   */\n    tag_50:\n        /* \"#utility.yul\":5434:5442   */\n      0x00\n        /* \"#utility.yul\":5484:5489   */\n      dup3\n        /* \"#utility.yul\":5478:5482   */\n      dup3\n        /* \"#utility.yul\":5474:5490   */\n      shl\n        /* \"#utility.yul\":5453:5490   */\n      swap1\n      pop\n        /* \"#utility.yul\":5390:5497   */\n      swap3\n      swap2\n      pop\n      pop\n      jump\t// out\n        /* \"#utility.yul\":5503:5896   */\n    tag_51:\n        /* \"#utility.yul\":5572:5578   */\n      0x00\n        /* \"#utility.yul\":5622:5623   */\n      0x08\n        /* \"#utility.yul\":5610:5620   */\n      dup4\n        /* \"#utility.yul\":5606:5624   */\n      mul\n        /* \"#utility.yul\":5645:5742   */\n      tag_123\n        /* \"#utility.yul\":5675:5741   */\n      0xffffffffffffffffffffffffffffffffffffffffffffffffffffffffffffffff\n        /* \"#utility.yul\":5664:5673   */\n      dup3\n        /* \"#utility.yul\":5645:5742   */\n      tag_50\n      jump\t// in\n    tag_123:\n        /* \"#utility.yul\":5763:5802   */\n      tag_124\n        /* \"#utility.yul\":5793:5801   */\n      dup7\n        /* \"#utility.yul\":5782:5791   */\n      dup4\n        /* \"#utility.yul\":5763:5802   */\n      tag_50\n      jump\t// in\n    tag_124:\n        /* \"#utility.yul\":5751:5802   */\n      swap6\n      pop\n        /* \"#utility.yul\":5835:5839   */\n      dup1\n        /* \"#utility.yul\":5831:5840   */\n      not\n        /* \"#utility.yul\":5824:5829   */\n      dup5\n        /* \"#utility.yul\":5820:5841   */\n      and\n        /* \"#utility.yul\":5811:5841   */\n      swap4\n      pop\n        /* \"#utility.yul\":5884:5888   */\n      dup1\n        /* \"#utility.yul\":5874:5882   */\n      dup7\n        /* \"#utility.yul\":5870:5889   */\n      and\n        /* \"#utility.yul\":5863:5868   */\n      dup5\n        /* \"#utility.yul\":5860:5890   */\n      or\n        /* \"#utility.yul\":5850:5890   */\n      swap3\n      pop\n        /* \"#utility.yul\":5579:5896   */\n      pop\n      pop\n        /* \"#utility.yul\":5503:5896   */\n      swap4\n      swap3\n      pop\n      pop\n      pop\n      jump\t// out\n        /* \"#utility.yul\":5902:5962   */\n    tag_52:\n        /* \"#utility.yul\":5930:5933   */\n      0x00\n        /* \"#utility.yul\":5951:5956   */\n      dup2\n        /* \"#utility.yul\":5944:5956   */\n      swap1\n      pop\n        /* \"#utility.yul\":5902:5962   */\n      swap2\n      swap1\n      pop\n      jump\t// out\n        /* \"#utility.yul\":5968:6110   */\n    tag_53:\n        /* \"#utility.yul\":6018:6027   */\n      0x00\n        /* \"#utility.yul\":6051:6104   */\n      tag_127\n        /* \"#utility.yul\":6069:6103   */\n      tag_128\n        /* \"#utility.yul\":6078:6102   */\n      tag_129\n        /* \"#utility.yul\":6096:6101   */\n      dup5\n        /* \"#utility.yul\":6078:6102   */\n      tag_41\n      jump\t// in\n    tag_129:\n        /* \"#utility.yul\":6069:6103   */\n      tag_52\n      jump\t// in\n    tag_128:\n        /* \"#utility.yul\":6051:6104   */\n      tag_41\n      jump\t// in\n    tag_127:\n        /* \"#utility.yul\":6038:6104   */\n      swap1\n      pop\n        /* \"#utility.yul\":5968:6110   */\n      swap2\n      swap1\n      pop\n      jump\t// out\n        /* \"#utility.yul\":6116:6191   */\n    tag_54:\n        /* \"#utility.yul\":6159:6162   */\n      0x00\n        /* \"#utility.yul\":6180:6185   */\n      dup2\n        /* \"#utility.yul\":6173:6185   */\n      swap1\n      pop\n        /* \"#utility.yul\":6116:6191   */\n      swap2\n      swap1\n      pop\n      jump\t// out\n        /* \"#utility.yul\":6197:6466   */\n    tag_55:\n        /* \"#utility.yul\":6307:6346   */\n      tag_132\n        /* \"#utility.yul\":6338:6345   */\n      dup4\n        /* \"#utility.yul\":6307:6346   */\n      tag_53\n      jump\t// in\n    tag_132:\n        /* \"#utility.yul\":6368:6459   */\n      tag_133\n        /* \"#utility.yul\":6417:6458   */\n      tag_134\n        /* \"#utility.yul\":6441:6457   */\n      dup3\n        /* \"#utility.yul\":6417:6458   */\n      tag_54\n      jump\t// in\n    tag_134:\n        /* \"#utility.yul\":6409:6415   */\n      dup5\n        /* \"#utility.yul\":6402:6406   */\n      dup5\n        /* \"#utility.yul\":6396:6407   */\n      sload\n        /* \"#utility.yul\":6368:6459   */\n      tag_51\n      jump\t// in\n    tag_133:\n        /* \"#utility.yul\":6362:6366   */\n      dup3\n        /* \"#utility.yul\":6355:6460   */\n      sstore\n        /* \"#utility.yul\":6273:6466   */\n      pop\n        /* \"#utility.yul\":6197:6466   */\n      pop\n      pop\n      pop\n      jump\t// out\n        /* \"#utility.yul\":6472:6545   */\n    tag_56:\n        /* \"#utility.yul\":6517:6520   */\n      0x00\n        /* \"#utility.yul\":6538:6539   */\n      0x00\n        /* \"#utility.yul\":6531:6539   */\n      swap1\n      pop\n        /* \"#utility.yul\":6472:6545   */\n      swap1\n      jump\t// out\n        /* \"#utility.yul\":6551:6740   */\n    tag_57:\n        /* \"#utility.yul\":6628:6660   */\n      tag_137\n      tag_56\n      jump\t// in\n    tag_137:\n        /* \"#utility.yul\":6669:6734   */\n      tag_138\n        /* \"#utility.yul\":6727:6733   */\n      dup2\n        /* \"#utility.yul\":6719:6725   */\n      dup5\n        /* \"#utility.yul\":6713:6717   */\n      dup5\n        /* \"#utility.yul\":6669:6734   */\n      tag_55\n      jump\t// in\n    tag_138:\n        /* \"#utility.yul\":6604:6740   */\n      pop\n        /* \"#utility.yul\":6551:6740   */\n      pop\n      pop\n      jump\t// out\n        /* \"#utility.yul\":6746:6932   */\n    tag_58:\n        /* \"#utility.yul\":6806:6926   */\n    tag_140:\n        /* \"#utility.yul\":6823:6826   */\n      dup2\n        /* \"#utility.yul\":6816:6821   */\n      dup2\n        /* \"#utility.yul\":6813:6827   */\n      lt\n        /* \"#utility.yul\":6806:6926   */\n      iszero\n      tag_142\n      jumpi\n        /* \"#utility.yul\":6877:6916   */\n      tag_143\n        /* \"#utility.yul\":6914:6915   */\n      0x00\n        /* \"#utility.yul\":6907:6912   */\n      dup3\n        /* \"#utility.yul\":6877:6916   */\n      tag_57\n      jump\t// in\n    tag_143:\n        /* \"#utility.yul\":6850:6851   */\n      0x01\n        /* \"#utility.yul\":6843:6848   */\n      dup2\n        /* \"#utility.yul\":6839:6852   */\n      add\n        /* \"#utility.yul\":6830:6852   */\n      swap1\n      pop\n        /* \"#utility.yul\":6806:6926   */\n      jump(tag_140)\n    tag_142:\n        /* \"#utility.yul\":6746:6932   */\n      pop\n      pop\n      jump\t// out\n        /* \"#utility.yul\":6938:7481   */\n    tag_59:\n        /* \"#utility.yul\":7039:7041   */\n      0x1f\n        /* \"#utility.yul\":7034:7037   */\n      dup3\n        /* \"#utility.yul\":7031:7042   */\n      gt\n        /* \"#utility.yul\":7028:7474   */\n      iszero\n      tag_145\n      jumpi\n        /* \"#utility.yul\":7073:7111   */\n      tag_146\n        /* \"#utility.yul\":7105:7110   */\n      dup2\n        /* \"#utility.yul\":7073:7111   */\n      tag_48\n      jump\t// in\n    tag_146:\n        /* \"#utility.yul\":7157:7186   */\n      tag_147\n        /* \"#utility.yul\":7175:7185   */\n      dup5\n        /* \"#utility.yul\":7157:7186   */\n      tag_49\n      jump\t// in\n    tag_147:\n        /* \"#utility.yul\":7147:7155   */\n      dup2\n        /* \"#utility.yul\":7143:7187   */\n      add\n        /* \"#utility.yul\":7340:7342   */\n      0x20\n        /* \"#utility.yul\":7328:7338   */\n      dup6\n        /* \"#utility.yul\":7325:7343   */\n      lt\n        /* \"#utility.yul\":7322:7371   */\n      iszero\n      tag_148\n      jumpi\n        /* \"#utility.yul\":7361:7369   */\n      dup2\n        /* \"#utility.yul\":7346:7369   */\n      swap1\n      pop\n        /* \"#utility.yul\":7322:7371   */\n    tag_148:\n        /* \"#utility.yul\":7384:7464   */\n      tag_149\n        /* \"#utility.yul\":7440:7462   */\n      tag_150\n        /* \"#utility.yul\":7458:7461   */\n      dup6\n        /* \"#utility.yul\":7440:7462   */\n      tag_49\n      jump\t// in\n    tag_150:\n        /* \"#utility.yul\":7430:7438   */\n      dup4\n        /* \"#utility.yul\":7426:7463   */\n      add\n        /* \"#utility.yul\":7413:7424   */\n      dup3\n        /* \"#utility.yul\":7384:7464   */\n      tag_58\n      jump\t// in\n    tag_149:\n        /* \"#utility.yul\":7043:7474   */\n      pop\n      pop\n        /* \"#utility.yul\":7028:7474   */\n    tag_145:\n        /* \"#utility.yul\":6938:7481   */\n      pop\n      pop\n      pop\n      jump\t// out\n        /* \"#utility.yul\":7487:7604   */\n    tag_60:\n        /* \"#utility.yul\":7541:7549   */\n      0x00\n        /* \"#utility.yul\":7591:7596   */\n      dup3\n        /* \"#utility.yul\":7585:7589   */\n      dup3\n        /* \"#utility.yul\":7581:7597   */\n      shr\n        /* \"#utility.yul\":7560:7597   */\n      swap1\n      pop\n        /* \"#utility.yul\":7487:7604   */\n      swap3\n      swap2\n      pop\n      pop\n      jump\t// out\n        /* \"#utility.yul\":7610:7779   */\n    tag_61:\n        /* \"#utility.yul\":7654:7660   */\n      0x00\n        /* \"#utility.yul\":7687:7738   */\n      tag_153\n        /* \"#utility.yul\":7735:7736   */\n      0x00\n        /* \"#utility.yul\":7731:7737   */\n      not\n        /* \"#utility.yul\":7723:7728   */\n      dup5\n        /* \"#utility.yul\":7720:7721   */\n      0x08\n        /* \"#utility.yul\":7716:7729   */\n      mul\n        /* \"#utility.yul\":7687:7738   */\n      tag_60\n      jump\t// in\n    tag_153:\n        /* \"#utility.yul\":7683:7739   */\n      not\n        /* \"#utility.yul\":7768:7772   */\n      dup1\n        /* \"#utility.yul\":7762:7766   */\n      dup4\n        /* \"#utility.yul\":7758:7773   */\n      and\n        /* \"#utility.yul\":7748:7773   */\n      swap2\n      pop\n        /* \"#utility.yul\":7661:7779   */\n      pop\n        /* \"#utility.yul\":7610:7779   */\n      swap3\n      swap2\n      pop\n      pop\n      jump\t// out\n        /* \"#utility.yul\":7784:8079   */\n    tag_62:\n        /* \"#utility.yul\":7860:7864   */\n      0x00\n        /* \"#utility.yul\":8006:8035   */\n      tag_155\n        /* \"#utility.yul\":8031:8034   */\n      dup4\n        /* \"#utility.yul\":8025:8029   */\n      dup4\n        /* \"#utility.yul\":8006:8035   */\n      tag_61\n      jump\t// in\n    tag_155:\n        /* \"#utility.yul\":7998:8035   */\n      swap2\n      pop\n        /* \"#utility.yul\":8068:8071   */\n      dup3\n        /* \"#utility.yul\":8065:8066   */\n      0x02\n        /* \"#utility.yul\":8061:8072   */\n      mul\n        /* \"#utility.yul\":8055:8059   */\n      dup3\n        /* \"#utility.yul\":8052:8073   */\n      or\n        /* \"#utility.yul\":8044:8073   */\n      swap1\n      pop\n        /* \"#utility.yul\":7784:8079   */\n      swap3\n      swap2\n      pop\n      pop\n      jump\t// out\n        /* \"#utility.yul\":8084:9479   */\n    tag_20:\n        /* \"#utility.yul\":8201:8238   */\n      tag_157\n        /* \"#utility.yul\":8234:8237   */\n      dup3\n        /* \"#utility.yul\":8201:8238   */\n      tag_43\n      jump\t// in\n    tag_157:\n        /* \"#utility.yul\":8303:8321   */\n      0xffffffffffffffff\n        /* \"#utility.yul\":8295:8301   */\n      dup2\n        /* \"#utility.yul\":8292:8322   */\n      gt\n        /* \"#utility.yul\":8289:8345   */\n      iszero\n      tag_158\n      jumpi\n        /* \"#utility.yul\":8325:8343   */\n      tag_159\n      tag_34\n      jump\t// in\n    tag_159:\n        /* \"#utility.yul\":8289:8345   */\n    tag_158:\n        /* \"#utility.yul\":8369:8407   */\n      tag_160\n        /* \"#utility.yul\":8401:8405   */\n      dup3\n        /* \"#utility.yul\":8395:8406   */\n      sload\n        /* \"#utility.yul\":8369:8407   */\n      tag_23\n      jump\t// in\n    tag_160:\n        /* \"#utility.yul\":8454:8521   */\n      tag_161\n        /* \"#utility.yul\":8514:8520   */\n      dup3\n        /* \"#utility.yul\":8506:8512   */\n      dup3\n        /* \"#utility.yul\":8500:8504   */\n      dup6\n        /* \"#utility.yul\":8454:8521   */\n      tag_59\n      jump\t// in\n    tag_161:\n        /* \"#utility.yul\":8548:8549   */\n      0x00\n        /* \"#utility.yul\":8572:8576   */\n      0x20\n        /* \"#utility.yul\":8559:8576   */\n      swap1\n      pop\n        /* \"#utility.yul\":8604:8606   */\n      0x1f\n        /* \"#utility.yul\":8596:8602   */\n      dup4\n        /* \"#utility.yul\":8593:8607   */\n      gt\n        /* \"#utility.yul\":8621:8622   */\n      0x01\n        /* \"#utility.yul\":8616:9234   */\n      dup2\n      eq\n      tag_163\n      jumpi\n        /* \"#utility.yul\":9278:9279   */\n      0x00\n        /* \"#utility.yul\":9295:9301   */\n      dup5\n        /* \"#utility.yul\":9292:9369   */\n      iszero\n      tag_164\n      jumpi\n        /* \"#utility.yul\":9344:9353   */\n      dup3\n        /* \"#utility.yul\":9339:9342   */\n      dup8\n        /* \"#utility.yul\":9335:9354   */\n      add\n        /* \"#utility.yul\":9329:9355   */\n      mload\n        /* \"#utility.yul\":9320:9355   */\n      swap1\n      pop\n        /* \"#utility.yul\":9292:9369   */\n    tag_164:\n        /* \"#utility.yul\":9395:9462   */\n      tag_165\n        /* \"#utility.yul\":9455:9461   */\n      dup6\n        /* \"#utility.yul\":9448:9453   */\n      dup3\n        /* \"#utility.yul\":9395:9462   */\n      tag_62\n      jump\t// in\n    tag_165:\n        /* \"#utility.yul\":9389:9393   */\n      dup7\n        /* \"#utility.yul\":9382:9463   */\n      sstore\n        /* \"#utility.yul\":9251:9473   */\n      pop\n        /* \"#utility.yul\":8586:9473   */\n      jump(tag_162)\n        /* \"#utility.yul\":8616:9234   */\n    tag_163:\n        /* \"#utility.yul\":8668:8672   */\n      0x1f\n        /* \"#utility.yul\":8664:8673   */\n      not\n        /* \"#utility.yul\":8656:8662   */\n      dup5\n        /* \"#utility.yul\":8652:8674   */\n      and\n        /* \"#utility.yul\":8702:8739   */\n      tag_166\n        /* \"#utility.yul\":8734:8738   */\n      dup7\n        /* \"#utility.yul\":8702:8739   */\n      tag_48\n      jump\t// in\n    tag_166:\n        /* \"#utility.yul\":8761:8762   */\n      0x00\n        /* \"#utility.yul\":8775:8983   */\n    tag_167:\n        /* \"#utility.yul\":8789:8796   */\n      dup3\n        /* \"#utility.yul\":8786:8787   */\n      dup2\n        /* \"#utility.yul\":8783:8797   */\n      lt\n        /* \"#utility.yul\":8775:8983   */\n      iszero\n      tag_169\n      jumpi\n        /* \"#utility.yul\":8868:8877   */\n      dup5\n        /* \"#utility.yul\":8863:8866   */\n      dup10\n        /* \"#utility.yul\":8859:8878   */\n      add\n        /* \"#utility.yul\":8853:8879   */\n      mload\n        /* \"#utility.yul\":8845:8851   */\n      dup3\n        /* \"#utility.yul\":8838:8880   */\n      sstore\n        /* \"#utility.yul\":8919:8920   */\n      0x01\n        /* \"#utility.yul\":8911:8917   */\n      dup3\n        /* \"#utility.yul\":8907:8921   */\n      add\n        /* \"#utility.yul\":8897:8921   */\n      swap2\n      pop\n        /* \"#utility.yul\":8966:8968   */\n      0x20\n        /* \"#utility.yul\":8955:8964   */\n      dup6\n        /* \"#utility.yul\":8951:8969   */\n      add\n        /* \"#utility.yul\":8938:8969   */\n      swap5\n      pop\n        /* \"#utility.yul\":8812:8816   */\n      0x20\n        /* \"#utility.yul\":8809:8810   */\n      dup2\n        /* \"#utility.yul\":8805:8817   */\n      add\n        /* \"#utility.yul\":8800:8817   */\n      swap1\n      pop\n        /* \"#utility.yul\":8775:8983   */\n      jump(tag_167)\n    tag_169:\n        /* \"#utility.yul\":9011:9017   */\n      dup7\n        /* \"#utility.yul\":9002:9009   */\n      dup4\n        /* \"#utility.yul\":8999:9018   */\n      lt\n        /* \"#utility.yul\":8996:9175   */\n      iszero\n      tag_170\n      jumpi\n        /* \"#utility.yul\":9069:9078   */\n      dup5\n        /* \"#utility.yul\":9064:9067   */\n      dup10\n        /* \"#utility.yul\":9060:9079   */\n      add\n        /* \"#utility.yul\":9054:9080   */\n      mload\n        /* \"#utility.yul\":9112:9160   */\n      tag_171\n        /* \"#utility.yul\":9154:9158   */\n      0x1f\n        /* \"#utility.yul\":9146:9152   */\n      dup10\n        /* \"#utility.yul\":9142:9159   */\n      and\n        /* \"#utility.yul\":9131:9140   */\n      dup3\n        /* \"#utility.yul\":9112:9160   */\n      tag_61\n      jump\t// in\n    tag_171:\n        /* \"#utility.yul\":9104:9110   */\n      dup4\n        /* \"#utility.yul\":9097:9161   */\n      sstore\n        /* \"#utility.yul\":9019:9175   */\n      pop\n        /* \"#utility.yul\":8996:9175   */\n    tag_170:\n        /* \"#utility.yul\":9221:9222   */\n      0x01\n        /* \"#utility.yul\":9217:9218   */\n      0x02\n        /* \"#utility.yul\":9209:9215   */\n      dup9\n        /* \"#utility.yul\":9205:9219   */\n      mul\n        /* \"#utility.yul\":9201:9223   */\n      add\n        /* \"#utility.yul\":9195:9199   */\n      dup9\n        /* \"#utility.yul\":9188:9224   */\n      sstore\n        /* \"#utility.yul\":8623:9234   */\n      pop\n      pop\n      pop\n        /* \"#utility.yul\":8586:9473   */\n    tag_162:\n      pop\n        /* \"#utility.yul\":8176:9479   */\n      pop\n      pop\n      pop\n        /* \"#utility.yul\":8084:9479   */\n      pop\n      pop\n      jump\t// out\n\n    auxdata: 0xa26469706673582212207ba6ea8d49ec5b3644141f07e99c5232ac5aeba06648b0ce385533a5ef240faf64736f6c634300081e0033\n}\n",
				"bytecode": {
					"linkReferences": {},
					"object": "6080604052348015600e575f5ffd5b5061068c8061001c5f395ff3fe608060405234801561000f575f5ffd5b506004361061003f575f3560e01c806384da92a714610043578063967e6e651461005f578063fae2dd4b1461007d575b5f5ffd5b61005d60048036038101906100589190610292565b61009b565b005b6100676100ad565b60405161007491906102f1565b60405180910390f35b6100856100ba565b604051610092919061036a565b60405180910390f35b805f90816100a99190610587565b5050565b5f5f602890508091505090565b5f80546100c6906103b7565b80601f01602080910402602001604051908101604052809291908181526020018280546100f2906103b7565b801561013d5780601f106101145761010080835404028352916020019161013d565b820191905f5260205f20905b81548152906001019060200180831161012057829003601f168201915b505050505081565b5f604051905090565b5f5ffd5b5f5ffd5b5f5ffd5b5f5ffd5b5f601f19601f8301169050919050565b7f4e487b71000000000000000000000000000000000000000000000000000000005f52604160045260245ffd5b6101a48261015e565b810181811067ffffffffffffffff821117156101c3576101c261016e565b5b80604052505050565b5f6101d5610145565b90506101e1828261019b565b919050565b5f67ffffffffffffffff821115610200576101ff61016e565b5b6102098261015e565b9050602081019050919050565b828183375f83830152505050565b5f610236610231846101e6565b6101cc565b9050828152602081018484840111156102525761025161015a565b5b61025d848285610216565b509392505050565b5f82601f83011261027957610278610156565b5b8135610289848260208601610224565b91505092915050565b5f602082840312156102a7576102a661014e565b5b5f82013567ffffffffffffffff8111156102c4576102c3610152565b5b6102d084828501610265565b91505092915050565b5f819050919050565b6102eb816102d9565b82525050565b5f6020820190506103045f8301846102e2565b92915050565b5f81519050919050565b5f82825260208201905092915050565b8281835e5f83830152505050565b5f61033c8261030a565b6103468185610314565b9350610356818560208601610324565b61035f8161015e565b840191505092915050565b5f6020820190508181035f8301526103828184610332565b905092915050565b7f4e487b71000000000000000000000000000000000000000000000000000000005f52602260045260245ffd5b5f60028204905060018216806103ce57607f821691505b6020821081036103e1576103e061038a565b5b50919050565b5f819050815f5260205f209050919050565b5f6020601f8301049050919050565b5f82821b905092915050565b5f600883026104437fffffffffffffffffffffffffffffffffffffffffffffffffffffffffffffffff82610408565b61044d8683610408565b95508019841693508086168417925050509392505050565b5f819050919050565b5f61048861048361047e846102d9565b610465565b6102d9565b9050919050565b5f819050919050565b6104a18361046e565b6104b56104ad8261048f565b848454610414565b825550505050565b5f5f905090565b6104cc6104bd565b6104d7818484610498565b505050565b5b818110156104fa576104ef5f826104c4565b6001810190506104dd565b5050565b601f82111561053f57610510816103e7565b610519846103f9565b81016020851015610528578190505b61053c610534856103f9565b8301826104dc565b50505b505050565b5f82821c905092915050565b5f61055f5f1984600802610544565b1980831691505092915050565b5f6105778383610550565b9150826002028217905092915050565b6105908261030a565b67ffffffffffffffff8111156105a9576105a861016e565b5b6105b382546103b7565b6105be8282856104fe565b5f60209050601f8311600181146105ef575f84156105dd578287015190505b6105e7858261056c565b86555061064e565b601f1984166105fd866103e7565b5f5b82811015610624578489015182556001820191506020850194506020810190506105ff565b86831015610641578489015161063d601f891682610550565b8355505b6001600288020188555050505b50505050505056fea26469706673582212207ba6ea8d49ec5b3644141f07e99c5232ac5aeba06648b0ce385533a5ef240faf64736f6c634300081e0033",
					"opcodes": "PUSH1 0x80 PUSH1 0x40 MSTORE CALLVALUE DUP1 ISZERO PUSH1 0xE JUMPI PUSH0 PUSH0 REVERT JUMPDEST POP PUSH2 0x68C DUP1 PUSH2 0x1C PUSH0 CODECOPY PUSH0 RETURN INVALID PUSH1 0x80 PUSH1 0x40 MSTORE CALLVALUE DUP1 ISZERO PUSH2 0xF JUMPI PUSH0 PUSH0 REVERT JUMPDEST POP PUSH1 0x4 CALLDATASIZE LT PUSH2 0x3F JUMPI PUSH0 CALLDATALOAD PUSH1 0xE0 SHR DUP1 PUSH4 0x84DA92A7 EQ PUSH2 0x43 JUMPI DUP1 PUSH4 0x967E6E65 EQ PUSH2 0x5F JUMPI DUP1 PUSH4 0xFAE2DD4B EQ PUSH2 0x7D JUMPI JUMPDEST PUSH0 PUSH0 REVERT JUMPDEST PUSH2 0x5D PUSH1 0x4 DUP1 CALLDATASIZE SUB DUP2 ADD SWAP1 PUSH2 0x58 SWAP2 SWAP1 PUSH2 0x292 JUMP JUMPDEST PUSH2 0x9B JUMP JUMPDEST STOP JUMPDEST PUSH2 0x67 PUSH2 0xAD JUMP JUMPDEST PUSH1 0x40 MLOAD PUSH2 0x74 SWAP2 SWAP1 PUSH2 0x2F1 JUMP JUMPDEST PUSH1 0x40 MLOAD DUP1 SWAP2 SUB SWAP1 RETURN JUMPDEST PUSH2 0x85 PUSH2 0xBA JUMP JUMPDEST PUSH1 0x40 MLOAD PUSH2 0x92 SWAP2 SWAP1 PUSH2 0x36A JUMP JUMPDEST PUSH1 0x40 MLOAD DUP1 SWAP2 SUB SWAP1 RETURN JUMPDEST DUP1 PUSH0 SWAP1 DUP2 PUSH2 0xA9 SWAP2 SWAP1 PUSH2 0x587 JUMP JUMPDEST POP POP JUMP JUMPDEST PUSH0 PUSH0 PUSH1 0x28 SWAP1 POP DUP1 SWAP2 POP POP SWAP1 JUMP JUMPDEST PUSH0 DUP1 SLOAD PUSH2 0xC6 SWAP1 PUSH2 0x3B7 JUMP JUMPDEST DUP1 PUSH1 0x1F ADD PUSH1 0x20 DUP1 SWAP2 DIV MUL PUSH1 0x20 ADD PUSH1 0x40 MLOAD SWAP1 DUP2 ADD PUSH1 0x40 MSTORE DUP1 SWAP3 SWAP2 SWAP1 DUP2 DUP2 MSTORE PUSH1 0x20 ADD DUP3 DUP1 SLOAD PUSH2 0xF2 SWAP1 PUSH2 0x3B7 JUMP JUMPDEST DUP1 ISZERO PUSH2 0x13D JUMPI DUP1 PUSH1 0x1F LT PUSH2 0x114 JUMPI PUSH2 0x100 DUP1 DUP4 SLOAD DIV MUL DUP4 MSTORE SWAP2 PUSH1 0x20 ADD SWAP2 PUSH2 0x13D JUMP JUMPDEST DUP3 ADD SWAP2 SWAP1 PUSH0 MSTORE PUSH1 0x20 PUSH0 KECCAK256 SWAP1 JUMPDEST DUP2 SLOAD DUP2 MSTORE SWAP1 PUSH1 0x1 ADD SWAP1 PUSH1 0x20 ADD DUP1 DUP4 GT PUSH2 0x120 JUMPI DUP3 SWAP1 SUB PUSH1 0x1F AND DUP3 ADD SWAP2 JUMPDEST POP POP POP POP POP DUP2 JUMP JUMPDEST PUSH0 PUSH1 0x40 MLOAD SWAP1 POP SWAP1 JUMP JUMPDEST PUSH0 PUSH0 REVERT JUMPDEST PUSH0 PUSH0 REVERT JUMPDEST PUSH0 PUSH0 REVERT JUMPDEST PUSH0 PUSH0 REVERT JUMPDEST PUSH0 PUSH1 0x1F NOT PUSH1 0x1F DUP4 ADD AND SWAP1 POP SWAP2 SWAP1 POP JUMP JUMPDEST PUSH32 0x4E487B7100000000000000000000000000000000000000000000000000000000 PUSH0 MSTORE PUSH1 0x41 PUSH1 0x4 MSTORE PUSH1 0x24 PUSH0 REVERT JUMPDEST PUSH2 0x1A4 DUP3 PUSH2 0x15E JUMP JUMPDEST DUP2 ADD DUP2 DUP2 LT PUSH8 0xFFFFFFFFFFFFFFFF DUP3 GT OR ISZERO PUSH2 0x1C3 JUMPI PUSH2 0x1C2 PUSH2 0x16E JUMP JUMPDEST JUMPDEST DUP1 PUSH1 0x40 MSTORE POP POP POP JUMP JUMPDEST PUSH0 PUSH2 0x1D5 PUSH2 0x145 JUMP JUMPDEST SWAP1 POP PUSH2 0x1E1 DUP3 DUP3 PUSH2 0x19B JUMP JUMPDEST SWAP2 SWAP1 POP JUMP JUMPDEST PUSH0 PUSH8 0xFFFFFFFFFFFFFFFF DUP3 GT ISZERO PUSH2 0x200 JUMPI PUSH2 0x1FF PUSH2 0x16E JUMP JUMPDEST JUMPDEST PUSH2 0x209 DUP3 PUSH2 0x15E JUMP JUMPDEST SWAP1 POP PUSH1 0x20 DUP2 ADD SWAP1 POP SWAP2 SWAP1 POP JUMP JUMPDEST DUP3 DUP2 DUP4 CALLDATACOPY PUSH0 DUP4 DUP4 ADD MSTORE POP POP POP JUMP JUMPDEST PUSH0 PUSH2 0x236 PUSH2 0x231 DUP5 PUSH2 0x1E6 JUMP JUMPDEST PUSH2 0x1CC JUMP JUMPDEST SWAP1 POP DUP3 DUP2 MSTORE PUSH1 0x20 DUP2 ADD DUP5 DUP5 DUP5 ADD GT ISZERO PUSH2 0x252 JUMPI PUSH2 0x251 PUSH2 0x15A JUMP JUMPDEST JUMPDEST PUSH2 0x25D DUP5 DUP3 DUP6 PUSH2 0x216 JUMP JUMPDEST POP SWAP4 SWAP3 POP POP POP JUMP JUMPDEST PUSH0 DUP3 PUSH1 0x1F DUP4 ADD SLT PUSH2 0x279 JUMPI PUSH2 0x278 PUSH2 0x156 JUMP JUMPDEST JUMPDEST DUP2 CALLDATALOAD PUSH2 0x289 DUP5 DUP3 PUSH1 0x20 DUP7 ADD PUSH2 0x224 JUMP JUMPDEST SWAP2 POP POP SWAP3 SWAP2 POP POP JUMP JUMPDEST PUSH0 PUSH1 0x20 DUP3 DUP5 SUB SLT ISZERO PUSH2 0x2A7 JUMPI PUSH2 0x2A6 PUSH2 0x14E JUMP JUMPDEST JUMPDEST PUSH0 DUP3 ADD CALLDATALOAD PUSH8 0xFFFFFFFFFFFFFFFF DUP2 GT ISZERO PUSH2 0x2C4 JUMPI PUSH2 0x2C3 PUSH2 0x152 JUMP JUMPDEST JUMPDEST PUSH2 0x2D0 DUP5 DUP3 DUP6 ADD PUSH2 0x265 JUMP JUMPDEST SWAP2 POP POP SWAP3 SWAP2 POP POP JUMP JUMPDEST PUSH0 DUP2 SWAP1 POP SWAP2 SWAP1 POP JUMP JUMPDEST PUSH2 0x2EB DUP2 PUSH2 0x2D9 JUMP JUMPDEST DUP3 MSTORE POP POP JUMP JUMPDEST PUSH0 PUSH1 0x20 DUP3 ADD SWAP1 POP PUSH2 0x304 PUSH0 DUP4 ADD DUP5 PUSH2 0x2E2 JUMP JUMPDEST SWAP3 SWAP2 POP POP JUMP JUMPDEST PUSH0 DUP2 MLOAD SWAP1 POP SWAP2 SWAP1 POP JUMP JUMPDEST PUSH0 DUP3 DUP3 MSTORE PUSH1 0x20 DUP3 ADD SWAP1 POP SWAP3 SWAP2 POP POP JUMP JUMPDEST DUP3 DUP2 DUP4 MCOPY PUSH0 DUP4 DUP4 ADD MSTORE POP POP POP JUMP JUMPDEST PUSH0 PUSH2 0x33C DUP3 PUSH2 0x30A JUMP JUMPDEST PUSH2 0x346 DUP2 DUP6 PUSH2 0x314 JUMP JUMPDEST SWAP4 POP PUSH2 0x356 DUP2 DUP6 PUSH1 0x20 DUP7 ADD PUSH2 0x324 JUMP JUMPDEST PUSH2 0x35F DUP2 PUSH2 0x15E JUMP JUMPDEST DUP5 ADD SWAP2 POP POP SWAP3 SWAP2 POP POP JUMP JUMPDEST PUSH0 PUSH1 0x20 DUP3 ADD SWAP1 POP DUP2 DUP2 SUB PUSH0 DUP4 ADD MSTORE PUSH2 0x382 DUP2 DUP5 PUSH2 0x332 JUMP JUMPDEST SWAP1 POP SWAP3 SWAP2 POP POP JUMP JUMPDEST PUSH32 0x4E487B7100000000000000000000000000000000000000000000000000000000 PUSH0 MSTORE PUSH1 0x22 PUSH1 0x4 MSTORE PUSH1 0x24 PUSH0 REVERT JUMPDEST PUSH0 PUSH1 0x2 DUP3 DIV SWAP1 POP PUSH1 0x1 DUP3 AND DUP1 PUSH2 0x3CE JUMPI PUSH1 0x7F DUP3 AND SWAP2 POP JUMPDEST PUSH1 0x20 DUP3 LT DUP2 SUB PUSH2 0x3E1 JUMPI PUSH2 0x3E0 PUSH2 0x38A JUMP JUMPDEST JUMPDEST POP SWAP2 SWAP1 POP JUMP JUMPDEST PUSH0 DUP2 SWAP1 POP DUP2 PUSH0 MSTORE PUSH1 0x20 PUSH0 KECCAK256 SWAP1 POP SWAP2 SWAP1 POP JUMP JUMPDEST PUSH0 PUSH1 0x20 PUSH1 0x1F DUP4 ADD DIV SWAP1 POP SWAP2 SWAP1 POP JUMP JUMPDEST PUSH0 DUP3 DUP3 SHL SWAP1 POP SWAP3 SWAP2 POP POP JUMP JUMPDEST PUSH0 PUSH1 0x8 DUP4 MUL PUSH2 0x443 PUSH32 0xFFFFFFFFFFFFFFFFFFFFFFFFFFFFFFFFFFFFFFFFFFFFFFFFFFFFFFFFFFFFFFFF DUP3 PUSH2 0x408 JUMP JUMPDEST PUSH2 0x44D DUP7 DUP4 PUSH2 0x408 JUMP JUMPDEST SWAP6 POP DUP1 NOT DUP5 AND SWAP4 POP DUP1 DUP7 AND DUP5 OR SWAP3 POP POP POP SWAP4 SWAP3 POP POP POP JUMP JUMPDEST PUSH0 DUP2 SWAP1 POP SWAP2 SWAP1 POP JUMP JUMPDEST PUSH0 PUSH2 0x488 PUSH2 0x483 PUSH2 0x47E DUP5 PUSH2 0x2D9 JUMP JUMPDEST PUSH2 0x465 JUMP JUMPDEST PUSH2 0x2D9 JUMP JUMPDEST SWAP1 POP SWAP2 SWAP1 POP JUMP JUMPDEST PUSH0 DUP2 SWAP1 POP SWAP2 SWAP1 POP JUMP JUMPDEST PUSH2 0x4A1 DUP4 PUSH2 0x46E JUMP JUMPDEST PUSH2 0x4B5 PUSH2 0x4AD DUP3 PUSH2 0x48F JUMP JUMPDEST DUP5 DUP5 SLOAD PUSH2 0x414 JUMP JUMPDEST DUP3 SSTORE POP POP POP POP JUMP JUMPDEST PUSH0 PUSH0 SWAP1 POP SWAP1 JUMP JUMPDEST PUSH2 0x4CC PUSH2 0x4BD JUMP JUMPDEST PUSH2 0x4D7 DUP2 DUP5 DUP5 PUSH2 0x498 JUMP JUMPDEST POP POP POP JUMP JUMPDEST JUMPDEST DUP2 DUP2 LT ISZERO PUSH2 0x4FA JUMPI PUSH2 0x4EF PUSH0 DUP3 PUSH2 0x4C4 JUMP JUMPDEST PUSH1 0x1 DUP2 ADD SWAP1 POP PUSH2 0x4DD JUMP JUMPDEST POP POP JUMP JUMPDEST PUSH1 0x1F DUP3 GT ISZERO PUSH2 0x53F JUMPI PUSH2 0x510 DUP2 PUSH2 0x3E7 JUMP JUMPDEST PUSH2 0x519 DUP5 PUSH2 0x3F9 JUMP JUMPDEST DUP2 ADD PUSH1 0x20 DUP6 LT ISZERO PUSH2 0x528 JUMPI DUP2 SWAP1 POP JUMPDEST PUSH2 0x53C PUSH2 0x534 DUP6 PUSH2 0x3F9 JUMP JUMPDEST DUP4 ADD DUP3 PUSH2 0x4DC JUMP JUMPDEST POP POP JUMPDEST POP POP POP JUMP JUMPDEST PUSH0 DUP3 DUP3 SHR SWAP1 POP SWAP3 SWAP2 POP POP JUMP JUMPDEST PUSH0 PUSH2 0x55F PUSH0 NOT DUP5 PUSH1 0x8 MUL PUSH2 0x544 JUMP JUMPDEST NOT DUP1 DUP4 AND SWAP2 POP POP SWAP3 SWAP2 POP POP JUMP JUMPDEST PUSH0 PUSH2 0x577 DUP4 DUP4 PUSH2 0x550 JUMP JUMPDEST SWAP2 POP DUP3 PUSH1 0x2 MUL DUP3 OR SWAP1 POP SWAP3 SWAP2 POP POP JUMP JUMPDEST PUSH2 0x590 DUP3 PUSH2 0x30A JUMP JUMPDEST PUSH8 0xFFFFFFFFFFFFFFFF DUP2 GT ISZERO PUSH2 0x5A9 JUMPI PUSH2 0x5A8 PUSH2 0x16E JUMP JUMPDEST JUMPDEST PUSH2 0x5B3 DUP3 SLOAD PUSH2 0x3B7 JUMP JUMPDEST PUSH2 0x5BE DUP3 DUP3 DUP6 PUSH2 0x4FE JUMP JUMPDEST PUSH0 PUSH1 0x20 SWAP1 POP PUSH1 0x1F DUP4 GT PUSH1 0x1 DUP2 EQ PUSH2 0x5EF JUMPI PUSH0 DUP5 ISZERO PUSH2 0x5DD JUMPI DUP3 DUP8 ADD MLOAD SWAP1 POP JUMPDEST PUSH2 0x5E7 DUP6 DUP3 PUSH2 0x56C JUMP JUMPDEST DUP7 SSTORE POP PUSH2 0x64E JUMP JUMPDEST PUSH1 0x1F NOT DUP5 AND PUSH2 0x5FD DUP7 PUSH2 0x3E7 JUMP JUMPDEST PUSH0 JUMPDEST DUP3 DUP2 LT ISZERO PUSH2 0x624 JUMPI DUP5 DUP10 ADD MLOAD DUP3 SSTORE PUSH1 0x1 DUP3 ADD SWAP2 POP PUSH1 0x20 DUP6 ADD SWAP5 POP PUSH1 0x20 DUP2 ADD SWAP1 POP PUSH2 0x5FF JUMP JUMPDEST DUP7 DUP4 LT ISZERO PUSH2 0x641 JUMPI DUP5 DUP10 ADD MLOAD PUSH2 0x63D PUSH1 0x1F DUP10 AND DUP3 PUSH2 0x550 JUMP JUMPDEST DUP4 SSTORE POP JUMPDEST PUSH1 0x1 PUSH1 0x2 DUP9 MUL ADD DUP9 SSTORE POP POP POP JUMPDEST POP POP POP POP POP POP JUMP INVALID LOG2 PUSH5 0x6970667358 0x22 SLT KECCAK256 PUSH28 0xA6EA8D49EC5B3644141F07E99C5232AC5AEBA06648B0CE385533A5EF 0x24 0xF 0xAF PUSH5 0x736F6C6343 STOP ADDMOD 0x1E STOP CALLER "
				},
				"gasEstimates": {
					"creation": {
						"codeDepositCost": "335200",
						"executionCost": "372",
						"totalCost": "335572"
					},
					"external": {
						"getAge()": "344",
						"myName()": "infinite",
						"updateName(string)": "infinite"
					}
				},
				"methodIdentifiers": {
					"getAge()": "967e6e65",
					"myName()": "fae2dd4b",
					"updateName(string)": "84da92a7"
				}
			},
			"storageLayout": {
				"storage": [
					{
						"astId": 3,
						"contract": "3-Local Variables/local.sol:Local",
						"label": "myName",
						"offset": 0,
						"slot": "0",
						"type": "t_string_storage"
					}
				],
				"types": {
					"t_string_storage": {
						"encoding": "bytes",
						"label": "string",
						"numberOfBytes": "32"
					}
				}
			},
			"userdoc": {
				"kind": "user",
				"methods": {},
				"version": 1
			}
		}
	}
}