{
	"2-State Variables/state.sol": {
		"State": {
			"abi": [
				{
					"inputs": [],
					"stateMutability": "nonpayable",
					"type": "constructor"
				},
				{
					"inputs": [],
					"name": "age",
					"outputs": [
						{
							"internalType": "uint256",
							"name": "",
							"type": "uint256"
						}
					],
					"stateMutability": "view",
					"type": "function"
				},
				{
					"inputs": [],
					"name": "name",
					"outputs": [
						{
							"internalType": "string",
							"name": "",
							"type": "string"
						}
					],
					"stateMutability": "view",
					"type": "function"
				},
				{
					"inputs": [],
					"name": "setAge",
					"outputs": [
						{
							"internalType": "uint256",
							"name": "",
							"type": "uint256"
						}
					],
					"stateMutability": "nonpayable",
					"type": "function"
				},
				{
					"inputs": [
						{
							"internalType": "string",
							"name": "_newName",
							"type": "string"
						}
					],
					"name": "setName",
					"outputs": [],
					"stateMutability": "nonpayable",
					"type": "function"
				}
			],
			"devdoc": {
				"kind": "dev",
				"methods": {},
				"version": 1
			},
			"evm": {
				"assembly": "    /* \"2-State Variables/state.sol\":177:1259  contract State {... */\n  mstore(0x40, 0x80)\n    /* \"2-State Variables/state.sol\":691:796  constructor() {... */\n  callvalue\n  dup1\n  iszero\n  tag_1\n  jumpi\n  revert(0x00, 0x00)\ntag_1:\n  pop\n    /* \"2-State Variables/state.sol\":721:723  10 */\n  0x0a\n    /* \"2-State Variables/state.sol\":715:718  age */\n  0x00\n    /* \"2-State Variables/state.sol\":715:723  age = 10 */\n  dup2\n  swap1\n  sstore\n  pop\n    /* \"2-State Variables/state.sol\":733:753  name = \"DefaultName\" */\n  mload(0x40)\n  dup1\n  0x40\n  add\n  0x40\n  mstore\n  dup1\n  0x0b\n  dup2\n  mstore\n  0x20\n  add\n  0x44656661756c744e616d65000000000000000000000000000000000000000000\n  dup2\n  mstore\n  pop\n    /* \"2-State Variables/state.sol\":733:737  name */\n  0x01\n    /* \"2-State Variables/state.sol\":733:753  name = \"DefaultName\" */\n  swap1\n  dup2\n  tag_4\n  swap2\n  swap1\n  tag_5\n  jump\t// in\ntag_4:\n  pop\n    /* \"2-State Variables/state.sol\":177:1259  contract State {... */\n  jump(tag_6)\n    /* \"#utility.yul\":7:106   */\ntag_7:\n    /* \"#utility.yul\":59:65   */\n  0x00\n    /* \"#utility.yul\":93:98   */\n  dup2\n    /* \"#utility.yul\":87:99   */\n  mload\n    /* \"#utility.yul\":77:99   */\n  swap1\n  pop\n    /* \"#utility.yul\":7:106   */\n  swap2\n  swap1\n  pop\n  jump\t// out\n    /* \"#utility.yul\":112:292   */\ntag_8:\n    /* \"#utility.yul\":160:237   */\n  0x4e487b7100000000000000000000000000000000000000000000000000000000\n    /* \"#utility.yul\":157:158   */\n  0x00\n    /* \"#utility.yul\":150:238   */\n  mstore\n    /* \"#utility.yul\":257:261   */\n  0x41\n    /* \"#utility.yul\":254:255   */\n  0x04\n    /* \"#utility.yul\":247:262   */\n  mstore\n    /* \"#utility.yul\":281:285   */\n  0x24\n    /* \"#utility.yul\":278:279   */\n  0x00\n    /* \"#utility.yul\":271:286   */\n  revert\n    /* \"#utility.yul\":298:478   */\ntag_9:\n    /* \"#utility.yul\":346:423   */\n  0x4e487b7100000000000000000000000000000000000000000000000000000000\n    /* \"#utility.yul\":343:344   */\n  0x00\n    /* \"#utility.yul\":336:424   */\n  mstore\n    /* \"#utility.yul\":443:447   */\n  0x22\n    /* \"#utility.yul\":440:441   */\n  0x04\n    /* \"#utility.yul\":433:448   */\n  mstore\n    /* \"#utility.yul\":467:471   */\n  0x24\n    /* \"#utility.yul\":464:465   */\n  0x00\n    /* \"#utility.yul\":457:472   */\n  revert\n    /* \"#utility.yul\":484:804   */\ntag_10:\n    /* \"#utility.yul\":528:534   */\n  0x00\n    /* \"#utility.yul\":565:566   */\n  0x02\n    /* \"#utility.yul\":559:563   */\n  dup3\n    /* \"#utility.yul\":555:567   */\n  div\n    /* \"#utility.yul\":545:567   */\n  swap1\n  pop\n    /* \"#utility.yul\":612:613   */\n  0x01\n    /* \"#utility.yul\":606:610   */\n  dup3\n    /* \"#utility.yul\":602:614   */\n  and\n    /* \"#utility.yul\":633:651   */\n  dup1\n    /* \"#utility.yul\":623:704   */\n  tag_32\n  jumpi\n    /* \"#utility.yul\":689:693   */\n  0x7f\n    /* \"#utility.yul\":681:687   */\n  dup3\n    /* \"#utility.yul\":677:694   */\n  and\n    /* \"#utility.yul\":667:694   */\n  swap2\n  pop\n    /* \"#utility.yul\":623:704   */\ntag_32:\n    /* \"#utility.yul\":751:753   */\n  0x20\n    /* \"#utility.yul\":743:749   */\n  dup3\n    /* \"#utility.yul\":740:754   */\n  lt\n    /* \"#utility.yul\":720:738   */\n  dup2\n    /* \"#utility.yul\":717:755   */\n  sub\n    /* \"#utility.yul\":714:798   */\n  tag_33\n  jumpi\n    /* \"#utility.yul\":770:788   */\n  tag_34\n  tag_9\n  jump\t// in\ntag_34:\n    /* \"#utility.yul\":714:798   */\ntag_33:\n    /* \"#utility.yul\":535:804   */\n  pop\n    /* \"#utility.yul\":484:804   */\n  swap2\n  swap1\n  pop\n  jump\t// out\n    /* \"#utility.yul\":810:951   */\ntag_11:\n    /* \"#utility.yul\":859:863   */\n  0x00\n    /* \"#utility.yul\":882:885   */\n  dup2\n    /* \"#utility.yul\":874:885   */\n  swap1\n  pop\n    /* \"#utility.yul\":905:908   */\n  dup2\n    /* \"#utility.yul\":902:903   */\n  0x00\n    /* \"#utility.yul\":895:909   */\n  mstore\n    /* \"#utility.yul\":939:943   */\n  0x20\n    /* \"#utility.yul\":936:937   */\n  0x00\n    /* \"#utility.yul\":926:944   */\n  keccak256\n    /* \"#utility.yul\":918:944   */\n  swap1\n  pop\n    /* \"#utility.yul\":810:951   */\n  swap2\n  swap1\n  pop\n  jump\t// out\n    /* \"#utility.yul\":957:1050   */\ntag_12:\n    /* \"#utility.yul\":994:1000   */\n  0x00\n    /* \"#utility.yul\":1041:1043   */\n  0x20\n    /* \"#utility.yul\":1036:1038   */\n  0x1f\n    /* \"#utility.yul\":1029:1034   */\n  dup4\n    /* \"#utility.yul\":1025:1039   */\n  add\n    /* \"#utility.yul\":1021:1044   */\n  div\n    /* \"#utility.yul\":1011:1044   */\n  swap1\n  pop\n    /* \"#utility.yul\":957:1050   */\n  swap2\n  swap1\n  pop\n  jump\t// out\n    /* \"#utility.yul\":1056:1163   */\ntag_13:\n    /* \"#utility.yul\":1100:1108   */\n  0x00\n    /* \"#utility.yul\":1150:1155   */\n  dup3\n    /* \"#utility.yul\":1144:1148   */\n  dup3\n    /* \"#utility.yul\":1140:1156   */\n  shl\n    /* \"#utility.yul\":1119:1156   */\n  swap1\n  pop\n    /* \"#utility.yul\":1056:1163   */\n  swap3\n  swap2\n  pop\n  pop\n  jump\t// out\n    /* \"#utility.yul\":1169:1562   */\ntag_14:\n    /* \"#utility.yul\":1238:1244   */\n  0x00\n    /* \"#utility.yul\":1288:1289   */\n  0x08\n    /* \"#utility.yul\":1276:1286   */\n  dup4\n    /* \"#utility.yul\":1272:1290   */\n  mul\n    /* \"#utility.yul\":1311:1408   */\n  tag_39\n    /* \"#utility.yul\":1341:1407   */\n  0xffffffffffffffffffffffffffffffffffffffffffffffffffffffffffffffff\n    /* \"#utility.yul\":1330:1339   */\n  dup3\n    /* \"#utility.yul\":1311:1408   */\n  tag_13\n  jump\t// in\ntag_39:\n    /* \"#utility.yul\":1429:1468   */\n  tag_40\n    /* \"#utility.yul\":1459:1467   */\n  dup7\n    /* \"#utility.yul\":1448:1457   */\n  dup4\n    /* \"#utility.yul\":1429:1468   */\n  tag_13\n  jump\t// in\ntag_40:\n    /* \"#utility.yul\":1417:1468   */\n  swap6\n  pop\n    /* \"#utility.yul\":1501:1505   */\n  dup1\n    /* \"#utility.yul\":1497:1506   */\n  not\n    /* \"#utility.yul\":1490:1495   */\n  dup5\n    /* \"#utility.yul\":1486:1507   */\n  and\n    /* \"#utility.yul\":1477:1507   */\n  swap4\n  pop\n    /* \"#utility.yul\":1550:1554   */\n  dup1\n    /* \"#utility.yul\":1540:1548   */\n  dup7\n    /* \"#utility.yul\":1536:1555   */\n  and\n    /* \"#utility.yul\":1529:1534   */\n  dup5\n    /* \"#utility.yul\":1526:1556   */\n  or\n    /* \"#utility.yul\":1516:1556   */\n  swap3\n  pop\n    /* \"#utility.yul\":1245:1562   */\n  pop\n  pop\n    /* \"#utility.yul\":1169:1562   */\n  swap4\n  swap3\n  pop\n  pop\n  pop\n  jump\t// out\n    /* \"#utility.yul\":1568:1645   */\ntag_15:\n    /* \"#utility.yul\":1605:1612   */\n  0x00\n    /* \"#utility.yul\":1634:1639   */\n  dup2\n    /* \"#utility.yul\":1623:1639   */\n  swap1\n  pop\n    /* \"#utility.yul\":1568:1645   */\n  swap2\n  swap1\n  pop\n  jump\t// out\n    /* \"#utility.yul\":1651:1711   */\ntag_16:\n    /* \"#utility.yul\":1679:1682   */\n  0x00\n    /* \"#utility.yul\":1700:1705   */\n  dup2\n    /* \"#utility.yul\":1693:1705   */\n  swap1\n  pop\n    /* \"#utility.yul\":1651:1711   */\n  swap2\n  swap1\n  pop\n  jump\t// out\n    /* \"#utility.yul\":1717:1859   */\ntag_17:\n    /* \"#utility.yul\":1767:1776   */\n  0x00\n    /* \"#utility.yul\":1800:1853   */\n  tag_44\n    /* \"#utility.yul\":1818:1852   */\n  tag_45\n    /* \"#utility.yul\":1827:1851   */\n  tag_46\n    /* \"#utility.yul\":1845:1850   */\n  dup5\n    /* \"#utility.yul\":1827:1851   */\n  tag_15\n  jump\t// in\ntag_46:\n    /* \"#utility.yul\":1818:1852   */\n  tag_16\n  jump\t// in\ntag_45:\n    /* \"#utility.yul\":1800:1853   */\n  tag_15\n  jump\t// in\ntag_44:\n    /* \"#utility.yul\":1787:1853   */\n  swap1\n  pop\n    /* \"#utility.yul\":1717:1859   */\n  swap2\n  swap1\n  pop\n  jump\t// out\n    /* \"#utility.yul\":1865:1940   */\ntag_18:\n    /* \"#utility.yul\":1908:1911   */\n  0x00\n    /* \"#utility.yul\":1929:1934   */\n  dup2\n    /* \"#utility.yul\":1922:1934   */\n  swap1\n  pop\n    /* \"#utility.yul\":1865:1940   */\n  swap2\n  swap1\n  pop\n  jump\t// out\n    /* \"#utility.yul\":1946:2215   */\ntag_19:\n    /* \"#utility.yul\":2056:2095   */\n  tag_49\n    /* \"#utility.yul\":2087:2094   */\n  dup4\n    /* \"#utility.yul\":2056:2095   */\n  tag_17\n  jump\t// in\ntag_49:\n    /* \"#utility.yul\":2117:2208   */\n  tag_50\n    /* \"#utility.yul\":2166:2207   */\n  tag_51\n    /* \"#utility.yul\":2190:2206   */\n  dup3\n    /* \"#utility.yul\":2166:2207   */\n  tag_18\n  jump\t// in\ntag_51:\n    /* \"#utility.yul\":2158:2164   */\n  dup5\n    /* \"#utility.yul\":2151:2155   */\n  dup5\n    /* \"#utility.yul\":2145:2156   */\n  sload\n    /* \"#utility.yul\":2117:2208   */\n  tag_14\n  jump\t// in\ntag_50:\n    /* \"#utility.yul\":2111:2115   */\n  dup3\n    /* \"#utility.yul\":2104:2209   */\n  sstore\n    /* \"#utility.yul\":2022:2215   */\n  pop\n    /* \"#utility.yul\":1946:2215   */\n  pop\n  pop\n  pop\n  jump\t// out\n    /* \"#utility.yul\":2221:2294   */\ntag_20:\n    /* \"#utility.yul\":2266:2269   */\n  0x00\n    /* \"#utility.yul\":2287:2288   */\n  0x00\n    /* \"#utility.yul\":2280:2288   */\n  swap1\n  pop\n    /* \"#utility.yul\":2221:2294   */\n  swap1\n  jump\t// out\n    /* \"#utility.yul\":2300:2489   */\ntag_21:\n    /* \"#utility.yul\":2377:2409   */\n  tag_54\n  tag_20\n  jump\t// in\ntag_54:\n    /* \"#utility.yul\":2418:2483   */\n  tag_55\n    /* \"#utility.yul\":2476:2482   */\n  dup2\n    /* \"#utility.yul\":2468:2474   */\n  dup5\n    /* \"#utility.yul\":2462:2466   */\n  dup5\n    /* \"#utility.yul\":2418:2483   */\n  tag_19\n  jump\t// in\ntag_55:\n    /* \"#utility.yul\":2353:2489   */\n  pop\n    /* \"#utility.yul\":2300:2489   */\n  pop\n  pop\n  jump\t// out\n    /* \"#utility.yul\":2495:2681   */\ntag_22:\n    /* \"#utility.yul\":2555:2675   */\ntag_57:\n    /* \"#utility.yul\":2572:2575   */\n  dup2\n    /* \"#utility.yul\":2565:2570   */\n  dup2\n    /* \"#utility.yul\":2562:2576   */\n  lt\n    /* \"#utility.yul\":2555:2675   */\n  iszero\n  tag_59\n  jumpi\n    /* \"#utility.yul\":2626:2665   */\n  tag_60\n    /* \"#utility.yul\":2663:2664   */\n  0x00\n    /* \"#utility.yul\":2656:2661   */\n  dup3\n    /* \"#utility.yul\":2626:2665   */\n  tag_21\n  jump\t// in\ntag_60:\n    /* \"#utility.yul\":2599:2600   */\n  0x01\n    /* \"#utility.yul\":2592:2597   */\n  dup2\n    /* \"#utility.yul\":2588:2601   */\n  add\n    /* \"#utility.yul\":2579:2601   */\n  swap1\n  pop\n    /* \"#utility.yul\":2555:2675   */\n  jump(tag_57)\ntag_59:\n    /* \"#utility.yul\":2495:2681   */\n  pop\n  pop\n  jump\t// out\n    /* \"#utility.yul\":2687:3230   */\ntag_23:\n    /* \"#utility.yul\":2788:2790   */\n  0x1f\n    /* \"#utility.yul\":2783:2786   */\n  dup3\n    /* \"#utility.yul\":2780:2791   */\n  gt\n    /* \"#utility.yul\":2777:3223   */\n  iszero\n  tag_62\n  jumpi\n    /* \"#utility.yul\":2822:2860   */\n  tag_63\n    /* \"#utility.yul\":2854:2859   */\n  dup2\n    /* \"#utility.yul\":2822:2860   */\n  tag_11\n  jump\t// in\ntag_63:\n    /* \"#utility.yul\":2906:2935   */\n  tag_64\n    /* \"#utility.yul\":2924:2934   */\n  dup5\n    /* \"#utility.yul\":2906:2935   */\n  tag_12\n  jump\t// in\ntag_64:\n    /* \"#utility.yul\":2896:2904   */\n  dup2\n    /* \"#utility.yul\":2892:2936   */\n  add\n    /* \"#utility.yul\":3089:3091   */\n  0x20\n    /* \"#utility.yul\":3077:3087   */\n  dup6\n    /* \"#utility.yul\":3074:3092   */\n  lt\n    /* \"#utility.yul\":3071:3120   */\n  iszero\n  tag_65\n  jumpi\n    /* \"#utility.yul\":3110:3118   */\n  dup2\n    /* \"#utility.yul\":3095:3118   */\n  swap1\n  pop\n    /* \"#utility.yul\":3071:3120   */\ntag_65:\n    /* \"#utility.yul\":3133:3213   */\n  tag_66\n    /* \"#utility.yul\":3189:3211   */\n  tag_67\n    /* \"#utility.yul\":3207:3210   */\n  dup6\n    /* \"#utility.yul\":3189:3211   */\n  tag_12\n  jump\t// in\ntag_67:\n    /* \"#utility.yul\":3179:3187   */\n  dup4\n    /* \"#utility.yul\":3175:3212   */\n  add\n    /* \"#utility.yul\":3162:3173   */\n  dup3\n    /* \"#utility.yul\":3133:3213   */\n  tag_22\n  jump\t// in\ntag_66:\n    /* \"#utility.yul\":2792:3223   */\n  pop\n  pop\n    /* \"#utility.yul\":2777:3223   */\ntag_62:\n    /* \"#utility.yul\":2687:3230   */\n  pop\n  pop\n  pop\n  jump\t// out\n    /* \"#utility.yul\":3236:3353   */\ntag_24:\n    /* \"#utility.yul\":3290:3298   */\n  0x00\n    /* \"#utility.yul\":3340:3345   */\n  dup3\n    /* \"#utility.yul\":3334:3338   */\n  dup3\n    /* \"#utility.yul\":3330:3346   */\n  shr\n    /* \"#utility.yul\":3309:3346   */\n  swap1\n  pop\n    /* \"#utility.yul\":3236:3353   */\n  swap3\n  swap2\n  pop\n  pop\n  jump\t// out\n    /* \"#utility.yul\":3359:3528   */\ntag_25:\n    /* \"#utility.yul\":3403:3409   */\n  0x00\n    /* \"#utility.yul\":3436:3487   */\n  tag_70\n    /* \"#utility.yul\":3484:3485   */\n  0x00\n    /* \"#utility.yul\":3480:3486   */\n  not\n    /* \"#utility.yul\":3472:3477   */\n  dup5\n    /* \"#utility.yul\":3469:3470   */\n  0x08\n    /* \"#utility.yul\":3465:3478   */\n  mul\n    /* \"#utility.yul\":3436:3487   */\n  tag_24\n  jump\t// in\ntag_70:\n    /* \"#utility.yul\":3432:3488   */\n  not\n    /* \"#utility.yul\":3517:3521   */\n  dup1\n    /* \"#utility.yul\":3511:3515   */\n  dup4\n    /* \"#utility.yul\":3507:3522   */\n  and\n    /* \"#utility.yul\":3497:3522   */\n  swap2\n  pop\n    /* \"#utility.yul\":3410:3528   */\n  pop\n    /* \"#utility.yul\":3359:3528   */\n  swap3\n  swap2\n  pop\n  pop\n  jump\t// out\n    /* \"#utility.yul\":3533:3828   */\ntag_26:\n    /* \"#utility.yul\":3609:3613   */\n  0x00\n    /* \"#utility.yul\":3755:3784   */\n  tag_72\n    /* \"#utility.yul\":3780:3783   */\n  dup4\n    /* \"#utility.yul\":3774:3778   */\n  dup4\n    /* \"#utility.yul\":3755:3784   */\n  tag_25\n  jump\t// in\ntag_72:\n    /* \"#utility.yul\":3747:3784   */\n  swap2\n  pop\n    /* \"#utility.yul\":3817:3820   */\n  dup3\n    /* \"#utility.yul\":3814:3815   */\n  0x02\n    /* \"#utility.yul\":3810:3821   */\n  mul\n    /* \"#utility.yul\":3804:3808   */\n  dup3\n    /* \"#utility.yul\":3801:3822   */\n  or\n    /* \"#utility.yul\":3793:3822   */\n  swap1\n  pop\n    /* \"#utility.yul\":3533:3828   */\n  swap3\n  swap2\n  pop\n  pop\n  jump\t// out\n    /* \"#utility.yul\":3833:5228   */\ntag_5:\n    /* \"#utility.yul\":3950:3987   */\n  tag_74\n    /* \"#utility.yul\":3983:3986   */\n  dup3\n    /* \"#utility.yul\":3950:3987   */\n  tag_7\n  jump\t// in\ntag_74:\n    /* \"#utility.yul\":4052:4070   */\n  0xffffffffffffffff\n    /* \"#utility.yul\":4044:4050   */\n  dup2\n    /* \"#utility.yul\":4041:4071   */\n  gt\n    /* \"#utility.yul\":4038:4094   */\n  iszero\n  tag_75\n  jumpi\n    /* \"#utility.yul\":4074:4092   */\n  tag_76\n  tag_8\n  jump\t// in\ntag_76:\n    /* \"#utility.yul\":4038:4094   */\ntag_75:\n    /* \"#utility.yul\":4118:4156   */\n  tag_77\n    /* \"#utility.yul\":4150:4154   */\n  dup3\n    /* \"#utility.yul\":4144:4155   */\n  sload\n    /* \"#utility.yul\":4118:4156   */\n  tag_10\n  jump\t// in\ntag_77:\n    /* \"#utility.yul\":4203:4270   */\n  tag_78\n    /* \"#utility.yul\":4263:4269   */\n  dup3\n    /* \"#utility.yul\":4255:4261   */\n  dup3\n    /* \"#utility.yul\":4249:4253   */\n  dup6\n    /* \"#utility.yul\":4203:4270   */\n  tag_23\n  jump\t// in\ntag_78:\n    /* \"#utility.yul\":4297:4298   */\n  0x00\n    /* \"#utility.yul\":4321:4325   */\n  0x20\n    /* \"#utility.yul\":4308:4325   */\n  swap1\n  pop\n    /* \"#utility.yul\":4353:4355   */\n  0x1f\n    /* \"#utility.yul\":4345:4351   */\n  dup4\n    /* \"#utility.yul\":4342:4356   */\n  gt\n    /* \"#utility.yul\":4370:4371   */\n  0x01\n    /* \"#utility.yul\":4365:4983   */\n  dup2\n  eq\n  tag_80\n  jumpi\n    /* \"#utility.yul\":5027:5028   */\n  0x00\n    /* \"#utility.yul\":5044:5050   */\n  dup5\n    /* \"#utility.yul\":5041:5118   */\n  iszero\n  tag_81\n  jumpi\n    /* \"#utility.yul\":5093:5102   */\n  dup3\n    /* \"#utility.yul\":5088:5091   */\n  dup8\n    /* \"#utility.yul\":5084:5103   */\n  add\n    /* \"#utility.yul\":5078:5104   */\n  mload\n    /* \"#utility.yul\":5069:5104   */\n  swap1\n  pop\n    /* \"#utility.yul\":5041:5118   */\ntag_81:\n    /* \"#utility.yul\":5144:5211   */\n  tag_82\n    /* \"#utility.yul\":5204:5210   */\n  dup6\n    /* \"#utility.yul\":5197:5202   */\n  dup3\n    /* \"#utility.yul\":5144:5211   */\n  tag_26\n  jump\t// in\ntag_82:\n    /* \"#utility.yul\":5138:5142   */\n  dup7\n    /* \"#utility.yul\":5131:5212   */\n  sstore\n    /* \"#utility.yul\":5000:5222   */\n  pop\n    /* \"#utility.yul\":4335:5222   */\n  jump(tag_79)\n    /* \"#utility.yul\":4365:4983   */\ntag_80:\n    /* \"#utility.yul\":4417:4421   */\n  0x1f\n    /* \"#utility.yul\":4413:4422   */\n  not\n    /* \"#utility.yul\":4405:4411   */\n  dup5\n    /* \"#utility.yul\":4401:4423   */\n  and\n    /* \"#utility.yul\":4451:4488   */\n  tag_83\n    /* \"#utility.yul\":4483:4487   */\n  dup7\n    /* \"#utility.yul\":4451:4488   */\n  tag_11\n  jump\t// in\ntag_83:\n    /* \"#utility.yul\":4510:4511   */\n  0x00\n    /* \"#utility.yul\":4524:4732   */\ntag_84:\n    /* \"#utility.yul\":4538:4545   */\n  dup3\n    /* \"#utility.yul\":4535:4536   */\n  dup2\n    /* \"#utility.yul\":4532:4546   */\n  lt\n    /* \"#utility.yul\":4524:4732   */\n  iszero\n  tag_86\n  jumpi\n    /* \"#utility.yul\":4617:4626   */\n  dup5\n    /* \"#utility.yul\":4612:4615   */\n  dup10\n    /* \"#utility.yul\":4608:4627   */\n  add\n    /* \"#utility.yul\":4602:4628   */\n  mload\n    /* \"#utility.yul\":4594:4600   */\n  dup3\n    /* \"#utility.yul\":4587:4629   */\n  sstore\n    /* \"#utility.yul\":4668:4669   */\n  0x01\n    /* \"#utility.yul\":4660:4666   */\n  dup3\n    /* \"#utility.yul\":4656:4670   */\n  add\n    /* \"#utility.yul\":4646:4670   */\n  swap2\n  pop\n    /* \"#utility.yul\":4715:4717   */\n  0x20\n    /* \"#utility.yul\":4704:4713   */\n  dup6\n    /* \"#utility.yul\":4700:4718   */\n  add\n    /* \"#utility.yul\":4687:4718   */\n  swap5\n  pop\n    /* \"#utility.yul\":4561:4565   */\n  0x20\n    /* \"#utility.yul\":4558:4559   */\n  dup2\n    /* \"#utility.yul\":4554:4566   */\n  add\n    /* \"#utility.yul\":4549:4566   */\n  swap1\n  pop\n    /* \"#utility.yul\":4524:4732   */\n  jump(tag_84)\ntag_86:\n    /* \"#utility.yul\":4760:4766   */\n  dup7\n    /* \"#utility.yul\":4751:4758   */\n  dup4\n    /* \"#utility.yul\":4748:4767   */\n  lt\n    /* \"#utility.yul\":4745:4924   */\n  iszero\n  tag_87\n  jumpi\n    /* \"#utility.yul\":4818:4827   */\n  dup5\n    /* \"#utility.yul\":4813:4816   */\n  dup10\n    /* \"#utility.yul\":4809:4828   */\n  add\n    /* \"#utility.yul\":4803:4829   */\n  mload\n    /* \"#utility.yul\":4861:4909   */\n  tag_88\n    /* \"#utility.yul\":4903:4907   */\n  0x1f\n    /* \"#utility.yul\":4895:4901   */\n  dup10\n    /* \"#utility.yul\":4891:4908   */\n  and\n    /* \"#utility.yul\":4880:4889   */\n  dup3\n    /* \"#utility.yul\":4861:4909   */\n  tag_25\n  jump\t// in\ntag_88:\n    /* \"#utility.yul\":4853:4859   */\n  dup4\n    /* \"#utility.yul\":4846:4910   */\n  sstore\n    /* \"#utility.yul\":4768:4924   */\n  pop\n    /* \"#utility.yul\":4745:4924   */\ntag_87:\n    /* \"#utility.yul\":4970:4971   */\n  0x01\n    /* \"#utility.yul\":4966:4967   */\n  0x02\n    /* \"#utility.yul\":4958:4964   */\n  dup9\n    /* \"#utility.yul\":4954:4968   */\n  mul\n    /* \"#utility.yul\":4950:4972   */\n  add\n    /* \"#utility.yul\":4944:4948   */\n  dup9\n    /* \"#utility.yul\":4937:4973   */\n  sstore\n    /* \"#utility.yul\":4372:4983   */\n  pop\n  pop\n  pop\n    /* \"#utility.yul\":4335:5222   */\ntag_79:\n  pop\n    /* \"#utility.yul\":3925:5228   */\n  pop\n  pop\n  pop\n    /* \"#utility.yul\":3833:5228   */\n  pop\n  pop\n  jump\t// out\n    /* \"2-State Variables/state.sol\":177:1259  contract State {... */\ntag_6:\n  dataSize(sub_0)\n  dup1\n  dataOffset(sub_0)\n  0x00\n  codecopy\n  0x00\n  return\nstop\n\nsub_0: assembly {\n        /* \"2-State Variables/state.sol\":177:1259  contract State {... */\n      mstore(0x40, 0x80)\n      callvalue\n      dup1\n      iszero\n      tag_1\n      jumpi\n      revert(0x00, 0x00)\n    tag_1:\n      pop\n      jumpi(tag_2, lt(calldatasize, 0x04))\n      shr(0xe0, calldataload(0x00))\n      dup1\n      0x06fdde03\n      eq\n      tag_3\n      jumpi\n      dup1\n      0x262a9dff\n      eq\n      tag_4\n      jumpi\n      dup1\n      0x457676ee\n      eq\n      tag_5\n      jumpi\n      dup1\n      0xc47f0027\n      eq\n      tag_6\n      jumpi\n    tag_2:\n      revert(0x00, 0x00)\n        /* \"2-State Variables/state.sol\":537:555  string public name */\n    tag_3:\n      tag_7\n      tag_8\n      jump\t// in\n    tag_7:\n      mload(0x40)\n      tag_9\n      swap2\n      swap1\n      tag_10\n      jump\t// in\n    tag_9:\n      mload(0x40)\n      dup1\n      swap2\n      sub\n      swap1\n      return\n        /* \"2-State Variables/state.sol\":355:370  uint public age */\n    tag_4:\n      tag_11\n      tag_12\n      jump\t// in\n    tag_11:\n      mload(0x40)\n      tag_13\n      swap2\n      swap1\n      tag_14\n      jump\t// in\n    tag_13:\n      mload(0x40)\n      dup1\n      swap2\n      sub\n      swap1\n      return\n        /* \"2-State Variables/state.sol\":945:1102  function setAge() public returns (uint) {... */\n    tag_5:\n      tag_15\n      tag_16\n      jump\t// in\n    tag_15:\n      mload(0x40)\n      tag_17\n      swap2\n      swap1\n      tag_14\n      jump\t// in\n    tag_17:\n      mload(0x40)\n      dup1\n      swap2\n      sub\n      swap1\n      return\n        /* \"2-State Variables/state.sol\":1177:1257  function setName(string memory _newName) public {... */\n    tag_6:\n      tag_18\n      0x04\n      dup1\n      calldatasize\n      sub\n      dup2\n      add\n      swap1\n      tag_19\n      swap2\n      swap1\n      tag_20\n      jump\t// in\n    tag_19:\n      tag_21\n      jump\t// in\n    tag_18:\n      stop\n        /* \"2-State Variables/state.sol\":537:555  string public name */\n    tag_8:\n      0x01\n      dup1\n      sload\n      tag_22\n      swap1\n      tag_23\n      jump\t// in\n    tag_22:\n      dup1\n      0x1f\n      add\n      0x20\n      dup1\n      swap2\n      div\n      mul\n      0x20\n      add\n      mload(0x40)\n      swap1\n      dup2\n      add\n      0x40\n      mstore\n      dup1\n      swap3\n      swap2\n      swap1\n      dup2\n      dup2\n      mstore\n      0x20\n      add\n      dup3\n      dup1\n      sload\n      tag_24\n      swap1\n      tag_23\n      jump\t// in\n    tag_24:\n      dup1\n      iszero\n      tag_25\n      jumpi\n      dup1\n      0x1f\n      lt\n      tag_26\n      jumpi\n      0x0100\n      dup1\n      dup4\n      sload\n      div\n      mul\n      dup4\n      mstore\n      swap2\n      0x20\n      add\n      swap2\n      jump(tag_25)\n    tag_26:\n      dup3\n      add\n      swap2\n      swap1\n      0x00\n      mstore\n      keccak256(0x00, 0x20)\n      swap1\n    tag_27:\n      dup2\n      sload\n      dup2\n      mstore\n      swap1\n      0x01\n      add\n      swap1\n      0x20\n      add\n      dup1\n      dup4\n      gt\n      tag_27\n      jumpi\n      dup3\n      swap1\n      sub\n      0x1f\n      and\n      dup3\n      add\n      swap2\n    tag_25:\n      pop\n      pop\n      pop\n      pop\n      pop\n      dup2\n      jump\t// out\n        /* \"2-State Variables/state.sol\":355:370  uint public age */\n    tag_12:\n      sload(0x00)\n      dup2\n      jump\t// out\n        /* \"2-State Variables/state.sol\":945:1102  function setAge() public returns (uint) {... */\n    tag_16:\n        /* \"2-State Variables/state.sol\":979:983  uint */\n      0x00\n        /* \"2-State Variables/state.sol\":1002:1003  1 */\n      0x01\n        /* \"2-State Variables/state.sol\":995:998  age */\n      0x00\n      0x00\n        /* \"2-State Variables/state.sol\":995:1003  age += 1 */\n      dup3\n      dup3\n      sload\n      tag_29\n      swap2\n      swap1\n      tag_30\n      jump\t// in\n    tag_29:\n      swap3\n      pop\n      pop\n      dup2\n      swap1\n      sstore\n      pop\n        /* \"2-State Variables/state.sol\":1054:1057  age */\n      sload(0x00)\n        /* \"2-State Variables/state.sol\":1047:1057  return age */\n      swap1\n      pop\n        /* \"2-State Variables/state.sol\":945:1102  function setAge() public returns (uint) {... */\n      swap1\n      jump\t// out\n        /* \"2-State Variables/state.sol\":1177:1257  function setName(string memory _newName) public {... */\n    tag_21:\n        /* \"2-State Variables/state.sol\":1242:1250  _newName */\n      dup1\n        /* \"2-State Variables/state.sol\":1235:1239  name */\n      0x01\n        /* \"2-State Variables/state.sol\":1235:1250  name = _newName */\n      swap1\n      dup2\n      tag_32\n      swap2\n      swap1\n      tag_33\n      jump\t// in\n    tag_32:\n      pop\n        /* \"2-State Variables/state.sol\":1177:1257  function setName(string memory _newName) public {... */\n      pop\n      jump\t// out\n        /* \"#utility.yul\":7:106   */\n    tag_34:\n        /* \"#utility.yul\":59:65   */\n      0x00\n        /* \"#utility.yul\":93:98   */\n      dup2\n        /* \"#utility.yul\":87:99   */\n      mload\n        /* \"#utility.yul\":77:99   */\n      swap1\n      pop\n        /* \"#utility.yul\":7:106   */\n      swap2\n      swap1\n      pop\n      jump\t// out\n        /* \"#utility.yul\":112:281   */\n    tag_35:\n        /* \"#utility.yul\":196:207   */\n      0x00\n        /* \"#utility.yul\":230:236   */\n      dup3\n        /* \"#utility.yul\":225:228   */\n      dup3\n        /* \"#utility.yul\":218:237   */\n      mstore\n        /* \"#utility.yul\":270:274   */\n      0x20\n        /* \"#utility.yul\":265:268   */\n      dup3\n        /* \"#utility.yul\":261:275   */\n      add\n        /* \"#utility.yul\":246:275   */\n      swap1\n      pop\n        /* \"#utility.yul\":112:281   */\n      swap3\n      swap2\n      pop\n      pop\n      jump\t// out\n        /* \"#utility.yul\":287:426   */\n    tag_36:\n        /* \"#utility.yul\":376:382   */\n      dup3\n        /* \"#utility.yul\":371:374   */\n      dup2\n        /* \"#utility.yul\":366:369   */\n      dup4\n        /* \"#utility.yul\":360:383   */\n      mcopy\n        /* \"#utility.yul\":417:418   */\n      0x00\n        /* \"#utility.yul\":408:414   */\n      dup4\n        /* \"#utility.yul\":403:406   */\n      dup4\n        /* \"#utility.yul\":399:415   */\n      add\n        /* \"#utility.yul\":392:419   */\n      mstore\n        /* \"#utility.yul\":287:426   */\n      pop\n      pop\n      pop\n      jump\t// out\n        /* \"#utility.yul\":432:534   */\n    tag_37:\n        /* \"#utility.yul\":473:479   */\n      0x00\n        /* \"#utility.yul\":524:526   */\n      0x1f\n        /* \"#utility.yul\":520:527   */\n      not\n        /* \"#utility.yul\":515:517   */\n      0x1f\n        /* \"#utility.yul\":508:513   */\n      dup4\n        /* \"#utility.yul\":504:518   */\n      add\n        /* \"#utility.yul\":500:528   */\n      and\n        /* \"#utility.yul\":490:528   */\n      swap1\n      pop\n        /* \"#utility.yul\":432:534   */\n      swap2\n      swap1\n      pop\n      jump\t// out\n        /* \"#utility.yul\":540:917   */\n    tag_38:\n        /* \"#utility.yul\":628:631   */\n      0x00\n        /* \"#utility.yul\":656:695   */\n      tag_76\n        /* \"#utility.yul\":689:694   */\n      dup3\n        /* \"#utility.yul\":656:695   */\n      tag_34\n      jump\t// in\n    tag_76:\n        /* \"#utility.yul\":711:782   */\n      tag_77\n        /* \"#utility.yul\":775:781   */\n      dup2\n        /* \"#utility.yul\":770:773   */\n      dup6\n        /* \"#utility.yul\":711:782   */\n      tag_35\n      jump\t// in\n    tag_77:\n        /* \"#utility.yul\":704:782   */\n      swap4\n      pop\n        /* \"#utility.yul\":791:856   */\n      tag_78\n        /* \"#utility.yul\":849:855   */\n      dup2\n        /* \"#utility.yul\":844:847   */\n      dup6\n        /* \"#utility.yul\":837:841   */\n      0x20\n        /* \"#utility.yul\":830:835   */\n      dup7\n        /* \"#utility.yul\":826:842   */\n      add\n        /* \"#utility.yul\":791:856   */\n      tag_36\n      jump\t// in\n    tag_78:\n        /* \"#utility.yul\":881:910   */\n      tag_79\n        /* \"#utility.yul\":903:909   */\n      dup2\n        /* \"#utility.yul\":881:910   */\n      tag_37\n      jump\t// in\n    tag_79:\n        /* \"#utility.yul\":876:879   */\n      dup5\n        /* \"#utility.yul\":872:911   */\n      add\n        /* \"#utility.yul\":865:911   */\n      swap2\n      pop\n        /* \"#utility.yul\":632:917   */\n      pop\n        /* \"#utility.yul\":540:917   */\n      swap3\n      swap2\n      pop\n      pop\n      jump\t// out\n        /* \"#utility.yul\":923:1236   */\n    tag_10:\n        /* \"#utility.yul\":1036:1040   */\n      0x00\n        /* \"#utility.yul\":1074:1076   */\n      0x20\n        /* \"#utility.yul\":1063:1072   */\n      dup3\n        /* \"#utility.yul\":1059:1077   */\n      add\n        /* \"#utility.yul\":1051:1077   */\n      swap1\n      pop\n        /* \"#utility.yul\":1123:1132   */\n      dup2\n        /* \"#utility.yul\":1117:1121   */\n      dup2\n        /* \"#utility.yul\":1113:1133   */\n      sub\n        /* \"#utility.yul\":1109:1110   */\n      0x00\n        /* \"#utility.yul\":1098:1107   */\n      dup4\n        /* \"#utility.yul\":1094:1111   */\n      add\n        /* \"#utility.yul\":1087:1134   */\n      mstore\n        /* \"#utility.yul\":1151:1229   */\n      tag_81\n        /* \"#utility.yul\":1224:1228   */\n      dup2\n        /* \"#utility.yul\":1215:1221   */\n      dup5\n        /* \"#utility.yul\":1151:1229   */\n      tag_38\n      jump\t// in\n    tag_81:\n        /* \"#utility.yul\":1143:1229   */\n      swap1\n      pop\n        /* \"#utility.yul\":923:1236   */\n      swap3\n      swap2\n      pop\n      pop\n      jump\t// out\n        /* \"#utility.yul\":1242:1319   */\n    tag_39:\n        /* \"#utility.yul\":1279:1286   */\n      0x00\n        /* \"#utility.yul\":1308:1313   */\n      dup2\n        /* \"#utility.yul\":1297:1313   */\n      swap1\n      pop\n        /* \"#utility.yul\":1242:1319   */\n      swap2\n      swap1\n      pop\n      jump\t// out\n        /* \"#utility.yul\":1325:1443   */\n    tag_40:\n        /* \"#utility.yul\":1412:1436   */\n      tag_84\n        /* \"#utility.yul\":1430:1435   */\n      dup2\n        /* \"#utility.yul\":1412:1436   */\n      tag_39\n      jump\t// in\n    tag_84:\n        /* \"#utility.yul\":1407:1410   */\n      dup3\n        /* \"#utility.yul\":1400:1437   */\n      mstore\n        /* \"#utility.yul\":1325:1443   */\n      pop\n      pop\n      jump\t// out\n        /* \"#utility.yul\":1449:1671   */\n    tag_14:\n        /* \"#utility.yul\":1542:1546   */\n      0x00\n        /* \"#utility.yul\":1580:1582   */\n      0x20\n        /* \"#utility.yul\":1569:1578   */\n      dup3\n        /* \"#utility.yul\":1565:1583   */\n      add\n        /* \"#utility.yul\":1557:1583   */\n      swap1\n      pop\n        /* \"#utility.yul\":1593:1664   */\n      tag_86\n        /* \"#utility.yul\":1661:1662   */\n      0x00\n        /* \"#utility.yul\":1650:1659   */\n      dup4\n        /* \"#utility.yul\":1646:1663   */\n      add\n        /* \"#utility.yul\":1637:1643   */\n      dup5\n        /* \"#utility.yul\":1593:1664   */\n      tag_40\n      jump\t// in\n    tag_86:\n        /* \"#utility.yul\":1449:1671   */\n      swap3\n      swap2\n      pop\n      pop\n      jump\t// out\n        /* \"#utility.yul\":1677:1752   */\n    tag_41:\n        /* \"#utility.yul\":1710:1716   */\n      0x00\n        /* \"#utility.yul\":1743:1745   */\n      0x40\n        /* \"#utility.yul\":1737:1746   */\n      mload\n        /* \"#utility.yul\":1727:1746   */\n      swap1\n      pop\n        /* \"#utility.yul\":1677:1752   */\n      swap1\n      jump\t// out\n        /* \"#utility.yul\":1758:1875   */\n    tag_42:\n        /* \"#utility.yul\":1867:1868   */\n      0x00\n        /* \"#utility.yul\":1864:1865   */\n      0x00\n        /* \"#utility.yul\":1857:1869   */\n      revert\n        /* \"#utility.yul\":1881:1998   */\n    tag_43:\n        /* \"#utility.yul\":1990:1991   */\n      0x00\n        /* \"#utility.yul\":1987:1988   */\n      0x00\n        /* \"#utility.yul\":1980:1992   */\n      revert\n        /* \"#utility.yul\":2004:2121   */\n    tag_44:\n        /* \"#utility.yul\":2113:2114   */\n      0x00\n        /* \"#utility.yul\":2110:2111   */\n      0x00\n        /* \"#utility.yul\":2103:2115   */\n      revert\n        /* \"#utility.yul\":2127:2244   */\n    tag_45:\n        /* \"#utility.yul\":2236:2237   */\n      0x00\n        /* \"#utility.yul\":2233:2234   */\n      0x00\n        /* \"#utility.yul\":2226:2238   */\n      revert\n        /* \"#utility.yul\":2250:2430   */\n    tag_46:\n        /* \"#utility.yul\":2298:2375   */\n      0x4e487b7100000000000000000000000000000000000000000000000000000000\n        /* \"#utility.yul\":2295:2296   */\n      0x00\n        /* \"#utility.yul\":2288:2376   */\n      mstore\n        /* \"#utility.yul\":2395:2399   */\n      0x41\n        /* \"#utility.yul\":2392:2393   */\n      0x04\n        /* \"#utility.yul\":2385:2400   */\n      mstore\n        /* \"#utility.yul\":2419:2423   */\n      0x24\n        /* \"#utility.yul\":2416:2417   */\n      0x00\n        /* \"#utility.yul\":2409:2424   */\n      revert\n        /* \"#utility.yul\":2436:2717   */\n    tag_47:\n        /* \"#utility.yul\":2519:2546   */\n      tag_94\n        /* \"#utility.yul\":2541:2545   */\n      dup3\n        /* \"#utility.yul\":2519:2546   */\n      tag_37\n      jump\t// in\n    tag_94:\n        /* \"#utility.yul\":2511:2517   */\n      dup2\n        /* \"#utility.yul\":2507:2547   */\n      add\n        /* \"#utility.yul\":2649:2655   */\n      dup2\n        /* \"#utility.yul\":2637:2647   */\n      dup2\n        /* \"#utility.yul\":2634:2656   */\n      lt\n        /* \"#utility.yul\":2613:2631   */\n      0xffffffffffffffff\n        /* \"#utility.yul\":2601:2611   */\n      dup3\n        /* \"#utility.yul\":2598:2632   */\n      gt\n        /* \"#utility.yul\":2595:2657   */\n      or\n        /* \"#utility.yul\":2592:2680   */\n      iszero\n      tag_95\n      jumpi\n        /* \"#utility.yul\":2660:2678   */\n      tag_96\n      tag_46\n      jump\t// in\n    tag_96:\n        /* \"#utility.yul\":2592:2680   */\n    tag_95:\n        /* \"#utility.yul\":2700:2710   */\n      dup1\n        /* \"#utility.yul\":2696:2698   */\n      0x40\n        /* \"#utility.yul\":2689:2711   */\n      mstore\n        /* \"#utility.yul\":2479:2717   */\n      pop\n        /* \"#utility.yul\":2436:2717   */\n      pop\n      pop\n      jump\t// out\n        /* \"#utility.yul\":2723:2852   */\n    tag_48:\n        /* \"#utility.yul\":2757:2763   */\n      0x00\n        /* \"#utility.yul\":2784:2804   */\n      tag_98\n      tag_41\n      jump\t// in\n    tag_98:\n        /* \"#utility.yul\":2774:2804   */\n      swap1\n      pop\n        /* \"#utility.yul\":2813:2846   */\n      tag_99\n        /* \"#utility.yul\":2841:2845   */\n      dup3\n        /* \"#utility.yul\":2833:2839   */\n      dup3\n        /* \"#utility.yul\":2813:2846   */\n      tag_47\n      jump\t// in\n    tag_99:\n        /* \"#utility.yul\":2723:2852   */\n      swap2\n      swap1\n      pop\n      jump\t// out\n        /* \"#utility.yul\":2858:3166   */\n    tag_49:\n        /* \"#utility.yul\":2920:2924   */\n      0x00\n        /* \"#utility.yul\":3010:3028   */\n      0xffffffffffffffff\n        /* \"#utility.yul\":3002:3008   */\n      dup3\n        /* \"#utility.yul\":2999:3029   */\n      gt\n        /* \"#utility.yul\":2996:3052   */\n      iszero\n      tag_101\n      jumpi\n        /* \"#utility.yul\":3032:3050   */\n      tag_102\n      tag_46\n      jump\t// in\n    tag_102:\n        /* \"#utility.yul\":2996:3052   */\n    tag_101:\n        /* \"#utility.yul\":3070:3099   */\n      tag_103\n        /* \"#utility.yul\":3092:3098   */\n      dup3\n        /* \"#utility.yul\":3070:3099   */\n      tag_37\n      jump\t// in\n    tag_103:\n        /* \"#utility.yul\":3062:3099   */\n      swap1\n      pop\n        /* \"#utility.yul\":3154:3158   */\n      0x20\n        /* \"#utility.yul\":3148:3152   */\n      dup2\n        /* \"#utility.yul\":3144:3159   */\n      add\n        /* \"#utility.yul\":3136:3159   */\n      swap1\n      pop\n        /* \"#utility.yul\":2858:3166   */\n      swap2\n      swap1\n      pop\n      jump\t// out\n        /* \"#utility.yul\":3172:3320   */\n    tag_50:\n        /* \"#utility.yul\":3270:3276   */\n      dup3\n        /* \"#utility.yul\":3265:3268   */\n      dup2\n        /* \"#utility.yul\":3260:3263   */\n      dup4\n        /* \"#utility.yul\":3247:3277   */\n      calldatacopy\n        /* \"#utility.yul\":3311:3312   */\n      0x00\n        /* \"#utility.yul\":3302:3308   */\n      dup4\n        /* \"#utility.yul\":3297:3300   */\n      dup4\n        /* \"#utility.yul\":3293:3309   */\n      add\n        /* \"#utility.yul\":3286:3313   */\n      mstore\n        /* \"#utility.yul\":3172:3320   */\n      pop\n      pop\n      pop\n      jump\t// out\n        /* \"#utility.yul\":3326:3751   */\n    tag_51:\n        /* \"#utility.yul\":3404:3409   */\n      0x00\n        /* \"#utility.yul\":3429:3495   */\n      tag_106\n        /* \"#utility.yul\":3445:3494   */\n      tag_107\n        /* \"#utility.yul\":3487:3493   */\n      dup5\n        /* \"#utility.yul\":3445:3494   */\n      tag_49\n      jump\t// in\n    tag_107:\n        /* \"#utility.yul\":3429:3495   */\n      tag_48\n      jump\t// in\n    tag_106:\n        /* \"#utility.yul\":3420:3495   */\n      swap1\n      pop\n        /* \"#utility.yul\":3518:3524   */\n      dup3\n        /* \"#utility.yul\":3511:3516   */\n      dup2\n        /* \"#utility.yul\":3504:3525   */\n      mstore\n        /* \"#utility.yul\":3556:3560   */\n      0x20\n        /* \"#utility.yul\":3549:3554   */\n      dup2\n        /* \"#utility.yul\":3545:3561   */\n      add\n        /* \"#utility.yul\":3594:3597   */\n      dup5\n        /* \"#utility.yul\":3585:3591   */\n      dup5\n        /* \"#utility.yul\":3580:3583   */\n      dup5\n        /* \"#utility.yul\":3576:3592   */\n      add\n        /* \"#utility.yul\":3573:3598   */\n      gt\n        /* \"#utility.yul\":3570:3682   */\n      iszero\n      tag_108\n      jumpi\n        /* \"#utility.yul\":3601:3680   */\n      tag_109\n      tag_45\n      jump\t// in\n    tag_109:\n        /* \"#utility.yul\":3570:3682   */\n    tag_108:\n        /* \"#utility.yul\":3691:3745   */\n      tag_110\n        /* \"#utility.yul\":3738:3744   */\n      dup5\n        /* \"#utility.yul\":3733:3736   */\n      dup3\n        /* \"#utility.yul\":3728:3731   */\n      dup6\n        /* \"#utility.yul\":3691:3745   */\n      tag_50\n      jump\t// in\n    tag_110:\n        /* \"#utility.yul\":3410:3751   */\n      pop\n        /* \"#utility.yul\":3326:3751   */\n      swap4\n      swap3\n      pop\n      pop\n      pop\n      jump\t// out\n        /* \"#utility.yul\":3771:4111   */\n    tag_52:\n        /* \"#utility.yul\":3827:3832   */\n      0x00\n        /* \"#utility.yul\":3876:3879   */\n      dup3\n        /* \"#utility.yul\":3869:3873   */\n      0x1f\n        /* \"#utility.yul\":3861:3867   */\n      dup4\n        /* \"#utility.yul\":3857:3874   */\n      add\n        /* \"#utility.yul\":3853:3880   */\n      slt\n        /* \"#utility.yul\":3843:3965   */\n      tag_112\n      jumpi\n        /* \"#utility.yul\":3884:3963   */\n      tag_113\n      tag_44\n      jump\t// in\n    tag_113:\n        /* \"#utility.yul\":3843:3965   */\n    tag_112:\n        /* \"#utility.yul\":4001:4007   */\n      dup2\n        /* \"#utility.yul\":3988:4008   */\n      calldataload\n        /* \"#utility.yul\":4026:4105   */\n      tag_114\n        /* \"#utility.yul\":4101:4104   */\n      dup5\n        /* \"#utility.yul\":4093:4099   */\n      dup3\n        /* \"#utility.yul\":4086:4090   */\n      0x20\n        /* \"#utility.yul\":4078:4084   */\n      dup7\n        /* \"#utility.yul\":4074:4091   */\n      add\n        /* \"#utility.yul\":4026:4105   */\n      tag_51\n      jump\t// in\n    tag_114:\n        /* \"#utility.yul\":4017:4105   */\n      swap2\n      pop\n        /* \"#utility.yul\":3833:4111   */\n      pop\n        /* \"#utility.yul\":3771:4111   */\n      swap3\n      swap2\n      pop\n      pop\n      jump\t// out\n        /* \"#utility.yul\":4117:4626   */\n    tag_20:\n        /* \"#utility.yul\":4186:4192   */\n      0x00\n        /* \"#utility.yul\":4235:4237   */\n      0x20\n        /* \"#utility.yul\":4223:4232   */\n      dup3\n        /* \"#utility.yul\":4214:4221   */\n      dup5\n        /* \"#utility.yul\":4210:4233   */\n      sub\n        /* \"#utility.yul\":4206:4238   */\n      slt\n        /* \"#utility.yul\":4203:4322   */\n      iszero\n      tag_116\n      jumpi\n        /* \"#utility.yul\":4241:4320   */\n      tag_117\n      tag_42\n      jump\t// in\n    tag_117:\n        /* \"#utility.yul\":4203:4322   */\n    tag_116:\n        /* \"#utility.yul\":4389:4390   */\n      0x00\n        /* \"#utility.yul\":4378:4387   */\n      dup3\n        /* \"#utility.yul\":4374:4391   */\n      add\n        /* \"#utility.yul\":4361:4392   */\n      calldataload\n        /* \"#utility.yul\":4419:4437   */\n      0xffffffffffffffff\n        /* \"#utility.yul\":4411:4417   */\n      dup2\n        /* \"#utility.yul\":4408:4438   */\n      gt\n        /* \"#utility.yul\":4405:4522   */\n      iszero\n      tag_118\n      jumpi\n        /* \"#utility.yul\":4441:4520   */\n      tag_119\n      tag_43\n      jump\t// in\n    tag_119:\n        /* \"#utility.yul\":4405:4522   */\n    tag_118:\n        /* \"#utility.yul\":4546:4609   */\n      tag_120\n        /* \"#utility.yul\":4601:4608   */\n      dup5\n        /* \"#utility.yul\":4592:4598   */\n      dup3\n        /* \"#utility.yul\":4581:4590   */\n      dup6\n        /* \"#utility.yul\":4577:4599   */\n      add\n        /* \"#utility.yul\":4546:4609   */\n      tag_52\n      jump\t// in\n    tag_120:\n        /* \"#utility.yul\":4536:4609   */\n      swap2\n      pop\n        /* \"#utility.yul\":4332:4619   */\n      pop\n        /* \"#utility.yul\":4117:4626   */\n      swap3\n      swap2\n      pop\n      pop\n      jump\t// out\n        /* \"#utility.yul\":4632:4812   */\n    tag_53:\n        /* \"#utility.yul\":4680:4757   */\n      0x4e487b7100000000000000000000000000000000000000000000000000000000\n        /* \"#utility.yul\":4677:4678   */\n      0x00\n        /* \"#utility.yul\":4670:4758   */\n      mstore\n        /* \"#utility.yul\":4777:4781   */\n      0x22\n        /* \"#utility.yul\":4774:4775   */\n      0x04\n        /* \"#utility.yul\":4767:4782   */\n      mstore\n        /* \"#utility.yul\":4801:4805   */\n      0x24\n        /* \"#utility.yul\":4798:4799   */\n      0x00\n        /* \"#utility.yul\":4791:4806   */\n      revert\n        /* \"#utility.yul\":4818:5138   */\n    tag_23:\n        /* \"#utility.yul\":4862:4868   */\n      0x00\n        /* \"#utility.yul\":4899:4900   */\n      0x02\n        /* \"#utility.yul\":4893:4897   */\n      dup3\n        /* \"#utility.yul\":4889:4901   */\n      div\n        /* \"#utility.yul\":4879:4901   */\n      swap1\n      pop\n        /* \"#utility.yul\":4946:4947   */\n      0x01\n        /* \"#utility.yul\":4940:4944   */\n      dup3\n        /* \"#utility.yul\":4936:4948   */\n      and\n        /* \"#utility.yul\":4967:4985   */\n      dup1\n        /* \"#utility.yul\":4957:5038   */\n      tag_123\n      jumpi\n        /* \"#utility.yul\":5023:5027   */\n      0x7f\n        /* \"#utility.yul\":5015:5021   */\n      dup3\n        /* \"#utility.yul\":5011:5028   */\n      and\n        /* \"#utility.yul\":5001:5028   */\n      swap2\n      pop\n        /* \"#utility.yul\":4957:5038   */\n    tag_123:\n        /* \"#utility.yul\":5085:5087   */\n      0x20\n        /* \"#utility.yul\":5077:5083   */\n      dup3\n        /* \"#utility.yul\":5074:5088   */\n      lt\n        /* \"#utility.yul\":5054:5072   */\n      dup2\n        /* \"#utility.yul\":5051:5089   */\n      sub\n        /* \"#utility.yul\":5048:5132   */\n      tag_124\n      jumpi\n        /* \"#utility.yul\":5104:5122   */\n      tag_125\n      tag_53\n      jump\t// in\n    tag_125:\n        /* \"#utility.yul\":5048:5132   */\n    tag_124:\n        /* \"#utility.yul\":4869:5138   */\n      pop\n        /* \"#utility.yul\":4818:5138   */\n      swap2\n      swap1\n      pop\n      jump\t// out\n        /* \"#utility.yul\":5144:5324   */\n    tag_54:\n        /* \"#utility.yul\":5192:5269   */\n      0x4e487b7100000000000000000000000000000000000000000000000000000000\n        /* \"#utility.yul\":5189:5190   */\n      0x00\n        /* \"#utility.yul\":5182:5270   */\n      mstore\n        /* \"#utility.yul\":5289:5293   */\n      0x11\n        /* \"#utility.yul\":5286:5287   */\n      0x04\n        /* \"#utility.yul\":5279:5294   */\n      mstore\n        /* \"#utility.yul\":5313:5317   */\n      0x24\n        /* \"#utility.yul\":5310:5311   */\n      0x00\n        /* \"#utility.yul\":5303:5318   */\n      revert\n        /* \"#utility.yul\":5330:5521   */\n    tag_30:\n        /* \"#utility.yul\":5370:5373   */\n      0x00\n        /* \"#utility.yul\":5389:5409   */\n      tag_128\n        /* \"#utility.yul\":5407:5408   */\n      dup3\n        /* \"#utility.yul\":5389:5409   */\n      tag_39\n      jump\t// in\n    tag_128:\n        /* \"#utility.yul\":5384:5409   */\n      swap2\n      pop\n        /* \"#utility.yul\":5423:5443   */\n      tag_129\n        /* \"#utility.yul\":5441:5442   */\n      dup4\n        /* \"#utility.yul\":5423:5443   */\n      tag_39\n      jump\t// in\n    tag_129:\n        /* \"#utility.yul\":5418:5443   */\n      swap3\n      pop\n        /* \"#utility.yul\":5466:5467   */\n      dup3\n        /* \"#utility.yul\":5463:5464   */\n      dup3\n        /* \"#utility.yul\":5459:5468   */\n      add\n        /* \"#utility.yul\":5452:5468   */\n      swap1\n      pop\n        /* \"#utility.yul\":5487:5490   */\n      dup1\n        /* \"#utility.yul\":5484:5485   */\n      dup3\n        /* \"#utility.yul\":5481:5491   */\n      gt\n        /* \"#utility.yul\":5478:5514   */\n      iszero\n      tag_130\n      jumpi\n        /* \"#utility.yul\":5494:5512   */\n      tag_131\n      tag_54\n      jump\t// in\n    tag_131:\n        /* \"#utility.yul\":5478:5514   */\n    tag_130:\n        /* \"#utility.yul\":5330:5521   */\n      swap3\n      swap2\n      pop\n      pop\n      jump\t// out\n        /* \"#utility.yul\":5527:5668   */\n    tag_55:\n        /* \"#utility.yul\":5576:5580   */\n      0x00\n        /* \"#utility.yul\":5599:5602   */\n      dup2\n        /* \"#utility.yul\":5591:5602   */\n      swap1\n      pop\n        /* \"#utility.yul\":5622:5625   */\n      dup2\n        /* \"#utility.yul\":5619:5620   */\n      0x00\n        /* \"#utility.yul\":5612:5626   */\n      mstore\n        /* \"#utility.yul\":5656:5660   */\n      0x20\n        /* \"#utility.yul\":5653:5654   */\n      0x00\n        /* \"#utility.yul\":5643:5661   */\n      keccak256\n        /* \"#utility.yul\":5635:5661   */\n      swap1\n      pop\n        /* \"#utility.yul\":5527:5668   */\n      swap2\n      swap1\n      pop\n      jump\t// out\n        /* \"#utility.yul\":5674:5767   */\n    tag_56:\n        /* \"#utility.yul\":5711:5717   */\n      0x00\n        /* \"#utility.yul\":5758:5760   */\n      0x20\n        /* \"#utility.yul\":5753:5755   */\n      0x1f\n        /* \"#utility.yul\":5746:5751   */\n      dup4\n        /* \"#utility.yul\":5742:5756   */\n      add\n        /* \"#utility.yul\":5738:5761   */\n      div\n        /* \"#utility.yul\":5728:5761   */\n      swap1\n      pop\n        /* \"#utility.yul\":5674:5767   */\n      swap2\n      swap1\n      pop\n      jump\t// out\n        /* \"#utility.yul\":5773:5880   */\n    tag_57:\n        /* \"#utility.yul\":5817:5825   */\n      0x00\n        /* \"#utility.yul\":5867:5872   */\n      dup3\n        /* \"#utility.yul\":5861:5865   */\n      dup3\n        /* \"#utility.yul\":5857:5873   */\n      shl\n        /* \"#utility.yul\":5836:5873   */\n      swap1\n      pop\n        /* \"#utility.yul\":5773:5880   */\n      swap3\n      swap2\n      pop\n      pop\n      jump\t// out\n        /* \"#utility.yul\":5886:6279   */\n    tag_58:\n        /* \"#utility.yul\":5955:5961   */\n      0x00\n        /* \"#utility.yul\":6005:6006   */\n      0x08\n        /* \"#utility.yul\":5993:6003   */\n      dup4\n        /* \"#utility.yul\":5989:6007   */\n      mul\n        /* \"#utility.yul\":6028:6125   */\n      tag_136\n        /* \"#utility.yul\":6058:6124   */\n      0xffffffffffffffffffffffffffffffffffffffffffffffffffffffffffffffff\n        /* \"#utility.yul\":6047:6056   */\n      dup3\n        /* \"#utility.yul\":6028:6125   */\n      tag_57\n      jump\t// in\n    tag_136:\n        /* \"#utility.yul\":6146:6185   */\n      tag_137\n        /* \"#utility.yul\":6176:6184   */\n      dup7\n        /* \"#utility.yul\":6165:6174   */\n      dup4\n        /* \"#utility.yul\":6146:6185   */\n      tag_57\n      jump\t// in\n    tag_137:\n        /* \"#utility.yul\":6134:6185   */\n      swap6\n      pop\n        /* \"#utility.yul\":6218:6222   */\n      dup1\n        /* \"#utility.yul\":6214:6223   */\n      not\n        /* \"#utility.yul\":6207:6212   */\n      dup5\n        /* \"#utility.yul\":6203:6224   */\n      and\n        /* \"#utility.yul\":6194:6224   */\n      swap4\n      pop\n        /* \"#utility.yul\":6267:6271   */\n      dup1\n        /* \"#utility.yul\":6257:6265   */\n      dup7\n        /* \"#utility.yul\":6253:6272   */\n      and\n        /* \"#utility.yul\":6246:6251   */\n      dup5\n        /* \"#utility.yul\":6243:6273   */\n      or\n        /* \"#utility.yul\":6233:6273   */\n      swap3\n      pop\n        /* \"#utility.yul\":5962:6279   */\n      pop\n      pop\n        /* \"#utility.yul\":5886:6279   */\n      swap4\n      swap3\n      pop\n      pop\n      pop\n      jump\t// out\n        /* \"#utility.yul\":6285:6345   */\n    tag_59:\n        /* \"#utility.yul\":6313:6316   */\n      0x00\n        /* \"#utility.yul\":6334:6339   */\n      dup2\n        /* \"#utility.yul\":6327:6339   */\n      swap1\n      pop\n        /* \"#utility.yul\":6285:6345   */\n      swap2\n      swap1\n      pop\n      jump\t// out\n        /* \"#utility.yul\":6351:6493   */\n    tag_60:\n        /* \"#utility.yul\":6401:6410   */\n      0x00\n        /* \"#utility.yul\":6434:6487   */\n      tag_140\n        /* \"#utility.yul\":6452:6486   */\n      tag_141\n        /* \"#utility.yul\":6461:6485   */\n      tag_142\n        /* \"#utility.yul\":6479:6484   */\n      dup5\n        /* \"#utility.yul\":6461:6485   */\n      tag_39\n      jump\t// in\n    tag_142:\n        /* \"#utility.yul\":6452:6486   */\n      tag_59\n      jump\t// in\n    tag_141:\n        /* \"#utility.yul\":6434:6487   */\n      tag_39\n      jump\t// in\n    tag_140:\n        /* \"#utility.yul\":6421:6487   */\n      swap1\n      pop\n        /* \"#utility.yul\":6351:6493   */\n      swap2\n      swap1\n      pop\n      jump\t// out\n        /* \"#utility.yul\":6499:6574   */\n    tag_61:\n        /* \"#utility.yul\":6542:6545   */\n      0x00\n        /* \"#utility.yul\":6563:6568   */\n      dup2\n        /* \"#utility.yul\":6556:6568   */\n      swap1\n      pop\n        /* \"#utility.yul\":6499:6574   */\n      swap2\n      swap1\n      pop\n      jump\t// out\n        /* \"#utility.yul\":6580:6849   */\n    tag_62:\n        /* \"#utility.yul\":6690:6729   */\n      tag_145\n        /* \"#utility.yul\":6721:6728   */\n      dup4\n        /* \"#utility.yul\":6690:6729   */\n      tag_60\n      jump\t// in\n    tag_145:\n        /* \"#utility.yul\":6751:6842   */\n      tag_146\n        /* \"#utility.yul\":6800:6841   */\n      tag_147\n        /* \"#utility.yul\":6824:6840   */\n      dup3\n        /* \"#utility.yul\":6800:6841   */\n      tag_61\n      jump\t// in\n    tag_147:\n        /* \"#utility.yul\":6792:6798   */\n      dup5\n        /* \"#utility.yul\":6785:6789   */\n      dup5\n        /* \"#utility.yul\":6779:6790   */\n      sload\n        /* \"#utility.yul\":6751:6842   */\n      tag_58\n      jump\t// in\n    tag_146:\n        /* \"#utility.yul\":6745:6749   */\n      dup3\n        /* \"#utility.yul\":6738:6843   */\n      sstore\n        /* \"#utility.yul\":6656:6849   */\n      pop\n        /* \"#utility.yul\":6580:6849   */\n      pop\n      pop\n      pop\n      jump\t// out\n        /* \"#utility.yul\":6855:6928   */\n    tag_63:\n        /* \"#utility.yul\":6900:6903   */\n      0x00\n        /* \"#utility.yul\":6921:6922   */\n      0x00\n        /* \"#utility.yul\":6914:6922   */\n      swap1\n      pop\n        /* \"#utility.yul\":6855:6928   */\n      swap1\n      jump\t// out\n        /* \"#utility.yul\":6934:7123   */\n    tag_64:\n        /* \"#utility.yul\":7011:7043   */\n      tag_150\n      tag_63\n      jump\t// in\n    tag_150:\n        /* \"#utility.yul\":7052:7117   */\n      tag_151\n        /* \"#utility.yul\":7110:7116   */\n      dup2\n        /* \"#utility.yul\":7102:7108   */\n      dup5\n        /* \"#utility.yul\":7096:7100   */\n      dup5\n        /* \"#utility.yul\":7052:7117   */\n      tag_62\n      jump\t// in\n    tag_151:\n        /* \"#utility.yul\":6987:7123   */\n      pop\n        /* \"#utility.yul\":6934:7123   */\n      pop\n      pop\n      jump\t// out\n        /* \"#utility.yul\":7129:7315   */\n    tag_65:\n        /* \"#utility.yul\":7189:7309   */\n    tag_153:\n        /* \"#utility.yul\":7206:7209   */\n      dup2\n        /* \"#utility.yul\":7199:7204   */\n      dup2\n        /* \"#utility.yul\":7196:7210   */\n      lt\n        /* \"#utility.yul\":7189:7309   */\n      iszero\n      tag_155\n      jumpi\n        /* \"#utility.yul\":7260:7299   */\n      tag_156\n        /* \"#utility.yul\":7297:7298   */\n      0x00\n        /* \"#utility.yul\":7290:7295   */\n      dup3\n        /* \"#utility.yul\":7260:7299   */\n      tag_64\n      jump\t// in\n    tag_156:\n        /* \"#utility.yul\":7233:7234   */\n      0x01\n        /* \"#utility.yul\":7226:7231   */\n      dup2\n        /* \"#utility.yul\":7222:7235   */\n      add\n        /* \"#utility.yul\":7213:7235   */\n      swap1\n      pop\n        /* \"#utility.yul\":7189:7309   */\n      jump(tag_153)\n    tag_155:\n        /* \"#utility.yul\":7129:7315   */\n      pop\n      pop\n      jump\t// out\n        /* \"#utility.yul\":7321:7864   */\n    tag_66:\n        /* \"#utility.yul\":7422:7424   */\n      0x1f\n        /* \"#utility.yul\":7417:7420   */\n      dup3\n        /* \"#utility.yul\":7414:7425   */\n      gt\n        /* \"#utility.yul\":7411:7857   */\n      iszero\n      tag_158\n      jumpi\n        /* \"#utility.yul\":7456:7494   */\n      tag_159\n        /* \"#utility.yul\":7488:7493   */\n      dup2\n        /* \"#utility.yul\":7456:7494   */\n      tag_55\n      jump\t// in\n    tag_159:\n        /* \"#utility.yul\":7540:7569   */\n      tag_160\n        /* \"#utility.yul\":7558:7568   */\n      dup5\n        /* \"#utility.yul\":7540:7569   */\n      tag_56\n      jump\t// in\n    tag_160:\n        /* \"#utility.yul\":7530:7538   */\n      dup2\n        /* \"#utility.yul\":7526:7570   */\n      add\n        /* \"#utility.yul\":7723:7725   */\n      0x20\n        /* \"#utility.yul\":7711:7721   */\n      dup6\n        /* \"#utility.yul\":7708:7726   */\n      lt\n        /* \"#utility.yul\":7705:7754   */\n      iszero\n      tag_161\n      jumpi\n        /* \"#utility.yul\":7744:7752   */\n      dup2\n        /* \"#utility.yul\":7729:7752   */\n      swap1\n      pop\n        /* \"#utility.yul\":7705:7754   */\n    tag_161:\n        /* \"#utility.yul\":7767:7847   */\n      tag_162\n        /* \"#utility.yul\":7823:7845   */\n      tag_163\n        /* \"#utility.yul\":7841:7844   */\n      dup6\n        /* \"#utility.yul\":7823:7845   */\n      tag_56\n      jump\t// in\n    tag_163:\n        /* \"#utility.yul\":7813:7821   */\n      dup4\n        /* \"#utility.yul\":7809:7846   */\n      add\n        /* \"#utility.yul\":7796:7807   */\n      dup3\n        /* \"#utility.yul\":7767:7847   */\n      tag_65\n      jump\t// in\n    tag_162:\n        /* \"#utility.yul\":7426:7857   */\n      pop\n      pop\n        /* \"#utility.yul\":7411:7857   */\n    tag_158:\n        /* \"#utility.yul\":7321:7864   */\n      pop\n      pop\n      pop\n      jump\t// out\n        /* \"#utility.yul\":7870:7987   */\n    tag_67:\n        /* \"#utility.yul\":7924:7932   */\n      0x00\n        /* \"#utility.yul\":7974:7979   */\n      dup3\n        /* \"#utility.yul\":7968:7972   */\n      dup3\n        /* \"#utility.yul\":7964:7980   */\n      shr\n        /* \"#utility.yul\":7943:7980   */\n      swap1\n      pop\n        /* \"#utility.yul\":7870:7987   */\n      swap3\n      swap2\n      pop\n      pop\n      jump\t// out\n        /* \"#utility.yul\":7993:8162   */\n    tag_68:\n        /* \"#utility.yul\":8037:8043   */\n      0x00\n        /* \"#utility.yul\":8070:8121   */\n      tag_166\n        /* \"#utility.yul\":8118:8119   */\n      0x00\n        /* \"#utility.yul\":8114:8120   */\n      not\n        /* \"#utility.yul\":8106:8111   */\n      dup5\n        /* \"#utility.yul\":8103:8104   */\n      0x08\n        /* \"#utility.yul\":8099:8112   */\n      mul\n        /* \"#utility.yul\":8070:8121   */\n      tag_67\n      jump\t// in\n    tag_166:\n        /* \"#utility.yul\":8066:8122   */\n      not\n        /* \"#utility.yul\":8151:8155   */\n      dup1\n        /* \"#utility.yul\":8145:8149   */\n      dup4\n        /* \"#utility.yul\":8141:8156   */\n      and\n        /* \"#utility.yul\":8131:8156   */\n      swap2\n      pop\n        /* \"#utility.yul\":8044:8162   */\n      pop\n        /* \"#utility.yul\":7993:8162   */\n      swap3\n      swap2\n      pop\n      pop\n      jump\t// out\n        /* \"#utility.yul\":8167:8462   */\n    tag_69:\n        /* \"#utility.yul\":8243:8247   */\n      0x00\n        /* \"#utility.yul\":8389:8418   */\n      tag_168\n        /* \"#utility.yul\":8414:8417   */\n      dup4\n        /* \"#utility.yul\":8408:8412   */\n      dup4\n        /* \"#utility.yul\":8389:8418   */\n      tag_68\n      jump\t// in\n    tag_168:\n        /* \"#utility.yul\":8381:8418   */\n      swap2\n      pop\n        /* \"#utility.yul\":8451:8454   */\n      dup3\n        /* \"#utility.yul\":8448:8449   */\n      0x02\n        /* \"#utility.yul\":8444:8455   */\n      mul\n        /* \"#utility.yul\":8438:8442   */\n      dup3\n        /* \"#utility.yul\":8435:8456   */\n      or\n        /* \"#utility.yul\":8427:8456   */\n      swap1\n      pop\n        /* \"#utility.yul\":8167:8462   */\n      swap3\n      swap2\n      pop\n      pop\n      jump\t// out\n        /* \"#utility.yul\":8467:9862   */\n    tag_33:\n        /* \"#utility.yul\":8584:8621   */\n      tag_170\n        /* \"#utility.yul\":8617:8620   */\n      dup3\n        /* \"#utility.yul\":8584:8621   */\n      tag_34\n      jump\t// in\n    tag_170:\n        /* \"#utility.yul\":8686:8704   */\n      0xffffffffffffffff\n        /* \"#utility.yul\":8678:8684   */\n      dup2\n        /* \"#utility.yul\":8675:8705   */\n      gt\n        /* \"#utility.yul\":8672:8728   */\n      iszero\n      tag_171\n      jumpi\n        /* \"#utility.yul\":8708:8726   */\n      tag_172\n      tag_46\n      jump\t// in\n    tag_172:\n        /* \"#utility.yul\":8672:8728   */\n    tag_171:\n        /* \"#utility.yul\":8752:8790   */\n      tag_173\n        /* \"#utility.yul\":8784:8788   */\n      dup3\n        /* \"#utility.yul\":8778:8789   */\n      sload\n        /* \"#utility.yul\":8752:8790   */\n      tag_23\n      jump\t// in\n    tag_173:\n        /* \"#utility.yul\":8837:8904   */\n      tag_174\n        /* \"#utility.yul\":8897:8903   */\n      dup3\n        /* \"#utility.yul\":8889:8895   */\n      dup3\n        /* \"#utility.yul\":8883:8887   */\n      dup6\n        /* \"#utility.yul\":8837:8904   */\n      tag_66\n      jump\t// in\n    tag_174:\n        /* \"#utility.yul\":8931:8932   */\n      0x00\n        /* \"#utility.yul\":8955:8959   */\n      0x20\n        /* \"#utility.yul\":8942:8959   */\n      swap1\n      pop\n        /* \"#utility.yul\":8987:8989   */\n      0x1f\n        /* \"#utility.yul\":8979:8985   */\n      dup4\n        /* \"#utility.yul\":8976:8990   */\n      gt\n        /* \"#utility.yul\":9004:9005   */\n      0x01\n        /* \"#utility.yul\":8999:9617   */\n      dup2\n      eq\n      tag_176\n      jumpi\n        /* \"#utility.yul\":9661:9662   */\n      0x00\n        /* \"#utility.yul\":9678:9684   */\n      dup5\n        /* \"#utility.yul\":9675:9752   */\n      iszero\n      tag_177\n      jumpi\n        /* \"#utility.yul\":9727:9736   */\n      dup3\n        /* \"#utility.yul\":9722:9725   */\n      dup8\n        /* \"#utility.yul\":9718:9737   */\n      add\n        /* \"#utility.yul\":9712:9738   */\n      mload\n        /* \"#utility.yul\":9703:9738   */\n      swap1\n      pop\n        /* \"#utility.yul\":9675:9752   */\n    tag_177:\n        /* \"#utility.yul\":9778:9845   */\n      tag_178\n        /* \"#utility.yul\":9838:9844   */\n      dup6\n        /* \"#utility.yul\":9831:9836   */\n      dup3\n        /* \"#utility.yul\":9778:9845   */\n      tag_69\n      jump\t// in\n    tag_178:\n        /* \"#utility.yul\":9772:9776   */\n      dup7\n        /* \"#utility.yul\":9765:9846   */\n      sstore\n        /* \"#utility.yul\":9634:9856   */\n      pop\n        /* \"#utility.yul\":8969:9856   */\n      jump(tag_175)\n        /* \"#utility.yul\":8999:9617   */\n    tag_176:\n        /* \"#utility.yul\":9051:9055   */\n      0x1f\n        /* \"#utility.yul\":9047:9056   */\n      not\n        /* \"#utility.yul\":9039:9045   */\n      dup5\n        /* \"#utility.yul\":9035:9057   */\n      and\n        /* \"#utility.yul\":9085:9122   */\n      tag_179\n        /* \"#utility.yul\":9117:9121   */\n      dup7\n        /* \"#utility.yul\":9085:9122   */\n      tag_55\n      jump\t// in\n    tag_179:\n        /* \"#utility.yul\":9144:9145   */\n      0x00\n        /* \"#utility.yul\":9158:9366   */\n    tag_180:\n        /* \"#utility.yul\":9172:9179   */\n      dup3\n        /* \"#utility.yul\":9169:9170   */\n      dup2\n        /* \"#utility.yul\":9166:9180   */\n      lt\n        /* \"#utility.yul\":9158:9366   */\n      iszero\n      tag_182\n      jumpi\n        /* \"#utility.yul\":9251:9260   */\n      dup5\n        /* \"#utility.yul\":9246:9249   */\n      dup10\n        /* \"#utility.yul\":9242:9261   */\n      add\n        /* \"#utility.yul\":9236:9262   */\n      mload\n        /* \"#utility.yul\":9228:9234   */\n      dup3\n        /* \"#utility.yul\":9221:9263   */\n      sstore\n        /* \"#utility.yul\":9302:9303   */\n      0x01\n        /* \"#utility.yul\":9294:9300   */\n      dup3\n        /* \"#utility.yul\":9290:9304   */\n      add\n        /* \"#utility.yul\":9280:9304   */\n      swap2\n      pop\n        /* \"#utility.yul\":9349:9351   */\n      0x20\n        /* \"#utility.yul\":9338:9347   */\n      dup6\n        /* \"#utility.yul\":9334:9352   */\n      add\n        /* \"#utility.yul\":9321:9352   */\n      swap5\n      pop\n        /* \"#utility.yul\":9195:9199   */\n      0x20\n        /* \"#utility.yul\":9192:9193   */\n      dup2\n        /* \"#utility.yul\":9188:9200   */\n      add\n        /* \"#utility.yul\":9183:9200   */\n      swap1\n      pop\n        /* \"#utility.yul\":9158:9366   */\n      jump(tag_180)\n    tag_182:\n        /* \"#utility.yul\":9394:9400   */\n      dup7\n        /* \"#utility.yul\":9385:9392   */\n      dup4\n        /* \"#utility.yul\":9382:9401   */\n      lt\n        /* \"#utility.yul\":9379:9558   */\n      iszero\n      tag_183\n      jumpi\n        /* \"#utility.yul\":9452:9461   */\n      dup5\n        /* \"#utility.yul\":9447:9450   */\n      dup10\n        /* \"#utility.yul\":9443:9462   */\n      add\n        /* \"#utility.yul\":9437:9463   */\n      mload\n        /* \"#utility.yul\":9495:9543   */\n      tag_184\n        /* \"#utility.yul\":9537:9541   */\n      0x1f\n        /* \"#utility.yul\":9529:9535   */\n      dup10\n        /* \"#utility.yul\":9525:9542   */\n      and\n        /* \"#utility.yul\":9514:9523   */\n      dup3\n        /* \"#utility.yul\":9495:9543   */\n      tag_68\n      jump\t// in\n    tag_184:\n        /* \"#utility.yul\":9487:9493   */\n      dup4\n        /* \"#utility.yul\":9480:9544   */\n      sstore\n        /* \"#utility.yul\":9402:9558   */\n      pop\n        /* \"#utility.yul\":9379:9558   */\n    tag_183:\n        /* \"#utility.yul\":9604:9605   */\n      0x01\n        /* \"#utility.yul\":9600:9601   */\n      0x02\n        /* \"#utility.yul\":9592:9598   */\n      dup9\n        /* \"#utility.yul\":9588:9602   */\n      mul\n        /* \"#utility.yul\":9584:9606   */\n      add\n        /* \"#utility.yul\":9578:9582   */\n      dup9\n        /* \"#utility.yul\":9571:9607   */\n      sstore\n        /* \"#utility.yul\":9006:9617   */\n      pop\n      pop\n      pop\n        /* \"#utility.yul\":8969:9856   */\n    tag_175:\n      pop\n        /* \"#utility.yul\":8559:9862   */\n      pop\n      pop\n      pop\n        /* \"#utility.yul\":8467:9862   */\n      pop\n      pop\n      jump\t// out\n\n    auxdata: 0xa26469706673582212206b42d9a6eb43fe900b8540716ddb7c80e46004b4ce704d3dce80c74dd05013cb64736f6c634300081e0033\n}\n",
				"bytecode": {
					"linkReferences": {},
					"object": "608060405234801561000f575f5ffd5b50600a5f819055506040518060400160405280600b81526020017f44656661756c744e616d650000000000000000000000000000000000000000008152506001908161005b919061029e565b5061036d565b5f81519050919050565b7f4e487b71000000000000000000000000000000000000000000000000000000005f52604160045260245ffd5b7f4e487b71000000000000000000000000000000000000000000000000000000005f52602260045260245ffd5b5f60028204905060018216806100dc57607f821691505b6020821081036100ef576100ee610098565b5b50919050565b5f819050815f5260205f209050919050565b5f6020601f8301049050919050565b5f82821b905092915050565b5f600883026101517fffffffffffffffffffffffffffffffffffffffffffffffffffffffffffffffff82610116565b61015b8683610116565b95508019841693508086168417925050509392505050565b5f819050919050565b5f819050919050565b5f61019f61019a61019584610173565b61017c565b610173565b9050919050565b5f819050919050565b6101b883610185565b6101cc6101c4826101a6565b848454610122565b825550505050565b5f5f905090565b6101e36101d4565b6101ee8184846101af565b505050565b5b81811015610211576102065f826101db565b6001810190506101f4565b5050565b601f82111561025657610227816100f5565b61023084610107565b8101602085101561023f578190505b61025361024b85610107565b8301826101f3565b50505b505050565b5f82821c905092915050565b5f6102765f198460080261025b565b1980831691505092915050565b5f61028e8383610267565b9150826002028217905092915050565b6102a782610061565b67ffffffffffffffff8111156102c0576102bf61006b565b5b6102ca82546100c5565b6102d5828285610215565b5f60209050601f831160018114610306575f84156102f4578287015190505b6102fe8582610283565b865550610365565b601f198416610314866100f5565b5f5b8281101561033b57848901518255600182019150602085019450602081019050610316565b868310156103585784890151610354601f891682610267565b8355505b6001600288020188555050505b505050505050565b61072f8061037a5f395ff3fe608060405234801561000f575f5ffd5b506004361061004a575f3560e01c806306fdde031461004e578063262a9dff1461006c578063457676ee1461008a578063c47f0027146100a8575b5f5ffd5b6100566100c4565b60405161006391906101f8565b60405180910390f35b610074610150565b6040516100819190610230565b60405180910390f35b610092610155565b60405161009f9190610230565b60405180910390f35b6100c260048036038101906100bd9190610386565b610175565b005b600180546100d1906103fa565b80601f01602080910402602001604051908101604052809291908181526020018280546100fd906103fa565b80156101485780601f1061011f57610100808354040283529160200191610148565b820191905f5260205f20905b81548152906001019060200180831161012b57829003601f168201915b505050505081565b5f5481565b5f60015f5f8282546101679190610457565b925050819055505f54905090565b8060019081610184919061062a565b5050565b5f81519050919050565b5f82825260208201905092915050565b8281835e5f83830152505050565b5f601f19601f8301169050919050565b5f6101ca82610188565b6101d48185610192565b93506101e48185602086016101a2565b6101ed816101b0565b840191505092915050565b5f6020820190508181035f83015261021081846101c0565b905092915050565b5f819050919050565b61022a81610218565b82525050565b5f6020820190506102435f830184610221565b92915050565b5f604051905090565b5f5ffd5b5f5ffd5b5f5ffd5b5f5ffd5b7f4e487b71000000000000000000000000000000000000000000000000000000005f52604160045260245ffd5b610298826101b0565b810181811067ffffffffffffffff821117156102b7576102b6610262565b5b80604052505050565b5f6102c9610249565b90506102d5828261028f565b919050565b5f67ffffffffffffffff8211156102f4576102f3610262565b5b6102fd826101b0565b9050602081019050919050565b828183375f83830152505050565b5f61032a610325846102da565b6102c0565b9050828152602081018484840111156103465761034561025e565b5b61035184828561030a565b509392505050565b5f82601f83011261036d5761036c61025a565b5b813561037d848260208601610318565b91505092915050565b5f6020828403121561039b5761039a610252565b5b5f82013567ffffffffffffffff8111156103b8576103b7610256565b5b6103c484828501610359565b91505092915050565b7f4e487b71000000000000000000000000000000000000000000000000000000005f52602260045260245ffd5b5f600282049050600182168061041157607f821691505b602082108103610424576104236103cd565b5b50919050565b7f4e487b71000000000000000000000000000000000000000000000000000000005f52601160045260245ffd5b5f61046182610218565b915061046c83610218565b92508282019050808211156104845761048361042a565b5b92915050565b5f819050815f5260205f209050919050565b5f6020601f8301049050919050565b5f82821b905092915050565b5f600883026104e67fffffffffffffffffffffffffffffffffffffffffffffffffffffffffffffffff826104ab565b6104f086836104ab565b95508019841693508086168417925050509392505050565b5f819050919050565b5f61052b61052661052184610218565b610508565b610218565b9050919050565b5f819050919050565b61054483610511565b61055861055082610532565b8484546104b7565b825550505050565b5f5f905090565b61056f610560565b61057a81848461053b565b505050565b5b8181101561059d576105925f82610567565b600181019050610580565b5050565b601f8211156105e2576105b38161048a565b6105bc8461049c565b810160208510156105cb578190505b6105df6105d78561049c565b83018261057f565b50505b505050565b5f82821c905092915050565b5f6106025f19846008026105e7565b1980831691505092915050565b5f61061a83836105f3565b9150826002028217905092915050565b61063382610188565b67ffffffffffffffff81111561064c5761064b610262565b5b61065682546103fa565b6106618282856105a1565b5f60209050601f831160018114610692575f8415610680578287015190505b61068a858261060f565b8655506106f1565b601f1984166106a08661048a565b5f5b828110156106c7578489015182556001820191506020850194506020810190506106a2565b868310156106e457848901516106e0601f8916826105f3565b8355505b6001600288020188555050505b50505050505056fea26469706673582212206b42d9a6eb43fe900b8540716ddb7c80e46004b4ce704d3dce80c74dd05013cb64736f6c634300081e0033",
					"opcodes": "PUSH1 0x80 PUSH1 0x40 MSTORE CALLVALUE DUP1 ISZERO PUSH2 0xF JUMPI PUSH0 PUSH0 REVERT JUMPDEST POP PUSH1 0xA PUSH0 DUP2 SWAP1 SSTORE POP PUSH1 0x40 MLOAD DUP1 PUSH1 0x40 ADD PUSH1 0x40 MSTORE DUP1 PUSH1 0xB DUP2 MSTORE PUSH1 0x20 ADD PUSH32 0x44656661756C744E616D65000000000000000000000000000000000000000000 DUP2 MSTORE POP PUSH1 0x1 SWAP1 DUP2 PUSH2 0x5B SWAP2 SWAP1 PUSH2 0x29E JUMP JUMPDEST POP PUSH2 0x36D JUMP JUMPDEST PUSH0 DUP2 MLOAD SWAP1 POP SWAP2 SWAP1 POP JUMP JUMPDEST PUSH32 0x4E487B7100000000000000000000000000000000000000000000000000000000 PUSH0 MSTORE PUSH1 0x41 PUSH1 0x4 MSTORE PUSH1 0x24 PUSH0 REVERT JUMPDEST PUSH32 0x4E487B7100000000000000000000000000000000000000000000000000000000 PUSH0 MSTORE PUSH1 0x22 PUSH1 0x4 MSTORE PUSH1 0x24 PUSH0 REVERT JUMPDEST PUSH0 PUSH1 0x2 DUP3 DIV SWAP1 POP PUSH1 0x1 DUP3 AND DUP1 PUSH2 0xDC JUMPI PUSH1 0x7F DUP3 AND SWAP2 POP JUMPDEST PUSH1 0x20 DUP3 LT DUP2 SUB PUSH2 0xEF JUMPI PUSH2 0xEE PUSH2 0x98 JUMP JUMPDEST JUMPDEST POP SWAP2 SWAP1 POP JUMP JUMPDEST PUSH0 DUP2 SWAP1 POP DUP2 PUSH0 MSTORE PUSH1 0x20 PUSH0 KECCAK256 SWAP1 POP SWAP2 SWAP1 POP JUMP JUMPDEST PUSH0 PUSH1 0x20 PUSH1 0x1F DUP4 ADD DIV SWAP1 POP SWAP2 SWAP1 POP JUMP JUMPDEST PUSH0 DUP3 DUP3 SHL SWAP1 POP SWAP3 SWAP2 POP POP JUMP JUMPDEST PUSH0 PUSH1 0x8 DUP4 MUL PUSH2 0x151 PUSH32 0xFFFFFFFFFFFFFFFFFFFFFFFFFFFFFFFFFFFFFFFFFFFFFFFFFFFFFFFFFFFFFFFF DUP3 PUSH2 0x116 JUMP JUMPDEST PUSH2 0x15B DUP7 DUP4 PUSH2 0x116 JUMP JUMPDEST SWAP6 POP DUP1 NOT DUP5 AND SWAP4 POP DUP1 DUP7 AND DUP5 OR SWAP3 POP POP POP SWAP4 SWAP3 POP POP POP JUMP JUMPDEST PUSH0 DUP2 SWAP1 POP SWAP2 SWAP1 POP JUMP JUMPDEST PUSH0 DUP2 SWAP1 POP SWAP2 SWAP1 POP JUMP JUMPDEST PUSH0 PUSH2 0x19F PUSH2 0x19A PUSH2 0x195 DUP5 PUSH2 0x173 JUMP JUMPDEST PUSH2 0x17C JUMP JUMPDEST PUSH2 0x173 JUMP JUMPDEST SWAP1 POP SWAP2 SWAP1 POP JUMP JUMPDEST PUSH0 DUP2 SWAP1 POP SWAP2 SWAP1 POP JUMP JUMPDEST PUSH2 0x1B8 DUP4 PUSH2 0x185 JUMP JUMPDEST PUSH2 0x1CC PUSH2 0x1C4 DUP3 PUSH2 0x1A6 JUMP JUMPDEST DUP5 DUP5 SLOAD PUSH2 0x122 JUMP JUMPDEST DUP3 SSTORE POP POP POP POP JUMP JUMPDEST PUSH0 PUSH0 SWAP1 POP SWAP1 JUMP JUMPDEST PUSH2 0x1E3 PUSH2 0x1D4 JUMP JUMPDEST PUSH2 0x1EE DUP2 DUP5 DUP5 PUSH2 0x1AF JUMP JUMPDEST POP POP POP JUMP JUMPDEST JUMPDEST DUP2 DUP2 LT ISZERO PUSH2 0x211 JUMPI PUSH2 0x206 PUSH0 DUP3 PUSH2 0x1DB JUMP JUMPDEST PUSH1 0x1 DUP2 ADD SWAP1 POP PUSH2 0x1F4 JUMP JUMPDEST POP POP JUMP JUMPDEST PUSH1 0x1F DUP3 GT ISZERO PUSH2 0x256 JUMPI PUSH2 0x227 DUP2 PUSH2 0xF5 JUMP JUMPDEST PUSH2 0x230 DUP5 PUSH2 0x107 JUMP JUMPDEST DUP2 ADD PUSH1 0x20 DUP6 LT ISZERO PUSH2 0x23F JUMPI DUP2 SWAP1 POP JUMPDEST PUSH2 0x253 PUSH2 0x24B DUP6 PUSH2 0x107 JUMP JUMPDEST DUP4 ADD DUP3 PUSH2 0x1F3 JUMP JUMPDEST POP POP JUMPDEST POP POP POP JUMP JUMPDEST PUSH0 DUP3 DUP3 SHR SWAP1 POP SWAP3 SWAP2 POP POP JUMP JUMPDEST PUSH0 PUSH2 0x276 PUSH0 NOT DUP5 PUSH1 0x8 MUL PUSH2 0x25B JUMP JUMPDEST NOT DUP1 DUP4 AND SWAP2 POP POP SWAP3 SWAP2 POP POP JUMP JUMPDEST PUSH0 PUSH2 0x28E DUP4 DUP4 PUSH2 0x267 JUMP JUMPDEST SWAP2 POP DUP3 PUSH1 0x2 MUL DUP3 OR SWAP1 POP SWAP3 SWAP2 POP POP JUMP JUMPDEST PUSH2 0x2A7 DUP3 PUSH2 0x61 JUMP JUMPDEST PUSH8 0xFFFFFFFFFFFFFFFF DUP2 GT ISZERO PUSH2 0x2C0 JUMPI PUSH2 0x2BF PUSH2 0x6B JUMP JUMPDEST JUMPDEST PUSH2 0x2CA DUP3 SLOAD PUSH2 0xC5 JUMP JUMPDEST PUSH2 0x2D5 DUP3 DUP3 DUP6 PUSH2 0x215 JUMP JUMPDEST PUSH0 PUSH1 0x20 SWAP1 POP PUSH1 0x1F DUP4 GT PUSH1 0x1 DUP2 EQ PUSH2 0x306 JUMPI PUSH0 DUP5 ISZERO PUSH2 0x2F4 JUMPI DUP3 DUP8 ADD MLOAD SWAP1 POP JUMPDEST PUSH2 0x2FE DUP6 DUP3 PUSH2 0x283 JUMP JUMPDEST DUP7 SSTORE POP PUSH2 0x365 JUMP JUMPDEST PUSH1 0x1F NOT DUP5 AND PUSH2 0x314 DUP7 PUSH2 0xF5 JUMP JUMPDEST PUSH0 JUMPDEST DUP3 DUP2 LT ISZERO PUSH2 0x33B JUMPI DUP5 DUP10 ADD MLOAD DUP3 SSTORE PUSH1 0x1 DUP3 ADD SWAP2 POP PUSH1 0x20 DUP6 ADD SWAP5 POP PUSH1 0x20 DUP2 ADD SWAP1 POP PUSH2 0x316 JUMP JUMPDEST DUP7 DUP4 LT ISZERO PUSH2 0x358 JUMPI DUP5 DUP10 ADD MLOAD PUSH2 0x354 PUSH1 0x1F DUP10 AND DUP3 PUSH2 0x267 JUMP JUMPDEST DUP4 SSTORE POP JUMPDEST PUSH1 0x1 PUSH1 0x2 DUP9 MUL ADD DUP9 SSTORE POP POP POP JUMPDEST POP POP POP POP POP POP JUMP JUMPDEST PUSH2 0x72F DUP1 PUSH2 0x37A PUSH0 CODECOPY PUSH0 RETURN INVALID PUSH1 0x80 PUSH1 0x40 MSTORE CALLVALUE DUP1 ISZERO PUSH2 0xF JUMPI PUSH0 PUSH0 REVERT JUMPDEST POP PUSH1 0x4 CALLDATASIZE LT PUSH2 0x4A JUMPI PUSH0 CALLDATALOAD PUSH1 0xE0 SHR DUP1 PUSH4 0x6FDDE03 EQ PUSH2 0x4E JUMPI DUP1 PUSH4 0x262A9DFF EQ PUSH2 0x6C JUMPI DUP1 PUSH4 0x457676EE EQ PUSH2 0x8A JUMPI DUP1 PUSH4 0xC47F0027 EQ PUSH2 0xA8 JUMPI JUMPDEST PUSH0 PUSH0 REVERT JUMPDEST PUSH2 0x56 PUSH2 0xC4 JUMP JUMPDEST PUSH1 0x40 MLOAD PUSH2 0x63 SWAP2 SWAP1 PUSH2 0x1F8 JUMP JUMPDEST PUSH1 0x40 MLOAD DUP1 SWAP2 SUB SWAP1 RETURN JUMPDEST PUSH2 0x74 PUSH2 0x150 JUMP JUMPDEST PUSH1 0x40 MLOAD PUSH2 0x81 SWAP2 SWAP1 PUSH2 0x230 JUMP JUMPDEST PUSH1 0x40 MLOAD DUP1 SWAP2 SUB SWAP1 RETURN JUMPDEST PUSH2 0x92 PUSH2 0x155 JUMP JUMPDEST PUSH1 0x40 MLOAD PUSH2 0x9F SWAP2 SWAP1 PUSH2 0x230 JUMP JUMPDEST PUSH1 0x40 MLOAD DUP1 SWAP2 SUB SWAP1 RETURN JUMPDEST PUSH2 0xC2 PUSH1 0x4 DUP1 CALLDATASIZE SUB DUP2 ADD SWAP1 PUSH2 0xBD SWAP2 SWAP1 PUSH2 0x386 JUMP JUMPDEST PUSH2 0x175 JUMP JUMPDEST STOP JUMPDEST PUSH1 0x1 DUP1 SLOAD PUSH2 0xD1 SWAP1 PUSH2 0x3FA JUMP JUMPDEST DUP1 PUSH1 0x1F ADD PUSH1 0x20 DUP1 SWAP2 DIV MUL PUSH1 0x20 ADD PUSH1 0x40 MLOAD SWAP1 DUP2 ADD PUSH1 0x40 MSTORE DUP1 SWAP3 SWAP2 SWAP1 DUP2 DUP2 MSTORE PUSH1 0x20 ADD DUP3 DUP1 SLOAD PUSH2 0xFD SWAP1 PUSH2 0x3FA JUMP JUMPDEST DUP1 ISZERO PUSH2 0x148 JUMPI DUP1 PUSH1 0x1F LT PUSH2 0x11F JUMPI PUSH2 0x100 DUP1 DUP4 SLOAD DIV MUL DUP4 MSTORE SWAP2 PUSH1 0x20 ADD SWAP2 PUSH2 0x148 JUMP JUMPDEST DUP3 ADD SWAP2 SWAP1 PUSH0 MSTORE PUSH1 0x20 PUSH0 KECCAK256 SWAP1 JUMPDEST DUP2 SLOAD DUP2 MSTORE SWAP1 PUSH1 0x1 ADD SWAP1 PUSH1 0x20 ADD DUP1 DUP4 GT PUSH2 0x12B JUMPI DUP3 SWAP1 SUB PUSH1 0x1F AND DUP3 ADD SWAP2 JUMPDEST POP POP POP POP POP DUP2 JUMP JUMPDEST PUSH0 SLOAD DUP2 JUMP JUMPDEST PUSH0 PUSH1 0x1 PUSH0 PUSH0 DUP3 DUP3 SLOAD PUSH2 0x167 SWAP2 SWAP1 PUSH2 0x457 JUMP JUMPDEST SWAP3 POP POP DUP2 SWAP1 SSTORE POP PUSH0 SLOAD SWAP1 POP SWAP1 JUMP JUMPDEST DUP1 PUSH1 0x1 SWAP1 DUP2 PUSH2 0x184 SWAP2 SWAP1 PUSH2 0x62A JUMP JUMPDEST POP POP JUMP JUMPDEST PUSH0 DUP2 MLOAD SWAP1 POP SWAP2 SWAP1 POP JUMP JUMPDEST PUSH0 DUP3 DUP3 MSTORE PUSH1 0x20 DUP3 ADD SWAP1 POP SWAP3 SWAP2 POP POP JUMP JUMPDEST DUP3 DUP2 DUP4 MCOPY PUSH0 DUP4 DUP4 ADD MSTORE POP POP POP JUMP JUMPDEST PUSH0 PUSH1 0x1F NOT PUSH1 0x1F DUP4 ADD AND SWAP1 POP SWAP2 SWAP1 POP JUMP JUMPDEST PUSH0 PUSH2 0x1CA DUP3 PUSH2 0x188 JUMP JUMPDEST PUSH2 0x1D4 DUP2 DUP6 PUSH2 0x192 JUMP JUMPDEST SWAP4 POP PUSH2 0x1E4 DUP2 DUP6 PUSH1 0x20 DUP7 ADD PUSH2 0x1A2 JUMP JUMPDEST PUSH2 0x1ED DUP2 PUSH2 0x1B0 JUMP JUMPDEST DUP5 ADD SWAP2 POP POP SWAP3 SWAP2 POP POP JUMP JUMPDEST PUSH0 PUSH1 0x20 DUP3 ADD SWAP1 POP DUP2 DUP2 SUB PUSH0 DUP4 ADD MSTORE PUSH2 0x210 DUP2 DUP5 PUSH2 0x1C0 JUMP JUMPDEST SWAP1 POP SWAP3 SWAP2 POP POP JUMP JUMPDEST PUSH0 DUP2 SWAP1 POP SWAP2 SWAP1 POP JUMP JUMPDEST PUSH2 0x22A DUP2 PUSH2 0x218 JUMP JUMPDEST DUP3 MSTORE POP POP JUMP JUMPDEST PUSH0 PUSH1 0x20 DUP3 ADD SWAP1 POP PUSH2 0x243 PUSH0 DUP4 ADD DUP5 PUSH2 0x221 JUMP JUMPDEST SWAP3 SWAP2 POP POP JUMP JUMPDEST PUSH0 PUSH1 0x40 MLOAD SWAP1 POP SWAP1 JUMP JUMPDEST PUSH0 PUSH0 REVERT JUMPDEST PUSH0 PUSH0 REVERT JUMPDEST PUSH0 PUSH0 REVERT JUMPDEST PUSH0 PUSH0 REVERT JUMPDEST PUSH32 0x4E487B7100000000000000000000000000000000000000000000000000000000 PUSH0 MSTORE PUSH1 0x41 PUSH1 0x4 MSTORE PUSH1 0x24 PUSH0 REVERT JUMPDEST PUSH2 0x298 DUP3 PUSH2 0x1B0 JUMP JUMPDEST DUP2 ADD DUP2 DUP2 LT PUSH8 0xFFFFFFFFFFFFFFFF DUP3 GT OR ISZERO PUSH2 0x2B7 JUMPI PUSH2 0x2B6 PUSH2 0x262 JUMP JUMPDEST JUMPDEST DUP1 PUSH1 0x40 MSTORE POP POP POP JUMP JUMPDEST PUSH0 PUSH2 0x2C9 PUSH2 0x249 JUMP JUMPDEST SWAP1 POP PUSH2 0x2D5 DUP3 DUP3 PUSH2 0x28F JUMP JUMPDEST SWAP2 SWAP1 POP JUMP JUMPDEST PUSH0 PUSH8 0xFFFFFFFFFFFFFFFF DUP3 GT ISZERO PUSH2 0x2F4 JUMPI PUSH2 0x2F3 PUSH2 0x262 JUMP JUMPDEST JUMPDEST PUSH2 0x2FD DUP3 PUSH2 0x1B0 JUMP JUMPDEST SWAP1 POP PUSH1 0x20 DUP2 ADD SWAP1 POP SWAP2 SWAP1 POP JUMP JUMPDEST DUP3 DUP2 DUP4 CALLDATACOPY PUSH0 DUP4 DUP4 ADD MSTORE POP POP POP JUMP JUMPDEST PUSH0 PUSH2 0x32A PUSH2 0x325 DUP5 PUSH2 0x2DA JUMP JUMPDEST PUSH2 0x2C0 JUMP JUMPDEST SWAP1 POP DUP3 DUP2 MSTORE PUSH1 0x20 DUP2 ADD DUP5 DUP5 DUP5 ADD GT ISZERO PUSH2 0x346 JUMPI PUSH2 0x345 PUSH2 0x25E JUMP JUMPDEST JUMPDEST PUSH2 0x351 DUP5 DUP3 DUP6 PUSH2 0x30A JUMP JUMPDEST POP SWAP4 SWAP3 POP POP POP JUMP JUMPDEST PUSH0 DUP3 PUSH1 0x1F DUP4 ADD SLT PUSH2 0x36D JUMPI PUSH2 0x36C PUSH2 0x25A JUMP JUMPDEST JUMPDEST DUP2 CALLDATALOAD PUSH2 0x37D DUP5 DUP3 PUSH1 0x20 DUP7 ADD PUSH2 0x318 JUMP JUMPDEST SWAP2 POP POP SWAP3 SWAP2 POP POP JUMP JUMPDEST PUSH0 PUSH1 0x20 DUP3 DUP5 SUB SLT ISZERO PUSH2 0x39B JUMPI PUSH2 0x39A PUSH2 0x252 JUMP JUMPDEST JUMPDEST PUSH0 DUP3 ADD CALLDATALOAD PUSH8 0xFFFFFFFFFFFFFFFF DUP2 GT ISZERO PUSH2 0x3B8 JUMPI PUSH2 0x3B7 PUSH2 0x256 JUMP JUMPDEST JUMPDEST PUSH2 0x3C4 DUP5 DUP3 DUP6 ADD PUSH2 0x359 JUMP JUMPDEST SWAP2 POP POP SWAP3 SWAP2 POP POP JUMP JUMPDEST PUSH32 0x4E487B7100000000000000000000000000000000000000000000000000000000 PUSH0 MSTORE PUSH1 0x22 PUSH1 0x4 MSTORE PUSH1 0x24 PUSH0 REVERT JUMPDEST PUSH0 PUSH1 0x2 DUP3 DIV SWAP1 POP PUSH1 0x1 DUP3 AND DUP1 PUSH2 0x411 JUMPI PUSH1 0x7F DUP3 AND SWAP2 POP JUMPDEST PUSH1 0x20 DUP3 LT DUP2 SUB PUSH2 0x424 JUMPI PUSH2 0x423 PUSH2 0x3CD JUMP JUMPDEST JUMPDEST POP SWAP2 SWAP1 POP JUMP JUMPDEST PUSH32 0x4E487B7100000000000000000000000000000000000000000000000000000000 PUSH0 MSTORE PUSH1 0x11 PUSH1 0x4 MSTORE PUSH1 0x24 PUSH0 REVERT JUMPDEST PUSH0 PUSH2 0x461 DUP3 PUSH2 0x218 JUMP JUMPDEST SWAP2 POP PUSH2 0x46C DUP4 PUSH2 0x218 JUMP JUMPDEST SWAP3 POP DUP3 DUP3 ADD SWAP1 POP DUP1 DUP3 GT ISZERO PUSH2 0x484 JUMPI PUSH2 0x483 PUSH2 0x42A JUMP JUMPDEST JUMPDEST SWAP3 SWAP2 POP POP JUMP JUMPDEST PUSH0 DUP2 SWAP1 POP DUP2 PUSH0 MSTORE PUSH1 0x20 PUSH0 KECCAK256 SWAP1 POP SWAP2 SWAP1 POP JUMP JUMPDEST PUSH0 PUSH1 0x20 PUSH1 0x1F DUP4 ADD DIV SWAP1 POP SWAP2 SWAP1 POP JUMP JUMPDEST PUSH0 DUP3 DUP3 SHL SWAP1 POP SWAP3 SWAP2 POP POP JUMP JUMPDEST PUSH0 PUSH1 0x8 DUP4 MUL PUSH2 0x4E6 PUSH32 0xFFFFFFFFFFFFFFFFFFFFFFFFFFFFFFFFFFFFFFFFFFFFFFFFFFFFFFFFFFFFFFFF DUP3 PUSH2 0x4AB JUMP JUMPDEST PUSH2 0x4F0 DUP7 DUP4 PUSH2 0x4AB JUMP JUMPDEST SWAP6 POP DUP1 NOT DUP5 AND SWAP4 POP DUP1 DUP7 AND DUP5 OR SWAP3 POP POP POP SWAP4 SWAP3 POP POP POP JUMP JUMPDEST PUSH0 DUP2 SWAP1 POP SWAP2 SWAP1 POP JUMP JUMPDEST PUSH0 PUSH2 0x52B PUSH2 0x526 PUSH2 0x521 DUP5 PUSH2 0x218 JUMP JUMPDEST PUSH2 0x508 JUMP JUMPDEST PUSH2 0x218 JUMP JUMPDEST SWAP1 POP SWAP2 SWAP1 POP JUMP JUMPDEST PUSH0 DUP2 SWAP1 POP SWAP2 SWAP1 POP JUMP JUMPDEST PUSH2 0x544 DUP4 PUSH2 0x511 JUMP JUMPDEST PUSH2 0x558 PUSH2 0x550 DUP3 PUSH2 0x532 JUMP JUMPDEST DUP5 DUP5 SLOAD PUSH2 0x4B7 JUMP JUMPDEST DUP3 SSTORE POP POP POP POP JUMP JUMPDEST PUSH0 PUSH0 SWAP1 POP SWAP1 JUMP JUMPDEST PUSH2 0x56F PUSH2 0x560 JUMP JUMPDEST PUSH2 0x57A DUP2 DUP5 DUP5 PUSH2 0x53B JUMP JUMPDEST POP POP POP JUMP JUMPDEST JUMPDEST DUP2 DUP2 LT ISZERO PUSH2 0x59D JUMPI PUSH2 0x592 PUSH0 DUP3 PUSH2 0x567 JUMP JUMPDEST PUSH1 0x1 DUP2 ADD SWAP1 POP PUSH2 0x580 JUMP JUMPDEST POP POP JUMP JUMPDEST PUSH1 0x1F DUP3 GT ISZERO PUSH2 0x5E2 JUMPI PUSH2 0x5B3 DUP2 PUSH2 0x48A JUMP JUMPDEST PUSH2 0x5BC DUP5 PUSH2 0x49C JUMP JUMPDEST DUP2 ADD PUSH1 0x20 DUP6 LT ISZERO PUSH2 0x5CB JUMPI DUP2 SWAP1 POP JUMPDEST PUSH2 0x5DF PUSH2 0x5D7 DUP6 PUSH2 0x49C JUMP JUMPDEST DUP4 ADD DUP3 PUSH2 0x57F JUMP JUMPDEST POP POP JUMPDEST POP POP POP JUMP JUMPDEST PUSH0 DUP3 DUP3 SHR SWAP1 POP SWAP3 SWAP2 POP POP JUMP JUMPDEST PUSH0 PUSH2 0x602 PUSH0 NOT DUP5 PUSH1 0x8 MUL PUSH2 0x5E7 JUMP JUMPDEST NOT DUP1 DUP4 AND SWAP2 POP POP SWAP3 SWAP2 POP POP JUMP JUMPDEST PUSH0 PUSH2 0x61A DUP4 DUP4 PUSH2 0x5F3 JUMP JUMPDEST SWAP2 POP DUP3 PUSH1 0x2 MUL DUP3 OR SWAP1 POP SWAP3 SWAP2 POP POP JUMP JUMPDEST PUSH2 0x633 DUP3 PUSH2 0x188 JUMP JUMPDEST PUSH8 0xFFFFFFFFFFFFFFFF DUP2 GT ISZERO PUSH2 0x64C JUMPI PUSH2 0x64B PUSH2 0x262 JUMP JUMPDEST JUMPDEST PUSH2 0x656 DUP3 SLOAD PUSH2 0x3FA JUMP JUMPDEST PUSH2 0x661 DUP3 DUP3 DUP6 PUSH2 0x5A1 JUMP JUMPDEST PUSH0 PUSH1 0x20 SWAP1 POP PUSH1 0x1F DUP4 GT PUSH1 0x1 DUP2 EQ PUSH2 0x692 JUMPI PUSH0 DUP5 ISZERO PUSH2 0x680 JUMPI DUP3 DUP8 ADD MLOAD SWAP1 POP JUMPDEST PUSH2 0x68A DUP6 DUP3 PUSH2 0x60F JUMP JUMPDEST DUP7 SSTORE POP PUSH2 0x6F1 JUMP JUMPDEST PUSH1 0x1F NOT DUP5 AND PUSH2 0x6A0 DUP7 PUSH2 0x48A JUMP JUMPDEST PUSH0 JUMPDEST DUP3 DUP2 LT ISZERO PUSH2 0x6C7 JUMPI DUP5 DUP10 ADD MLOAD DUP3 SSTORE PUSH1 0x1 DUP3 ADD SWAP2 POP PUSH1 0x20 DUP6 ADD SWAP5 POP PUSH1 0x20 DUP2 ADD SWAP1 POP PUSH2 0x6A2 JUMP JUMPDEST DUP7 DUP4 LT ISZERO PUSH2 0x6E4 JUMPI DUP5 DUP10 ADD MLOAD PUSH2 0x6E0 PUSH1 0x1F DUP10 AND DUP3 PUSH2 0x5F3 JUMP JUMPDEST DUP4 SSTORE POP JUMPDEST PUSH1 0x1 PUSH1 0x2 DUP9 MUL ADD DUP9 SSTORE POP POP POP JUMPDEST POP POP POP POP POP POP JUMP INVALID LOG2 PUSH5 0x6970667358 0x22 SLT KECCAK256 PUSH12 0x42D9A6EB43FE900B8540716D 0xDB PUSH29 0x80E46004B4CE704D3DCE80C74DD05013CB64736F6C634300081E003300 "
				},
				"gasEstimates": {
					"creation": {
						"codeDepositCost": "367800",
						"executionCost": "infinite",
						"totalCost": "infinite"
					},
					"external": {
						"age()": "2424",
						"name()": "infinite",
						"setAge()": "infinite",
						"setName(string)": "infinite"
					}
				},
				"methodIdentifiers": {
					"age()": "262a9dff",
					"name()": "06fdde03",
					"setAge()": "457676ee",
					"setName(string)": "c47f0027"
				}
			},
			"storageLayout": {
				"storage": [
					{
						"astId": 3,
						"contract": "2-State Variables/state.sol:State",
						"label": "age",
						"offset": 0,
						"slot": "0",
						"type": "t_uint256"
					},
					{
						"astId": 5,
						"contract": "2-State Variables/state.sol:State",
						"label": "name",
						"offset": 0,
						"slot": "1",
						"type": "t_string_storage"
					}
				],
				"types": {
					"t_string_storage": {
						"encoding": "bytes",
						"label": "string",
						"numberOfBytes": "32"
					},
					"t_uint256": {
						"encoding": "inplace",
						"label": "uint256",
						"numberOfBytes": "32"
					}
				}
			},
			"userdoc": {
				"kind": "user",
				"methods": {},
				"version": 1
			}
		}
	}
}