{
	"data": {
		"bytecode": {
			"linkReferences": {},
			"object": "6080604052348015600e575f5ffd5b506108e68061001c5f395ff3fe608060405234801561000f575f5ffd5b5060043610610060575f3560e01c80639943d66914610064578063c0ea783014610094578063c46f9988146100c4578063c9363b81146100f4578063e196f0c614610124578063ee708b5314610154575b5f5ffd5b61007e60048036038101906100799190610632565b610184565b60405161008b91906106cd565b60405180910390f35b6100ae60048036038101906100a99190610722565b610254565b6040516100bb91906106cd565b60405180910390f35b6100de60048036038101906100d99190610632565b6102d7565b6040516100eb91906106cd565b60405180910390f35b61010e6004803603810190610109919061074d565b61039c565b60405161011b91906107ac565b60405180910390f35b61013e60048036038101906101399190610632565b6103f9565b60405161014b91906106cd565b60405180910390f35b61016e60048036038101906101699190610632565b61056d565b60405161017b91906106cd565b60405180910390f35b6060805f8313156101cc576040518060400160405280601181526020017f47726561746572207468616e207a65726f000000000000000000000000000000815250905061024b565b5f831215610211576040518060400160405280601181526020017f536d616c6c6572207468616e207a65726f000000000000000000000000000000815250905061024a565b6040518060400160405280600d81526020017f457175616c20746f207a65726f0000000000000000000000000000000000000081525090505b5b80915050919050565b60608115610299576040518060400160405280601181526020017f436f6e646974696f6e206973207472756500000000000000000000000000000081525090506102d2565b6040518060400160405280601281526020017f436f6e646974696f6e2069732066616c7365000000000000000000000000000081525090505b919050565b60605f821361035e575f8212610322576040518060400160405280600d81526020017f457175616c20746f207a65726f00000000000000000000000000000000000000815250610359565b6040518060400160405280601181526020017f536d616c6c6572207468616e207a65726f0000000000000000000000000000008152505b610395565b6040518060400160405280601181526020017f47726561746572207468616e207a65726f0000000000000000000000000000008152505b9050919050565b5f818313156103e0576040517f08c379a00000000000000000000000000000000000000000000000000000000081526004016103d790610835565b60405180910390fd5b8284121580156103f05750818413155b90509392505050565b60607fffffffffffffffffffffffffffffffffffffffffffffffffffffffffffffff9c821215610460576040518060400160405280601e81526020017f56657279206e6567617469766520286c657373207468616e202d3130302900008152509050610568565b5f8212156104a5576040518060400160405280601d81526020017f4e6567617469766520286265747765656e202d31303020616e642030290000008152509050610568565b5f82036104e9576040518060400160405280600481526020017f5a65726f000000000000000000000000000000000000000000000000000000008152509050610568565b606482121561052f576040518060400160405280601c81526020017f506f73697469766520286265747765656e203020616e642031303029000000008152509050610568565b6040518060400160405280601e81526020017f5665727920706f7369746976652028313030206f72206772656174657229000081525090505b919050565b60605f60028361057d9190610880565b146105bd576040518060400160405280600a81526020017f4f6464206e756d626572000000000000000000000000000000000000000000008152506105f4565b6040518060400160405280600b81526020017f4576656e206e756d6265720000000000000000000000000000000000000000008152505b9050919050565b5f5ffd5b5f819050919050565b610611816105ff565b811461061b575f5ffd5b50565b5f8135905061062c81610608565b92915050565b5f60208284031215610647576106466105fb565b5b5f6106548482850161061e565b91505092915050565b5f81519050919050565b5f82825260208201905092915050565b8281835e5f83830152505050565b5f601f19601f8301169050919050565b5f61069f8261065d565b6106a98185610667565b93506106b9818560208601610677565b6106c281610685565b840191505092915050565b5f6020820190508181035f8301526106e58184610695565b905092915050565b5f8115159050919050565b610701816106ed565b811461070b575f5ffd5b50565b5f8135905061071c816106f8565b92915050565b5f60208284031215610737576107366105fb565b5b5f6107448482850161070e565b91505092915050565b5f5f5f60608486031215610764576107636105fb565b5b5f6107718682870161061e565b93505060206107828682870161061e565b92505060406107938682870161061e565b9150509250925092565b6107a6816106ed565b82525050565b5f6020820190506107bf5f83018461079d565b92915050565b7f496e76616c69642072616e67653a206c6f77657220626f756e64206d757374205f8201527f6265203c3d20757070657220626f756e64000000000000000000000000000000602082015250565b5f61081f603183610667565b915061082a826107c5565b604082019050919050565b5f6020820190508181035f83015261084c81610813565b9050919050565b7f4e487b71000000000000000000000000000000000000000000000000000000005f52601260045260245ffd5b5f61088a826105ff565b9150610895836105ff565b9250826108a5576108a4610853565b5b82820790509291505056fea264697066735822122064d117cdf0d99a9f9bb02661434ef4761b216a73deae4aede408db01c8f930c864736f6c634300081e0033",
			"opcodes": "PUSH1 0x80 PUSH1 0x40 MSTORE CALLVALUE DUP1 ISZERO PUSH1 0xE JUMPI PUSH0 PUSH0 REVERT JUMPDEST POP PUSH2 0x8E6 DUP1 PUSH2 0x1C PUSH0 CODECOPY PUSH0 RETURN INVALID PUSH1 0x80 PUSH1 0x40 MSTORE CALLVALUE DUP1 ISZERO PUSH2 0xF JUMPI PUSH0 PUSH0 REVERT JUMPDEST POP PUSH1 0x4 CALLDATASIZE LT PUSH2 0x60 JUMPI PUSH0 CALLDATALOAD PUSH1 0xE0 SHR DUP1 PUSH4 0x9943D669 EQ PUSH2 0x64 JUMPI DUP1 PUSH4 0xC0EA7830 EQ PUSH2 0x94 JUMPI DUP1 PUSH4 0xC46F9988 EQ PUSH2 0xC4 JUMPI DUP1 PUSH4 0xC9363B81 EQ PUSH2 0xF4 JUMPI DUP1 PUSH4 0xE196F0C6 EQ PUSH2 0x124 JUMPI DUP1 PUSH4 0xEE708B53 EQ PUSH2 0x154 JUMPI JUMPDEST PUSH0 PUSH0 REVERT JUMPDEST PUSH2 0x7E PUSH1 0x4 DUP1 CALLDATASIZE SUB DUP2 ADD SWAP1 PUSH2 0x79 SWAP2 SWAP1 PUSH2 0x632 JUMP JUMPDEST PUSH2 0x184 JUMP JUMPDEST PUSH1 0x40 MLOAD PUSH2 0x8B SWAP2 SWAP1 PUSH2 0x6CD JUMP JUMPDEST PUSH1 0x40 MLOAD DUP1 SWAP2 SUB SWAP1 RETURN JUMPDEST PUSH2 0xAE PUSH1 0x4 DUP1 CALLDATASIZE SUB DUP2 ADD SWAP1 PUSH2 0xA9 SWAP2 SWAP1 PUSH2 0x722 JUMP JUMPDEST PUSH2 0x254 JUMP JUMPDEST PUSH1 0x40 MLOAD PUSH2 0xBB SWAP2 SWAP1 PUSH2 0x6CD JUMP JUMPDEST PUSH1 0x40 MLOAD DUP1 SWAP2 SUB SWAP1 RETURN JUMPDEST PUSH2 0xDE PUSH1 0x4 DUP1 CALLDATASIZE SUB DUP2 ADD SWAP1 PUSH2 0xD9 SWAP2 SWAP1 PUSH2 0x632 JUMP JUMPDEST PUSH2 0x2D7 JUMP JUMPDEST PUSH1 0x40 MLOAD PUSH2 0xEB SWAP2 SWAP1 PUSH2 0x6CD JUMP JUMPDEST PUSH1 0x40 MLOAD DUP1 SWAP2 SUB SWAP1 RETURN JUMPDEST PUSH2 0x10E PUSH1 0x4 DUP1 CALLDATASIZE SUB DUP2 ADD SWAP1 PUSH2 0x109 SWAP2 SWAP1 PUSH2 0x74D JUMP JUMPDEST PUSH2 0x39C JUMP JUMPDEST PUSH1 0x40 MLOAD PUSH2 0x11B SWAP2 SWAP1 PUSH2 0x7AC JUMP JUMPDEST PUSH1 0x40 MLOAD DUP1 SWAP2 SUB SWAP1 RETURN JUMPDEST PUSH2 0x13E PUSH1 0x4 DUP1 CALLDATASIZE SUB DUP2 ADD SWAP1 PUSH2 0x139 SWAP2 SWAP1 PUSH2 0x632 JUMP JUMPDEST PUSH2 0x3F9 JUMP JUMPDEST PUSH1 0x40 MLOAD PUSH2 0x14B SWAP2 SWAP1 PUSH2 0x6CD JUMP JUMPDEST PUSH1 0x40 MLOAD DUP1 SWAP2 SUB SWAP1 RETURN JUMPDEST PUSH2 0x16E PUSH1 0x4 DUP1 CALLDATASIZE SUB DUP2 ADD SWAP1 PUSH2 0x169 SWAP2 SWAP1 PUSH2 0x632 JUMP JUMPDEST PUSH2 0x56D JUMP JUMPDEST PUSH1 0x40 MLOAD PUSH2 0x17B SWAP2 SWAP1 PUSH2 0x6CD JUMP JUMPDEST PUSH1 0x40 MLOAD DUP1 SWAP2 SUB SWAP1 RETURN JUMPDEST PUSH1 0x60 DUP1 PUSH0 DUP4 SGT ISZERO PUSH2 0x1CC JUMPI PUSH1 0x40 MLOAD DUP1 PUSH1 0x40 ADD PUSH1 0x40 MSTORE DUP1 PUSH1 0x11 DUP2 MSTORE PUSH1 0x20 ADD PUSH32 0x47726561746572207468616E207A65726F000000000000000000000000000000 DUP2 MSTORE POP SWAP1 POP PUSH2 0x24B JUMP JUMPDEST PUSH0 DUP4 SLT ISZERO PUSH2 0x211 JUMPI PUSH1 0x40 MLOAD DUP1 PUSH1 0x40 ADD PUSH1 0x40 MSTORE DUP1 PUSH1 0x11 DUP2 MSTORE PUSH1 0x20 ADD PUSH32 0x536D616C6C6572207468616E207A65726F000000000000000000000000000000 DUP2 MSTORE POP SWAP1 POP PUSH2 0x24A JUMP JUMPDEST PUSH1 0x40 MLOAD DUP1 PUSH1 0x40 ADD PUSH1 0x40 MSTORE DUP1 PUSH1 0xD DUP2 MSTORE PUSH1 0x20 ADD PUSH32 0x457175616C20746F207A65726F00000000000000000000000000000000000000 DUP2 MSTORE POP SWAP1 POP JUMPDEST JUMPDEST DUP1 SWAP2 POP POP SWAP2 SWAP1 POP JUMP JUMPDEST PUSH1 0x60 DUP2 ISZERO PUSH2 0x299 JUMPI PUSH1 0x40 MLOAD DUP1 PUSH1 0x40 ADD PUSH1 0x40 MSTORE DUP1 PUSH1 0x11 DUP2 MSTORE PUSH1 0x20 ADD PUSH32 0x436F6E646974696F6E2069732074727565000000000000000000000000000000 DUP2 MSTORE POP SWAP1 POP PUSH2 0x2D2 JUMP JUMPDEST PUSH1 0x40 MLOAD DUP1 PUSH1 0x40 ADD PUSH1 0x40 MSTORE DUP1 PUSH1 0x12 DUP2 MSTORE PUSH1 0x20 ADD PUSH32 0x436F6E646974696F6E2069732066616C73650000000000000000000000000000 DUP2 MSTORE POP SWAP1 POP JUMPDEST SWAP2 SWAP1 POP JUMP JUMPDEST PUSH1 0x60 PUSH0 DUP3 SGT PUSH2 0x35E JUMPI PUSH0 DUP3 SLT PUSH2 0x322 JUMPI PUSH1 0x40 MLOAD DUP1 PUSH1 0x40 ADD PUSH1 0x40 MSTORE DUP1 PUSH1 0xD DUP2 MSTORE PUSH1 0x20 ADD PUSH32 0x457175616C20746F207A65726F00000000000000000000000000000000000000 DUP2 MSTORE POP PUSH2 0x359 JUMP JUMPDEST PUSH1 0x40 MLOAD DUP1 PUSH1 0x40 ADD PUSH1 0x40 MSTORE DUP1 PUSH1 0x11 DUP2 MSTORE PUSH1 0x20 ADD PUSH32 0x536D616C6C6572207468616E207A65726F000000000000000000000000000000 DUP2 MSTORE POP JUMPDEST PUSH2 0x395 JUMP JUMPDEST PUSH1 0x40 MLOAD DUP1 PUSH1 0x40 ADD PUSH1 0x40 MSTORE DUP1 PUSH1 0x11 DUP2 MSTORE PUSH1 0x20 ADD PUSH32 0x47726561746572207468616E207A65726F000000000000000000000000000000 DUP2 MSTORE POP JUMPDEST SWAP1 POP SWAP2 SWAP1 POP JUMP JUMPDEST PUSH0 DUP2 DUP4 SGT ISZERO PUSH2 0x3E0 JUMPI PUSH1 0x40 MLOAD PUSH32 0x8C379A000000000000000000000000000000000000000000000000000000000 DUP2 MSTORE PUSH1 0x4 ADD PUSH2 0x3D7 SWAP1 PUSH2 0x835 JUMP JUMPDEST PUSH1 0x40 MLOAD DUP1 SWAP2 SUB SWAP1 REVERT JUMPDEST DUP3 DUP5 SLT ISZERO DUP1 ISZERO PUSH2 0x3F0 JUMPI POP DUP2 DUP5 SGT ISZERO JUMPDEST SWAP1 POP SWAP4 SWAP3 POP POP POP JUMP JUMPDEST PUSH1 0x60 PUSH32 0xFFFFFFFFFFFFFFFFFFFFFFFFFFFFFFFFFFFFFFFFFFFFFFFFFFFFFFFFFFFFFF9C DUP3 SLT ISZERO PUSH2 0x460 JUMPI PUSH1 0x40 MLOAD DUP1 PUSH1 0x40 ADD PUSH1 0x40 MSTORE DUP1 PUSH1 0x1E DUP2 MSTORE PUSH1 0x20 ADD PUSH32 0x56657279206E6567617469766520286C657373207468616E202D313030290000 DUP2 MSTORE POP SWAP1 POP PUSH2 0x568 JUMP JUMPDEST PUSH0 DUP3 SLT ISZERO PUSH2 0x4A5 JUMPI PUSH1 0x40 MLOAD DUP1 PUSH1 0x40 ADD PUSH1 0x40 MSTORE DUP1 PUSH1 0x1D DUP2 MSTORE PUSH1 0x20 ADD PUSH32 0x4E6567617469766520286265747765656E202D31303020616E64203029000000 DUP2 MSTORE POP SWAP1 POP PUSH2 0x568 JUMP JUMPDEST PUSH0 DUP3 SUB PUSH2 0x4E9 JUMPI PUSH1 0x40 MLOAD DUP1 PUSH1 0x40 ADD PUSH1 0x40 MSTORE DUP1 PUSH1 0x4 DUP2 MSTORE PUSH1 0x20 ADD PUSH32 0x5A65726F00000000000000000000000000000000000000000000000000000000 DUP2 MSTORE POP SWAP1 POP PUSH2 0x568 JUMP JUMPDEST PUSH1 0x64 DUP3 SLT ISZERO PUSH2 0x52F JUMPI PUSH1 0x40 MLOAD DUP1 PUSH1 0x40 ADD PUSH1 0x40 MSTORE DUP1 PUSH1 0x1C DUP2 MSTORE PUSH1 0x20 ADD PUSH32 0x506F73697469766520286265747765656E203020616E64203130302900000000 DUP2 MSTORE POP SWAP1 POP PUSH2 0x568 JUMP JUMPDEST PUSH1 0x40 MLOAD DUP1 PUSH1 0x40 ADD PUSH1 0x40 MSTORE DUP1 PUSH1 0x1E DUP2 MSTORE PUSH1 0x20 ADD PUSH32 0x5665727920706F7369746976652028313030206F722067726561746572290000 DUP2 MSTORE POP SWAP1 POP JUMPDEST SWAP2 SWAP1 POP JUMP JUMPDEST PUSH1 0x60 PUSH0 PUSH1 0x2 DUP4 PUSH2 0x57D SWAP2 SWAP1 PUSH2 0x880 JUMP JUMPDEST EQ PUSH2 0x5BD JUMPI PUSH1 0x40 MLOAD DUP1 PUSH1 0x40 ADD PUSH1 0x40 MSTORE DUP1 PUSH1 0xA DUP2 MSTORE PUSH1 0x20 ADD PUSH32 0x4F6464206E756D62657200000000000000000000000000000000000000000000 DUP2 MSTORE POP PUSH2 0x5F4 JUMP JUMPDEST PUSH1 0x40 MLOAD DUP1 PUSH1 0x40 ADD PUSH1 0x40 MSTORE DUP1 PUSH1 0xB DUP2 MSTORE PUSH1 0x20 ADD PUSH32 0x4576656E206E756D626572000000000000000000000000000000000000000000 DUP2 MSTORE POP JUMPDEST SWAP1 POP SWAP2 SWAP1 POP JUMP JUMPDEST PUSH0 PUSH0 REVERT JUMPDEST PUSH0 DUP2 SWAP1 POP SWAP2 SWAP1 POP JUMP JUMPDEST PUSH2 0x611 DUP2 PUSH2 0x5FF JUMP JUMPDEST DUP2 EQ PUSH2 0x61B JUMPI PUSH0 PUSH0 REVERT JUMPDEST POP JUMP JUMPDEST PUSH0 DUP2 CALLDATALOAD SWAP1 POP PUSH2 0x62C DUP2 PUSH2 0x608 JUMP JUMPDEST SWAP3 SWAP2 POP POP JUMP JUMPDEST PUSH0 PUSH1 0x20 DUP3 DUP5 SUB SLT ISZERO PUSH2 0x647 JUMPI PUSH2 0x646 PUSH2 0x5FB JUMP JUMPDEST JUMPDEST PUSH0 PUSH2 0x654 DUP5 DUP3 DUP6 ADD PUSH2 0x61E JUMP JUMPDEST SWAP2 POP POP SWAP3 SWAP2 POP POP JUMP JUMPDEST PUSH0 DUP2 MLOAD SWAP1 POP SWAP2 SWAP1 POP JUMP JUMPDEST PUSH0 DUP3 DUP3 MSTORE PUSH1 0x20 DUP3 ADD SWAP1 POP SWAP3 SWAP2 POP POP JUMP JUMPDEST DUP3 DUP2 DUP4 MCOPY PUSH0 DUP4 DUP4 ADD MSTORE POP POP POP JUMP JUMPDEST PUSH0 PUSH1 0x1F NOT PUSH1 0x1F DUP4 ADD AND SWAP1 POP SWAP2 SWAP1 POP JUMP JUMPDEST PUSH0 PUSH2 0x69F DUP3 PUSH2 0x65D JUMP JUMPDEST PUSH2 0x6A9 DUP2 DUP6 PUSH2 0x667 JUMP JUMPDEST SWAP4 POP PUSH2 0x6B9 DUP2 DUP6 PUSH1 0x20 DUP7 ADD PUSH2 0x677 JUMP JUMPDEST PUSH2 0x6C2 DUP2 PUSH2 0x685 JUMP JUMPDEST DUP5 ADD SWAP2 POP POP SWAP3 SWAP2 POP POP JUMP JUMPDEST PUSH0 PUSH1 0x20 DUP3 ADD SWAP1 POP DUP2 DUP2 SUB PUSH0 DUP4 ADD MSTORE PUSH2 0x6E5 DUP2 DUP5 PUSH2 0x695 JUMP JUMPDEST SWAP1 POP SWAP3 SWAP2 POP POP JUMP JUMPDEST PUSH0 DUP2 ISZERO ISZERO SWAP1 POP SWAP2 SWAP1 POP JUMP JUMPDEST PUSH2 0x701 DUP2 PUSH2 0x6ED JUMP JUMPDEST DUP2 EQ PUSH2 0x70B JUMPI PUSH0 PUSH0 REVERT JUMPDEST POP JUMP JUMPDEST PUSH0 DUP2 CALLDATALOAD SWAP1 POP PUSH2 0x71C DUP2 PUSH2 0x6F8 JUMP JUMPDEST SWAP3 SWAP2 POP POP JUMP JUMPDEST PUSH0 PUSH1 0x20 DUP3 DUP5 SUB SLT ISZERO PUSH2 0x737 JUMPI PUSH2 0x736 PUSH2 0x5FB JUMP JUMPDEST JUMPDEST PUSH0 PUSH2 0x744 DUP5 DUP3 DUP6 ADD PUSH2 0x70E JUMP JUMPDEST SWAP2 POP POP SWAP3 SWAP2 POP POP JUMP JUMPDEST PUSH0 PUSH0 PUSH0 PUSH1 0x60 DUP5 DUP7 SUB SLT ISZERO PUSH2 0x764 JUMPI PUSH2 0x763 PUSH2 0x5FB JUMP JUMPDEST JUMPDEST PUSH0 PUSH2 0x771 DUP7 DUP3 DUP8 ADD PUSH2 0x61E JUMP JUMPDEST SWAP4 POP POP PUSH1 0x20 PUSH2 0x782 DUP7 DUP3 DUP8 ADD PUSH2 0x61E JUMP JUMPDEST SWAP3 POP POP PUSH1 0x40 PUSH2 0x793 DUP7 DUP3 DUP8 ADD PUSH2 0x61E JUMP JUMPDEST SWAP2 POP POP SWAP3 POP SWAP3 POP SWAP3 JUMP JUMPDEST PUSH2 0x7A6 DUP2 PUSH2 0x6ED JUMP JUMPDEST DUP3 MSTORE POP POP JUMP JUMPDEST PUSH0 PUSH1 0x20 DUP3 ADD SWAP1 POP PUSH2 0x7BF PUSH0 DUP4 ADD DUP5 PUSH2 0x79D JUMP JUMPDEST SWAP3 SWAP2 POP POP JUMP JUMPDEST PUSH32 0x496E76616C69642072616E67653A206C6F77657220626F756E64206D75737420 PUSH0 DUP3 ADD MSTORE PUSH32 0x6265203C3D20757070657220626F756E64000000000000000000000000000000 PUSH1 0x20 DUP3 ADD MSTORE POP JUMP JUMPDEST PUSH0 PUSH2 0x81F PUSH1 0x31 DUP4 PUSH2 0x667 JUMP JUMPDEST SWAP2 POP PUSH2 0x82A DUP3 PUSH2 0x7C5 JUMP JUMPDEST PUSH1 0x40 DUP3 ADD SWAP1 POP SWAP2 SWAP1 POP JUMP JUMPDEST PUSH0 PUSH1 0x20 DUP3 ADD SWAP1 POP DUP2 DUP2 SUB PUSH0 DUP4 ADD MSTORE PUSH2 0x84C DUP2 PUSH2 0x813 JUMP JUMPDEST SWAP1 POP SWAP2 SWAP1 POP JUMP JUMPDEST PUSH32 0x4E487B7100000000000000000000000000000000000000000000000000000000 PUSH0 MSTORE PUSH1 0x12 PUSH1 0x4 MSTORE PUSH1 0x24 PUSH0 REVERT JUMPDEST PUSH0 PUSH2 0x88A DUP3 PUSH2 0x5FF JUMP JUMPDEST SWAP2 POP PUSH2 0x895 DUP4 PUSH2 0x5FF JUMP JUMPDEST SWAP3 POP DUP3 PUSH2 0x8A5 JUMPI PUSH2 0x8A4 PUSH2 0x853 JUMP JUMPDEST JUMPDEST DUP3 DUP3 SMOD SWAP1 POP SWAP3 SWAP2 POP POP JUMP INVALID LOG2 PUSH5 0x6970667358 0x22 SLT KECCAK256 PUSH5 0xD117CDF0D9 SWAP11 SWAP16 SWAP12 0xB0 0x26 PUSH2 0x434E DELEGATECALL PUSH23 0x1B216A73DEAE4AEDE408DB01C8F930C864736F6C634300 ADDMOD 0x1E STOP CALLER "
		},
		"gasEstimates": {
			"creation": {
				"codeDepositCost": "455600",
				"executionCost": "491",
				"totalCost": "456091"
			},
			"external": {
				"check(int256)": "infinite",
				"checkBoolean(bool)": "infinite",
				"checkEvenOdd(int256)": "infinite",
				"checkRange(int256)": "infinite",
				"checkTernary(int256)": "infinite",
				"isInRange(int256,int256,int256)": "infinite"
			}
		},
		"methodIdentifiers": {
			"check(int256)": "9943d669",
			"checkBoolean(bool)": "c0ea7830",
			"checkEvenOdd(int256)": "ee708b53",
			"checkRange(int256)": "e196f0c6",
			"checkTernary(int256)": "c46f9988",
			"isInRange(int256,int256,int256)": "c9363b81"
		}
	},
	"abi": [
		{
			"inputs": [
				{
					"internalType": "int256",
					"name": "a",
					"type": "int256"
				}
			],
			"name": "check",
			"outputs": [
				{
					"internalType": "string",
					"name": "",
					"type": "string"
				}
			],
			"stateMutability": "pure",
			"type": "function"
		},
		{
			"inputs": [
				{
					"internalType": "bool",
					"name": "condition",
					"type": "bool"
				}
			],
			"name": "checkBoolean",
			"outputs": [
				{
					"internalType": "string",
					"name": "",
					"type": "string"
				}
			],
			"stateMutability": "pure",
			"type": "function"
		},
		{
			"inputs": [
				{
					"internalType": "int256",
					"name": "a",
					"type": "int256"
				}
			],
			"name": "checkEvenOdd",
			"outputs": [
				{
					"internalType": "string",
					"name": "",
					"type": "string"
				}
			],
			"stateMutability": "pure",
			"type": "function"
		},
		{
			"inputs": [
				{
					"internalType": "int256",
					"name": "a",
					"type": "int256"
				}
			],
			"name": "checkRange",
			"outputs": [
				{
					"internalType": "string",
					"name": "",
					"type": "string"
				}
			],
			"stateMutability": "pure",
			"type": "function"
		},
		{
			"inputs": [
				{
					"internalType": "int256",
					"name": "a",
					"type": "int256"
				}
			],
			"name": "checkTernary",
			"outputs": [
				{
					"internalType": "string",
					"name": "",
					"type": "string"
				}
			],
			"stateMutability": "pure",
			"type": "function"
		},
		{
			"inputs": [
				{
					"internalType": "int256",
					"name": "a",
					"type": "int256"
				},
				{
					"internalType": "int256",
					"name": "lower",
					"type": "int256"
				},
				{
					"internalType": "int256",
					"name": "upper",
					"type": "int256"
				}
			],
			"name": "isInRange",
			"outputs": [
				{
					"internalType": "bool",
					"name": "",
					"type": "bool"
				}
			],
			"stateMutability": "pure",
			"type": "function"
		}
	]
}