{
	"data": {
		"bytecode": {
			"linkReferences": {},
			"object": "60806040526040518060400160405280600381526020017f6162630000000000000000000000000000000000000000000000000000000000815250600190816100489190610297565b50348015610054575f5ffd5b50610366565b5f81519050919050565b7f4e487b71000000000000000000000000000000000000000000000000000000005f52604160045260245ffd5b7f4e487b71000000000000000000000000000000000000000000000000000000005f52602260045260245ffd5b5f60028204905060018216806100d557607f821691505b6020821081036100e8576100e7610091565b5b50919050565b5f819050815f5260205f209050919050565b5f6020601f8301049050919050565b5f82821b905092915050565b5f6008830261014a7fffffffffffffffffffffffffffffffffffffffffffffffffffffffffffffffff8261010f565b610154868361010f565b95508019841693508086168417925050509392505050565b5f819050919050565b5f819050919050565b5f61019861019361018e8461016c565b610175565b61016c565b9050919050565b5f819050919050565b6101b18361017e565b6101c56101bd8261019f565b84845461011b565b825550505050565b5f5f905090565b6101dc6101cd565b6101e78184846101a8565b505050565b5b8181101561020a576101ff5f826101d4565b6001810190506101ed565b5050565b601f82111561024f57610220816100ee565b61022984610100565b81016020851015610238578190505b61024c61024485610100565b8301826101ec565b50505b505050565b5f82821c905092915050565b5f61026f5f1984600802610254565b1980831691505092915050565b5f6102878383610260565b9150826002028217905092915050565b6102a08261005a565b67ffffffffffffffff8111156102b9576102b8610064565b5b6102c382546100be565b6102ce82828561020e565b5f60209050601f8311600181146102ff575f84156102ed578287015190505b6102f7858261027c565b86555061035e565b601f19841661030d866100ee565b5f5b828110156103345784890151825560018201915060208501945060208101905061030f565b86831015610351578489015161034d601f891682610260565b8355505b6001600288020188555050505b505050505050565b610fe7806103735f395ff3fe608060405234801561000f575f5ffd5b50600436106100a7575f3560e01c806348fe810c1161006f57806348fe810c1461014f5780636987b1fb1461017f5780639f871cd9146101af578063be1c766b146101b9578063cc082990146101d7578063ee495002146101e1576100a7565b80630d273ad1146100ab578063302c3cfa146100c75780633412fff0146100e55780633a7d22bc1461010157806347e4680614610131575b5f5ffd5b6100c560048036038101906100c0919061086f565b6101ff565b005b6100cf610395565b6040516100dc91906108b2565b60405180910390f35b6100ff60048036038101906100fa9190610a07565b6103a0565b005b61011b60048036038101906101169190610a78565b6103d4565b6040516101289190610ab2565b60405180910390f35b61013961048c565b6040516101469190610b2b565b60405180910390f35b61016960048036038101906101649190610a78565b61051c565b6040516101769190610b9d565b60405180910390f35b61019960048036038101906101949190610a78565b61060d565b6040516101a69190610b9d565b60405180910390f35b6101b76106b2565b005b6101c16106c0565b6040516101ce91906108b2565b60405180910390f35b6101df6106d5565b005b6101e96106e4565b6040516101f69190610b9d565b60405180910390f35b5f600180805461020e90610bea565b905061021a9190610c47565b67ffffffffffffffff811115610233576102326108e3565b5b6040519080825280601f01601f1916602001820160405280156102655781602001600182028036833780820191505090505b5090505f5f90505b6001805461027a90610bea565b905081101561033157600181815461029190610bea565b81106102a05761029f610c7a565b5b8154600116156102bd57905f5260205f2090602091828204019190065b9054901a7f0100000000000000000000000000000000000000000000000000000000000000028282815181106102f6576102f5610c7a565b5b60200101907effffffffffffffffffffffffffffffffffffffffffffffffffffffffffffff191690815f1a905350808060010191505061026d565b508181600183516103429190610ca7565b8151811061035357610352610c7a565b5b60200101907effffffffffffffffffffffffffffffffffffffffffffffffffffffffffffff191690815f1a90535080600190816103909190610e7a565b505050565b5f5f80549050905090565b5f81908060018154018082558091505060019003905f5260205f20015f9091909190915090816103d09190610e7a565b5050565b5f600180546103e290610bea565b90508210610425576040517f08c379a000000000000000000000000000000000000000000000000000000000815260040161041c90610f93565b60405180910390fd5b600182815461043390610bea565b811061044257610441610c7a565b5b81546001161561045f57905f5260205f2090602091828204019190065b9054901a7f0100000000000000000000000000000000000000000000000000000000000000029050919050565b60606001805461049b90610bea565b80601f01602080910402602001604051908101604052809291908181526020018280546104c790610bea565b80156105125780601f106104e957610100808354040283529160200191610512565b820191905f5260205f20905b8154815290600101906020018083116104f557829003601f168201915b5050505050905090565b60605f805490508210610564576040517f08c379a000000000000000000000000000000000000000000000000000000000815260040161055b90610f93565b60405180910390fd5b5f828154811061057757610576610c7a565b5b905f5260205f2001805461058a90610bea565b80601f01602080910402602001604051908101604052809291908181526020018280546105b690610bea565b80156106015780601f106105d857610100808354040283529160200191610601565b820191905f5260205f20905b8154815290600101906020018083116105e457829003601f168201915b50505050509050919050565b5f818154811061061b575f80fd5b905f5260205f20015f91509050805461063390610bea565b80601f016020809104026020016040519081016040528092919081815260200182805461065f90610bea565b80156106aa5780601f10610681576101008083540402835291602001916106aa565b820191905f5260205f20905b81548152906001019060200180831161068d57829003601f168201915b505050505081565b5f5f6106be9190610770565b565b5f600180546106ce90610bea565b9050905090565b60015f6106e2919061078e565b565b600180546106f190610bea565b80601f016020809104026020016040519081016040528092919081815260200182805461071d90610bea565b80156107685780601f1061073f57610100808354040283529160200191610768565b820191905f5260205f20905b81548152906001019060200180831161074b57829003601f168201915b505050505081565b5080545f8255905f5260205f209081019061078b91906107cb565b50565b50805461079a90610bea565b5f825580601f106107ab57506107c8565b601f0160209004905f5260205f20908101906107c791906107ee565b5b50565b5b808211156107ea575f81816107e1919061078e565b506001016107cc565b5090565b5b80821115610805575f815f9055506001016107ef565b5090565b5f604051905090565b5f5ffd5b5f5ffd5b5f7fff0000000000000000000000000000000000000000000000000000000000000082169050919050565b61084e8161081a565b8114610858575f5ffd5b50565b5f8135905061086981610845565b92915050565b5f6020828403121561088457610883610812565b5b5f6108918482850161085b565b91505092915050565b5f819050919050565b6108ac8161089a565b82525050565b5f6020820190506108c55f8301846108a3565b92915050565b5f5ffd5b5f5ffd5b5f601f19601f8301169050919050565b7f4e487b71000000000000000000000000000000000000000000000000000000005f52604160045260245ffd5b610919826108d3565b810181811067ffffffffffffffff82111715610938576109376108e3565b5b80604052505050565b5f61094a610809565b90506109568282610910565b919050565b5f67ffffffffffffffff821115610975576109746108e3565b5b61097e826108d3565b9050602081019050919050565b828183375f83830152505050565b5f6109ab6109a68461095b565b610941565b9050828152602081018484840111156109c7576109c66108cf565b5b6109d284828561098b565b509392505050565b5f82601f8301126109ee576109ed6108cb565b5b81356109fe848260208601610999565b91505092915050565b5f60208284031215610a1c57610a1b610812565b5b5f82013567ffffffffffffffff811115610a3957610a38610816565b5b610a45848285016109da565b91505092915050565b610a578161089a565b8114610a61575f5ffd5b50565b5f81359050610a7281610a4e565b92915050565b5f60208284031215610a8d57610a8c610812565b5b5f610a9a84828501610a64565b91505092915050565b610aac8161081a565b82525050565b5f602082019050610ac55f830184610aa3565b92915050565b5f81519050919050565b5f82825260208201905092915050565b8281835e5f83830152505050565b5f610afd82610acb565b610b078185610ad5565b9350610b17818560208601610ae5565b610b20816108d3565b840191505092915050565b5f6020820190508181035f830152610b438184610af3565b905092915050565b5f81519050919050565b5f82825260208201905092915050565b5f610b6f82610b4b565b610b798185610b55565b9350610b89818560208601610ae5565b610b92816108d3565b840191505092915050565b5f6020820190508181035f830152610bb58184610b65565b905092915050565b7f4e487b71000000000000000000000000000000000000000000000000000000005f52602260045260245ffd5b5f6002820490506001821680610c0157607f821691505b602082108103610c1457610c13610bbd565b5b50919050565b7f4e487b71000000000000000000000000000000000000000000000000000000005f52601160045260245ffd5b5f610c518261089a565b9150610c5c8361089a565b9250828201905080821115610c7457610c73610c1a565b5b92915050565b7f4e487b71000000000000000000000000000000000000000000000000000000005f52603260045260245ffd5b5f610cb18261089a565b9150610cbc8361089a565b9250828203905081811115610cd457610cd3610c1a565b5b92915050565b5f819050815f5260205f209050919050565b5f6020601f8301049050919050565b5f82821b905092915050565b5f60088302610d367fffffffffffffffffffffffffffffffffffffffffffffffffffffffffffffffff82610cfb565b610d408683610cfb565b95508019841693508086168417925050509392505050565b5f819050919050565b5f610d7b610d76610d718461089a565b610d58565b61089a565b9050919050565b5f819050919050565b610d9483610d61565b610da8610da082610d82565b848454610d07565b825550505050565b5f5f905090565b610dbf610db0565b610dca818484610d8b565b505050565b5b81811015610ded57610de25f82610db7565b600181019050610dd0565b5050565b601f821115610e3257610e0381610cda565b610e0c84610cec565b81016020851015610e1b578190505b610e2f610e2785610cec565b830182610dcf565b50505b505050565b5f82821c905092915050565b5f610e525f1984600802610e37565b1980831691505092915050565b5f610e6a8383610e43565b9150826002028217905092915050565b610e8382610b4b565b67ffffffffffffffff811115610e9c57610e9b6108e3565b5b610ea68254610bea565b610eb1828285610df1565b5f60209050601f831160018114610ee2575f8415610ed0578287015190505b610eda8582610e5f565b865550610f41565b601f198416610ef086610cda565b5f5b82811015610f1757848901518255600182019150602085019450602081019050610ef2565b86831015610f345784890151610f30601f891682610e43565b8355505b6001600288020188555050505b505050505050565b7f496e646578206f7574206f6620626f756e6473000000000000000000000000005f82015250565b5f610f7d601383610ad5565b9150610f8882610f49565b602082019050919050565b5f6020820190508181035f830152610faa81610f71565b905091905056fea26469706673582212208ffb4928262c63c59f394c2a026b13d097beba762065c625e063cf0e5f51be3d64736f6c634300081e0033",
			"opcodes": "PUSH1 0x80 PUSH1 0x40 MSTORE PUSH1 0x40 MLOAD DUP1 PUSH1 0x40 ADD PUSH1 0x40 MSTORE DUP1 PUSH1 0x3 DUP2 MSTORE PUSH1 0x20 ADD PUSH32 0x6162630000000000000000000000000000000000000000000000000000000000 DUP2 MSTORE POP PUSH1 0x1 SWAP1 DUP2 PUSH2 0x48 SWAP2 SWAP1 PUSH2 0x297 JUMP JUMPDEST POP CALLVALUE DUP1 ISZERO PUSH2 0x54 JUMPI PUSH0 PUSH0 REVERT JUMPDEST POP PUSH2 0x366 JUMP JUMPDEST PUSH0 DUP2 MLOAD SWAP1 POP SWAP2 SWAP1 POP JUMP JUMPDEST PUSH32 0x4E487B7100000000000000000000000000000000000000000000000000000000 PUSH0 MSTORE PUSH1 0x41 PUSH1 0x4 MSTORE PUSH1 0x24 PUSH0 REVERT JUMPDEST PUSH32 0x4E487B7100000000000000000000000000000000000000000000000000000000 PUSH0 MSTORE PUSH1 0x22 PUSH1 0x4 MSTORE PUSH1 0x24 PUSH0 REVERT JUMPDEST PUSH0 PUSH1 0x2 DUP3 DIV SWAP1 POP PUSH1 0x1 DUP3 AND DUP1 PUSH2 0xD5 JUMPI PUSH1 0x7F DUP3 AND SWAP2 POP JUMPDEST PUSH1 0x20 DUP3 LT DUP2 SUB PUSH2 0xE8 JUMPI PUSH2 0xE7 PUSH2 0x91 JUMP JUMPDEST JUMPDEST POP SWAP2 SWAP1 POP JUMP JUMPDEST PUSH0 DUP2 SWAP1 POP DUP2 PUSH0 MSTORE PUSH1 0x20 PUSH0 KECCAK256 SWAP1 POP SWAP2 SWAP1 POP JUMP JUMPDEST PUSH0 PUSH1 0x20 PUSH1 0x1F DUP4 ADD DIV SWAP1 POP SWAP2 SWAP1 POP JUMP JUMPDEST PUSH0 DUP3 DUP3 SHL SWAP1 POP SWAP3 SWAP2 POP POP JUMP JUMPDEST PUSH0 PUSH1 0x8 DUP4 MUL PUSH2 0x14A PUSH32 0xFFFFFFFFFFFFFFFFFFFFFFFFFFFFFFFFFFFFFFFFFFFFFFFFFFFFFFFFFFFFFFFF DUP3 PUSH2 0x10F JUMP JUMPDEST PUSH2 0x154 DUP7 DUP4 PUSH2 0x10F JUMP JUMPDEST SWAP6 POP DUP1 NOT DUP5 AND SWAP4 POP DUP1 DUP7 AND DUP5 OR SWAP3 POP POP POP SWAP4 SWAP3 POP POP POP JUMP JUMPDEST PUSH0 DUP2 SWAP1 POP SWAP2 SWAP1 POP JUMP JUMPDEST PUSH0 DUP2 SWAP1 POP SWAP2 SWAP1 POP JUMP JUMPDEST PUSH0 PUSH2 0x198 PUSH2 0x193 PUSH2 0x18E DUP5 PUSH2 0x16C JUMP JUMPDEST PUSH2 0x175 JUMP JUMPDEST PUSH2 0x16C JUMP JUMPDEST SWAP1 POP SWAP2 SWAP1 POP JUMP JUMPDEST PUSH0 DUP2 SWAP1 POP SWAP2 SWAP1 POP JUMP JUMPDEST PUSH2 0x1B1 DUP4 PUSH2 0x17E JUMP JUMPDEST PUSH2 0x1C5 PUSH2 0x1BD DUP3 PUSH2 0x19F JUMP JUMPDEST DUP5 DUP5 SLOAD PUSH2 0x11B JUMP JUMPDEST DUP3 SSTORE POP POP POP POP JUMP JUMPDEST PUSH0 PUSH0 SWAP1 POP SWAP1 JUMP JUMPDEST PUSH2 0x1DC PUSH2 0x1CD JUMP JUMPDEST PUSH2 0x1E7 DUP2 DUP5 DUP5 PUSH2 0x1A8 JUMP JUMPDEST POP POP POP JUMP JUMPDEST JUMPDEST DUP2 DUP2 LT ISZERO PUSH2 0x20A JUMPI PUSH2 0x1FF PUSH0 DUP3 PUSH2 0x1D4 JUMP JUMPDEST PUSH1 0x1 DUP2 ADD SWAP1 POP PUSH2 0x1ED JUMP JUMPDEST POP POP JUMP JUMPDEST PUSH1 0x1F DUP3 GT ISZERO PUSH2 0x24F JUMPI PUSH2 0x220 DUP2 PUSH2 0xEE JUMP JUMPDEST PUSH2 0x229 DUP5 PUSH2 0x100 JUMP JUMPDEST DUP2 ADD PUSH1 0x20 DUP6 LT ISZERO PUSH2 0x238 JUMPI DUP2 SWAP1 POP JUMPDEST PUSH2 0x24C PUSH2 0x244 DUP6 PUSH2 0x100 JUMP JUMPDEST DUP4 ADD DUP3 PUSH2 0x1EC JUMP JUMPDEST POP POP JUMPDEST POP POP POP JUMP JUMPDEST PUSH0 DUP3 DUP3 SHR SWAP1 POP SWAP3 SWAP2 POP POP JUMP JUMPDEST PUSH0 PUSH2 0x26F PUSH0 NOT DUP5 PUSH1 0x8 MUL PUSH2 0x254 JUMP JUMPDEST NOT DUP1 DUP4 AND SWAP2 POP POP SWAP3 SWAP2 POP POP JUMP JUMPDEST PUSH0 PUSH2 0x287 DUP4 DUP4 PUSH2 0x260 JUMP JUMPDEST SWAP2 POP DUP3 PUSH1 0x2 MUL DUP3 OR SWAP1 POP SWAP3 SWAP2 POP POP JUMP JUMPDEST PUSH2 0x2A0 DUP3 PUSH2 0x5A JUMP JUMPDEST PUSH8 0xFFFFFFFFFFFFFFFF DUP2 GT ISZERO PUSH2 0x2B9 JUMPI PUSH2 0x2B8 PUSH2 0x64 JUMP JUMPDEST JUMPDEST PUSH2 0x2C3 DUP3 SLOAD PUSH2 0xBE JUMP JUMPDEST PUSH2 0x2CE DUP3 DUP3 DUP6 PUSH2 0x20E JUMP JUMPDEST PUSH0 PUSH1 0x20 SWAP1 POP PUSH1 0x1F DUP4 GT PUSH1 0x1 DUP2 EQ PUSH2 0x2FF JUMPI PUSH0 DUP5 ISZERO PUSH2 0x2ED JUMPI DUP3 DUP8 ADD MLOAD SWAP1 POP JUMPDEST PUSH2 0x2F7 DUP6 DUP3 PUSH2 0x27C JUMP JUMPDEST DUP7 SSTORE POP PUSH2 0x35E JUMP JUMPDEST PUSH1 0x1F NOT DUP5 AND PUSH2 0x30D DUP7 PUSH2 0xEE JUMP JUMPDEST PUSH0 JUMPDEST DUP3 DUP2 LT ISZERO PUSH2 0x334 JUMPI DUP5 DUP10 ADD MLOAD DUP3 SSTORE PUSH1 0x1 DUP3 ADD SWAP2 POP PUSH1 0x20 DUP6 ADD SWAP5 POP PUSH1 0x20 DUP2 ADD SWAP1 POP PUSH2 0x30F JUMP JUMPDEST DUP7 DUP4 LT ISZERO PUSH2 0x351 JUMPI DUP5 DUP10 ADD MLOAD PUSH2 0x34D PUSH1 0x1F DUP10 AND DUP3 PUSH2 0x260 JUMP JUMPDEST DUP4 SSTORE POP JUMPDEST PUSH1 0x1 PUSH1 0x2 DUP9 MUL ADD DUP9 SSTORE POP POP POP JUMPDEST POP POP POP POP POP POP JUMP JUMPDEST PUSH2 0xFE7 DUP1 PUSH2 0x373 PUSH0 CODECOPY PUSH0 RETURN INVALID PUSH1 0x80 PUSH1 0x40 MSTORE CALLVALUE DUP1 ISZERO PUSH2 0xF JUMPI PUSH0 PUSH0 REVERT JUMPDEST POP PUSH1 0x4 CALLDATASIZE LT PUSH2 0xA7 JUMPI PUSH0 CALLDATALOAD PUSH1 0xE0 SHR DUP1 PUSH4 0x48FE810C GT PUSH2 0x6F JUMPI DUP1 PUSH4 0x48FE810C EQ PUSH2 0x14F JUMPI DUP1 PUSH4 0x6987B1FB EQ PUSH2 0x17F JUMPI DUP1 PUSH4 0x9F871CD9 EQ PUSH2 0x1AF JUMPI DUP1 PUSH4 0xBE1C766B EQ PUSH2 0x1B9 JUMPI DUP1 PUSH4 0xCC082990 EQ PUSH2 0x1D7 JUMPI DUP1 PUSH4 0xEE495002 EQ PUSH2 0x1E1 JUMPI PUSH2 0xA7 JUMP JUMPDEST DUP1 PUSH4 0xD273AD1 EQ PUSH2 0xAB JUMPI DUP1 PUSH4 0x302C3CFA EQ PUSH2 0xC7 JUMPI DUP1 PUSH4 0x3412FFF0 EQ PUSH2 0xE5 JUMPI DUP1 PUSH4 0x3A7D22BC EQ PUSH2 0x101 JUMPI DUP1 PUSH4 0x47E46806 EQ PUSH2 0x131 JUMPI JUMPDEST PUSH0 PUSH0 REVERT JUMPDEST PUSH2 0xC5 PUSH1 0x4 DUP1 CALLDATASIZE SUB DUP2 ADD SWAP1 PUSH2 0xC0 SWAP2 SWAP1 PUSH2 0x86F JUMP JUMPDEST PUSH2 0x1FF JUMP JUMPDEST STOP JUMPDEST PUSH2 0xCF PUSH2 0x395 JUMP JUMPDEST PUSH1 0x40 MLOAD PUSH2 0xDC SWAP2 SWAP1 PUSH2 0x8B2 JUMP JUMPDEST PUSH1 0x40 MLOAD DUP1 SWAP2 SUB SWAP1 RETURN JUMPDEST PUSH2 0xFF PUSH1 0x4 DUP1 CALLDATASIZE SUB DUP2 ADD SWAP1 PUSH2 0xFA SWAP2 SWAP1 PUSH2 0xA07 JUMP JUMPDEST PUSH2 0x3A0 JUMP JUMPDEST STOP JUMPDEST PUSH2 0x11B PUSH1 0x4 DUP1 CALLDATASIZE SUB DUP2 ADD SWAP1 PUSH2 0x116 SWAP2 SWAP1 PUSH2 0xA78 JUMP JUMPDEST PUSH2 0x3D4 JUMP JUMPDEST PUSH1 0x40 MLOAD PUSH2 0x128 SWAP2 SWAP1 PUSH2 0xAB2 JUMP JUMPDEST PUSH1 0x40 MLOAD DUP1 SWAP2 SUB SWAP1 RETURN JUMPDEST PUSH2 0x139 PUSH2 0x48C JUMP JUMPDEST PUSH1 0x40 MLOAD PUSH2 0x146 SWAP2 SWAP1 PUSH2 0xB2B JUMP JUMPDEST PUSH1 0x40 MLOAD DUP1 SWAP2 SUB SWAP1 RETURN JUMPDEST PUSH2 0x169 PUSH1 0x4 DUP1 CALLDATASIZE SUB DUP2 ADD SWAP1 PUSH2 0x164 SWAP2 SWAP1 PUSH2 0xA78 JUMP JUMPDEST PUSH2 0x51C JUMP JUMPDEST PUSH1 0x40 MLOAD PUSH2 0x176 SWAP2 SWAP1 PUSH2 0xB9D JUMP JUMPDEST PUSH1 0x40 MLOAD DUP1 SWAP2 SUB SWAP1 RETURN JUMPDEST PUSH2 0x199 PUSH1 0x4 DUP1 CALLDATASIZE SUB DUP2 ADD SWAP1 PUSH2 0x194 SWAP2 SWAP1 PUSH2 0xA78 JUMP JUMPDEST PUSH2 0x60D JUMP JUMPDEST PUSH1 0x40 MLOAD PUSH2 0x1A6 SWAP2 SWAP1 PUSH2 0xB9D JUMP JUMPDEST PUSH1 0x40 MLOAD DUP1 SWAP2 SUB SWAP1 RETURN JUMPDEST PUSH2 0x1B7 PUSH2 0x6B2 JUMP JUMPDEST STOP JUMPDEST PUSH2 0x1C1 PUSH2 0x6C0 JUMP JUMPDEST PUSH1 0x40 MLOAD PUSH2 0x1CE SWAP2 SWAP1 PUSH2 0x8B2 JUMP JUMPDEST PUSH1 0x40 MLOAD DUP1 SWAP2 SUB SWAP1 RETURN JUMPDEST PUSH2 0x1DF PUSH2 0x6D5 JUMP JUMPDEST STOP JUMPDEST PUSH2 0x1E9 PUSH2 0x6E4 JUMP JUMPDEST PUSH1 0x40 MLOAD PUSH2 0x1F6 SWAP2 SWAP1 PUSH2 0xB9D JUMP JUMPDEST PUSH1 0x40 MLOAD DUP1 SWAP2 SUB SWAP1 RETURN JUMPDEST PUSH0 PUSH1 0x1 DUP1 DUP1 SLOAD PUSH2 0x20E SWAP1 PUSH2 0xBEA JUMP JUMPDEST SWAP1 POP PUSH2 0x21A SWAP2 SWAP1 PUSH2 0xC47 JUMP JUMPDEST PUSH8 0xFFFFFFFFFFFFFFFF DUP2 GT ISZERO PUSH2 0x233 JUMPI PUSH2 0x232 PUSH2 0x8E3 JUMP JUMPDEST JUMPDEST PUSH1 0x40 MLOAD SWAP1 DUP1 DUP3 MSTORE DUP1 PUSH1 0x1F ADD PUSH1 0x1F NOT AND PUSH1 0x20 ADD DUP3 ADD PUSH1 0x40 MSTORE DUP1 ISZERO PUSH2 0x265 JUMPI DUP2 PUSH1 0x20 ADD PUSH1 0x1 DUP3 MUL DUP1 CALLDATASIZE DUP4 CALLDATACOPY DUP1 DUP3 ADD SWAP2 POP POP SWAP1 POP JUMPDEST POP SWAP1 POP PUSH0 PUSH0 SWAP1 POP JUMPDEST PUSH1 0x1 DUP1 SLOAD PUSH2 0x27A SWAP1 PUSH2 0xBEA JUMP JUMPDEST SWAP1 POP DUP2 LT ISZERO PUSH2 0x331 JUMPI PUSH1 0x1 DUP2 DUP2 SLOAD PUSH2 0x291 SWAP1 PUSH2 0xBEA JUMP JUMPDEST DUP2 LT PUSH2 0x2A0 JUMPI PUSH2 0x29F PUSH2 0xC7A JUMP JUMPDEST JUMPDEST DUP2 SLOAD PUSH1 0x1 AND ISZERO PUSH2 0x2BD JUMPI SWAP1 PUSH0 MSTORE PUSH1 0x20 PUSH0 KECCAK256 SWAP1 PUSH1 0x20 SWAP2 DUP3 DUP3 DIV ADD SWAP2 SWAP1 MOD JUMPDEST SWAP1 SLOAD SWAP1 BYTE PUSH32 0x100000000000000000000000000000000000000000000000000000000000000 MUL DUP3 DUP3 DUP2 MLOAD DUP2 LT PUSH2 0x2F6 JUMPI PUSH2 0x2F5 PUSH2 0xC7A JUMP JUMPDEST JUMPDEST PUSH1 0x20 ADD ADD SWAP1 PUSH31 0xFFFFFFFFFFFFFFFFFFFFFFFFFFFFFFFFFFFFFFFFFFFFFFFFFFFFFFFFFFFFFF NOT AND SWAP1 DUP2 PUSH0 BYTE SWAP1 MSTORE8 POP DUP1 DUP1 PUSH1 0x1 ADD SWAP2 POP POP PUSH2 0x26D JUMP JUMPDEST POP DUP2 DUP2 PUSH1 0x1 DUP4 MLOAD PUSH2 0x342 SWAP2 SWAP1 PUSH2 0xCA7 JUMP JUMPDEST DUP2 MLOAD DUP2 LT PUSH2 0x353 JUMPI PUSH2 0x352 PUSH2 0xC7A JUMP JUMPDEST JUMPDEST PUSH1 0x20 ADD ADD SWAP1 PUSH31 0xFFFFFFFFFFFFFFFFFFFFFFFFFFFFFFFFFFFFFFFFFFFFFFFFFFFFFFFFFFFFFF NOT AND SWAP1 DUP2 PUSH0 BYTE SWAP1 MSTORE8 POP DUP1 PUSH1 0x1 SWAP1 DUP2 PUSH2 0x390 SWAP2 SWAP1 PUSH2 0xE7A JUMP JUMPDEST POP POP POP JUMP JUMPDEST PUSH0 PUSH0 DUP1 SLOAD SWAP1 POP SWAP1 POP SWAP1 JUMP JUMPDEST PUSH0 DUP2 SWAP1 DUP1 PUSH1 0x1 DUP2 SLOAD ADD DUP1 DUP3 SSTORE DUP1 SWAP2 POP POP PUSH1 0x1 SWAP1 SUB SWAP1 PUSH0 MSTORE PUSH1 0x20 PUSH0 KECCAK256 ADD PUSH0 SWAP1 SWAP2 SWAP1 SWAP2 SWAP1 SWAP2 POP SWAP1 DUP2 PUSH2 0x3D0 SWAP2 SWAP1 PUSH2 0xE7A JUMP JUMPDEST POP POP JUMP JUMPDEST PUSH0 PUSH1 0x1 DUP1 SLOAD PUSH2 0x3E2 SWAP1 PUSH2 0xBEA JUMP JUMPDEST SWAP1 POP DUP3 LT PUSH2 0x425 JUMPI PUSH1 0x40 MLOAD PUSH32 0x8C379A000000000000000000000000000000000000000000000000000000000 DUP2 MSTORE PUSH1 0x4 ADD PUSH2 0x41C SWAP1 PUSH2 0xF93 JUMP JUMPDEST PUSH1 0x40 MLOAD DUP1 SWAP2 SUB SWAP1 REVERT JUMPDEST PUSH1 0x1 DUP3 DUP2 SLOAD PUSH2 0x433 SWAP1 PUSH2 0xBEA JUMP JUMPDEST DUP2 LT PUSH2 0x442 JUMPI PUSH2 0x441 PUSH2 0xC7A JUMP JUMPDEST JUMPDEST DUP2 SLOAD PUSH1 0x1 AND ISZERO PUSH2 0x45F JUMPI SWAP1 PUSH0 MSTORE PUSH1 0x20 PUSH0 KECCAK256 SWAP1 PUSH1 0x20 SWAP2 DUP3 DUP3 DIV ADD SWAP2 SWAP1 MOD JUMPDEST SWAP1 SLOAD SWAP1 BYTE PUSH32 0x100000000000000000000000000000000000000000000000000000000000000 MUL SWAP1 POP SWAP2 SWAP1 POP JUMP JUMPDEST PUSH1 0x60 PUSH1 0x1 DUP1 SLOAD PUSH2 0x49B SWAP1 PUSH2 0xBEA JUMP JUMPDEST DUP1 PUSH1 0x1F ADD PUSH1 0x20 DUP1 SWAP2 DIV MUL PUSH1 0x20 ADD PUSH1 0x40 MLOAD SWAP1 DUP2 ADD PUSH1 0x40 MSTORE DUP1 SWAP3 SWAP2 SWAP1 DUP2 DUP2 MSTORE PUSH1 0x20 ADD DUP3 DUP1 SLOAD PUSH2 0x4C7 SWAP1 PUSH2 0xBEA JUMP JUMPDEST DUP1 ISZERO PUSH2 0x512 JUMPI DUP1 PUSH1 0x1F LT PUSH2 0x4E9 JUMPI PUSH2 0x100 DUP1 DUP4 SLOAD DIV MUL DUP4 MSTORE SWAP2 PUSH1 0x20 ADD SWAP2 PUSH2 0x512 JUMP JUMPDEST DUP3 ADD SWAP2 SWAP1 PUSH0 MSTORE PUSH1 0x20 PUSH0 KECCAK256 SWAP1 JUMPDEST DUP2 SLOAD DUP2 MSTORE SWAP1 PUSH1 0x1 ADD SWAP1 PUSH1 0x20 ADD DUP1 DUP4 GT PUSH2 0x4F5 JUMPI DUP3 SWAP1 SUB PUSH1 0x1F AND DUP3 ADD SWAP2 JUMPDEST POP POP POP POP POP SWAP1 POP SWAP1 JUMP JUMPDEST PUSH1 0x60 PUSH0 DUP1 SLOAD SWAP1 POP DUP3 LT PUSH2 0x564 JUMPI PUSH1 0x40 MLOAD PUSH32 0x8C379A000000000000000000000000000000000000000000000000000000000 DUP2 MSTORE PUSH1 0x4 ADD PUSH2 0x55B SWAP1 PUSH2 0xF93 JUMP JUMPDEST PUSH1 0x40 MLOAD DUP1 SWAP2 SUB SWAP1 REVERT JUMPDEST PUSH0 DUP3 DUP2 SLOAD DUP2 LT PUSH2 0x577 JUMPI PUSH2 0x576 PUSH2 0xC7A JUMP JUMPDEST JUMPDEST SWAP1 PUSH0 MSTORE PUSH1 0x20 PUSH0 KECCAK256 ADD DUP1 SLOAD PUSH2 0x58A SWAP1 PUSH2 0xBEA JUMP JUMPDEST DUP1 PUSH1 0x1F ADD PUSH1 0x20 DUP1 SWAP2 DIV MUL PUSH1 0x20 ADD PUSH1 0x40 MLOAD SWAP1 DUP2 ADD PUSH1 0x40 MSTORE DUP1 SWAP3 SWAP2 SWAP1 DUP2 DUP2 MSTORE PUSH1 0x20 ADD DUP3 DUP1 SLOAD PUSH2 0x5B6 SWAP1 PUSH2 0xBEA JUMP JUMPDEST DUP1 ISZERO PUSH2 0x601 JUMPI DUP1 PUSH1 0x1F LT PUSH2 0x5D8 JUMPI PUSH2 0x100 DUP1 DUP4 SLOAD DIV MUL DUP4 MSTORE SWAP2 PUSH1 0x20 ADD SWAP2 PUSH2 0x601 JUMP JUMPDEST DUP3 ADD SWAP2 SWAP1 PUSH0 MSTORE PUSH1 0x20 PUSH0 KECCAK256 SWAP1 JUMPDEST DUP2 SLOAD DUP2 MSTORE SWAP1 PUSH1 0x1 ADD SWAP1 PUSH1 0x20 ADD DUP1 DUP4 GT PUSH2 0x5E4 JUMPI DUP3 SWAP1 SUB PUSH1 0x1F AND DUP3 ADD SWAP2 JUMPDEST POP POP POP POP POP SWAP1 POP SWAP2 SWAP1 POP JUMP JUMPDEST PUSH0 DUP2 DUP2 SLOAD DUP2 LT PUSH2 0x61B JUMPI PUSH0 DUP1 REVERT JUMPDEST SWAP1 PUSH0 MSTORE PUSH1 0x20 PUSH0 KECCAK256 ADD PUSH0 SWAP2 POP SWAP1 POP DUP1 SLOAD PUSH2 0x633 SWAP1 PUSH2 0xBEA JUMP JUMPDEST DUP1 PUSH1 0x1F ADD PUSH1 0x20 DUP1 SWAP2 DIV MUL PUSH1 0x20 ADD PUSH1 0x40 MLOAD SWAP1 DUP2 ADD PUSH1 0x40 MSTORE DUP1 SWAP3 SWAP2 SWAP1 DUP2 DUP2 MSTORE PUSH1 0x20 ADD DUP3 DUP1 SLOAD PUSH2 0x65F SWAP1 PUSH2 0xBEA JUMP JUMPDEST DUP1 ISZERO PUSH2 0x6AA JUMPI DUP1 PUSH1 0x1F LT PUSH2 0x681 JUMPI PUSH2 0x100 DUP1 DUP4 SLOAD DIV MUL DUP4 MSTORE SWAP2 PUSH1 0x20 ADD SWAP2 PUSH2 0x6AA JUMP JUMPDEST DUP3 ADD SWAP2 SWAP1 PUSH0 MSTORE PUSH1 0x20 PUSH0 KECCAK256 SWAP1 JUMPDEST DUP2 SLOAD DUP2 MSTORE SWAP1 PUSH1 0x1 ADD SWAP1 PUSH1 0x20 ADD DUP1 DUP4 GT PUSH2 0x68D JUMPI DUP3 SWAP1 SUB PUSH1 0x1F AND DUP3 ADD SWAP2 JUMPDEST POP POP POP POP POP DUP2 JUMP JUMPDEST PUSH0 PUSH0 PUSH2 0x6BE SWAP2 SWAP1 PUSH2 0x770 JUMP JUMPDEST JUMP JUMPDEST PUSH0 PUSH1 0x1 DUP1 SLOAD PUSH2 0x6CE SWAP1 PUSH2 0xBEA JUMP JUMPDEST SWAP1 POP SWAP1 POP SWAP1 JUMP JUMPDEST PUSH1 0x1 PUSH0 PUSH2 0x6E2 SWAP2 SWAP1 PUSH2 0x78E JUMP JUMPDEST JUMP JUMPDEST PUSH1 0x1 DUP1 SLOAD PUSH2 0x6F1 SWAP1 PUSH2 0xBEA JUMP JUMPDEST DUP1 PUSH1 0x1F ADD PUSH1 0x20 DUP1 SWAP2 DIV MUL PUSH1 0x20 ADD PUSH1 0x40 MLOAD SWAP1 DUP2 ADD PUSH1 0x40 MSTORE DUP1 SWAP3 SWAP2 SWAP1 DUP2 DUP2 MSTORE PUSH1 0x20 ADD DUP3 DUP1 SLOAD PUSH2 0x71D SWAP1 PUSH2 0xBEA JUMP JUMPDEST DUP1 ISZERO PUSH2 0x768 JUMPI DUP1 PUSH1 0x1F LT PUSH2 0x73F JUMPI PUSH2 0x100 DUP1 DUP4 SLOAD DIV MUL DUP4 MSTORE SWAP2 PUSH1 0x20 ADD SWAP2 PUSH2 0x768 JUMP JUMPDEST DUP3 ADD SWAP2 SWAP1 PUSH0 MSTORE PUSH1 0x20 PUSH0 KECCAK256 SWAP1 JUMPDEST DUP2 SLOAD DUP2 MSTORE SWAP1 PUSH1 0x1 ADD SWAP1 PUSH1 0x20 ADD DUP1 DUP4 GT PUSH2 0x74B JUMPI DUP3 SWAP1 SUB PUSH1 0x1F AND DUP3 ADD SWAP2 JUMPDEST POP POP POP POP POP DUP2 JUMP JUMPDEST POP DUP1 SLOAD PUSH0 DUP3 SSTORE SWAP1 PUSH0 MSTORE PUSH1 0x20 PUSH0 KECCAK256 SWAP1 DUP2 ADD SWAP1 PUSH2 0x78B SWAP2 SWAP1 PUSH2 0x7CB JUMP JUMPDEST POP JUMP JUMPDEST POP DUP1 SLOAD PUSH2 0x79A SWAP1 PUSH2 0xBEA JUMP JUMPDEST PUSH0 DUP3 SSTORE DUP1 PUSH1 0x1F LT PUSH2 0x7AB JUMPI POP PUSH2 0x7C8 JUMP JUMPDEST PUSH1 0x1F ADD PUSH1 0x20 SWAP1 DIV SWAP1 PUSH0 MSTORE PUSH1 0x20 PUSH0 KECCAK256 SWAP1 DUP2 ADD SWAP1 PUSH2 0x7C7 SWAP2 SWAP1 PUSH2 0x7EE JUMP JUMPDEST JUMPDEST POP JUMP JUMPDEST JUMPDEST DUP1 DUP3 GT ISZERO PUSH2 0x7EA JUMPI PUSH0 DUP2 DUP2 PUSH2 0x7E1 SWAP2 SWAP1 PUSH2 0x78E JUMP JUMPDEST POP PUSH1 0x1 ADD PUSH2 0x7CC JUMP JUMPDEST POP SWAP1 JUMP JUMPDEST JUMPDEST DUP1 DUP3 GT ISZERO PUSH2 0x805 JUMPI PUSH0 DUP2 PUSH0 SWAP1 SSTORE POP PUSH1 0x1 ADD PUSH2 0x7EF JUMP JUMPDEST POP SWAP1 JUMP JUMPDEST PUSH0 PUSH1 0x40 MLOAD SWAP1 POP SWAP1 JUMP JUMPDEST PUSH0 PUSH0 REVERT JUMPDEST PUSH0 PUSH0 REVERT JUMPDEST PUSH0 PUSH32 0xFF00000000000000000000000000000000000000000000000000000000000000 DUP3 AND SWAP1 POP SWAP2 SWAP1 POP JUMP JUMPDEST PUSH2 0x84E DUP2 PUSH2 0x81A JUMP JUMPDEST DUP2 EQ PUSH2 0x858 JUMPI PUSH0 PUSH0 REVERT JUMPDEST POP JUMP JUMPDEST PUSH0 DUP2 CALLDATALOAD SWAP1 POP PUSH2 0x869 DUP2 PUSH2 0x845 JUMP JUMPDEST SWAP3 SWAP2 POP POP JUMP JUMPDEST PUSH0 PUSH1 0x20 DUP3 DUP5 SUB SLT ISZERO PUSH2 0x884 JUMPI PUSH2 0x883 PUSH2 0x812 JUMP JUMPDEST JUMPDEST PUSH0 PUSH2 0x891 DUP5 DUP3 DUP6 ADD PUSH2 0x85B JUMP JUMPDEST SWAP2 POP POP SWAP3 SWAP2 POP POP JUMP JUMPDEST PUSH0 DUP2 SWAP1 POP SWAP2 SWAP1 POP JUMP JUMPDEST PUSH2 0x8AC DUP2 PUSH2 0x89A JUMP JUMPDEST DUP3 MSTORE POP POP JUMP JUMPDEST PUSH0 PUSH1 0x20 DUP3 ADD SWAP1 POP PUSH2 0x8C5 PUSH0 DUP4 ADD DUP5 PUSH2 0x8A3 JUMP JUMPDEST SWAP3 SWAP2 POP POP JUMP JUMPDEST PUSH0 PUSH0 REVERT JUMPDEST PUSH0 PUSH0 REVERT JUMPDEST PUSH0 PUSH1 0x1F NOT PUSH1 0x1F DUP4 ADD AND SWAP1 POP SWAP2 SWAP1 POP JUMP JUMPDEST PUSH32 0x4E487B7100000000000000000000000000000000000000000000000000000000 PUSH0 MSTORE PUSH1 0x41 PUSH1 0x4 MSTORE PUSH1 0x24 PUSH0 REVERT JUMPDEST PUSH2 0x919 DUP3 PUSH2 0x8D3 JUMP JUMPDEST DUP2 ADD DUP2 DUP2 LT PUSH8 0xFFFFFFFFFFFFFFFF DUP3 GT OR ISZERO PUSH2 0x938 JUMPI PUSH2 0x937 PUSH2 0x8E3 JUMP JUMPDEST JUMPDEST DUP1 PUSH1 0x40 MSTORE POP POP POP JUMP JUMPDEST PUSH0 PUSH2 0x94A PUSH2 0x809 JUMP JUMPDEST SWAP1 POP PUSH2 0x956 DUP3 DUP3 PUSH2 0x910 JUMP JUMPDEST SWAP2 SWAP1 POP JUMP JUMPDEST PUSH0 PUSH8 0xFFFFFFFFFFFFFFFF DUP3 GT ISZERO PUSH2 0x975 JUMPI PUSH2 0x974 PUSH2 0x8E3 JUMP JUMPDEST JUMPDEST PUSH2 0x97E DUP3 PUSH2 0x8D3 JUMP JUMPDEST SWAP1 POP PUSH1 0x20 DUP2 ADD SWAP1 POP SWAP2 SWAP1 POP JUMP JUMPDEST DUP3 DUP2 DUP4 CALLDATACOPY PUSH0 DUP4 DUP4 ADD MSTORE POP POP POP JUMP JUMPDEST PUSH0 PUSH2 0x9AB PUSH2 0x9A6 DUP5 PUSH2 0x95B JUMP JUMPDEST PUSH2 0x941 JUMP JUMPDEST SWAP1 POP DUP3 DUP2 MSTORE PUSH1 0x20 DUP2 ADD DUP5 DUP5 DUP5 ADD GT ISZERO PUSH2 0x9C7 JUMPI PUSH2 0x9C6 PUSH2 0x8CF JUMP JUMPDEST JUMPDEST PUSH2 0x9D2 DUP5 DUP3 DUP6 PUSH2 0x98B JUMP JUMPDEST POP SWAP4 SWAP3 POP POP POP JUMP JUMPDEST PUSH0 DUP3 PUSH1 0x1F DUP4 ADD SLT PUSH2 0x9EE JUMPI PUSH2 0x9ED PUSH2 0x8CB JUMP JUMPDEST JUMPDEST DUP2 CALLDATALOAD PUSH2 0x9FE DUP5 DUP3 PUSH1 0x20 DUP7 ADD PUSH2 0x999 JUMP JUMPDEST SWAP2 POP POP SWAP3 SWAP2 POP POP JUMP JUMPDEST PUSH0 PUSH1 0x20 DUP3 DUP5 SUB SLT ISZERO PUSH2 0xA1C JUMPI PUSH2 0xA1B PUSH2 0x812 JUMP JUMPDEST JUMPDEST PUSH0 DUP3 ADD CALLDATALOAD PUSH8 0xFFFFFFFFFFFFFFFF DUP2 GT ISZERO PUSH2 0xA39 JUMPI PUSH2 0xA38 PUSH2 0x816 JUMP JUMPDEST JUMPDEST PUSH2 0xA45 DUP5 DUP3 DUP6 ADD PUSH2 0x9DA JUMP JUMPDEST SWAP2 POP POP SWAP3 SWAP2 POP POP JUMP JUMPDEST PUSH2 0xA57 DUP2 PUSH2 0x89A JUMP JUMPDEST DUP2 EQ PUSH2 0xA61 JUMPI PUSH0 PUSH0 REVERT JUMPDEST POP JUMP JUMPDEST PUSH0 DUP2 CALLDATALOAD SWAP1 POP PUSH2 0xA72 DUP2 PUSH2 0xA4E JUMP JUMPDEST SWAP3 SWAP2 POP POP JUMP JUMPDEST PUSH0 PUSH1 0x20 DUP3 DUP5 SUB SLT ISZERO PUSH2 0xA8D JUMPI PUSH2 0xA8C PUSH2 0x812 JUMP JUMPDEST JUMPDEST PUSH0 PUSH2 0xA9A DUP5 DUP3 DUP6 ADD PUSH2 0xA64 JUMP JUMPDEST SWAP2 POP POP SWAP3 SWAP2 POP POP JUMP JUMPDEST PUSH2 0xAAC DUP2 PUSH2 0x81A JUMP JUMPDEST DUP3 MSTORE POP POP JUMP JUMPDEST PUSH0 PUSH1 0x20 DUP3 ADD SWAP1 POP PUSH2 0xAC5 PUSH0 DUP4 ADD DUP5 PUSH2 0xAA3 JUMP JUMPDEST SWAP3 SWAP2 POP POP JUMP JUMPDEST PUSH0 DUP2 MLOAD SWAP1 POP SWAP2 SWAP1 POP JUMP JUMPDEST PUSH0 DUP3 DUP3 MSTORE PUSH1 0x20 DUP3 ADD SWAP1 POP SWAP3 SWAP2 POP POP JUMP JUMPDEST DUP3 DUP2 DUP4 MCOPY PUSH0 DUP4 DUP4 ADD MSTORE POP POP POP JUMP JUMPDEST PUSH0 PUSH2 0xAFD DUP3 PUSH2 0xACB JUMP JUMPDEST PUSH2 0xB07 DUP2 DUP6 PUSH2 0xAD5 JUMP JUMPDEST SWAP4 POP PUSH2 0xB17 DUP2 DUP6 PUSH1 0x20 DUP7 ADD PUSH2 0xAE5 JUMP JUMPDEST PUSH2 0xB20 DUP2 PUSH2 0x8D3 JUMP JUMPDEST DUP5 ADD SWAP2 POP POP SWAP3 SWAP2 POP POP JUMP JUMPDEST PUSH0 PUSH1 0x20 DUP3 ADD SWAP1 POP DUP2 DUP2 SUB PUSH0 DUP4 ADD MSTORE PUSH2 0xB43 DUP2 DUP5 PUSH2 0xAF3 JUMP JUMPDEST SWAP1 POP SWAP3 SWAP2 POP POP JUMP JUMPDEST PUSH0 DUP2 MLOAD SWAP1 POP SWAP2 SWAP1 POP JUMP JUMPDEST PUSH0 DUP3 DUP3 MSTORE PUSH1 0x20 DUP3 ADD SWAP1 POP SWAP3 SWAP2 POP POP JUMP JUMPDEST PUSH0 PUSH2 0xB6F DUP3 PUSH2 0xB4B JUMP JUMPDEST PUSH2 0xB79 DUP2 DUP6 PUSH2 0xB55 JUMP JUMPDEST SWAP4 POP PUSH2 0xB89 DUP2 DUP6 PUSH1 0x20 DUP7 ADD PUSH2 0xAE5 JUMP JUMPDEST PUSH2 0xB92 DUP2 PUSH2 0x8D3 JUMP JUMPDEST DUP5 ADD SWAP2 POP POP SWAP3 SWAP2 POP POP JUMP JUMPDEST PUSH0 PUSH1 0x20 DUP3 ADD SWAP1 POP DUP2 DUP2 SUB PUSH0 DUP4 ADD MSTORE PUSH2 0xBB5 DUP2 DUP5 PUSH2 0xB65 JUMP JUMPDEST SWAP1 POP SWAP3 SWAP2 POP POP JUMP JUMPDEST PUSH32 0x4E487B7100000000000000000000000000000000000000000000000000000000 PUSH0 MSTORE PUSH1 0x22 PUSH1 0x4 MSTORE PUSH1 0x24 PUSH0 REVERT JUMPDEST PUSH0 PUSH1 0x2 DUP3 DIV SWAP1 POP PUSH1 0x1 DUP3 AND DUP1 PUSH2 0xC01 JUMPI PUSH1 0x7F DUP3 AND SWAP2 POP JUMPDEST PUSH1 0x20 DUP3 LT DUP2 SUB PUSH2 0xC14 JUMPI PUSH2 0xC13 PUSH2 0xBBD JUMP JUMPDEST JUMPDEST POP SWAP2 SWAP1 POP JUMP JUMPDEST PUSH32 0x4E487B7100000000000000000000000000000000000000000000000000000000 PUSH0 MSTORE PUSH1 0x11 PUSH1 0x4 MSTORE PUSH1 0x24 PUSH0 REVERT JUMPDEST PUSH0 PUSH2 0xC51 DUP3 PUSH2 0x89A JUMP JUMPDEST SWAP2 POP PUSH2 0xC5C DUP4 PUSH2 0x89A JUMP JUMPDEST SWAP3 POP DUP3 DUP3 ADD SWAP1 POP DUP1 DUP3 GT ISZERO PUSH2 0xC74 JUMPI PUSH2 0xC73 PUSH2 0xC1A JUMP JUMPDEST JUMPDEST SWAP3 SWAP2 POP POP JUMP JUMPDEST PUSH32 0x4E487B7100000000000000000000000000000000000000000000000000000000 PUSH0 MSTORE PUSH1 0x32 PUSH1 0x4 MSTORE PUSH1 0x24 PUSH0 REVERT JUMPDEST PUSH0 PUSH2 0xCB1 DUP3 PUSH2 0x89A JUMP JUMPDEST SWAP2 POP PUSH2 0xCBC DUP4 PUSH2 0x89A JUMP JUMPDEST SWAP3 POP DUP3 DUP3 SUB SWAP1 POP DUP2 DUP2 GT ISZERO PUSH2 0xCD4 JUMPI PUSH2 0xCD3 PUSH2 0xC1A JUMP JUMPDEST JUMPDEST SWAP3 SWAP2 POP POP JUMP JUMPDEST PUSH0 DUP2 SWAP1 POP DUP2 PUSH0 MSTORE PUSH1 0x20 PUSH0 KECCAK256 SWAP1 POP SWAP2 SWAP1 POP JUMP JUMPDEST PUSH0 PUSH1 0x20 PUSH1 0x1F DUP4 ADD DIV SWAP1 POP SWAP2 SWAP1 POP JUMP JUMPDEST PUSH0 DUP3 DUP3 SHL SWAP1 POP SWAP3 SWAP2 POP POP JUMP JUMPDEST PUSH0 PUSH1 0x8 DUP4 MUL PUSH2 0xD36 PUSH32 0xFFFFFFFFFFFFFFFFFFFFFFFFFFFFFFFFFFFFFFFFFFFFFFFFFFFFFFFFFFFFFFFF DUP3 PUSH2 0xCFB JUMP JUMPDEST PUSH2 0xD40 DUP7 DUP4 PUSH2 0xCFB JUMP JUMPDEST SWAP6 POP DUP1 NOT DUP5 AND SWAP4 POP DUP1 DUP7 AND DUP5 OR SWAP3 POP POP POP SWAP4 SWAP3 POP POP POP JUMP JUMPDEST PUSH0 DUP2 SWAP1 POP SWAP2 SWAP1 POP JUMP JUMPDEST PUSH0 PUSH2 0xD7B PUSH2 0xD76 PUSH2 0xD71 DUP5 PUSH2 0x89A JUMP JUMPDEST PUSH2 0xD58 JUMP JUMPDEST PUSH2 0x89A JUMP JUMPDEST SWAP1 POP SWAP2 SWAP1 POP JUMP JUMPDEST PUSH0 DUP2 SWAP1 POP SWAP2 SWAP1 POP JUMP JUMPDEST PUSH2 0xD94 DUP4 PUSH2 0xD61 JUMP JUMPDEST PUSH2 0xDA8 PUSH2 0xDA0 DUP3 PUSH2 0xD82 JUMP JUMPDEST DUP5 DUP5 SLOAD PUSH2 0xD07 JUMP JUMPDEST DUP3 SSTORE POP POP POP POP JUMP JUMPDEST PUSH0 PUSH0 SWAP1 POP SWAP1 JUMP JUMPDEST PUSH2 0xDBF PUSH2 0xDB0 JUMP JUMPDEST PUSH2 0xDCA DUP2 DUP5 DUP5 PUSH2 0xD8B JUMP JUMPDEST POP POP POP JUMP JUMPDEST JUMPDEST DUP2 DUP2 LT ISZERO PUSH2 0xDED JUMPI PUSH2 0xDE2 PUSH0 DUP3 PUSH2 0xDB7 JUMP JUMPDEST PUSH1 0x1 DUP2 ADD SWAP1 POP PUSH2 0xDD0 JUMP JUMPDEST POP POP JUMP JUMPDEST PUSH1 0x1F DUP3 GT ISZERO PUSH2 0xE32 JUMPI PUSH2 0xE03 DUP2 PUSH2 0xCDA JUMP JUMPDEST PUSH2 0xE0C DUP5 PUSH2 0xCEC JUMP JUMPDEST DUP2 ADD PUSH1 0x20 DUP6 LT ISZERO PUSH2 0xE1B JUMPI DUP2 SWAP1 POP JUMPDEST PUSH2 0xE2F PUSH2 0xE27 DUP6 PUSH2 0xCEC JUMP JUMPDEST DUP4 ADD DUP3 PUSH2 0xDCF JUMP JUMPDEST POP POP JUMPDEST POP POP POP JUMP JUMPDEST PUSH0 DUP3 DUP3 SHR SWAP1 POP SWAP3 SWAP2 POP POP JUMP JUMPDEST PUSH0 PUSH2 0xE52 PUSH0 NOT DUP5 PUSH1 0x8 MUL PUSH2 0xE37 JUMP JUMPDEST NOT DUP1 DUP4 AND SWAP2 POP POP SWAP3 SWAP2 POP POP JUMP JUMPDEST PUSH0 PUSH2 0xE6A DUP4 DUP4 PUSH2 0xE43 JUMP JUMPDEST SWAP2 POP DUP3 PUSH1 0x2 MUL DUP3 OR SWAP1 POP SWAP3 SWAP2 POP POP JUMP JUMPDEST PUSH2 0xE83 DUP3 PUSH2 0xB4B JUMP JUMPDEST PUSH8 0xFFFFFFFFFFFFFFFF DUP2 GT ISZERO PUSH2 0xE9C JUMPI PUSH2 0xE9B PUSH2 0x8E3 JUMP JUMPDEST JUMPDEST PUSH2 0xEA6 DUP3 SLOAD PUSH2 0xBEA JUMP JUMPDEST PUSH2 0xEB1 DUP3 DUP3 DUP6 PUSH2 0xDF1 JUMP JUMPDEST PUSH0 PUSH1 0x20 SWAP1 POP PUSH1 0x1F DUP4 GT PUSH1 0x1 DUP2 EQ PUSH2 0xEE2 JUMPI PUSH0 DUP5 ISZERO PUSH2 0xED0 JUMPI DUP3 DUP8 ADD MLOAD SWAP1 POP JUMPDEST PUSH2 0xEDA DUP6 DUP3 PUSH2 0xE5F JUMP JUMPDEST DUP7 SSTORE POP PUSH2 0xF41 JUMP JUMPDEST PUSH1 0x1F NOT DUP5 AND PUSH2 0xEF0 DUP7 PUSH2 0xCDA JUMP JUMPDEST PUSH0 JUMPDEST DUP3 DUP2 LT ISZERO PUSH2 0xF17 JUMPI DUP5 DUP10 ADD MLOAD DUP3 SSTORE PUSH1 0x1 DUP3 ADD SWAP2 POP PUSH1 0x20 DUP6 ADD SWAP5 POP PUSH1 0x20 DUP2 ADD SWAP1 POP PUSH2 0xEF2 JUMP JUMPDEST DUP7 DUP4 LT ISZERO PUSH2 0xF34 JUMPI DUP5 DUP10 ADD MLOAD PUSH2 0xF30 PUSH1 0x1F DUP10 AND DUP3 PUSH2 0xE43 JUMP JUMPDEST DUP4 SSTORE POP JUMPDEST PUSH1 0x1 PUSH1 0x2 DUP9 MUL ADD DUP9 SSTORE POP POP POP JUMPDEST POP POP POP POP POP POP JUMP JUMPDEST PUSH32 0x496E646578206F7574206F6620626F756E647300000000000000000000000000 PUSH0 DUP3 ADD MSTORE POP JUMP JUMPDEST PUSH0 PUSH2 0xF7D PUSH1 0x13 DUP4 PUSH2 0xAD5 JUMP JUMPDEST SWAP2 POP PUSH2 0xF88 DUP3 PUSH2 0xF49 JUMP JUMPDEST PUSH1 0x20 DUP3 ADD SWAP1 POP SWAP2 SWAP1 POP JUMP JUMPDEST PUSH0 PUSH1 0x20 DUP3 ADD SWAP1 POP DUP2 DUP2 SUB PUSH0 DUP4 ADD MSTORE PUSH2 0xFAA DUP2 PUSH2 0xF71 JUMP JUMPDEST SWAP1 POP SWAP2 SWAP1 POP JUMP INVALID LOG2 PUSH5 0x6970667358 0x22 SLT KECCAK256 DUP16 EXTSTATICCALL BLOBHASH 0x28 0x26 0x2C PUSH4 0xC59F394C 0x2A MUL PUSH12 0x13D097BEBA762065C625E063 0xCF 0xE PUSH0 MLOAD 0xBE RETURNDATASIZE PUSH5 0x736F6C6343 STOP ADDMOD 0x1E STOP CALLER "
		},
		"gasEstimates": {
			"creation": {
				"codeDepositCost": "814200",
				"executionCost": "infinite",
				"totalCost": "infinite"
			},
			"external": {
				"appendToBytes(bytes1)": "infinite",
				"arr1(uint256)": "infinite",
				"b1()": "infinite",
				"clearBytes()": "infinite",
				"clearDynamicArray()": "infinite",
				"getDynamicArrayLength()": "2462",
				"getElement(uint256)": "infinite",
				"getFromDynamicArray(uint256)": "infinite",
				"getLength()": "2630",
				"pushToDynamicArray(bytes)": "infinite",
				"toString()": "infinite"
			}
		},
		"methodIdentifiers": {
			"appendToBytes(bytes1)": "0d273ad1",
			"arr1(uint256)": "6987b1fb",
			"b1()": "ee495002",
			"clearBytes()": "cc082990",
			"clearDynamicArray()": "9f871cd9",
			"getDynamicArrayLength()": "302c3cfa",
			"getElement(uint256)": "3a7d22bc",
			"getFromDynamicArray(uint256)": "48fe810c",
			"getLength()": "be1c766b",
			"pushToDynamicArray(bytes)": "3412fff0",
			"toString()": "47e46806"
		}
	},
	"abi": [
		{
			"inputs": [
				{
					"internalType": "bytes1",
					"name": "newByte",
					"type": "bytes1"
				}
			],
			"name": "appendToBytes",
			"outputs": [],
			"stateMutability": "nonpayable",
			"type": "function"
		},
		{
			"inputs": [
				{
					"internalType": "uint256",
					"name": "",
					"type": "uint256"
				}
			],
			"name": "arr1",
			"outputs": [
				{
					"internalType": "bytes",
					"name": "",
					"type": "bytes"
				}
			],
			"stateMutability": "view",
			"type": "function"
		},
		{
			"inputs": [],
			"name": "b1",
			"outputs": [
				{
					"internalType": "bytes",
					"name": "",
					"type": "bytes"
				}
			],
			"stateMutability": "view",
			"type": "function"
		},
		{
			"inputs": [],
			"name": "clearBytes",
			"outputs": [],
			"stateMutability": "nonpayable",
			"type": "function"
		},
		{
			"inputs": [],
			"name": "clearDynamicArray",
			"outputs": [],
			"stateMutability": "nonpayable",
			"type": "function"
		},
		{
			"inputs": [],
			"name": "getDynamicArrayLength",
			"outputs": [
				{
					"internalType": "uint256",
					"name": "",
					"type": "uint256"
				}
			],
			"stateMutability": "view",
			"type": "function"
		},
		{
			"inputs": [
				{
					"internalType": "uint256",
					"name": "index",
					"type": "uint256"
				}
			],
			"name": "getElement",
			"outputs": [
				{
					"internalType": "bytes1",
					"name": "",
					"type": "bytes1"
				}
			],
			"stateMutability": "view",
			"type": "function"
		},
		{
			"inputs": [
				{
					"internalType": "uint256",
					"name": "index",
					"type": "uint256"
				}
			],
			"name": "getFromDynamicArray",
			"outputs": [
				{
					"internalType": "bytes",
					"name": "",
					"type": "bytes"
				}
			],
			"stateMutability": "view",
			"type": "function"
		},
		{
			"inputs": [],
			"name": "getLength",
			"outputs": [
				{
					"internalType": "uint256",
					"name": "",
					"type": "uint256"
				}
			],
			"stateMutability": "view",
			"type": "function"
		},
		{
			"inputs": [
				{
					"internalType": "bytes",
					"name": "newBytes",
					"type": "bytes"
				}
			],
			"name": "pushToDynamicArray",
			"outputs": [],
			"stateMutability": "nonpayable",
			"type": "function"
		},
		{
			"inputs": [],
			"name": "toString",
			"outputs": [
				{
					"internalType": "string",
					"name": "",
					"type": "string"
				}
			],
			"stateMutability": "view",
			"type": "function"
		}
	]
}