{
	"data": {
		"bytecode": {
			"linkReferences": {},
			"object": "60806040525f5f5f6101000a81548160ff021916908360028111156024576023608c565b5b021790555060015f60016101000a81548160ff02191690836002811115604b57604a608c565b5b021790555060025f60026101000a81548160ff021916908360028111156072576071608c565b5b0217905550610bb86001553480156087575f5ffd5b5060b9565b7f4e487b71000000000000000000000000000000000000000000000000000000005f52602160045260245ffd5b6105c9806100c65f395ff3fe608060405234801561000f575f5ffd5b5060043610610091575f3560e01c80638da5cb5b116100645780638da5cb5b146100f9578063ba13a57214610103578063d6ae2cdf14610121578063e650f5361461013d578063f08499921461015b57610091565b80631aa356101461009557806362a09477146100b357806375da9f76146100bd5780638424c8d8146100db575b5f5ffd5b61009d610179565b6040516100aa9190610401565b60405180910390f35b6100bb61018a565b005b6100c56101b5565b6040516100d29190610401565b60405180910390f35b6100e36101c7565b6040516100f09190610401565b60405180910390f35b6101016101d9565b005b61010b61021b565b6040516101189190610432565b60405180910390f35b61013b60048036038101906101369190610479565b610221565b005b61014561025e565b6040516101529190610514565b60405180910390f35b610163610387565b604051610170919061057a565b60405180910390f35b5f5f9054906101000a900460ff1681565b60015f5f6101000a81548160ff021916908360028111156101ae576101ad61038e565b5b0217905550565b5f60019054906101000a900460ff1681565b5f60029054906101000a900460ff1681565b5f60028111156101ec576101eb61038e565b5b5f5f9054906101000a900460ff16600281111561020c5761020b61038e565b5b03610219575f6001819055505b565b60015481565b8060028111156102345761023361038e565b5b5f5f6101000a81548160ff021916908360028111156102565761025561038e565b5b021790555050565b60605f60028111156102735761027261038e565b5b5f5f9054906101000a900460ff1660028111156102935761029261038e565b5b036102d5576040518060400160405280600781526020017f416c6c6f776564000000000000000000000000000000000000000000000000008152509050610384565b600160028111156102e9576102e861038e565b5b5f5f9054906101000a900460ff1660028111156103095761030861038e565b5b0361034b576040518060400160405280600b81526020017f4e6f7420416c6c6f7765640000000000000000000000000000000000000000008152509050610384565b6040518060400160405280600481526020017f576169740000000000000000000000000000000000000000000000000000000081525090505b90565b5f5f905090565b7f4e487b71000000000000000000000000000000000000000000000000000000005f52602160045260245ffd5b600381106103cc576103cb61038e565b5b50565b5f8190506103dc826103bb565b919050565b5f6103eb826103cf565b9050919050565b6103fb816103e1565b82525050565b5f6020820190506104145f8301846103f2565b92915050565b5f819050919050565b61042c8161041a565b82525050565b5f6020820190506104455f830184610423565b92915050565b5f5ffd5b6104588161041a565b8114610462575f5ffd5b50565b5f813590506104738161044f565b92915050565b5f6020828403121561048e5761048d61044b565b5b5f61049b84828501610465565b91505092915050565b5f81519050919050565b5f82825260208201905092915050565b8281835e5f83830152505050565b5f601f19601f8301169050919050565b5f6104e6826104a4565b6104f081856104ae565b93506105008185602086016104be565b610509816104cc565b840191505092915050565b5f6020820190508181035f83015261052c81846104dc565b905092915050565b600581106105455761054461038e565b5b50565b5f81905061055582610534565b919050565b5f61056482610548565b9050919050565b6105748161055a565b82525050565b5f60208201905061058d5f83018461056b565b9291505056fea2646970667358221220925fbcdf8fa24fa1cdb87b1e30880493b68e35550bcb26a35eb6aeb37746bf4e64736f6c634300081e0033",
			"opcodes": "PUSH1 0x80 PUSH1 0x40 MSTORE PUSH0 PUSH0 PUSH0 PUSH2 0x100 EXP DUP2 SLOAD DUP2 PUSH1 0xFF MUL NOT AND SWAP1 DUP4 PUSH1 0x2 DUP2 GT ISZERO PUSH1 0x24 JUMPI PUSH1 0x23 PUSH1 0x8C JUMP JUMPDEST JUMPDEST MUL OR SWAP1 SSTORE POP PUSH1 0x1 PUSH0 PUSH1 0x1 PUSH2 0x100 EXP DUP2 SLOAD DUP2 PUSH1 0xFF MUL NOT AND SWAP1 DUP4 PUSH1 0x2 DUP2 GT ISZERO PUSH1 0x4B JUMPI PUSH1 0x4A PUSH1 0x8C JUMP JUMPDEST JUMPDEST MUL OR SWAP1 SSTORE POP PUSH1 0x2 PUSH0 PUSH1 0x2 PUSH2 0x100 EXP DUP2 SLOAD DUP2 PUSH1 0xFF MUL NOT AND SWAP1 DUP4 PUSH1 0x2 DUP2 GT ISZERO PUSH1 0x72 JUMPI PUSH1 0x71 PUSH1 0x8C JUMP JUMPDEST JUMPDEST MUL OR SWAP1 SSTORE POP PUSH2 0xBB8 PUSH1 0x1 SSTORE CALLVALUE DUP1 ISZERO PUSH1 0x87 JUMPI PUSH0 PUSH0 REVERT JUMPDEST POP PUSH1 0xB9 JUMP JUMPDEST PUSH32 0x4E487B7100000000000000000000000000000000000000000000000000000000 PUSH0 MSTORE PUSH1 0x21 PUSH1 0x4 MSTORE PUSH1 0x24 PUSH0 REVERT JUMPDEST PUSH2 0x5C9 DUP1 PUSH2 0xC6 PUSH0 CODECOPY PUSH0 RETURN INVALID PUSH1 0x80 PUSH1 0x40 MSTORE CALLVALUE DUP1 ISZERO PUSH2 0xF JUMPI PUSH0 PUSH0 REVERT JUMPDEST POP PUSH1 0x4 CALLDATASIZE LT PUSH2 0x91 JUMPI PUSH0 CALLDATALOAD PUSH1 0xE0 SHR DUP1 PUSH4 0x8DA5CB5B GT PUSH2 0x64 JUMPI DUP1 PUSH4 0x8DA5CB5B EQ PUSH2 0xF9 JUMPI DUP1 PUSH4 0xBA13A572 EQ PUSH2 0x103 JUMPI DUP1 PUSH4 0xD6AE2CDF EQ PUSH2 0x121 JUMPI DUP1 PUSH4 0xE650F536 EQ PUSH2 0x13D JUMPI DUP1 PUSH4 0xF0849992 EQ PUSH2 0x15B JUMPI PUSH2 0x91 JUMP JUMPDEST DUP1 PUSH4 0x1AA35610 EQ PUSH2 0x95 JUMPI DUP1 PUSH4 0x62A09477 EQ PUSH2 0xB3 JUMPI DUP1 PUSH4 0x75DA9F76 EQ PUSH2 0xBD JUMPI DUP1 PUSH4 0x8424C8D8 EQ PUSH2 0xDB JUMPI JUMPDEST PUSH0 PUSH0 REVERT JUMPDEST PUSH2 0x9D PUSH2 0x179 JUMP JUMPDEST PUSH1 0x40 MLOAD PUSH2 0xAA SWAP2 SWAP1 PUSH2 0x401 JUMP JUMPDEST PUSH1 0x40 MLOAD DUP1 SWAP2 SUB SWAP1 RETURN JUMPDEST PUSH2 0xBB PUSH2 0x18A JUMP JUMPDEST STOP JUMPDEST PUSH2 0xC5 PUSH2 0x1B5 JUMP JUMPDEST PUSH1 0x40 MLOAD PUSH2 0xD2 SWAP2 SWAP1 PUSH2 0x401 JUMP JUMPDEST PUSH1 0x40 MLOAD DUP1 SWAP2 SUB SWAP1 RETURN JUMPDEST PUSH2 0xE3 PUSH2 0x1C7 JUMP JUMPDEST PUSH1 0x40 MLOAD PUSH2 0xF0 SWAP2 SWAP1 PUSH2 0x401 JUMP JUMPDEST PUSH1 0x40 MLOAD DUP1 SWAP2 SUB SWAP1 RETURN JUMPDEST PUSH2 0x101 PUSH2 0x1D9 JUMP JUMPDEST STOP JUMPDEST PUSH2 0x10B PUSH2 0x21B JUMP JUMPDEST PUSH1 0x40 MLOAD PUSH2 0x118 SWAP2 SWAP1 PUSH2 0x432 JUMP JUMPDEST PUSH1 0x40 MLOAD DUP1 SWAP2 SUB SWAP1 RETURN JUMPDEST PUSH2 0x13B PUSH1 0x4 DUP1 CALLDATASIZE SUB DUP2 ADD SWAP1 PUSH2 0x136 SWAP2 SWAP1 PUSH2 0x479 JUMP JUMPDEST PUSH2 0x221 JUMP JUMPDEST STOP JUMPDEST PUSH2 0x145 PUSH2 0x25E JUMP JUMPDEST PUSH1 0x40 MLOAD PUSH2 0x152 SWAP2 SWAP1 PUSH2 0x514 JUMP JUMPDEST PUSH1 0x40 MLOAD DUP1 SWAP2 SUB SWAP1 RETURN JUMPDEST PUSH2 0x163 PUSH2 0x387 JUMP JUMPDEST PUSH1 0x40 MLOAD PUSH2 0x170 SWAP2 SWAP1 PUSH2 0x57A JUMP JUMPDEST PUSH1 0x40 MLOAD DUP1 SWAP2 SUB SWAP1 RETURN JUMPDEST PUSH0 PUSH0 SWAP1 SLOAD SWAP1 PUSH2 0x100 EXP SWAP1 DIV PUSH1 0xFF AND DUP2 JUMP JUMPDEST PUSH1 0x1 PUSH0 PUSH0 PUSH2 0x100 EXP DUP2 SLOAD DUP2 PUSH1 0xFF MUL NOT AND SWAP1 DUP4 PUSH1 0x2 DUP2 GT ISZERO PUSH2 0x1AE JUMPI PUSH2 0x1AD PUSH2 0x38E JUMP JUMPDEST JUMPDEST MUL OR SWAP1 SSTORE POP JUMP JUMPDEST PUSH0 PUSH1 0x1 SWAP1 SLOAD SWAP1 PUSH2 0x100 EXP SWAP1 DIV PUSH1 0xFF AND DUP2 JUMP JUMPDEST PUSH0 PUSH1 0x2 SWAP1 SLOAD SWAP1 PUSH2 0x100 EXP SWAP1 DIV PUSH1 0xFF AND DUP2 JUMP JUMPDEST PUSH0 PUSH1 0x2 DUP2 GT ISZERO PUSH2 0x1EC JUMPI PUSH2 0x1EB PUSH2 0x38E JUMP JUMPDEST JUMPDEST PUSH0 PUSH0 SWAP1 SLOAD SWAP1 PUSH2 0x100 EXP SWAP1 DIV PUSH1 0xFF AND PUSH1 0x2 DUP2 GT ISZERO PUSH2 0x20C JUMPI PUSH2 0x20B PUSH2 0x38E JUMP JUMPDEST JUMPDEST SUB PUSH2 0x219 JUMPI PUSH0 PUSH1 0x1 DUP2 SWAP1 SSTORE POP JUMPDEST JUMP JUMPDEST PUSH1 0x1 SLOAD DUP2 JUMP JUMPDEST DUP1 PUSH1 0x2 DUP2 GT ISZERO PUSH2 0x234 JUMPI PUSH2 0x233 PUSH2 0x38E JUMP JUMPDEST JUMPDEST PUSH0 PUSH0 PUSH2 0x100 EXP DUP2 SLOAD DUP2 PUSH1 0xFF MUL NOT AND SWAP1 DUP4 PUSH1 0x2 DUP2 GT ISZERO PUSH2 0x256 JUMPI PUSH2 0x255 PUSH2 0x38E JUMP JUMPDEST JUMPDEST MUL OR SWAP1 SSTORE POP POP JUMP JUMPDEST PUSH1 0x60 PUSH0 PUSH1 0x2 DUP2 GT ISZERO PUSH2 0x273 JUMPI PUSH2 0x272 PUSH2 0x38E JUMP JUMPDEST JUMPDEST PUSH0 PUSH0 SWAP1 SLOAD SWAP1 PUSH2 0x100 EXP SWAP1 DIV PUSH1 0xFF AND PUSH1 0x2 DUP2 GT ISZERO PUSH2 0x293 JUMPI PUSH2 0x292 PUSH2 0x38E JUMP JUMPDEST JUMPDEST SUB PUSH2 0x2D5 JUMPI PUSH1 0x40 MLOAD DUP1 PUSH1 0x40 ADD PUSH1 0x40 MSTORE DUP1 PUSH1 0x7 DUP2 MSTORE PUSH1 0x20 ADD PUSH32 0x416C6C6F77656400000000000000000000000000000000000000000000000000 DUP2 MSTORE POP SWAP1 POP PUSH2 0x384 JUMP JUMPDEST PUSH1 0x1 PUSH1 0x2 DUP2 GT ISZERO PUSH2 0x2E9 JUMPI PUSH2 0x2E8 PUSH2 0x38E JUMP JUMPDEST JUMPDEST PUSH0 PUSH0 SWAP1 SLOAD SWAP1 PUSH2 0x100 EXP SWAP1 DIV PUSH1 0xFF AND PUSH1 0x2 DUP2 GT ISZERO PUSH2 0x309 JUMPI PUSH2 0x308 PUSH2 0x38E JUMP JUMPDEST JUMPDEST SUB PUSH2 0x34B JUMPI PUSH1 0x40 MLOAD DUP1 PUSH1 0x40 ADD PUSH1 0x40 MSTORE DUP1 PUSH1 0xB DUP2 MSTORE PUSH1 0x20 ADD PUSH32 0x4E6F7420416C6C6F776564000000000000000000000000000000000000000000 DUP2 MSTORE POP SWAP1 POP PUSH2 0x384 JUMP JUMPDEST PUSH1 0x40 MLOAD DUP1 PUSH1 0x40 ADD PUSH1 0x40 MSTORE DUP1 PUSH1 0x4 DUP2 MSTORE PUSH1 0x20 ADD PUSH32 0x5761697400000000000000000000000000000000000000000000000000000000 DUP2 MSTORE POP SWAP1 POP JUMPDEST SWAP1 JUMP JUMPDEST PUSH0 PUSH0 SWAP1 POP SWAP1 JUMP JUMPDEST PUSH32 0x4E487B7100000000000000000000000000000000000000000000000000000000 PUSH0 MSTORE PUSH1 0x21 PUSH1 0x4 MSTORE PUSH1 0x24 PUSH0 REVERT JUMPDEST PUSH1 0x3 DUP2 LT PUSH2 0x3CC JUMPI PUSH2 0x3CB PUSH2 0x38E JUMP JUMPDEST JUMPDEST POP JUMP JUMPDEST PUSH0 DUP2 SWAP1 POP PUSH2 0x3DC DUP3 PUSH2 0x3BB JUMP JUMPDEST SWAP2 SWAP1 POP JUMP JUMPDEST PUSH0 PUSH2 0x3EB DUP3 PUSH2 0x3CF JUMP JUMPDEST SWAP1 POP SWAP2 SWAP1 POP JUMP JUMPDEST PUSH2 0x3FB DUP2 PUSH2 0x3E1 JUMP JUMPDEST DUP3 MSTORE POP POP JUMP JUMPDEST PUSH0 PUSH1 0x20 DUP3 ADD SWAP1 POP PUSH2 0x414 PUSH0 DUP4 ADD DUP5 PUSH2 0x3F2 JUMP JUMPDEST SWAP3 SWAP2 POP POP JUMP JUMPDEST PUSH0 DUP2 SWAP1 POP SWAP2 SWAP1 POP JUMP JUMPDEST PUSH2 0x42C DUP2 PUSH2 0x41A JUMP JUMPDEST DUP3 MSTORE POP POP JUMP JUMPDEST PUSH0 PUSH1 0x20 DUP3 ADD SWAP1 POP PUSH2 0x445 PUSH0 DUP4 ADD DUP5 PUSH2 0x423 JUMP JUMPDEST SWAP3 SWAP2 POP POP JUMP JUMPDEST PUSH0 PUSH0 REVERT JUMPDEST PUSH2 0x458 DUP2 PUSH2 0x41A JUMP JUMPDEST DUP2 EQ PUSH2 0x462 JUMPI PUSH0 PUSH0 REVERT JUMPDEST POP JUMP JUMPDEST PUSH0 DUP2 CALLDATALOAD SWAP1 POP PUSH2 0x473 DUP2 PUSH2 0x44F JUMP JUMPDEST SWAP3 SWAP2 POP POP JUMP JUMPDEST PUSH0 PUSH1 0x20 DUP3 DUP5 SUB SLT ISZERO PUSH2 0x48E JUMPI PUSH2 0x48D PUSH2 0x44B JUMP JUMPDEST JUMPDEST PUSH0 PUSH2 0x49B DUP5 DUP3 DUP6 ADD PUSH2 0x465 JUMP JUMPDEST SWAP2 POP POP SWAP3 SWAP2 POP POP JUMP JUMPDEST PUSH0 DUP2 MLOAD SWAP1 POP SWAP2 SWAP1 POP JUMP JUMPDEST PUSH0 DUP3 DUP3 MSTORE PUSH1 0x20 DUP3 ADD SWAP1 POP SWAP3 SWAP2 POP POP JUMP JUMPDEST DUP3 DUP2 DUP4 MCOPY PUSH0 DUP4 DUP4 ADD MSTORE POP POP POP JUMP JUMPDEST PUSH0 PUSH1 0x1F NOT PUSH1 0x1F DUP4 ADD AND SWAP1 POP SWAP2 SWAP1 POP JUMP JUMPDEST PUSH0 PUSH2 0x4E6 DUP3 PUSH2 0x4A4 JUMP JUMPDEST PUSH2 0x4F0 DUP2 DUP6 PUSH2 0x4AE JUMP JUMPDEST SWAP4 POP PUSH2 0x500 DUP2 DUP6 PUSH1 0x20 DUP7 ADD PUSH2 0x4BE JUMP JUMPDEST PUSH2 0x509 DUP2 PUSH2 0x4CC JUMP JUMPDEST DUP5 ADD SWAP2 POP POP SWAP3 SWAP2 POP POP JUMP JUMPDEST PUSH0 PUSH1 0x20 DUP3 ADD SWAP1 POP DUP2 DUP2 SUB PUSH0 DUP4 ADD MSTORE PUSH2 0x52C DUP2 DUP5 PUSH2 0x4DC JUMP JUMPDEST SWAP1 POP SWAP3 SWAP2 POP POP JUMP JUMPDEST PUSH1 0x5 DUP2 LT PUSH2 0x545 JUMPI PUSH2 0x544 PUSH2 0x38E JUMP JUMPDEST JUMPDEST POP JUMP JUMPDEST PUSH0 DUP2 SWAP1 POP PUSH2 0x555 DUP3 PUSH2 0x534 JUMP JUMPDEST SWAP2 SWAP1 POP JUMP JUMPDEST PUSH0 PUSH2 0x564 DUP3 PUSH2 0x548 JUMP JUMPDEST SWAP1 POP SWAP2 SWAP1 POP JUMP JUMPDEST PUSH2 0x574 DUP2 PUSH2 0x55A JUMP JUMPDEST DUP3 MSTORE POP POP JUMP JUMPDEST PUSH0 PUSH1 0x20 DUP3 ADD SWAP1 POP PUSH2 0x58D PUSH0 DUP4 ADD DUP5 PUSH2 0x56B JUMP JUMPDEST SWAP3 SWAP2 POP POP JUMP INVALID LOG2 PUSH5 0x6970667358 0x22 SLT KECCAK256 SWAP3 PUSH0 0xBC 0xDF DUP16 LOG2 0x4F LOG1 0xCD 0xB8 PUSH28 0x1E30880493B68E35550BCB26A35EB6AEB37746BF4E64736F6C634300 ADDMOD 0x1E STOP CALLER "
		},
		"gasEstimates": {
			"creation": {
				"codeDepositCost": "296200",
				"executionCost": "95409",
				"totalCost": "391609"
			},
			"external": {
				"changeOwner()": "24451",
				"getDefaultSize()": "513",
				"getUserStatus()": "infinite",
				"lottery()": "2447",
				"owner()": "7364",
				"setUserStatus(uint256)": "24756",
				"u1()": "2554",
				"u2()": "2649",
				"u3()": "2671"
			}
		},
		"methodIdentifiers": {
			"changeOwner()": "62a09477",
			"getDefaultSize()": "f0849992",
			"getUserStatus()": "e650f536",
			"lottery()": "ba13a572",
			"owner()": "8da5cb5b",
			"setUserStatus(uint256)": "d6ae2cdf",
			"u1()": "1aa35610",
			"u2()": "75da9f76",
			"u3()": "8424c8d8"
		}
	},
	"abi": [
		{
			"inputs": [],
			"name": "changeOwner",
			"outputs": [],
			"stateMutability": "nonpayable",
			"type": "function"
		},
		{
			"inputs": [],
			"name": "getDefaultSize",
			"outputs": [
				{
					"internalType": "enum enumDemo.size",
					"name": "",
					"type": "uint8"
				}
			],
			"stateMutability": "pure",
			"type": "function"
		},
		{
			"inputs": [],
			"name": "getUserStatus",
			"outputs": [
				{
					"internalType": "string",
					"name": "",
					"type": "string"
				}
			],
			"stateMutability": "view",
			"type": "function"
		},
		{
			"inputs": [],
			"name": "lottery",
			"outputs": [
				{
					"internalType": "uint256",
					"name": "",
					"type": "uint256"
				}
			],
			"stateMutability": "view",
			"type": "function"
		},
		{
			"inputs": [],
			"name": "owner",
			"outputs": [],
			"stateMutability": "nonpayable",
			"type": "function"
		},
		{
			"inputs": [
				{
					"internalType": "uint256",
					"name": "newStatus",
					"type": "uint256"
				}
			],
			"name": "setUserStatus",
			"outputs": [],
			"stateMutability": "nonpayable",
			"type": "function"
		},
		{
			"inputs": [],
			"name": "u1",
			"outputs": [
				{
					"internalType": "enum enumDemo.user",
					"name": "",
					"type": "uint8"
				}
			],
			"stateMutability": "view",
			"type": "function"
		},
		{
			"inputs": [],
			"name": "u2",
			"outputs": [
				{
					"internalType": "enum enumDemo.user",
					"name": "",
					"type": "uint8"
				}
			],
			"stateMutability": "view",
			"type": "function"
		},
		{
			"inputs": [],
			"name": "u3",
			"outputs": [
				{
					"internalType": "enum enumDemo.user",
					"name": "",
					"type": "uint8"
				}
			],
			"stateMutability": "view",
			"type": "function"
		}
	]
}