{
	"data": {
		"bytecode": {
			"linkReferences": {},
			"object": "60a060405234801561000f575f5ffd5b506040516110d73803806110d783398181016040528101906100319190610202565b3373ffffffffffffffffffffffffffffffffffffffff1660808173ffffffffffffffffffffffffffffffffffffffff1681525050815f90816100739190610463565b50806001819055505050610532565b5f604051905090565b5f5ffd5b5f5ffd5b5f5ffd5b5f5ffd5b5f601f19601f8301169050919050565b7f4e487b71000000000000000000000000000000000000000000000000000000005f52604160045260245ffd5b6100e18261009b565b810181811067ffffffffffffffff82111715610100576100ff6100ab565b5b80604052505050565b5f610112610082565b905061011e82826100d8565b919050565b5f67ffffffffffffffff82111561013d5761013c6100ab565b5b6101468261009b565b9050602081019050919050565b8281835e5f83830152505050565b5f61017361016e84610123565b610109565b90508281526020810184848401111561018f5761018e610097565b5b61019a848285610153565b509392505050565b5f82601f8301126101b6576101b5610093565b5b81516101c6848260208601610161565b91505092915050565b5f819050919050565b6101e1816101cf565b81146101eb575f5ffd5b50565b5f815190506101fc816101d8565b92915050565b5f5f604083850312156102185761021761008b565b5b5f83015167ffffffffffffffff8111156102355761023461008f565b5b610241858286016101a2565b9250506020610252858286016101ee565b9150509250929050565b5f81519050919050565b7f4e487b71000000000000000000000000000000000000000000000000000000005f52602260045260245ffd5b5f60028204905060018216806102aa57607f821691505b6020821081036102bd576102bc610266565b5b50919050565b5f819050815f5260205f209050919050565b5f6020601f8301049050919050565b5f82821b905092915050565b5f6008830261031f7fffffffffffffffffffffffffffffffffffffffffffffffffffffffffffffffff826102e4565b61032986836102e4565b95508019841693508086168417925050509392505050565b5f819050919050565b5f61036461035f61035a846101cf565b610341565b6101cf565b9050919050565b5f819050919050565b61037d8361034a565b6103916103898261036b565b8484546102f0565b825550505050565b5f5f905090565b6103a8610399565b6103b3818484610374565b505050565b5b818110156103d6576103cb5f826103a0565b6001810190506103b9565b5050565b601f82111561041b576103ec816102c3565b6103f5846102d5565b81016020851015610404578190505b610418610410856102d5565b8301826103b8565b50505b505050565b5f82821c905092915050565b5f61043b5f1984600802610420565b1980831691505092915050565b5f610453838361042c565b9150826002028217905092915050565b61046c8261025c565b67ffffffffffffffff811115610485576104846100ab565b5b61048f8254610293565b61049a8282856103da565b5f60209050601f8311600181146104cb575f84156104b9578287015190505b6104c38582610448565b86555061052a565b601f1984166104d9866102c3565b5f5b82811015610500578489015182556001820191506020850194506020810190506104db565b8683101561051d5784890151610519601f89168261042c565b8355505b6001600288020188555050505b505050505050565b608051610b7f6105585f395f818161026f0152818161029c01526103750152610b7f5ff3fe608060405234801561000f575f5ffd5b506004361061007b575f3560e01c80638da5cb5b116100595780638da5cb5b146100d9578063967e6e65146100f7578063c47f002714610115578063d5dcf127146101315761007b565b806306fdde031461007f57806317d7de7c1461009d578063262a9dff146100bb575b5f5ffd5b61008761014d565b60405161009491906104b6565b60405180910390f35b6100a56101d8565b6040516100b291906104b6565b60405180910390f35b6100c3610267565b6040516100d091906104ee565b60405180910390f35b6100e161026d565b6040516100ee9190610546565b60405180910390f35b6100ff610291565b60405161010c91906104ee565b60405180910390f35b61012f600480360381019061012a919061069c565b61029a565b005b61014b6004803603810190610146919061070d565b610373565b005b5f805461015990610765565b80601f016020809104026020016040519081016040528092919081815260200182805461018590610765565b80156101d05780601f106101a7576101008083540402835291602001916101d0565b820191905f5260205f20905b8154815290600101906020018083116101b357829003601f168201915b505050505081565b60605f80546101e690610765565b80601f016020809104026020016040519081016040528092919081815260200182805461021290610765565b801561025d5780601f106102345761010080835404028352916020019161025d565b820191905f5260205f20905b81548152906001019060200180831161024057829003601f168201915b5050505050905090565b60015481565b7f000000000000000000000000000000000000000000000000000000000000000081565b5f600154905090565b7f000000000000000000000000000000000000000000000000000000000000000073ffffffffffffffffffffffffffffffffffffffff163373ffffffffffffffffffffffffffffffffffffffff1614610328576040517f08c379a000000000000000000000000000000000000000000000000000000000815260040161031f906107df565b60405180910390fd5b7f6c20b91d1723b78732eba64ff11ebd7966a6e4af568a00fa4f6b72c20f58b02a5f82604051610359929190610890565b60405180910390a1805f908161036f9190610a53565b5050565b7f000000000000000000000000000000000000000000000000000000000000000073ffffffffffffffffffffffffffffffffffffffff163373ffffffffffffffffffffffffffffffffffffffff1614610401576040517f08c379a00000000000000000000000000000000000000000000000000000000081526004016103f8906107df565b60405180910390fd5b7f7410c0afe6d8aeee69e5d5bc9fb55a758d3a524e619d2efdd16cc648092b886460015482604051610434929190610b22565b60405180910390a18060018190555050565b5f81519050919050565b5f82825260208201905092915050565b8281835e5f83830152505050565b5f601f19601f8301169050919050565b5f61048882610446565b6104928185610450565b93506104a2818560208601610460565b6104ab8161046e565b840191505092915050565b5f6020820190508181035f8301526104ce818461047e565b905092915050565b5f819050919050565b6104e8816104d6565b82525050565b5f6020820190506105015f8301846104df565b92915050565b5f73ffffffffffffffffffffffffffffffffffffffff82169050919050565b5f61053082610507565b9050919050565b61054081610526565b82525050565b5f6020820190506105595f830184610537565b92915050565b5f604051905090565b5f5ffd5b5f5ffd5b5f5ffd5b5f5ffd5b7f4e487b71000000000000000000000000000000000000000000000000000000005f52604160045260245ffd5b6105ae8261046e565b810181811067ffffffffffffffff821117156105cd576105cc610578565b5b80604052505050565b5f6105df61055f565b90506105eb82826105a5565b919050565b5f67ffffffffffffffff82111561060a57610609610578565b5b6106138261046e565b9050602081019050919050565b828183375f83830152505050565b5f61064061063b846105f0565b6105d6565b90508281526020810184848401111561065c5761065b610574565b5b610667848285610620565b509392505050565b5f82601f83011261068357610682610570565b5b813561069384826020860161062e565b91505092915050565b5f602082840312156106b1576106b0610568565b5b5f82013567ffffffffffffffff8111156106ce576106cd61056c565b5b6106da8482850161066f565b91505092915050565b6106ec816104d6565b81146106f6575f5ffd5b50565b5f81359050610707816106e3565b92915050565b5f6020828403121561072257610721610568565b5b5f61072f848285016106f9565b91505092915050565b7f4e487b71000000000000000000000000000000000000000000000000000000005f52602260045260245ffd5b5f600282049050600182168061077c57607f821691505b60208210810361078f5761078e610738565b5b50919050565b7f4e6f74206f776e657200000000000000000000000000000000000000000000005f82015250565b5f6107c9600983610450565b91506107d482610795565b602082019050919050565b5f6020820190508181035f8301526107f6816107bd565b9050919050565b5f819050815f5260205f209050919050565b5f815461081b81610765565b6108258186610450565b9450600182165f811461083f576001811461085557610887565b60ff198316865281151560200286019350610887565b61085e856107fd565b5f5b8381101561087f57815481890152600182019150602081019050610860565b808801955050505b50505092915050565b5f6040820190508181035f8301526108a8818561080f565b905081810360208301526108bc818461047e565b90509392505050565b5f6020601f8301049050919050565b5f82821b905092915050565b5f6008830261090f7fffffffffffffffffffffffffffffffffffffffffffffffffffffffffffffffff826108d4565b61091986836108d4565b95508019841693508086168417925050509392505050565b5f819050919050565b5f61095461094f61094a846104d6565b610931565b6104d6565b9050919050565b5f819050919050565b61096d8361093a565b6109816109798261095b565b8484546108e0565b825550505050565b5f5f905090565b610998610989565b6109a3818484610964565b505050565b5b818110156109c6576109bb5f82610990565b6001810190506109a9565b5050565b601f821115610a0b576109dc816107fd565b6109e5846108c5565b810160208510156109f4578190505b610a08610a00856108c5565b8301826109a8565b50505b505050565b5f82821c905092915050565b5f610a2b5f1984600802610a10565b1980831691505092915050565b5f610a438383610a1c565b9150826002028217905092915050565b610a5c82610446565b67ffffffffffffffff811115610a7557610a74610578565b5b610a7f8254610765565b610a8a8282856109ca565b5f60209050601f831160018114610abb575f8415610aa9578287015190505b610ab38582610a38565b865550610b1a565b601f198416610ac9866107fd565b5f5b82811015610af057848901518255600182019150602085019450602081019050610acb565b86831015610b0d5784890151610b09601f891682610a1c565b8355505b6001600288020188555050505b505050505050565b5f604082019050610b355f8301856104df565b610b4260208301846104df565b939250505056fea2646970667358221220426de201a968e785f5ff5d56e8e9c64d7576fae6a9e95e9dc8627adeb7d5b14364736f6c634300081e0033",
			"opcodes": "PUSH1 0xA0 PUSH1 0x40 MSTORE CALLVALUE DUP1 ISZERO PUSH2 0xF JUMPI PUSH0 PUSH0 REVERT JUMPDEST POP PUSH1 0x40 MLOAD PUSH2 0x10D7 CODESIZE SUB DUP1 PUSH2 0x10D7 DUP4 CODECOPY DUP2 DUP2 ADD PUSH1 0x40 MSTORE DUP2 ADD SWAP1 PUSH2 0x31 SWAP2 SWAP1 PUSH2 0x202 JUMP JUMPDEST CALLER PUSH20 0xFFFFFFFFFFFFFFFFFFFFFFFFFFFFFFFFFFFFFFFF AND PUSH1 0x80 DUP2 PUSH20 0xFFFFFFFFFFFFFFFFFFFFFFFFFFFFFFFFFFFFFFFF AND DUP2 MSTORE POP POP DUP2 PUSH0 SWAP1 DUP2 PUSH2 0x73 SWAP2 SWAP1 PUSH2 0x463 JUMP JUMPDEST POP DUP1 PUSH1 0x1 DUP2 SWAP1 SSTORE POP POP POP PUSH2 0x532 JUMP JUMPDEST PUSH0 PUSH1 0x40 MLOAD SWAP1 POP SWAP1 JUMP JUMPDEST PUSH0 PUSH0 REVERT JUMPDEST PUSH0 PUSH0 REVERT JUMPDEST PUSH0 PUSH0 REVERT JUMPDEST PUSH0 PUSH0 REVERT JUMPDEST PUSH0 PUSH1 0x1F NOT PUSH1 0x1F DUP4 ADD AND SWAP1 POP SWAP2 SWAP1 POP JUMP JUMPDEST PUSH32 0x4E487B7100000000000000000000000000000000000000000000000000000000 PUSH0 MSTORE PUSH1 0x41 PUSH1 0x4 MSTORE PUSH1 0x24 PUSH0 REVERT JUMPDEST PUSH2 0xE1 DUP3 PUSH2 0x9B JUMP JUMPDEST DUP2 ADD DUP2 DUP2 LT PUSH8 0xFFFFFFFFFFFFFFFF DUP3 GT OR ISZERO PUSH2 0x100 JUMPI PUSH2 0xFF PUSH2 0xAB JUMP JUMPDEST JUMPDEST DUP1 PUSH1 0x40 MSTORE POP POP POP JUMP JUMPDEST PUSH0 PUSH2 0x112 PUSH2 0x82 JUMP JUMPDEST SWAP1 POP PUSH2 0x11E DUP3 DUP3 PUSH2 0xD8 JUMP JUMPDEST SWAP2 SWAP1 POP JUMP JUMPDEST PUSH0 PUSH8 0xFFFFFFFFFFFFFFFF DUP3 GT ISZERO PUSH2 0x13D JUMPI PUSH2 0x13C PUSH2 0xAB JUMP JUMPDEST JUMPDEST PUSH2 0x146 DUP3 PUSH2 0x9B JUMP JUMPDEST SWAP1 POP PUSH1 0x20 DUP2 ADD SWAP1 POP SWAP2 SWAP1 POP JUMP JUMPDEST DUP3 DUP2 DUP4 MCOPY PUSH0 DUP4 DUP4 ADD MSTORE POP POP POP JUMP JUMPDEST PUSH0 PUSH2 0x173 PUSH2 0x16E DUP5 PUSH2 0x123 JUMP JUMPDEST PUSH2 0x109 JUMP JUMPDEST SWAP1 POP DUP3 DUP2 MSTORE PUSH1 0x20 DUP2 ADD DUP5 DUP5 DUP5 ADD GT ISZERO PUSH2 0x18F JUMPI PUSH2 0x18E PUSH2 0x97 JUMP JUMPDEST JUMPDEST PUSH2 0x19A DUP5 DUP3 DUP6 PUSH2 0x153 JUMP JUMPDEST POP SWAP4 SWAP3 POP POP POP JUMP JUMPDEST PUSH0 DUP3 PUSH1 0x1F DUP4 ADD SLT PUSH2 0x1B6 JUMPI PUSH2 0x1B5 PUSH2 0x93 JUMP JUMPDEST JUMPDEST DUP2 MLOAD PUSH2 0x1C6 DUP5 DUP3 PUSH1 0x20 DUP7 ADD PUSH2 0x161 JUMP JUMPDEST SWAP2 POP POP SWAP3 SWAP2 POP POP JUMP JUMPDEST PUSH0 DUP2 SWAP1 POP SWAP2 SWAP1 POP JUMP JUMPDEST PUSH2 0x1E1 DUP2 PUSH2 0x1CF JUMP JUMPDEST DUP2 EQ PUSH2 0x1EB JUMPI PUSH0 PUSH0 REVERT JUMPDEST POP JUMP JUMPDEST PUSH0 DUP2 MLOAD SWAP1 POP PUSH2 0x1FC DUP2 PUSH2 0x1D8 JUMP JUMPDEST SWAP3 SWAP2 POP POP JUMP JUMPDEST PUSH0 PUSH0 PUSH1 0x40 DUP4 DUP6 SUB SLT ISZERO PUSH2 0x218 JUMPI PUSH2 0x217 PUSH2 0x8B JUMP JUMPDEST JUMPDEST PUSH0 DUP4 ADD MLOAD PUSH8 0xFFFFFFFFFFFFFFFF DUP2 GT ISZERO PUSH2 0x235 JUMPI PUSH2 0x234 PUSH2 0x8F JUMP JUMPDEST JUMPDEST PUSH2 0x241 DUP6 DUP3 DUP7 ADD PUSH2 0x1A2 JUMP JUMPDEST SWAP3 POP POP PUSH1 0x20 PUSH2 0x252 DUP6 DUP3 DUP7 ADD PUSH2 0x1EE JUMP JUMPDEST SWAP2 POP POP SWAP3 POP SWAP3 SWAP1 POP JUMP JUMPDEST PUSH0 DUP2 MLOAD SWAP1 POP SWAP2 SWAP1 POP JUMP JUMPDEST PUSH32 0x4E487B7100000000000000000000000000000000000000000000000000000000 PUSH0 MSTORE PUSH1 0x22 PUSH1 0x4 MSTORE PUSH1 0x24 PUSH0 REVERT JUMPDEST PUSH0 PUSH1 0x2 DUP3 DIV SWAP1 POP PUSH1 0x1 DUP3 AND DUP1 PUSH2 0x2AA JUMPI PUSH1 0x7F DUP3 AND SWAP2 POP JUMPDEST PUSH1 0x20 DUP3 LT DUP2 SUB PUSH2 0x2BD JUMPI PUSH2 0x2BC PUSH2 0x266 JUMP JUMPDEST JUMPDEST POP SWAP2 SWAP1 POP JUMP JUMPDEST PUSH0 DUP2 SWAP1 POP DUP2 PUSH0 MSTORE PUSH1 0x20 PUSH0 KECCAK256 SWAP1 POP SWAP2 SWAP1 POP JUMP JUMPDEST PUSH0 PUSH1 0x20 PUSH1 0x1F DUP4 ADD DIV SWAP1 POP SWAP2 SWAP1 POP JUMP JUMPDEST PUSH0 DUP3 DUP3 SHL SWAP1 POP SWAP3 SWAP2 POP POP JUMP JUMPDEST PUSH0 PUSH1 0x8 DUP4 MUL PUSH2 0x31F PUSH32 0xFFFFFFFFFFFFFFFFFFFFFFFFFFFFFFFFFFFFFFFFFFFFFFFFFFFFFFFFFFFFFFFF DUP3 PUSH2 0x2E4 JUMP JUMPDEST PUSH2 0x329 DUP7 DUP4 PUSH2 0x2E4 JUMP JUMPDEST SWAP6 POP DUP1 NOT DUP5 AND SWAP4 POP DUP1 DUP7 AND DUP5 OR SWAP3 POP POP POP SWAP4 SWAP3 POP POP POP JUMP JUMPDEST PUSH0 DUP2 SWAP1 POP SWAP2 SWAP1 POP JUMP JUMPDEST PUSH0 PUSH2 0x364 PUSH2 0x35F PUSH2 0x35A DUP5 PUSH2 0x1CF JUMP JUMPDEST PUSH2 0x341 JUMP JUMPDEST PUSH2 0x1CF JUMP JUMPDEST SWAP1 POP SWAP2 SWAP1 POP JUMP JUMPDEST PUSH0 DUP2 SWAP1 POP SWAP2 SWAP1 POP JUMP JUMPDEST PUSH2 0x37D DUP4 PUSH2 0x34A JUMP JUMPDEST PUSH2 0x391 PUSH2 0x389 DUP3 PUSH2 0x36B JUMP JUMPDEST DUP5 DUP5 SLOAD PUSH2 0x2F0 JUMP JUMPDEST DUP3 SSTORE POP POP POP POP JUMP JUMPDEST PUSH0 PUSH0 SWAP1 POP SWAP1 JUMP JUMPDEST PUSH2 0x3A8 PUSH2 0x399 JUMP JUMPDEST PUSH2 0x3B3 DUP2 DUP5 DUP5 PUSH2 0x374 JUMP JUMPDEST POP POP POP JUMP JUMPDEST JUMPDEST DUP2 DUP2 LT ISZERO PUSH2 0x3D6 JUMPI PUSH2 0x3CB PUSH0 DUP3 PUSH2 0x3A0 JUMP JUMPDEST PUSH1 0x1 DUP2 ADD SWAP1 POP PUSH2 0x3B9 JUMP JUMPDEST POP POP JUMP JUMPDEST PUSH1 0x1F DUP3 GT ISZERO PUSH2 0x41B JUMPI PUSH2 0x3EC DUP2 PUSH2 0x2C3 JUMP JUMPDEST PUSH2 0x3F5 DUP5 PUSH2 0x2D5 JUMP JUMPDEST DUP2 ADD PUSH1 0x20 DUP6 LT ISZERO PUSH2 0x404 JUMPI DUP2 SWAP1 POP JUMPDEST PUSH2 0x418 PUSH2 0x410 DUP6 PUSH2 0x2D5 JUMP JUMPDEST DUP4 ADD DUP3 PUSH2 0x3B8 JUMP JUMPDEST POP POP JUMPDEST POP POP POP JUMP JUMPDEST PUSH0 DUP3 DUP3 SHR SWAP1 POP SWAP3 SWAP2 POP POP JUMP JUMPDEST PUSH0 PUSH2 0x43B PUSH0 NOT DUP5 PUSH1 0x8 MUL PUSH2 0x420 JUMP JUMPDEST NOT DUP1 DUP4 AND SWAP2 POP POP SWAP3 SWAP2 POP POP JUMP JUMPDEST PUSH0 PUSH2 0x453 DUP4 DUP4 PUSH2 0x42C JUMP JUMPDEST SWAP2 POP DUP3 PUSH1 0x2 MUL DUP3 OR SWAP1 POP SWAP3 SWAP2 POP POP JUMP JUMPDEST PUSH2 0x46C DUP3 PUSH2 0x25C JUMP JUMPDEST PUSH8 0xFFFFFFFFFFFFFFFF DUP2 GT ISZERO PUSH2 0x485 JUMPI PUSH2 0x484 PUSH2 0xAB JUMP JUMPDEST JUMPDEST PUSH2 0x48F DUP3 SLOAD PUSH2 0x293 JUMP JUMPDEST PUSH2 0x49A DUP3 DUP3 DUP6 PUSH2 0x3DA JUMP JUMPDEST PUSH0 PUSH1 0x20 SWAP1 POP PUSH1 0x1F DUP4 GT PUSH1 0x1 DUP2 EQ PUSH2 0x4CB JUMPI PUSH0 DUP5 ISZERO PUSH2 0x4B9 JUMPI DUP3 DUP8 ADD MLOAD SWAP1 POP JUMPDEST PUSH2 0x4C3 DUP6 DUP3 PUSH2 0x448 JUMP JUMPDEST DUP7 SSTORE POP PUSH2 0x52A JUMP JUMPDEST PUSH1 0x1F NOT DUP5 AND PUSH2 0x4D9 DUP7 PUSH2 0x2C3 JUMP JUMPDEST PUSH0 JUMPDEST DUP3 DUP2 LT ISZERO PUSH2 0x500 JUMPI DUP5 DUP10 ADD MLOAD DUP3 SSTORE PUSH1 0x1 DUP3 ADD SWAP2 POP PUSH1 0x20 DUP6 ADD SWAP5 POP PUSH1 0x20 DUP2 ADD SWAP1 POP PUSH2 0x4DB JUMP JUMPDEST DUP7 DUP4 LT ISZERO PUSH2 0x51D JUMPI DUP5 DUP10 ADD MLOAD PUSH2 0x519 PUSH1 0x1F DUP10 AND DUP3 PUSH2 0x42C JUMP JUMPDEST DUP4 SSTORE POP JUMPDEST PUSH1 0x1 PUSH1 0x2 DUP9 MUL ADD DUP9 SSTORE POP POP POP JUMPDEST POP POP POP POP POP POP JUMP JUMPDEST PUSH1 0x80 MLOAD PUSH2 0xB7F PUSH2 0x558 PUSH0 CODECOPY PUSH0 DUP2 DUP2 PUSH2 0x26F ADD MSTORE DUP2 DUP2 PUSH2 0x29C ADD MSTORE PUSH2 0x375 ADD MSTORE PUSH2 0xB7F PUSH0 RETURN INVALID PUSH1 0x80 PUSH1 0x40 MSTORE CALLVALUE DUP1 ISZERO PUSH2 0xF JUMPI PUSH0 PUSH0 REVERT JUMPDEST POP PUSH1 0x4 CALLDATASIZE LT PUSH2 0x7B JUMPI PUSH0 CALLDATALOAD PUSH1 0xE0 SHR DUP1 PUSH4 0x8DA5CB5B GT PUSH2 0x59 JUMPI DUP1 PUSH4 0x8DA5CB5B EQ PUSH2 0xD9 JUMPI DUP1 PUSH4 0x967E6E65 EQ PUSH2 0xF7 JUMPI DUP1 PUSH4 0xC47F0027 EQ PUSH2 0x115 JUMPI DUP1 PUSH4 0xD5DCF127 EQ PUSH2 0x131 JUMPI PUSH2 0x7B JUMP JUMPDEST DUP1 PUSH4 0x6FDDE03 EQ PUSH2 0x7F JUMPI DUP1 PUSH4 0x17D7DE7C EQ PUSH2 0x9D JUMPI DUP1 PUSH4 0x262A9DFF EQ PUSH2 0xBB JUMPI JUMPDEST PUSH0 PUSH0 REVERT JUMPDEST PUSH2 0x87 PUSH2 0x14D JUMP JUMPDEST PUSH1 0x40 MLOAD PUSH2 0x94 SWAP2 SWAP1 PUSH2 0x4B6 JUMP JUMPDEST PUSH1 0x40 MLOAD DUP1 SWAP2 SUB SWAP1 RETURN JUMPDEST PUSH2 0xA5 PUSH2 0x1D8 JUMP JUMPDEST PUSH1 0x40 MLOAD PUSH2 0xB2 SWAP2 SWAP1 PUSH2 0x4B6 JUMP JUMPDEST PUSH1 0x40 MLOAD DUP1 SWAP2 SUB SWAP1 RETURN JUMPDEST PUSH2 0xC3 PUSH2 0x267 JUMP JUMPDEST PUSH1 0x40 MLOAD PUSH2 0xD0 SWAP2 SWAP1 PUSH2 0x4EE JUMP JUMPDEST PUSH1 0x40 MLOAD DUP1 SWAP2 SUB SWAP1 RETURN JUMPDEST PUSH2 0xE1 PUSH2 0x26D JUMP JUMPDEST PUSH1 0x40 MLOAD PUSH2 0xEE SWAP2 SWAP1 PUSH2 0x546 JUMP JUMPDEST PUSH1 0x40 MLOAD DUP1 SWAP2 SUB SWAP1 RETURN JUMPDEST PUSH2 0xFF PUSH2 0x291 JUMP JUMPDEST PUSH1 0x40 MLOAD PUSH2 0x10C SWAP2 SWAP1 PUSH2 0x4EE JUMP JUMPDEST PUSH1 0x40 MLOAD DUP1 SWAP2 SUB SWAP1 RETURN JUMPDEST PUSH2 0x12F PUSH1 0x4 DUP1 CALLDATASIZE SUB DUP2 ADD SWAP1 PUSH2 0x12A SWAP2 SWAP1 PUSH2 0x69C JUMP JUMPDEST PUSH2 0x29A JUMP JUMPDEST STOP JUMPDEST PUSH2 0x14B PUSH1 0x4 DUP1 CALLDATASIZE SUB DUP2 ADD SWAP1 PUSH2 0x146 SWAP2 SWAP1 PUSH2 0x70D JUMP JUMPDEST PUSH2 0x373 JUMP JUMPDEST STOP JUMPDEST PUSH0 DUP1 SLOAD PUSH2 0x159 SWAP1 PUSH2 0x765 JUMP JUMPDEST DUP1 PUSH1 0x1F ADD PUSH1 0x20 DUP1 SWAP2 DIV MUL PUSH1 0x20 ADD PUSH1 0x40 MLOAD SWAP1 DUP2 ADD PUSH1 0x40 MSTORE DUP1 SWAP3 SWAP2 SWAP1 DUP2 DUP2 MSTORE PUSH1 0x20 ADD DUP3 DUP1 SLOAD PUSH2 0x185 SWAP1 PUSH2 0x765 JUMP JUMPDEST DUP1 ISZERO PUSH2 0x1D0 JUMPI DUP1 PUSH1 0x1F LT PUSH2 0x1A7 JUMPI PUSH2 0x100 DUP1 DUP4 SLOAD DIV MUL DUP4 MSTORE SWAP2 PUSH1 0x20 ADD SWAP2 PUSH2 0x1D0 JUMP JUMPDEST DUP3 ADD SWAP2 SWAP1 PUSH0 MSTORE PUSH1 0x20 PUSH0 KECCAK256 SWAP1 JUMPDEST DUP2 SLOAD DUP2 MSTORE SWAP1 PUSH1 0x1 ADD SWAP1 PUSH1 0x20 ADD DUP1 DUP4 GT PUSH2 0x1B3 JUMPI DUP3 SWAP1 SUB PUSH1 0x1F AND DUP3 ADD SWAP2 JUMPDEST POP POP POP POP POP DUP2 JUMP JUMPDEST PUSH1 0x60 PUSH0 DUP1 SLOAD PUSH2 0x1E6 SWAP1 PUSH2 0x765 JUMP JUMPDEST DUP1 PUSH1 0x1F ADD PUSH1 0x20 DUP1 SWAP2 DIV MUL PUSH1 0x20 ADD PUSH1 0x40 MLOAD SWAP1 DUP2 ADD PUSH1 0x40 MSTORE DUP1 SWAP3 SWAP2 SWAP1 DUP2 DUP2 MSTORE PUSH1 0x20 ADD DUP3 DUP1 SLOAD PUSH2 0x212 SWAP1 PUSH2 0x765 JUMP JUMPDEST DUP1 ISZERO PUSH2 0x25D JUMPI DUP1 PUSH1 0x1F LT PUSH2 0x234 JUMPI PUSH2 0x100 DUP1 DUP4 SLOAD DIV MUL DUP4 MSTORE SWAP2 PUSH1 0x20 ADD SWAP2 PUSH2 0x25D JUMP JUMPDEST DUP3 ADD SWAP2 SWAP1 PUSH0 MSTORE PUSH1 0x20 PUSH0 KECCAK256 SWAP1 JUMPDEST DUP2 SLOAD DUP2 MSTORE SWAP1 PUSH1 0x1 ADD SWAP1 PUSH1 0x20 ADD DUP1 DUP4 GT PUSH2 0x240 JUMPI DUP3 SWAP1 SUB PUSH1 0x1F AND DUP3 ADD SWAP2 JUMPDEST POP POP POP POP POP SWAP1 POP SWAP1 JUMP JUMPDEST PUSH1 0x1 SLOAD DUP2 JUMP JUMPDEST PUSH32 0x0 DUP2 JUMP JUMPDEST PUSH0 PUSH1 0x1 SLOAD SWAP1 POP SWAP1 JUMP JUMPDEST PUSH32 0x0 PUSH20 0xFFFFFFFFFFFFFFFFFFFFFFFFFFFFFFFFFFFFFFFF AND CALLER PUSH20 0xFFFFFFFFFFFFFFFFFFFFFFFFFFFFFFFFFFFFFFFF AND EQ PUSH2 0x328 JUMPI PUSH1 0x40 MLOAD PUSH32 0x8C379A000000000000000000000000000000000000000000000000000000000 DUP2 MSTORE PUSH1 0x4 ADD PUSH2 0x31F SWAP1 PUSH2 0x7DF JUMP JUMPDEST PUSH1 0x40 MLOAD DUP1 SWAP2 SUB SWAP1 REVERT JUMPDEST PUSH32 0x6C20B91D1723B78732EBA64FF11EBD7966A6E4AF568A00FA4F6B72C20F58B02A PUSH0 DUP3 PUSH1 0x40 MLOAD PUSH2 0x359 SWAP3 SWAP2 SWAP1 PUSH2 0x890 JUMP JUMPDEST PUSH1 0x40 MLOAD DUP1 SWAP2 SUB SWAP1 LOG1 DUP1 PUSH0 SWAP1 DUP2 PUSH2 0x36F SWAP2 SWAP1 PUSH2 0xA53 JUMP JUMPDEST POP POP JUMP JUMPDEST PUSH32 0x0 PUSH20 0xFFFFFFFFFFFFFFFFFFFFFFFFFFFFFFFFFFFFFFFF AND CALLER PUSH20 0xFFFFFFFFFFFFFFFFFFFFFFFFFFFFFFFFFFFFFFFF AND EQ PUSH2 0x401 JUMPI PUSH1 0x40 MLOAD PUSH32 0x8C379A000000000000000000000000000000000000000000000000000000000 DUP2 MSTORE PUSH1 0x4 ADD PUSH2 0x3F8 SWAP1 PUSH2 0x7DF JUMP JUMPDEST PUSH1 0x40 MLOAD DUP1 SWAP2 SUB SWAP1 REVERT JUMPDEST PUSH32 0x7410C0AFE6D8AEEE69E5D5BC9FB55A758D3A524E619D2EFDD16CC648092B8864 PUSH1 0x1 SLOAD DUP3 PUSH1 0x40 MLOAD PUSH2 0x434 SWAP3 SWAP2 SWAP1 PUSH2 0xB22 JUMP JUMPDEST PUSH1 0x40 MLOAD DUP1 SWAP2 SUB SWAP1 LOG1 DUP1 PUSH1 0x1 DUP2 SWAP1 SSTORE POP POP JUMP JUMPDEST PUSH0 DUP2 MLOAD SWAP1 POP SWAP2 SWAP1 POP JUMP JUMPDEST PUSH0 DUP3 DUP3 MSTORE PUSH1 0x20 DUP3 ADD SWAP1 POP SWAP3 SWAP2 POP POP JUMP JUMPDEST DUP3 DUP2 DUP4 MCOPY PUSH0 DUP4 DUP4 ADD MSTORE POP POP POP JUMP JUMPDEST PUSH0 PUSH1 0x1F NOT PUSH1 0x1F DUP4 ADD AND SWAP1 POP SWAP2 SWAP1 POP JUMP JUMPDEST PUSH0 PUSH2 0x488 DUP3 PUSH2 0x446 JUMP JUMPDEST PUSH2 0x492 DUP2 DUP6 PUSH2 0x450 JUMP JUMPDEST SWAP4 POP PUSH2 0x4A2 DUP2 DUP6 PUSH1 0x20 DUP7 ADD PUSH2 0x460 JUMP JUMPDEST PUSH2 0x4AB DUP2 PUSH2 0x46E JUMP JUMPDEST DUP5 ADD SWAP2 POP POP SWAP3 SWAP2 POP POP JUMP JUMPDEST PUSH0 PUSH1 0x20 DUP3 ADD SWAP1 POP DUP2 DUP2 SUB PUSH0 DUP4 ADD MSTORE PUSH2 0x4CE DUP2 DUP5 PUSH2 0x47E JUMP JUMPDEST SWAP1 POP SWAP3 SWAP2 POP POP JUMP JUMPDEST PUSH0 DUP2 SWAP1 POP SWAP2 SWAP1 POP JUMP JUMPDEST PUSH2 0x4E8 DUP2 PUSH2 0x4D6 JUMP JUMPDEST DUP3 MSTORE POP POP JUMP JUMPDEST PUSH0 PUSH1 0x20 DUP3 ADD SWAP1 POP PUSH2 0x501 PUSH0 DUP4 ADD DUP5 PUSH2 0x4DF JUMP JUMPDEST SWAP3 SWAP2 POP POP JUMP JUMPDEST PUSH0 PUSH20 0xFFFFFFFFFFFFFFFFFFFFFFFFFFFFFFFFFFFFFFFF DUP3 AND SWAP1 POP SWAP2 SWAP1 POP JUMP JUMPDEST PUSH0 PUSH2 0x530 DUP3 PUSH2 0x507 JUMP JUMPDEST SWAP1 POP SWAP2 SWAP1 POP JUMP JUMPDEST PUSH2 0x540 DUP2 PUSH2 0x526 JUMP JUMPDEST DUP3 MSTORE POP POP JUMP JUMPDEST PUSH0 PUSH1 0x20 DUP3 ADD SWAP1 POP PUSH2 0x559 PUSH0 DUP4 ADD DUP5 PUSH2 0x537 JUMP JUMPDEST SWAP3 SWAP2 POP POP JUMP JUMPDEST PUSH0 PUSH1 0x40 MLOAD SWAP1 POP SWAP1 JUMP JUMPDEST PUSH0 PUSH0 REVERT JUMPDEST PUSH0 PUSH0 REVERT JUMPDEST PUSH0 PUSH0 REVERT JUMPDEST PUSH0 PUSH0 REVERT JUMPDEST PUSH32 0x4E487B7100000000000000000000000000000000000000000000000000000000 PUSH0 MSTORE PUSH1 0x41 PUSH1 0x4 MSTORE PUSH1 0x24 PUSH0 REVERT JUMPDEST PUSH2 0x5AE DUP3 PUSH2 0x46E JUMP JUMPDEST DUP2 ADD DUP2 DUP2 LT PUSH8 0xFFFFFFFFFFFFFFFF DUP3 GT OR ISZERO PUSH2 0x5CD JUMPI PUSH2 0x5CC PUSH2 0x578 JUMP JUMPDEST JUMPDEST DUP1 PUSH1 0x40 MSTORE POP POP POP JUMP JUMPDEST PUSH0 PUSH2 0x5DF PUSH2 0x55F JUMP JUMPDEST SWAP1 POP PUSH2 0x5EB DUP3 DUP3 PUSH2 0x5A5 JUMP JUMPDEST SWAP2 SWAP1 POP JUMP JUMPDEST PUSH0 PUSH8 0xFFFFFFFFFFFFFFFF DUP3 GT ISZERO PUSH2 0x60A JUMPI PUSH2 0x609 PUSH2 0x578 JUMP JUMPDEST JUMPDEST PUSH2 0x613 DUP3 PUSH2 0x46E JUMP JUMPDEST SWAP1 POP PUSH1 0x20 DUP2 ADD SWAP1 POP SWAP2 SWAP1 POP JUMP JUMPDEST DUP3 DUP2 DUP4 CALLDATACOPY PUSH0 DUP4 DUP4 ADD MSTORE POP POP POP JUMP JUMPDEST PUSH0 PUSH2 0x640 PUSH2 0x63B DUP5 PUSH2 0x5F0 JUMP JUMPDEST PUSH2 0x5D6 JUMP JUMPDEST SWAP1 POP DUP3 DUP2 MSTORE PUSH1 0x20 DUP2 ADD DUP5 DUP5 DUP5 ADD GT ISZERO PUSH2 0x65C JUMPI PUSH2 0x65B PUSH2 0x574 JUMP JUMPDEST JUMPDEST PUSH2 0x667 DUP5 DUP3 DUP6 PUSH2 0x620 JUMP JUMPDEST POP SWAP4 SWAP3 POP POP POP JUMP JUMPDEST PUSH0 DUP3 PUSH1 0x1F DUP4 ADD SLT PUSH2 0x683 JUMPI PUSH2 0x682 PUSH2 0x570 JUMP JUMPDEST JUMPDEST DUP2 CALLDATALOAD PUSH2 0x693 DUP5 DUP3 PUSH1 0x20 DUP7 ADD PUSH2 0x62E JUMP JUMPDEST SWAP2 POP POP SWAP3 SWAP2 POP POP JUMP JUMPDEST PUSH0 PUSH1 0x20 DUP3 DUP5 SUB SLT ISZERO PUSH2 0x6B1 JUMPI PUSH2 0x6B0 PUSH2 0x568 JUMP JUMPDEST JUMPDEST PUSH0 DUP3 ADD CALLDATALOAD PUSH8 0xFFFFFFFFFFFFFFFF DUP2 GT ISZERO PUSH2 0x6CE JUMPI PUSH2 0x6CD PUSH2 0x56C JUMP JUMPDEST JUMPDEST PUSH2 0x6DA DUP5 DUP3 DUP6 ADD PUSH2 0x66F JUMP JUMPDEST SWAP2 POP POP SWAP3 SWAP2 POP POP JUMP JUMPDEST PUSH2 0x6EC DUP2 PUSH2 0x4D6 JUMP JUMPDEST DUP2 EQ PUSH2 0x6F6 JUMPI PUSH0 PUSH0 REVERT JUMPDEST POP JUMP JUMPDEST PUSH0 DUP2 CALLDATALOAD SWAP1 POP PUSH2 0x707 DUP2 PUSH2 0x6E3 JUMP JUMPDEST SWAP3 SWAP2 POP POP JUMP JUMPDEST PUSH0 PUSH1 0x20 DUP3 DUP5 SUB SLT ISZERO PUSH2 0x722 JUMPI PUSH2 0x721 PUSH2 0x568 JUMP JUMPDEST JUMPDEST PUSH0 PUSH2 0x72F DUP5 DUP3 DUP6 ADD PUSH2 0x6F9 JUMP JUMPDEST SWAP2 POP POP SWAP3 SWAP2 POP POP JUMP JUMPDEST PUSH32 0x4E487B7100000000000000000000000000000000000000000000000000000000 PUSH0 MSTORE PUSH1 0x22 PUSH1 0x4 MSTORE PUSH1 0x24 PUSH0 REVERT JUMPDEST PUSH0 PUSH1 0x2 DUP3 DIV SWAP1 POP PUSH1 0x1 DUP3 AND DUP1 PUSH2 0x77C JUMPI PUSH1 0x7F DUP3 AND SWAP2 POP JUMPDEST PUSH1 0x20 DUP3 LT DUP2 SUB PUSH2 0x78F JUMPI PUSH2 0x78E PUSH2 0x738 JUMP JUMPDEST JUMPDEST POP SWAP2 SWAP1 POP JUMP JUMPDEST PUSH32 0x4E6F74206F776E65720000000000000000000000000000000000000000000000 PUSH0 DUP3 ADD MSTORE POP JUMP JUMPDEST PUSH0 PUSH2 0x7C9 PUSH1 0x9 DUP4 PUSH2 0x450 JUMP JUMPDEST SWAP2 POP PUSH2 0x7D4 DUP3 PUSH2 0x795 JUMP JUMPDEST PUSH1 0x20 DUP3 ADD SWAP1 POP SWAP2 SWAP1 POP JUMP JUMPDEST PUSH0 PUSH1 0x20 DUP3 ADD SWAP1 POP DUP2 DUP2 SUB PUSH0 DUP4 ADD MSTORE PUSH2 0x7F6 DUP2 PUSH2 0x7BD JUMP JUMPDEST SWAP1 POP SWAP2 SWAP1 POP JUMP JUMPDEST PUSH0 DUP2 SWAP1 POP DUP2 PUSH0 MSTORE PUSH1 0x20 PUSH0 KECCAK256 SWAP1 POP SWAP2 SWAP1 POP JUMP JUMPDEST PUSH0 DUP2 SLOAD PUSH2 0x81B DUP2 PUSH2 0x765 JUMP JUMPDEST PUSH2 0x825 DUP2 DUP7 PUSH2 0x450 JUMP JUMPDEST SWAP5 POP PUSH1 0x1 DUP3 AND PUSH0 DUP2 EQ PUSH2 0x83F JUMPI PUSH1 0x1 DUP2 EQ PUSH2 0x855 JUMPI PUSH2 0x887 JUMP JUMPDEST PUSH1 0xFF NOT DUP4 AND DUP7 MSTORE DUP2 ISZERO ISZERO PUSH1 0x20 MUL DUP7 ADD SWAP4 POP PUSH2 0x887 JUMP JUMPDEST PUSH2 0x85E DUP6 PUSH2 0x7FD JUMP JUMPDEST PUSH0 JUMPDEST DUP4 DUP2 LT ISZERO PUSH2 0x87F JUMPI DUP2 SLOAD DUP2 DUP10 ADD MSTORE PUSH1 0x1 DUP3 ADD SWAP2 POP PUSH1 0x20 DUP2 ADD SWAP1 POP PUSH2 0x860 JUMP JUMPDEST DUP1 DUP9 ADD SWAP6 POP POP POP JUMPDEST POP POP POP SWAP3 SWAP2 POP POP JUMP JUMPDEST PUSH0 PUSH1 0x40 DUP3 ADD SWAP1 POP DUP2 DUP2 SUB PUSH0 DUP4 ADD MSTORE PUSH2 0x8A8 DUP2 DUP6 PUSH2 0x80F JUMP JUMPDEST SWAP1 POP DUP2 DUP2 SUB PUSH1 0x20 DUP4 ADD MSTORE PUSH2 0x8BC DUP2 DUP5 PUSH2 0x47E JUMP JUMPDEST SWAP1 POP SWAP4 SWAP3 POP POP POP JUMP JUMPDEST PUSH0 PUSH1 0x20 PUSH1 0x1F DUP4 ADD DIV SWAP1 POP SWAP2 SWAP1 POP JUMP JUMPDEST PUSH0 DUP3 DUP3 SHL SWAP1 POP SWAP3 SWAP2 POP POP JUMP JUMPDEST PUSH0 PUSH1 0x8 DUP4 MUL PUSH2 0x90F PUSH32 0xFFFFFFFFFFFFFFFFFFFFFFFFFFFFFFFFFFFFFFFFFFFFFFFFFFFFFFFFFFFFFFFF DUP3 PUSH2 0x8D4 JUMP JUMPDEST PUSH2 0x919 DUP7 DUP4 PUSH2 0x8D4 JUMP JUMPDEST SWAP6 POP DUP1 NOT DUP5 AND SWAP4 POP DUP1 DUP7 AND DUP5 OR SWAP3 POP POP POP SWAP4 SWAP3 POP POP POP JUMP JUMPDEST PUSH0 DUP2 SWAP1 POP SWAP2 SWAP1 POP JUMP JUMPDEST PUSH0 PUSH2 0x954 PUSH2 0x94F PUSH2 0x94A DUP5 PUSH2 0x4D6 JUMP JUMPDEST PUSH2 0x931 JUMP JUMPDEST PUSH2 0x4D6 JUMP JUMPDEST SWAP1 POP SWAP2 SWAP1 POP JUMP JUMPDEST PUSH0 DUP2 SWAP1 POP SWAP2 SWAP1 POP JUMP JUMPDEST PUSH2 0x96D DUP4 PUSH2 0x93A JUMP JUMPDEST PUSH2 0x981 PUSH2 0x979 DUP3 PUSH2 0x95B JUMP JUMPDEST DUP5 DUP5 SLOAD PUSH2 0x8E0 JUMP JUMPDEST DUP3 SSTORE POP POP POP POP JUMP JUMPDEST PUSH0 PUSH0 SWAP1 POP SWAP1 JUMP JUMPDEST PUSH2 0x998 PUSH2 0x989 JUMP JUMPDEST PUSH2 0x9A3 DUP2 DUP5 DUP5 PUSH2 0x964 JUMP JUMPDEST POP POP POP JUMP JUMPDEST JUMPDEST DUP2 DUP2 LT ISZERO PUSH2 0x9C6 JUMPI PUSH2 0x9BB PUSH0 DUP3 PUSH2 0x990 JUMP JUMPDEST PUSH1 0x1 DUP2 ADD SWAP1 POP PUSH2 0x9A9 JUMP JUMPDEST POP POP JUMP JUMPDEST PUSH1 0x1F DUP3 GT ISZERO PUSH2 0xA0B JUMPI PUSH2 0x9DC DUP2 PUSH2 0x7FD JUMP JUMPDEST PUSH2 0x9E5 DUP5 PUSH2 0x8C5 JUMP JUMPDEST DUP2 ADD PUSH1 0x20 DUP6 LT ISZERO PUSH2 0x9F4 JUMPI DUP2 SWAP1 POP JUMPDEST PUSH2 0xA08 PUSH2 0xA00 DUP6 PUSH2 0x8C5 JUMP JUMPDEST DUP4 ADD DUP3 PUSH2 0x9A8 JUMP JUMPDEST POP POP JUMPDEST POP POP POP JUMP JUMPDEST PUSH0 DUP3 DUP3 SHR SWAP1 POP SWAP3 SWAP2 POP POP JUMP JUMPDEST PUSH0 PUSH2 0xA2B PUSH0 NOT DUP5 PUSH1 0x8 MUL PUSH2 0xA10 JUMP JUMPDEST NOT DUP1 DUP4 AND SWAP2 POP POP SWAP3 SWAP2 POP POP JUMP JUMPDEST PUSH0 PUSH2 0xA43 DUP4 DUP4 PUSH2 0xA1C JUMP JUMPDEST SWAP2 POP DUP3 PUSH1 0x2 MUL DUP3 OR SWAP1 POP SWAP3 SWAP2 POP POP JUMP JUMPDEST PUSH2 0xA5C DUP3 PUSH2 0x446 JUMP JUMPDEST PUSH8 0xFFFFFFFFFFFFFFFF DUP2 GT ISZERO PUSH2 0xA75 JUMPI PUSH2 0xA74 PUSH2 0x578 JUMP JUMPDEST JUMPDEST PUSH2 0xA7F DUP3 SLOAD PUSH2 0x765 JUMP JUMPDEST PUSH2 0xA8A DUP3 DUP3 DUP6 PUSH2 0x9CA JUMP JUMPDEST PUSH0 PUSH1 0x20 SWAP1 POP PUSH1 0x1F DUP4 GT PUSH1 0x1 DUP2 EQ PUSH2 0xABB JUMPI PUSH0 DUP5 ISZERO PUSH2 0xAA9 JUMPI DUP3 DUP8 ADD MLOAD SWAP1 POP JUMPDEST PUSH2 0xAB3 DUP6 DUP3 PUSH2 0xA38 JUMP JUMPDEST DUP7 SSTORE POP PUSH2 0xB1A JUMP JUMPDEST PUSH1 0x1F NOT DUP5 AND PUSH2 0xAC9 DUP7 PUSH2 0x7FD JUMP JUMPDEST PUSH0 JUMPDEST DUP3 DUP2 LT ISZERO PUSH2 0xAF0 JUMPI DUP5 DUP10 ADD MLOAD DUP3 SSTORE PUSH1 0x1 DUP3 ADD SWAP2 POP PUSH1 0x20 DUP6 ADD SWAP5 POP PUSH1 0x20 DUP2 ADD SWAP1 POP PUSH2 0xACB JUMP JUMPDEST DUP7 DUP4 LT ISZERO PUSH2 0xB0D JUMPI DUP5 DUP10 ADD MLOAD PUSH2 0xB09 PUSH1 0x1F DUP10 AND DUP3 PUSH2 0xA1C JUMP JUMPDEST DUP4 SSTORE POP JUMPDEST PUSH1 0x1 PUSH1 0x2 DUP9 MUL ADD DUP9 SSTORE POP POP POP JUMPDEST POP POP POP POP POP POP JUMP JUMPDEST PUSH0 PUSH1 0x40 DUP3 ADD SWAP1 POP PUSH2 0xB35 PUSH0 DUP4 ADD DUP6 PUSH2 0x4DF JUMP JUMPDEST PUSH2 0xB42 PUSH1 0x20 DUP4 ADD DUP5 PUSH2 0x4DF JUMP JUMPDEST SWAP4 SWAP3 POP POP POP JUMP INVALID LOG2 PUSH5 0x6970667358 0x22 SLT KECCAK256 TIMESTAMP PUSH14 0xE201A968E785F5FF5D56E8E9C64D PUSH22 0x76FAE6A9E95E9DC8627ADEB7D5B14364736F6C634300 ADDMOD 0x1E STOP CALLER "
		},
		"gasEstimates": {
			"creation": {
				"codeDepositCost": "588600",
				"executionCost": "infinite",
				"totalCost": "infinite"
			},
			"external": {
				"age()": "2470",
				"getAge()": "2454",
				"getName()": "infinite",
				"name()": "infinite",
				"owner()": "infinite",
				"setAge(uint256)": "infinite",
				"setName(string)": "infinite"
			}
		},
		"methodIdentifiers": {
			"age()": "262a9dff",
			"getAge()": "967e6e65",
			"getName()": "17d7de7c",
			"name()": "06fdde03",
			"owner()": "8da5cb5b",
			"setAge(uint256)": "d5dcf127",
			"setName(string)": "c47f0027"
		}
	},
	"abi": [
		{
			"inputs": [
				{
					"internalType": "string",
					"name": "_name",
					"type": "string"
				},
				{
					"internalType": "uint256",
					"name": "_age",
					"type": "uint256"
				}
			],
			"stateMutability": "nonpayable",
			"type": "constructor"
		},
		{
			"anonymous": false,
			"inputs": [
				{
					"indexed": false,
					"internalType": "uint256",
					"name": "oldAge",
					"type": "uint256"
				},
				{
					"indexed": false,
					"internalType": "uint256",
					"name": "newAge",
					"type": "uint256"
				}
			],
			"name": "AgeChanged",
			"type": "event"
		},
		{
			"anonymous": false,
			"inputs": [
				{
					"indexed": false,
					"internalType": "string",
					"name": "oldName",
					"type": "string"
				},
				{
					"indexed": false,
					"internalType": "string",
					"name": "newName",
					"type": "string"
				}
			],
			"name": "NameChanged",
			"type": "event"
		},
		{
			"inputs": [],
			"name": "age",
			"outputs": [
				{
					"internalType": "uint256",
					"name": "",
					"type": "uint256"
				}
			],
			"stateMutability": "view",
			"type": "function"
		},
		{
			"inputs": [],
			"name": "getAge",
			"outputs": [
				{
					"internalType": "uint256",
					"name": "",
					"type": "uint256"
				}
			],
			"stateMutability": "view",
			"type": "function"
		},
		{
			"inputs": [],
			"name": "getName",
			"outputs": [
				{
					"internalType": "string",
					"name": "",
					"type": "string"
				}
			],
			"stateMutability": "view",
			"type": "function"
		},
		{
			"inputs": [],
			"name": "name",
			"outputs": [
				{
					"internalType": "string",
					"name": "",
					"type": "string"
				}
			],
			"stateMutability": "view",
			"type": "function"
		},
		{
			"inputs": [],
			"name": "owner",
			"outputs": [
				{
					"internalType": "address",
					"name": "",
					"type": "address"
				}
			],
			"stateMutability": "view",
			"type": "function"
		},
		{
			"inputs": [
				{
					"internalType": "uint256",
					"name": "_newAge",
					"type": "uint256"
				}
			],
			"name": "setAge",
			"outputs": [],
			"stateMutability": "nonpayable",
			"type": "function"
		},
		{
			"inputs": [
				{
					"internalType": "string",
					"name": "_newName",
					"type": "string"
				}
			],
			"name": "setName",
			"outputs": [],
			"stateMutability": "nonpayable",
			"type": "function"
		}
	]
}