{
	"data": {
		"bytecode": {
			"linkReferences": {},
			"object": "6080604052607f6002557ffffffffffffffffffffffffffffffffffffffffffffffffffffffffffffffb2f60035f6101000a81548161ffff021916908360010b61ffff1602179055507ffffffffffffffffffffffffffffffffffffffffffffffffffffffffffffe1dc0600360026101000a81548163ffffffff021916908360030b63ffffffff160217905550601760045560ff60055f6101000a81548160ff021916908360ff160217905550616758600560016101000a81548161ffff021916908361ffff16021790555034801560d5575f5ffd5b506108ff806100e35f395ff3fe608060405234801561000f575f5ffd5b50600436106100f3575f3560e01c806374f9032c11610095578063c612d08d11610064578063c612d08d14610263578063c7d5b45614610293578063ca1c2835146102c3578063e3286de6146102e1576100f3565b806374f9032c146101db578063771602f7146101f75780637b1d829c14610227578063a531f36a14610245576100f3565b806322800a81116100d157806322800a81146101515780634e34cd39146101815780634e70b1dc1461019d57806371cec743146101bb576100f3565b806306661abd146100f757806315d4266c146101155780631d63e24d14610133575b5f5ffd5b6100ff6102ff565b60405161010c91906104a3565b60405180910390f35b61011d610305565b60405161012a91906104d7565b60405180910390f35b61013b610317565b604051610148919061050b565b60405180910390f35b61016b6004803603810190610166919061055b565b610329565b60405161017891906105b3565b60405180910390f35b61019b600480360381019061019691906105f6565b610335565b005b6101a561033f565b6040516101b29190610630565b60405180910390f35b6101c3610345565b6040516101d293929190610683565b60405180910390f35b6101f560048036038101906101f091906106b8565b61036b565b005b610211600480360381019061020c919061055b565b610374565b60405161021e9190610630565b60405180910390f35b61022f610389565b60405161023c91906106fe565b60405180910390f35b61024d61039c565b60405161025a9190610717565b60405180910390f35b61027d600480360381019061027891906106b8565b6103b0565b60405161028a91906104d7565b60405180910390f35b6102ad60048036038101906102a8919061055b565b6103fd565b6040516102ba9190610630565b60405180910390f35b6102cb610480565b6040516102d891906104a3565b60405180910390f35b6102e9610486565b6040516102f69190610630565b60405180910390f35b60025481565b60055f9054906101000a900460ff1681565b60035f9054906101000a900460010b81565b5f818311905092915050565b8060018190555050565b60045481565b5f5f5f5f60fa90505f8190505f8290505f83905082828296509650965050505050909192565b805f8190555050565b5f8183610381919061075d565b905092915050565b600360029054906101000a900460030b81565b600560019054906101000a900461ffff1681565b5f60ff8211156103f5576040517f08c379a00000000000000000000000000000000000000000000000000000000081526004016103ec90610810565b60405180910390fd5b819050919050565b5f827fffffffffffffffffffffffffffffffffffffffffffffffffffffffffffffffff61042a919061082e565b82111561046c576040517f08c379a0000000000000000000000000000000000000000000000000000000008152600401610463906108ab565b60405180910390fd5b8183610478919061075d565b905092915050565b60015481565b5f5481565b5f819050919050565b61049d8161048b565b82525050565b5f6020820190506104b65f830184610494565b92915050565b5f60ff82169050919050565b6104d1816104bc565b82525050565b5f6020820190506104ea5f8301846104c8565b92915050565b5f8160010b9050919050565b610505816104f0565b82525050565b5f60208201905061051e5f8301846104fc565b92915050565b5f5ffd5b5f819050919050565b61053a81610528565b8114610544575f5ffd5b50565b5f8135905061055581610531565b92915050565b5f5f6040838503121561057157610570610524565b5b5f61057e85828601610547565b925050602061058f85828601610547565b9150509250929050565b5f8115159050919050565b6105ad81610599565b82525050565b5f6020820190506105c65f8301846105a4565b92915050565b6105d58161048b565b81146105df575f5ffd5b50565b5f813590506105f0816105cc565b92915050565b5f6020828403121561060b5761060a610524565b5b5f610618848285016105e2565b91505092915050565b61062a81610528565b82525050565b5f6020820190506106435f830184610621565b92915050565b5f61ffff82169050919050565b61065f81610649565b82525050565b5f63ffffffff82169050919050565b61067d81610665565b82525050565b5f6060820190506106965f8301866104c8565b6106a36020830185610656565b6106b06040830184610674565b949350505050565b5f602082840312156106cd576106cc610524565b5b5f6106da84828501610547565b91505092915050565b5f8160030b9050919050565b6106f8816106e3565b82525050565b5f6020820190506107115f8301846106ef565b92915050565b5f60208201905061072a5f830184610656565b92915050565b7f4e487b71000000000000000000000000000000000000000000000000000000005f52601160045260245ffd5b5f61076782610528565b915061077283610528565b925082820190508082111561078a57610789610730565b5b92915050565b5f82825260208201905092915050565b7f496e746567657254797065733a2076616c756520657863656564732075696e745f8201527f382072616e676500000000000000000000000000000000000000000000000000602082015250565b5f6107fa602783610790565b9150610805826107a0565b604082019050919050565b5f6020820190508181035f830152610827816107ee565b9050919050565b5f61083882610528565b915061084383610528565b925082820390508181111561085b5761085a610730565b5b92915050565b7f496e746567657254797065733a206164646974696f6e206f766572666c6f77005f82015250565b5f610895601f83610790565b91506108a082610861565b602082019050919050565b5f6020820190508181035f8301526108c281610889565b905091905056fea2646970667358221220ae27df4616a9302da9d8c20cb4ab6d9bd1e09d023bcae8e72fca2c767720e42064736f6c634300081e0033",
			"opcodes": "PUSH1 0x80 PUSH1 0x40 MSTORE PUSH1 0x7F PUSH1 0x2 SSTORE PUSH32 0xFFFFFFFFFFFFFFFFFFFFFFFFFFFFFFFFFFFFFFFFFFFFFFFFFFFFFFFFFFFFFB2F PUSH1 0x3 PUSH0 PUSH2 0x100 EXP DUP2 SLOAD DUP2 PUSH2 0xFFFF MUL NOT AND SWAP1 DUP4 PUSH1 0x1 SIGNEXTEND PUSH2 0xFFFF AND MUL OR SWAP1 SSTORE POP PUSH32 0xFFFFFFFFFFFFFFFFFFFFFFFFFFFFFFFFFFFFFFFFFFFFFFFFFFFFFFFFFFFE1DC0 PUSH1 0x3 PUSH1 0x2 PUSH2 0x100 EXP DUP2 SLOAD DUP2 PUSH4 0xFFFFFFFF MUL NOT AND SWAP1 DUP4 PUSH1 0x3 SIGNEXTEND PUSH4 0xFFFFFFFF AND MUL OR SWAP1 SSTORE POP PUSH1 0x17 PUSH1 0x4 SSTORE PUSH1 0xFF PUSH1 0x5 PUSH0 PUSH2 0x100 EXP DUP2 SLOAD DUP2 PUSH1 0xFF MUL NOT AND SWAP1 DUP4 PUSH1 0xFF AND MUL OR SWAP1 SSTORE POP PUSH2 0x6758 PUSH1 0x5 PUSH1 0x1 PUSH2 0x100 EXP DUP2 SLOAD DUP2 PUSH2 0xFFFF MUL NOT AND SWAP1 DUP4 PUSH2 0xFFFF AND MUL OR SWAP1 SSTORE POP CALLVALUE DUP1 ISZERO PUSH1 0xD5 JUMPI PUSH0 PUSH0 REVERT JUMPDEST POP PUSH2 0x8FF DUP1 PUSH2 0xE3 PUSH0 CODECOPY PUSH0 RETURN INVALID PUSH1 0x80 PUSH1 0x40 MSTORE CALLVALUE DUP1 ISZERO PUSH2 0xF JUMPI PUSH0 PUSH0 REVERT JUMPDEST POP PUSH1 0x4 CALLDATASIZE LT PUSH2 0xF3 JUMPI PUSH0 CALLDATALOAD PUSH1 0xE0 SHR DUP1 PUSH4 0x74F9032C GT PUSH2 0x95 JUMPI DUP1 PUSH4 0xC612D08D GT PUSH2 0x64 JUMPI DUP1 PUSH4 0xC612D08D EQ PUSH2 0x263 JUMPI DUP1 PUSH4 0xC7D5B456 EQ PUSH2 0x293 JUMPI DUP1 PUSH4 0xCA1C2835 EQ PUSH2 0x2C3 JUMPI DUP1 PUSH4 0xE3286DE6 EQ PUSH2 0x2E1 JUMPI PUSH2 0xF3 JUMP JUMPDEST DUP1 PUSH4 0x74F9032C EQ PUSH2 0x1DB JUMPI DUP1 PUSH4 0x771602F7 EQ PUSH2 0x1F7 JUMPI DUP1 PUSH4 0x7B1D829C EQ PUSH2 0x227 JUMPI DUP1 PUSH4 0xA531F36A EQ PUSH2 0x245 JUMPI PUSH2 0xF3 JUMP JUMPDEST DUP1 PUSH4 0x22800A81 GT PUSH2 0xD1 JUMPI DUP1 PUSH4 0x22800A81 EQ PUSH2 0x151 JUMPI DUP1 PUSH4 0x4E34CD39 EQ PUSH2 0x181 JUMPI DUP1 PUSH4 0x4E70B1DC EQ PUSH2 0x19D JUMPI DUP1 PUSH4 0x71CEC743 EQ PUSH2 0x1BB JUMPI PUSH2 0xF3 JUMP JUMPDEST DUP1 PUSH4 0x6661ABD EQ PUSH2 0xF7 JUMPI DUP1 PUSH4 0x15D4266C EQ PUSH2 0x115 JUMPI DUP1 PUSH4 0x1D63E24D EQ PUSH2 0x133 JUMPI JUMPDEST PUSH0 PUSH0 REVERT JUMPDEST PUSH2 0xFF PUSH2 0x2FF JUMP JUMPDEST PUSH1 0x40 MLOAD PUSH2 0x10C SWAP2 SWAP1 PUSH2 0x4A3 JUMP JUMPDEST PUSH1 0x40 MLOAD DUP1 SWAP2 SUB SWAP1 RETURN JUMPDEST PUSH2 0x11D PUSH2 0x305 JUMP JUMPDEST PUSH1 0x40 MLOAD PUSH2 0x12A SWAP2 SWAP1 PUSH2 0x4D7 JUMP JUMPDEST PUSH1 0x40 MLOAD DUP1 SWAP2 SUB SWAP1 RETURN JUMPDEST PUSH2 0x13B PUSH2 0x317 JUMP JUMPDEST PUSH1 0x40 MLOAD PUSH2 0x148 SWAP2 SWAP1 PUSH2 0x50B JUMP JUMPDEST PUSH1 0x40 MLOAD DUP1 SWAP2 SUB SWAP1 RETURN JUMPDEST PUSH2 0x16B PUSH1 0x4 DUP1 CALLDATASIZE SUB DUP2 ADD SWAP1 PUSH2 0x166 SWAP2 SWAP1 PUSH2 0x55B JUMP JUMPDEST PUSH2 0x329 JUMP JUMPDEST PUSH1 0x40 MLOAD PUSH2 0x178 SWAP2 SWAP1 PUSH2 0x5B3 JUMP JUMPDEST PUSH1 0x40 MLOAD DUP1 SWAP2 SUB SWAP1 RETURN JUMPDEST PUSH2 0x19B PUSH1 0x4 DUP1 CALLDATASIZE SUB DUP2 ADD SWAP1 PUSH2 0x196 SWAP2 SWAP1 PUSH2 0x5F6 JUMP JUMPDEST PUSH2 0x335 JUMP JUMPDEST STOP JUMPDEST PUSH2 0x1A5 PUSH2 0x33F JUMP JUMPDEST PUSH1 0x40 MLOAD PUSH2 0x1B2 SWAP2 SWAP1 PUSH2 0x630 JUMP JUMPDEST PUSH1 0x40 MLOAD DUP1 SWAP2 SUB SWAP1 RETURN JUMPDEST PUSH2 0x1C3 PUSH2 0x345 JUMP JUMPDEST PUSH1 0x40 MLOAD PUSH2 0x1D2 SWAP4 SWAP3 SWAP2 SWAP1 PUSH2 0x683 JUMP JUMPDEST PUSH1 0x40 MLOAD DUP1 SWAP2 SUB SWAP1 RETURN JUMPDEST PUSH2 0x1F5 PUSH1 0x4 DUP1 CALLDATASIZE SUB DUP2 ADD SWAP1 PUSH2 0x1F0 SWAP2 SWAP1 PUSH2 0x6B8 JUMP JUMPDEST PUSH2 0x36B JUMP JUMPDEST STOP JUMPDEST PUSH2 0x211 PUSH1 0x4 DUP1 CALLDATASIZE SUB DUP2 ADD SWAP1 PUSH2 0x20C SWAP2 SWAP1 PUSH2 0x55B JUMP JUMPDEST PUSH2 0x374 JUMP JUMPDEST PUSH1 0x40 MLOAD PUSH2 0x21E SWAP2 SWAP1 PUSH2 0x630 JUMP JUMPDEST PUSH1 0x40 MLOAD DUP1 SWAP2 SUB SWAP1 RETURN JUMPDEST PUSH2 0x22F PUSH2 0x389 JUMP JUMPDEST PUSH1 0x40 MLOAD PUSH2 0x23C SWAP2 SWAP1 PUSH2 0x6FE JUMP JUMPDEST PUSH1 0x40 MLOAD DUP1 SWAP2 SUB SWAP1 RETURN JUMPDEST PUSH2 0x24D PUSH2 0x39C JUMP JUMPDEST PUSH1 0x40 MLOAD PUSH2 0x25A SWAP2 SWAP1 PUSH2 0x717 JUMP JUMPDEST PUSH1 0x40 MLOAD DUP1 SWAP2 SUB SWAP1 RETURN JUMPDEST PUSH2 0x27D PUSH1 0x4 DUP1 CALLDATASIZE SUB DUP2 ADD SWAP1 PUSH2 0x278 SWAP2 SWAP1 PUSH2 0x6B8 JUMP JUMPDEST PUSH2 0x3B0 JUMP JUMPDEST PUSH1 0x40 MLOAD PUSH2 0x28A SWAP2 SWAP1 PUSH2 0x4D7 JUMP JUMPDEST PUSH1 0x40 MLOAD DUP1 SWAP2 SUB SWAP1 RETURN JUMPDEST PUSH2 0x2AD PUSH1 0x4 DUP1 CALLDATASIZE SUB DUP2 ADD SWAP1 PUSH2 0x2A8 SWAP2 SWAP1 PUSH2 0x55B JUMP JUMPDEST PUSH2 0x3FD JUMP JUMPDEST PUSH1 0x40 MLOAD PUSH2 0x2BA SWAP2 SWAP1 PUSH2 0x630 JUMP JUMPDEST PUSH1 0x40 MLOAD DUP1 SWAP2 SUB SWAP1 RETURN JUMPDEST PUSH2 0x2CB PUSH2 0x480 JUMP JUMPDEST PUSH1 0x40 MLOAD PUSH2 0x2D8 SWAP2 SWAP1 PUSH2 0x4A3 JUMP JUMPDEST PUSH1 0x40 MLOAD DUP1 SWAP2 SUB SWAP1 RETURN JUMPDEST PUSH2 0x2E9 PUSH2 0x486 JUMP JUMPDEST PUSH1 0x40 MLOAD PUSH2 0x2F6 SWAP2 SWAP1 PUSH2 0x630 JUMP JUMPDEST PUSH1 0x40 MLOAD DUP1 SWAP2 SUB SWAP1 RETURN JUMPDEST PUSH1 0x2 SLOAD DUP2 JUMP JUMPDEST PUSH1 0x5 PUSH0 SWAP1 SLOAD SWAP1 PUSH2 0x100 EXP SWAP1 DIV PUSH1 0xFF AND DUP2 JUMP JUMPDEST PUSH1 0x3 PUSH0 SWAP1 SLOAD SWAP1 PUSH2 0x100 EXP SWAP1 DIV PUSH1 0x1 SIGNEXTEND DUP2 JUMP JUMPDEST PUSH0 DUP2 DUP4 GT SWAP1 POP SWAP3 SWAP2 POP POP JUMP JUMPDEST DUP1 PUSH1 0x1 DUP2 SWAP1 SSTORE POP POP JUMP JUMPDEST PUSH1 0x4 SLOAD DUP2 JUMP JUMPDEST PUSH0 PUSH0 PUSH0 PUSH0 PUSH1 0xFA SWAP1 POP PUSH0 DUP2 SWAP1 POP PUSH0 DUP3 SWAP1 POP PUSH0 DUP4 SWAP1 POP DUP3 DUP3 DUP3 SWAP7 POP SWAP7 POP SWAP7 POP POP POP POP POP SWAP1 SWAP2 SWAP3 JUMP JUMPDEST DUP1 PUSH0 DUP2 SWAP1 SSTORE POP POP JUMP JUMPDEST PUSH0 DUP2 DUP4 PUSH2 0x381 SWAP2 SWAP1 PUSH2 0x75D JUMP JUMPDEST SWAP1 POP SWAP3 SWAP2 POP POP JUMP JUMPDEST PUSH1 0x3 PUSH1 0x2 SWAP1 SLOAD SWAP1 PUSH2 0x100 EXP SWAP1 DIV PUSH1 0x3 SIGNEXTEND DUP2 JUMP JUMPDEST PUSH1 0x5 PUSH1 0x1 SWAP1 SLOAD SWAP1 PUSH2 0x100 EXP SWAP1 DIV PUSH2 0xFFFF AND DUP2 JUMP JUMPDEST PUSH0 PUSH1 0xFF DUP3 GT ISZERO PUSH2 0x3F5 JUMPI PUSH1 0x40 MLOAD PUSH32 0x8C379A000000000000000000000000000000000000000000000000000000000 DUP2 MSTORE PUSH1 0x4 ADD PUSH2 0x3EC SWAP1 PUSH2 0x810 JUMP JUMPDEST PUSH1 0x40 MLOAD DUP1 SWAP2 SUB SWAP1 REVERT JUMPDEST DUP2 SWAP1 POP SWAP2 SWAP1 POP JUMP JUMPDEST PUSH0 DUP3 PUSH32 0xFFFFFFFFFFFFFFFFFFFFFFFFFFFFFFFFFFFFFFFFFFFFFFFFFFFFFFFFFFFFFFFF PUSH2 0x42A SWAP2 SWAP1 PUSH2 0x82E JUMP JUMPDEST DUP3 GT ISZERO PUSH2 0x46C JUMPI PUSH1 0x40 MLOAD PUSH32 0x8C379A000000000000000000000000000000000000000000000000000000000 DUP2 MSTORE PUSH1 0x4 ADD PUSH2 0x463 SWAP1 PUSH2 0x8AB JUMP JUMPDEST PUSH1 0x40 MLOAD DUP1 SWAP2 SUB SWAP1 REVERT JUMPDEST DUP2 DUP4 PUSH2 0x478 SWAP2 SWAP1 PUSH2 0x75D JUMP JUMPDEST SWAP1 POP SWAP3 SWAP2 POP POP JUMP JUMPDEST PUSH1 0x1 SLOAD DUP2 JUMP JUMPDEST PUSH0 SLOAD DUP2 JUMP JUMPDEST PUSH0 DUP2 SWAP1 POP SWAP2 SWAP1 POP JUMP JUMPDEST PUSH2 0x49D DUP2 PUSH2 0x48B JUMP JUMPDEST DUP3 MSTORE POP POP JUMP JUMPDEST PUSH0 PUSH1 0x20 DUP3 ADD SWAP1 POP PUSH2 0x4B6 PUSH0 DUP4 ADD DUP5 PUSH2 0x494 JUMP JUMPDEST SWAP3 SWAP2 POP POP JUMP JUMPDEST PUSH0 PUSH1 0xFF DUP3 AND SWAP1 POP SWAP2 SWAP1 POP JUMP JUMPDEST PUSH2 0x4D1 DUP2 PUSH2 0x4BC JUMP JUMPDEST DUP3 MSTORE POP POP JUMP JUMPDEST PUSH0 PUSH1 0x20 DUP3 ADD SWAP1 POP PUSH2 0x4EA PUSH0 DUP4 ADD DUP5 PUSH2 0x4C8 JUMP JUMPDEST SWAP3 SWAP2 POP POP JUMP JUMPDEST PUSH0 DUP2 PUSH1 0x1 SIGNEXTEND SWAP1 POP SWAP2 SWAP1 POP JUMP JUMPDEST PUSH2 0x505 DUP2 PUSH2 0x4F0 JUMP JUMPDEST DUP3 MSTORE POP POP JUMP JUMPDEST PUSH0 PUSH1 0x20 DUP3 ADD SWAP1 POP PUSH2 0x51E PUSH0 DUP4 ADD DUP5 PUSH2 0x4FC JUMP JUMPDEST SWAP3 SWAP2 POP POP JUMP JUMPDEST PUSH0 PUSH0 REVERT JUMPDEST PUSH0 DUP2 SWAP1 POP SWAP2 SWAP1 POP JUMP JUMPDEST PUSH2 0x53A DUP2 PUSH2 0x528 JUMP JUMPDEST DUP2 EQ PUSH2 0x544 JUMPI PUSH0 PUSH0 REVERT JUMPDEST POP JUMP JUMPDEST PUSH0 DUP2 CALLDATALOAD SWAP1 POP PUSH2 0x555 DUP2 PUSH2 0x531 JUMP JUMPDEST SWAP3 SWAP2 POP POP JUMP JUMPDEST PUSH0 PUSH0 PUSH1 0x40 DUP4 DUP6 SUB SLT ISZERO PUSH2 0x571 JUMPI PUSH2 0x570 PUSH2 0x524 JUMP JUMPDEST JUMPDEST PUSH0 PUSH2 0x57E DUP6 DUP3 DUP7 ADD PUSH2 0x547 JUMP JUMPDEST SWAP3 POP POP PUSH1 0x20 PUSH2 0x58F DUP6 DUP3 DUP7 ADD PUSH2 0x547 JUMP JUMPDEST SWAP2 POP POP SWAP3 POP SWAP3 SWAP1 POP JUMP JUMPDEST PUSH0 DUP2 ISZERO ISZERO SWAP1 POP SWAP2 SWAP1 POP JUMP JUMPDEST PUSH2 0x5AD DUP2 PUSH2 0x599 JUMP JUMPDEST DUP3 MSTORE POP POP JUMP JUMPDEST PUSH0 PUSH1 0x20 DUP3 ADD SWAP1 POP PUSH2 0x5C6 PUSH0 DUP4 ADD DUP5 PUSH2 0x5A4 JUMP JUMPDEST SWAP3 SWAP2 POP POP JUMP JUMPDEST PUSH2 0x5D5 DUP2 PUSH2 0x48B JUMP JUMPDEST DUP2 EQ PUSH2 0x5DF JUMPI PUSH0 PUSH0 REVERT JUMPDEST POP JUMP JUMPDEST PUSH0 DUP2 CALLDATALOAD SWAP1 POP PUSH2 0x5F0 DUP2 PUSH2 0x5CC JUMP JUMPDEST SWAP3 SWAP2 POP POP JUMP JUMPDEST PUSH0 PUSH1 0x20 DUP3 DUP5 SUB SLT ISZERO PUSH2 0x60B JUMPI PUSH2 0x60A PUSH2 0x524 JUMP JUMPDEST JUMPDEST PUSH0 PUSH2 0x618 DUP5 DUP3 DUP6 ADD PUSH2 0x5E2 JUMP JUMPDEST SWAP2 POP POP SWAP3 SWAP2 POP POP JUMP JUMPDEST PUSH2 0x62A DUP2 PUSH2 0x528 JUMP JUMPDEST DUP3 MSTORE POP POP JUMP JUMPDEST PUSH0 PUSH1 0x20 DUP3 ADD SWAP1 POP PUSH2 0x643 PUSH0 DUP4 ADD DUP5 PUSH2 0x621 JUMP JUMPDEST SWAP3 SWAP2 POP POP JUMP JUMPDEST PUSH0 PUSH2 0xFFFF DUP3 AND SWAP1 POP SWAP2 SWAP1 POP JUMP JUMPDEST PUSH2 0x65F DUP2 PUSH2 0x649 JUMP JUMPDEST DUP3 MSTORE POP POP JUMP JUMPDEST PUSH0 PUSH4 0xFFFFFFFF DUP3 AND SWAP1 POP SWAP2 SWAP1 POP JUMP JUMPDEST PUSH2 0x67D DUP2 PUSH2 0x665 JUMP JUMPDEST DUP3 MSTORE POP POP JUMP JUMPDEST PUSH0 PUSH1 0x60 DUP3 ADD SWAP1 POP PUSH2 0x696 PUSH0 DUP4 ADD DUP7 PUSH2 0x4C8 JUMP JUMPDEST PUSH2 0x6A3 PUSH1 0x20 DUP4 ADD DUP6 PUSH2 0x656 JUMP JUMPDEST PUSH2 0x6B0 PUSH1 0x40 DUP4 ADD DUP5 PUSH2 0x674 JUMP JUMPDEST SWAP5 SWAP4 POP POP POP POP JUMP JUMPDEST PUSH0 PUSH1 0x20 DUP3 DUP5 SUB SLT ISZERO PUSH2 0x6CD JUMPI PUSH2 0x6CC PUSH2 0x524 JUMP JUMPDEST JUMPDEST PUSH0 PUSH2 0x6DA DUP5 DUP3 DUP6 ADD PUSH2 0x547 JUMP JUMPDEST SWAP2 POP POP SWAP3 SWAP2 POP POP JUMP JUMPDEST PUSH0 DUP2 PUSH1 0x3 SIGNEXTEND SWAP1 POP SWAP2 SWAP1 POP JUMP JUMPDEST PUSH2 0x6F8 DUP2 PUSH2 0x6E3 JUMP JUMPDEST DUP3 MSTORE POP POP JUMP JUMPDEST PUSH0 PUSH1 0x20 DUP3 ADD SWAP1 POP PUSH2 0x711 PUSH0 DUP4 ADD DUP5 PUSH2 0x6EF JUMP JUMPDEST SWAP3 SWAP2 POP POP JUMP JUMPDEST PUSH0 PUSH1 0x20 DUP3 ADD SWAP1 POP PUSH2 0x72A PUSH0 DUP4 ADD DUP5 PUSH2 0x656 JUMP JUMPDEST SWAP3 SWAP2 POP POP JUMP JUMPDEST PUSH32 0x4E487B7100000000000000000000000000000000000000000000000000000000 PUSH0 MSTORE PUSH1 0x11 PUSH1 0x4 MSTORE PUSH1 0x24 PUSH0 REVERT JUMPDEST PUSH0 PUSH2 0x767 DUP3 PUSH2 0x528 JUMP JUMPDEST SWAP2 POP PUSH2 0x772 DUP4 PUSH2 0x528 JUMP JUMPDEST SWAP3 POP DUP3 DUP3 ADD SWAP1 POP DUP1 DUP3 GT ISZERO PUSH2 0x78A JUMPI PUSH2 0x789 PUSH2 0x730 JUMP JUMPDEST JUMPDEST SWAP3 SWAP2 POP POP JUMP JUMPDEST PUSH0 DUP3 DUP3 MSTORE PUSH1 0x20 DUP3 ADD SWAP1 POP SWAP3 SWAP2 POP POP JUMP JUMPDEST PUSH32 0x496E746567657254797065733A2076616C756520657863656564732075696E74 PUSH0 DUP3 ADD MSTORE PUSH32 0x382072616E676500000000000000000000000000000000000000000000000000 PUSH1 0x20 DUP3 ADD MSTORE POP JUMP JUMPDEST PUSH0 PUSH2 0x7FA PUSH1 0x27 DUP4 PUSH2 0x790 JUMP JUMPDEST SWAP2 POP PUSH2 0x805 DUP3 PUSH2 0x7A0 JUMP JUMPDEST PUSH1 0x40 DUP3 ADD SWAP1 POP SWAP2 SWAP1 POP JUMP JUMPDEST PUSH0 PUSH1 0x20 DUP3 ADD SWAP1 POP DUP2 DUP2 SUB PUSH0 DUP4 ADD MSTORE PUSH2 0x827 DUP2 PUSH2 0x7EE JUMP JUMPDEST SWAP1 POP SWAP2 SWAP1 POP JUMP JUMPDEST PUSH0 PUSH2 0x838 DUP3 PUSH2 0x528 JUMP JUMPDEST SWAP2 POP PUSH2 0x843 DUP4 PUSH2 0x528 JUMP JUMPDEST SWAP3 POP DUP3 DUP3 SUB SWAP1 POP DUP2 DUP2 GT ISZERO PUSH2 0x85B JUMPI PUSH2 0x85A PUSH2 0x730 JUMP JUMPDEST JUMPDEST SWAP3 SWAP2 POP POP JUMP JUMPDEST PUSH32 0x496E746567657254797065733A206164646974696F6E206F766572666C6F7700 PUSH0 DUP3 ADD MSTORE POP JUMP JUMPDEST PUSH0 PUSH2 0x895 PUSH1 0x1F DUP4 PUSH2 0x790 JUMP JUMPDEST SWAP2 POP PUSH2 0x8A0 DUP3 PUSH2 0x861 JUMP JUMPDEST PUSH1 0x20 DUP3 ADD SWAP1 POP SWAP2 SWAP1 POP JUMP JUMPDEST PUSH0 PUSH1 0x20 DUP3 ADD SWAP1 POP DUP2 DUP2 SUB PUSH0 DUP4 ADD MSTORE PUSH2 0x8C2 DUP2 PUSH2 0x889 JUMP JUMPDEST SWAP1 POP SWAP2 SWAP1 POP JUMP INVALID LOG2 PUSH5 0x6970667358 0x22 SLT KECCAK256 0xAE 0x27 0xDF CHAINID AND 0xA9 ADDRESS 0x2D 0xA9 0xD8 0xC2 0xC 0xB4 0xAB PUSH14 0x9BD1E09D023BCAE8E72FCA2C7677 KECCAK256 RETF KECCAK256 PUSH5 0x736F6C6343 STOP ADDMOD 0x1E STOP CALLER "
		},
		"gasEstimates": {
			"creation": {
				"codeDepositCost": "460600",
				"executionCost": "141885",
				"totalCost": "602485"
			},
			"external": {
				"add(uint256,uint256)": "infinite",
				"count()": "2449",
				"count2()": "2538",
				"count3()": "2588",
				"demonstrateTypeConversions()": "711",
				"explicitSafeAdd(uint256,uint256)": "infinite",
				"isGreater(uint256,uint256)": "infinite",
				"num()": "2492",
				"num2()": "2512",
				"num3()": "2606",
				"safeConvertToUint8(uint256)": "751",
				"stateValueA()": "2512",
				"stateValueB()": "2491",
				"updateStateValueA(uint256)": "22537",
				"updateStateValueB(int256)": "22560"
			}
		},
		"methodIdentifiers": {
			"add(uint256,uint256)": "771602f7",
			"count()": "06661abd",
			"count2()": "1d63e24d",
			"count3()": "7b1d829c",
			"demonstrateTypeConversions()": "71cec743",
			"explicitSafeAdd(uint256,uint256)": "c7d5b456",
			"isGreater(uint256,uint256)": "22800a81",
			"num()": "4e70b1dc",
			"num2()": "15d4266c",
			"num3()": "a531f36a",
			"safeConvertToUint8(uint256)": "c612d08d",
			"stateValueA()": "e3286de6",
			"stateValueB()": "ca1c2835",
			"updateStateValueA(uint256)": "74f9032c",
			"updateStateValueB(int256)": "4e34cd39"
		}
	},
	"abi": [
		{
			"inputs": [
				{
					"internalType": "uint256",
					"name": "firstValue",
					"type": "uint256"
				},
				{
					"internalType": "uint256",
					"name": "secondValue",
					"type": "uint256"
				}
			],
			"name": "add",
			"outputs": [
				{
					"internalType": "uint256",
					"name": "",
					"type": "uint256"
				}
			],
			"stateMutability": "pure",
			"type": "function"
		},
		{
			"inputs": [],
			"name": "count",
			"outputs": [
				{
					"internalType": "int256",
					"name": "",
					"type": "int256"
				}
			],
			"stateMutability": "view",
			"type": "function"
		},
		{
			"inputs": [],
			"name": "count2",
			"outputs": [
				{
					"internalType": "int16",
					"name": "",
					"type": "int16"
				}
			],
			"stateMutability": "view",
			"type": "function"
		},
		{
			"inputs": [],
			"name": "count3",
			"outputs": [
				{
					"internalType": "int32",
					"name": "",
					"type": "int32"
				}
			],
			"stateMutability": "view",
			"type": "function"
		},
		{
			"inputs": [],
			"name": "demonstrateTypeConversions",
			"outputs": [
				{
					"internalType": "uint8",
					"name": "",
					"type": "uint8"
				},
				{
					"internalType": "uint16",
					"name": "",
					"type": "uint16"
				},
				{
					"internalType": "uint32",
					"name": "",
					"type": "uint32"
				}
			],
			"stateMutability": "pure",
			"type": "function"
		},
		{
			"inputs": [
				{
					"internalType": "uint256",
					"name": "firstValue",
					"type": "uint256"
				},
				{
					"internalType": "uint256",
					"name": "secondValue",
					"type": "uint256"
				}
			],
			"name": "explicitSafeAdd",
			"outputs": [
				{
					"internalType": "uint256",
					"name": "",
					"type": "uint256"
				}
			],
			"stateMutability": "pure",
			"type": "function"
		},
		{
			"inputs": [
				{
					"internalType": "uint256",
					"name": "firstValue",
					"type": "uint256"
				},
				{
					"internalType": "uint256",
					"name": "secondValue",
					"type": "uint256"
				}
			],
			"name": "isGreater",
			"outputs": [
				{
					"internalType": "bool",
					"name": "",
					"type": "bool"
				}
			],
			"stateMutability": "pure",
			"type": "function"
		},
		{
			"inputs": [],
			"name": "num",
			"outputs": [
				{
					"internalType": "uint256",
					"name": "",
					"type": "uint256"
				}
			],
			"stateMutability": "view",
			"type": "function"
		},
		{
			"inputs": [],
			"name": "num2",
			"outputs": [
				{
					"internalType": "uint8",
					"name": "",
					"type": "uint8"
				}
			],
			"stateMutability": "view",
			"type": "function"
		},
		{
			"inputs": [],
			"name": "num3",
			"outputs": [
				{
					"internalType": "uint16",
					"name": "",
					"type": "uint16"
				}
			],
			"stateMutability": "view",
			"type": "function"
		},
		{
			"inputs": [
				{
					"internalType": "uint256",
					"name": "largeNumber",
					"type": "uint256"
				}
			],
			"name": "safeConvertToUint8",
			"outputs": [
				{
					"internalType": "uint8",
					"name": "",
					"type": "uint8"
				}
			],
			"stateMutability": "pure",
			"type": "function"
		},
		{
			"inputs": [],
			"name": "stateValueA",
			"outputs": [
				{
					"internalType": "uint256",
					"name": "",
					"type": "uint256"
				}
			],
			"stateMutability": "view",
			"type": "function"
		},
		{
			"inputs": [],
			"name": "stateValueB",
			"outputs": [
				{
					"internalType": "int256",
					"name": "",
					"type": "int256"
				}
			],
			"stateMutability": "view",
			"type": "function"
		},
		{
			"inputs": [
				{
					"internalType": "uint256",
					"name": "newValue",
					"type": "uint256"
				}
			],
			"name": "updateStateValueA",
			"outputs": [],
			"stateMutability": "nonpayable",
			"type": "function"
		},
		{
			"inputs": [
				{
					"internalType": "int256",
					"name": "newValue",
					"type": "int256"
				}
			],
			"name": "updateStateValueB",
			"outputs": [],
			"stateMutability": "nonpayable",
			"type": "function"
		}
	]
}