{
	"data": {
		"bytecode": {
			"linkReferences": {},
			"object": "6080604052607f6002557ffffffffffffffffffffffffffffffffffffffffffffffffffffffffffffffb2f60035f6101000a81548161ffff021916908360010b61ffff1602179055507ffffffffffffffffffffffffffffffffffffffffffffffffffffffffffffe1dc0600360026101000a81548163ffffffff021916908360030b63ffffffff160217905550601760045560ff60055f6101000a81548160ff021916908360ff160217905550616758600560016101000a81548161ffff021916908361ffff16021790555034801560d5575f5ffd5b506103d8806100e35f395ff3fe608060405234801561000f575f5ffd5b506004361061004a575f3560e01c806322800a811461004e57806334afb39d1461007e578063771602f7146100ae578063e6cb9013146100de575b5f5ffd5b610068600480360381019061006391906101d2565b61010e565b604051610075919061022a565b60405180910390f35b61009860048036038101906100939190610243565b61011a565b6040516100a59190610289565b60405180910390f35b6100c860048036038101906100c391906101d2565b610123565b6040516100d591906102b1565b60405180910390f35b6100f860048036038101906100f391906101d2565b610138565b60405161010591906102b1565b60405180910390f35b5f818311905092915050565b5f819050919050565b5f818361013091906102f7565b905092915050565b5f82828461014691906102f7565b1015610187576040517f08c379a000000000000000000000000000000000000000000000000000000000815260040161017e90610384565b60405180910390fd5b818361019391906102f7565b905092915050565b5f5ffd5b5f819050919050565b6101b18161019f565b81146101bb575f5ffd5b50565b5f813590506101cc816101a8565b92915050565b5f5f604083850312156101e8576101e761019b565b5b5f6101f5858286016101be565b9250506020610206858286016101be565b9150509250929050565b5f8115159050919050565b61022481610210565b82525050565b5f60208201905061023d5f83018461021b565b92915050565b5f602082840312156102585761025761019b565b5b5f610265848285016101be565b91505092915050565b5f60ff82169050919050565b6102838161026e565b82525050565b5f60208201905061029c5f83018461027a565b92915050565b6102ab8161019f565b82525050565b5f6020820190506102c45f8301846102a2565b92915050565b7f4e487b71000000000000000000000000000000000000000000000000000000005f52601160045260245ffd5b5f6103018261019f565b915061030c8361019f565b9250828201905080821115610324576103236102ca565b5b92915050565b5f82825260208201905092915050565b7f496e7465676572206f766572666c6f77206465746563746564000000000000005f82015250565b5f61036e60198361032a565b91506103798261033a565b602082019050919050565b5f6020820190508181035f83015261039b81610362565b905091905056fea26469706673582212204aae762cdde1a76d539f89668ba7479aba392b03fcc4e729ea0e6fb32cd8a10664736f6c634300081e0033",
			"opcodes": "PUSH1 0x80 PUSH1 0x40 MSTORE PUSH1 0x7F PUSH1 0x2 SSTORE PUSH32 0xFFFFFFFFFFFFFFFFFFFFFFFFFFFFFFFFFFFFFFFFFFFFFFFFFFFFFFFFFFFFFB2F PUSH1 0x3 PUSH0 PUSH2 0x100 EXP DUP2 SLOAD DUP2 PUSH2 0xFFFF MUL NOT AND SWAP1 DUP4 PUSH1 0x1 SIGNEXTEND PUSH2 0xFFFF AND MUL OR SWAP1 SSTORE POP PUSH32 0xFFFFFFFFFFFFFFFFFFFFFFFFFFFFFFFFFFFFFFFFFFFFFFFFFFFFFFFFFFFE1DC0 PUSH1 0x3 PUSH1 0x2 PUSH2 0x100 EXP DUP2 SLOAD DUP2 PUSH4 0xFFFFFFFF MUL NOT AND SWAP1 DUP4 PUSH1 0x3 SIGNEXTEND PUSH4 0xFFFFFFFF AND MUL OR SWAP1 SSTORE POP PUSH1 0x17 PUSH1 0x4 SSTORE PUSH1 0xFF PUSH1 0x5 PUSH0 PUSH2 0x100 EXP DUP2 SLOAD DUP2 PUSH1 0xFF MUL NOT AND SWAP1 DUP4 PUSH1 0xFF AND MUL OR SWAP1 SSTORE POP PUSH2 0x6758 PUSH1 0x5 PUSH1 0x1 PUSH2 0x100 EXP DUP2 SLOAD DUP2 PUSH2 0xFFFF MUL NOT AND SWAP1 DUP4 PUSH2 0xFFFF AND MUL OR SWAP1 SSTORE POP CALLVALUE DUP1 ISZERO PUSH1 0xD5 JUMPI PUSH0 PUSH0 REVERT JUMPDEST POP PUSH2 0x3D8 DUP1 PUSH2 0xE3 PUSH0 CODECOPY PUSH0 RETURN INVALID PUSH1 0x80 PUSH1 0x40 MSTORE CALLVALUE DUP1 ISZERO PUSH2 0xF JUMPI PUSH0 PUSH0 REVERT JUMPDEST POP PUSH1 0x4 CALLDATASIZE LT PUSH2 0x4A JUMPI PUSH0 CALLDATALOAD PUSH1 0xE0 SHR DUP1 PUSH4 0x22800A81 EQ PUSH2 0x4E JUMPI DUP1 PUSH4 0x34AFB39D EQ PUSH2 0x7E JUMPI DUP1 PUSH4 0x771602F7 EQ PUSH2 0xAE JUMPI DUP1 PUSH4 0xE6CB9013 EQ PUSH2 0xDE JUMPI JUMPDEST PUSH0 PUSH0 REVERT JUMPDEST PUSH2 0x68 PUSH1 0x4 DUP1 CALLDATASIZE SUB DUP2 ADD SWAP1 PUSH2 0x63 SWAP2 SWAP1 PUSH2 0x1D2 JUMP JUMPDEST PUSH2 0x10E JUMP JUMPDEST PUSH1 0x40 MLOAD PUSH2 0x75 SWAP2 SWAP1 PUSH2 0x22A JUMP JUMPDEST PUSH1 0x40 MLOAD DUP1 SWAP2 SUB SWAP1 RETURN JUMPDEST PUSH2 0x98 PUSH1 0x4 DUP1 CALLDATASIZE SUB DUP2 ADD SWAP1 PUSH2 0x93 SWAP2 SWAP1 PUSH2 0x243 JUMP JUMPDEST PUSH2 0x11A JUMP JUMPDEST PUSH1 0x40 MLOAD PUSH2 0xA5 SWAP2 SWAP1 PUSH2 0x289 JUMP JUMPDEST PUSH1 0x40 MLOAD DUP1 SWAP2 SUB SWAP1 RETURN JUMPDEST PUSH2 0xC8 PUSH1 0x4 DUP1 CALLDATASIZE SUB DUP2 ADD SWAP1 PUSH2 0xC3 SWAP2 SWAP1 PUSH2 0x1D2 JUMP JUMPDEST PUSH2 0x123 JUMP JUMPDEST PUSH1 0x40 MLOAD PUSH2 0xD5 SWAP2 SWAP1 PUSH2 0x2B1 JUMP JUMPDEST PUSH1 0x40 MLOAD DUP1 SWAP2 SUB SWAP1 RETURN JUMPDEST PUSH2 0xF8 PUSH1 0x4 DUP1 CALLDATASIZE SUB DUP2 ADD SWAP1 PUSH2 0xF3 SWAP2 SWAP1 PUSH2 0x1D2 JUMP JUMPDEST PUSH2 0x138 JUMP JUMPDEST PUSH1 0x40 MLOAD PUSH2 0x105 SWAP2 SWAP1 PUSH2 0x2B1 JUMP JUMPDEST PUSH1 0x40 MLOAD DUP1 SWAP2 SUB SWAP1 RETURN JUMPDEST PUSH0 DUP2 DUP4 GT SWAP1 POP SWAP3 SWAP2 POP POP JUMP JUMPDEST PUSH0 DUP2 SWAP1 POP SWAP2 SWAP1 POP JUMP JUMPDEST PUSH0 DUP2 DUP4 PUSH2 0x130 SWAP2 SWAP1 PUSH2 0x2F7 JUMP JUMPDEST SWAP1 POP SWAP3 SWAP2 POP POP JUMP JUMPDEST PUSH0 DUP3 DUP3 DUP5 PUSH2 0x146 SWAP2 SWAP1 PUSH2 0x2F7 JUMP JUMPDEST LT ISZERO PUSH2 0x187 JUMPI PUSH1 0x40 MLOAD PUSH32 0x8C379A000000000000000000000000000000000000000000000000000000000 DUP2 MSTORE PUSH1 0x4 ADD PUSH2 0x17E SWAP1 PUSH2 0x384 JUMP JUMPDEST PUSH1 0x40 MLOAD DUP1 SWAP2 SUB SWAP1 REVERT JUMPDEST DUP2 DUP4 PUSH2 0x193 SWAP2 SWAP1 PUSH2 0x2F7 JUMP JUMPDEST SWAP1 POP SWAP3 SWAP2 POP POP JUMP JUMPDEST PUSH0 PUSH0 REVERT JUMPDEST PUSH0 DUP2 SWAP1 POP SWAP2 SWAP1 POP JUMP JUMPDEST PUSH2 0x1B1 DUP2 PUSH2 0x19F JUMP JUMPDEST DUP2 EQ PUSH2 0x1BB JUMPI PUSH0 PUSH0 REVERT JUMPDEST POP JUMP JUMPDEST PUSH0 DUP2 CALLDATALOAD SWAP1 POP PUSH2 0x1CC DUP2 PUSH2 0x1A8 JUMP JUMPDEST SWAP3 SWAP2 POP POP JUMP JUMPDEST PUSH0 PUSH0 PUSH1 0x40 DUP4 DUP6 SUB SLT ISZERO PUSH2 0x1E8 JUMPI PUSH2 0x1E7 PUSH2 0x19B JUMP JUMPDEST JUMPDEST PUSH0 PUSH2 0x1F5 DUP6 DUP3 DUP7 ADD PUSH2 0x1BE JUMP JUMPDEST SWAP3 POP POP PUSH1 0x20 PUSH2 0x206 DUP6 DUP3 DUP7 ADD PUSH2 0x1BE JUMP JUMPDEST SWAP2 POP POP SWAP3 POP SWAP3 SWAP1 POP JUMP JUMPDEST PUSH0 DUP2 ISZERO ISZERO SWAP1 POP SWAP2 SWAP1 POP JUMP JUMPDEST PUSH2 0x224 DUP2 PUSH2 0x210 JUMP JUMPDEST DUP3 MSTORE POP POP JUMP JUMPDEST PUSH0 PUSH1 0x20 DUP3 ADD SWAP1 POP PUSH2 0x23D PUSH0 DUP4 ADD DUP5 PUSH2 0x21B JUMP JUMPDEST SWAP3 SWAP2 POP POP JUMP JUMPDEST PUSH0 PUSH1 0x20 DUP3 DUP5 SUB SLT ISZERO PUSH2 0x258 JUMPI PUSH2 0x257 PUSH2 0x19B JUMP JUMPDEST JUMPDEST PUSH0 PUSH2 0x265 DUP5 DUP3 DUP6 ADD PUSH2 0x1BE JUMP JUMPDEST SWAP2 POP POP SWAP3 SWAP2 POP POP JUMP JUMPDEST PUSH0 PUSH1 0xFF DUP3 AND SWAP1 POP SWAP2 SWAP1 POP JUMP JUMPDEST PUSH2 0x283 DUP2 PUSH2 0x26E JUMP JUMPDEST DUP3 MSTORE POP POP JUMP JUMPDEST PUSH0 PUSH1 0x20 DUP3 ADD SWAP1 POP PUSH2 0x29C PUSH0 DUP4 ADD DUP5 PUSH2 0x27A JUMP JUMPDEST SWAP3 SWAP2 POP POP JUMP JUMPDEST PUSH2 0x2AB DUP2 PUSH2 0x19F JUMP JUMPDEST DUP3 MSTORE POP POP JUMP JUMPDEST PUSH0 PUSH1 0x20 DUP3 ADD SWAP1 POP PUSH2 0x2C4 PUSH0 DUP4 ADD DUP5 PUSH2 0x2A2 JUMP JUMPDEST SWAP3 SWAP2 POP POP JUMP JUMPDEST PUSH32 0x4E487B7100000000000000000000000000000000000000000000000000000000 PUSH0 MSTORE PUSH1 0x11 PUSH1 0x4 MSTORE PUSH1 0x24 PUSH0 REVERT JUMPDEST PUSH0 PUSH2 0x301 DUP3 PUSH2 0x19F JUMP JUMPDEST SWAP2 POP PUSH2 0x30C DUP4 PUSH2 0x19F JUMP JUMPDEST SWAP3 POP DUP3 DUP3 ADD SWAP1 POP DUP1 DUP3 GT ISZERO PUSH2 0x324 JUMPI PUSH2 0x323 PUSH2 0x2CA JUMP JUMPDEST JUMPDEST SWAP3 SWAP2 POP POP JUMP JUMPDEST PUSH0 DUP3 DUP3 MSTORE PUSH1 0x20 DUP3 ADD SWAP1 POP SWAP3 SWAP2 POP POP JUMP JUMPDEST PUSH32 0x496E7465676572206F766572666C6F7720646574656374656400000000000000 PUSH0 DUP3 ADD MSTORE POP JUMP JUMPDEST PUSH0 PUSH2 0x36E PUSH1 0x19 DUP4 PUSH2 0x32A JUMP JUMPDEST SWAP2 POP PUSH2 0x379 DUP3 PUSH2 0x33A JUMP JUMPDEST PUSH1 0x20 DUP3 ADD SWAP1 POP SWAP2 SWAP1 POP JUMP JUMPDEST PUSH0 PUSH1 0x20 DUP3 ADD SWAP1 POP DUP2 DUP2 SUB PUSH0 DUP4 ADD MSTORE PUSH2 0x39B DUP2 PUSH2 0x362 JUMP JUMPDEST SWAP1 POP SWAP2 SWAP1 POP JUMP INVALID LOG2 PUSH5 0x6970667358 0x22 SLT KECCAK256 BLOBBASEFEE 0xAE PUSH23 0x2CDDE1A76D539F89668BA7479ABA392B03FCC4E729EA0E PUSH16 0xB32CD8A10664736F6C634300081E0033 "
		},
		"gasEstimates": {
			"creation": {
				"codeDepositCost": "196800",
				"executionCost": "141630",
				"totalCost": "338430"
			},
			"external": {
				"add(uint256,uint256)": "infinite",
				"convertToUint8(uint256)": "599",
				"isGreater(uint256,uint256)": "infinite",
				"safeAdd(uint256,uint256)": "infinite"
			}
		},
		"methodIdentifiers": {
			"add(uint256,uint256)": "771602f7",
			"convertToUint8(uint256)": "34afb39d",
			"isGreater(uint256,uint256)": "22800a81",
			"safeAdd(uint256,uint256)": "e6cb9013"
		}
	},
	"abi": [
		{
			"inputs": [
				{
					"internalType": "uint256",
					"name": "x",
					"type": "uint256"
				},
				{
					"internalType": "uint256",
					"name": "y",
					"type": "uint256"
				}
			],
			"name": "add",
			"outputs": [
				{
					"internalType": "uint256",
					"name": "",
					"type": "uint256"
				}
			],
			"stateMutability": "pure",
			"type": "function"
		},
		{
			"inputs": [
				{
					"internalType": "uint256",
					"name": "largeNumber",
					"type": "uint256"
				}
			],
			"name": "convertToUint8",
			"outputs": [
				{
					"internalType": "uint8",
					"name": "",
					"type": "uint8"
				}
			],
			"stateMutability": "pure",
			"type": "function"
		},
		{
			"inputs": [
				{
					"internalType": "uint256",
					"name": "a",
					"type": "uint256"
				},
				{
					"internalType": "uint256",
					"name": "b",
					"type": "uint256"
				}
			],
			"name": "isGreater",
			"outputs": [
				{
					"internalType": "bool",
					"name": "",
					"type": "bool"
				}
			],
			"stateMutability": "pure",
			"type": "function"
		},
		{
			"inputs": [
				{
					"internalType": "uint256",
					"name": "a",
					"type": "uint256"
				},
				{
					"internalType": "uint256",
					"name": "b",
					"type": "uint256"
				}
			],
			"name": "safeAdd",
			"outputs": [
				{
					"internalType": "uint256",
					"name": "",
					"type": "uint256"
				}
			],
			"stateMutability": "pure",
			"type": "function"
		}
	]
}