{
	"data": {
		"bytecode": {
			"linkReferences": {},
			"object": "60806040525f6003553480156012575f5ffd5b50610880806100205f395ff3fe608060405234801561000f575f5ffd5b50600436106100a7575f3560e01c8063a87d942c1161006f578063a87d942c14610129578063a92100cb14610147578063bc68f96014610151578063be1c766b1461015b578063d504ea1d14610179578063d826f88f14610197576100a7565b806302a2cf0b146100ab57806306661abd146100b55780632cd0936e146100d3578063587171c4146100ef57806371e5ee5f146100f9575b5f5ffd5b6100b36101a1565b005b6100bd6101e1565b6040516100ca91906104e7565b60405180910390f35b6100ed60048036038101906100e8919061052e565b6101e7565b005b6100f76102b1565b005b610113600480360381019061010e919061056c565b6102fd565b60405161012091906104e7565b60405180910390f35b610131610315565b60405161013e91906104e7565b60405180910390f35b61014f61031e565b005b610159610381565b005b6101636103be565b60405161017091906104e7565b60405180910390f35b6101816103c6565b60405161018e919061063c565b60405180910390f35b61019f610410565b005b5b6003545f600354600381106101ba576101b9610655565b5b018190555060035f8154809291906101d1906106af565b919050555060038054106101a257565b60035481565b600381111561022b576040517f08c379a000000000000000000000000000000000000000000000000000000000815260040161022290610750565b60405180910390fd5b80821061026d576040517f08c379a0000000000000000000000000000000000000000000000000000000008152600401610264906107b8565b60405180910390fd5b5f8290505b818110156102ac5760028161028791906107d6565b5f826003811061029a57610299610655565b5b01819055508080600101915050610272565b505050565b5f60035490505b60038110156102fa57805f82600381106102d5576102d4610655565b5b01819055506001816102e79190610817565b60038190555080806001019150506102b8565b50565b5f816003811061030b575f80fd5b015f915090505481565b5f600354905090565b5f600290505b60038054101561037e5780600261033b91906107d6565b5f600354600381106103505761034f610655565b5b01819055506003816103629190610817565b905060016003546103739190610817565b600381905550610324565b50565b5f60035490505b60038110156103bb576003545f600354600381106103a9576103a8610655565b5b01819055508080600101915050610388565b50565b5f6003905090565b6103ce61044d565b5f600380602002604051908101604052809291908260038015610406576020028201915b8154815260200190600101908083116103f2575b5050505050905090565b5f60038190555060405180606001604052805f60ff1681526020015f60ff1681526020015f60ff168152505f90600361044a92919061046f565b50565b6040518060600160405280600390602082028036833780820191505090505090565b82600381019282156104a3579160200282015b828111156104a2578251829060ff16905591602001919060010190610482565b5b5090506104b091906104b4565b5090565b5b808211156104cb575f815f9055506001016104b5565b5090565b5f819050919050565b6104e1816104cf565b82525050565b5f6020820190506104fa5f8301846104d8565b92915050565b5f5ffd5b61050d816104cf565b8114610517575f5ffd5b50565b5f8135905061052881610504565b92915050565b5f5f6040838503121561054457610543610500565b5b5f6105518582860161051a565b92505060206105628582860161051a565b9150509250929050565b5f6020828403121561058157610580610500565b5b5f61058e8482850161051a565b91505092915050565b5f60039050919050565b5f81905092915050565b5f819050919050565b6105bd816104cf565b82525050565b5f6105ce83836105b4565b60208301905092915050565b5f602082019050919050565b6105ef81610597565b6105f981846105a1565b9250610604826105ab565b805f5b8381101561063457815161061b87826105c3565b9650610626836105da565b925050600181019050610607565b505050505050565b5f60608201905061064f5f8301846105e6565b92915050565b7f4e487b71000000000000000000000000000000000000000000000000000000005f52603260045260245ffd5b7f4e487b71000000000000000000000000000000000000000000000000000000005f52601160045260245ffd5b5f6106b9826104cf565b91507fffffffffffffffffffffffffffffffffffffffffffffffffffffffffffffffff82036106eb576106ea610682565b5b600182019050919050565b5f82825260208201905092915050565b7f456e6420696e646578206f7574206f6620626f756e64730000000000000000005f82015250565b5f61073a6017836106f6565b915061074582610706565b602082019050919050565b5f6020820190508181035f8301526107678161072e565b9050919050565b7f5374617274206d757374206265206c657373207468616e20656e6400000000005f82015250565b5f6107a2601b836106f6565b91506107ad8261076e565b602082019050919050565b5f6020820190508181035f8301526107cf81610796565b9050919050565b5f6107e0826104cf565b91506107eb836104cf565b92508282026107f9816104cf565b915082820484148315176108105761080f610682565b5b5092915050565b5f610821826104cf565b915061082c836104cf565b925082820190508082111561084457610843610682565b5b9291505056fea2646970667358221220f1104d7ffcc0213f2e1841ed941e1fa1d7af6ee82758731c2a5b30bc1f68824564736f6c634300081e0033",
			"opcodes": "PUSH1 0x80 PUSH1 0x40 MSTORE PUSH0 PUSH1 0x3 SSTORE CALLVALUE DUP1 ISZERO PUSH1 0x12 JUMPI PUSH0 PUSH0 REVERT JUMPDEST POP PUSH2 0x880 DUP1 PUSH2 0x20 PUSH0 CODECOPY PUSH0 RETURN INVALID PUSH1 0x80 PUSH1 0x40 MSTORE CALLVALUE DUP1 ISZERO PUSH2 0xF JUMPI PUSH0 PUSH0 REVERT JUMPDEST POP PUSH1 0x4 CALLDATASIZE LT PUSH2 0xA7 JUMPI PUSH0 CALLDATALOAD PUSH1 0xE0 SHR DUP1 PUSH4 0xA87D942C GT PUSH2 0x6F JUMPI DUP1 PUSH4 0xA87D942C EQ PUSH2 0x129 JUMPI DUP1 PUSH4 0xA92100CB EQ PUSH2 0x147 JUMPI DUP1 PUSH4 0xBC68F960 EQ PUSH2 0x151 JUMPI DUP1 PUSH4 0xBE1C766B EQ PUSH2 0x15B JUMPI DUP1 PUSH4 0xD504EA1D EQ PUSH2 0x179 JUMPI DUP1 PUSH4 0xD826F88F EQ PUSH2 0x197 JUMPI PUSH2 0xA7 JUMP JUMPDEST DUP1 PUSH4 0x2A2CF0B EQ PUSH2 0xAB JUMPI DUP1 PUSH4 0x6661ABD EQ PUSH2 0xB5 JUMPI DUP1 PUSH4 0x2CD0936E EQ PUSH2 0xD3 JUMPI DUP1 PUSH4 0x587171C4 EQ PUSH2 0xEF JUMPI DUP1 PUSH4 0x71E5EE5F EQ PUSH2 0xF9 JUMPI JUMPDEST PUSH0 PUSH0 REVERT JUMPDEST PUSH2 0xB3 PUSH2 0x1A1 JUMP JUMPDEST STOP JUMPDEST PUSH2 0xBD PUSH2 0x1E1 JUMP JUMPDEST PUSH1 0x40 MLOAD PUSH2 0xCA SWAP2 SWAP1 PUSH2 0x4E7 JUMP JUMPDEST PUSH1 0x40 MLOAD DUP1 SWAP2 SUB SWAP1 RETURN JUMPDEST PUSH2 0xED PUSH1 0x4 DUP1 CALLDATASIZE SUB DUP2 ADD SWAP1 PUSH2 0xE8 SWAP2 SWAP1 PUSH2 0x52E JUMP JUMPDEST PUSH2 0x1E7 JUMP JUMPDEST STOP JUMPDEST PUSH2 0xF7 PUSH2 0x2B1 JUMP JUMPDEST STOP JUMPDEST PUSH2 0x113 PUSH1 0x4 DUP1 CALLDATASIZE SUB DUP2 ADD SWAP1 PUSH2 0x10E SWAP2 SWAP1 PUSH2 0x56C JUMP JUMPDEST PUSH2 0x2FD JUMP JUMPDEST PUSH1 0x40 MLOAD PUSH2 0x120 SWAP2 SWAP1 PUSH2 0x4E7 JUMP JUMPDEST PUSH1 0x40 MLOAD DUP1 SWAP2 SUB SWAP1 RETURN JUMPDEST PUSH2 0x131 PUSH2 0x315 JUMP JUMPDEST PUSH1 0x40 MLOAD PUSH2 0x13E SWAP2 SWAP1 PUSH2 0x4E7 JUMP JUMPDEST PUSH1 0x40 MLOAD DUP1 SWAP2 SUB SWAP1 RETURN JUMPDEST PUSH2 0x14F PUSH2 0x31E JUMP JUMPDEST STOP JUMPDEST PUSH2 0x159 PUSH2 0x381 JUMP JUMPDEST STOP JUMPDEST PUSH2 0x163 PUSH2 0x3BE JUMP JUMPDEST PUSH1 0x40 MLOAD PUSH2 0x170 SWAP2 SWAP1 PUSH2 0x4E7 JUMP JUMPDEST PUSH1 0x40 MLOAD DUP1 SWAP2 SUB SWAP1 RETURN JUMPDEST PUSH2 0x181 PUSH2 0x3C6 JUMP JUMPDEST PUSH1 0x40 MLOAD PUSH2 0x18E SWAP2 SWAP1 PUSH2 0x63C JUMP JUMPDEST PUSH1 0x40 MLOAD DUP1 SWAP2 SUB SWAP1 RETURN JUMPDEST PUSH2 0x19F PUSH2 0x410 JUMP JUMPDEST STOP JUMPDEST JUMPDEST PUSH1 0x3 SLOAD PUSH0 PUSH1 0x3 SLOAD PUSH1 0x3 DUP2 LT PUSH2 0x1BA JUMPI PUSH2 0x1B9 PUSH2 0x655 JUMP JUMPDEST JUMPDEST ADD DUP2 SWAP1 SSTORE POP PUSH1 0x3 PUSH0 DUP2 SLOAD DUP1 SWAP3 SWAP2 SWAP1 PUSH2 0x1D1 SWAP1 PUSH2 0x6AF JUMP JUMPDEST SWAP2 SWAP1 POP SSTORE POP PUSH1 0x3 DUP1 SLOAD LT PUSH2 0x1A2 JUMPI JUMP JUMPDEST PUSH1 0x3 SLOAD DUP2 JUMP JUMPDEST PUSH1 0x3 DUP2 GT ISZERO PUSH2 0x22B JUMPI PUSH1 0x40 MLOAD PUSH32 0x8C379A000000000000000000000000000000000000000000000000000000000 DUP2 MSTORE PUSH1 0x4 ADD PUSH2 0x222 SWAP1 PUSH2 0x750 JUMP JUMPDEST PUSH1 0x40 MLOAD DUP1 SWAP2 SUB SWAP1 REVERT JUMPDEST DUP1 DUP3 LT PUSH2 0x26D JUMPI PUSH1 0x40 MLOAD PUSH32 0x8C379A000000000000000000000000000000000000000000000000000000000 DUP2 MSTORE PUSH1 0x4 ADD PUSH2 0x264 SWAP1 PUSH2 0x7B8 JUMP JUMPDEST PUSH1 0x40 MLOAD DUP1 SWAP2 SUB SWAP1 REVERT JUMPDEST PUSH0 DUP3 SWAP1 POP JUMPDEST DUP2 DUP2 LT ISZERO PUSH2 0x2AC JUMPI PUSH1 0x2 DUP2 PUSH2 0x287 SWAP2 SWAP1 PUSH2 0x7D6 JUMP JUMPDEST PUSH0 DUP3 PUSH1 0x3 DUP2 LT PUSH2 0x29A JUMPI PUSH2 0x299 PUSH2 0x655 JUMP JUMPDEST JUMPDEST ADD DUP2 SWAP1 SSTORE POP DUP1 DUP1 PUSH1 0x1 ADD SWAP2 POP POP PUSH2 0x272 JUMP JUMPDEST POP POP POP JUMP JUMPDEST PUSH0 PUSH1 0x3 SLOAD SWAP1 POP JUMPDEST PUSH1 0x3 DUP2 LT ISZERO PUSH2 0x2FA JUMPI DUP1 PUSH0 DUP3 PUSH1 0x3 DUP2 LT PUSH2 0x2D5 JUMPI PUSH2 0x2D4 PUSH2 0x655 JUMP JUMPDEST JUMPDEST ADD DUP2 SWAP1 SSTORE POP PUSH1 0x1 DUP2 PUSH2 0x2E7 SWAP2 SWAP1 PUSH2 0x817 JUMP JUMPDEST PUSH1 0x3 DUP2 SWAP1 SSTORE POP DUP1 DUP1 PUSH1 0x1 ADD SWAP2 POP POP PUSH2 0x2B8 JUMP JUMPDEST POP JUMP JUMPDEST PUSH0 DUP2 PUSH1 0x3 DUP2 LT PUSH2 0x30B JUMPI PUSH0 DUP1 REVERT JUMPDEST ADD PUSH0 SWAP2 POP SWAP1 POP SLOAD DUP2 JUMP JUMPDEST PUSH0 PUSH1 0x3 SLOAD SWAP1 POP SWAP1 JUMP JUMPDEST PUSH0 PUSH1 0x2 SWAP1 POP JUMPDEST PUSH1 0x3 DUP1 SLOAD LT ISZERO PUSH2 0x37E JUMPI DUP1 PUSH1 0x2 PUSH2 0x33B SWAP2 SWAP1 PUSH2 0x7D6 JUMP JUMPDEST PUSH0 PUSH1 0x3 SLOAD PUSH1 0x3 DUP2 LT PUSH2 0x350 JUMPI PUSH2 0x34F PUSH2 0x655 JUMP JUMPDEST JUMPDEST ADD DUP2 SWAP1 SSTORE POP PUSH1 0x3 DUP2 PUSH2 0x362 SWAP2 SWAP1 PUSH2 0x817 JUMP JUMPDEST SWAP1 POP PUSH1 0x1 PUSH1 0x3 SLOAD PUSH2 0x373 SWAP2 SWAP1 PUSH2 0x817 JUMP JUMPDEST PUSH1 0x3 DUP2 SWAP1 SSTORE POP PUSH2 0x324 JUMP JUMPDEST POP JUMP JUMPDEST PUSH0 PUSH1 0x3 SLOAD SWAP1 POP JUMPDEST PUSH1 0x3 DUP2 LT ISZERO PUSH2 0x3BB JUMPI PUSH1 0x3 SLOAD PUSH0 PUSH1 0x3 SLOAD PUSH1 0x3 DUP2 LT PUSH2 0x3A9 JUMPI PUSH2 0x3A8 PUSH2 0x655 JUMP JUMPDEST JUMPDEST ADD DUP2 SWAP1 SSTORE POP DUP1 DUP1 PUSH1 0x1 ADD SWAP2 POP POP PUSH2 0x388 JUMP JUMPDEST POP JUMP JUMPDEST PUSH0 PUSH1 0x3 SWAP1 POP SWAP1 JUMP JUMPDEST PUSH2 0x3CE PUSH2 0x44D JUMP JUMPDEST PUSH0 PUSH1 0x3 DUP1 PUSH1 0x20 MUL PUSH1 0x40 MLOAD SWAP1 DUP2 ADD PUSH1 0x40 MSTORE DUP1 SWAP3 SWAP2 SWAP1 DUP3 PUSH1 0x3 DUP1 ISZERO PUSH2 0x406 JUMPI PUSH1 0x20 MUL DUP3 ADD SWAP2 JUMPDEST DUP2 SLOAD DUP2 MSTORE PUSH1 0x20 ADD SWAP1 PUSH1 0x1 ADD SWAP1 DUP1 DUP4 GT PUSH2 0x3F2 JUMPI JUMPDEST POP POP POP POP POP SWAP1 POP SWAP1 JUMP JUMPDEST PUSH0 PUSH1 0x3 DUP2 SWAP1 SSTORE POP PUSH1 0x40 MLOAD DUP1 PUSH1 0x60 ADD PUSH1 0x40 MSTORE DUP1 PUSH0 PUSH1 0xFF AND DUP2 MSTORE PUSH1 0x20 ADD PUSH0 PUSH1 0xFF AND DUP2 MSTORE PUSH1 0x20 ADD PUSH0 PUSH1 0xFF AND DUP2 MSTORE POP PUSH0 SWAP1 PUSH1 0x3 PUSH2 0x44A SWAP3 SWAP2 SWAP1 PUSH2 0x46F JUMP JUMPDEST POP JUMP JUMPDEST PUSH1 0x40 MLOAD DUP1 PUSH1 0x60 ADD PUSH1 0x40 MSTORE DUP1 PUSH1 0x3 SWAP1 PUSH1 0x20 DUP3 MUL DUP1 CALLDATASIZE DUP4 CALLDATACOPY DUP1 DUP3 ADD SWAP2 POP POP SWAP1 POP POP SWAP1 JUMP JUMPDEST DUP3 PUSH1 0x3 DUP2 ADD SWAP3 DUP3 ISZERO PUSH2 0x4A3 JUMPI SWAP2 PUSH1 0x20 MUL DUP3 ADD JUMPDEST DUP3 DUP2 GT ISZERO PUSH2 0x4A2 JUMPI DUP3 MLOAD DUP3 SWAP1 PUSH1 0xFF AND SWAP1 SSTORE SWAP2 PUSH1 0x20 ADD SWAP2 SWAP1 PUSH1 0x1 ADD SWAP1 PUSH2 0x482 JUMP JUMPDEST JUMPDEST POP SWAP1 POP PUSH2 0x4B0 SWAP2 SWAP1 PUSH2 0x4B4 JUMP JUMPDEST POP SWAP1 JUMP JUMPDEST JUMPDEST DUP1 DUP3 GT ISZERO PUSH2 0x4CB JUMPI PUSH0 DUP2 PUSH0 SWAP1 SSTORE POP PUSH1 0x1 ADD PUSH2 0x4B5 JUMP JUMPDEST POP SWAP1 JUMP JUMPDEST PUSH0 DUP2 SWAP1 POP SWAP2 SWAP1 POP JUMP JUMPDEST PUSH2 0x4E1 DUP2 PUSH2 0x4CF JUMP JUMPDEST DUP3 MSTORE POP POP JUMP JUMPDEST PUSH0 PUSH1 0x20 DUP3 ADD SWAP1 POP PUSH2 0x4FA PUSH0 DUP4 ADD DUP5 PUSH2 0x4D8 JUMP JUMPDEST SWAP3 SWAP2 POP POP JUMP JUMPDEST PUSH0 PUSH0 REVERT JUMPDEST PUSH2 0x50D DUP2 PUSH2 0x4CF JUMP JUMPDEST DUP2 EQ PUSH2 0x517 JUMPI PUSH0 PUSH0 REVERT JUMPDEST POP JUMP JUMPDEST PUSH0 DUP2 CALLDATALOAD SWAP1 POP PUSH2 0x528 DUP2 PUSH2 0x504 JUMP JUMPDEST SWAP3 SWAP2 POP POP JUMP JUMPDEST PUSH0 PUSH0 PUSH1 0x40 DUP4 DUP6 SUB SLT ISZERO PUSH2 0x544 JUMPI PUSH2 0x543 PUSH2 0x500 JUMP JUMPDEST JUMPDEST PUSH0 PUSH2 0x551 DUP6 DUP3 DUP7 ADD PUSH2 0x51A JUMP JUMPDEST SWAP3 POP POP PUSH1 0x20 PUSH2 0x562 DUP6 DUP3 DUP7 ADD PUSH2 0x51A JUMP JUMPDEST SWAP2 POP POP SWAP3 POP SWAP3 SWAP1 POP JUMP JUMPDEST PUSH0 PUSH1 0x20 DUP3 DUP5 SUB SLT ISZERO PUSH2 0x581 JUMPI PUSH2 0x580 PUSH2 0x500 JUMP JUMPDEST JUMPDEST PUSH0 PUSH2 0x58E DUP5 DUP3 DUP6 ADD PUSH2 0x51A JUMP JUMPDEST SWAP2 POP POP SWAP3 SWAP2 POP POP JUMP JUMPDEST PUSH0 PUSH1 0x3 SWAP1 POP SWAP2 SWAP1 POP JUMP JUMPDEST PUSH0 DUP2 SWAP1 POP SWAP3 SWAP2 POP POP JUMP JUMPDEST PUSH0 DUP2 SWAP1 POP SWAP2 SWAP1 POP JUMP JUMPDEST PUSH2 0x5BD DUP2 PUSH2 0x4CF JUMP JUMPDEST DUP3 MSTORE POP POP JUMP JUMPDEST PUSH0 PUSH2 0x5CE DUP4 DUP4 PUSH2 0x5B4 JUMP JUMPDEST PUSH1 0x20 DUP4 ADD SWAP1 POP SWAP3 SWAP2 POP POP JUMP JUMPDEST PUSH0 PUSH1 0x20 DUP3 ADD SWAP1 POP SWAP2 SWAP1 POP JUMP JUMPDEST PUSH2 0x5EF DUP2 PUSH2 0x597 JUMP JUMPDEST PUSH2 0x5F9 DUP2 DUP5 PUSH2 0x5A1 JUMP JUMPDEST SWAP3 POP PUSH2 0x604 DUP3 PUSH2 0x5AB JUMP JUMPDEST DUP1 PUSH0 JUMPDEST DUP4 DUP2 LT ISZERO PUSH2 0x634 JUMPI DUP2 MLOAD PUSH2 0x61B DUP8 DUP3 PUSH2 0x5C3 JUMP JUMPDEST SWAP7 POP PUSH2 0x626 DUP4 PUSH2 0x5DA JUMP JUMPDEST SWAP3 POP POP PUSH1 0x1 DUP2 ADD SWAP1 POP PUSH2 0x607 JUMP JUMPDEST POP POP POP POP POP POP JUMP JUMPDEST PUSH0 PUSH1 0x60 DUP3 ADD SWAP1 POP PUSH2 0x64F PUSH0 DUP4 ADD DUP5 PUSH2 0x5E6 JUMP JUMPDEST SWAP3 SWAP2 POP POP JUMP JUMPDEST PUSH32 0x4E487B7100000000000000000000000000000000000000000000000000000000 PUSH0 MSTORE PUSH1 0x32 PUSH1 0x4 MSTORE PUSH1 0x24 PUSH0 REVERT JUMPDEST PUSH32 0x4E487B7100000000000000000000000000000000000000000000000000000000 PUSH0 MSTORE PUSH1 0x11 PUSH1 0x4 MSTORE PUSH1 0x24 PUSH0 REVERT JUMPDEST PUSH0 PUSH2 0x6B9 DUP3 PUSH2 0x4CF JUMP JUMPDEST SWAP2 POP PUSH32 0xFFFFFFFFFFFFFFFFFFFFFFFFFFFFFFFFFFFFFFFFFFFFFFFFFFFFFFFFFFFFFFFF DUP3 SUB PUSH2 0x6EB JUMPI PUSH2 0x6EA PUSH2 0x682 JUMP JUMPDEST JUMPDEST PUSH1 0x1 DUP3 ADD SWAP1 POP SWAP2 SWAP1 POP JUMP JUMPDEST PUSH0 DUP3 DUP3 MSTORE PUSH1 0x20 DUP3 ADD SWAP1 POP SWAP3 SWAP2 POP POP JUMP JUMPDEST PUSH32 0x456E6420696E646578206F7574206F6620626F756E6473000000000000000000 PUSH0 DUP3 ADD MSTORE POP JUMP JUMPDEST PUSH0 PUSH2 0x73A PUSH1 0x17 DUP4 PUSH2 0x6F6 JUMP JUMPDEST SWAP2 POP PUSH2 0x745 DUP3 PUSH2 0x706 JUMP JUMPDEST PUSH1 0x20 DUP3 ADD SWAP1 POP SWAP2 SWAP1 POP JUMP JUMPDEST PUSH0 PUSH1 0x20 DUP3 ADD SWAP1 POP DUP2 DUP2 SUB PUSH0 DUP4 ADD MSTORE PUSH2 0x767 DUP2 PUSH2 0x72E JUMP JUMPDEST SWAP1 POP SWAP2 SWAP1 POP JUMP JUMPDEST PUSH32 0x5374617274206D757374206265206C657373207468616E20656E640000000000 PUSH0 DUP3 ADD MSTORE POP JUMP JUMPDEST PUSH0 PUSH2 0x7A2 PUSH1 0x1B DUP4 PUSH2 0x6F6 JUMP JUMPDEST SWAP2 POP PUSH2 0x7AD DUP3 PUSH2 0x76E JUMP JUMPDEST PUSH1 0x20 DUP3 ADD SWAP1 POP SWAP2 SWAP1 POP JUMP JUMPDEST PUSH0 PUSH1 0x20 DUP3 ADD SWAP1 POP DUP2 DUP2 SUB PUSH0 DUP4 ADD MSTORE PUSH2 0x7CF DUP2 PUSH2 0x796 JUMP JUMPDEST SWAP1 POP SWAP2 SWAP1 POP JUMP JUMPDEST PUSH0 PUSH2 0x7E0 DUP3 PUSH2 0x4CF JUMP JUMPDEST SWAP2 POP PUSH2 0x7EB DUP4 PUSH2 0x4CF JUMP JUMPDEST SWAP3 POP DUP3 DUP3 MUL PUSH2 0x7F9 DUP2 PUSH2 0x4CF JUMP JUMPDEST SWAP2 POP DUP3 DUP3 DIV DUP5 EQ DUP4 ISZERO OR PUSH2 0x810 JUMPI PUSH2 0x80F PUSH2 0x682 JUMP JUMPDEST JUMPDEST POP SWAP3 SWAP2 POP POP JUMP JUMPDEST PUSH0 PUSH2 0x821 DUP3 PUSH2 0x4CF JUMP JUMPDEST SWAP2 POP PUSH2 0x82C DUP4 PUSH2 0x4CF JUMP JUMPDEST SWAP3 POP DUP3 DUP3 ADD SWAP1 POP DUP1 DUP3 GT ISZERO PUSH2 0x844 JUMPI PUSH2 0x843 PUSH2 0x682 JUMP JUMPDEST JUMPDEST SWAP3 SWAP2 POP POP JUMP INVALID LOG2 PUSH5 0x6970667358 0x22 SLT KECCAK256 CALL LT 0x4D PUSH32 0xFCC0213F2E1841ED941E1FA1D7AF6EE82758731C2A5B30BC1F68824564736F6C PUSH4 0x4300081E STOP CALLER "
		},
		"gasEstimates": {
			"creation": {
				"codeDepositCost": "435200",
				"executionCost": "5471",
				"totalCost": "440671"
			},
			"external": {
				"arr(uint256)": "infinite",
				"count()": "2448",
				"dowhile()": "infinite",
				"fixedForLoop()": "infinite",
				"forloop()": "infinite",
				"getArray()": "infinite",
				"getCount()": "2432",
				"getLength()": "398",
				"loop()": "infinite",
				"reset()": "infinite",
				"safeForLoop(uint256,uint256)": "infinite"
			}
		},
		"methodIdentifiers": {
			"arr(uint256)": "71e5ee5f",
			"count()": "06661abd",
			"dowhile()": "02a2cf0b",
			"fixedForLoop()": "587171c4",
			"forloop()": "bc68f960",
			"getArray()": "d504ea1d",
			"getCount()": "a87d942c",
			"getLength()": "be1c766b",
			"loop()": "a92100cb",
			"reset()": "d826f88f",
			"safeForLoop(uint256,uint256)": "2cd0936e"
		}
	},
	"abi": [
		{
			"inputs": [
				{
					"internalType": "uint256",
					"name": "",
					"type": "uint256"
				}
			],
			"name": "arr",
			"outputs": [
				{
					"internalType": "uint256",
					"name": "",
					"type": "uint256"
				}
			],
			"stateMutability": "view",
			"type": "function"
		},
		{
			"inputs": [],
			"name": "count",
			"outputs": [
				{
					"internalType": "uint256",
					"name": "",
					"type": "uint256"
				}
			],
			"stateMutability": "view",
			"type": "function"
		},
		{
			"inputs": [],
			"name": "dowhile",
			"outputs": [],
			"stateMutability": "nonpayable",
			"type": "function"
		},
		{
			"inputs": [],
			"name": "fixedForLoop",
			"outputs": [],
			"stateMutability": "nonpayable",
			"type": "function"
		},
		{
			"inputs": [],
			"name": "forloop",
			"outputs": [],
			"stateMutability": "nonpayable",
			"type": "function"
		},
		{
			"inputs": [],
			"name": "getArray",
			"outputs": [
				{
					"internalType": "uint256[3]",
					"name": "",
					"type": "uint256[3]"
				}
			],
			"stateMutability": "view",
			"type": "function"
		},
		{
			"inputs": [],
			"name": "getCount",
			"outputs": [
				{
					"internalType": "uint256",
					"name": "",
					"type": "uint256"
				}
			],
			"stateMutability": "view",
			"type": "function"
		},
		{
			"inputs": [],
			"name": "getLength",
			"outputs": [
				{
					"internalType": "uint256",
					"name": "",
					"type": "uint256"
				}
			],
			"stateMutability": "view",
			"type": "function"
		},
		{
			"inputs": [],
			"name": "loop",
			"outputs": [],
			"stateMutability": "nonpayable",
			"type": "function"
		},
		{
			"inputs": [],
			"name": "reset",
			"outputs": [],
			"stateMutability": "nonpayable",
			"type": "function"
		},
		{
			"inputs": [
				{
					"internalType": "uint256",
					"name": "startIndex",
					"type": "uint256"
				},
				{
					"internalType": "uint256",
					"name": "endIndex",
					"type": "uint256"
				}
			],
			"name": "safeForLoop",
			"outputs": [],
			"stateMutability": "nonpayable",
			"type": "function"
		}
	]
}