{
	"data": {
		"bytecode": {
			"linkReferences": {},
			"object": "608060405260ff5f5f6101000a81548160ff021916908360ff1602179055503480156028575f5ffd5b5061040b806100365f395ff3fe608060405234801561000f575f5ffd5b506004361061007b575f3560e01c80633f3108f7116100595780633f3108f7146100b15780634ddd108a146100bb57806380945bfb146100d957806398e1b410146100e35761007b565b806301efc4501461007f5780632baeceb71461009d5780633db598b0146100a7575b5f5ffd5b610087610101565b6040516100949190610289565b60405180910390f35b6100a561013e565b005b6100af610172565b005b6100b961018e565b005b6100c36101c2565b6040516100d09190610289565b60405180910390f35b6100e16101d3565b005b6100eb61025a565b6040516100f89190610289565b60405180910390f35b5f60015f5f9054906101000a900460ff16015f5f6101000a81548160ff021916908360ff1602179055505f5f9054906101000a900460ff16905090565b60015f5f9054906101000a900460ff1661015891906102cf565b5f5f6101000a81548160ff021916908360ff160217905550565b60ff5f5f6101000a81548160ff021916908360ff160217905550565b60015f5f9054906101000a900460ff166101a89190610303565b5f5f6101000a81548160ff021916908360ff160217905550565b5f5f9054906101000a900460ff1681565b60ff5f5f9054906101000a900460ff1660ff1610610226576040517f08c379a000000000000000000000000000000000000000000000000000000000815260040161021d906103b7565b60405180910390fd5b60015f5f9054906101000a900460ff166102409190610303565b5f5f6101000a81548160ff021916908360ff160217905550565b5f5f5f9054906101000a900460ff16905090565b5f60ff82169050919050565b6102838161026e565b82525050565b5f60208201905061029c5f83018461027a565b92915050565b7f4e487b71000000000000000000000000000000000000000000000000000000005f52601160045260245ffd5b5f6102d98261026e565b91506102e48361026e565b9250828203905060ff8111156102fd576102fc6102a2565b5b92915050565b5f61030d8261026e565b91506103188361026e565b9250828201905060ff811115610331576103306102a2565b5b92915050565b5f82825260208201905092915050565b7f4f766572666c6f773a2043616e6e6f7420696e6372656d656e74206265796f6e5f8201527f64206d6178696d756d2075696e74382076616c75650000000000000000000000602082015250565b5f6103a1603583610337565b91506103ac82610347565b604082019050919050565b5f6020820190508181035f8301526103ce81610395565b905091905056fea26469706673582212207ddbdd98a6d5b1596a655bbcbb8888de6a78dbbe199a0bc5a8b7f976edce21a264736f6c634300081e0033",
			"opcodes": "PUSH1 0x80 PUSH1 0x40 MSTORE PUSH1 0xFF PUSH0 PUSH0 PUSH2 0x100 EXP DUP2 SLOAD DUP2 PUSH1 0xFF MUL NOT AND SWAP1 DUP4 PUSH1 0xFF AND MUL OR SWAP1 SSTORE POP CALLVALUE DUP1 ISZERO PUSH1 0x28 JUMPI PUSH0 PUSH0 REVERT JUMPDEST POP PUSH2 0x40B DUP1 PUSH2 0x36 PUSH0 CODECOPY PUSH0 RETURN INVALID PUSH1 0x80 PUSH1 0x40 MSTORE CALLVALUE DUP1 ISZERO PUSH2 0xF JUMPI PUSH0 PUSH0 REVERT JUMPDEST POP PUSH1 0x4 CALLDATASIZE LT PUSH2 0x7B JUMPI PUSH0 CALLDATALOAD PUSH1 0xE0 SHR DUP1 PUSH4 0x3F3108F7 GT PUSH2 0x59 JUMPI DUP1 PUSH4 0x3F3108F7 EQ PUSH2 0xB1 JUMPI DUP1 PUSH4 0x4DDD108A EQ PUSH2 0xBB JUMPI DUP1 PUSH4 0x80945BFB EQ PUSH2 0xD9 JUMPI DUP1 PUSH4 0x98E1B410 EQ PUSH2 0xE3 JUMPI PUSH2 0x7B JUMP JUMPDEST DUP1 PUSH4 0x1EFC450 EQ PUSH2 0x7F JUMPI DUP1 PUSH4 0x2BAECEB7 EQ PUSH2 0x9D JUMPI DUP1 PUSH4 0x3DB598B0 EQ PUSH2 0xA7 JUMPI JUMPDEST PUSH0 PUSH0 REVERT JUMPDEST PUSH2 0x87 PUSH2 0x101 JUMP JUMPDEST PUSH1 0x40 MLOAD PUSH2 0x94 SWAP2 SWAP1 PUSH2 0x289 JUMP JUMPDEST PUSH1 0x40 MLOAD DUP1 SWAP2 SUB SWAP1 RETURN JUMPDEST PUSH2 0xA5 PUSH2 0x13E JUMP JUMPDEST STOP JUMPDEST PUSH2 0xAF PUSH2 0x172 JUMP JUMPDEST STOP JUMPDEST PUSH2 0xB9 PUSH2 0x18E JUMP JUMPDEST STOP JUMPDEST PUSH2 0xC3 PUSH2 0x1C2 JUMP JUMPDEST PUSH1 0x40 MLOAD PUSH2 0xD0 SWAP2 SWAP1 PUSH2 0x289 JUMP JUMPDEST PUSH1 0x40 MLOAD DUP1 SWAP2 SUB SWAP1 RETURN JUMPDEST PUSH2 0xE1 PUSH2 0x1D3 JUMP JUMPDEST STOP JUMPDEST PUSH2 0xEB PUSH2 0x25A JUMP JUMPDEST PUSH1 0x40 MLOAD PUSH2 0xF8 SWAP2 SWAP1 PUSH2 0x289 JUMP JUMPDEST PUSH1 0x40 MLOAD DUP1 SWAP2 SUB SWAP1 RETURN JUMPDEST PUSH0 PUSH1 0x1 PUSH0 PUSH0 SWAP1 SLOAD SWAP1 PUSH2 0x100 EXP SWAP1 DIV PUSH1 0xFF AND ADD PUSH0 PUSH0 PUSH2 0x100 EXP DUP2 SLOAD DUP2 PUSH1 0xFF MUL NOT AND SWAP1 DUP4 PUSH1 0xFF AND MUL OR SWAP1 SSTORE POP PUSH0 PUSH0 SWAP1 SLOAD SWAP1 PUSH2 0x100 EXP SWAP1 DIV PUSH1 0xFF AND SWAP1 POP SWAP1 JUMP JUMPDEST PUSH1 0x1 PUSH0 PUSH0 SWAP1 SLOAD SWAP1 PUSH2 0x100 EXP SWAP1 DIV PUSH1 0xFF AND PUSH2 0x158 SWAP2 SWAP1 PUSH2 0x2CF JUMP JUMPDEST PUSH0 PUSH0 PUSH2 0x100 EXP DUP2 SLOAD DUP2 PUSH1 0xFF MUL NOT AND SWAP1 DUP4 PUSH1 0xFF AND MUL OR SWAP1 SSTORE POP JUMP JUMPDEST PUSH1 0xFF PUSH0 PUSH0 PUSH2 0x100 EXP DUP2 SLOAD DUP2 PUSH1 0xFF MUL NOT AND SWAP1 DUP4 PUSH1 0xFF AND MUL OR SWAP1 SSTORE POP JUMP JUMPDEST PUSH1 0x1 PUSH0 PUSH0 SWAP1 SLOAD SWAP1 PUSH2 0x100 EXP SWAP1 DIV PUSH1 0xFF AND PUSH2 0x1A8 SWAP2 SWAP1 PUSH2 0x303 JUMP JUMPDEST PUSH0 PUSH0 PUSH2 0x100 EXP DUP2 SLOAD DUP2 PUSH1 0xFF MUL NOT AND SWAP1 DUP4 PUSH1 0xFF AND MUL OR SWAP1 SSTORE POP JUMP JUMPDEST PUSH0 PUSH0 SWAP1 SLOAD SWAP1 PUSH2 0x100 EXP SWAP1 DIV PUSH1 0xFF AND DUP2 JUMP JUMPDEST PUSH1 0xFF PUSH0 PUSH0 SWAP1 SLOAD SWAP1 PUSH2 0x100 EXP SWAP1 DIV PUSH1 0xFF AND PUSH1 0xFF AND LT PUSH2 0x226 JUMPI PUSH1 0x40 MLOAD PUSH32 0x8C379A000000000000000000000000000000000000000000000000000000000 DUP2 MSTORE PUSH1 0x4 ADD PUSH2 0x21D SWAP1 PUSH2 0x3B7 JUMP JUMPDEST PUSH1 0x40 MLOAD DUP1 SWAP2 SUB SWAP1 REVERT JUMPDEST PUSH1 0x1 PUSH0 PUSH0 SWAP1 SLOAD SWAP1 PUSH2 0x100 EXP SWAP1 DIV PUSH1 0xFF AND PUSH2 0x240 SWAP2 SWAP1 PUSH2 0x303 JUMP JUMPDEST PUSH0 PUSH0 PUSH2 0x100 EXP DUP2 SLOAD DUP2 PUSH1 0xFF MUL NOT AND SWAP1 DUP4 PUSH1 0xFF AND MUL OR SWAP1 SSTORE POP JUMP JUMPDEST PUSH0 PUSH0 PUSH0 SWAP1 SLOAD SWAP1 PUSH2 0x100 EXP SWAP1 DIV PUSH1 0xFF AND SWAP1 POP SWAP1 JUMP JUMPDEST PUSH0 PUSH1 0xFF DUP3 AND SWAP1 POP SWAP2 SWAP1 POP JUMP JUMPDEST PUSH2 0x283 DUP2 PUSH2 0x26E JUMP JUMPDEST DUP3 MSTORE POP POP JUMP JUMPDEST PUSH0 PUSH1 0x20 DUP3 ADD SWAP1 POP PUSH2 0x29C PUSH0 DUP4 ADD DUP5 PUSH2 0x27A JUMP JUMPDEST SWAP3 SWAP2 POP POP JUMP JUMPDEST PUSH32 0x4E487B7100000000000000000000000000000000000000000000000000000000 PUSH0 MSTORE PUSH1 0x11 PUSH1 0x4 MSTORE PUSH1 0x24 PUSH0 REVERT JUMPDEST PUSH0 PUSH2 0x2D9 DUP3 PUSH2 0x26E JUMP JUMPDEST SWAP2 POP PUSH2 0x2E4 DUP4 PUSH2 0x26E JUMP JUMPDEST SWAP3 POP DUP3 DUP3 SUB SWAP1 POP PUSH1 0xFF DUP2 GT ISZERO PUSH2 0x2FD JUMPI PUSH2 0x2FC PUSH2 0x2A2 JUMP JUMPDEST JUMPDEST SWAP3 SWAP2 POP POP JUMP JUMPDEST PUSH0 PUSH2 0x30D DUP3 PUSH2 0x26E JUMP JUMPDEST SWAP2 POP PUSH2 0x318 DUP4 PUSH2 0x26E JUMP JUMPDEST SWAP3 POP DUP3 DUP3 ADD SWAP1 POP PUSH1 0xFF DUP2 GT ISZERO PUSH2 0x331 JUMPI PUSH2 0x330 PUSH2 0x2A2 JUMP JUMPDEST JUMPDEST SWAP3 SWAP2 POP POP JUMP JUMPDEST PUSH0 DUP3 DUP3 MSTORE PUSH1 0x20 DUP3 ADD SWAP1 POP SWAP3 SWAP2 POP POP JUMP JUMPDEST PUSH32 0x4F766572666C6F773A2043616E6E6F7420696E6372656D656E74206265796F6E PUSH0 DUP3 ADD MSTORE PUSH32 0x64206D6178696D756D2075696E74382076616C75650000000000000000000000 PUSH1 0x20 DUP3 ADD MSTORE POP JUMP JUMPDEST PUSH0 PUSH2 0x3A1 PUSH1 0x35 DUP4 PUSH2 0x337 JUMP JUMPDEST SWAP2 POP PUSH2 0x3AC DUP3 PUSH2 0x347 JUMP JUMPDEST PUSH1 0x40 DUP3 ADD SWAP1 POP SWAP2 SWAP1 POP JUMP JUMPDEST PUSH0 PUSH1 0x20 DUP3 ADD SWAP1 POP DUP2 DUP2 SUB PUSH0 DUP4 ADD MSTORE PUSH2 0x3CE DUP2 PUSH2 0x395 JUMP JUMPDEST SWAP1 POP SWAP2 SWAP1 POP JUMP INVALID LOG2 PUSH5 0x6970667358 0x22 SLT KECCAK256 PUSH30 0xDBDD98A6D5B1596A655BBCBB8888DE6A78DBBE199A0BC5A8B7F976EDCE21 LOG2 PUSH5 0x736F6C6343 STOP ADDMOD 0x1E STOP CALLER "
		},
		"gasEstimates": {
			"creation": {
				"codeDepositCost": "207000",
				"executionCost": "24514",
				"totalCost": "231514"
			},
			"external": {
				"decrement()": "infinite",
				"getMoney()": "2538",
				"money()": "2487",
				"resetToMax()": "24453",
				"safeSetter()": "infinite",
				"setter()": "infinite",
				"uncheckedSetter()": "28878"
			}
		},
		"methodIdentifiers": {
			"decrement()": "2baeceb7",
			"getMoney()": "98e1b410",
			"money()": "4ddd108a",
			"resetToMax()": "3db598b0",
			"safeSetter()": "80945bfb",
			"setter()": "3f3108f7",
			"uncheckedSetter()": "01efc450"
		}
	},
	"abi": [
		{
			"inputs": [],
			"name": "decrement",
			"outputs": [],
			"stateMutability": "nonpayable",
			"type": "function"
		},
		{
			"inputs": [],
			"name": "getMoney",
			"outputs": [
				{
					"internalType": "uint8",
					"name": "",
					"type": "uint8"
				}
			],
			"stateMutability": "view",
			"type": "function"
		},
		{
			"inputs": [],
			"name": "money",
			"outputs": [
				{
					"internalType": "uint8",
					"name": "",
					"type": "uint8"
				}
			],
			"stateMutability": "view",
			"type": "function"
		},
		{
			"inputs": [],
			"name": "resetToMax",
			"outputs": [],
			"stateMutability": "nonpayable",
			"type": "function"
		},
		{
			"inputs": [],
			"name": "safeSetter",
			"outputs": [],
			"stateMutability": "nonpayable",
			"type": "function"
		},
		{
			"inputs": [],
			"name": "setter",
			"outputs": [],
			"stateMutability": "nonpayable",
			"type": "function"
		},
		{
			"inputs": [],
			"name": "uncheckedSetter",
			"outputs": [
				{
					"internalType": "uint8",
					"name": "",
					"type": "uint8"
				}
			],
			"stateMutability": "nonpayable",
			"type": "function"
		}
	]
}