{
	"data": {
		"bytecode": {
			"linkReferences": {},
			"object": "608060405260405180606001604052806040518060400160405280600581526020017f416c69636500000000000000000000000000000000000000000000000000000081525081526020016040518060400160405280600381526020017f426f62000000000000000000000000000000000000000000000000000000000081525081526020016040518060400160405280600781526020017f436861726c6965000000000000000000000000000000000000000000000000008152508152505f9060036100cd92919061014c565b5060405180604001604052806040518060400160405280600581526020017f416c6963650000000000000000000000000000000000000000000000000000008152508152602001601981525060015f820151815f01908161012e919061045b565b50602082015181600101555050348015610146575f5ffd5b5061052a565b828054828255905f5260205f20908101928215610192579160200282015b82811115610191578251829081610181919061045b565b509160200191906001019061016a565b5b50905061019f91906101a3565b5090565b5b808211156101c2575f81816101b991906101c6565b506001016101a4565b5090565b5080546101d290610282565b5f825580601f106101e35750610200565b601f0160209004905f5260205f20908101906101ff9190610203565b5b50565b5b8082111561021a575f815f905550600101610204565b5090565b5f81519050919050565b7f4e487b71000000000000000000000000000000000000000000000000000000005f52604160045260245ffd5b7f4e487b71000000000000000000000000000000000000000000000000000000005f52602260045260245ffd5b5f600282049050600182168061029957607f821691505b6020821081036102ac576102ab610255565b5b50919050565b5f819050815f5260205f209050919050565b5f6020601f8301049050919050565b5f82821b905092915050565b5f6008830261030e7fffffffffffffffffffffffffffffffffffffffffffffffffffffffffffffffff826102d3565b61031886836102d3565b95508019841693508086168417925050509392505050565b5f819050919050565b5f819050919050565b5f61035c61035761035284610330565b610339565b610330565b9050919050565b5f819050919050565b61037583610342565b61038961038182610363565b8484546102df565b825550505050565b5f5f905090565b6103a0610391565b6103ab81848461036c565b505050565b5b818110156103ce576103c35f82610398565b6001810190506103b1565b5050565b601f821115610413576103e4816102b2565b6103ed846102c4565b810160208510156103fc578190505b610410610408856102c4565b8301826103b0565b50505b505050565b5f82821c905092915050565b5f6104335f1984600802610418565b1980831691505092915050565b5f61044b8383610424565b9150826002028217905092915050565b6104648261021e565b67ffffffffffffffff81111561047d5761047c610228565b5b6104878254610282565b6104928282856103d2565b5f60209050601f8311600181146104c3575f84156104b1578287015190505b6104bb8582610440565b865550610522565b601f1984166104d1866102b2565b5f5b828110156104f8578489015182556001820191506020850194506020810190506104d3565b868310156105155784890151610511601f891682610424565b8355505b6001600288020188555050505b505050505050565b610ed9806105375f395ff3fe608060405234801561000f575f5ffd5b5060043610610086575f3560e01c806375339cbf1161005957806375339cbf146100d857806377ec2b55146100f75780638f23be8c14610116578063be688fae1461013457610086565b8063031117671461008a5780632cfb18021461009457806335f342321461009e5780635da9f00e146100ce575b5f5ffd5b61009261013e565b005b61009c610264565b005b6100b860048036038101906100b39190610934565b6102c9565b6040516100c591906109cf565b60405180910390f35b6100d661036e565b005b6100e0610467565b6040516100ee9291906109fe565b60405180910390f35b6100ff6105f5565b60405161010d929190610a2c565b60405180910390f35b61011e61068c565b60405161012b9190610b5d565b60405180910390f35b61013c61075f565b005b5f5f805480602002602001604051908101604052809291908181526020015f905b82821015610207578382905f5260205f2001805461017c90610baa565b80601f01602080910402602001604051908101604052809291908181526020018280546101a890610baa565b80156101f35780601f106101ca576101008083540402835291602001916101f3565b820191905f5260205f20905b8154815290600101906020018083116101d657829003601f168201915b50505050508152602001906001019061015f565b5050505090506040518060400160405280600581526020017f4461766964000000000000000000000000000000000000000000000000000000815250815f8151811061025657610255610bda565b5b602002602001018190525050565b5f5f90506040518060400160405280600581526020017f4461766964000000000000000000000000000000000000000000000000000000815250815f815481106102b1576102b0610bda565b5b905f5260205f200190816102c59190610dd4565b5050565b5f81815481106102d7575f80fd5b905f5260205f20015f9150905080546102ef90610baa565b80601f016020809104026020016040519081016040528092919081815260200182805461031b90610baa565b80156103665780601f1061033d57610100808354040283529160200191610366565b820191905f5260205f20905b81548152906001019060200180831161034957829003601f168201915b505050505081565b5f60016040518060400160405290815f8201805461038b90610baa565b80601f01602080910402602001604051908101604052809291908181526020018280546103b790610baa565b80156104025780601f106103d957610100808354040283529160200191610402565b820191905f5260205f20905b8154815290600101906020018083116103e557829003601f168201915b5050505050815260200160018201548152505090506040518060400160405280600381526020017f426f620000000000000000000000000000000000000000000000000000000000815250815f01819052505f60019050601e81600101819055505050565b5f60605f5f805480602002602001604051908101604052809291908181526020015f905b82821015610533578382905f5260205f200180546104a890610baa565b80601f01602080910402602001604051908101604052809291908181526020018280546104d490610baa565b801561051f5780601f106104f65761010080835404028352916020019161051f565b820191905f5260205f20905b81548152906001019060200180831161050257829003601f168201915b50505050508152602001906001019061048b565b5050505090505f815190505f5f90505f815f8154811061055657610555610bda565b5b905f5260205f2001805461056990610baa565b80601f016020809104026020016040519081016040528092919081815260200182805461059590610baa565b80156105e05780601f106105b7576101008083540402835291602001916105e0565b820191905f5260205f20905b8154815290600101906020018083116105c357829003601f168201915b50505050509050828195509550505050509091565b6001805f01805461060590610baa565b80601f016020809104026020016040519081016040528092919081815260200182805461063190610baa565b801561067c5780601f106106535761010080835404028352916020019161067c565b820191905f5260205f20905b81548152906001019060200180831161065f57829003601f168201915b5050505050908060010154905082565b60605f805480602002602001604051908101604052809291908181526020015f905b82821015610756578382905f5260205f200180546106cb90610baa565b80601f01602080910402602001604051908101604052809291908181526020018280546106f790610baa565b80156107425780601f1061071957610100808354040283529160200191610742565b820191905f5260205f20905b81548152906001019060200180831161072557829003601f168201915b5050505050815260200190600101906106ae565b50505050905090565b60405180606001604052806040518060400160405280600581526020017f416c69636500000000000000000000000000000000000000000000000000000081525081526020016040518060400160405280600381526020017f426f62000000000000000000000000000000000000000000000000000000000081525081526020016040518060400160405280600781526020017f436861726c6965000000000000000000000000000000000000000000000000008152508152505f90600361082892919061082b565b50565b828054828255905f5260205f20908101928215610871579160200282015b828111156108705782518290816108609190610dd4565b5091602001919060010190610849565b5b50905061087e9190610882565b5090565b5b808211156108a1575f818161089891906108a5565b50600101610883565b5090565b5080546108b190610baa565b5f825580601f106108c257506108df565b601f0160209004905f5260205f20908101906108de91906108e2565b5b50565b5b808211156108f9575f815f9055506001016108e3565b5090565b5f5ffd5b5f819050919050565b61091381610901565b811461091d575f5ffd5b50565b5f8135905061092e8161090a565b92915050565b5f60208284031215610949576109486108fd565b5b5f61095684828501610920565b91505092915050565b5f81519050919050565b5f82825260208201905092915050565b8281835e5f83830152505050565b5f601f19601f8301169050919050565b5f6109a18261095f565b6109ab8185610969565b93506109bb818560208601610979565b6109c481610987565b840191505092915050565b5f6020820190508181035f8301526109e78184610997565b905092915050565b6109f881610901565b82525050565b5f604082019050610a115f8301856109ef565b8181036020830152610a238184610997565b90509392505050565b5f6040820190508181035f830152610a448185610997565b9050610a5360208301846109ef565b9392505050565b5f81519050919050565b5f82825260208201905092915050565b5f819050602082019050919050565b5f82825260208201905092915050565b5f610a9d8261095f565b610aa78185610a83565b9350610ab7818560208601610979565b610ac081610987565b840191505092915050565b5f610ad68383610a93565b905092915050565b5f602082019050919050565b5f610af482610a5a565b610afe8185610a64565b935083602082028501610b1085610a74565b805f5b85811015610b4b5784840389528151610b2c8582610acb565b9450610b3783610ade565b925060208a01995050600181019050610b13565b50829750879550505050505092915050565b5f6020820190508181035f830152610b758184610aea565b905092915050565b7f4e487b71000000000000000000000000000000000000000000000000000000005f52602260045260245ffd5b5f6002820490506001821680610bc157607f821691505b602082108103610bd457610bd3610b7d565b5b50919050565b7f4e487b71000000000000000000000000000000000000000000000000000000005f52603260045260245ffd5b7f4e487b71000000000000000000000000000000000000000000000000000000005f52604160045260245ffd5b5f819050815f5260205f209050919050565b5f6020601f8301049050919050565b5f82821b905092915050565b5f60088302610c907fffffffffffffffffffffffffffffffffffffffffffffffffffffffffffffffff82610c55565b610c9a8683610c55565b95508019841693508086168417925050509392505050565b5f819050919050565b5f610cd5610cd0610ccb84610901565b610cb2565b610901565b9050919050565b5f819050919050565b610cee83610cbb565b610d02610cfa82610cdc565b848454610c61565b825550505050565b5f5f905090565b610d19610d0a565b610d24818484610ce5565b505050565b5b81811015610d4757610d3c5f82610d11565b600181019050610d2a565b5050565b601f821115610d8c57610d5d81610c34565b610d6684610c46565b81016020851015610d75578190505b610d89610d8185610c46565b830182610d29565b50505b505050565b5f82821c905092915050565b5f610dac5f1984600802610d91565b1980831691505092915050565b5f610dc48383610d9d565b9150826002028217905092915050565b610ddd8261095f565b67ffffffffffffffff811115610df657610df5610c07565b5b610e008254610baa565b610e0b828285610d4b565b5f60209050601f831160018114610e3c575f8415610e2a578287015190505b610e348582610db9565b865550610e9b565b601f198416610e4a86610c34565b5f5b82811015610e7157848901518255600182019150602085019450602081019050610e4c565b86831015610e8e5784890151610e8a601f891682610d9d565b8355505b6001600288020188555050505b50505050505056fea2646970667358221220f1492981d78224f26470ce04e06aeea7a53554cab244e8d27a5ab5e5ed96835d64736f6c634300081e0033",
			"opcodes": "PUSH1 0x80 PUSH1 0x40 MSTORE PUSH1 0x40 MLOAD DUP1 PUSH1 0x60 ADD PUSH1 0x40 MSTORE DUP1 PUSH1 0x40 MLOAD DUP1 PUSH1 0x40 ADD PUSH1 0x40 MSTORE DUP1 PUSH1 0x5 DUP2 MSTORE PUSH1 0x20 ADD PUSH32 0x416C696365000000000000000000000000000000000000000000000000000000 DUP2 MSTORE POP DUP2 MSTORE PUSH1 0x20 ADD PUSH1 0x40 MLOAD DUP1 PUSH1 0x40 ADD PUSH1 0x40 MSTORE DUP1 PUSH1 0x3 DUP2 MSTORE PUSH1 0x20 ADD PUSH32 0x426F620000000000000000000000000000000000000000000000000000000000 DUP2 MSTORE POP DUP2 MSTORE PUSH1 0x20 ADD PUSH1 0x40 MLOAD DUP1 PUSH1 0x40 ADD PUSH1 0x40 MSTORE DUP1 PUSH1 0x7 DUP2 MSTORE PUSH1 0x20 ADD PUSH32 0x436861726C696500000000000000000000000000000000000000000000000000 DUP2 MSTORE POP DUP2 MSTORE POP PUSH0 SWAP1 PUSH1 0x3 PUSH2 0xCD SWAP3 SWAP2 SWAP1 PUSH2 0x14C JUMP JUMPDEST POP PUSH1 0x40 MLOAD DUP1 PUSH1 0x40 ADD PUSH1 0x40 MSTORE DUP1 PUSH1 0x40 MLOAD DUP1 PUSH1 0x40 ADD PUSH1 0x40 MSTORE DUP1 PUSH1 0x5 DUP2 MSTORE PUSH1 0x20 ADD PUSH32 0x416C696365000000000000000000000000000000000000000000000000000000 DUP2 MSTORE POP DUP2 MSTORE PUSH1 0x20 ADD PUSH1 0x19 DUP2 MSTORE POP PUSH1 0x1 PUSH0 DUP3 ADD MLOAD DUP2 PUSH0 ADD SWAP1 DUP2 PUSH2 0x12E SWAP2 SWAP1 PUSH2 0x45B JUMP JUMPDEST POP PUSH1 0x20 DUP3 ADD MLOAD DUP2 PUSH1 0x1 ADD SSTORE POP POP CALLVALUE DUP1 ISZERO PUSH2 0x146 JUMPI PUSH0 PUSH0 REVERT JUMPDEST POP PUSH2 0x52A JUMP JUMPDEST DUP3 DUP1 SLOAD DUP3 DUP3 SSTORE SWAP1 PUSH0 MSTORE PUSH1 0x20 PUSH0 KECCAK256 SWAP1 DUP2 ADD SWAP3 DUP3 ISZERO PUSH2 0x192 JUMPI SWAP2 PUSH1 0x20 MUL DUP3 ADD JUMPDEST DUP3 DUP2 GT ISZERO PUSH2 0x191 JUMPI DUP3 MLOAD DUP3 SWAP1 DUP2 PUSH2 0x181 SWAP2 SWAP1 PUSH2 0x45B JUMP JUMPDEST POP SWAP2 PUSH1 0x20 ADD SWAP2 SWAP1 PUSH1 0x1 ADD SWAP1 PUSH2 0x16A JUMP JUMPDEST JUMPDEST POP SWAP1 POP PUSH2 0x19F SWAP2 SWAP1 PUSH2 0x1A3 JUMP JUMPDEST POP SWAP1 JUMP JUMPDEST JUMPDEST DUP1 DUP3 GT ISZERO PUSH2 0x1C2 JUMPI PUSH0 DUP2 DUP2 PUSH2 0x1B9 SWAP2 SWAP1 PUSH2 0x1C6 JUMP JUMPDEST POP PUSH1 0x1 ADD PUSH2 0x1A4 JUMP JUMPDEST POP SWAP1 JUMP JUMPDEST POP DUP1 SLOAD PUSH2 0x1D2 SWAP1 PUSH2 0x282 JUMP JUMPDEST PUSH0 DUP3 SSTORE DUP1 PUSH1 0x1F LT PUSH2 0x1E3 JUMPI POP PUSH2 0x200 JUMP JUMPDEST PUSH1 0x1F ADD PUSH1 0x20 SWAP1 DIV SWAP1 PUSH0 MSTORE PUSH1 0x20 PUSH0 KECCAK256 SWAP1 DUP2 ADD SWAP1 PUSH2 0x1FF SWAP2 SWAP1 PUSH2 0x203 JUMP JUMPDEST JUMPDEST POP JUMP JUMPDEST JUMPDEST DUP1 DUP3 GT ISZERO PUSH2 0x21A JUMPI PUSH0 DUP2 PUSH0 SWAP1 SSTORE POP PUSH1 0x1 ADD PUSH2 0x204 JUMP JUMPDEST POP SWAP1 JUMP JUMPDEST PUSH0 DUP2 MLOAD SWAP1 POP SWAP2 SWAP1 POP JUMP JUMPDEST PUSH32 0x4E487B7100000000000000000000000000000000000000000000000000000000 PUSH0 MSTORE PUSH1 0x41 PUSH1 0x4 MSTORE PUSH1 0x24 PUSH0 REVERT JUMPDEST PUSH32 0x4E487B7100000000000000000000000000000000000000000000000000000000 PUSH0 MSTORE PUSH1 0x22 PUSH1 0x4 MSTORE PUSH1 0x24 PUSH0 REVERT JUMPDEST PUSH0 PUSH1 0x2 DUP3 DIV SWAP1 POP PUSH1 0x1 DUP3 AND DUP1 PUSH2 0x299 JUMPI PUSH1 0x7F DUP3 AND SWAP2 POP JUMPDEST PUSH1 0x20 DUP3 LT DUP2 SUB PUSH2 0x2AC JUMPI PUSH2 0x2AB PUSH2 0x255 JUMP JUMPDEST JUMPDEST POP SWAP2 SWAP1 POP JUMP JUMPDEST PUSH0 DUP2 SWAP1 POP DUP2 PUSH0 MSTORE PUSH1 0x20 PUSH0 KECCAK256 SWAP1 POP SWAP2 SWAP1 POP JUMP JUMPDEST PUSH0 PUSH1 0x20 PUSH1 0x1F DUP4 ADD DIV SWAP1 POP SWAP2 SWAP1 POP JUMP JUMPDEST PUSH0 DUP3 DUP3 SHL SWAP1 POP SWAP3 SWAP2 POP POP JUMP JUMPDEST PUSH0 PUSH1 0x8 DUP4 MUL PUSH2 0x30E PUSH32 0xFFFFFFFFFFFFFFFFFFFFFFFFFFFFFFFFFFFFFFFFFFFFFFFFFFFFFFFFFFFFFFFF DUP3 PUSH2 0x2D3 JUMP JUMPDEST PUSH2 0x318 DUP7 DUP4 PUSH2 0x2D3 JUMP JUMPDEST SWAP6 POP DUP1 NOT DUP5 AND SWAP4 POP DUP1 DUP7 AND DUP5 OR SWAP3 POP POP POP SWAP4 SWAP3 POP POP POP JUMP JUMPDEST PUSH0 DUP2 SWAP1 POP SWAP2 SWAP1 POP JUMP JUMPDEST PUSH0 DUP2 SWAP1 POP SWAP2 SWAP1 POP JUMP JUMPDEST PUSH0 PUSH2 0x35C PUSH2 0x357 PUSH2 0x352 DUP5 PUSH2 0x330 JUMP JUMPDEST PUSH2 0x339 JUMP JUMPDEST PUSH2 0x330 JUMP JUMPDEST SWAP1 POP SWAP2 SWAP1 POP JUMP JUMPDEST PUSH0 DUP2 SWAP1 POP SWAP2 SWAP1 POP JUMP JUMPDEST PUSH2 0x375 DUP4 PUSH2 0x342 JUMP JUMPDEST PUSH2 0x389 PUSH2 0x381 DUP3 PUSH2 0x363 JUMP JUMPDEST DUP5 DUP5 SLOAD PUSH2 0x2DF JUMP JUMPDEST DUP3 SSTORE POP POP POP POP JUMP JUMPDEST PUSH0 PUSH0 SWAP1 POP SWAP1 JUMP JUMPDEST PUSH2 0x3A0 PUSH2 0x391 JUMP JUMPDEST PUSH2 0x3AB DUP2 DUP5 DUP5 PUSH2 0x36C JUMP JUMPDEST POP POP POP JUMP JUMPDEST JUMPDEST DUP2 DUP2 LT ISZERO PUSH2 0x3CE JUMPI PUSH2 0x3C3 PUSH0 DUP3 PUSH2 0x398 JUMP JUMPDEST PUSH1 0x1 DUP2 ADD SWAP1 POP PUSH2 0x3B1 JUMP JUMPDEST POP POP JUMP JUMPDEST PUSH1 0x1F DUP3 GT ISZERO PUSH2 0x413 JUMPI PUSH2 0x3E4 DUP2 PUSH2 0x2B2 JUMP JUMPDEST PUSH2 0x3ED DUP5 PUSH2 0x2C4 JUMP JUMPDEST DUP2 ADD PUSH1 0x20 DUP6 LT ISZERO PUSH2 0x3FC JUMPI DUP2 SWAP1 POP JUMPDEST PUSH2 0x410 PUSH2 0x408 DUP6 PUSH2 0x2C4 JUMP JUMPDEST DUP4 ADD DUP3 PUSH2 0x3B0 JUMP JUMPDEST POP POP JUMPDEST POP POP POP JUMP JUMPDEST PUSH0 DUP3 DUP3 SHR SWAP1 POP SWAP3 SWAP2 POP POP JUMP JUMPDEST PUSH0 PUSH2 0x433 PUSH0 NOT DUP5 PUSH1 0x8 MUL PUSH2 0x418 JUMP JUMPDEST NOT DUP1 DUP4 AND SWAP2 POP POP SWAP3 SWAP2 POP POP JUMP JUMPDEST PUSH0 PUSH2 0x44B DUP4 DUP4 PUSH2 0x424 JUMP JUMPDEST SWAP2 POP DUP3 PUSH1 0x2 MUL DUP3 OR SWAP1 POP SWAP3 SWAP2 POP POP JUMP JUMPDEST PUSH2 0x464 DUP3 PUSH2 0x21E JUMP JUMPDEST PUSH8 0xFFFFFFFFFFFFFFFF DUP2 GT ISZERO PUSH2 0x47D JUMPI PUSH2 0x47C PUSH2 0x228 JUMP JUMPDEST JUMPDEST PUSH2 0x487 DUP3 SLOAD PUSH2 0x282 JUMP JUMPDEST PUSH2 0x492 DUP3 DUP3 DUP6 PUSH2 0x3D2 JUMP JUMPDEST PUSH0 PUSH1 0x20 SWAP1 POP PUSH1 0x1F DUP4 GT PUSH1 0x1 DUP2 EQ PUSH2 0x4C3 JUMPI PUSH0 DUP5 ISZERO PUSH2 0x4B1 JUMPI DUP3 DUP8 ADD MLOAD SWAP1 POP JUMPDEST PUSH2 0x4BB DUP6 DUP3 PUSH2 0x440 JUMP JUMPDEST DUP7 SSTORE POP PUSH2 0x522 JUMP JUMPDEST PUSH1 0x1F NOT DUP5 AND PUSH2 0x4D1 DUP7 PUSH2 0x2B2 JUMP JUMPDEST PUSH0 JUMPDEST DUP3 DUP2 LT ISZERO PUSH2 0x4F8 JUMPI DUP5 DUP10 ADD MLOAD DUP3 SSTORE PUSH1 0x1 DUP3 ADD SWAP2 POP PUSH1 0x20 DUP6 ADD SWAP5 POP PUSH1 0x20 DUP2 ADD SWAP1 POP PUSH2 0x4D3 JUMP JUMPDEST DUP7 DUP4 LT ISZERO PUSH2 0x515 JUMPI DUP5 DUP10 ADD MLOAD PUSH2 0x511 PUSH1 0x1F DUP10 AND DUP3 PUSH2 0x424 JUMP JUMPDEST DUP4 SSTORE POP JUMPDEST PUSH1 0x1 PUSH1 0x2 DUP9 MUL ADD DUP9 SSTORE POP POP POP JUMPDEST POP POP POP POP POP POP JUMP JUMPDEST PUSH2 0xED9 DUP1 PUSH2 0x537 PUSH0 CODECOPY PUSH0 RETURN INVALID PUSH1 0x80 PUSH1 0x40 MSTORE CALLVALUE DUP1 ISZERO PUSH2 0xF JUMPI PUSH0 PUSH0 REVERT JUMPDEST POP PUSH1 0x4 CALLDATASIZE LT PUSH2 0x86 JUMPI PUSH0 CALLDATALOAD PUSH1 0xE0 SHR DUP1 PUSH4 0x75339CBF GT PUSH2 0x59 JUMPI DUP1 PUSH4 0x75339CBF EQ PUSH2 0xD8 JUMPI DUP1 PUSH4 0x77EC2B55 EQ PUSH2 0xF7 JUMPI DUP1 PUSH4 0x8F23BE8C EQ PUSH2 0x116 JUMPI DUP1 PUSH4 0xBE688FAE EQ PUSH2 0x134 JUMPI PUSH2 0x86 JUMP JUMPDEST DUP1 PUSH4 0x3111767 EQ PUSH2 0x8A JUMPI DUP1 PUSH4 0x2CFB1802 EQ PUSH2 0x94 JUMPI DUP1 PUSH4 0x35F34232 EQ PUSH2 0x9E JUMPI DUP1 PUSH4 0x5DA9F00E EQ PUSH2 0xCE JUMPI JUMPDEST PUSH0 PUSH0 REVERT JUMPDEST PUSH2 0x92 PUSH2 0x13E JUMP JUMPDEST STOP JUMPDEST PUSH2 0x9C PUSH2 0x264 JUMP JUMPDEST STOP JUMPDEST PUSH2 0xB8 PUSH1 0x4 DUP1 CALLDATASIZE SUB DUP2 ADD SWAP1 PUSH2 0xB3 SWAP2 SWAP1 PUSH2 0x934 JUMP JUMPDEST PUSH2 0x2C9 JUMP JUMPDEST PUSH1 0x40 MLOAD PUSH2 0xC5 SWAP2 SWAP1 PUSH2 0x9CF JUMP JUMPDEST PUSH1 0x40 MLOAD DUP1 SWAP2 SUB SWAP1 RETURN JUMPDEST PUSH2 0xD6 PUSH2 0x36E JUMP JUMPDEST STOP JUMPDEST PUSH2 0xE0 PUSH2 0x467 JUMP JUMPDEST PUSH1 0x40 MLOAD PUSH2 0xEE SWAP3 SWAP2 SWAP1 PUSH2 0x9FE JUMP JUMPDEST PUSH1 0x40 MLOAD DUP1 SWAP2 SUB SWAP1 RETURN JUMPDEST PUSH2 0xFF PUSH2 0x5F5 JUMP JUMPDEST PUSH1 0x40 MLOAD PUSH2 0x10D SWAP3 SWAP2 SWAP1 PUSH2 0xA2C JUMP JUMPDEST PUSH1 0x40 MLOAD DUP1 SWAP2 SUB SWAP1 RETURN JUMPDEST PUSH2 0x11E PUSH2 0x68C JUMP JUMPDEST PUSH1 0x40 MLOAD PUSH2 0x12B SWAP2 SWAP1 PUSH2 0xB5D JUMP JUMPDEST PUSH1 0x40 MLOAD DUP1 SWAP2 SUB SWAP1 RETURN JUMPDEST PUSH2 0x13C PUSH2 0x75F JUMP JUMPDEST STOP JUMPDEST PUSH0 PUSH0 DUP1 SLOAD DUP1 PUSH1 0x20 MUL PUSH1 0x20 ADD PUSH1 0x40 MLOAD SWAP1 DUP2 ADD PUSH1 0x40 MSTORE DUP1 SWAP3 SWAP2 SWAP1 DUP2 DUP2 MSTORE PUSH1 0x20 ADD PUSH0 SWAP1 JUMPDEST DUP3 DUP3 LT ISZERO PUSH2 0x207 JUMPI DUP4 DUP3 SWAP1 PUSH0 MSTORE PUSH1 0x20 PUSH0 KECCAK256 ADD DUP1 SLOAD PUSH2 0x17C SWAP1 PUSH2 0xBAA JUMP JUMPDEST DUP1 PUSH1 0x1F ADD PUSH1 0x20 DUP1 SWAP2 DIV MUL PUSH1 0x20 ADD PUSH1 0x40 MLOAD SWAP1 DUP2 ADD PUSH1 0x40 MSTORE DUP1 SWAP3 SWAP2 SWAP1 DUP2 DUP2 MSTORE PUSH1 0x20 ADD DUP3 DUP1 SLOAD PUSH2 0x1A8 SWAP1 PUSH2 0xBAA JUMP JUMPDEST DUP1 ISZERO PUSH2 0x1F3 JUMPI DUP1 PUSH1 0x1F LT PUSH2 0x1CA JUMPI PUSH2 0x100 DUP1 DUP4 SLOAD DIV MUL DUP4 MSTORE SWAP2 PUSH1 0x20 ADD SWAP2 PUSH2 0x1F3 JUMP JUMPDEST DUP3 ADD SWAP2 SWAP1 PUSH0 MSTORE PUSH1 0x20 PUSH0 KECCAK256 SWAP1 JUMPDEST DUP2 SLOAD DUP2 MSTORE SWAP1 PUSH1 0x1 ADD SWAP1 PUSH1 0x20 ADD DUP1 DUP4 GT PUSH2 0x1D6 JUMPI DUP3 SWAP1 SUB PUSH1 0x1F AND DUP3 ADD SWAP2 JUMPDEST POP POP POP POP POP DUP2 MSTORE PUSH1 0x20 ADD SWAP1 PUSH1 0x1 ADD SWAP1 PUSH2 0x15F JUMP JUMPDEST POP POP POP POP SWAP1 POP PUSH1 0x40 MLOAD DUP1 PUSH1 0x40 ADD PUSH1 0x40 MSTORE DUP1 PUSH1 0x5 DUP2 MSTORE PUSH1 0x20 ADD PUSH32 0x4461766964000000000000000000000000000000000000000000000000000000 DUP2 MSTORE POP DUP2 PUSH0 DUP2 MLOAD DUP2 LT PUSH2 0x256 JUMPI PUSH2 0x255 PUSH2 0xBDA JUMP JUMPDEST JUMPDEST PUSH1 0x20 MUL PUSH1 0x20 ADD ADD DUP2 SWAP1 MSTORE POP POP JUMP JUMPDEST PUSH0 PUSH0 SWAP1 POP PUSH1 0x40 MLOAD DUP1 PUSH1 0x40 ADD PUSH1 0x40 MSTORE DUP1 PUSH1 0x5 DUP2 MSTORE PUSH1 0x20 ADD PUSH32 0x4461766964000000000000000000000000000000000000000000000000000000 DUP2 MSTORE POP DUP2 PUSH0 DUP2 SLOAD DUP2 LT PUSH2 0x2B1 JUMPI PUSH2 0x2B0 PUSH2 0xBDA JUMP JUMPDEST JUMPDEST SWAP1 PUSH0 MSTORE PUSH1 0x20 PUSH0 KECCAK256 ADD SWAP1 DUP2 PUSH2 0x2C5 SWAP2 SWAP1 PUSH2 0xDD4 JUMP JUMPDEST POP POP JUMP JUMPDEST PUSH0 DUP2 DUP2 SLOAD DUP2 LT PUSH2 0x2D7 JUMPI PUSH0 DUP1 REVERT JUMPDEST SWAP1 PUSH0 MSTORE PUSH1 0x20 PUSH0 KECCAK256 ADD PUSH0 SWAP2 POP SWAP1 POP DUP1 SLOAD PUSH2 0x2EF SWAP1 PUSH2 0xBAA JUMP JUMPDEST DUP1 PUSH1 0x1F ADD PUSH1 0x20 DUP1 SWAP2 DIV MUL PUSH1 0x20 ADD PUSH1 0x40 MLOAD SWAP1 DUP2 ADD PUSH1 0x40 MSTORE DUP1 SWAP3 SWAP2 SWAP1 DUP2 DUP2 MSTORE PUSH1 0x20 ADD DUP3 DUP1 SLOAD PUSH2 0x31B SWAP1 PUSH2 0xBAA JUMP JUMPDEST DUP1 ISZERO PUSH2 0x366 JUMPI DUP1 PUSH1 0x1F LT PUSH2 0x33D JUMPI PUSH2 0x100 DUP1 DUP4 SLOAD DIV MUL DUP4 MSTORE SWAP2 PUSH1 0x20 ADD SWAP2 PUSH2 0x366 JUMP JUMPDEST DUP3 ADD SWAP2 SWAP1 PUSH0 MSTORE PUSH1 0x20 PUSH0 KECCAK256 SWAP1 JUMPDEST DUP2 SLOAD DUP2 MSTORE SWAP1 PUSH1 0x1 ADD SWAP1 PUSH1 0x20 ADD DUP1 DUP4 GT PUSH2 0x349 JUMPI DUP3 SWAP1 SUB PUSH1 0x1F AND DUP3 ADD SWAP2 JUMPDEST POP POP POP POP POP DUP2 JUMP JUMPDEST PUSH0 PUSH1 0x1 PUSH1 0x40 MLOAD DUP1 PUSH1 0x40 ADD PUSH1 0x40 MSTORE SWAP1 DUP2 PUSH0 DUP3 ADD DUP1 SLOAD PUSH2 0x38B SWAP1 PUSH2 0xBAA JUMP JUMPDEST DUP1 PUSH1 0x1F ADD PUSH1 0x20 DUP1 SWAP2 DIV MUL PUSH1 0x20 ADD PUSH1 0x40 MLOAD SWAP1 DUP2 ADD PUSH1 0x40 MSTORE DUP1 SWAP3 SWAP2 SWAP1 DUP2 DUP2 MSTORE PUSH1 0x20 ADD DUP3 DUP1 SLOAD PUSH2 0x3B7 SWAP1 PUSH2 0xBAA JUMP JUMPDEST DUP1 ISZERO PUSH2 0x402 JUMPI DUP1 PUSH1 0x1F LT PUSH2 0x3D9 JUMPI PUSH2 0x100 DUP1 DUP4 SLOAD DIV MUL DUP4 MSTORE SWAP2 PUSH1 0x20 ADD SWAP2 PUSH2 0x402 JUMP JUMPDEST DUP3 ADD SWAP2 SWAP1 PUSH0 MSTORE PUSH1 0x20 PUSH0 KECCAK256 SWAP1 JUMPDEST DUP2 SLOAD DUP2 MSTORE SWAP1 PUSH1 0x1 ADD SWAP1 PUSH1 0x20 ADD DUP1 DUP4 GT PUSH2 0x3E5 JUMPI DUP3 SWAP1 SUB PUSH1 0x1F AND DUP3 ADD SWAP2 JUMPDEST POP POP POP POP POP DUP2 MSTORE PUSH1 0x20 ADD PUSH1 0x1 DUP3 ADD SLOAD DUP2 MSTORE POP POP SWAP1 POP PUSH1 0x40 MLOAD DUP1 PUSH1 0x40 ADD PUSH1 0x40 MSTORE DUP1 PUSH1 0x3 DUP2 MSTORE PUSH1 0x20 ADD PUSH32 0x426F620000000000000000000000000000000000000000000000000000000000 DUP2 MSTORE POP DUP2 PUSH0 ADD DUP2 SWAP1 MSTORE POP PUSH0 PUSH1 0x1 SWAP1 POP PUSH1 0x1E DUP2 PUSH1 0x1 ADD DUP2 SWAP1 SSTORE POP POP POP JUMP JUMPDEST PUSH0 PUSH1 0x60 PUSH0 PUSH0 DUP1 SLOAD DUP1 PUSH1 0x20 MUL PUSH1 0x20 ADD PUSH1 0x40 MLOAD SWAP1 DUP2 ADD PUSH1 0x40 MSTORE DUP1 SWAP3 SWAP2 SWAP1 DUP2 DUP2 MSTORE PUSH1 0x20 ADD PUSH0 SWAP1 JUMPDEST DUP3 DUP3 LT ISZERO PUSH2 0x533 JUMPI DUP4 DUP3 SWAP1 PUSH0 MSTORE PUSH1 0x20 PUSH0 KECCAK256 ADD DUP1 SLOAD PUSH2 0x4A8 SWAP1 PUSH2 0xBAA JUMP JUMPDEST DUP1 PUSH1 0x1F ADD PUSH1 0x20 DUP1 SWAP2 DIV MUL PUSH1 0x20 ADD PUSH1 0x40 MLOAD SWAP1 DUP2 ADD PUSH1 0x40 MSTORE DUP1 SWAP3 SWAP2 SWAP1 DUP2 DUP2 MSTORE PUSH1 0x20 ADD DUP3 DUP1 SLOAD PUSH2 0x4D4 SWAP1 PUSH2 0xBAA JUMP JUMPDEST DUP1 ISZERO PUSH2 0x51F JUMPI DUP1 PUSH1 0x1F LT PUSH2 0x4F6 JUMPI PUSH2 0x100 DUP1 DUP4 SLOAD DIV MUL DUP4 MSTORE SWAP2 PUSH1 0x20 ADD SWAP2 PUSH2 0x51F JUMP JUMPDEST DUP3 ADD SWAP2 SWAP1 PUSH0 MSTORE PUSH1 0x20 PUSH0 KECCAK256 SWAP1 JUMPDEST DUP2 SLOAD DUP2 MSTORE SWAP1 PUSH1 0x1 ADD SWAP1 PUSH1 0x20 ADD DUP1 DUP4 GT PUSH2 0x502 JUMPI DUP3 SWAP1 SUB PUSH1 0x1F AND DUP3 ADD SWAP2 JUMPDEST POP POP POP POP POP DUP2 MSTORE PUSH1 0x20 ADD SWAP1 PUSH1 0x1 ADD SWAP1 PUSH2 0x48B JUMP JUMPDEST POP POP POP POP SWAP1 POP PUSH0 DUP2 MLOAD SWAP1 POP PUSH0 PUSH0 SWAP1 POP PUSH0 DUP2 PUSH0 DUP2 SLOAD DUP2 LT PUSH2 0x556 JUMPI PUSH2 0x555 PUSH2 0xBDA JUMP JUMPDEST JUMPDEST SWAP1 PUSH0 MSTORE PUSH1 0x20 PUSH0 KECCAK256 ADD DUP1 SLOAD PUSH2 0x569 SWAP1 PUSH2 0xBAA JUMP JUMPDEST DUP1 PUSH1 0x1F ADD PUSH1 0x20 DUP1 SWAP2 DIV MUL PUSH1 0x20 ADD PUSH1 0x40 MLOAD SWAP1 DUP2 ADD PUSH1 0x40 MSTORE DUP1 SWAP3 SWAP2 SWAP1 DUP2 DUP2 MSTORE PUSH1 0x20 ADD DUP3 DUP1 SLOAD PUSH2 0x595 SWAP1 PUSH2 0xBAA JUMP JUMPDEST DUP1 ISZERO PUSH2 0x5E0 JUMPI DUP1 PUSH1 0x1F LT PUSH2 0x5B7 JUMPI PUSH2 0x100 DUP1 DUP4 SLOAD DIV MUL DUP4 MSTORE SWAP2 PUSH1 0x20 ADD SWAP2 PUSH2 0x5E0 JUMP JUMPDEST DUP3 ADD SWAP2 SWAP1 PUSH0 MSTORE PUSH1 0x20 PUSH0 KECCAK256 SWAP1 JUMPDEST DUP2 SLOAD DUP2 MSTORE SWAP1 PUSH1 0x1 ADD SWAP1 PUSH1 0x20 ADD DUP1 DUP4 GT PUSH2 0x5C3 JUMPI DUP3 SWAP1 SUB PUSH1 0x1F AND DUP3 ADD SWAP2 JUMPDEST POP POP POP POP POP SWAP1 POP DUP3 DUP2 SWAP6 POP SWAP6 POP POP POP POP POP SWAP1 SWAP2 JUMP JUMPDEST PUSH1 0x1 DUP1 PUSH0 ADD DUP1 SLOAD PUSH2 0x605 SWAP1 PUSH2 0xBAA JUMP JUMPDEST DUP1 PUSH1 0x1F ADD PUSH1 0x20 DUP1 SWAP2 DIV MUL PUSH1 0x20 ADD PUSH1 0x40 MLOAD SWAP1 DUP2 ADD PUSH1 0x40 MSTORE DUP1 SWAP3 SWAP2 SWAP1 DUP2 DUP2 MSTORE PUSH1 0x20 ADD DUP3 DUP1 SLOAD PUSH2 0x631 SWAP1 PUSH2 0xBAA JUMP JUMPDEST DUP1 ISZERO PUSH2 0x67C JUMPI DUP1 PUSH1 0x1F LT PUSH2 0x653 JUMPI PUSH2 0x100 DUP1 DUP4 SLOAD DIV MUL DUP4 MSTORE SWAP2 PUSH1 0x20 ADD SWAP2 PUSH2 0x67C JUMP JUMPDEST DUP3 ADD SWAP2 SWAP1 PUSH0 MSTORE PUSH1 0x20 PUSH0 KECCAK256 SWAP1 JUMPDEST DUP2 SLOAD DUP2 MSTORE SWAP1 PUSH1 0x1 ADD SWAP1 PUSH1 0x20 ADD DUP1 DUP4 GT PUSH2 0x65F JUMPI DUP3 SWAP1 SUB PUSH1 0x1F AND DUP3 ADD SWAP2 JUMPDEST POP POP POP POP POP SWAP1 DUP1 PUSH1 0x1 ADD SLOAD SWAP1 POP DUP3 JUMP JUMPDEST PUSH1 0x60 PUSH0 DUP1 SLOAD DUP1 PUSH1 0x20 MUL PUSH1 0x20 ADD PUSH1 0x40 MLOAD SWAP1 DUP2 ADD PUSH1 0x40 MSTORE DUP1 SWAP3 SWAP2 SWAP1 DUP2 DUP2 MSTORE PUSH1 0x20 ADD PUSH0 SWAP1 JUMPDEST DUP3 DUP3 LT ISZERO PUSH2 0x756 JUMPI DUP4 DUP3 SWAP1 PUSH0 MSTORE PUSH1 0x20 PUSH0 KECCAK256 ADD DUP1 SLOAD PUSH2 0x6CB SWAP1 PUSH2 0xBAA JUMP JUMPDEST DUP1 PUSH1 0x1F ADD PUSH1 0x20 DUP1 SWAP2 DIV MUL PUSH1 0x20 ADD PUSH1 0x40 MLOAD SWAP1 DUP2 ADD PUSH1 0x40 MSTORE DUP1 SWAP3 SWAP2 SWAP1 DUP2 DUP2 MSTORE PUSH1 0x20 ADD DUP3 DUP1 SLOAD PUSH2 0x6F7 SWAP1 PUSH2 0xBAA JUMP JUMPDEST DUP1 ISZERO PUSH2 0x742 JUMPI DUP1 PUSH1 0x1F LT PUSH2 0x719 JUMPI PUSH2 0x100 DUP1 DUP4 SLOAD DIV MUL DUP4 MSTORE SWAP2 PUSH1 0x20 ADD SWAP2 PUSH2 0x742 JUMP JUMPDEST DUP3 ADD SWAP2 SWAP1 PUSH0 MSTORE PUSH1 0x20 PUSH0 KECCAK256 SWAP1 JUMPDEST DUP2 SLOAD DUP2 MSTORE SWAP1 PUSH1 0x1 ADD SWAP1 PUSH1 0x20 ADD DUP1 DUP4 GT PUSH2 0x725 JUMPI DUP3 SWAP1 SUB PUSH1 0x1F AND DUP3 ADD SWAP2 JUMPDEST POP POP POP POP POP DUP2 MSTORE PUSH1 0x20 ADD SWAP1 PUSH1 0x1 ADD SWAP1 PUSH2 0x6AE JUMP JUMPDEST POP POP POP POP SWAP1 POP SWAP1 JUMP JUMPDEST PUSH1 0x40 MLOAD DUP1 PUSH1 0x60 ADD PUSH1 0x40 MSTORE DUP1 PUSH1 0x40 MLOAD DUP1 PUSH1 0x40 ADD PUSH1 0x40 MSTORE DUP1 PUSH1 0x5 DUP2 MSTORE PUSH1 0x20 ADD PUSH32 0x416C696365000000000000000000000000000000000000000000000000000000 DUP2 MSTORE POP DUP2 MSTORE PUSH1 0x20 ADD PUSH1 0x40 MLOAD DUP1 PUSH1 0x40 ADD PUSH1 0x40 MSTORE DUP1 PUSH1 0x3 DUP2 MSTORE PUSH1 0x20 ADD PUSH32 0x426F620000000000000000000000000000000000000000000000000000000000 DUP2 MSTORE POP DUP2 MSTORE PUSH1 0x20 ADD PUSH1 0x40 MLOAD DUP1 PUSH1 0x40 ADD PUSH1 0x40 MSTORE DUP1 PUSH1 0x7 DUP2 MSTORE PUSH1 0x20 ADD PUSH32 0x436861726C696500000000000000000000000000000000000000000000000000 DUP2 MSTORE POP DUP2 MSTORE POP PUSH0 SWAP1 PUSH1 0x3 PUSH2 0x828 SWAP3 SWAP2 SWAP1 PUSH2 0x82B JUMP JUMPDEST POP JUMP JUMPDEST DUP3 DUP1 SLOAD DUP3 DUP3 SSTORE SWAP1 PUSH0 MSTORE PUSH1 0x20 PUSH0 KECCAK256 SWAP1 DUP2 ADD SWAP3 DUP3 ISZERO PUSH2 0x871 JUMPI SWAP2 PUSH1 0x20 MUL DUP3 ADD JUMPDEST DUP3 DUP2 GT ISZERO PUSH2 0x870 JUMPI DUP3 MLOAD DUP3 SWAP1 DUP2 PUSH2 0x860 SWAP2 SWAP1 PUSH2 0xDD4 JUMP JUMPDEST POP SWAP2 PUSH1 0x20 ADD SWAP2 SWAP1 PUSH1 0x1 ADD SWAP1 PUSH2 0x849 JUMP JUMPDEST JUMPDEST POP SWAP1 POP PUSH2 0x87E SWAP2 SWAP1 PUSH2 0x882 JUMP JUMPDEST POP SWAP1 JUMP JUMPDEST JUMPDEST DUP1 DUP3 GT ISZERO PUSH2 0x8A1 JUMPI PUSH0 DUP2 DUP2 PUSH2 0x898 SWAP2 SWAP1 PUSH2 0x8A5 JUMP JUMPDEST POP PUSH1 0x1 ADD PUSH2 0x883 JUMP JUMPDEST POP SWAP1 JUMP JUMPDEST POP DUP1 SLOAD PUSH2 0x8B1 SWAP1 PUSH2 0xBAA JUMP JUMPDEST PUSH0 DUP3 SSTORE DUP1 PUSH1 0x1F LT PUSH2 0x8C2 JUMPI POP PUSH2 0x8DF JUMP JUMPDEST PUSH1 0x1F ADD PUSH1 0x20 SWAP1 DIV SWAP1 PUSH0 MSTORE PUSH1 0x20 PUSH0 KECCAK256 SWAP1 DUP2 ADD SWAP1 PUSH2 0x8DE SWAP2 SWAP1 PUSH2 0x8E2 JUMP JUMPDEST JUMPDEST POP JUMP JUMPDEST JUMPDEST DUP1 DUP3 GT ISZERO PUSH2 0x8F9 JUMPI PUSH0 DUP2 PUSH0 SWAP1 SSTORE POP PUSH1 0x1 ADD PUSH2 0x8E3 JUMP JUMPDEST POP SWAP1 JUMP JUMPDEST PUSH0 PUSH0 REVERT JUMPDEST PUSH0 DUP2 SWAP1 POP SWAP2 SWAP1 POP JUMP JUMPDEST PUSH2 0x913 DUP2 PUSH2 0x901 JUMP JUMPDEST DUP2 EQ PUSH2 0x91D JUMPI PUSH0 PUSH0 REVERT JUMPDEST POP JUMP JUMPDEST PUSH0 DUP2 CALLDATALOAD SWAP1 POP PUSH2 0x92E DUP2 PUSH2 0x90A JUMP JUMPDEST SWAP3 SWAP2 POP POP JUMP JUMPDEST PUSH0 PUSH1 0x20 DUP3 DUP5 SUB SLT ISZERO PUSH2 0x949 JUMPI PUSH2 0x948 PUSH2 0x8FD JUMP JUMPDEST JUMPDEST PUSH0 PUSH2 0x956 DUP5 DUP3 DUP6 ADD PUSH2 0x920 JUMP JUMPDEST SWAP2 POP POP SWAP3 SWAP2 POP POP JUMP JUMPDEST PUSH0 DUP2 MLOAD SWAP1 POP SWAP2 SWAP1 POP JUMP JUMPDEST PUSH0 DUP3 DUP3 MSTORE PUSH1 0x20 DUP3 ADD SWAP1 POP SWAP3 SWAP2 POP POP JUMP JUMPDEST DUP3 DUP2 DUP4 MCOPY PUSH0 DUP4 DUP4 ADD MSTORE POP POP POP JUMP JUMPDEST PUSH0 PUSH1 0x1F NOT PUSH1 0x1F DUP4 ADD AND SWAP1 POP SWAP2 SWAP1 POP JUMP JUMPDEST PUSH0 PUSH2 0x9A1 DUP3 PUSH2 0x95F JUMP JUMPDEST PUSH2 0x9AB DUP2 DUP6 PUSH2 0x969 JUMP JUMPDEST SWAP4 POP PUSH2 0x9BB DUP2 DUP6 PUSH1 0x20 DUP7 ADD PUSH2 0x979 JUMP JUMPDEST PUSH2 0x9C4 DUP2 PUSH2 0x987 JUMP JUMPDEST DUP5 ADD SWAP2 POP POP SWAP3 SWAP2 POP POP JUMP JUMPDEST PUSH0 PUSH1 0x20 DUP3 ADD SWAP1 POP DUP2 DUP2 SUB PUSH0 DUP4 ADD MSTORE PUSH2 0x9E7 DUP2 DUP5 PUSH2 0x997 JUMP JUMPDEST SWAP1 POP SWAP3 SWAP2 POP POP JUMP JUMPDEST PUSH2 0x9F8 DUP2 PUSH2 0x901 JUMP JUMPDEST DUP3 MSTORE POP POP JUMP JUMPDEST PUSH0 PUSH1 0x40 DUP3 ADD SWAP1 POP PUSH2 0xA11 PUSH0 DUP4 ADD DUP6 PUSH2 0x9EF JUMP JUMPDEST DUP2 DUP2 SUB PUSH1 0x20 DUP4 ADD MSTORE PUSH2 0xA23 DUP2 DUP5 PUSH2 0x997 JUMP JUMPDEST SWAP1 POP SWAP4 SWAP3 POP POP POP JUMP JUMPDEST PUSH0 PUSH1 0x40 DUP3 ADD SWAP1 POP DUP2 DUP2 SUB PUSH0 DUP4 ADD MSTORE PUSH2 0xA44 DUP2 DUP6 PUSH2 0x997 JUMP JUMPDEST SWAP1 POP PUSH2 0xA53 PUSH1 0x20 DUP4 ADD DUP5 PUSH2 0x9EF JUMP JUMPDEST SWAP4 SWAP3 POP POP POP JUMP JUMPDEST PUSH0 DUP2 MLOAD SWAP1 POP SWAP2 SWAP1 POP JUMP JUMPDEST PUSH0 DUP3 DUP3 MSTORE PUSH1 0x20 DUP3 ADD SWAP1 POP SWAP3 SWAP2 POP POP JUMP JUMPDEST PUSH0 DUP2 SWAP1 POP PUSH1 0x20 DUP3 ADD SWAP1 POP SWAP2 SWAP1 POP JUMP JUMPDEST PUSH0 DUP3 DUP3 MSTORE PUSH1 0x20 DUP3 ADD SWAP1 POP SWAP3 SWAP2 POP POP JUMP JUMPDEST PUSH0 PUSH2 0xA9D DUP3 PUSH2 0x95F JUMP JUMPDEST PUSH2 0xAA7 DUP2 DUP6 PUSH2 0xA83 JUMP JUMPDEST SWAP4 POP PUSH2 0xAB7 DUP2 DUP6 PUSH1 0x20 DUP7 ADD PUSH2 0x979 JUMP JUMPDEST PUSH2 0xAC0 DUP2 PUSH2 0x987 JUMP JUMPDEST DUP5 ADD SWAP2 POP POP SWAP3 SWAP2 POP POP JUMP JUMPDEST PUSH0 PUSH2 0xAD6 DUP4 DUP4 PUSH2 0xA93 JUMP JUMPDEST SWAP1 POP SWAP3 SWAP2 POP POP JUMP JUMPDEST PUSH0 PUSH1 0x20 DUP3 ADD SWAP1 POP SWAP2 SWAP1 POP JUMP JUMPDEST PUSH0 PUSH2 0xAF4 DUP3 PUSH2 0xA5A JUMP JUMPDEST PUSH2 0xAFE DUP2 DUP6 PUSH2 0xA64 JUMP JUMPDEST SWAP4 POP DUP4 PUSH1 0x20 DUP3 MUL DUP6 ADD PUSH2 0xB10 DUP6 PUSH2 0xA74 JUMP JUMPDEST DUP1 PUSH0 JUMPDEST DUP6 DUP2 LT ISZERO PUSH2 0xB4B JUMPI DUP5 DUP5 SUB DUP10 MSTORE DUP2 MLOAD PUSH2 0xB2C DUP6 DUP3 PUSH2 0xACB JUMP JUMPDEST SWAP5 POP PUSH2 0xB37 DUP4 PUSH2 0xADE JUMP JUMPDEST SWAP3 POP PUSH1 0x20 DUP11 ADD SWAP10 POP POP PUSH1 0x1 DUP2 ADD SWAP1 POP PUSH2 0xB13 JUMP JUMPDEST POP DUP3 SWAP8 POP DUP8 SWAP6 POP POP POP POP POP POP SWAP3 SWAP2 POP POP JUMP JUMPDEST PUSH0 PUSH1 0x20 DUP3 ADD SWAP1 POP DUP2 DUP2 SUB PUSH0 DUP4 ADD MSTORE PUSH2 0xB75 DUP2 DUP5 PUSH2 0xAEA JUMP JUMPDEST SWAP1 POP SWAP3 SWAP2 POP POP JUMP JUMPDEST PUSH32 0x4E487B7100000000000000000000000000000000000000000000000000000000 PUSH0 MSTORE PUSH1 0x22 PUSH1 0x4 MSTORE PUSH1 0x24 PUSH0 REVERT JUMPDEST PUSH0 PUSH1 0x2 DUP3 DIV SWAP1 POP PUSH1 0x1 DUP3 AND DUP1 PUSH2 0xBC1 JUMPI PUSH1 0x7F DUP3 AND SWAP2 POP JUMPDEST PUSH1 0x20 DUP3 LT DUP2 SUB PUSH2 0xBD4 JUMPI PUSH2 0xBD3 PUSH2 0xB7D JUMP JUMPDEST JUMPDEST POP SWAP2 SWAP1 POP JUMP JUMPDEST PUSH32 0x4E487B7100000000000000000000000000000000000000000000000000000000 PUSH0 MSTORE PUSH1 0x32 PUSH1 0x4 MSTORE PUSH1 0x24 PUSH0 REVERT JUMPDEST PUSH32 0x4E487B7100000000000000000000000000000000000000000000000000000000 PUSH0 MSTORE PUSH1 0x41 PUSH1 0x4 MSTORE PUSH1 0x24 PUSH0 REVERT JUMPDEST PUSH0 DUP2 SWAP1 POP DUP2 PUSH0 MSTORE PUSH1 0x20 PUSH0 KECCAK256 SWAP1 POP SWAP2 SWAP1 POP JUMP JUMPDEST PUSH0 PUSH1 0x20 PUSH1 0x1F DUP4 ADD DIV SWAP1 POP SWAP2 SWAP1 POP JUMP JUMPDEST PUSH0 DUP3 DUP3 SHL SWAP1 POP SWAP3 SWAP2 POP POP JUMP JUMPDEST PUSH0 PUSH1 0x8 DUP4 MUL PUSH2 0xC90 PUSH32 0xFFFFFFFFFFFFFFFFFFFFFFFFFFFFFFFFFFFFFFFFFFFFFFFFFFFFFFFFFFFFFFFF DUP3 PUSH2 0xC55 JUMP JUMPDEST PUSH2 0xC9A DUP7 DUP4 PUSH2 0xC55 JUMP JUMPDEST SWAP6 POP DUP1 NOT DUP5 AND SWAP4 POP DUP1 DUP7 AND DUP5 OR SWAP3 POP POP POP SWAP4 SWAP3 POP POP POP JUMP JUMPDEST PUSH0 DUP2 SWAP1 POP SWAP2 SWAP1 POP JUMP JUMPDEST PUSH0 PUSH2 0xCD5 PUSH2 0xCD0 PUSH2 0xCCB DUP5 PUSH2 0x901 JUMP JUMPDEST PUSH2 0xCB2 JUMP JUMPDEST PUSH2 0x901 JUMP JUMPDEST SWAP1 POP SWAP2 SWAP1 POP JUMP JUMPDEST PUSH0 DUP2 SWAP1 POP SWAP2 SWAP1 POP JUMP JUMPDEST PUSH2 0xCEE DUP4 PUSH2 0xCBB JUMP JUMPDEST PUSH2 0xD02 PUSH2 0xCFA DUP3 PUSH2 0xCDC JUMP JUMPDEST DUP5 DUP5 SLOAD PUSH2 0xC61 JUMP JUMPDEST DUP3 SSTORE POP POP POP POP JUMP JUMPDEST PUSH0 PUSH0 SWAP1 POP SWAP1 JUMP JUMPDEST PUSH2 0xD19 PUSH2 0xD0A JUMP JUMPDEST PUSH2 0xD24 DUP2 DUP5 DUP5 PUSH2 0xCE5 JUMP JUMPDEST POP POP POP JUMP JUMPDEST JUMPDEST DUP2 DUP2 LT ISZERO PUSH2 0xD47 JUMPI PUSH2 0xD3C PUSH0 DUP3 PUSH2 0xD11 JUMP JUMPDEST PUSH1 0x1 DUP2 ADD SWAP1 POP PUSH2 0xD2A JUMP JUMPDEST POP POP JUMP JUMPDEST PUSH1 0x1F DUP3 GT ISZERO PUSH2 0xD8C JUMPI PUSH2 0xD5D DUP2 PUSH2 0xC34 JUMP JUMPDEST PUSH2 0xD66 DUP5 PUSH2 0xC46 JUMP JUMPDEST DUP2 ADD PUSH1 0x20 DUP6 LT ISZERO PUSH2 0xD75 JUMPI DUP2 SWAP1 POP JUMPDEST PUSH2 0xD89 PUSH2 0xD81 DUP6 PUSH2 0xC46 JUMP JUMPDEST DUP4 ADD DUP3 PUSH2 0xD29 JUMP JUMPDEST POP POP JUMPDEST POP POP POP JUMP JUMPDEST PUSH0 DUP3 DUP3 SHR SWAP1 POP SWAP3 SWAP2 POP POP JUMP JUMPDEST PUSH0 PUSH2 0xDAC PUSH0 NOT DUP5 PUSH1 0x8 MUL PUSH2 0xD91 JUMP JUMPDEST NOT DUP1 DUP4 AND SWAP2 POP POP SWAP3 SWAP2 POP POP JUMP JUMPDEST PUSH0 PUSH2 0xDC4 DUP4 DUP4 PUSH2 0xD9D JUMP JUMPDEST SWAP2 POP DUP3 PUSH1 0x2 MUL DUP3 OR SWAP1 POP SWAP3 SWAP2 POP POP JUMP JUMPDEST PUSH2 0xDDD DUP3 PUSH2 0x95F JUMP JUMPDEST PUSH8 0xFFFFFFFFFFFFFFFF DUP2 GT ISZERO PUSH2 0xDF6 JUMPI PUSH2 0xDF5 PUSH2 0xC07 JUMP JUMPDEST JUMPDEST PUSH2 0xE00 DUP3 SLOAD PUSH2 0xBAA JUMP JUMPDEST PUSH2 0xE0B DUP3 DUP3 DUP6 PUSH2 0xD4B JUMP JUMPDEST PUSH0 PUSH1 0x20 SWAP1 POP PUSH1 0x1F DUP4 GT PUSH1 0x1 DUP2 EQ PUSH2 0xE3C JUMPI PUSH0 DUP5 ISZERO PUSH2 0xE2A JUMPI DUP3 DUP8 ADD MLOAD SWAP1 POP JUMPDEST PUSH2 0xE34 DUP6 DUP3 PUSH2 0xDB9 JUMP JUMPDEST DUP7 SSTORE POP PUSH2 0xE9B JUMP JUMPDEST PUSH1 0x1F NOT DUP5 AND PUSH2 0xE4A DUP7 PUSH2 0xC34 JUMP JUMPDEST PUSH0 JUMPDEST DUP3 DUP2 LT ISZERO PUSH2 0xE71 JUMPI DUP5 DUP10 ADD MLOAD DUP3 SSTORE PUSH1 0x1 DUP3 ADD SWAP2 POP PUSH1 0x20 DUP6 ADD SWAP5 POP PUSH1 0x20 DUP2 ADD SWAP1 POP PUSH2 0xE4C JUMP JUMPDEST DUP7 DUP4 LT ISZERO PUSH2 0xE8E JUMPI DUP5 DUP10 ADD MLOAD PUSH2 0xE8A PUSH1 0x1F DUP10 AND DUP3 PUSH2 0xD9D JUMP JUMPDEST DUP4 SSTORE POP JUMPDEST PUSH1 0x1 PUSH1 0x2 DUP9 MUL ADD DUP9 SSTORE POP POP POP JUMPDEST POP POP POP POP POP POP JUMP INVALID LOG2 PUSH5 0x6970667358 0x22 SLT KECCAK256 CALL BLOBHASH 0x29 DUP2 0xD7 DUP3 0x24 CALLCODE PUSH5 0x70CE04E06A RETURNCONTRACT 0xA7 0xA5 CALLDATALOAD SLOAD 0xCA 0xB2 PREVRANDAO 0xE8 0xD2 PUSH27 0x5AB5E5ED96835D64736F6C634300081E0033000000000000000000 "
		},
		"gasEstimates": {
			"creation": {
				"codeDepositCost": "760200",
				"executionCost": "infinite",
				"totalCost": "infinite"
			},
			"external": {
				"demonstrateGasCosts()": "infinite",
				"demonstrateMemoryBehavior()": "infinite",
				"demonstrateStorageBehavior()": "infinite",
				"demonstrateStructBehavior()": "infinite",
				"getStudentArray()": "infinite",
				"person()": "infinite",
				"resetStudentArray()": "infinite",
				"student(uint256)": "infinite"
			}
		},
		"methodIdentifiers": {
			"demonstrateGasCosts()": "75339cbf",
			"demonstrateMemoryBehavior()": "03111767",
			"demonstrateStorageBehavior()": "2cfb1802",
			"demonstrateStructBehavior()": "5da9f00e",
			"getStudentArray()": "8f23be8c",
			"person()": "77ec2b55",
			"resetStudentArray()": "be688fae",
			"student(uint256)": "35f34232"
		}
	},
	"abi": [
		{
			"inputs": [],
			"name": "demonstrateGasCosts",
			"outputs": [
				{
					"internalType": "uint256",
					"name": "",
					"type": "uint256"
				},
				{
					"internalType": "string",
					"name": "",
					"type": "string"
				}
			],
			"stateMutability": "view",
			"type": "function"
		},
		{
			"inputs": [],
			"name": "demonstrateMemoryBehavior",
			"outputs": [],
			"stateMutability": "view",
			"type": "function"
		},
		{
			"inputs": [],
			"name": "demonstrateStorageBehavior",
			"outputs": [],
			"stateMutability": "nonpayable",
			"type": "function"
		},
		{
			"inputs": [],
			"name": "demonstrateStructBehavior",
			"outputs": [],
			"stateMutability": "nonpayable",
			"type": "function"
		},
		{
			"inputs": [],
			"name": "getStudentArray",
			"outputs": [
				{
					"internalType": "string[]",
					"name": "",
					"type": "string[]"
				}
			],
			"stateMutability": "view",
			"type": "function"
		},
		{
			"inputs": [],
			"name": "person",
			"outputs": [
				{
					"internalType": "string",
					"name": "name",
					"type": "string"
				},
				{
					"internalType": "uint256",
					"name": "age",
					"type": "uint256"
				}
			],
			"stateMutability": "view",
			"type": "function"
		},
		{
			"inputs": [],
			"name": "resetStudentArray",
			"outputs": [],
			"stateMutability": "nonpayable",
			"type": "function"
		},
		{
			"inputs": [
				{
					"internalType": "uint256",
					"name": "",
					"type": "uint256"
				}
			],
			"name": "student",
			"outputs": [
				{
					"internalType": "string",
					"name": "",
					"type": "string"
				}
			],
			"stateMutability": "view",
			"type": "function"
		}
	]
}